:100000000C9463000C948B000C948B000C948B006C
:100010000C948B000C948B000C948B000C944C1261
:100020000C948B000C948B000C948B000C948B0024
:100030000C948B000C948B000C948B000C948B0014
:100040000C94C8150C948B000C949C170C94D81726
:100050000C948B000C948B000C948B000C948B00F4
:100060000C94F5100C948B000000000700020100B6
:100070000003040600000000000000000102040864
:100080001020408001020408102001020408102002
:10009000040404040404040402020202020203032E
:1000A00003030303000000002300260029000000D2
:1000B0000000250028002B0000000000240027007D
:1000C0002A000410131811241FBECFEFD8E0DEBFA2
:1000D000CDBF11E0A0E0B1E0EAE3F8E302C0059093
:1000E0000D92AA34B107D9F715E0AAE4B1E001C036
:1000F0001D92AD3DB107E1F710E0C6ECD0E004C0C1
:100100002297FE010E94A01AC23CD107C9F70E94A3
:10011000F3160C941B1C0C940000CF93DF93EC019E
:1001200060E088810E94D31484E190E00E947416FC
:1001300061E088810E94D31484E190E0DF91CF9147
:100140000C9474160F931F93CF93DF93EC01062F3B
:1001500018E007FF02C061E001C060E089810E94F1
:10016000D314CE010E948D00000F115091F7DF9142
:10017000CF911F910F910895EF92FF921F93CF930C
:10018000DF9300D0CDB7DEB77C01162F27FF02C06A
:1001900060EC01C060EE26FF606147FF686046FFCB
:1001A000646017FF626016FF6160C70129834A839C
:1001B0000E94A2002981622FC7010E94A2004A81E9
:1001C000642FC7010E94A200612FC7010F900F90FA
:1001D000DF91CF911F91FF90EF900C94A2007F923E
:1001E0008F929F92AF92BF92CF92DF92EF92FF9247
:1001F0000F931F93CF93DF93EC01162F942E822E33
:1002000060E00E94A20060E0CE010E94A20060E0D7
:10021000CE010E94A20060E0CE010E94A20083E015
:10022000189F7001112467018FEFC81AD80A57016F
:1002300082E0A80EB11C712C1FC071120FC0EB819F
:10024000FC81EE0DFF1D9082EB81FC81EC0DFD1D0C
:100250008082EB81FC81EA0DFB1D0083EB81FC8138
:1002600083E0789EE00DF11D11242281418160819F
:10027000CE010E94BC0073948A817816F0F260E08F
:10028000CE010E94A20060E0CE010E94A20060E0C8
:10029000CE010E94A20060E0CE01DF91CF911F91BC
:1002A0000F91FF90EF90DF90CF90BF90AF909F9015
:1002B0008F907F900C94A2000F931F93CF93DF93A6
:1002C000EC01862F688349832A8361E00E949B1496
:1002D00061E089810E949B148A8161E070E023E0E3
:1002E000829FC00111240E94A41A8B839C8310E07A
:1002F00008C000E020E040E0612FCE010E94EF0046
:100300001F5F8A811817A8F3DF91CF911F910F917A
:100310000895FC018281089584E092E00C94A90F75
:10032000CF93DF93EC0168E670E084E092E00E94F6
:10033000E20F60E084E092E00E94690F84E092E0C6
:100340000E94F70F47E050E068E670E084E092E03A
:100350000E94D50F84E092E00E94E70E382F369578
:10036000369536953E70232F220F220F230F8F7064
:100370009927280F288384E092E00E94E70E282F17
:1003800022952F708F7099273AE0239F800D1124BA
:10039000898384E092E00E94E70E382F36953695E7
:1003A00036953670232F220F220F230F8F70992737
:1003B000280F2A8384E092E00E94E70E282F2295DE
:1003C0002F708F7099273AE0239F800D11248B8323
:1003D00084E092E00E94E70E282F22952F708F7004
:1003E00099273AE0239F800D11248C8384E092E0CA
:1003F0000E94E70E282F22952F708F7099273AE0E0
:10040000239F800D11248D8384E092E00E94E70EEB
:10041000282F22952F708F7099273AE0239F800D07
:1004200011248E831F82DF91CF910895CF93DF93A4
:10043000EC01862F688319824A831B822C831E82DB
:100440001D8261E00E949B1461E08A81DF91CF915F
:100450000C949B141F93CF93DF93EC0160E08A818F
:100460000E94D3148AE090E00E94741614E061E0C8
:100470008A810E94D31460E08A810E94D3141150B3
:10048000B1F7DF91CF911F910895FF920F931F93C2
:10049000CF93DF93EC018B0190E1F92E612F661F62
:1004A0006627661F8A810E94D31488810E940A15DC
:1004B00061E0892B09F060E088810E94D314000F6D
:1004C000111FFA9459F7DF91CF911F910F91FF906F
:1004D0000895EF92FF920F931F93CF93DF93EC0158
:1004E0007B01CB0193709E838D8360E070E0CE0131
:1004F0000E94450200E010E08C81882351F0C70182
:10050000002E02C0880F991F0A94E2F791FF0DC0D8
:1005100009C0C701002E02C0969587950A94E2F79C
:1005200080FF03C06FEF70E002C060E070E0CE01BA
:100530000E9445020F5F1F4F0A301105E9F660E087
:1005400070E0CE010E94450260E070E0CE010E94A2
:100550004502CE01DF91CF911F910F91FF90EF9057
:100560000C942A02662321F06B3018F06AE001C077
:1005700061E0262F215061E070E002C0660F771F16
:100580002A95E2F7FC01258136816227732776835D
:1005900065830C946902662321F06B3018F06AE0E1
:1005A00001C061E0562F5150FC012581368161E088
:1005B00070E002C0660F771F5A95E2F7442319F0E6
:1005C000622B732B04C06095709562237323FC012A
:1005D000768365830C9469026B3008F06AE02FEF34
:1005E0003FEF02C0220F331F6A95E2F72095309546
:1005F000FC0136832583B9010C946902FC016483F4
:10060000658176810C946902FC018581968108954B
:10061000FC0181E020813181232B09F480E00895E1
:100620008091890190918A01019731F46091820152
:1006300084E092E00E94690F8091890190918A0183
:100640008330910529F08730910511F0C89741F466
:1006500043E050E06DE671E084E092E00E943B0FE1
:100660008091890190918A018830910511F0449719
:1006700041F444E050E06DE671E084E092E00E94D5
:100680003B0F8091890190918A018E31910511F083
:10069000889741F449E050E06DE671E084E092E033
:1006A0000E943B0F8091890190918A01459751F4F6
:1006B00045E150E06DE671E084E092E00E943B0F7E
:1006C00010926D010895CF93DF9322C084E092E0F1
:1006D0000E94DE0E049741F410928601109285016B
:1006E0001092880110928701C0918701D0918801F2
:1006F00084E092E00E94E70EFE01EE0FFF1FE75735
:10070000FE4F918380832196D0938801C093870107
:1007100084E092E00E94DE0E892BC1F6DF91CF913A
:10072000089564E070E084E092E00E94C60F63E602
:1007300073E084E092E00E94FA0F60E173E084E0ED
:1007400092E00C94FF0FAF92BF92CF92DF92EF92A4
:10075000FF920F931F93CF93DF93CDB7DEB72C9704
:100760000FB6F894DEBF0FBECDBF80918701909188
:100770008801049709F006C781E090E09093860114
:10078000809385018091890190918A01469741F477
:1007900060918B0170918C0188EC92E00E943C1278
:1007A0008091890190918A01459739F08091890162
:1007B00090918A01019751F523C088EC92E00E9444
:1007C000CB13882399F368E571E088EC92E00E94EE
:1007D000F71281E080936D0180E090E009C0FC0198
:1007E000E359FE4FDC01A85ABE4F2C91218301969C
:1007F00084319105A4F39093840180938301D6CF33
:1008000080918B010E940A15809382018091890159
:1008100090918A01029731F460918D0180918B0152
:100820000E94D3148091890190918A010397A9F4C1
:1008300080918B010E94EF13909357018093560192
:100840009C0197FF02C021503F4F30936E0160E042
:1008500071E00E942C1A80936F0180918901909120
:100860008A01049741F460918D0170918E0180910D
:100870008B010E9410148091890190918A01059743
:1008800031F460918D0180918B010E949B148091C5
:10089000890190918A01079709F042C080918B01EC
:1008A00090918C0180934C0190934D0161E00E94E6
:1008B0009B1460E080914C010E94D31482E090E090
:1008C0000E94741661E080914C010E94D31485E06F
:1008D00090E00E94741660E080914C010E94D31455
:1008E00060E080914C010E949B1420E432E44FE0D0
:1008F00050E061E080914C010E9433152AE330E022
:1009000040E050E00E94621ACA01B90120E031E0E3
:1009100040E050E00E94621A20936E0160936F01E4
:100920008091890190918A018830910541F481E09C
:1009300080936E0182E080936F0183E021C0449731
:1009400009F580915501811107C083E092E00E9472
:10095000710C81E08093550123E531E042E551E0DF
:1009600061E571E083E092E00E94810C8091510189
:1009700080936E018091520180936F0180915301A9
:10098000809370018091890190918A014E9769F559
:1009900080915401811107C08BEF91E00E948C017E
:1009A00081E0809354018BEF91E00E94900180914F
:1009B000FD0180936E018091FC0180936F01809115
:1009C000FB018093700180910002809371018091FE
:1009D000FF018093720190910102909373018093C3
:1009E00074018091FE01809375018091890190913D
:1009F0008A01889709F059C080918D0190918E01EC
:100A0000009719F426E04BE005C08130910549F4C8
:100A100026E046E160918B018DEE91E00E94300D61
:100A200008C08230910519F426E045E1F3CF039721
:100A3000D9F360E08DEE91E00E94450E69877A87D8
:100A40008B879C878DEE91E00E94F70D6D837E83EE
:100A50008F83988710924B0110924A01FE013996BC
:100A600080E090E001962191DC01A359BE4F2C93C8
:100A700084309105BCF384E090E090934B01809327
:100A80004A010196DC01A359BE4FE5E0F0E0EC0F0E
:100A9000FD1FE80FF91F359720812C9388309105B1
:100AA00084F390934B0180934A0180918901909146
:100AB0008A01C297D9F480918B0190918C01482FC3
:100AC00021E060918D0170918E01672B09F420E087
:100AD000642F6F5FFC01329737E03E9FC0013F9F5C
:100AE000900D11248D539E4F0E9416028091890112
:100AF00090918A01C39791F420918B0130918C01E0
:100B00002250310947E0429FC001439F900D1124BC
:100B10008D539E4F0E94080381116AC38091890101
:100B200090918A01C49791F420918B0130918C01AE
:100B30002250310917E0129FC001139F900D11241C
:100B40008D539E4F0E94080381116BC380918901D0
:100B500090918A01C59791F420918B0130918C017D
:100B60002250310947E0429FC001439F900D11245C
:100B70008D539E4F0E940803811165C380918901A6
:100B800090918A01C69791F420918B0130918C014C
:100B90002250310917E0129FC001139F900D1124BC
:100BA0008D539E4F0E940803811168C38091890173
:100BB00090918A01C79791F420918B0130918C011B
:100BC0002250310917E0129FC001139F900D11248C
:100BD0008D539E4F0E940803811162C38091890149
:100BE00090918A01C89791F420918B0130918C01EA
:100BF0002250310917E0129FC001139F900D11245C
:100C00008D539E4F0E940803811163C38091890117
:100C100090918A018634910591F460918B017091D5
:100C20008C01462F4F5F9B0122503109C901880F6B
:100C3000991F820F931F8F549E4F0E94D30A809159
:100C4000890190918A018734910589F420918B0163
:100C500030918C0122503109C901880F991F820FF0
:100C6000931F8F549E4F0E943D0C811146C380916B
:100C7000890190918A018834910589F420918B0132
:100C800030918C0122503109C901880F991F820FC0
:100C9000931F8F549E4F0E943D0C811140C3809141
:100CA000890190918A018934910589F420918B0101
:100CB00030918C0122503109C901880F991F820F90
:100CC000931F8F549E4F0E943D0C811145C380910C
:100CD000890190918A018A34910589F420918B01D0
:100CE00030918C0122503109C901880F991F820F60
:100CF000931F8F549E4F0E943D0C81114AC38091D7
:100D0000890190918A018B34910589F420918B019E
:100D100030918C0122503109C901880F991F820F2F
:100D2000931F8F549E4F0E943D0C81115AC3809196
:100D3000890190918A018C34910589F420918B016D
:100D400030918C0122503109C901880F991F820FFF
:100D5000931F8F549E4F0E943D0C81115BC3809165
:100D6000890190918A018D349105A9F520918B011B
:100D700030918C0122503109C901880F991F820FCF
:100D8000931F8F549E4F0E943D0C8111BBC323C003
:100D9000812F0E94EF13BC0120918B0130918C01B7
:100DA00022503109C901880F991F820F931FE12C2E
:100DB00000E024E040E08F549E4F0E94BB0B6AEF9E
:100DC00070E080E090E00E944E162FEFC21AD20A27
:100DD000CA14DB04ECF28091890190918A018E346F
:100DE000910589F420918B0130918C0122503109B9
:100DF000C901880F991F820F931F8F549E4F0E9425
:100E00003D0C81118CC38091890190918A018F34AE
:100E1000910589F420918B0130918C012250310988
:100E2000C901880F991F820F931F8F549E4F0E94F4
:100E30003D0C81118EC38091890190918A018A3580
:100E4000910569F480918B0180934E0180918D0111
:100E500080934F0180918F018093500118C08B3592
:100E60009105A9F460918B0170918C01462F4F5F21
:100E70009B012250310955E0529FC001539F900DB4
:100E8000112420918D018D569E4F0E945C0180910E
:100E9000890190918A018C35910549F080918901F1
:100EA00090918A018D35910509F0BDC048C06091CF
:100EB0008B0170918C01462F4F5F9B0122503109AD
:100EC00055E0529FC001539F900D112420918D0138
:100ED0008D569E4F0E945C0100918F0110919001F0
:100EE00002FBDD24D0F8D19401FBCC24C0F8C194DE
:100EF00001701127102F1195E12CF12CA5E0BA2ECD
:100F000016C060918B0170918C0162507109B69E80
:100F1000C001B79E900D1124012F2C2D4D2D6E2D4B
:100F20008D569E4F0E94EF003FEFE31AF30A809127
:100F30008D0190918E01E816F9061CF3AFCF209138
:100F40008D0130918E0180918B0190918C01232B2A
:100F5000B1F49C012250310945E0429FC001439FFA
:100F6000900D11240091500120914F0140914E01AC
:100F700060918F018D569E4F0E94EF0054C09C01DE
:100F80002250310945E0429FC001439F900D11243A
:100F90008D569E4F0E948901E12CF12CC82ED12C38
:100FA00015E03DC020918D0130918E012130310539
:100FB00041F480918F0190919001E816F906B1F407
:100FC0002BC02230310541F480918F019091900126
:100FD0008E159F055CF420C023303105E9F4809123
:100FE0008F0190919001E816F906B4F020918B01E1
:100FF00030918C0122503109129FC001139F900D36
:1010000011240091500120914F0140914E016E2D0D
:101010008D569E4F0E94EF008FEFE81AF80AEC14ED
:10102000FD040CF4BFCF8091890190918A018E3527
:10103000910549F08091890190918A018F35910540
:1010400009F0A0C252C080918F01909190011816B2
:10105000190634F081E090E09093900180938F0125
:1010600020918B0130918C012250310945E0429F43
:10107000C001439F900D11248D569E4F0E948901FF
:10108000E0908D01F0908E01C82ED12C15E029C082
:1010900080918D0190918E019701281B390BC90118
:1010A00060918F01709190010E942C1A892BB1F4EC
:1010B00020918B0130918C0122503109129FC00187
:1010C000139F900D11240091500120914F014091E8
:1010D0004E016E2D8D569E4F0E94EF003FEFE31A9A
:1010E000F30AEC14FD04A4F2A5CF20918B013091FA
:1010F0008C012250310945E0429FC001439F900D71
:1011000011248D569E4F0E94890120918F013091AC
:101110009001232B59F133C080918D0190918E0164
:1011200020918B0130918C0122503109E816F9068B
:1011300064F4129FC001139F900D1124009150017F
:1011400020914F0140914E0108C0129FC001139F92
:10115000900D112400E020E040E06E2D8D569E4F52
:101160000E94EF008FEFE81AF80A05C0E12CF12C7D
:10117000C82ED12C15E0EC14FD0474F203C2C82E65
:10118000D12C760115E030C080918D0190918E01B7
:101190009601281B390B80918B0190918C01E216EE
:1011A000F3067CF09C0122503109129FC001139F6D
:1011B000900D11240091500120914F0140914E015A
:1011C0000BC09C0122503109129FC001139F900D4A
:1011D000112400E020E040E06E2D8D569E4F0E94CD
:1011E000EF0021E0E21AF108E114F10469F6CAC146
:1011F00061E080918D0190918E01892B09F460E06E
:1012000020918B0130918C012250310947E0429F9F
:10121000C001439F900D11248D539E4F0E94FE02EA
:101220007DCC20918B0130918C0122503109129F8D
:10123000C001139F900D112460918D018D539E4F1D
:101240000E94EC0283CC41E080918F01909190014B
:10125000892B09F440E020918B0130918C012250C0
:10126000310957E0529FC001539F900D11246091A6
:101270008D018D539E4F0E94CB0280CC20918B011B
:1012800030918C0122503109129FC001139F900DA3
:10129000112460918D018D539E4F0E94B20286CC25
:1012A00090918F0180E060918D0170918E0168278F
:1012B000792720918B0130918C0122503109129FA6
:1012C000C001139F900D11248D539E4F0E946902FF
:1012D00085CC20918B0130918C0122503109129FD5
:1012E000C001139F900D11248D539E4F0E94040343
:1012F00080936E0190936F0189CC20918B01309186
:101300008C0122503109C901880F991F820F931F48
:1013100060918D018F549E4F0E94EA0AA8CC909153
:101320008F0180E060918D0170918E01682779278F
:1013300020918B0130918C0122503109C901880F15
:10134000991F820F931FE12C00E024E040E08F54AE
:101350009E4F0E94BB0BA3CC90918F0180E06091C7
:101360008D0170918E016827792720918B01309132
:101370008C0122503109C901880F991F820F931FD8
:10138000E12C00E024E041E08F549E4F0E94BB0B13
:101390009ECC20918B0130918C0122503109C901E2
:1013A000880F991F820F931F60918F018F549E4F5A
:1013B0000E94360C898320918B0130918C01225040
:1013C0003109C901880F991F820F931F20918D0148
:1013D00041E0BE016F5F7F4F8F549E4F0E94710BA3
:1013E0008ECC80918F01898320918B0130918C016B
:1013F00022503109C901880F991F820F931F209134
:101400008D0141E0BE016F5F7F4F8F549E4F0E9460
:10141000710B8DCC80918D0190918E010AE010E0CE
:10142000B8010E942C1A20918B0130918C0122501E
:101430003109C901880F991F820F931F8F549E4F46
:101440000E94360C898380918D0190918E01B801A4
:101450000E942C1A20918B0130918C01225031096D
:10146000A901440F551F420F531F682FCA018F5403
:101470009E4F0E94360C80688A8380918F019091E4
:101480009001B8010E942C1A20918B0130918C019F
:1014900022503109C901880F991F820F931F8F5461
:1014A0009E4F0E94360C8B8380918F01909190010A
:1014B000B8010E942C1A20918B0130918C0122508E
:1014C0003109A901440F551F420F531F682FCA014C
:1014D0008F549E4F0E94360C8C8320918B0130914B
:1014E0008C0122503109C901880F991F820F931F67
:1014F00020E044E0BE016F5F7F4F8F549E4F0E94FB
:10150000710B2DCC10918D01A0908F01B0909001A6
:10151000AA0CBB1CAA0CBB1CC12CD12C59CC8FEF24
:1015200089838A838B838C8320918B0130918C01FA
:1015300022503109C901880F991F820F931F20E0A3
:1015400044E0BE016F5F7F4F8F549E4F0E94710B2E
:101550005ACC19821A821B821C8220918B013091F5
:101560008C0122503109C901880F991F820F931FE6
:1015700020E044E0BE016F5F7F4F8F549E4F0E947A
:10158000710B59CC2C960FB6F894DEBF0FBECDBFB1
:10159000DF91CF911F910F91FF90EF90DF90CF904F
:1015A000BF90AF900895CF93DF93EC01862F6883AF
:1015B000498360E00E949B1460E089810E949B1433
:1015C00060E088810E94D31460E08981DF91CF912F
:1015D0000C94D314683010F4685F01C06FE0FC0114
:1015E0006283089561E0FC0181810E949B1482E383
:1015F00090E00C947416CF93DF93EC0161E0898145
:101600000E949B1482E390E00E94741660E088813F
:101610000E949B1482E390E00E94741660E089812E
:101620000E949B1482E390E0DF91CF910C9474169A
:101630000F931F93CF93DF93EC01062F18E061E027
:1016400088810E949B1482E390E00E94741600FF40
:1016500002C060E001C061E089810E949B1482E3C6
:1016600090E00E94741660E088810E949B1482E3DF
:1016700090E00E9474160695115009F761E0888188
:101680000E949B1460E089810E949B1482E390E099
:101690000E94741660E088810E949B1482E390E0AF
:1016A0000E94741689810E940A15182F811104C0A6
:1016B00061E089810E949B1482E390E00E9474168D
:1016C00061E088810E949B1482E390E00E9474167E
:1016D00081E0111101C080E0DF91CF911F910F9146
:1016E0000895CF92DF92EF92FF920F931F93CF93C3
:1016F000DF9300D0CDB7DEB76C01F62EE42E298340
:101700007A830E94F20A60E4C6010E94180BC601A7
:101710000E94FB0AC6010E94F20A2981622F6370AF
:101720006054C6010E94180B0F2D7A81172F06C036
:10173000F80161918F01C6010E94180B802F8F194B
:101740008E15B0F3C6010E94FB0AC6010E94F20A80
:10175000F60162816058C6010E94180BC6010F9005
:101760000F90DF91CF911F910F91FF90EF90DF903D
:10177000CF900C94FB0A4F925F926F927F928F9260
:101780009F92AF92BF92CF92DF92EF920F931F93EF
:10179000CF93DF9300D000D0CDB7DEB73C016B0113
:1017A000322F202F8FE0A82E81E0B82E882483943A
:1017B000912C8C0E9D1EF40101E01FE3D5015E907B
:1017C0004E905D01C601B2010E942C1A611571058F
:1017D00061F4411106C0002321F08E2F8819833057
:1017E00011F4108313C0108211C0DB01AF70BB274E
:1017F000A15FBE4F8C918083649DC001659D900D5B
:10180000749D900D1124C81AD90A00E0EE2039F019
:101810008E2F8819813019F48081806880833196F9
:10182000B7E0AB16B1E0BB0649F684E090E0831B5D
:101830009109BE016F5F7F4F680F791F432FC3016E
:101840000E94710B0F900F900F900F90DF91CF912E
:101850001F910F91EF90DF90CF90BF90AF909F902E
:101860008F907F906F905F904F9008956F70E62FEC
:10187000F0E0E15FFE4F80810895FC0181E09081FE
:10188000911101C080E008951F93CF93DF931F92C1
:10189000CDB7DEB7162F84E092E049830E94A90FEE
:1018A0006CE470E084E092E00E94E20F612F84E03B
:1018B00092E00E94690F4981642F84E092E00E94C7
:1018C000690F84E092E00F90DF91CF911F910C940B
:1018D000F70F462F67E00C94440C462F68E00C94F9
:1018E000440CCF93DF93EC0160E00E94690C60E050
:1018F000CE010E946D0C61E0CE01DF91CF910C947E
:10190000690C4F925F926F927F928F929F92AF92EB
:10191000BF92CF92DF92EF92FF920F931F93CF93DC
:10192000DF9300D01F92CDB7DEB75B016A0179016A
:1019300080E48B838A8389830E9412162B013C01E9
:101940000DC00E9412166419750986099709653F32
:1019500071408105910514F080E06EC084E092E052
:101960000E94DE0E1816190664F384E092E00E94CD
:10197000E70E43E050E06CE470E084E092E00E9407
:10198000D50F0E9412162B013C018E010F5F1F4FD5
:1019900048012DC0C801881999090397D4F40E9401
:1019A00012162B013C0111C084E092E00E94E70E68
:1019B000F80180830E941216641975098609970937
:1019C00063337105810591053CF6F801808180340F
:1019D00058F70E9412160F5F1F4F64197509860988
:1019E0009709653F7140810591050CF0B5CF84E002
:1019F00092E00E94DE0E892B69F69981892F880F6B
:101A0000880F95FD8D5F85958595F50180839A8179
:101A1000892F880F880F95FD8D5F85958595F60137
:101A200080839B81892F880F880F95FD8D5F859519
:101A30008595F701808381E00F900F900F90DF91E3
:101A4000CF911F910F91FF90EF90DF90CF90BF90BB
:101A5000AF909F908F907F906F905F904F90089580
:101A6000CF93DF93EC01862F6E834F83288791E01D
:101A70009D8760E00E949B1461E08E810E94D314D8
:101A800019861A861B861C86DF91CF910895DF92F6
:101A9000EF92FF920F931F93CF93DF93EC0161E0DE
:101AA0008E810E94D3146AEF70E080E090E00E9483
:101AB0004E160E94121609851A852B853C856017E3
:101AC00071078207930720F419861A861B861C86E5
:101AD0002D85211111C009851A852B853C85DC01D6
:101AE000CB01801B910BA20BB30B803D9740A1054E
:101AF000B10510F481E073C01D860E94121669873B
:101B00007A878B879C871C821B821A821982188293
:101B100061E08E810E949B1460E08E810E94D3144C
:101B200064E170E080E090E00E944E16F89461E07D
:101B30008E810E94D31488E290E00E94741660E0C7
:101B40008E810E949B14F12CD12C81E009C0E3947A
:101B500081E090E00E9474168FEFE81204C009C083
:101B6000E12C082F10E08E810E940A158017910742
:101B700071F38E810E940A159FEFE916C9F023E0E8
:101B80002F1590F4F0FC10C09D2D96959695969586
:101B9000FE01E90FF11D9081990F908328852E1584
:101BA00010F491609083D394F39495E5F912D8CF13
:101BB000789427E22D1590F42C8130E048818981BA
:101BC00090E0840F911D4A81840F911D4B81840FF9
:101BD000911D99272817390709F48CCF80E0DF91F0
:101BE000CF911F910F91FF90EF90DF900895EF92AA
:101BF000FF920F931F93CF93DF93EC010E94470D49
:101C0000882391F18F818B3029F070F185518230DA
:101C100058F507C0688170E080E090E00E943019BC
:101C20002DC0688170E080E090E00E94301920E0D3
:101C300030E040E853E40E94BE197B018C016981C9
:101C400070E080E090E00E9432199B01AC016E2DA3
:101C50007F2D802F912F0E94641820E030E040E219
:101C600051E40E94C8180AC06FE171E082E395E078
:101C70000E94F11660E070E080EC9FE7DF91CF9169
:101C80001F910F91FF90EF900895CF92DF92EF9206
:101C9000FF920F931F93CF93DF938C01C62F0E9467
:101CA000470D882309F477C0F80187818B3039F01C
:101CB00008F471C08551823008F06DC01DC0F80174
:101CC000628170E080E090E00E943019B62FA72F6B
:101CD000F82FE92F462F572F682F792FCB01BA0104
:101CE000CC2309F462C020E030E040E151E46B2FE6
:101CF0007A2F8F2F9E2F37C0F801D2816D2F6F77EB
:101D000070E080E090E00E94321920E030E040E88E
:101D100053E40E94BE196B017C01F801638170E0FD
:101D200080E090E00E9432199B01AC016C2D7D2D6A
:101D30008E2D9F2D0E94641820E030E040E251E497
:101D40000E94C818472F382F292F862F942FA32F92
:101D5000B22FBC01CD01D7FD9058CC2331F120E04A
:101D600030E040E151E40E94BE1920E030E040EA5A
:101D700050E40E94C81820E030E040E052E40E94A5
:101D80006418472F382F292F862F942FA32FB22F77
:101D9000BC01CD010AC06FE171E082E395E00E94D1
:101DA000F11660E070E080EC9FE7DF91CF911F912A
:101DB0000F91FF90EF90DF90CF900895209138021F
:101DC00030E080913902281B3109C90108958091C2
:101DD000390290913802891750F4E82FF0E0E65C60
:101DE000FD4F208130E08F5F8093390202C02FEFDA
:101DF0003FEFC9010895E091390280913802E81758
:101E000030F4F0E0E65CFD4F208130E002C02FEFBF
:101E10003FEFC90108950895E0911002F091110279
:101E20003097E1F030913902209138023217B0F04A
:101E300040E009C0DC01A20FB31F5C91D901A65C90
:101E4000BD4F5C934F5F242F30E02617370794F384
:101E50001092390260933802CB0109940895E09101
:101E60001202F0911302309729F01092160210928C
:101E7000150209940895CF92DF92EF92FF920F938B
:101E80001F93CF93DF937C01CB018A012091140231
:101E9000222391F0EB016B01C40ED51E09C069919C
:101EA000D701ED91FC910190F081E02DC7010995DA
:101EB000CC15DD05A1F703C0642F0E94C210C80134
:101EC000DF91CF911F910F91FF90EF90DF90CF9016
:101ED0000895CF93DF931F92CDB7DEB7698320912A
:101EE00014022223D1F020911502203240F021E08B
:101EF00030E0FC013383228320E030E015C0809184
:101F00001602E82FF0E0E95EFD4F998190838F5F24
:101F1000809316028093150205C061E0CE01019600
:101F20000E94C21021E030E0C9010F90DF91CF91F3
:101F30000895FC011382128248EE53E060E070E0E5
:101F400044835583668377838DE291E09183808318
:101F500008951092390210923802109216021092CF
:101F600015020C940810CF93DF93EC01862F0E948A
:101F700026108FE29FE00E94E0108CE09FE00E941C
:101F8000DB10CE01DF91CF910C94A90F0C94B30F0D
:101F9000862F413208F040E26AE372E00E942A1084
:101FA0001092390280933802089521E00C94C80FF2
:101FB00081E080931402609337021092160210920F
:101FC000150208950C94D80F0F93062F21E040912D
:101FD000150267E172E0809137020E946F10109243
:101FE000160210921502109214020F91089561E0EA
:101FF0000C94E40F70931102609310020895709393
:10200000130260931202089584E092E00C94990FF9
:102010001092630281E0809361021092600261E09D
:1020200082E10E94D31461E083E10E94D314E9EBC2
:10203000F0E080818E7F808380818D7F808388E443
:102040008093B80085E48093BC000895880F809346
:10205000BA000895413208F03FC090916302911197
:10206000FCCF91E090936302209361022FEF2093C5
:102070005A0210925F02242F215020935E02909307
:10208000620290916202880F892B80936202809194
:102090006002813041F4109260028091620280936C
:1020A000BB0085EC01C085EE8093BC00809163028B
:1020B0008130E1F380915F02841710F440915F0258
:1020C00024E632E0FB01D90102C08D9181938A2F71
:1020D000821B8417D0F301C040E0842F08950F9332
:1020E000413208F046C0909163029111FCCF92E01A
:1020F00090936302009361029FEF90935A021092B3
:102100005F0240935E02FB0164E672E0DB0102C005
:1021100091919D939A2F961B9417D0F3109262027F
:1021200090916202880F892B8093620280916002F5
:10213000813041F410926002809162028093BB0072
:1021400085EC01C085EE8093BC00222321F08091B4
:1021500063028230E1F380915A028F3F61F08091F7
:102160005A02803251F080915A02803341F483E068
:1021700007C081E005C080E003C082E001C084E0C8
:102180000F910895613298F420916302243089F40C
:1021900060935C02FC0184E892E0DC0102C02191C2
:1021A0002D932A2F281B2617D0F380E0089581E075
:1021B000089582E008959093A5028093A402089563
:1021C0009093A7028093A602089585ED8093BC00AA
:1021D0008091BC0084FDFCCF10926302089585ECD1
:1021E0008093BC001092630208951F920F920FB665
:1021F0000F9211242F933F934F935F936F937F938D
:102200008F939F93AF93BF93EF93FF938091B90008
:10221000887F803609F49FC058F5883209F45BC086
:1022200090F4803109F452C038F4882309F4F8C0DE
:10223000883009F0F9C04AC0883109F44CC08032B6
:1022400009F0F2C05CC0803409F46BC038F480330C
:1022500009F455C0883309F0E7C054C0803509F44B
:1022600054C0883509F462C0883409F0DDC0DAC092
:10227000883909F4CBC0A8F4883709F46CC038F465
:10228000883609F468C0803709F0CEC064C0883849
:1022900009F4BCC0803909F464C0803809F0C4C0B6
:1022A00060C0803B09F48AC038F4803A09F46BC0FE
:1022B000883A09F0B9C082C0803C09F4ABC0883CC0
:1022C00009F4A8C0883B09F0AFC08DC080916202BC
:1022D0008093BB0012C090915F0280915E029817BC
:1022E00088F580915F02E82FF0E0EC59FD4F908176
:1022F0009093BB008F5F80935F0285EC88C08093D2
:102300005A0290C080935A0256C080915F02909109
:10231000BB00E82FF0E0EC59FD4F90838F5F809376
:102320005F0290915F0280915E026DC080915F02BA
:102330009091BB00E82FF0E0EC59FD4F90838F5F48
:1023400080935F028091610281116CC081E0809373
:10235000600284EA60C083E08093630210925B02B3
:10236000CCCF80915B02803208F050C080915B023C
:102370009091BB00E82FF0E0E855FD4F90838F5F10
:1023800080935B02BACF80915B02803230F4E0919F
:102390005B02F0E0E855FD4F10820E94E51060916D
:1023A0005B02E091A402F091A50270E088EA92E05D
:1023B000099510925B020E94EF1036C084E0809372
:1023C000630210925D0210925C02E091A602F0910D
:1023D000A702099580915C02811105C081E080937C
:1023E0005C021092840280915D02E82FF0E0EC57CD
:1023F000FD4F90819093BB008F5F80935D02909121
:102400005D0280915C02981708F477CF85E880938D
:10241000BC000AC085EC8093BC001092630204C02B
:1024200010925A020E94E510FF91EF91BF91AF9177
:102430009F918F917F916F915F914F913F912F91DC
:102440000F900FBE0F901F901895F89482E0809324
:10245000B0008093B10094E69093B3001092B20064
:102460008093700078948093CD021092280580911B
:10247000CC0260E00C949B146093CC020E94251265
:1024800064E170E080E090E00E944E1682E080936C
:10249000CD021092280508951F920F920FB60F9249
:1024A00011242F933F934F935F936F937F938F9359
:1024B0009F93AF93BF93EF93FF938091CC020E94C1
:1024C0000A152091CE023091CF022F5F3F4F3093FB
:1024D000CF022093CE02909128059091CD029330A7
:1024E000C1F020F4923009F058C006C0943059F180
:1024F000953009F052C04BC081114FC08091CE027F
:102500009091CF028436910508F443C010922805BB
:102510001CC0813009F041C020912805E22FF0E075
:102520008091CE029091CF02EE0FFF1FE053FD4F3E
:10253000918380832F5F209328051092CF02109201
:10254000CE0284E021C0811117C020912805E22F1E
:10255000F0E08091CE029091CF02EE0FFF1FE0538A
:10256000FD4F918380832F5F209328051092CF0227
:102570001092CE0283E008C08091CE029091CF02EB
:102580008536910550F085E08093CD0206C081111B
:1025900004C01092CF021092CE02FF91EF91BF9132
:1025A000AF919F918F917F916F915F914F913F91EB
:1025B0002F910F900FBE0F901F901895FB0180ED8B
:1025C00092E0918380838091280582831382809199
:1025D000CD02853041F482E08093CD02109228052F
:1025E00021E030E002C020E030E0C90108954F92C0
:1025F0005F927F928F929F92AF92BF92CF92DF9223
:10260000EF92FF920F931F93CF93DF932C01FB0167
:10261000DC0112962D913C9113974901B4E08B1A7D
:10262000910897FE04C04901CBE08C0E911CA4E0F8
:1026300095948794AA95E1F7D2010D911C9140E001
:1026400050E080E090E07801B6E0EB0EF11CD7019D
:10265000A40FB51F6D917C91860F971F4C5F5F4F44
:1026600048325105A1F76AE070E00E942C1A7B0104
:102670005B01AA0CBB1CD801189640E050E060E05A
:1026800070E080E090E089010950110901C0A901C2
:102690002D913C911197A216B30638F42D913C91DF
:1026A0001197820F931F6F5F7F4F6A30710549F05A
:1026B00014969A012E5F3F4F4A5F5F4F40175107B4
:1026C00034F30E942C1A762EDF01169648E050E073
:1026D00020E030E0CC24C394D12C2EC01C928A017F
:1026E00087E090E0E20168817981600F711FEB0162
:1026F00068817981A616B70648F4B601082E01C094
:10270000660F0A94EAF77C91762B09C0B601082E71
:1027100001C0660F0A94EAF760957C9176237C935A
:1027200001970C5F1F4F8F3FDFEF9D07D9F62F5F9B
:102730003F4F1196405E5F4F281539057CF2882D7A
:102740008B5F8083E201A881B98112968D919C9163
:1027500013978183A881B98114968D919C911597C7
:102760008283E3827482858282E08093CD0210921C
:10277000280580818F5FDF91CF911F910F91FF908E
:10278000EF90DF90CF90BF90AF909F908F907F9011
:102790005F904F900895CF93DF93EC01BC010E94AE
:1027A000DE12892BC1F08A819B818034910534F03F
:1027B00004979C0127703327232B31F082E080930C
:1027C000CD021092280507C0B4E095958795BA957B
:1027D000E1F78A5F01C080E0DF91CF9108958E30EC
:1027E00008F08E5087702091060140E4249F9001EC
:1027F0001124822B80937C0080917A0080648093E6
:102800007A0080917A0086FDFCCF2091780030918B
:102810007900932F80E0AC01422B9A01C901089501
:102820001F93CF93DF93182FEB0161E00E949B145D
:10283000209711F460E004C0CF3FD10539F461E086
:10284000812FDF91CF911F910C94D314E12FF0E0F1
:10285000E859FF4FE491E330B9F028F4E13051F04A
:10286000E230B1F50CC0E63019F1E73049F1E4305F
:1028700079F514C084B5806884BDC7BD2EC084B509
:10288000806284BDC8BD29C080918000806880932B
:102890008000D0938900C09388001FC08091800081
:1028A000806280938000D0938B00C0938A0015C013
:1028B0008091B00080688093B000C093B3000DC0D9
:1028C0008091B00080628093B000C093B40005C0D6
:1028D000C038D1050CF0B3CFADCFDF91CF911F91B0
:1028E0000895833069F028F48130A1F0823011F529
:1028F00014C08630B1F08730C1F08430D9F404C000
:10290000809180008F7703C0809180008F7D8093BD
:102910008000089584B58F7702C084B58F7D84BD13
:1029200008958091B0008F7703C08091B0008F7DB3
:102930008093B0000895CF93DF9390E0FC01E458BA
:10294000FF4F4491FC01E057FF4F8491882341F1F0
:1029500090E0880F991FFC01E854FF4F25913491B6
:10296000D90182559F4FFC0185919491C82FD92F91
:102970009FB7F8948C91611106C0409584238C9385
:102980008881842308C0623041F4242F209582235B
:102990008C938881842B888302C0842B8C939FBF67
:1029A000DF91CF9108950F931F93CF93DF931F92E1
:1029B000CDB7DEB7282F30E0F901E859FF4F8491F9
:1029C000F901E458FF4F1491F901E057FF4F0491CA
:1029D0000023D1F0882321F069830E94711469815A
:1029E000E02FF0E0EE0FFF1FE255FF4F859194912D
:1029F000DC019FB7F8948C91611103C0109581237D
:102A000001C0812B8C939FBF0F90DF91CF911F91BD
:102A10000F910895CF93DF93282F30E0F901E85903
:102A2000FF4F8491F901E458FF4FD491F901E05729
:102A3000FF4FC491CC2389F081110E947114EC2FB7
:102A4000F0E0EE0FFF1FEC55FF4F85919491DC01F4
:102A50008C918D2321E030E011F420E030E0C901B9
:102A6000DF91CF9108958F929F92AF92BF92CF92B4
:102A7000DF92EF92FF920F931F93CF93DF9390E03B
:102A8000FC01E458FF4FD491FC01E057FF4F7491D3
:102A9000611102C0C0E001C0CD2FDA01C901BF70D1
:102AA000672F70E0660F771F6C557F4F812C912C3C
:102AB0005401FB010591149110C0C12CD12C760159
:102AC000C394C80CD91CEA1CFB1C88169906AA06DC
:102AD000BB0609F44BC046015701F801E081ED2324
:102AE000EC1759F310C0C12CD12C7601C394C80C3B
:102AF000D91CEA1CFB1C88169906AA06BB06B1F174
:102B00004601570103C0FB0105911491F801E081D2
:102B1000ED23EC13E8CF88199909AA09BB0920E035
:102B200030E0A901FB016591749109C028173907AC
:102B30004A075B07D9F02F5F3F4F4F4F5F4FFB01B5
:102B4000E081ED23EC1791F3A5E1B0E00E94211A9A
:102B50008B019C01005F1F4F2F4F3F4F84E0369544
:102B60002795179507958A95D1F703C000E010E0E7
:102B70009801B801C901DF91CF911F910F91FF908A
:102B8000EF90DF90CF90BF90AF909F908F9008957F
:102B90001F920F920FB60F9211242F933F938F9392
:102BA0009F93AF93BF938091290590912A05A0919F
:102BB0002B05B0912C0530913105232F2D5F2D373A
:102BC00020F40196A11DB11D05C0232F2A5702969E
:102BD000A11DB11D209331058093290590932A05ED
:102BE000A0932B05B0932C0580912D0590912E0577
:102BF000A0912F05B09130050196A11DB11D8093C4
:102C00002D0590932E05A0932F05B0933005BF910D
:102C1000AF919F918F913F912F910F900FBE0F9089
:102C20001F9018950F931F938FB7F8940091290563
:102C300010912A0520912B0530912C058FBFB801EA
:102C4000C9011F910F9108950F931F939FB7F89497
:102C500000912D0510912E0520912F053091300502
:102C600086B5A89B06C08F3F21F00F5F1F4F2F4FE7
:102C70003F4F9FBF322F212F102F0027080F111D0C
:102C8000211D311D42E0000F111F221F331F4A95E5
:102C9000D1F7B801C9011F910F910895CF92DF922A
:102CA000EF92FF92CF93DF936B017C010E94241679
:102CB000EB010EC00E9424166C1B7D0B683E734016
:102CC00038F081E0C81AD108E108F108C851DC4F9A
:102CD000C114D104E104F10469F7DF91CF91FF90B1
:102CE000EF90DF90CF900895019739F0880F991FEA
:102CF000880F991F02970197F1F70895789484B58A
:102D0000826084BD84B5816084BD85B5826085BDE7
:102D100085B5816085BDEEE6F0E0808181608083CD
:102D2000E1E8F0E0108280818260808380818160B0
:102D30008083E0E8F0E0808181608083E1EBF0E077
:102D4000808184608083E0EBF0E08081816080831B
:102D5000EAE7F0E080818460808380818260808304
:102D60008081816080838081806880831092C1002F
:102D70000895CF92DF92EF92FF920F931F93CF931C
:102D8000DF936C01EB017A01E60EF71E00E010E024
:102D90000BC06991D601ED91FC910190F081E02D7D
:102DA000C6010995080F191FCE15DF0591F7C80157
:102DB000DF91CF911F910F91FF90EF90DF90CF9017
:102DC0000895DB010D900020E9F7AD014150510954
:102DD000461B570BDC01ED91FC910280F381E02D45
:102DE00009940C94E1160E947E160E949103CFEC88
:102DF000D7E10E94A3032097E1F30E94CF17F9CFF8
:102E0000FC0184859585FC01E05CFF4F20813181C8
:102E1000FC01EE5BFF4F80819181281B390B2F73E2
:102E20003327C9010895FC0184859585FC01E05C88
:102E3000FF4F40815181FC01EE5BFF4F20813181CA
:102E40004217530741F00190F081E02DE80FF91F80
:102E5000208130E002C02FEF3FEFC9010895FC014F
:102E600084859585FC01E05CFF4F40815181FC0128
:102E7000EE5BFF4F208131814217530781F0A08123
:102E8000B181A80FB91F8C91208131812F5F3F4FF5
:102E90002F73332731832083282F30E002C02FEF98
:102EA0003FEFC9010895FC0186859785FC01E05C30
:102EB000FF4FDC01AE5BBF4F408151812D913C91B2
:102EC000119742175307C1F70895CF93DF93FC0181
:102ED00086859785DC01A05CBF4F2D913C911197B1
:102EE0002F5F3F4F2F733327EC01CE5BDF4F4881BD
:102EF000598124173507D9F30D90BC91A02DA80F47
:102F0000B91F6C93A685B785A05CBF4F11963C9303
:102F10002E93A689B7892C9181E090E0058C02C0A0
:102F2000880F991F0A94E2F7282B2C9381E090E0F8
:102F3000DF91CF91089508951F920F920FB60F92CF
:102F400011242F933F934F938F939F93EF93FF936E
:102F50004091C6008091D5059091D60501968F735A
:102F600099272091D7053091D8058217930759F0FA
:102F7000E091D505F091D605EB56FA4F408390933A
:102F8000D6058093D505FF91EF919F918F914F9139
:102F90003F912F910F900FBE0F901F90189582E3D5
:102FA00095E00E940017892B11F00C949B1708954F
:102FB0001F920F920FB60F9211242F933F938F936E
:102FC0009F93EF93FF93209191053091920580910B
:102FD0009305909194052817390731F48091C10029
:102FE0008F7D8093C10014C0E0919305F09194050A
:102FF000EF5AFA4F208180919305909194050196A4
:103000008F73992790939405809393052093C6001E
:10301000FF91EF919F918F913F912F910F900FBE54
:103020000F901F901895109235051092340588EE78
:1030300093E0A0E0B0E08093360590933705A0932D
:103040003805B09339058DE391E090933305809373
:10305000320585E995E090933F0580933E0581E533
:1030600095E0909341058093400585EC90E0909326
:1030700043058093420584EC90E09093450580934E
:10308000440580EC90E0909347058093460581ECE1
:1030900090E0909349058093480586EC90E09093EA
:1030A0004B0580934A0584E080934C0583E0809330
:1030B0004D0587E080934E0585E080934F0581E0C4
:1030C0008093500508955058BB27AA270ED01CC1E5
:1030D0000DD130F012D120F031F49F3F11F41EF4E5
:1030E00002C10EF4E095E7FBF8C0E92F1ED180F392
:1030F000BA17620773078407950718F071F49EF5F5
:1031000036C10EF4E0950B2EBA2FA02D0B01B9019C
:1031100090010C01CA01A0011124FF27591B99F04D
:10312000593F50F4503E68F11A16F040A22F232F59
:10313000342F4427585FF3CF469537952795A795A9
:10314000F0405395C9F77EF41F16BA0B620B730B50
:10315000840BBAF09150A1F0FF0FBB1F661F771FC1
:10316000881FC2F70EC0BA0F621F731F841F48F476
:10317000879577956795B795F7959E3F08F0B3CFFC
:103180009395880F08F09927EE0F979587950895E6
:103190000CD0BAC0B2D040F0A9D030F021F45F3FDB
:1031A00019F09BC05111E4C09EC0BFD098F3992381
:1031B000C9F35523B1F3951B550BBB27AA276217FB
:1031C0007307840738F09F5F5F4F220F331F441F40
:1031D000AA1FA9F333D00E2E3AF0E0E830D0915078
:1031E0005040E695001CCAF729D0FE2F27D0660F65
:1031F000771F881FBB1F261737074807AB07B0E8A4
:1032000009F0BB0B802DBF01FF2793585F4F2AF0B9
:103210009E3F510568F061C0ABC05F3FECF3983E44
:10322000DCF3869577956795B795F7959F5FC9F716
:10323000880F911D9695879597F90895E1E0660F9F
:10324000771F881FBB1F621773078407BA0720F018
:10325000621B730B840BBA0BEE1F88F7E095089581
:10326000E89409C097FB3EF4909580957095619520
:103270007F4F8F4F9F4F9923A9F0F92F96E9BB27D6
:103280009395F695879577956795B795F111F8CF52
:10329000FAF4BB0F11F460FF1BC06F5F7F4F8F4FBD
:1032A0009F4F16C0882311F096E911C0772321F0B3
:1032B0009EE8872F762F05C0662371F096E8862F4B
:1032C00070E060E02AF09A95660F771F881FDAF7A2
:1032D000880F9695879597F9089597F99F6780E8E5
:1032E00070E060E008959FEF80EC089500240A9458
:1032F0001616170618060906089500240A941216D1
:103300001306140605060895092E0394000C11F403
:10331000882352F0BB0F40F4BF2B11F460FF04C0B0
:103320006F5F7F4F8F4F9F4F089557FD9058440F09
:10333000551F59F05F3F71F04795880F97FB991F14
:1033400061F09F3F79F087950895121613061406D1
:10335000551FF2CF4695F1DF08C01616170618065E
:10336000991FF1CF86957105610508940895E89439
:10337000BB2766277727CB0197F908950BD0C4CFD9
:10338000B5DF28F0BADF18F0952309F0A6CFABCF50
:103390001124EECFCADFA0F3959FD1F3950F50E033
:1033A000551F629FF001729FBB27F00DB11D639FF7
:1033B000AA27F00DB11DAA1F649F6627B00DA11D9D
:1033C000661F829F2227B00DA11D621F739FB00D43
:1033D000A11D621F839FA00D611D221F749F3327B3
:1033E000A00D611D231F849F600D211D822F762F4C
:1033F0006A2F11249F5750408AF0E1F088234AF049
:10340000EE0FFF1FBB1F661F771F881F9150504094
:10341000A9F79E3F510570F060CFAACF5F3FECF354
:10342000983EDCF3869577956795B795F795E79580
:103430009F5FC1F7FE2B880F911D9695879597F991
:1034400008950E947E1AA59F900DB49F900DA49F91
:10345000800D911D1124089597FB072E16F40094FA
:1034600007D077FD09D00E948A1A07FC05D03EF4E8
:10347000909581959F4F0895709561957F4F089520
:10348000A1E21A2EAA1BBB1BFD010DC0AA1FBB1F68
:10349000EE1FFF1FA217B307E407F50720F0A21BDA
:1034A000B30BE40BF50B661F771F881F991F1A9447
:1034B00069F760957095809590959B01AC01BD0171
:1034C000CF010895052E97FB16F4009407D057FD01
:1034D0000DD00E94401A07FC09D07EF4909580958B
:1034E000709561957F4F8F4F9F4F089550954095F0
:1034F000309521953F4F4F4F5F4F0895A29FB001E8
:10350000B39FC001A39F01D0B29F700D811D1124F4
:10351000911D0895AA1BBB1B51E107C0AA1FBB1F29
:10352000A617B70710F0A61BB70B881F991F5A954F
:10353000A9F780959095BC01CD010895EE0FFF1F6E
:103540000590F491E02D09940F931F93CF93DF938F
:10355000689F8001699F100D789F100D1124C8018C
:103560000E94C21AC82FD92F209731F0A80160E01D
:1035700070E08C2F0E94F91BCE01DF91CF911F913B
:103580000F9108950F931F93CF93DF93823091058E
:1035900010F482E090E0E091DB05F091DC0520E0A2
:1035A00030E0C0E0D0E023C0408151814817590786
:1035B000A8F04817590761F482819381209719F088
:1035C0009B838A832EC09093DC058093DB0529C002
:1035D0002115310529F04217530710F0A90102C047
:1035E000BE01DF0102811381EF019A01F8013097DA
:1035F000D9F62115310509F1281B390B2430310585
:1036000090F412968D919C9113976115710521F09C
:10361000FB019383828304C09093DC058093DB05D8
:10362000FD01329644C0FD01E20FF31F8193919397
:10363000225031092D933C933AC02091D905309105
:10364000DA05232B41F420910201309103013093DC
:10365000DA052093D905209100013091010121154F
:10366000310541F42DB73EB7409104015091050159
:10367000241B350BE091D905F091DA05E217F30729
:10368000A0F42E1B3F0B2817390778F0AC014E5FD2
:103690005F4F2417350748F04E0F5F1F5093DA0530
:1036A0004093D9058193919302C0E0E0F0E0CF010F
:1036B000DF91CF911F910F910895EF92FF920F9399
:1036C0001F93CF93DF93009709F48EC0DC0112970C
:1036D00013961C921E921297E090DB05F090DC0589
:1036E000E114F10489F42D913C911197280F391FB1
:1036F0008091D9059091DA058217930789F5B093E7
:10370000DA05A093D90570C0E70120E030E001C0E0
:10371000EA01CA17DB0738F44A815B819E01411533
:103720005105B1F722C0AC0142505109FA01D383CF
:10373000C28300811181BC01600F711F6C177D076E
:1037400061F468817981600F711F6E5F7F4F7183B3
:1037500060836A817B81738362832115310529F43B
:10376000B093DC05A093DB053FC0F901B383A283CE
:10377000E90149915991C40FD51FAC17BD0771F4E8
:10378000DC019E918E91840F951F02969183808318
:1037900012968D919C91139793838283A0E0B0E061
:1037A00002C0D7017C01F701828193810097C9F79C
:1037B000C701029620813181820F931F2091D90584
:1037C0003091DA052817390779F4109729F4109207
:1037D000DC051092DB0504C013961C921E92129712
:1037E000F092DA05E092D905CDB7DEB7E6E00C94A9
:1037F0000C1CDC0101C06D9341505040E0F708956E
:103800002A88398848885F846E847D848C849B8470
:10381000AA84B984C884DF80EE80FD800C811B817E
:10382000AA81B981CE0FD11D0FB6F894DEBF0FBEAD
:0A383000CDBFED010895F894FFCF1D
:10383A000000DD0520000101000A006400E8033FE2
:10384A00065B4F666D7D077F6F777C395E797152B3
:10385A00656164206661696C0000000000690F3BC5
:10386A000FDE0EE70EFB0E0B0F000000006517B906
:0A387A001600172F1713175317003D
:00000001FF
