:100000000C948D000C94B5000C94B5000C94B500C4
:100010000C94B5000C94B5000C94B5000C94690DCB
:100020000C94B5000C94B5000C94B5000C94B5007C
:100030000C94B5000C94B5000C94B5000C94B5006C
:100040000C94231B0C94B5000C94CC1D0C94FE1D39
:100050000C94B5000C94B5000C94B5000C94B5004C
:100060000C94CF180C94B5003E144B144F14551437
:100070005B1470147914801485148B148B148B14F6
:100080008B148B148B148B148B148B148B148B1478
:100090008B148B148B148B148B148B148B148B1468
:1000A0008B148B148B148B143E1444144B144F1468
:1000B00055145B14611465146A14000000070002F3
:1000C000010000030406000000000000000001021F
:1000D00004081020408001020408102001020408D6
:1000E00010200404040404040404020202020202B4
:1000F000030303030303000000002300260029007C
:1001000000000000250028002B0000000000240053
:1001100027002A00E104DF172E1E11241FBECFEF97
:10012000D8E0DEBFCDBF11E0A0E0B1E0E6ECF5E441
:1001300002C005900D92AC37B107D9F726E0ACE7C5
:10014000B1E001C01D92A23BB207E1F711E0CAE1A4
:10015000D1E004C02297FE010E942922C431D107B8
:10016000C9F70E94B61F0C94E1220C940000CF93B3
:10017000DF93EC0160E088810E94E81C84E190E05C
:100180000E94C41B61E088810E94E81C84E190E029
:10019000DF91CF910C94C41B0F931F93CF93DF93E8
:1001A000EC01062F18E007FF02C061E001C060E02B
:1001B00089810E94E81CCE010E94B700000F1150F7
:1001C00091F7DF91CF911F910F910895EF92FF92D8
:1001D0001F93CF93DF9300D0CDB7DEB77C01162FEE
:1001E00027FF02C060EC01C060EE26FF606147FFA0
:1001F000686046FF646017FF626016FF6160C701B8
:1002000029834A830E94CC002981622FC7010E9462
:10021000CC004A81642FC7010E94CC00612FC70126
:100220000F900F90DF91CF911F91FF90EF900C9462
:10023000CC007F928F929F92AF92BF92CF92DF922B
:10024000EF92FF920F931F93CF93DF93EC01162F42
:10025000942E822E60E00E94CC0060E0CE010E94CD
:10026000CC0060E0CE010E94CC0060E0CE010E9494
:10027000CC0083E0189F7001112467018FEFC81A2A
:10028000D80A570182E0A80EB11C712C8A81781619
:1002900000F571120FC0EB81FC81EE0DFF1D908205
:1002A000EB81FC81EC0DFD1D8082EB81FC81EA0D70
:1002B000FB1D0083EB81FC8183E0789EE00DF11D46
:1002C0001124228141816081CE010E94E600739455
:1002D000DDCF60E0CE010E94CC0060E0CE010E9444
:1002E000CC0060E0CE010E94CC0060E0CE01DF9146
:1002F000CF911F910F91FF90EF90DF90CF90BF9023
:10030000AF909F908F907F900C94CC000F931F9391
:10031000CF93DF93EC01862F688349832A8361E0C2
:100320000E94AF1C61E089810E94AF1C8A8161E05C
:1003300070E023E0829FC00111240E9463229C830D
:100340008B8310E08A81181748F400E020E040E039
:10035000612FCE010E9419011F5FF4CFDF91CF9171
:100360001F910F910895FC0182810895CF93DF932F
:10037000EC01862F6E834F83288791E09D8760E094
:100380000E94AF1C61E08E810E94E81C19861A86CB
:100390001B861C86DF91CF910895DF92EF92FF922A
:1003A0000F931F93CF93DF93EC0161E08E810E9446
:1003B000E81C6AEF70E080E090E00E949C1B0E94C5
:1003C0006D1B09851A852B853C856017710782078F
:1003D000930720F419861A861B861C862D85211109
:1003E00011C009851A852B853C85DC01CB01801B5A
:1003F000910BA20BB30B803D9740A105B10510F402
:1004000081E071C01D860E946D1B69877A878B878A
:100410009C871C821B821A821982188261E08E815D
:100420000E94AF1C60E08E810E94E81C64E170E0D5
:1004300080E090E00E949C1BF89461E08E810E9415
:10044000E81C88E290E00E94C41B60E08E810E945C
:10045000AF1CF12CD12C81E0E12C082F10E08E8113
:100460000E941E1D8017910741F4E39481E090E003
:100470000E94C41B8FEFE812F2CF8E810E941E1DD6
:100480009FEFE916C9F023E02F1590F4F0FC10C09F
:100490009D2D969596959695FE01E90FF11D9081FB
:1004A000990F908328852E1510F491609083D39432
:1004B000F39495E5F912D0CF789427E22D1590F4B6
:1004C0002C8130E04881898190E0840F911D4A8120
:1004D000840F911D4B81840F911D9927281739078F
:1004E00009F48ECF80E0DF91CF911F910F91FF90A3
:1004F000EF90DF900895CF92DF92EF92FF920F93EB
:100500001F93CF93DF93EC01162F0E94CD01882318
:1005100009F450C08F818B3031F008F44BC0855105
:10052000823078F047C06A8170E080E090E00E94FD
:10053000D120112309F449C020E030E040E151E42A
:100540002AC00A81602F6F7770E080E090E00E94FF
:10055000D32020E030E040E853E40E945F216B01AB
:100560007C016B8170E080E090E00E94D3209B01D1
:10057000AC01C701B6010E94052020E030E040E256
:1005800051E40E94692007FD9058112309F120E0F1
:1005900030E040E151E40E945F2120E030E040EA99
:1005A00050E40E94692020E030E040E052E40E94E4
:1005B00005200EC069E071E081E196E00E94012013
:1005C00020E030E040EC5FE705C09B01AC0102C0D9
:1005D0009B01AC01B901CA01DF91CF911F910F912D
:1005E000FF90EF90DF90CF900895CF92DF92EF923F
:1005F000FF92CF93DF93EC010E94CD01882379F124
:100600008F818B3029F158F18551823040F5688116
:1006100070E080E090E00E94D12020E030E040E8EF
:1006200053E40E945F216B017C01698170E080E0EE
:1006300090E00E94D3209B01AC01C701B6010E944B
:10064000052020E030E040E251E40E94692011C022
:10065000688170E080E090E00E94D1200AC069E0EB
:1006600071E081E196E00E94012060E070E080ECA2
:100670009FE7DF91CF91FF90EF90DF90CF900895AB
:1006800084E495E00C948417CF93DF93EC0168E643
:1006900070E084E495E00E94BD1760E084E495E09A
:1006A0000E94451784E495E00E94D21747E050E08D
:1006B00068E670E084E495E00E94B01784E495E079
:1006C0000E94C616282F2695269526952E70922FC5
:1006D000990F990F920F8F70980F988384E495E08B
:1006E0000E94C616982F92959F708F702AE0929F55
:1006F000800D1124898384E495E00E94C616282F7A
:100700002695269526952670922F990F990F920F70
:100710008F70980F9A8384E495E00E94C616982FF4
:1007200092959F708F702AE0929F800D11248B8389
:1007300084E495E00E94C616982F92959F708F7062
:100740002AE0929F800D11248C8384E495E00E941E
:10075000C616982F92959F708F702AE0929F800DF9
:1007600011248D8384E495E00E94C616982F9295FB
:100770009F708F702AE0929F800D112490E09F83DC
:100780008E83DF91CF910895CF93DF93EC01862F75
:10079000E62FF0E0F983E88350E05B834A832C8303
:1007A0001E821D8261E00E94AF1C61E08A81DF91A0
:1007B000CF910C94AF1C1F93CF93DF93EC0160E0BB
:1007C0008A810E94E81C8AE090E00E94C41B14E029
:1007D00061E08A810E94E81C60E08A810E94E81C36
:1007E0001150B1F7DF91CF911F910895FF920F93B0
:1007F0001F93CF93DF93EC018B0190E1F92E612FD2
:10080000661F6627661F8A810E94E81C88810E94F5
:100810001E1D61E0892B09F060E088810E94E81CC0
:10082000000F111FFA9459F7DF91CF911F910F918B
:10083000FF900895EF92FF920F931F93CF93DF9352
:10084000EC017B01CB0193709E838D8360E070E0AF
:10085000CE010E94F60300E010E08C81882351F065
:10086000C701002E02C0880F991F0A94E2F791FF7A
:100870000DC009C0C701002E02C0969587950A9445
:10088000E2F780FF03C06FEF70E002C060E070E04D
:10089000CE010E94F6030F5F1F4F0A301105E9F6E3
:1008A00060E070E0CE010E94F60360E070E0CE01EF
:1008B0000E94F603CE01DF91CF911F910F91FF901F
:1008C000EF900C94DB03FC016483658176810C94CA
:1008D0001A046B3008F06AE02FEF3FEF02C0220FDE
:1008E000331F6A95E2F720953095FC013683258306
:1008F000B9010C941A04662321F06B3018F06AE0F9
:1009000001C061E05FEF560FFC012581368161E097
:1009100070E002C0660F771F5A95E2F7442319F082
:10092000622B732B04C06095709562237323FC01C6
:10093000768365830C941A04662321F06B3018F0DB
:100940006AE001C061E02FEF260F61E070E002C0B5
:10095000660F771F2A95E2F7FC0125813681622711
:100960007327768365830C941A04FC018581968134
:100970000895FC0181E020813181232B09F480E07E
:10098000089526E040E855E260E070E081E196E0FD
:100990000E94541F64E070E084E495E00E94A11777
:1009A00063EB7CE084E495E00E94D51762EE7CE086
:1009B00084E495E00E94DA1761E0809100010C94D4
:1009C000AF1C85EC91E00C94FF0FAF92BF92CF92D9
:1009D000DF92EF92FF920F931F93CF93DF93CDB7E8
:1009E000DEB728970FB6F894DEBF0FBECDBF80915B
:1009F000B9019091BA01049709F0A4C781E090E091
:100A00009093B8018093B7018091BB019091BC0194
:100A1000469741F46091BD017091BE0183EE92E072
:100A20000E94590D8091BB019091BC01459769F0DE
:100A30008091BB019091BC01019751F58091BD015E
:100A40000E941E1D8093B40123C083EE92E00E9499
:100A5000E50E882369F36AE871E083EE92E00E9474
:100A6000120E81E080939F0180E090E08431910537
:100A700054F4FC01E156FE4FDC01A657BE4F2C9109
:100A800021830196F3CF9093B6018093B501D0CF27
:100A90008091BB019091BC01029731F46091BF013C
:100AA0008091BD010E94E81C8091BB019091BC0126
:100AB0000397A9F48091BD010E940A1C90938901BB
:100AC000809388019C0197FF02C021503F4F3093D3
:100AD000A00160E071E00E94D2218093A101809189
:100AE000BB019091BC01049741F46091BF017091EA
:100AF000C0018091BD010E94271C8091BB01909193
:100B0000BC01059731F46091BF018091BD010E9445
:100B1000AF1C8091BB019091BC01079709F042C0C6
:100B20008091BD019091BE0180937E0190937F01E1
:100B300061E00E94AF1C60E080917E010E94E81C91
:100B400082E090E00E94C41B61E080917E010E94DF
:100B5000E81C85E090E00E94C41B60E080917E016B
:100B60000E94E81C60E080917E010E94AF1C20E49E
:100B700032E44FE050E061E080917E010E94471D29
:100B80002AE330E040E050E00E940822CA01B901A7
:100B900020E031E040E050E00E9408222093A001D4
:100BA0006093A1018091BB019091BC0188309105B7
:100BB00051F481E08093A00182E08093A10183E061
:100BC0008093A2018DC00B9709F08AC08091C50166
:100BD000882309F453C085EC91E00E94A7116D832E
:100BE0007E838F83988785EC91E00E94D31169837F
:100BF0007A838B839C831092200210927D01109245
:100C00007C01FE01359680E090E001962191DC01A7
:100C1000A156BE4F2C9384309105BCF384E090E044
:100C200090937D0180937C010196DC01A156BE4F1B
:100C3000E1E0F0E0EC0FFD1FE80FF91F3597208190
:100C40002C938830910584F388E090E090937D01A7
:100C500080937C010196DC01A156BE4FE1E0F0E0FB
:100C6000EC0FFD1FE80FF91F399720812C938C3072
:100C7000910584F390937D0180937C018091F5012F
:100C8000882371F187EE91E00E94471289839A834D
:100C90008093AC019093AD0187EE91E00E945712D2
:100CA0008093AE0187EE91E00E9476128093AF01AF
:100CB00085EF91E00E9484128093B00185EF91E06E
:100CC0000E9492128093B10185EF91E00E94A812D8
:100CD0008093B20185EF91E00E94C7128093B30127
:100CE0008091BB019091BC01449709F580918701E7
:100CF000811107C082EE92E00E94360F81E080935E
:100D0000870125E831E044E851E063E871E082EED4
:100D100092E00E94460F809183018093A001809110
:100D200084018093A101809185018093A20180912B
:100D3000BB019091BC014E9769F5809186018111AC
:100D400007C08AED92E00E94400381E08093860113
:100D50008AED92E00E9444038091DC028093A0011E
:100D60008091DB028093A1018091DA028093A2013D
:100D70008091DF028093A3018091DE028093A40121
:100D80009091E0029093A5018093A6018091DD02ED
:100D90008093A7018091BB019091BC01889709F0D5
:100DA00056C08091BF019091C001009719F426E0D0
:100DB0004BE00BC08130910519F426E046E105C0F7
:100DC0000297029740F426E045E16091BD018CEC6A
:100DD00092E00E94B60160E08CEC92E00E947B02FF
:100DE0006D837E838F8398878CEC92E00E94F5025E
:100DF00069837A838B839C8310927D0110927C019E
:100E0000FE01359680E090E001962191DC01A1562B
:100E1000BE4F2C9384309105BCF384E090E0909316
:100E20007D0180937C010196DC01A156BE4FE1E07B
:100E3000F0E0EC0FFD1FE80FF91F359720812C9390
:100E40008830910584F390937D0180937C0180919B
:100E5000BB019091BC01C297D1F44091BD0150916A
:100E6000BE0121E08091BF019091C001892B09F45E
:100E700020E061E0640FFA01329737E03E9FC00145
:100E80003F9F900D11248E559D4F0E94C403809169
:100E9000BB019091BC01C39791F42091BD013091A9
:100EA000BE012250310947E0429FC001439F900D8F
:100EB00011248E559D4F0E94B904811152C3809117
:100EC000BB019091BC01C49791F42091BD01309178
:100ED000BE012250310917E0129FC001139F900DEF
:100EE00011248E559D4F0E94B904811153C38091E6
:100EF000BB019091BC01C59791F42091BD01309147
:100F0000BE012250310947E0429FC001439F900D2E
:100F100011248E559D4F0E94B90481114DC38091BB
:100F2000BB019091BC01C69791F42091BD01309115
:100F3000BE012250310917E0129FC001139F900D8E
:100F400011248E559D4F0E94B904811150C3809188
:100F5000BB019091BC01C79791F42091BD013091E4
:100F6000BE012250310917E0129FC001139F900D5E
:100F700011248E559D4F0E94B90481114AC380915E
:100F8000BB019091BC01C89791F42091BD013091B3
:100F9000BE012250310917E0129FC001139F900D2E
:100FA00011248E559D4F0E94B90481114CC380912C
:100FB000BB019091BC018634910591F46091BD0113
:100FC0007091BE0141E0460F9B0122503109C901D9
:100FD000880F991F820F931F80579D4F0E944F15B6
:100FE0008091BB019091BC018734910589F42091D7
:100FF000BD013091BE0122503109C901880F991FEE
:10100000820F931F80579D4F0E94B71681112FC3E7
:101010008091BB019091BC018834910589F42091A5
:10102000BD013091BE0122503109C901880F991FBD
:10103000820F931F80579D4F0E94B716811129C3BD
:101040008091BB019091BC018934910589F4209174
:10105000BD013091BE0122503109C901880F991F8D
:10106000820F931F80579D4F0E94B71681112FC387
:101070008091BB019091BC018A34910589F4209143
:10108000BD013091BE0122503109C901880F991F5D
:10109000820F931F80579D4F0E94B716811135C351
:1010A0008091BB019091BC018B34910589F4209112
:1010B000BD013091BE0122503109C901880F991F2D
:1010C000820F931F80579D4F0E94B716811145C311
:1010D0008091BB019091BC018C34910589F42091E1
:1010E000BD013091BE0122503109C901880F991FFD
:1010F000820F931F80579D4F0E94B716811146C3E0
:101100008091BB019091BC018D34910589F42091AF
:10111000BD013091BE0122503109C901880F991FCC
:10112000820F931F80579D4F0E94B7168111A6C34F
:101130008091BB019091BC018E34910589F420917E
:10114000BD013091BE0122503109C901880F991F9C
:10115000820F931F80579D4F0E94B7168111BFC306
:101160008091BB019091BC018F34910589F420914D
:10117000BD013091BE0122503109C901880F991F6C
:10118000820F931F80579D4F0E94B7168111C1C3D4
:101190008091BB019091BC018A35910569F48091E1
:1011A000BD01809380018091BF0180938101809176
:1011B000C1018093820118C08B359105A9F460911B
:1011C000BD017091BE0141E0460F9B0122503109E3
:1011D00055E0529FC001539F900D11242091BF01F3
:1011E0008E589D4F0E9486018091BB019091BC0159
:1011F0008C35910549F08091BB019091BC018D35F2
:10120000910509F0B7C043C06091BD017091BE0166
:1012100041E0460F9B012250310955E0529FC00129
:10122000539F900D11242091BF018E589D4F0E9415
:1012300086011091C10112FBDD24D0F8D19411FB7D
:10124000CC24C0F8C19411701195E12CF12CB5E0BB
:10125000BB2E8091BF019091C001E816F9065CF6A3
:101260006091BD017091BE0162507109B69EC001CE
:10127000B79E900D1124012F2C2D4D2D6E2D8E58C3
:101280009D4F0E9419013FEFE31AF30AE2CF20912C
:10129000BF013091C0018091BD019091BE01232B0F
:1012A000B1F49C012250310945E0429FC001439FA7
:1012B000900D1124009182012091810140918001C3
:1012C0006091C1018E589D4F0E94190153C09C012D
:1012D0002250310945E0429FC001439F900D1124E7
:1012E0008E589D4F0E94B301E12CF12CC82ED12CB9
:1012F00015E0EC14FD04F4F52091BF013091C0011C
:101300002130310541F48091C1019091C201E8166C
:10131000F906B1F42BC02230310541F48091C101AE
:101320009091C2018E159F055CF420C023303105D9
:10133000E9F48091C1019091C201E816F906B4F078
:101340002091BD013091BE0122503109129FC00190
:10135000139F900D112400918201209181014091F1
:1013600080016E2D8E589D4F0E9419014FEFE41A97
:10137000F40ABFCF8091BB019091BC018E359105DD
:1013800049F08091BB019091BC018F35910509F026
:1013900072C051C08091C1019091C2011816190606
:1013A00034F081E090E09093C2018093C1012091DC
:1013B000BD013091BE012250310945E0429FC0017C
:1013C000439F900D11248E589D4F0E94B301E090D1
:1013D000BF01F090C001C82ED12C15E0EC14FD0423
:1013E00084F68091BF019091C0019701281B390BB1
:1013F000C9016091C1017091C2010E94D221892B63
:10140000B1F42091BD013091BE0122503109129FEB
:10141000C001139F900D1124009182012091810140
:10142000409180016E2D8E589D4F0E9419013FEF13
:10143000E31AF30AD3CF2091BD013091BE012250AF
:10144000310945E0429FC001439F900D11248E5801
:101450009D4F0E94B301182F8091C1019091C2014C
:10146000C12ED12CE12CF12C892B09F044C015E0C0
:10147000EC14FD0494F081E196E00E94711E1816B0
:1014800019060CF05FC281E196E00E948A1E682F67
:1014900085EC91E00E94C71455C22091BF013091A4
:1014A000C0018091BD019091BE01E216F3067CF46B
:1014B0009C0122503109129FC001139F900D1124ED
:1014C0000091820120918101409180010BC09C011B
:1014D00022503109129FC001139F900D112400E08A
:1014E00020E040E06E2D8E589D4F0E9419014FEF75
:1014F000E41AF40ABDCFA5E0BA2E96012E193F09D1
:1015000009F4B9CF8091BF019091C001A601481B99
:10151000590BCA014091BD015091BE01612F6E1956
:10152000425051092817390764F0B49EC001B59E96
:10153000900D112400918201209181014091800140
:1015400008C0B49EC001B59E900D112400E020E0BB
:1015500040E08E589D4F0E9419015FEFE51AF50A91
:10156000CCCF61E08091BF019091C001892B09F43B
:1015700060E02091BD013091BE012250310947E069
:10158000429FC001439F900D11248E559D4F0E9494
:10159000630495CC2091BD013091BE0122503109E8
:1015A000129FC001139F900D11246091BF018E55B1
:1015B0009D4F0E9469049BCC41E08091C1019091B4
:1015C000C201892B09F440E02091BD013091BE0198
:1015D0002250310957E0529FC001539F900D1124B2
:1015E0006091BF018E559D4F0E947B0498CC209145
:1015F000BD013091BE0122503109129FC001139FDD
:10160000900D11246091BF018E559D4F0E949C0446
:101610009ECC80E090E09091C1016091BF017091FB
:10162000C001682779272091BD013091BE01225069
:101630003109129FC001139F900D11248E559D4FAB
:101640000E941A049CCC2091BD013091BE01225011
:101650003109129FC001139F900D11248E559D4F8B
:101660000E94B5048093A0019093A101A0CC209189
:10167000BD013091BE0122503109C901880F991F67
:10168000820F931F6091BF0180579D4F0E94661586
:10169000BFCC80E090E09091C1016091BF0170915A
:1016A000C001682779272091BD013091BE012250E9
:1016B0003109C901880F991F820F931FE12C00E0A7
:1016C00024E040E080579D4F0E943A16B9CC80E05C
:1016D00090E09091C1016091BF017091C0016827B5
:1016E00079272091BD013091BE0122503109C901F5
:1016F000880F991F820F931FE12C00E024E041E046
:1017000080579D4F0E943A16B3CC2091BD01309175
:10171000BE0122503109C901880F991F820F931F02
:101720006091C10180579D4F0E94B016898320911E
:10173000BD013091BE0122503109C901880F991FA6
:10174000820F931F2091BF0141E0BE016F5F7F4F69
:1017500080579D4F0E94ED15A3CC8091C1018983D4
:101760002091BD013091BE0122503109C901880F7D
:10177000991F820F931F2091BF0141E0BE016F5F4F
:101780007F4F80579D4F0E94ED15A2CC8091BF01E5
:101790009091C0010AE010E0B8010E94D22120918E
:1017A000BD013091BE0122503109C901880F991F36
:1017B000820F931F80579D4F0E94B016898380919E
:1017C000BF019091C001B8010E94D2212091BD01BA
:1017D0003091BE0122503109A901440F551F420F1B
:1017E000531F682FCA0180579D4F0E94B016806812
:1017F0008A838091C1019091C201B8010E94D221D7
:101800002091BD013091BE0122503109C901880FDC
:10181000991F820F931F80579D4F0E94B0168B8394
:101820008091C1019091C201B8010E94D221209102
:10183000BD013091BE0122503109A901440F551F4D
:10184000420F531F682FCA0180579D4F0E94B01648
:101850008C832091BD013091BE0122503109C90114
:10186000880F991F820F931F20E044E0BE016F5F35
:101870007F4F80579D4F0E94ED1542CC1091BF01C4
:10188000A090C101B090C201AA0CBB1CAA0CBB1C49
:10189000C12CD12CCA14DB040CF04ACC812F0E943D
:1018A0000A1CBC012091BD013091BE0122503109BA
:1018B000C901880F991F820F931FE12C00E024E0DB
:1018C00040E080579D4F0E943A166AEF70E080E03A
:1018D00090E00E949C1B2FEFC21AD20ADBCF8FEF41
:1018E00089838A838B838C832091BD013091BE01D3
:1018F00022503109C901880F991F820F931F20E0E0
:1019000044E0BE016F5F7F4F80579D4F0E94ED15F1
:1019100027CC19821A821B821C822091BD01309132
:10192000BE0122503109C901880F991F820F931FF0
:1019300020E044E0BE016F5F7F4F80579D4F0E94C3
:10194000ED1526CC28960FB6F894DEBF0FBECDBF9E
:10195000DF91CF911F910F91FF90EF90DF90CF908B
:10196000BF90AF900895CF93DF9384E495E00E94F9
:10197000BE16892B21F184E495E00E94BE160497DF
:1019800041F41092B8011092B7011092BA0110926E
:10199000B901C091B901D091BA01CE0101969093DD
:1019A000BA018093B90184E495E00E94C616FE0155
:1019B000EE0FFF1FE554FE4F91838083D6CFDF915A
:1019C000CF9108958091BB019091BC01019731F4B2
:1019D0006091B40184E495E00E9445178091BB01B9
:1019E0009091BC019C012B7F2330310511F0C897E9
:1019F00041F443E050E06FE971E084E495E00E9437
:101A000018178091BB019091BC018830910511F0AD
:101A1000449741F444E050E06FE971E084E495E0DC
:101A20000E9418178091BB019091BC010B9741F463
:101A300045E150E06FE971E084E495E00E941817F9
:101A40008091BB019091BC018E31910511F0889776
:101A500041F449E050E06FE971E084E495E00E94D0
:101A600018178091BB019091BC01459751F445E155
:101A700050E06FE971E084E495E00E94181710923D
:101A80009F010895F89482E08093B0008093B100A4
:101A900094E69093B3001092B20080937000789413
:101AA0008093E802109243058091E70260E00C9475
:101AB000AF1C6093E7020E94420D64E170E080E099
:101AC00090E00E949C1B82E08093E8021092430504
:101AD00008951F920F920FB60F9211242F933F93E8
:101AE0004F935F936F937F938F939F93AF93BF9326
:101AF000EF93FF938091E7020E941E1D2091E9025F
:101B00003091EA022F5F3F4F3093EA022093E902BF
:101B1000909143059091E8029330B9F018F4923017
:101B200039F056C0943051F1953009F44BC050C093
:101B300081114EC08091E9029091EA0284369105AC
:101B400008F442C0109243051BC0813009F040C028
:101B5000E09143058E0F80934305F0E08091E90208
:101B60009091EA02EE0FFF1FE551FD4F91838083B4
:101B70001092EA021092E90284E021C0811117C09C
:101B8000E091430581E08E0F80934305F0E0809162
:101B9000E9029091EA02EE0FFF1FE551FD4F91839C
:101BA00080831092EA021092E90283E008C08091DB
:101BB000E9029091EA028536910550F085E0809324
:101BC000E80206C0811104C01092EA021092E902F4
:101BD000FF91EF91BF91AF919F918F917F916F9105
:101BE0005F914F913F912F910F900FBE0F901F90DB
:101BF00018958BEE92E0FB019183808380914305E1
:101C000090E0938382838091E802853041F482E002
:101C10008093E8021092430581E090E0089580E00F
:101C200090E008952F923F924F925F926F927F9231
:101C30008F929F92AF92BF92CF92DF92EF92FF92DC
:101C40000F931F93CF93DF931C01FB01DC011296CE
:101C50002D913C9113973901B4E06B1A710877FE0E
:101C600004C03901CBE06C0E711CA4E0759467943C
:101C7000AA95E1F7D1010D911C9140E050E080E080
:101C800090E07801B6E0EB0EF11CD701A40FB51F70
:101C90006D917C91860F971F4C5F5F4F48325105C5
:101CA000A1F76AE070E00E94D2217B014B01880C11
:101CB000991CD801189640E050E060E070E080E0A8
:101CC00090E08901095011092D913C9111978216DC
:101CD000930638F42D913C911197820F931F6F5FFB
:101CE0007F4F6A30710559F014969A012E5F3F4F6D
:101CF0004A5F5F4F4017510714F4A901E5CF0E94D6
:101D0000D221562EDF01169648E050E020E030E068
:101D1000CC24C394D12C2615370544F51C928A0196
:101D200087E090E0E10168817981600F711FEB012C
:101D3000A880B9804C90B601082E01C0660F0A94A5
:101D4000EAF78A149B0410F4642902C060956421A8
:101D50006C9301970C5F1F4F8F3FDFEF9D0711F7CB
:101D60002F5F3F4F1196405E5F4FD5CF85E0860DC8
:101D70008083E101A881B98112968D919C9113977E
:101D80008183A881B98114968D919C911597828346
:101D9000E3825482658282E08093E80210924305D8
:101DA00080818F5FDF91CF911F910F91FF90EF9016
:101DB000DF90CF90BF90AF909F908F907F906F906B
:101DC0005F904F903F902F900895CF93DF93EC0159
:101DD000BC010E94F90D892BC1F08A819B8180345E
:101DE000910534F004979C0127703327232B31F0A1
:101DF00082E08093E8021092430507C0B4E0959515
:101E00008795BA95E1F78A5F01C080E0DF91CF91B5
:101E100008951F93CF93DF931F92CDB7DEB7162F90
:101E200084E495E049830E9484176CE470E084E4C4
:101E300095E00E94BD17612F84E495E00E9445174C
:101E40004981642F84E495E00E94451784E495E07D
:101E50000F90DF91CF911F910C94D217462F67E01E
:101E60000C94090F462F68E00C94090FCF93DF9371
:101E7000EC0160E00E942E0F60E0CE010E94320F64
:101E800061E0CE01DF91CF910C942E0F4F925F92C3
:101E90006F927F928F929F92AF92BF92CF92DF927A
:101EA000EF92FF920F931F93CF93DF9300D01F9277
:101EB000CDB7DEB75B016A01790180E48B838A8349
:101EC00089830E946D1B2B013C0184E495E00E94F4
:101ED000BE16181619066CF40E946D1B641975095C
:101EE00086099709653F71408105910574F380E08B
:101EF00072C084E495E00E94C61643E050E06CE4B2
:101F000070E084E495E00E94B0170E946D1B2B01E5
:101F10003C018E010F5F1F4F480184E495E00E9451
:101F2000BE16892B69F1C801881999090397D4F461
:101F30000E946D1B2B013C01F8018081803490F0E0
:101F400084E495E00E94C616F80180830E946D1B10
:101F5000641975098609970963337105810591052F
:101F60005CF3C5CF0E946D1B0F5F1F4F641975098D
:101F700086099709653F71408105910574F2B7CFD5
:101F8000898124E0829FC0011124282F87FF02C08D
:101F900023E0280F25952595F50120838A81F4E01B
:101FA0008F9FC0011124282F87FF02C023E0280F34
:101FB00025952595F60120838B81F4E08F9FC00144
:101FC0001124282F87FF02C023E0280F259525958F
:101FD000F701208381E00F900F900F90DF91CF9158
:101FE0001F910F91FF90EF90DF90CF90BF90AF9037
:101FF0009F908F907F906F905F904F900895FC011D
:102000001082118213821282148215821682178224
:1020100010861286118613861486158616861786F4
:10202000118A108A128A138A148A158A168A108EC7
:10203000178A118E128E138E148E158E12A213A271
:1020400014A215A216A217A210AA11AA12AA13AAC4
:1020500014AA15AA16AE17AEDC01AC5BBF4F1D92D9
:102060001D921D921C92139718961C9211961C9209
:10207000119716961D921D921D921C9219971E96ED
:102080001C9211961C92119716961D921D921D92EC
:102090001C9219971E961C9211961C9211971696D7
:1020A0001D921D921D921C9219971E961C921196BC
:1020B0001C92119716961D921D921D921C921997B3
:1020C0001E961C9211961C92509682E08C9311964B
:1020D0001C9211961C9211961C92119611961C92AC
:1020E0001E92129611961C921E9212961D921D928D
:1020F0001D921C92139714961D921D921D921C9274
:10210000139714961D921D921D921C92139714966C
:102110001D921D921D921C921397EA57FF4F108239
:1021200008952FEB260F862F992787FD909526304F
:1021300010F4C79708956156663018F487559109D1
:102140000895C0970895FF920F931F93CF93DF9345
:10215000EC01FF24F39488818D3211F0F12C01C041
:102160002196CE010E947F229B01AC01A4E6B0E043
:102170000E942D22FE014991242F332727FD3095FF
:10218000205331092A303105A8F34E3241F521811F
:10219000332727FD3095205331092A303105F8F4D3
:1021A0004AE0429F8001439F100D1124222717FD12
:1021B0002095322F600F711F821F931F02811127FC
:1021C00007FD1095005311090A30110540F422272C
:1021D00017FD2095322F600F711F821F931FFF2064
:1021E00039F090958095709561957F4F8F4F9F4FF7
:1021F000DF91CF911F910F91FF9008952F923F9201
:102200004F925F926F927F928F929F92AF92BF9206
:10221000CF92DF92EF92FF920F931F93CF93DF93B2
:10222000D82FC92F8B010E947F2224E630E040E0A6
:1022300050E00E94E62149015A019B01AC0160E88F
:1022400076E988E990E00E94C2216B017C01F801E7
:1022500091828082ED2FFC2F2191822F992787FD7B
:102260009095C0970A97C0F32E3239F51F0180E888
:10227000882E86E9982E88E9A82EB12C9AE0492E5E
:10228000512C612C712CF101C1911F01DD27C7FD7B
:10229000D095E097CA30D10580F4C501B401A301FF
:1022A00092010E94E62149015A01DE010E94382272
:1022B000C60ED71EE81EF91EE6CFA5E0B0E0A701C6
:1022C00096010E942D226F5F7F4F8F4F9F4F23E01B
:1022D00030E040E050E00E94E621F80122833383A1
:1022E000448355831682DF91CF911F910F91FF9008
:1022F000EF90DF90CF90BF90AF909F908F907F90A6
:102300006F905F904F903F902F900895CF93DF9301
:10231000EC0187E0FE017096DE01129601900D92AD
:102320008A95E1F787E0FE017796DE011996019024
:102330000D928A95E1F70E946D1B6E8F7F8F88A3A7
:1023400099A381E089838883DF91CF910895CF920B
:10235000DF92EF92FF92CF93DF93EC0119826A81B3
:102360007B8180E090E00E94D1206B017C016C8138
:102370007D818E819F810E94D12028E23BE64EE63E
:102380005EE40E9469209B01AC01C701B6010E9476
:102390000520288521119058DF91CF91FF90EF9073
:1023A000DF90CF900895CF92DF92EF92FF92CF937C
:1023B000DF93EC01198269857A8580E090E00E94C4
:1023C000D1206B017C016B857C858D859E850E946B
:1023D000D12028E23BE64EE65EE40E9469209B01A4
:1023E000AC01C701B6010E9405202F85211190582C
:1023F000DF91CF91FF90EF90DF90CF900895CF9332
:10240000DF93EC014E815F81688579854A835B8328
:102410006C837D830E946D1B6A877B878C879D8779
:1024200081E089838883DF91CF910895CF93DF93F3
:10243000EC014E815F81688579854A835B836C837B
:102440007D830E946D1B6A877B878C879D8781E0D7
:1024500089838883DF91CF910895CF93DF93EC0137
:10246000CB010E94A3106E837F8388879987DF91B9
:10247000CF910895CF93DF93EC01CB010E947F228F
:102480006E837F8388879987DF91CF910895FC01C0
:102490001182628173818481958124E630E040E07D
:1024A00050E00E94E621CB018053984F0895CF92CF
:1024B000DF92EF92FF92FC0111826281738184812D
:1024C000958134E6C32ED12CE12CF12CA701960185
:1024D0000E94E621CA01B901A70196010E94E621E6
:1024E000862FFF90EF90DF90CF900895FC0111822E
:1024F000628173818481958120E137E240E050E080
:102500000E94E621822F0895FC011182628173816D
:102510008481958120E432E44FE050E00E94E6217E
:10252000822F0895FC0111826281738184819581DB
:1025300020E137E240E050E00E94E621CA01B90103
:1025400024E630E040E050E00E94E621862F089526
:10255000CF92DF92EF92FF92FC0111826281738130
:102560008481958144E6C42ED12CE12CF12CA70165
:1025700096010E94E621CA01B901A70196010E94B5
:10258000E621862FFF90EF90DF90CF900895FC0119
:102590001182628173818481958124E630E040E07C
:1025A00050E00E94E621862F0895CF93DF93EC013F
:1025B0004A855B856C857D854E835F8368877987D7
:1025C0000E946D1B6A837B838C839D8381E089835A
:1025D0008883DF91CF910895CF93DF93EC01CB01F6
:1025E0000E94A3106A877B878C879D87DF91CF919C
:1025F0000895CF93DF93EC014A855B856C857D85DB
:102600004E835F83688779870E946D1B6A837B8313
:102610008C839D8381E089838883DF91CF910895A6
:10262000CF93DF93EC01CB010E947F226A877B87E7
:102630008C879D87DF91CF910895CF93DF93EC0135
:10264000BC0140960E94B6220E946D1B68A379A32C
:102650008AA39BA381E08DA38CA3DF91CF910895E2
:1026600040E150E00C94BD22AF92BF92CF92DF9236
:10267000FF920F931F93CF93DF93EC01FC01EB5775
:10268000FF4FF080FF2009F49CC0319660810E94CA
:102690009110182FFE01E957FF4F6081CE010E9473
:1026A000911040E1149F800D1124FE01EC57FF4F63
:1026B0009081891376C0B596408151816281738182
:1026C0004F5F5F4F6F4F7F4F4083518362837383B0
:1026D0008E0108561F4FD8018C91882369F03897D6
:1026E00040815181628173814F5F5F4F6F4F7F4F98
:1026F0004083518362837383FE01EB56FF4F8081D9
:102700008823C9F0813089F5CE0182960E94FF119D
:10271000CE01C0960E941612F8018081882329F10B
:10272000CE010E948611CE01CE960E94D512CE0116
:10273000845B9F4F18C0CE01C0960E941612D8012C
:102740008C91882341F0CE010E948611CE01865AD9
:102750009F4F0E94D512CE0188599F4F0E94F912B7
:10276000CE018A589F4F0E94D5128E0105561F4FE9
:10277000F801C081D181209709F4FEC0D801ED9104
:10278000FC9166A177A18EA19FA10E94AD22892B09
:1027900009F0F2C0CE010E941D130AA4DBA5C02DD2
:1027A000EACFCB55DF4F488159816A817B814F5FEA
:1027B0005F4F6F4F7F4F488359836A837B83F12C30
:1027C000DBC06C01B6E9CB0ED11CF60130818B5613
:1027D0009F4F5C018E0105561F4F311134C06E01B1
:1027E00096E8C90ED11C63E171E0C6010E94AD22DA
:1027F000892B11F481E00BC069E171E0C6010E94F0
:10280000AD22892B19F4F501108203C082E0D501B5
:102810008C93C756DF4F88819981F801918380831B
:10282000F801C081D181209709F4A6C0B6018EA11C
:102830009FA10E94AD2297FF9AC08AA59BA5D801AF
:102840008D939C93EDCFDC01EC91E23009F463C0F1
:10285000CE018A579F4FDC012C91222309F45BC0E3
:10286000B0E2EB9FF0011124E32B3197E932F1053F
:1028700008F051C0EC5CFF4F0C942722BC01CE0144
:10288000C0960E942D1247C0FE01E856FF4F81E01E
:10289000213461F52CC0BE01605F7F4F09C081E02B
:1028A000233509F080E08E8B36C0BE01695E7F4F14
:1028B0000E94FE1030C081E0273509F080E08D8F46
:1028C0002AC0BC01CE01CE9624C0BC01CE01845BDF
:1028D0009F4F1FC0BC01CE0182960E943A121BC0BE
:1028E000FE01E856FF4F81E021330CF480E0808345
:1028F00012C0BC01CE0188599F4F0E9410130BC01B
:10290000BC01CE018A589F4F04C0BC01CE01865A3B
:102910009F4F0E94EC12F801A080B180CA57DF4F90
:10292000A114B10449F1D801ED91FC9166A177A100
:10293000F50186A197A10E94AD22892BE9F4D5016A
:1029400098962D913C919997F601808190E082179D
:10295000930794F02817390721F4BE01C5010E949E
:102960003013D5019A96AD90BC909B97D9CF892B07
:1029700019F0D8011D921C928F2DDF91CF911F91DC
:102980000F91FF90DF90CF90BF90AF900895CF92BE
:10299000DF92EF92FF920F931F93CF93DF931F92DB
:1029A000CDB7DEB76C01262FFC01E356FF4F408107
:1029B0005181628173814F5F5F4F6F4F7F4F4083C3
:1029C0005183628373838C0109561F4F8B579F4F2E
:1029D0007C01243279F12CF42A3069F02D30E1F5B4
:1029E0000AC02A3241F02C32B9F5F601EC57FF4FFC
:1029F000808182278083F80180818F3060F4F60126
:102A0000E80FF11DEA57FF4F1082C60129830E948B
:102A10003413298101C080E0F601EA56FF4F90810E
:102A20009F5F9083F801108291E02A3209F090E0D4
:102A3000F70128C0F8011082F601EA56FF4F108214
:102A400072971082719682E08083F7011082F601FE
:102A5000E856FF4F108218C0F80180818E3048F48C
:102A600091E0980F9083F601E80FF11DEA57FF4FB0
:102A70002083F7018081811107C0F601EC57FF4FD9
:102A800090819227908301C080E00F90DF91CF91D9
:102A90001F910F91FF90EF90DF90CF900895CF930B
:102AA000DF93EC01862F6883498360E00E94AF1CAE
:102AB00060E089810E94AF1C60E088810E94E81C70
:102AC00060E08981DF91CF910C94E81C683010F4AC
:102AD000685F01C06FE0FC016283089561E0FC0162
:102AE00081810E94AF1C82E390E00C94C41BCF93C1
:102AF000DF93EC0161E089810E94AF1C82E390E0EA
:102B00000E94C41B60E088810E94AF1C82E390E0B9
:102B10000E94C41B60E089810E94AF1C82E390E0A8
:102B2000DF91CF910C94C41B0F931F93CF93DF932E
:102B3000EC01062F18E061E088810E94AF1C82E35F
:102B400090E00E94C41B00FF02C060E001C061E091
:102B500089810E94AF1C82E390E00E94C41B60E068
:102B600088810E94AF1C82E390E00E94C41B0695FE
:102B7000115009F761E088810E94AF1C60E08981F3
:102B80000E94AF1C82E390E00E94C41B60E0888139
:102B90000E94AF1C82E390E00E94C41B89810E94C6
:102BA0001E1D182F811104C061E089810E94AF1C95
:102BB00082E390E00E94C41B61E088810E94AF1C08
:102BC00082E390E00E94C41B81E0111101C080E00B
:102BD000DF91CF911F910F910895AF92BF92DF9235
:102BE000EF92FF920F931F93CF93DF9300D0CDB757
:102BF000DEB75C01F62EE42E29837A830E946E15DF
:102C000060E4C5010E949415C5010E947715C501B5
:102C10000E946E152981622F63706054C5010E9465
:102C20009415DF2C0F2D7A81172F802F8D198E157B
:102C300038F4F80161918F01C5010E949415F5CF18
:102C4000C5010E947715C5010E946E15F5016281CC
:102C50006058C5010E949415C5010F900F90DF9137
:102C6000CF911F910F91FF90EF90DF90BF90AF90A9
:102C70000C9477154F925F926F927F928F929F92F2
:102C8000AF92BF92CF92DF92EF920F931F93CF93A9
:102C9000DF9300D000D0CDB7DEB73C015B01322F0F
:102CA000202F8BE4882E81E0982ECE0101966C01B6
:102CB000FC0101E01FE3D4015E904E904D01C5017F
:102CC000B2010E94D2216115710561F4411106C063
:102CD000002321F08E2F8C19833011F4108313C040
:102CE000108211C0A62FAF70B0E0A55BBE4F8C91D3
:102CF0008083649DC001659D900D749D900D11248D
:102D0000A81AB90A00E0EE2039F08E2F8C19813014
:102D100019F48081806880833196B3E48B16B1E02A
:102D20009B0649F664E070E0631B71096C0D7D1D24
:102D3000432FC3010E94ED150F900F900F900F903D
:102D4000DF91CF911F910F91EF90DF90CF90BF90C7
:102D5000AF909F908F907F906F905F904F9008956D
:102D60006F70E62FF0E0E55BFE4F80810895FC0177
:102D700081E09081911101C080E0089580917805F3
:102D800090E020917905821B9109089520917905A1
:102D900080917805281750F4E22FF0E0E658FA4FBA
:102DA000808190E02F5F2093790508958FEF9FEF4A
:102DB0000895E091790580917805E81730F4F0E006
:102DC000E658FA4F808190E008958FEF9FEF0895C5
:102DD0000895E0915005F09151053097E1F0309160
:102DE0007905209178053217B0F040E0242F30E0CB
:102DF0002617370754F4DC01A20FB31F5C91D901E9
:102E0000A658BA4F5C934F5FF1CF1092790560934B
:102E10007805CB0109940895E0915205F09153058E
:102E2000309729F01092560510925505099408958F
:102E3000CF92DF92EF92FF920F931F93CF93DF9386
:102E40007C01CB018A0120915405222389F0EB01FA
:102E50006B01C40ED51ECC15DD0569F06991D70153
:102E6000ED91FC910190F081E02DC7010995F3CF20
:102E7000642F0E949C18C801DF91CF911F910F9180
:102E8000FF90EF90DF90CF900895CF93DF931F9244
:102E9000CDB7DEB76983209154052223D1F020916C
:102EA0005505203240F021E030E0FC0133832283DD
:102EB00080E090E015C080915605E82FF0E0E95AD7
:102EC000FA4F998190838F5F8093560580935505C3
:102ED00005C061E0CE0101960E949C1881E090E05F
:102EE0000F90DF91CF910895FC011382128248EE7A
:102EF00053E060E070E044835583668377838FE519
:102F000091E091838083089510927905109278055D
:102F100010925605109255050C94E317CF93DF934A
:102F2000EC01862F0E9401188CE097E10E94BA18EC
:102F300089EE96E10E94B518CE01DF91CF910C94F5
:102F400084170C948E17862F413208F040E26AE70E
:102F500075E00E9405181092790580937805089510
:102F600021E00C94A31781E08093540560937705CA
:102F7000109256051092550508950C94B3170F93AF
:102F8000062F21E04091550567E575E080917705B2
:102F90000E9449181092560510925505109254053A
:102FA0000F91089561E00C94BF17709351056093E1
:102FB000500508957093530560935205089584E475
:102FC00095E00C9474171092070681E08093050633
:102FD0001092040661E082E10E94E81C61E083E156
:102FE0000E94E81CE9EBF0E080818E7F8083808185
:102FF0008D7F808388E48093B80085E48093BC0053
:103000000895880F8093BA000895413208F03FC0B8
:10301000909107069111FCCF91E0909307062093C1
:1030200005062FEF20939A051092DF05240F2093B9
:10303000DE059093060690910606880F892B8093F3
:10304000060680910406813041F4109204068091B6
:1030500006068093BB0085EC01C085EE8093BC0022
:10306000809107068130E1F38091DF05841710F429
:103070004091DF0520EE35E0FB01D9018A2F821B4C
:10308000841718F48D918193F9CF842F089580E0EF
:1030900008950F93413208F046C0909107069111B0
:1030A000FCCF92E090930706009305069FEF909364
:1030B0009A051092DF054093DE05FB0160EE75E096
:1030C000DB019A2F961B941718F491919D93F9CFD9
:1030D0001092060690910606880F892B80930606AB
:1030E00080910406813041F4109204068091060616
:1030F0008093BB0085EC01C085EE8093BC00222349
:1031000021F0809107068230E1F380919A058F3F8C
:1031100061F080919A05803251F080919A05803358
:1031200041F483E007C081E005C080E003C082E095
:1031300001C084E00F910895613298F42091070650
:10314000243089F46093BC05FC018EEB95E0DC0132
:103150002A2F281B261718F421912D93F9CF80E0F0
:10316000089581E0089582E0089590930106809388
:10317000000608959093030680930206089585ED56
:103180008093BC008091BC0084FDFCCF10920706A8
:10319000089585EC8093BC001092070608951F9255
:1031A0000F920FB60F9211242F933F934F935F937B
:1031B0006F937F938F939F93AF93BF93EF93FF93FF
:1031C0008091B900887F803609F49CC068F5883208
:1031D00009F45BC090F4803109F454C038F48823BA
:1031E00009F4F5C0883009F44DC0F5C0883109F400
:1031F0004CC0803209F45DC0EEC0803409F468C070
:1032000048F4803309F455C0883309F0E4C0809352
:103210009A05A8C0803509F44FC0883509F45DC00F
:10322000883409F0D8C0D5C0883909F4C6C0A8F4DC
:10323000883709F467C038F4883609F463C08037EA
:1032400009F460C0C8C0883809F4B7C0803909F4EF
:103250005FC0803809F0BFC05BC0803B09F485C007
:1032600038F4803A09F466C0883A09F47EC0B3C0E5
:10327000803C09F4A6C0883C09F4A3C0883B09F44B
:1032800089C0A9C08091060610C09091DF05809189
:10329000DE05981770F5E091DF0581E08E0F8093D1
:1032A000DF05F0E0E052FA4F80818093BB0085ECAF
:1032B00085C080939A058DC0E091DF0581E08E0F77
:1032C0008093DF058091BB00F0E0E052FA4F8083ED
:1032D0009091DF058091DE056DC0E091DF0581E012
:1032E0008E0F8093DF058091BB00F0E0E052FA4F33
:1032F00080838091050681116CC081E08093040673
:1033000084EA60C083E08093070610929B05CFCFCC
:1033100080919B05803208F050C0E0919B0581E0D0
:103320008E0F80939B058091BB00F0E0E456FA4F2E
:103330008083BDCF80919B05803230F4E0919B0566
:10334000F0E0E456FA4F10820E94BF1860919B058E
:1033500070E0E0910006F09101068CE995E0099596
:1033600010929B050E94C91836C084E0809307061E
:103370001092BD051092BC05E0910206F091030683
:1033800009958091BC05811105C081E08093BC0541
:103390001092BE05E091BD0581E08E0F8093BD05C2
:1033A000F0E0E254FA4F80818093BB009091BD051C
:1033B0008091BC05981708F47ACF85E88093BC000B
:1033C0000AC085EC8093BC001092070604C01092DE
:1033D0009A050E94BF18FF91EF91BF91AF919F9105
:1033E0008F917F916F915F914F913F912F910F90AE
:1033F0000FBE0F901F901895CF93DF9382309105E9
:1034000010F482E090E0E091B006F091B10620E087
:1034100030E0A0E0B0E0309739F1408151814817A9
:103420005907B8F04817590771F4828193811097B2
:1034300029F013969C938E9312972CC09093B1060B
:103440008093B00627C02115310531F0421753078C
:1034500018F0A901DB0101C0EF019A01BD01DF01F4
:103460000280F381E02DD7CF21153105F9F0281B1B
:10347000390B2430310580F48A819B8161157105F7
:1034800021F0FB019383828304C09093B106809363
:10349000B006FE01329644C0FE01E20FF31F819395
:1034A000919322503109398328833AC02091AE0686
:1034B0003091AF06232B41F4209104013091050196
:1034C0003093AF062093AE062091020130910301A4
:1034D0002115310541F42DB73EB7409106015091B9
:1034E0000701241B350BE091AE06F091AF06E21701
:1034F000F307A0F42E1B3F0B2817390778F0AC0117
:103500004E5F5F4F2417350748F04E0F5F1F5093F3
:10351000AF064093AE068193919302C0E0E0F0E0E5
:10352000CF01DF91CF910895CF93DF93009709F4F6
:1035300087C0FC01329713821282C091B006D091ED
:10354000B106209781F420813181280F391F8091A5
:10355000AE069091AF068217930779F5F093AF0608
:10356000E093AE066DC0DE0120E030E0AE17BF078D
:1035700050F412964D915C9113979D0141155105A0
:1035800009F1DA01F3CFB383A28340815181840F23
:10359000951F8A179B0771F48D919C911197840F49
:1035A000951F02969183808312968D919C9113971B
:1035B000938382832115310529F4F093B106E093BA
:1035C000B0063EC0D9011396FC93EE9312974D912D
:1035D0005D91A40FB51FEA17FB0779F480819181F3
:1035E000840F951F0296D90111969C938E93828128
:1035F000938113969C938E931297E0E0F0E08A817A
:103600009B81009719F0FE01EC01F9CFCE010296E3
:1036100028813981820F931F2091AE063091AF0629
:103620002817390769F4309729F41092B1061092DF
:10363000B00602C013821282D093AF06C093AE06CA
:10364000DF91CF9108951F920F920FB60F92112420
:103650002F933F938F939F93AF93BF9380910906CE
:1036600090910A06A0910B06B0910C0630910806C5
:1036700023E0230F2D3720F40196A11DB11D05C0B5
:1036800026E8230F0296A11DB11D20930806809302
:10369000090690930A06A0930B06B0930C0680913E
:1036A0000D0690910E06A0910F06B091100601969E
:1036B000A11DB11D80930D0690930E06A0930F06D9
:1036C000B0931006BF91AF919F918F913F912F9131
:1036D0000F900FBE0F901F9018952FB7F894609120
:1036E000090670910A0680910B0690910C062FBF77
:1036F00008953FB7F89480910D0690910E06A09121
:103700000F06B091100626B5A89B05C02F3F19F0F3
:103710000196A11DB11D3FBF6627782F892F9A2FD3
:10372000620F711D811D911D42E0660F771F881F7A
:10373000991F4A95D1F70895CF92DF92EF92FF92A9
:10374000CF93DF936B017C010E94791BEB01C114C5
:10375000D104E104F10489F00E9403200E94791B46
:103760006C1B7D0B683E734090F381E0C81AD10852
:10377000E108F108C851DC4FEACFDF91CF91FF900B
:10378000EF90DF90CF9008950197009739F0880F60
:10379000991F880F991F02970197F1F70895789460
:1037A00084B5826084BD84B5816084BD85B5826046
:1037B00085BD85B5816085BDEEE6F0E080818160E4
:1037C0008083E1E8F0E010828081826080838081E4
:1037D00081608083E0E8F0E0808181608083E1EBBC
:1037E000F0E0808184608083E0EBF0E080818160A4
:1037F0008083EAE7F0E0808184608083808182605A
:103800008083808181608083808180688083109242
:10381000C10008958E3008F08E5087702091080105
:1038200090E4299F90011124822B80937C00809149
:103830007A00806480937A0080917A0086FDFCCFC4
:10384000809178002091790090E0922B08951F9349
:10385000CF93DF93182FEB0161E00E94AF1C2097FC
:1038600011F460E004C0CF3FD10539F461E0812F4D
:10387000DF91CF911F910C94E81CE12FF0E0E6540A
:10388000FF4FE491E330F9F048F4E130B9F0E23071
:10389000A1F584B5806284BDC8BD34C0E630E9F0CE
:1038A000E73019F1E43049F580918000806280931F
:1038B0008000D0938B00C0938A0024C084B58068B8
:1038C00084BDC7BD1FC08091800080688093800048
:1038D000D0938900C093880015C08091B0008068A3
:1038E0008093B000C093B3000DC08091B00080629F
:1038F0008093B000C093B40005C0C038D1050CF06F
:10390000B5CFAFCFDF91CF911F910895833081F074
:1039100028F4813099F08230A1F008958630A9F022
:103920008730B9F08430D1F4809180008F7D03C05E
:10393000809180008F7780938000089584B58F7781
:1039400002C084B58F7D84BD08958091B0008F77CB
:1039500003C08091B0008F7D8093B0000895CF9315
:10396000DF9390E0FC01E253FF4F2491FC01EE5104
:10397000FF4F8491882349F190E0880F991FFC0143
:10398000E65FFE4FA591B49180509F4FFC01C59119
:10399000D4919FB7611108C0F8948C91209582232F
:1039A0008C93888182230AC0623051F4F8948C9100
:1039B000322F309583238C938881822B888304C097
:1039C000F8948C91822B8C939FBFDF91CF910895B7
:1039D0000F931F93CF93DF931F92CDB7DEB7282F9E
:1039E00030E0F901E654FF4F8491F901E253FF4FB3
:1039F0001491F901EE51FF4F04910023C9F088237F
:103A000021F069830E94861C6981E02FF0E0EE0FAF
:103A1000FF1FE050FF4FA591B4919FB7F8948C9190
:103A2000611103C01095812301C0812B8C939FBF2E
:103A30000F90DF91CF911F910F910895CF93DF9356
:103A4000282F30E0F901E654FF4F8491F901E25349
:103A5000FF4FD491F901EE51FF4FC491CC2391F067
:103A600081110E94861CEC2FF0E0EE0FFF1FEA5040
:103A7000FF4FA591B4912C912D2381E090E021F48A
:103A800080E002C080E090E0DF91CF910895CF9276
:103A9000DF92EF92FF920F931F93CF93DF9390E00B
:103AA000FC01E253FF4FD491FC01EE51FF4F7491A2
:103AB000611102C0C0E001C0CD2FDA01C901BF70A1
:103AC000672F70E0660F771F6A507F4F00E010E0AD
:103AD0009801FB01E590F490F70140814D234C13D0
:103AE0001EC0680179014FEFC41AD40AE40AF40A2F
:103AF000081719072A073B0709F442C097018601F6
:103B0000E8CF68017901FFEFCF1ADF0AEF0AFF0A59
:103B1000081719072A073B0799F197018601FB014E
:103B2000E590F490F70140814D234C13EACF801BC0
:103B3000910BA20BB30B20E030E0A901FB01E59053
:103B4000F490F701F080FD22FC120AC02817390713
:103B50004A075B07A9F02F5F3F4F4F4F5F4FEECFF4
:103B6000A5E1B0E00E942D22605F7F4F8F4F9F4FF5
:103B700024E096958795779567952A95D1F703C0A8
:103B800060E070E0CB01DF91CF911F910F91FF902A
:103B9000EF90DF90CF9008951F920F920FB60F9283
:103BA00011242F938F939F93EF93FF93E09121061E
:103BB000F09122068081E0912706F091280682FD8F
:103BC00012C0908180912A068F5F8F7320912B06FF
:103BD000821751F0E0912A06F0E0EF5EF94F958FE1
:103BE00080932A0601C08081FF91EF919F918F9170
:103BF0002F910F900FBE0F901F9018951F920F924C
:103C00000FB60F9211242F933F934F935F936F93AF
:103C10007F938F939F93AF93BF93EF93FF9381E134
:103C200096E00E94AC1EFF91EF91BF91AF919F91E2
:103C30008F917F916F915F914F913F912F910F9055
:103C40000FBE0F901F90189581E196E00E94711EA3
:103C500021E0892B09F420E0822F089510921406A8
:103C60001092130688EE93E0A0E0B0E08093150672
:103C700090931606A0931706B09318068FE691E06E
:103C8000909312068093110685EC90E090931E06A7
:103C900080931D0684EC90E09093200680931F068D
:103CA00080EC90E0909322068093210681EC90E0D6
:103CB000909324068093230682EC90E0909326064E
:103CC0008093250686EC90E0909328068093270643
:103CD00010922A0610922B0610922C0610922D0696
:103CE0000895FC01818D228D90E0805C9F4F821BA6
:103CF00091098F7399270895FC01918D828D9817F2
:103D000031F0828DE80FF11D858D90E008958FEFE1
:103D10009FEF0895FC01918D828D981761F0828D3F
:103D2000DF01A80FB11D5D968C91928D9F5F9F73EF
:103D3000928F90E008958FEF9FEF089584E29EE1C7
:103D4000892B49F080E090E0892B29F00E94241E05
:103D500081110C9400000895FC01848DDF01A80FEF
:103D6000B11DA35ABF4F2C91848D90E001968F73A3
:103D70009927848FA689B7892C93A089B1898C91C2
:103D800080648C93938D848D981306C00288F38988
:103D9000E02D80818F7D80830895CF93DF93EC01A8
:103DA000888D8823C9F0EA89FB89808185FD05C05B
:103DB000A889B9898C9186FD0FC00FB607FCF5CF95
:103DC000808185FFF2CFA889B9898C9185FFEDCFDD
:103DD000CE010E94AC1EE7CFDF91CF910895CF9224
:103DE000DF92FF920F931F93CF93DF931F92CDB774
:103DF000DEB76C01DC015B969C915B975C968C91C5
:103E00005C97981307C05096ED91FC915197808173
:103E100085FD32C0F601038D10E00F5F1F4F0F7359
:103E20001127F02EF601848DF81211C00FB607FC91
:103E3000F9CFD6015096ED91FC915197808185FF85
:103E4000F1CFC60169830E94AC1E6981EBCF838DDF
:103E5000E80FF11DE35AFF4F6083D6015B960C9388
:103E60005B975296ED91FC9153978081806280839D
:103E700081E058968C930DC0D6015696ED91FC9139
:103E8000579760835096ED91FC91519780818064A3
:103E9000808381E090E00F90DF91CF911F910F918F
:103EA000FF90DF90CF900895BF92CF92DF92EF9274
:103EB000FF92CF93DF93EC016A017B01B22EE88978
:103EC000F98982E08083411581EE5807610571050B
:103ED000A1F060E079E08DE390E0A70196010E94F7
:103EE000E6212150310941095109569547953795E9
:103EF0002795211580E1380798F0E889F989108223
:103F000060E874E88EE190E0A70196010E94E62146
:103F10002150310941095109569547953795279503
:103F2000EC85FD853083EE85FF852083188EEC8936
:103F3000FD89B082EA89FB89808180618083EA897A
:103F4000FB89808188608083EA89FB898081806821
:103F50008083EA89FB8980818F7D8083DF91CF9187
:103F6000FF90EF90DF90CF90BF9008950E94CF1BFD
:103F70000E94C104CEE9DEE10E94E5042097E1F34E
:103F80000E949E1EF9CFCF92DF92EF92FF920F9385
:103F90001F93CF93DF936C017A01EB01E60EF71EBE
:103FA00000E010E0CE15DF0561F06991D601ED91DA
:103FB000FC910190F081E02DC6010995080F191FB1
:103FC000F1CFC801DF91CF911F910F91FF90EF903A
:103FD000DF90CF9008956115710581F0DB010D90A0
:103FE0000020E9F7AD0141505109461B570BDC0198
:103FF000ED91FC910280F381E02D099480E090E046
:1040000008950C94EB1F08955058BB27AA270ED093
:104010001CC10DD130F012D120F031F49F3F11F4CA
:104020001EF402C10EF4E095E7FBF8C0E92F1ED1A3
:1040300080F3BA17620773078407950718F071F4C5
:104040009EF536C10EF4E0950B2EBA2FA02D0B0174
:10405000B90190010C01CA01A0011124FF27591BCD
:1040600099F0593F50F4503E68F11A16F040A22FD3
:10407000232F342F4427585FF3CF46953795279544
:10408000A795F0405395C9F77EF41F16BA0B620B43
:10409000730B840BBAF09150A1F0FF0FBB1F661F8A
:1040A000771F881FC2F70EC0BA0F621F731F841FCD
:1040B00048F4879577956795B795F7959E3F08F0F3
:1040C000B3CF9395880F08F09927EE0F97958795B2
:1040D00008950CD0BAC0B2D040F0A9D030F021F48D
:1040E0005F3F19F09BC05111E4C09EC0BFD098F350
:1040F0009923C9F35523B1F3951B550BBB27AA2769
:1041000062177307840738F09F5F5F4F220F331FDA
:10411000441FAA1FA9F333D00E2E3AF0E0E830D0A6
:1041200091505040E695001CCAF729D0FE2F27D0A9
:10413000660F771F881FBB1F261737074807AB0777
:10414000B0E809F0BB0B802DBF01FF2793585F4FEC
:104150002AF09E3F510568F061C0ABC05F3FECF3B1
:10416000983EDCF3869577956795B795F7959F5FB1
:10417000C9F7880F911D9695879597F90895E1E005
:10418000660F771F881FBB1F621773078407BA0764
:1041900020F0621B730B840BBA0BEE1F88F7E095BF
:1041A0000895E89409C097FB3EF49095809570952A
:1041B00061957F4F8F4F9F4F9923A9F0F92F96E973
:1041C000BB279395F695879577956795B795F111E8
:1041D000F8CFFAF4BB0F11F460FF1BC06F5F7F4F85
:1041E0008F4F9F4F16C0882311F096E911C0772397
:1041F00021F09EE8872F762F05C0662371F096E8A0
:10420000862F70E060E02AF09A95660F771F881F6E
:10421000DAF7880F9695879597F9089597F99F672C
:1042200080E870E060E008959FEF80EC089500243E
:104230000A941616170618060906089500240A940B
:1042400012161306140605060895092E0394000C91
:1042500011F4882352F0BB0F40F4BF2B11F460FF20
:1042600004C06F5F7F4F8F4F9F4F089557FD905849
:10427000440F551F59F05F3F71F04795880F97FB2A
:10428000991F61F09F3F79F08795089512161306E4
:104290001406551FF2CF4695F1DF08C01616170613
:1042A0001806991FF1CF8695710561050894089548
:1042B000E894BB2766277727CB0197F908950BD0A1
:1042C000C4CFB5DF28F0BADF18F0952309F0A6CFE8
:1042D000ABCF1124EECFCADFA0F3959FD1F3950F9A
:1042E00050E0551F629FF001729FBB27F00DB11D7A
:1042F000639FAA27F00DB11DAA1F649F6627B00D0A
:10430000A11D661F829F2227B00DA11D621F739FF2
:10431000B00DA11D621F839FA00D611D221F749F00
:104320003327A00D611D231F849F600D211D822F47
:10433000762F6A2F11249F5750408AF0E1F088238E
:104340004AF0EE0FFF1FBB1F661F771F881F91509B
:104350005040A9F79E3F510570F060CFAACF5F3F54
:10436000ECF3983EDCF3869577956795B795F795CE
:10437000E7959F5FC1F7FE2B880F911D9695879556
:1043800097F90895DB018F939F930E942D22BF918F
:10439000AF91A29F800D911DA39F900DB29F900D94
:1043A0001124089597FB072E16F4009407D077FD8B
:1043B00009D00E94402207FC05D03EF490958195DB
:1043C0009F4F0895709561957F4F0895A1E21A2E31
:1043D000AA1BBB1BFD010DC0AA1FBB1FEE1FFF1FA9
:1043E000A217B307E407F50720F0A21BB30BE40BF9
:1043F000F50B661F771F881F991F1A9469F7609540
:104400007095809590959B01AC01BD01CF010895F9
:10441000052E97FB1EF400940E941F2257FD07D023
:104420000E94E62107FC03D04EF40C941F22509505
:104430004095309521953F4F4F4F5F4F0895909590
:104440008095709561957F4F8F4F9F4F0895EE0F28
:10445000FF1F0590F491E02D09940E945422A59F1E
:10446000900DB49F900DA49F800D911D112408956F
:10447000B7FF0C942D220E942D22821B930B0895CE
:10448000AA1BBB1B51E107C0AA1FBB1FA617B7077A
:1044900010F0A61BB70B881F991F5A95A9F7809596
:1044A0009095BC01CD010895A29FB001B39FC001BA
:1044B000A39F700D811D1124911DB29F700D811D50
:1044C0001124911D08950F931F93CF93DF93869F1F
:1044D0008001879F100D969F100D1124C8010E9426
:1044E000FC19EC01009729F0A80160E070E00E943F
:1044F000A622CE01DF91CF911F910F9108951F93B6
:10450000FC0199278827BC01E89411911032E9F346
:10451000193010F01E30C8F31B3251F01D3249F42F
:10452000689406C00E94CC22610F711D811D911DEF
:10453000119110531A30B0F33EF490958095709518
:1045400061957F4F8F4F9F4F1F910895DC0101C0F0
:104550006D9341505040E0F70895FB01DC018D91CF
:10456000019080190110D9F3990B0895FB01DC012A
:1045700001900D920020E1F70895FB01DC0141500C
:10458000504048F001900D920020C9F701C01D92E3
:1045900041505040E0F70895592F482F372F262FCC
:1045A000660F771F881F991F660F771F881F991F37
:1045B000620F731F841F951F660F771F881F991F37
:0645C0000895F894FFCFFE
:1045C60006000000B2068000015265616420666143
:1045D600696C004750524D43004750474741004ED3
:1045E600004E4E4500454E45004553450053534544
:1045F6000053005353570057535700574E57004E1A
:104606004E570001000A006400E8033F065B4F6650
:104616006D7D077F6F777C395E79710000000045FC
:10462600171817BE16C616D916E81600000000EFB2
:0C4636001EC31F711E8A1E7C1ECD1E00BC
:00000001FF
