:100000000C9464000C949D1A0C94CA1A0C948C00E5
:100010000C948C000C9420040C948C000C9490068E
:100020000C948C000C948C000C948C000C94E802C2
:100030000C948C000C941F0C0C948C000C948C0071
:100040000C94F71A0C948C000C94641F0C94A71F4A
:100050000C948C000C948C000C948C000C948C00F0
:100060000C9440190C948C00000000070002010061
:100070000003040600000000000000000102040864
:100080001020408001020408102001020408102002
:10009000040404040404040402020202020203032E
:1000A00003030303000000002300260029000000D2
:1000B0000000250028002B0000000000240027007D
:1000C0002A0069045018E21F11241FBECFEFD8E0A8
:1000D000DEBFCDBF11E0A0E0B1E0EAE2F6E402C08D
:1000E00005900D92AE3AB107D9F727E0AEEAB1E03C
:1000F00001C01D92A631B207E1F710E0C8ECD0E0D4
:1001000004C02297FE010E94DD22C23CD107C9F73C
:100110000E94C51E0C9413230C9400008627082E01
:100120008295807F8025092E982F82958F700826D2
:10013000869598278927880F880F880F802508952E
:10014000ECE5F1E090E02191821729F09F5F90317A
:10015000D1F780E00895892F0895809300010895D4
:100160001F93CF93DF939091D901992329F0809128
:10017000D6018F5F8093D6012091D8018091D7015D
:10018000921759F0803510F42BE001C02DE1820F59
:100190008093D7019093D80103C08C5E8093D701E0
:1001A0002091D701203A08F47AC08091D101909132
:1001B000D201969587959093D2018093D101309189
:1001C000D601353028F098609093D2018093D10108
:1001D000205A2093D7011092D6018091D50188230F
:1001E00009F44DC08091D0018F5F8093D0018C3095
:1001F00008F455C0C091D101D091D2018C2F8F73DA
:100200000E94A000182FCE0126E0969587952A958A
:10021000E1F70E94A00090E1199F90011124822B28
:100220009091B00191110EC08093B1019CEF980F95
:100230009B3140F01092D5018091AF018F5F809388
:10024000AF012DC0E091B00191E09E0F9093B001FD
:10025000F0E0EE54FE4F80839091B0018091B101A7
:10026000981750F01092D5018091AE018F5F809366
:10027000AE0181E08093D4011092D00110C0809132
:10028000D1019091D20188339B4049F481E0809361
:10029000D5011092D0011092B0011092D401DF91DB
:1002A000CF911F9108954F925F926F927F92BF926C
:1002B000CF92DF92EF92FF920F931F93CF93DF9332
:1002C000CDB7DEB72E970FB6F894DEBF0FBECDBF09
:1002D000BC018EE0EEE4F1E0DE01119601900D929A
:1002E0008A95E1F76115710509F49AC080E090E004
:1002F0000E9476219B01AC0160E070E080E89FE302
:100300000E94DD2020E030E040E05EE30E94042215
:100310006B017C018E010D5F1F4FBB24B394F8016C
:10032000619171918F0180E090E00E9476219B01A4
:10033000AC0160E074E284E79BE40E94DD209B0155
:10034000AC0160E070E080E89FE30E94DD209B014B
:10035000AC01C701B6010E94DD200E9445212B019E
:100360003C01F2E04F1A5108610871082DEF421666
:100370002FEF52066104710428F0B394E7E0BE1237
:10038000CECF05C0F6E0BF1609F44AC00CC06230FB
:1003900071058105910508F443C06115710521E0DF
:1003A00082079105E8F5BB20D9F11092800028E082
:1003B00020938100209181002B292093810070934C
:1003C00089006093880080916F00826080936F0045
:1003D00061E0809100010E942D1E60E0809101018A
:1003E0000E942D1E61E0809102010E942D1E6091ED
:1003F000DA01809102012E960FB6F894DEBF0FBE8F
:10040000CDBFDF91CF911F910F91FF90EF90DF90C3
:10041000CF90BF907F906F905F904F900C94661E2E
:100420002E960FB6F894DEBF0FBECDBFDF91CF91F1
:100430001F910F91FF90EF90DF90CF90BF907F9032
:100440006F905F904F900895CF931092E0011092BB
:10045000DF011092DE016091DA01C1E06C2780912A
:1004600002010E94661EC093DD01CF910895609144
:10047000DA01809102010E94661E60E08091000115
:100480000E94661E1092DD0108958091DD018111A8
:10049000FCCF0895CF92DF92EF92FF920F931F93BC
:1004A000CF93DF93F82EE92ED62E8BE1861708F432
:1004B00085C00E944502C3E0CD0D6C2F8FEF9FEFEA
:1004C0000E948E00AC2FB0E0F4E0B595A795FA95A8
:1004D000E1F7A45ABE4F2C9120930B01CF70EC2F63
:1004E000F0E0E45AFE4F208120930C010BE011E074
:1004F000CF2CCF2DDE2D0E5F1F4F2C2F2C192D153D
:10050000D0F47E0168810E948E00A991B0E0E4E001
:10051000B595A795EA95E1F7A45ABE4F2C91D8015D
:100520002C93D701EC91EF70F0E0E45AFE4F20815C
:10053000F8012183E0CF61E06D0D660F8095909505
:10054000E62FF0E0E55FFE4FDC0144E0B695A795AD
:100550004A95E1F7AF70BB27A45ABE4F2C91208378
:10056000E1E0E60FF0E0E55FFE4FDC01AF70BB2796
:10057000A45ABE4F2C912083E2E0E60FF0E0E55F45
:10058000FE4FDC01AB2FBB27A295AF70A45ABE4F24
:100590002C912083A3E0A60FB0E0A55FBE4FE92F0A
:1005A000FF27EF70FF27E45AFE4F80818C93645F32
:1005B0006093E1010E94240281E001C080E0DF91AC
:1005C000CF911F910F91FF90EF90DF90CF90089502
:1005D0001F920F920FB60F9211242F933F934F93B8
:1005E0005F936F937F938F939F93AF93BF93EF939B
:1005F000FF938091D301882321F08091DD0188232E
:1006000071F18091DD018823C9F08091DE0191E0D4
:10061000980F9093DE01811111C0E091E00180916B
:10062000E101E81718F10E9437028091DB019091F7
:10063000DC0101969093DC018093DB018091DE0167
:10064000883010F01092DE018091D301882379F177
:100650008091DD0181112BC00E94B00028C08091E3
:1006600001010E949C1E8093D901CBCFF0E0ED5F89
:10067000FE4F60812091DF0181E0820F8093DF01D6
:1006800081E090E001C0880F2A95EAF76823809105
:1006900000010E94661E8091DF01863078F2109280
:1006A000DF018091E0018F5F8093E001C7CFFF9170
:1006B000EF91BF91AF919F918F917F916F915F91DA
:1006C0004F913F912F910F900FBE0F901F90189553
:1006D00087E995E00C94F517CF93DF93EC0168E67A
:1006E00070E087E995E00E942E1860E087E995E0C8
:1006F0000E94B61787E995E00E94431847E050E052
:1007000068E670E087E995E00E94211887E995E0A6
:100710000E943717282F2695269526952E70922F02
:10072000990F990F920F8F70980F988387E995E032
:100730000E943717982F92959F708F702AE0929F92
:10074000800D1124898387E995E00E943717282FAF
:100750002695269526952670922F990F990F920F20
:100760008F70980F9A8387E995E00E943717982F2A
:1007700092959F708F702AE0929F800D11248B8339
:1007800087E995E00E943717982F92959F708F7098
:100790002AE0929F800D11248C8387E995E00E94C6
:1007A0003717982F92959F708F702AE0929F800D37
:1007B00011248D8387E995E00E943717982F929531
:1007C0009F708F702AE0929F800D112490E09F838C
:1007D0008E83DF91CF910895CF93DF9382E00E94C3
:1007E0009C1EEC0183E00E949C1E8C239D2301979C
:1007F00019F481E08093E401DF91CF91089584E0C2
:10080000809368008BB381718BBB8CE080936D000B
:10081000089548EE53E060E070E086E494E00E94C2
:10082000AE0C2FEF3FEFA9016CEE73E086E494E08D
:100830000E94C40C7894089586E494E00C94B50C5E
:100840001F920F920FB60F9211241F932F933F9375
:100850004F935F936F937F938F939F93AF93BF93C8
:10086000CF93DF93EF93FF931091E4011130E9F4FC
:1008700082E00E949C1EEC0183E00E949C1E8C176B
:100880009D071CF41093E2010CC082E00E949C1EA4
:10089000EC0183E00E949C1EC817D90734F4109223
:1008A000E2011093E3011092E401FF91EF91DF91D7
:1008B000CF91BF91AF919F918F917F916F915F91F8
:1008C0004F913F912F911F910F900FBE0F901F904E
:1008D000189582EE91E00C94FF03CF93DF93EC0127
:1008E00060E088810E94661E84E190E00E94961B71
:1008F00061E088810E94661E84E190E0DF91CF91E3
:100900000C94961B0F931F93CF93DF93EC01062F4C
:1009100018E007FF02C061E001C060E089810E9429
:10092000661ECE010E946D04000F115091F7DF91F9
:10093000CF911F910F910895EF92FF921F93CF9344
:10094000DF9300D0CDB7DEB77C01162F27FF02C0A2
:1009500060EC01C060EE26FF606147FF686046FF03
:10096000646017FF626016FF6160C70129834A83D4
:100970000E9482042981622FC7010E9482044A8159
:10098000642FC7010E948204612FC7010F900F904E
:10099000DF91CF911F91FF90EF900C9482047F9292
:1009A0008F929F92AF92BF92CF92DF92EF92FF927F
:1009B0000F931F93CF93DF93EC01162F942E822E6B
:1009C00060E00E94820460E0CE010E94820460E048
:1009D000CE010E94820460E0CE010E94820483E086
:1009E000189F7001112467018FEFC81AD80A5701A8
:1009F00082E0A80EB11C712C8A81781600F5711264
:100A00000FC0EB81FC81EE0DFF1D9082EB81FC811C
:100A1000EC0DFD1D8082EB81FC81EA0DFB1D008346
:100A2000EB81FC8183E0789EE00DF11D1124228191
:100A300041816081CE010E949C047394DDCF60E00F
:100A4000CE010E94820460E0CE010E94820460E038
:100A5000CE010E94820460E0CE01DF91CF911F9110
:100A60000F91FF90EF90DF90CF90BF90AF909F904D
:100A70008F907F900C9482040F931F93CF93DF93FA
:100A8000EC01862F688349832A8361E00E942D1E32
:100A900061E089810E942D1E8A8161E070E023E07F
:100AA000829FC00111240E94F0229C838B8310E05E
:100AB0008A81181748F400E020E040E0612FCE0161
:100AC0000E94CF041F5FF4CFDF91CF911F910F9150
:100AD0000895FC0182810895CF93DF93EC01862F66
:100AE000E62FF0E0F983E88350E05B834A832C83B0
:100AF0001E821D8261E00E942D1E61E08A81DF91CD
:100B0000CF910C942D1E1F93CF93DF93EC0160E0E7
:100B10008A810E94661E8AE090E00E94961B14E083
:100B200061E08A810E94661E60E08A810E94661EE2
:100B30001150B1F7DF91CF911F910895FF920F935C
:100B40001F93CF93DF93EC018B0190E1F92E612F7E
:100B5000661F6627661F8A810E94661E88810E9422
:100B60009C1E61E0892B09F060E088810E94661E6E
:100B7000000F111FFA9459F7DF91CF911F910F9138
:100B8000FF900895EF92FF920F931F93CF93DF93FF
:100B9000EC017B01CB0193709E838D8360E070E05C
:100BA000CE010E949E0500E010E08C81882351F068
:100BB000C701002E02C0880F991F0A94E2F791FF27
:100BC0000DC009C0C701002E02C0969587950A94F2
:100BD000E2F780FF03C06FEF70E002C060E070E0FA
:100BE000CE010E949E050F5F1F4F0A301105E9F6E6
:100BF00060E070E0CE010E949E0560E070E0CE01F2
:100C00000E949E05CE01DF91CF911F910F91FF9021
:100C1000EF900C948305FC016483658176810C94CC
:100C2000C2056B3008F06AE02FEF3FEF02C0220FE1
:100C3000331F6A95E2F720953095FC0136832583B2
:100C4000B9010C94C205662321F06B3018F06AE0FC
:100C500001C061E05FEF560FFC012581368161E044
:100C600070E002C0660F771F5A95E2F7442319F02F
:100C7000622B732B04C06095709562237323FC0173
:100C8000768365830C94C205662321F06B3018F0DF
:100C90006AE001C061E02FEF260F61E070E002C062
:100CA000660F771F2A95E2F7FC01258136816227BE
:100CB0007327768365830C94C205FC018581968138
:100CC0000895FC0181E020813181232B09F480E02B
:100CD0000895F89482E08093B0008093B10094E688
:100CE0009093B3001092B200809370007894809338
:100CF000EA01109245048091E90160E00C942D1EF8
:100D00006093E9010E94690664E170E080E090E090
:100D10000E94701B82E08093EA01109245040895BE
:100D20001F920F920FB60F9211242F933F934F9360
:100D30005F936F937F938F939F93AF93BF93EF9343
:100D4000FF938091E9010E949C1E2091EB0130915C
:100D5000EC012F5F3F4F3093EC012093EB0190911A
:100D600045049091EA019330B9F018F4923039F0CB
:100D700056C0943051F1953009F44BC050C08111E8
:100D80004EC08091EB019091EC018436910508F4FE
:100D900042C0109245041BC0813009F040C0E09170
:100DA00045048E0F80934504F0E08091EB01909113
:100DB000EC01EE0FFF1FE351FE4F918380831092F1
:100DC000EC011092EB0184E021C0811117C0E09189
:100DD000450481E08E0F80934504F0E08091EB01A3
:100DE0009091EC01EE0FFF1FE351FE4F9183808342
:100DF0001092EC011092EB0183E008C08091EB01AE
:100E00009091EC018536910550F085E08093EA01E0
:100E100006C0811104C01092EC011092EB01FF9109
:100E2000EF91BF91AF919F918F917F916F915F9162
:100E30004F913F912F910F900FBE0F901F901895DB
:100E40008DEE91E0FB01918380838091450490E0D9
:100E5000938382838091EA01853041F482E080931C
:100E6000EA011092450481E090E0089580E090E06E
:100E700008952F923F924F925F926F927F928F923E
:100E80009F92AF92BF92CF92DF92EF92FF920F9319
:100E90001F93CF93DF931C01FB01DC0112962D9170
:100EA0003C9113973901B4E06B1A710877FE04C0C6
:100EB0003901CBE06C0E711CA4E075946794AA957F
:100EC000E1F7D1010D911C9140E050E080E090E00D
:100ED0007801B6E0EB0EF11CD701A40FB51F6D91A0
:100EE0007C91860F971F4C5F5F4F48325105A1F7E9
:100EF0006AE070E00E9467227B014B01880C991C1C
:100F0000D801189640E050E060E070E080E090E0AA
:100F10008901095011092D913C9111978216930670
:100F200038F42D913C911197820F931F6F5F7F4F83
:100F30006A30710559F014969A012E5F3F4F4A5F4F
:100F40005F4F4017510714F4A901E5CF0E946722B3
:100F5000562EDF01169648E050E020E030E0CC2429
:100F6000C394D12C2615370544F51C928A0187E0DD
:100F700090E0E10168817981600F711FEB01A88029
:100F8000B9804C90B601082E01C0660F0A94EAF7AA
:100F90008A149B0410F4642902C0609564216C9348
:100FA00001970C5F1F4F8F3FDFEF9D0711F72F5FFA
:100FB0003F4F1196405E5F4FD5CF85E0860D808311
:100FC000E101A881B98112968D919C91139781833B
:100FD000A881B98114968D919C9115978283E382A3
:100FE0005482658282E08093EA01109245048081F8
:100FF0008F5FDF91CF911F910F91FF90EF90DF9066
:10100000CF90BF90AF909F908F907F906F905F90A8
:101010004F903F902F900895CF93DF93EC01BC0148
:101020000E942007892BC1F08A819B818034910521
:1010300034F004979C0127703327232B31F082E092
:101040008093EA011092450407C0B4E09595879516
:10105000BA95E1F78A5F01C080E0DF91CF910895F2
:10106000CF93DF93EC01862F6883498360E00E9471
:101070002D1E60E089810E942D1E60E088810E9403
:10108000661E60E08981DF91CF910C94661E683006
:1010900010F4685F01C06FE0FC016283089561E0B5
:1010A000FC0181810E942D1E82E390E00C94961B2E
:1010B000CF93DF93EC0161E089810E942D1E82E3D2
:1010C00090E00E94961B60E088810E942D1E82E3C2
:1010D00090E00E94961B60E089810E942D1E82E3B1
:1010E00090E0DF91CF910C94961B0F931F93CF93B9
:1010F000DF93EC01062F18E061E088810E942D1E2D
:1011000082E390E00E94961B00FF02C060E001C0F5
:1011100061E089810E942D1E82E390E00E94961B6F
:1011200060E088810E942D1E82E390E00E94961B61
:101130000695115009F761E088810E942D1E60E03C
:1011400089810E942D1E82E390E00E94961B60E040
:1011500088810E942D1E82E390E00E94961B898167
:101160000E949C1E182F811104C061E089810E9499
:101170002D1E82E390E00E94961B61E088810E9410
:101180002D1E82E390E00E94961B81E0111101C0A8
:1011900080E0DF91CF911F910F910895AF92BF92A0
:1011A000DF92EF92FF920F931F93CF93DF9300D0C4
:1011B000CDB7DEB75C01F62EE42E29837A830E9438
:1011C0004F0860E4C5010E947508C5010E945808D7
:1011D000C5010E944F082981622F63706054C501C8
:1011E0000E947508DF2C0F2D7A81172F802F8D1903
:1011F0008E1538F4F80161918F01C5010E947508C0
:10120000F5CFC5010E945808C5010E944F08F5019D
:1012100062816058C5010E947508C5010F900F904A
:10122000DF91CF911F910F91FF90EF90DF90BF90D2
:10123000AF900C9458084F925F926F927F928F926A
:101240009F92AF92BF92CF92DF92EF920F931F9334
:10125000CF93DF9300D000D0CDB7DEB73C015B0168
:10126000322F202F84E7882E81E0982ECE01019620
:101270006C01FC0101E01FE3D4015E904E904D0132
:10128000C501B2010E9467226115710561F4411127
:1012900006C0002321F08E2F8C19833011F41083A7
:1012A00013C0108211C0A62FAF70B0E0AC58BE4F73
:1012B0008C918083649DC001659D900D749D900DFF
:1012C0001124A81AB90A00E0EE2039F08E2F8C19EB
:1012D000813019F48081806880833196BCE68B165A
:1012E000B1E09B0649F664E070E0631B71096C0D88
:1012F0007D1D432FC3010E94CE080F900F900F90C9
:101300000F90DF91CF911F910F91EF90DF90CF90D1
:10131000BF90AF909F908F907F906F905F904F9015
:1013200008956F70E62FF0E0EC58FE4F808108952D
:10133000FC0181E09081911101C080E00895CF937C
:10134000DF93EC01862F6E834F83288791E09D8782
:1013500060E00E942D1E61E08E810E94661E19864B
:101360001A861B861C86DF91CF910895DF92EF923B
:10137000FF920F931F93CF93DF93EC0161E08E8177
:101380000E94661E6AEF70E080E090E00E94701B91
:101390000E94411B09851A852B853C8560177107C2
:1013A0008207930720F419861A861B861C862D85D2
:1013B000211111C009851A852B853C85DC01CB01E3
:1013C000801B910BA20BB30B803D9740A105B1058B
:1013D00010F481E071C01D860E94411B69877A87E5
:1013E0008B879C871C821B821A821982188261E07B
:1013F0008E810E942D1E60E08E810E94661E64E137
:1014000070E080E090E00E94701BF89461E08E81B3
:101410000E94661E88E290E00E94961B60E08E812A
:101420000E942D1EF12CD12C81E0E12C082F10E020
:101430008E810E949C1E8017910741F4E39481E005
:1014400090E00E94961B8FEFE812F2CF8E810E94EF
:101450009C1E9FEFE916C9F023E02F1590F4F0FCD5
:1014600010C09D2D969596959695FE01E90FF11D5C
:101470009081990F908328852E1510F491609083A8
:10148000D394F39495E5F912D0CF789427E22D15F3
:1014900090F42C8130E04881898190E0840F911D87
:1014A0004A81840F911D4B81840F911D9927281724
:1014B000390709F48ECF80E0DF91CF911F910F9112
:1014C000FF90EF90DF900895CF92DF92EF92FF921E
:1014D0000F931F93CF93DF93EC01162F0E94B60951
:1014E000882309F450C08F818B3031F008F44BC051
:1014F0008551823078F047C06A8170E080E090E0EA
:101500000E947621112309F449C020E030E040E137
:1015100051E42AC00A81602F6F7770E080E090E08C
:101520000E94782120E030E040E853E40E94042249
:101530006B017C016B8170E080E090E00E9478217B
:101540009B01AC01C701B6010E94792020E030E088
:1015500040E251E40E94DD2007FD9058112309F17B
:1015600020E030E040E151E40E94042220E030E03D
:1015700040EA50E40E94DD2020E030E040E052E408
:101580000E9479200EC064E871E088E696E00E942F
:10159000762020E030E040EC5FE705C09B01AC0125
:1015A00002C09B01AC01B901CA01DF91CF911F912B
:1015B0000F91FF90EF90DF90CF900895CF92DF9240
:1015C000EF92FF92CF93DF93EC010E94B60988233C
:1015D00079F18F818B3029F158F18551823040F5B6
:1015E000688170E080E090E00E94762120E030E0A9
:1015F00040E853E40E9404226B017C01698170E0A1
:1016000080E090E00E9478219B01AC01C701B60107
:101610000E94792020E030E040E251E40E94DD2089
:1016200011C0688170E080E090E00E9476210AC0DD
:1016300064E871E088E696E00E94762060E070E061
:1016400080EC9FE7DF91CF91FF90EF90DF90CF90FC
:1016500008951F93CF93DF931F92CDB7DEB7162F58
:1016600087E995E049830E94F5176CE470E087E90B
:1016700095E00E942E18612F87E995E00E94B61729
:101680004981642F87E995E00E94B61787E995E0C4
:101690000F90DF91CF911F910C944318462F67E074
:1016A0000C94290B462F68E00C94290BCF93DF9301
:1016B000EC0160E00E944E0B60E0CE010E94520BF4
:1016C00061E0CE01DF91CF910C944E0B4F925F926F
:1016D0006F927F928F929F92AF92BF92CF92DF9242
:1016E000EF92FF920F931F93CF93DF9300D01F923F
:1016F000CDB7DEB75B016A01790180E48B838A8311
:1017000089830E94411B2B013C0187E995E00E94DF
:101710002F17181619066CF40E94411B64197509DD
:1017200086099709653F71408105910574F380E052
:1017300072C087E995E00E94371743E050E06CE4FF
:1017400070E087E995E00E9421180E94411B2B015F
:101750003C018E010F5F1F4F480187E995E00E9411
:101760002F17892B69F1C801881999090397D4F4B7
:101770000E94411B2B013C01F8018081803490F0D4
:1017800087E995E00E943717F80180830E94411B8A
:1017900064197509860997096333710581059105F7
:1017A0005CF3C5CF0E94411B0F5F1F4F6419750981
:1017B00086099709653F71408105910574F2B7CF9D
:1017C000898124E0829FC0011124282F87FF02C055
:1017D00023E0280F25952595F50120838A81F4E0E3
:1017E0008F9FC0011124282F87FF02C023E0280FFC
:1017F00025952595F60120838B81F4E08F9FC0010C
:101800001124282F87FF02C023E0280F2595259556
:10181000F701208381E00F900F900F90DF91CF911F
:101820001F910F91FF90EF90DF90CF90BF90AF90FE
:101830009F908F907F906F905F904F9008951F9230
:101840000F920FB60F9211242F933F934F935F93F4
:101850006F937F938F939F93AF93BF93EF93FF9378
:10186000E0914A04F0914B040995FF91EF91BF91EB
:10187000AF919F918F917F916F915F914F913F9128
:101880002F910F900FBE0F901F901895FC01A3E0B1
:10189000440F551F661F771FAA95D1F741155105B3
:1018A00081E06807710514F481E00EC033E075959E
:1018B0006795579547953A95D1F74115510581E0C0
:1018C000680771051CF482E0828331C023E07595BE
:1018D0006795579547952A95D1F74115510581E0B0
:1018E0006807710514F483E0EFCF92E07595679572
:1018F000579547959A95D1F74115510581E06807AD
:10190000710514F484E0E0CF82E0759567955795F2
:1019100047958A95D1F785E082834115510581E08D
:101920006807710524F04FEF5FEF60E070E08FB75C
:101930008383F894518340835093870040938600BB
:1019400083818FBF80918100887F80938100809107
:1019500081009281892B80938100089510928000EC
:1019600020E1209381000C94460CEFE6F0E08081AA
:101970008E7F80830895E1E8F0E02081DC011296FB
:101980008C91282B208308950F931F93CF93DF937F
:10199000EC018B01BA01A9011416150616061706EB
:1019A00014F40E94460C1D830C8381E080936F0029
:1019B000CE01DF91CF911F910F910C94BB0C8091C0
:1019C0009D0490919E04019690939E0480939D04A3
:1019D00008950E94411B6093B7047093B8048093EC
:1019E000B9049093BA0482E00E949C1E9093A604CE
:1019F0008093A504892BA9F060E088E00E94661E10
:101A00008091B7049091B804A091B904B091BA0440
:101A10008093B3049093B404A093B504B093B60438
:101A200014C08091B7049091B804A091B904B0910A
:101A3000BA048093AF049093B004A093B104B09320
:101A4000B20461E088E00E94661E4091B3045091A8
:101A5000B4046091B5047091B6048091AF04909184
:101A6000B004A091B104B091B20484179507A60701
:101A7000B70740F5481B590B6A0B7B0B4093AB042F
:101A80005093AC046093AD047093AE048091BF0496
:101A90009091C004A091C104B091C204840F951F1D
:101AA000A61FB71F8093BF049093C004A093C104E6
:101AB000B093C2041092B3041092B4041092B5040F
:101AC0001092B604089564E070E087E995E00E9402
:101AD000121867E476E187E995E00E94461860E80D
:101AE00076E187E995E00E944B1841E050E069EE0D
:101AF0007CE080E00C946D1AAF92BF92CF92DF929F
:101B0000EF92FF920F931F93CF93DF93CDB7DEB782
:101B100028970FB6F894DEBF0FBECDBF80911A058F
:101B200090911B05049709F098C281E090E0909392
:101B300019058093180580911C0590911D0586312B
:101B4000910549F460911E0570911F0585EE91E0A5
:101B50000E94800682C28531910521F585EE91E0D3
:101B60000E940C08882309F478C263ED74E085EEC6
:101B700091E00E94390781E08093000580E090E0C9
:101B80008431910554F4FC01E050FB4FDC01AD526F
:101B9000BB4F2C9121830196F3CF9093170580932F
:101BA00016055BC28130910539F480911E050E94B3
:101BB0009C1E8093150551C28230910539F46091C5
:101BC000200580911E050E94661E47C28330910544
:101BD000B1F480911E050E94881D9093D2048093D9
:101BE000D1049C0197FF02C021503F4F3093010563
:101BF00060E071E00E946722809302052EC284306B
:101C0000910549F4609120057091210580911E0590
:101C10000E94A51D22C28530910539F460912005EE
:101C200080911E050E942D1E18C28730910509F073
:101C30004AC08091C7049091C804892B09F40DC251
:101C400080911E0590911F0580934E0490934F0440
:101C500061E00E942D1E60E080914E040E94661E8D
:101C600082E090E00E94961B61E080914E040E9409
:101C7000661E85E090E00E94961B60E080914E0415
:101C80000E94661E60E080914E040E942D1E20E599
:101C900033EC40E050E061E080914E040E94031D6F
:101CA0002AE330E040E050E00E949D22CA01B901E1
:101CB00020E031E040E050E00E949D222093E904C2
:101CC0006093EA0466C18830910541F481E0809315
:101CD000010582E08093020586E022C084319105EF
:101CE00011F58091D004811107C086E995E00E942A
:101CF000560B81E08093D0042EEC34E04DEC54E0A0
:101D00006CEC74E086E995E00E94660B8091CC044F
:101D1000809301058091CD04809302058091CE04CB
:101D2000809303059AC18E31910571F58091CF049E
:101D3000811107C08EE895E00E94680381E08093DE
:101D4000CF048EE895E00E946C038091900580930B
:101D5000010580918F058093020580918E05809307
:101D600003058091930580930405809192058093EB
:101D70000505909194059093060580930705809141
:101D800091058093080569C18832910509F05EC00C
:101D90008091C7049091C804892B09F45EC1809199
:101DA000200590912105009719F426E04BE00BC027
:101DB0008130910519F426E046E105C002970297AB
:101DC00040F426E045E160911E0580E895E00E9420
:101DD0009F0960E080E895E00E94640A6D837E833D
:101DE0008F83988780E895E00E94DE0A69837A8372
:101DF0008B839C8310924D0410924C04FE01359607
:101E000080E090E001962191DC01A551BB4F2C931D
:101E100084309105BCF384E090E090934D0480936E
:101E20004C040196DC01A551BB4FE1E0F0E0EC0F62
:101E3000FD1FE80FF91F359720812C9388309105FD
:101E400084F390934D0480934C04A3C08233910596
:101E5000D9F440911E0550911F0521E08091200585
:101E600090912105892B09F420E061E0640FFA01CB
:101E7000329737E03E9FC0013F9F900D11248A5A50
:101E80009A4F0E946C05E9C0C39709F087C0209162
:101E90001E0530911F052250310947E0429FC001C5
:101EA000439F900D11248A5A9A4F0E946106811116
:101EB00093C174C08734910509F44DC280911C050B
:101EC00090911D058834910509F469C280911C0523
:101ED00090911D058934910509F48DC280911C05EE
:101EE00090911D058A34910509F4B5C280911C05B5
:101EF00090911D058B34910509F4D1C280911C0588
:101F000090911D058C34910509F4EDC280911C055A
:101F100090911D058D34910589F420911E05309115
:101F20001F0522503109C901880F991F820F931F85
:101F30008C5B9A4F0E94980981115CC380911C05AB
:101F400090911D058E34910509F442C380911C05C2
:101F500090911D058F34910509F47DC380911C0576
:101F600090911D058A35910509F0A6C38091C7049B
:101F70009091C804892B09F470C080911E0580934C
:101F8000C904809120058093CA0480912205809322
:101F9000CB041092C8041092C7045FC080911C0546
:101FA00090911D05C49709F430C180911C05909152
:101FB0001D05C59791F420911E0530911F052250F3
:101FC000310947E0429FC001439F900D11248A5A76
:101FD0009A4F0E94610681113DC180911C0590912C
:101FE0001D05C69709F451C180911C0590911D05EE
:101FF000C79791F420911E0530911F052250310999
:1020000017E0129FC001139F900D11248A5A9A4F16
:102010000E946106811185C180911C0590911D056A
:10202000C89709F457C180911C0590911D0586340D
:10203000910509F03FCF60911E0570911F0541E0A9
:10204000460F9B0122503109C901880F991F820F49
:10205000931F8C5B9A4F0E9430088091A904909145
:10206000AA04892BD9F10E94411B0091C30410914D
:10207000C4042091C5043091C604601B710B820B0F
:10208000930B613375478105910540F181E090E044
:102090009093A8048093A7048091BF049091C004FA
:1020A000A091C104B091C2048093BB049093BC047E
:1020B000A093BD04B093BE041092BF041092C0045C
:1020C0001092C1041092C2040E94411B6093C30489
:1020D0007093C4048093C5049093C60480919F04B8
:1020E0009091A004892B39F18091E301813019F599
:1020F0002091E2018091A3049091A404213049F43D
:1021000001968931910554F01092A4041092A30411
:1021100009C0019797FF02C088E190E09093A40462
:102120008093A30481E08093A1048091A304809311
:10213000A2041092E3018091990490919A04892B52
:1021400009F494C50E94411B0091950410919604D6
:102150002091970430919804601B710B820B930BB4
:10216000613D77408105910508F480C520919D046B
:1021700030919E044EE1429FC001439F900D112477
:1021800069E470E00E946722E62F472F60939B046A
:1021900070939C0481E080939204862F972F60E0D7
:1021A00071E00E946722809393042E2F342F37FF13
:1021B00002C021503F4F3093940410929E0410921D
:1021C0009D040E94411B6093950470939604809334
:1021D0009704909398044AC561E0809120059091FE
:1021E0002105892B09F460E020911E0530911F051F
:1021F0002250310947E0429FC001439F900D1124B6
:102200008A5A9A4F0E940B0628CF20911E053091C2
:102210001F052250310917E0129FC001139F900D36
:1022200011248A5A9A4F0E946106882309F4BDCE70
:1022300020911E0530911F0522503109129FC001C7
:10224000139F900D1124609120058A5A9A4F0E9485
:10225000110603CF41E08091220590912305892B3F
:1022600009F440E020911E0530911F0522503109EC
:1022700057E0529FC001539F900D1124609120059B
:102280008A5A9A4F0E942306E8CE20911E0530916B
:102290001F052250310917E0129FC001139F900DB6
:1022A00011248A5A9A4F0E946106882309F49CCE11
:1022B00020911E0530911F0522503109129FC00147
:1022C000139F900D1124609120058A5A9A4F0E9405
:1022D0004406C3CE20911E0530911F0522503109BE
:1022E00017E0129FC001139F900D11248A5A9A4F34
:1022F0000E946106882309F496CE20911E05309134
:102300001F0522503109129FC001139F900D112407
:102310008A5A9A4F0E945D068093010590930205A8
:102320009CCE80E090E09091220560912005709114
:1023300021056827792720911E0530911F0522501D
:102340003109129FC001139F900D11248A5A9A4F90
:102350000E94C20582CE20911E0530911F05225099
:102360003109C901880F991F820F931F8C5B9A4F07
:102370000E949809882309F4A1CD20911E0530916F
:102380001F0522503109C901880F991F820F931F21
:10239000609120058C5B9A4F0E9447085ECE209189
:1023A0001E0530911F0522503109C901880F991F60
:1023B000820F931F8C5B9A4F0E949809882309F41F
:1023C00085CD80E090E0909122056091200570918C
:1023D00021056827792720911E0530911F0522507D
:1023E0003109C901880F991F820F931FE12C00E06A
:1023F00024E040E02BC020911E0530911F052250A3
:102400003109C901880F991F820F931F8C5B9A4F66
:102410000E949809882309F461CD80E090E09091B2
:102420002205609120057091210568277927209168
:102430001E0530911F0522503109C901880F991FCF
:10244000820F931FE12C00E024E041E08C5B9A4F67
:102450000E941B0902CE20911E0530911F052250BB
:102460003109C901880F991F820F931F8C5B9A4F06
:102470000E949809882309F439CD20911E053091D6
:102480001F0522503109C901880F991F820F931F20
:10249000609122058C5B9A4F0E94910914C0209193
:1024A0001E0530911F0522503109C901880F991F5F
:1024B000820F931F8C5B9A4F0E949809882309F41E
:1024C0001DCD80912205898320911E0530911F0525
:1024D00022503109C901880F991F820F931F209143
:1024E000200541E0E1C020911E0530911F052250DA
:1024F0003109C901880F991F820F931F8C5B9A4F76
:102500000E949809882309F401CD809120059091BB
:1025100021050AE010E0B8010E94672220911E0503
:1025200030911F0522503109C901880F991F820F70
:10253000931F8C5B9A4F0E9491098983809120059B
:1025400090912105B8010E94672220911E053091CB
:102550001F0522503109A901440F551F420F531F77
:10256000682FCA018C5B9A4F0E94910980688A8308
:102570008091220590912305B8010E946722209145
:102580001E0530911F0522503109C901880F991F7E
:10259000820F931F8C5B9A4F0E9491098B838091CD
:1025A000220590912305B8010E94672220911E0503
:1025B00030911F0522503109A901440F551F420FC8
:1025C000531F682FCA018C5B9A4F0E9491095EC00D
:1025D00020911E0530911F0522503109C901880F35
:1025E000991F820F931F8C5B9A4F0E94980981114B
:1025F00049C0ACCC10912005A0902205B0902305D5
:10260000AA0CBB1CAA0CBB1CC12CD12CCA14DB0409
:102610000CF023CD812F0E94881DBC0120911E0546
:1026200030911F0522503109C901880F991F820F6F
:10263000931FE12C00E024E040E08C5B9A4F0E9465
:102640001B096AEF70E080E090E00E94701B2FEFA2
:10265000C21AD20ADBCF20911E0530911F052250ED
:102660003109C901880F991F820F931F8C5B9A4F04
:102670000E949809882309F471CC19821A821B825E
:102680001C8205C08FEF89838A838B838C83209182
:102690001E0530911F0522503109C901880F991F6D
:1026A000820F931F20E044E0BE016F5F7F4F8C5B81
:1026B0009A4F0E94CE08D1CC8B359105E9F48091D8
:1026C000C7049091C804892B09F4C7CC60911E05FA
:1026D00070911F0541E0460F9B012250310955E0E2
:1026E000529FC001539F900D1124209120058A5DB7
:1026F0009A4F0E943C054DCC8C35910509F04BC09A
:102700008091C7049091C804892B09F4A6CC6091EC
:102710001E0570911F0541E0460F9B0122503109B3
:1027200055E0529FC001539F900D11242091200528
:102730008A5D9A4F0E943C051091220512FBDD2410
:10274000D0F8D19411FBCC24C0F8C194117011952C
:10275000E12CF12CE5E0BE2E809120059091210521
:10276000E816F9060CF015CC60911E0570911F0556
:1027700062507109B69EC001B79E900D1124012FC1
:102780002C2D4D2D6E2D8A5D9A4F0E94CF043FEF68
:10279000E31AF30AE1CF8D35910509F07BC08091F2
:1027A000C7049091C804892B09F457CC20912005C7
:1027B0003091210580911E0590911F05232BB1F4C6
:1027C0009C012250310945E0429FC001439F900D7A
:1027D00011240091CB042091CA044091C904609156
:1027E00022058A5D9A4F0E94CF04D3CB9C012250D0
:1027F000310945E0429FC001439F900D11248A5D3D
:102800009A4F0E946905E12CF12CC82ED12C15E0BD
:10281000EC14FD040CF0BDCB209120053091210576
:102820002130310541F48091220590912305E8166D
:10283000F906B1F42BC02230310541F48091220514
:10284000909123058E159F055CF420C0233031053F
:10285000E9F48091220590912305E816F906B4F079
:1028600020911E0530911F0522503109129FC00191
:10287000139F900D11240091CB042091CA04409124
:10288000C9046E2D8A5D9A4F0E94CF044FEFE41A5F
:10289000F40ABECF8E35910509F059C08091C70466
:1028A0009091C804892B09F4D8CB8091220590918E
:1028B00023051816190634F081E090E09093230563
:1028C0008093220520911E0530911F052250310969
:1028D00045E0429FC001439F900D11248A5D9A4FAD
:1028E0000E946905E0902005F0902105C82ED12CAA
:1028F00015E0EC14FD040CF04CCB80912005909178
:1029000021059701281B390BC9016091220570919F
:1029100023050E946722892BB1F420911E05309176
:102920001F0522503109129FC001139F900D1124E1
:102930000091CB042091CA044091C9046E2D8A5D98
:102940009A4F0E94CF043FEFE31AF30AD2CF8F359C
:10295000910509F08BC08091C7049091C804892B20
:1029600009F47BCB20911E0530911F0522503109BF
:1029700045E0429FC001439F900D11248A5D9A4F0C
:102980000E946905182F8091220590912305C12E80
:10299000D12CE12CF12C892B99F515E0EC14FD04D8
:1029A0000CF0F7CA209120053091210580911E0579
:1029B00090911F05E216F3067CF49C012250310928
:1029C000129FC001139F900D11240091CB04209100
:1029D000CA044091C9040BC09C0122503109129FC6
:1029E000C001139F900D112400E020E040E06E2D07
:1029F0008A5D9A4F0E94CF044FEFE41AF40ACECFBB
:102A000075E0B72E96012E193F0909F4C2CA8091CC
:102A1000200590912105A601481B590BCA01409140
:102A20001E0550911F05612F6E194250510928173C
:102A3000390764F0B49EC001B59E900D1124009139
:102A4000CB042091CA044091C90408C0B49EC001BF
:102A5000B59E900D112400E020E040E08A5D9A4F81
:102A60000E94CF045FEFE51AF50ACCCF8E309105B6
:102A7000C1F441E050E069EE7CE080E00E946D1A14
:102A800081E090E09093AA048093A9040E94411BE6
:102A90006093C3047093C4048093C5049093C604E8
:102AA0007BC08F30910541F480E00E948D1A109216
:102AB000AA041092A90470C08A30910531F5809162
:102AC000C7049091C804019709F0C7CA8091A70470
:102AD000809300058091BB049091BC04A091BD043B
:102AE000B091BE0480930105492F5A2F6B2F772791
:102AF0004093BB045093BC046093BD047093BE0428
:102B000040930205A093030544CA8031910559F40E
:102B100082EE91E00E94090481E090E09093A0048D
:102B200080939F0439C08131910549F482EE91E090
:102B30000E941C041092A00410929F048ECA82313D
:102B4000910501F560E082E00E942D1E43E050E017
:102B50006FED7CE080E00E946D1A10929E0410924E
:102B60009D040E94411B609395047093960480938A
:102B700097049093980481E090E090939A04809356
:102B800099040AC08D30910561F410929A04109254
:102B9000990480E00E948D1A10921D0510921C0568
:102BA0005CCA84369105D1F58091C7049091C80420
:102BB000019709F052CA80911E0590911F0581303E
:102BC000910549F4809120050E94AD0080ED97E0C9
:102BD0000E945301DEC98230910579F4809120056D
:102BE00090912105813491051CF48093510402C019
:102BF0001092510410925004CCC9039709F0C9C92E
:102C000060915104662309F4C4C98091500468138B
:102C1000C0C982E594E00E944A02BBC9853691058D
:102C200009F01BCA8091C7049091C804019709F06C
:102C300014CA8091500490915104891708F0A9C9D1
:102C4000EEE1F5E08F5F20813296A82FB0E0AF5A19
:102C5000BB4F2C9325E0E432F20719F48093500423
:102C600098C98913EFCF9093500493C928960FB653
:102C7000F894DEBF0FBECDBFDF91CF911F910F91B2
:102C8000FF90EF90DF90CF90BF90AF9008950F939B
:102C90001F93CF93DF9301E010E087E995E00E9456
:102CA0002F17892B41F187E995E00E942F17049790
:102CB00061F4109219051092180510921B051092DC
:102CC0001A051093C8040093C704C0911A05D09147
:102CD0001B05CE01019690931B0580931A0587E989
:102CE00095E00E943717FE01EE0FFF1FE45EFA4FDA
:102CF00091838083D2CFDF91CF911F910F9108955F
:102D000080911C0590911D05019731F46091150586
:102D100087E995E00E94B61780911C0590911D05EA
:102D20008330910511F0C89741F443E050E060E032
:102D300075E087E995E00E94891780911C059091C4
:102D40001D05079761F443E050E068EE74E087E901
:102D500095E00E94891710921D0510921C05809124
:102D60001C0590911D058830910511F0449741F4A0
:102D700044E050E060E075E087E995E00E94891743
:102D800080911C0590911D054E9741F449E050E05B
:102D900060E075E087E995E00E94891780911C0545
:102DA00090911D05889761F449E050E06BEE74E066
:102DB00087E995E00E94891710921D0510921C0565
:102DC00080911C0590911D05459751F445E150E017
:102DD00060E075E087E995E00E9489171092000590
:102DE00080911C0590911D050A9781F444E050E004
:102DF00060E075E087E995E00E9489171092A804C9
:102E00001092A70410921D0510921C0580911C05BC
:102E100090911D050B9771F442E050E061EA74E077
:102E200087E995E00E9489171092A10410921D0570
:102E300010921C0580911C0590911D050C9771F452
:102E400043E050E062E974E087E995E00E94891769
:102E50001092920410921D0510921C050895809105
:102E6000CB0590E02091CC05821B9109089520911B
:102E7000CC058091CB05281750F4E22FF0E0E35306
:102E8000FA4F808190E02F5F2093CC0508958FEF5B
:102E90009FEF0895E091CC058091CB05E81730F4C1
:102EA000F0E0E353FA4F808190E008958FEF9FEFB9
:102EB00008950895E091A305F091A4053097E1F0FD
:102EC0003091CC052091CB053217B0F040E0242F93
:102ED00030E02617370754F4DC01A20FB31F5C91D2
:102EE000D901A353BA4F5C934F5FF1CF1092CC0539
:102EF0006093CB05CB0109940895E091A505F0916D
:102F0000A605309729F01092A9051092A8050994FA
:102F10000895CF92DF92EF92FF920F931F93CF937A
:102F2000DF937C01CB018A012091A705222389F040
:102F3000EB016B01C40ED51ECC15DD0569F069915E
:102F4000D701ED91FC910190F081E02DC701099529
:102F5000F3CF642F0E940D19C801DF91CF911F910B
:102F60000F91FF90EF90DF90CF900895CF93DF9374
:102F70001F92CDB7DEB769832091A7052223D1F038
:102F80002091A805203240F021E030E0FC0133839D
:102F9000228380E090E015C08091A905E82FF0E041
:102FA000E655FA4F998190838F5F8093A9058093AE
:102FB000A80505C061E0CE0101960E940D1981E0CF
:102FC00090E00F90DF91CF910895FC01138212825F
:102FD00048EE53E060E070E0448355836683778376
:102FE00082E991E09183808308951092CC0510923C
:102FF000CB051092A9051092A8050C945418CF93F4
:10300000DF93EC01862F0E9472188DE797E10E94F2
:103010002B198AE597E10E942619CE01DF91CF9105
:103020000C94F5170C94FF17862F413208F040E2FC
:103030006DEC75E00E9476181092CC058093CB055C
:10304000089521E00C94141881E08093A705609303
:10305000CA051092A9051092A80508950C94241889
:103060000F93062F21E04091A8056AEA75E0809150
:10307000CA050E94BA181092A9051092A8051092CC
:10308000A7050F91089561E00C9430187093A40582
:103090006093A30508957093A6056093A505089510
:1030A00087E995E00C94E51710925A0681E0809329
:1030B00058061092570661E082E10E94661E61E0A8
:1030C00083E10E94661EE9EBF0E080818E7F8083C1
:1030D00080818D7F808388E48093B80085E480932D
:1030E000BC000895880F8093BA000895413208F01B
:1030F0003FC090915A069111FCCF91E090935A06EF
:10310000209358062FEF2093ED0510923206240FDE
:10311000209331069093590690915906880F892B78
:103120008093590680915706813041F410925706DA
:10313000809159068093BB0085EC01C085EE809399
:10314000BC0080915A068130E1F3809132068417E9
:1031500010F44091320623E336E0FB01D9018A2FB7
:10316000821B841718F48D918193F9CF842F0895D1
:1031700080E008950F93413208F046C090915A06BE
:103180009111FCCF92E090935A06009358069FEF5E
:103190009093ED051092320640933106FB0163E3F4
:1031A00076E0DB019A2F961B941718F491919D936A
:1031B000F9CF1092590690915906880F892B809368
:1031C000590680915706813041F41092570680913C
:1031D00059068093BB0085EC01C085EE8093BC004E
:1031E000222321F080915A068230E1F38091ED058F
:1031F0008F3F61F08091ED05803251F08091ED05B7
:10320000803341F483E007C081E005C080E003C063
:1032100082E001C084E00F910895613298F420911A
:103220005A06243089F460930F06FC0181E196E090
:10323000DC012A2F281B261718F421912D93F9CF92
:1032400080E0089581E0089582E008959093540607
:1032500080935306089590935606809355060895DB
:1032600085ED8093BC008091BC0084FDFCCF109262
:103270005A06089585EC8093BC0010925A06089572
:103280001F920F920FB60F9211242F933F934F93DB
:103290005F936F937F938F939F93AF93BF93EF93BE
:1032A000FF938091B900887F803609F49CC068F54F
:1032B000883209F45BC090F4803109F454C038F4CA
:1032C000882309F4F5C0883009F44DC0F5C0883171
:1032D00009F44CC0803209F45DC0EEC0803409F4BA
:1032E00068C048F4803309F455C0883309F0E4C05D
:1032F0008093ED05A8C0803509F44FC0883509F4E6
:103300005DC0883409F0D8C0D5C0883909F4C6C07A
:10331000A8F4883709F467C038F4883609F463C024
:10332000803709F460C0C8C0883809F4B7C0803954
:1033300009F45FC0803809F0BFC05BC0803B09F46E
:1033400085C038F4803A09F466C0883A09F47EC032
:10335000B3C0803C09F4A6C0883C09F4A3C0883BF4
:1033600009F489C0A9C08091590610C09091320615
:1033700080913106981770F5E091320681E08E0F4A
:1033800080933206F0E0ED5CF94F80818093BB00C2
:1033900085EC85C08093ED058DC0E091320681E01B
:1033A0008E0F809332068091BB00F0E0ED5CF94F08
:1033B000808390913206809131066DC0E091320693
:1033C00081E08E0F809332068091BB00F0E0ED5CCF
:1033D000F94F80838091580681116CC081E0809301
:1033E000570684EA60C083E080935A061092EE0587
:1033F000CFCF8091EE05803208F050C0E091EE050D
:1034000081E08E0F8093EE058091BB00F0E0E151EA
:10341000FA4F8083BDCF8091EE05803230F4E09189
:10342000EE05F0E0E151FA4F10820E9430196091F0
:10343000EE0570E0E0915306F09154068FEE95E0B2
:1034400009951092EE050E943A1936C084E08093E7
:103450005A061092100610920F06E0915506F09150
:103460005606099580910F06811105C081E0809371
:103470000F0610921106E091100681E08E0F8093E6
:103480001006F0E0EF5EF94F80818093BB009091D1
:10349000100680910F06981708F47ACF85E880937C
:1034A000BC000AC085EC8093BC0010925A0604C090
:1034B0001092ED050E943019FF91EF91BF91AF91ED
:1034C0009F918F917F916F915F914F913F912F913C
:1034D0000F900FBE0F901F9018958230E8F4E82FE0
:1034E000F0E0EE0FFF1FE55AF94F718360838130E2
:1034F00041F0809169008C7F842B80936900E89A69
:10350000089580916900440F551F440F551F837F14
:10351000842B80936900E99A0895823068F48130A1
:1035200011F0E89801C0E998E82FF0E0EE0FFF1FD6
:10353000E55AF94F1182108208951F920F920FB62B
:103540000F9211242F933F934F935F936F937F9329
:103550008F939F93AF93BF93EF93FF9380915B06FD
:1035600090915C06892B29F0E0915B06F0915C0656
:103570000995FF91EF91BF91AF919F918F917F91AD
:103580006F915F914F913F912F910F900FBE0F90D0
:103590001F9018951F920F920FB60F9211242F9320
:1035A0003F934F935F936F937F938F939F93AF93CB
:1035B000BF93EF93FF9380915D0690915E06892BF8
:1035C00029F0E0915D06F0915E060995FF91EF917B
:1035D000BF91AF919F918F917F916F915F914F912B
:1035E0003F912F910F900FBE0F901F9018951F9233
:1035F0000F920FB60F9211242F933F938F939F93A7
:10360000AF93BF938091600690916106A09162068E
:10361000B091630630915F0623E0230F2D3720F42D
:103620000196A11DB11D05C026E8230F0296A11D1C
:10363000B11D20935F068093600690936106A0936E
:103640006206B09363068091640690916506A0912E
:103650006606B09167060196A11DB11D80936406B0
:1036600090936506A0936606B0936706BF91AF91ED
:103670009F918F913F912F910F900FBE0F901F90B0
:1036800018952FB7F894609160067091610680914B
:103690006206909163062FBF08953FB7F89480911A
:1036A000640690916506A0916606B091670626B5FE
:1036B000A89B05C02F3F19F00196A11DB11D3FBF6A
:1036C0006627782F892F9A2F620F711D811D911DFA
:1036D00042E0660F771F881F991F4A95D1F708951A
:1036E000CF92DF92EF92FF92CF93DF936B017C0139
:1036F0000E944D1BEB01C114D104E104F10479F0E7
:103700000E944D1B6C1B7D0B683E7340A0F381E053
:10371000C81AD108E108F108C851DC4FECCFDF919D
:10372000CF91FF90EF90DF90CF9008950197009791
:1037300039F0880F991F880F991F02970197F1F7A9
:103740000895789484B5826084BD84B5816084BD19
:1037500085B5826085BD85B5816085BDEEE6F0E00A
:10376000808181608083E1E8F0E010828081826066
:103770008083808181608083E0E8F0E080818160E7
:103780008083E1EBF0E0808184608083E0EBF0E017
:10379000808181608083EAE7F0E0808184608083BB
:1037A0008081826080838081816080838081806865
:1037B00080831092C1000895CF93DF9382309105EA
:1037C00010F482E090E0E0911407F091150720E0FA
:1037D00030E0A0E0B0E0309739F1408151814817E6
:1037E0005907B8F04817590771F4828193811097EF
:1037F00029F013969C938E9312972CC090931507E3
:103800008093140727C02115310531F04217530763
:1038100018F0A901DB0101C0EF019A01BD01DF0130
:103820000280F381E02DD7CF21153105F9F0281B57
:10383000390B2430310580F48A819B816115710533
:1038400021F0FB019383828304C09093150780933A
:103850001407FE01329644C0FE01E20FF31F81936C
:10386000919322503109398328833AC0209112075D
:1038700030911307232B41F42091490130914A01E3
:10388000309313072093120720914701309148018C
:103890002115310541F42DB73EB740914B015091B0
:1038A0004C01241B350BE0911207F0911307E2172E
:1038B000F307A0F42E1B3F0B2817390778F0AC0153
:1038C0004E5F5F4F2417350748F04E0F5F1F509330
:1038D0001307409312078193919302C0E0E0F0E058
:1038E000CF01DF91CF910895CF93DF93009709F433
:1038F00087C0FC01329713821282C0911407D091C5
:103900001507209781F420813181280F391F80917C
:103910001207909113078217930779F5F093130715
:10392000E09312076DC0DE0120E030E0AE17BF0764
:1039300050F412964D915C9113979D0141155105DC
:1039400009F1DA01F3CFB383A28340815181840F5F
:10395000951F8A179B0771F48D919C911197840F85
:10396000951F02969183808312968D919C91139757
:10397000938382832115310529F4F0931507E09391
:1039800014073EC0D9011396FC93EE9312974D9104
:103990005D91A40FB51FEA17FB0779F4808191812F
:1039A000840F951F0296D90111969C938E93828164
:1039B000938113969C938E931297E0E0F0E08A81B6
:1039C0009B81009719F0FE01EC01F9CFCE01029620
:1039D00028813981820F931F20911207309113079C
:1039E0002817390769F4309729F4109215071092B7
:1039F000140702C013821282D0931307C0931207D8
:103A0000DF91CF910895CF92DF92EF92FF920F93C3
:103A10001F93CF93DF9390E0FC01E458FF4FD491C4
:103A2000FC01E057FF4F7491611102C0C0E001C07A
:103A3000CD2FDA01C901BF70672F70E0660F771FC5
:103A40006C557F4F00E010E09801FB01E590F49089
:103A5000F70140814D234C131EC0680179014FEFDF
:103A6000C41AD40AE40AF40A081719072A073B07FC
:103A700009F442C097018601E8CF68017901FFEFA0
:103A8000CF1ADF0AEF0AFF0A081719072A073B07B0
:103A900099F197018601FB01E590F490F7014081CF
:103AA0004D234C13EACF801B910BA20BB30B20E0EC
:103AB00030E0A901FB01E590F490F701F080FD22D0
:103AC000FC120AC0281739074A075B07A9F02F5FC5
:103AD0003F4F4F4F5F4FEECFA5E1B0E00E94BC22B9
:103AE000605F7F4F8F4F9F4F24E096958795779526
:103AF00067952A95D1F703C060E070E0CB01DF91B4
:103B0000CF911F910F91FF90EF90DF90CF9008958C
:103B10008E3008F08E50877020914D0190E4299FDF
:103B200090011124822B80937C0080917A00806424
:103B300080937A0080917A0086FDFCCF8091780096
:103B40002091790090E0922B08951F93CF93DF93FB
:103B5000182FEB0161E00E942D1E209711F460E008
:103B600004C0CF3FD10539F461E0812FDF91CF91BF
:103B70001F910C94661EE12FF0E0E859FF4FE4918D
:103B8000E330F9F048F4E130B9F0E230A1F584B562
:103B9000806284BDC8BD34C0E630E9F0E73019F179
:103BA000E43049F580918000806280938000D0935A
:103BB0008B00C0938A0024C084B5806884BDC7BDD3
:103BC0001FC080918000806880938000D09389001E
:103BD000C093880015C08091B00080688093B000C9
:103BE000C093B3000DC08091B00080628093B0009C
:103BF000C093B40005C0C038D1050CF0B5CFAFCF2D
:103C0000DF91CF911F910895833081F028F48130A6
:103C100099F08230A1F008958630A9F08730B9F08C
:103C20008430D1F4809180008F7D03C0809180002A
:103C30008F7780938000089584B58F7702C084B514
:103C40008F7D84BD08958091B0008F7703C08091EF
:103C5000B0008F7D8093B0000895CF93DF9390E004
:103C6000FC01E458FF4F2491FC01E057FF4F849181
:103C7000882349F190E0880F991FFC01E854FF4F19
:103C8000A591B49182559F4FFC01C591D4919FB7E6
:103C9000611108C0F8948C91209582238C938881BF
:103CA00082230AC0623051F4F8948C91322F3095FF
:103CB00083238C938881822B888304C0F8948C9111
:103CC000822B8C939FBFDF91CF9108950F931F9309
:103CD000CF93DF931F92CDB7DEB7282F30E0F901E5
:103CE000E859FF4F8491F901E458FF4F1491F9010D
:103CF000E057FF4F04910023C9F0882321F0698326
:103D00000E94041E6981E02FF0E0EE0FFF1FE255D4
:103D1000FF4FA591B4919FB7F8948C91611103C0A6
:103D20001095812301C0812B8C939FBF0F90DF9151
:103D3000CF911F910F910895CF93DF93282F30E0FB
:103D4000F901E859FF4F8491F901E458FF4FD491EC
:103D5000F901E057FF4FC491CC2391F081110E94EB
:103D6000041EEC2FF0E0EE0FFF1FEC55FF4FA59166
:103D7000B4912C912D2381E090E021F480E002C0E9
:103D800080E090E0DF91CF9108950E94A11B0E94F6
:103D9000630DCEE9DFE10E947C0D2097E1F30E94E4
:103DA0009E1FF9CFFC0124853585F901E05CFF4FAA
:103DB00080819181329620813181821B930B8F7398
:103DC00099270895FC0184859585FC01E05CFF4FEF
:103DD000408151813296208131814217530741F051
:103DE0000190F081E02DE80FF91F808190E00895A7
:103DF0008FEF9FEF0895FC0184859585FC01E05CC1
:103E0000FF4F408151813296208131814217530703
:103E100079F0A081B181A80FB91F8C9120813181E7
:103E20002F5F3F4F2F7333273183208390E0089516
:103E30008FEF9FEF0895FC0181A1882329F0A489C9
:103E4000B5898C9186FFFBCF11A20895CF93DF93A4
:103E5000FC0126853785D901A05CBF4F8D919C91CF
:103E6000119701968F739927E901CE5BDF4F488147
:103E7000598184179507D9F30D90BC91A02DA20FFD
:103E8000B31F6C93A685B785A05CBF4F11969C931A
:103E90008E93A689B7892C9181E090E0078C02C0AF
:103EA000880F991F0A94E2F7282B2C9381E081A3B5
:103EB0000488F589E02D80818064808381E090E032
:103EC000DF91CF91089508951F920F920FB60F9230
:103ED00011242F933F934F938F939F93EF93FF93CF
:103EE0008091C00082FD1CC04091C60080910E07E9
:103EF00090910F0701968F739927209110073091A9
:103F000011078217930771F0E0910E07F0910F07E8
:103F1000E253F94F408390930F0780930E0702C03E
:103F20008091C600FF91EF919F918F914F913F91AA
:103F30002F910F900FBE0F901F90189588E696E076
:103F40000E94D21E892B11F00C94631F08951F92BA
:103F50000F920FB60F9211242F933F938F939F933D
:103F6000EF93FF932091CA063091CB068091CC0647
:103F70009091CD062817390731F48091C1008F7DCB
:103F80008093C10014C0E091CC06F091CD06E657B5
:103F9000F94F20818091CC069091CD0601968F73C8
:103FA00099279093CD068093CC062093C600FF916D
:103FB000EF919F918F913F912F910F900FBE0F9096
:103FC0001F90189510926B0610926A0688EE93E087
:103FD000A0E0B0E080936C0690936D06A0936E060F
:103FE000B0936F0682EA91E0909369068093680629
:103FF0008EEC96E090937506809374068AE896E0BE
:10400000909377068093760685EC90E090937906FE
:104010008093780684EC90E090937B0680937A06F8
:1040200080EC90E090937D0680937C0681EC90E09C
:1040300090937F0680937E0682EC90E090938106B9
:104040008093800686EC90E09093830680938206AE
:1040500084E08093840683E08093850687E08093E4
:10406000860685E08093870681E080938806089520
:10407000CF92DF92EF92FF920F931F93CF93DF9334
:104080006C017A01EB01E60EF71E00E010E0CE15A0
:10409000DF0561F06991D601ED91FC910190F0810D
:1040A000E02DC6010995080F191FF1CFC801DF9156
:1040B000CF911F910F91FF90EF90DF90CF900895D7
:1040C0006115710581F0DB010D900020E9F7AD016C
:1040D00041505109461B570BDC01ED91FC910280C8
:1040E000F381E02D099480E090E008950C94602025
:1040F0005058BB27AA270ED04DC13ED130F043D136
:1041000020F031F49F3F11F41EF433C10EF4E0951A
:10411000E7FB29C1E92F4FD180F3BA176207730774
:104120008407950718F071F49EF567C10EF4E095C9
:104130000B2EBA2FA02D0B01B90190010C01CA0161
:10414000A0011124FF27591B99F0593F50F4503E0C
:1041500068F11A16F040A22F232F342F4427585FFE
:10416000F3CF469537952795A795F0405395C9F716
:104170007EF41F16BA0B620B730B840BBAF09150CE
:10418000A1F0FF0FBB1F661F771F881FC2F70EC06D
:10419000BA0F621F731F841F48F487957795679540
:1041A000B795F7959E3F08F0B3CF9395880F08F029
:1041B0009927EE0F9795879508950CD0EBC0E3D023
:1041C00040F0DAD030F021F45F3F19F0CCC051114B
:1041D00015C1CFC0F0D098F39923C9F35523B1F39B
:1041E000951B550BBB27AA2762177307840738F066
:1041F0009F5F5F4F220F331F441FAA1FA9F333D0C5
:104200000E2E3AF0E0E830D091505040E695001C78
:10421000CAF729D0FE2F27D0660F771F881FBB1F34
:10422000261737074807AB07B0E809F0BB0B802D0E
:10423000BF01FF2793585F4F2AF09E3F510568F05A
:1042400092C0DCC05F3FECF3983EDCF38695779537
:104250006795B795F7959F5FC9F7880F911D96955C
:10426000879597F90895E1E0660F771F881FBB1FB8
:10427000621773078407BA0720F0621B730B840B65
:10428000BA0BEE1F88F7E095089504D06894B11139
:10429000B5C0089598D088F09F5790F0B92F99270E
:1042A000B751A0F0D1F0660F771F881F991F1AF041
:1042B000BA95C9F712C0B13081F09FD0B1E008952E
:1042C0009CC0672F782F8827B85F39F0B93FCCF3AF
:1042D000869577956795B395D9F73EF49095809537
:1042E000709561957F4F8F4F9F4F0895E89409C057
:1042F00097FB3EF490958095709561957F4F8F4F19
:104300009F4F9923A9F0F92F96E9BB279395F6952E
:10431000879577956795B795F111F8CFFAF4BB0FAC
:1043200011F460FF1BC06F5F7F4F8F4F9F4F16C010
:10433000882311F096E911C0772321F09EE8872F9A
:10434000762F05C0662371F096E8862F70E060E056
:104350002AF09A95660F771F881FDAF7880F9695CF
:10436000879597F9089597F99F6780E870E060E076
:1043700008959FEF80EC089500240A9416161706FE
:1043800018060906089500240A9412161306140646
:1043900005060895092E0394000C11F4882352F0A9
:1043A000BB0F40F4BF2B11F460FF04C06F5F7F4F61
:1043B0008F4F9F4F089557FD9058440F551F59F048
:1043C0005F3F71F04795880F97FB991F61F09F3F02
:1043D00079F087950895121613061406551FF2CF2B
:1043E0004695F1DF08C0161617061806991FF1CF7B
:1043F00086957105610508940895E894BB276627A2
:104400007727CB0197F908950BD0C4CFB5DF28F0FB
:10441000BADF18F0952309F0A6CFABCF1124EECF69
:10442000CADFA0F3959FD1F3950F50E0551F629F0F
:10443000F001729FBB27F00DB11D639FAA27F00DFD
:10444000B11DAA1F649F6627B00DA11D661F829F24
:104450002227B00DA11D621F739FB00DA11D621F09
:10446000839FA00D611D221F749F3327A00D611D26
:10447000231F849F600D211D822F762F6A2F112408
:104480009F5750408AF0E1F088234AF0EE0FFF1F5B
:10449000BB1F661F771F881F91505040A9F79E3F92
:1044A000510570F060CFAACF5F3FECF3983EDCF38C
:1044B000869577956795B795F795E7959F5FC1F7CF
:1044C000FE2B880F911D9695879597F9089597FB78
:1044D000072E16F4009407D077FD09D00E94C7225A
:1044E00007FC05D03EF4909581959F4F08957095F7
:1044F00061957F4F0895A1E21A2EAA1BBB1BFD01F7
:104500000DC0AA1FBB1FEE1FFF1FA217B307E407B2
:10451000F50720F0A21BB30BE40BF50B661F771F0A
:10452000881F991F1A9469F76095709580959095EA
:104530009B01AC01BD01CF010895052E97FB1EF430
:1045400000940E94B42257FD07D00E947B2207FCF2
:1045500003D04EF40C94B42250954095309521959B
:104560003F4F4F4F5F4F089590958095709561959F
:104570007F4F8F4F9F4F08950E94E122A59F900D7E
:10458000B49F900DA49F800D911D11240895AA1B26
:10459000BB1B51E107C0AA1FBB1FA617B70710F02E
:1045A000A61BB70B881F991F5A95A9F78095909560
:1045B000BC01CD010895EE0FFF1F0590F491E02D91
:1045C0000994A29FB001B39FC001A39F700D811DEC
:1045D0001124911DB29F700D811D1124911D08950C
:1045E0000F931F93CF93DF93869F8001879F100DBA
:1045F000969F100D1124C8010E94DC1BEC0100974E
:1046000029F0A80160E070E00E940C23CE01DF9148
:10461000CF911F910F910895DC0101C06D9341501E
:0A4620005040E0F70895F894FFCF32
:10462A000C0B0A2A2A2A2A2A2A382C0000000000FF
:10463A000000000000000000000000000000000070
:10464A000000000000000000000000000000000060
:10465A000000000000000000000000000000000050
:10466A0000000000000000000016078000010000A2
:10467A0001000800400000010004050D0D0E13158D
:10468A0016191A1C232526292A2C323401000A005D
:10469A006400E8033F065B4F666D7D077F6F777C9A
:1046AA00395E797152656164206661696C00000047
:1046BA000000B61789172F1737174A17591700001E
:0E46CA000000261F3820D21EFB1EE21E1B1F02
:00000001FF
