:100000000C9464000C947C160C94A9160C948C002F
:100010000C948C000C949C030C948C000C94E505BF
:100020000C948C000C948C000C948C000C94E802C2
:100030000C948C000C946E090C948C000C948C0025
:100040000C94D6160C948C000C947F190C94B11956
:100050000C948C000C948C000C948C000C948C00F0
:100060000C941F150C948C00000000080002010085
:100070000003040700000000000000000102040863
:100080001020408001020408102001020408102002
:10009000040404040404040402020202020203032E
:1000A00003030303000000002300260029000000D2
:1000B0000000250028002B0000000000240027007D
:1000C0002A00E503C614E11911241FBECFEFD8E0C2
:1000D000DEBFCDBF11E0A0E0B1E0E8E3FEE302C087
:1000E00005900D92AE3AB107D9F726E0AEEAB1E03D
:1000F00001C01D92AF3DB207E1F710E0C8ECD0E0BF
:1001000004C02297FE010E94BD1DC23CD107C9F761
:100110000E94251A0C941A1F0C9400008627082EA2
:100120008295807F8025092E982F82958F700826D2
:10013000869598278927880F880F880F802508952E
:10014000ECE5F1E090E02191821729F09F5F90317A
:10015000D1F780E00895892F0895809306010895CE
:100160001F93CF93DF939091D901992329F0809128
:10017000D6018F5F8093D6012091D8018091D7015D
:10018000921759F0803510F42BE001C02DE1820F59
:100190008093D7019093D80103C08C5E8093D701E0
:1001A0002091D701203A08F47AC08091D101909132
:1001B000D201969587959093D2018093D101309189
:1001C000D601353028F098609093D2018093D10108
:1001D000205A2093D7011092D6018091D50188230F
:1001E00009F44DC08091D0018F5F8093D0018C3095
:1001F00008F455C0C091D101D091D2018C2F8F73DA
:100200000E94A000182FCE0126E0969587952A958A
:10021000E1F70E94A00090E1199F90011124822B28
:100220009091B00191110EC08093B1019CEF980F95
:100230009B3140F01092D5018091AF018F5F809388
:10024000AF012DC0E091B00191E09E0F9093B001FD
:10025000F0E0EE54FE4F80839091B0018091B101A7
:10026000981750F01092D5018091AE018F5F809366
:10027000AE0181E08093D4011092D00110C0809132
:10028000D1019091D20188339B4049F481E0809361
:10029000D5011092D0011092B0011092D401DF91DB
:1002A000CF911F9108954F925F926F927F92BF926C
:1002B000CF92DF92EF92FF920F931F93CF93DF9332
:1002C000CDB7DEB72E970FB6F894DEBF0FBECDBF09
:1002D000BC018EE0EEE4F1E0DE01119601900D929A
:1002E0008A95E1F76115710509F49AC080E090E004
:1002F0000E94561C9B01AC0160E070E080E89FE327
:100300000E94BD1B20E030E040E05EE30E94E41C60
:100310006B017C018E010D5F1F4FBB24B394F8016C
:10032000619171918F0180E090E00E94561C9B01C9
:10033000AC0160E074E284E79BE40E94BD1B9B017A
:10034000AC0160E070E080E89FE30E94BD1B9B0170
:10035000AC01C701B6010E94BD1B0E94251C2B01E8
:100360003C01F2E04F1A5108610871082DEF421666
:100370002FEF52066104710428F0B394E7E0BE1237
:10038000CECF05C0F6E0BF1609F44AC00CC06230FB
:1003900071058105910508F443C06115710521E0DF
:1003A00082079105E8F5BB20D9F11092800028E082
:1003B00020938100209181002B292093810070934C
:1003C00089006093880080916F00826080936F0045
:1003D00061E0809106010E94E71860E080910701CA
:1003E0000E94E71861E0809108010E94E71860917F
:1003F000DA01809108012E960FB6F894DEBF0FBE89
:10040000CDBFDF91CF911F910F91FF90EF90DF90C3
:10041000CF90BF907F906F905F904F900C94201979
:100420002E960FB6F894DEBF0FBECDBFDF91CF91F1
:100430001F910F91FF90EF90DF90CF90BF907F9032
:100440006F905F904F900895CF931092E0011092BB
:10045000DF011092DE016091DA01C1E06C2780912A
:1004600008010E942019C093DD01CF910895609189
:10047000DA01809108010E94201960E08091060154
:100480000E9420191092DD0108958091DD018111F3
:10049000FCCF0895CF92DF92EF92FF920F931F93BC
:1004A000CF93DF93F82EE92ED62E8BE1861708F432
:1004B00085C00E944502C3E0CD0D6C2F8FEF9FEFEA
:1004C0000E948E00AC2FB0E0F4E0B595A795FA95A8
:1004D000E1F7A45ABE4F2C9120931101CF70EC2F5D
:1004E000F0E0E45AFE4F20812093120101E111E077
:1004F000CF2CCF2DDE2D0E5F1F4F2C2F2C192D153D
:10050000D0F47E0168810E948E00A991B0E0E4E001
:10051000B595A795EA95E1F7A45ABE4F2C91D8015D
:100520002C93D701EC91EF70F0E0E45AFE4F20815C
:10053000F8012183E0CF61E06D0D660F8095909505
:10054000E62FF0E0EF5EFE4FDC0144E0B695A795A4
:100550004A95E1F7AF70BB27A45ABE4F2C91208378
:10056000E1E0E60FF0E0EF5EFE4FDC01AF70BB278D
:10057000A45ABE4F2C912083E2E0E60FF0E0EF5E3C
:10058000FE4FDC01AB2FBB27A295AF70A45ABE4F24
:100590002C912083A3E0A60FB0E0AF5EBE4FE92F01
:1005A000FF27EF70FF27E45AFE4F80818C93645F32
:1005B0006093E1010E94240281E001C080E0DF91AC
:1005C000CF911F910F91FF90EF90DF90CF90089502
:1005D0001F920F920FB60F9211242F933F934F93B8
:1005E0005F936F937F938F939F93AF93BF93EF939B
:1005F000FF938091D301882321F08091DD0188232E
:1006000071F18091DD018823C9F08091DE0191E0D4
:10061000980F9093DE01811111C0E091E00180916B
:10062000E101E81718F10E9437028091DB019091F7
:10063000DC0101969093DC018093DB018091DE0167
:10064000883010F01092DE018091D301882379F177
:100650008091DD0181112BC00E94B00028C08091E3
:1006600007010E9456198093D901CBCFF0E0E75FD4
:10067000FE4F60812091DF0181E0820F8093DF01D6
:1006800081E090E001C0880F2A95EAF76823809105
:1006900006010E9420198091DF01863078F21092C5
:1006A000DF018091E0018F5F8093E001C7CFFF9170
:1006B000EF91BF91AF919F918F917F916F915F91DA
:1006C0004F913F912F910F900FBE0F901F90189553
:1006D000CF93DF9382E00E945619EC0183E00E94E1
:1006E00056198C239D23019719F481E08093E4012E
:1006F000DF91CF91089584E0809368008BB381717E
:100700008BBB8CE080936D00089548EE53E060E071
:1007100070E082E494E00E94FD092FEF3FEFA90111
:1007200068E673E082E494E00E94130A78940895E6
:1007300082E494E00C94040A1F920F920FB60F9279
:1007400011241F932F933F934F935F936F937F9346
:100750008F939F93AF93BF93CF93DF93EF93FF93C9
:100760001091E4011130E9F482E00E945619EC0185
:1007700083E00E9456198C179D071CF41093E20128
:100780000CC082E00E945619EC0183E00E945619C9
:10079000C817D90734F41092E2011093E3011092C4
:1007A000E401FF91EF91DF91CF91BF91AF919F91C4
:1007B0008F917F916F915F914F913F912F911F91F9
:1007C0000F900FBE0F901F90189582EE91E00C9441
:1007D0007B03CF93DF93EC0160E088810E942019B6
:1007E00084E190E00E94771761E088810E942019DF
:1007F00084E190E0DF91CF910C9477170F931F93D2
:10080000CF93DF93EC01062F18E007FF02C061E0F1
:1008100001C060E089810E942019CE010E94E90395
:10082000000F115091F7DF91CF911F910F91089513
:10083000EF92FF921F93CF93DF9300D0CDB7DEB737
:100840007C01162F27FF02C060EC01C060EE26FF7E
:10085000606147FF686046FF646017FF626016FFD3
:100860006160C70129834A830E94FE032981622FA8
:10087000C7010E94FE034A81642FC7010E94FE0344
:10088000612FC7010F900F90DF91CF911F91FF90C3
:10089000EF900C94FE037F928F929F92AF92BF9243
:1008A000CF92DF92EF92FF920F931F93CF93DF933C
:1008B000EC01162F942E822E60E00E94FE0360E071
:1008C000CE010E94FE0360E0CE010E94FE0360E0C4
:1008D000CE010E94FE0383E0189F7001112467017E
:1008E0008FEFC81AD80A570182E0A80EB11C712CEC
:1008F0008A81781600F571120FC0EB81FC81EE0D34
:10090000FF1D9082EB81FC81EC0DFD1D8082EB814F
:10091000FC81EA0DFB1D0083EB81FC8183E0789E66
:10092000E00DF11D1124228141816081CE010E94E0
:1009300018047394DDCF60E0CE010E94FE0360E0F6
:10094000CE010E94FE0360E0CE010E94FE0360E043
:10095000CE01DF91CF911F910F91FF90EF90DF902B
:10096000CF90BF90AF909F908F907F900C94FE039C
:100970000F931F93CF93DF93EC01862F68834983F6
:100980002A8361E00E94E71861E089810E94E718EC
:100990008A8161E070E023E0829FC00111240E94FF
:1009A000D01D9C838B8310E08A81181748F400E0E7
:1009B00020E040E0612FCE010E944B041F5FF4CF86
:1009C000DF91CF911F910F910895FC0182810895CD
:1009D000CF93DF93EC01862FE62FF0E0F983E883D5
:1009E00050E05B834A832C831E821D8261E00E945B
:1009F000E71861E08A81DF91CF910C94E7181F938B
:100A0000CF93DF93EC0160E08A810E9420198AE095
:100A100090E00E94771714E061E08A810E9420191B
:100A200060E08A810E9420191150B1F7DF91CF91C7
:100A30001F910895FF920F931F93CF93DF93EC01C3
:100A40008B0190E1F92E612F661F6627661F8A8150
:100A50000E94201988810E94561961E0892B09F0B3
:100A600060E088810E942019000F111FFA9459F745
:100A7000DF91CF911F910F91FF900895EF92FF9218
:100A80000F931F93CF93DF93EC017B01CB01937006
:100A90009E838D8360E070E0CE010E941A0500E025
:100AA00010E08C81882351F0C701002E02C0880F0E
:100AB000991F0A94E2F791FF0DC009C0C701002EEB
:100AC00002C0969587950A94E2F780FF03C06FEF06
:100AD00070E002C060E070E0CE010E941A050F5F76
:100AE0001F4F0A301105E9F660E070E0CE010E9468
:100AF0001A0560E070E0CE010E941A05CE01DF9178
:100B0000CF911F910F91FF90EF900C94FF04FC0187
:100B10006483658176810C943E056B3008F06AE051
:100B20002FEF3FEF02C0220F331F6A95E2F72095A7
:100B30003095FC0136832583B9010C943E0566236C
:100B400021F06B3018F06AE001C061E05FEF560FF2
:100B5000FC012581368161E070E002C0660F771FDD
:100B60005A95E2F7442319F0622B732B04C0609569
:100B7000709562237323FC01768365830C943E0594
:100B8000662321F06B3018F06AE001C061E02FEFBE
:100B9000260F61E070E002C0660F771F2A95E2F72A
:100BA000FC012581368162277327768365830C9447
:100BB0003E05FC01858196810895FC0181E020813C
:100BC0003181232B09F480E008951F920F920FB614
:100BD0000F9211242F933F934F935F936F937F93C3
:100BE0008F939F93AF93BF93EF93FF938091E50112
:100BF0000E9456192091E7013091E8012F5F3F4F85
:100C00003093E8012093E701909141049091E6012F
:100C10009330B9F018F4923039F056C0943051F155
:100C2000953009F44BC050C081114EC08091E7014E
:100C30009091E8018436910508F442C01092410475
:100C40001BC0813009F040C0E09141048E0F8093B9
:100C50004104F0E08091E7019091E801EE0FFF1F61
:100C6000E751FE4F918380831092E8011092E701D3
:100C700084E021C0811117C0E091410481E08E0F12
:100C800080934104F0E08091E7019091E801EE0F3C
:100C9000FF1FE751FE4F918380831092E80110926D
:100CA000E70183E008C08091E7019091E801853673
:100CB000910550F085E08093E60106C0811104C0E3
:100CC0001092E8011092E701FF91EF91BF91AF916F
:100CD0009F918F917F916F915F914F913F912F9154
:100CE0000F900FBE0F901F901895CF93DF93EC01DC
:100CF000862F6883498360E00E94E71860E089815D
:100D00000E94E71860E088810E94201960E08981D4
:100D1000DF91CF910C942019683010F4685F01C006
:100D20006FE0FC016283089561E0FC0181810E9413
:100D3000E71882E390E00C947717CF93DF93EC01F0
:100D400061E089810E94E71882E390E00E947717B2
:100D500060E088810E94E71882E390E00E947717A4
:100D600060E089810E94E71882E390E0DF91CF91F3
:100D70000C9477170F931F93CF93DF93EC01062FFB
:100D800018E061E088810E94E71882E390E00E9409
:100D9000771700FF02C060E001C061E089810E9416
:100DA000E71882E390E00E94771760E088810E9454
:100DB000E71882E390E00E9477170695115009F733
:100DC00061E088810E94E71860E089810E94E7184D
:100DD00082E390E00E94771760E088810E94E71824
:100DE00082E390E00E94771789810E945619182F9C
:100DF000811104C061E089810E94E71882E390E0DC
:100E00000E94771761E088810E94E71882E390E0F2
:100E10000E94771781E0111101C080E0DF91CF912E
:100E20001F910F910895AF92BF92DF92EF92FF92C0
:100E30000F931F93CF93DF9300D0CDB7DEB75C0144
:100E4000F62EE42E29837A830E94940660E4C5017D
:100E50000E94BA06C5010E949D06C5010E94940623
:100E60002981622F63706054C5010E94BA06DF2C8D
:100E70000F2D7A81172F802F8D198E1538F4F801D8
:100E800061918F01C5010E94BA06F5CFC5010E948C
:100E90009D06C5010E949406F50162816058C50156
:100EA0000E94BA06C5010F900F90DF91CF911F915C
:100EB0000F91FF90EF90DF90BF90AF900C949D0644
:100EC0004F925F926F927F928F929F92AF92BF925A
:100ED000CF92DF92EF920F931F93CF93DF9300D0C7
:100EE00000D0CDB7DEB73C015B01322F202F84E765
:100EF000882E81E0982ECE0101966C01FC0101E064
:100F00001FE3D4015E904E904D01C501B2010E94D5
:100F1000471D6115710561F4411106C0002321F0E0
:100F20008E2F8C19833011F4108313C0108211C0DE
:100F3000A62FAF70B0E0AC58BE4F8C918083649DFB
:100F4000C001659D900D749D900D1124A81AB90AD9
:100F500000E0EE2039F08E2F8C19813019F4808159
:100F6000806880833196BCE68B16B1E09B0649F61B
:100F700064E070E0631B71096C0D7D1D432FC3019C
:100F80000E9413070F900F900F900F90DF91CF9159
:100F90001F910F91EF90DF90CF90BF90AF909F90F7
:100FA0008F907F906F905F904F9008956F70E62FB5
:100FB000F0E0EC58FE4F80810895FC0181E09081C3
:100FC000911101C080E00895CF93DF93EC01862F4B
:100FD0006E834F83288791E09D8760E00E94E71829
:100FE00061E08E810E94201919861A861B861C8654
:100FF000DF91CF910895DF92EF92FF920F931F93AD
:10100000CF93DF93EC0161E08E810E9420196AEF9B
:1010100070E080E090E00E944F170E942017098541
:101020001A852B853C85601771078207930720F48A
:1010300019861A861B861C862D85211111C00985EB
:101040001A852B853C85DC01CB01801B910BA20B03
:10105000B30B803D9740A105B10510F481E071C04C
:101060001D860E94201769877A878B879C871C8240
:101070001B821A821982188261E08E810E94E71811
:1010800060E08E810E94201964E170E080E090E0D1
:101090000E944F17F89461E08E810E94201988E227
:1010A00090E00E94771760E08E810E94E718F12C93
:1010B000D12C81E0E12C082F10E08E810E9456197E
:1010C0008017910741F4E39481E090E00E94771744
:1010D0008FEFE812F2CF8E810E9456199FEFE9162A
:1010E000C9F023E02F1590F4F0FC10C09D2D9695CB
:1010F00096959695FE01E90FF11D9081990F9083C9
:1011000028852E1510F491609083D394F39495E57F
:10111000F912D0CF789427E22D1590F42C8130E08D
:101120004881898190E0840F911D4A81840F911D2F
:101130004B81840F911D99272817390709F48ECF09
:1011400080E0DF91CF911F910F91FF90EF90DF90A2
:101150000895CF92DF92EF92FF920F931F93CF9358
:10116000DF93EC01162F0E94FB07882309F450C07F
:101170008F818B3031F008F44BC08551823078F08C
:1011800047C06A8170E080E090E00E94561C112305
:1011900009F449C020E030E040E151E42AC00A816E
:1011A000602F6F7770E080E090E00E94581C20E094
:1011B00030E040E853E40E94E41C6B017C016B8149
:1011C00070E080E090E00E94581C9B01AC01C701D8
:1011D000B6010E94591B20E030E040E251E40E9439
:1011E000BD1B07FD9058112309F120E030E040E1DC
:1011F00051E40E94E41C20E030E040EA50E40E9408
:10120000BD1B20E030E040E052E40E94591B0EC0BC
:1012100064E871E08EE396E00E94551B20E030E028
:1012200040EC5FE705C09B01AC0102C09B01AC0133
:10123000B901CA01DF91CF911F910F91FF90EF90FB
:10124000DF90CF900895CF92DF92EF92FF92CF93ED
:10125000DF93EC010E94FB07882379F18F818B30AB
:1012600029F158F18551823040F5688170E080E0C5
:1012700090E00E94561C20E030E040E853E40E94D9
:10128000E41C6B017C01698170E080E090E00E94C9
:10129000581C9B01AC01C701B6010E94591B20E0FC
:1012A00030E040E251E40E94BD1B11C0688170E053
:1012B00080E090E00E94561C0AC064E871E08EE372
:1012C00096E00E94551B60E070E080EC9FE7DF91A4
:1012D000CF91FF90EF90DF90CF9008951F920F92E3
:1012E0000FB60F9211242F933F934F935F936F93F9
:1012F0007F938F939F93AF93BF93EF93FF93E0916F
:101300004604F09147040995FF91EF91BF91AF9189
:101310009F918F917F916F915F914F913F912F910D
:101320000F900FBE0F901F901895FC01A3E0440F83
:10133000551F661F771FAA95D1F74115510581E00A
:101340006807710514F481E00EC033E07595679568
:10135000579547953A95D1F74115510581E06807B2
:1013600071051CF482E0828331C023E07595679596
:10137000579547952A95D1F74115510581E06807A2
:10138000710514F483E0EFCF92E07595679557955A
:1013900047959A95D1F74115510581E06807710588
:1013A00014F484E0E0CF82E07595679557954795F2
:1013B0008A95D1F785E082834115510581E0680760
:1013C000710524F04FEF5FEF60E070E08FB783832B
:1013D000F894518340835093870040938600838123
:1013E0008FBF80918100887F8093810080918100F0
:1013F0009281892B8093810008951092800020E1D2
:10140000209381000C949509EFE6F0E080818E7FB7
:1014100080830895E1E8F0E02081DC0112968C9150
:10142000282B208308950F931F93CF93DF93EC0114
:101430008B01BA01A901141615061606170614F435
:101440000E9495091D830C8381E080936F00CE017B
:10145000DF91CF911F910F910C940A0A809199040A
:1014600090919A04019690939A0480939904089518
:101470000E9420176093B3047093B4048093B50462
:101480009093B60482E00E9456199093A204809330
:10149000A104892BA9F060E088E00E9420198091C6
:1014A000B3049091B404A091B504B091B6048093B4
:1014B000AF049093B004A093B104B093B20414C0ED
:1014C0008091B3049091B404A091B504B091B60496
:1014D0008093AB049093AC04A093AD04B093AE049E
:1014E00061E088E00E9420194091AF045091B0045F
:1014F0006091B1047091B2048091AB049091AC04FE
:10150000A091AD04B091AE0484179507A607B70764
:1015100040F5481B590B6A0B7B0B4093A704509373
:10152000A8046093A9047093AA048091BB049091CD
:10153000BC04A091BD04B091BE04840F951FA61FEA
:10154000B71F8093BB049093BC04A093BD04B093D9
:10155000BE041092AF041092B0041092B104109225
:10156000B204089564E070E08EE695E00E94BA143B
:1015700060E173E18EE695E00E94BC1469E473E1DA
:101580008EE695E00E94C11441E050E068E37AE005
:1015900080E00C944C16AF92BF92CF92DF92EF9204
:1015A000FF920F931F93CF93DF93CDB7DEB72897AA
:1015B0000FB6F894DEBF0FBECDBF8091FA049091B4
:1015C000FB04049709F010C281E090E09093F904C5
:1015D0008093F8048091FC049091FD048130910582
:1015E00039F48091FE040E9456198093F704FCC1DF
:1015F0008230910539F4609100058091FE040E94CB
:101600002019F2C183309105B1F48091FE040E944B
:1016100042189093C9048093C8049C0197FF02C0AC
:1016200021503F4F3093E30460E071E00E94471D7A
:101630008093E404D9C18430910549F46091000598
:10164000709101058091FE040E945F18CDC1853024
:10165000910539F4609100058091FE040E94E7181D
:10166000C3C18730910509F04AC08091C3049091AD
:10167000C404892B09F4B8C18091FE049091FF0441
:1016800080934A0490934B0461E00E94E71860E065
:1016900080914A040E94201982E090E00E9477170E
:1016A00061E080914A040E94201985E090E00E9448
:1016B000771760E080914A040E94201960E08091D1
:1016C0004A040E94E71820E533EC40E050E061E076
:1016D00080914A040E94BD172AE330E040E050E0C8
:1016E0000E947D1DCA01B90120E031E040E050E0D8
:1016F0000E947D1D2093CB046093CC0422C18830CE
:10170000910551F481E08093E30482E08093E40446
:1017100086E08093E50468C18832910509F05EC0D7
:101720008091C3049091C404892B09F45DC1809118
:10173000000590910105009719F426E04BE00BC0DD
:101740008130910519F426E046E105C00297029721
:1017500040F426E045E16091FE0480E695E00E94B9
:10176000E40760E080E695E00E94A9086D837E832F
:101770008F83988780E695E00E94230969837A83A6
:101780008B839C831092490410924804FE01359685
:1017900080E090E001962191DC01A353BB4F2C9394
:1017A00084309105BCF384E090E0909349048093E9
:1017B00048040196DC01A353BB4FE1E0F0E0EC0FDD
:1017C000FD1FE80FF91F359720812C938830910574
:1017D00084F39093490480934804B3C08233910505
:1017E000D9F44091FE045091FF0421E0809100055E
:1017F00090910105892B09F420E061E0640FFA0162
:10180000329737E03E9FC0013F9F900D11248A5CC4
:101810009A4F0E94E804E8C0C39709F097C020914E
:10182000FE043091FF042250310947E0429FC0017D
:10183000439F900D11248A5C9A4F0E94DD0581110F
:10184000B7C184C08734910509F45FC28091FC045C
:101850009091FD048834910509F47BC28091FC04C9
:101860009091FD048934910589F42091FE04309112
:10187000FF0422503109C901880F991F820F931F5D
:101880008C5D9A4F0E94DD078111B3C28091FC04E8
:101890009091FD048A34910509F487C28091FC047B
:1018A0009091FD048B34910509F4C1C28091FC0430
:1018B0009091FD048C34910509F4DDC28091FC0403
:1018C0009091FD048D34910589F42091FE043091AE
:1018D000FF0422503109C901880F991F820F931FFD
:1018E0008C5D9A4F0E94DD07811151C38091FC04E9
:1018F0009091FD048E34910509F432C38091FC046B
:101900009091FD048F34910509F474C38091FC0417
:101910009091FD048A35910509F097C38091C30425
:101920009091C404892B09F45FC08091FE048093D8
:10193000C504809100058093C604809102058093C0
:10194000C7041092C4041092C3044EC08091FC04DA
:101950009091FD04C49709F406C18091FC04909114
:10196000FD04C59791F42091FE043091FF042250AC
:10197000310947E0429FC001439F900D11248A5CCA
:101980009A4F0E94DD0581112CC18091FC04909139
:10199000FD04C69709F440C18091FC049091FD04B8
:1019A000C79709F45EC18091FC049091FD04C8972B
:1019B00009F484C18091FC049091FD048634910562
:1019C00009F040CF6091FE047091FF0441E0460FA2
:1019D0009B0122503109C901880F991F820F931F63
:1019E0008C5D9A4F0E9475068091A5049091A60483
:1019F000892BD9F10E9420170091BF041091C004D7
:101A00002091C1043091C204601B710B820B930BB7
:101A1000613375478105910540F181E090E0909335
:101A2000A4048093A3048091BB049091BC04A09172
:101A3000BD04B091BE048093B7049093B804A09302
:101A4000B904B093BA041092BB041092BC04109273
:101A5000BD041092BE040E9420176093BF047093CF
:101A6000C0048093C1049093C20480919B04909120
:101A70009C04892B39F18091E301813019F5209183
:101A8000E20180919F049091A004213049F40196D5
:101A90008931910554F01092A00410929F0409C05E
:101AA000019797FF02C088E190E09093A004809393
:101AB0009F0481E080939D0480919F0480939E0405
:101AC0001092E3018091950490919604892B09F47A
:101AD00096C50E94201700919104109192042091C4
:101AE000930430919404601B710B820B930B613D46
:101AF00077408105910508F482C5209199043091C1
:101B00009A044EE1429FC001439F900D112469E465
:101B100070E00E94471DE62F472F60939704709353
:101B2000980481E080938E04862F972F60E071E007
:101B30000E94471D80938F042E2F342F37FF02C041
:101B400021503F4F3093900410929A0410929904C0
:101B50000E942017609391047093920480939304E1
:101B6000909394044CC52091FE043091FF042250C0
:101B7000310917E0129FC001139F900D11248A5C58
:101B80009A4F0E94DD05882309F4E7CE2091FE04D8
:101B90003091FF0422503109129FC001139F900D14
:101BA0001124609100058A5C9A4F0E948D051CCF1C
:101BB00061E08091000590910105892B09F460E0B6
:101BC0002091FE043091FF042250310947E0429FEA
:101BD000C001439F900D11248A5C9A4F0E94870593
:101BE00003CF41E08091020590910305892B09F410
:101BF00040E02091FE043091FF042250310957E06B
:101C0000529FC001539F900D1124609100058A5C82
:101C10009A4F0E949F05E8CE2091FE043091FF0468
:101C20002250310917E0129FC001139F900D11241B
:101C30008A5C9A4F0E94DD05882309F4ADCE20917D
:101C4000FE043091FF0422503109129FC001139FFE
:101C5000900D1124609100058A5C9A4F0E94C00586
:101C6000C3CE2091FE043091FF042250310917E0C9
:101C7000129FC001139F900D11248A5C9A4F0E94FD
:101C8000DD05882309F48FCE80E090E09091020575
:101C90006091000570910105682779272091FE0465
:101CA0003091FF0422503109129FC001139F900D03
:101CB00011248A5C9A4F0E943E0596CE2091FE0424
:101CC0003091FF042250310917E0129FC001139F89
:101CD000900D11248A5C9A4F0E94DD05882309F437
:101CE00069CE2091FE043091FF0422503109129FE9
:101CF000C001139F900D11248A5C9A4F0E94D90550
:101D00008093E3049093E4046FCE2091FE0430911D
:101D1000FF0422503109C901880F991F820F931FB8
:101D20008C5D9A4F0E94DD07882309F48FCD2091A6
:101D3000FE043091FF0422503109C901880F991F18
:101D4000820F931F609100058C5D9A4F0E948C0654
:101D50004BCE2091FE043091FF0422503109C9017D
:101D6000880F991F820F931F8C5D9A4F0E94DD0789
:101D7000882309F473CD80E090E090910205609192
:101D8000000570910105682779272091FE043091A4
:101D9000FF0422503109C901880F991F820F931F38
:101DA000E12C00E024E040E03DC02091FE043091B1
:101DB000FF0422503109C901880F991F820F931F18
:101DC0008C5D9A4F0E94DD07882309F467CD20912E
:101DD000FE043091FF0422503109C901880F991F78
:101DE000820F931F609102058C5D9A4F0E94D60767
:101DF00032C080E090E09091020560910005709102
:101E00000105682779272091FE043091FF042250B4
:101E10003109C901880F991F820F931FE12C00E03F
:101E200024E041E08C5D9A4F0E946007DDCD209157
:101E3000FE043091FF0422503109C901880F991F17
:101E4000820F931F8C5D9A4F0E94DD07882309F44F
:101E50002DCD8091020589832091FE043091FF04ED
:101E600022503109C901880F991F820F931F2091B9
:101E7000000541E0E2C02091FE043091FF042250B1
:101E80003109C901880F991F820F931F8C5D9A4FEA
:101E90000E94DD07882309F411CD809100059091FF
:101EA00001050AE010E0B8010E94471D2091FE04E0
:101EB0003091FF0422503109C901880F991F820F08
:101EC000931F8C5D9A4F0E94D607898380910005ED
:101ED00090910105B8010E94471D2091FE043091A8
:101EE000FF0422503109A901440F551F420F531F0F
:101EF000682FCA018C5D9A4F0E94D60780688A833A
:101F00008091020590910305B8010E94471D209120
:101F1000FE043091FF0422503109C901880F991F36
:101F2000820F931F8C5D9A4F0E94D6078B838091FE
:101F3000020590910305B8010E94471D2091FE04FF
:101F40003091FF0422503109A901440F551F420F5F
:101F5000531F682FCA018C5D9A4F0E94D60748C054
:101F60002091FE043091FF0422503109C901880FED
:101F7000991F820F931F8C5D9A4F0E94DD07882363
:101F800009F4BCCC8FEF89838A838B8331C0109195
:101F90000005A0900205B0900305AA0CBB1CAA0C7A
:101FA000BB1CC12CD12CCA14DB040CF01DCD812F1D
:101FB0000E944218BC012091FE043091FF0422507F
:101FC0003109C901880F991F820F931FE12C00E08E
:101FD00024E040E08C5D9A4F0E9460076AEF70E059
:101FE00080E090E00E944F172FEFC21AD20ADBCF99
:101FF0008C8316C02091FE043091FF0422503109D9
:10200000C901880F991F820F931F8C5D9A4F0E9400
:10201000DD07882309F47ACC19821A821B821C827C
:102020002091FE043091FF0422503109C901880F2C
:10203000991F820F931F20E044E0BE016F5F7F4F26
:102040008C5D9A4F0E941307CFCC8B359105E9F434
:102050008091C3049091C404892B09F4C5CC60918C
:10206000FE047091FF0441E0460F9B0122503109AC
:1020700055E0529FC001539F900D112420910005FF
:102080008A5F9A4F0E94B8045CCC8C35910509F0A8
:102090004BC08091C3049091C404892B09F4A4CC53
:1020A0006091FE047091FF0441E0460F9B012250B5
:1020B000310955E0529FC001539F900D112420918A
:1020C00000058A5F9A4F0E94B8041091020512FB26
:1020D000DD24D0F8D19411FBCC24C0F8C194117048
:1020E0001195E12CF12CE5E0BE2E80910005909138
:1020F0000105E816F9060CF024CC6091FE047091FD
:10210000FF0462507109B69EC001B79E900D112464
:10211000012F2C2D4D2D6E2D8A5F9A4F0E944B045E
:102120003FEFE31AF30AE1CF8D35910509F07BC04B
:102130008091C3049091C404892B09F455CC20915B
:102140000005309101058091FE049091FF04232B3E
:10215000B1F49C012250310945E0429FC001439FE8
:10216000900D11240091C7042091C6044091C5042C
:10217000609102058A5F9A4F0E944B04E2CB9C015A
:102180002250310945E0429FC001439F900D112428
:102190008A5F9A4F0E94E504E12CF12CC82ED12CC5
:1021A00015E0EC14FD040CF0CCCB2091000530912F
:1021B00001052130310541F480910205909103051C
:1021C000E816F906B1F42BC02230310541F48091B4
:1021D0000205909103058E159F055CF420C0233005
:1021E0003105E9F48091020590910305E816F9069E
:1021F000B4F02091FE043091FF0422503109129F67
:10220000C001139F900D11240091C7042091C604B2
:102210004091C5046E2D8A5F9A4F0E944B044FEF88
:10222000E41AF40ABECF8E35910509F059C08091A9
:10223000C3049091C404892B09F4D6CB8091020584
:10224000909103051816190634F081E090E0909300
:102250000305809302052091FE043091FF04225073
:10226000310945E0429FC001439F900D11248A5FD0
:102270009A4F0E94E504E0900005F0900105C82EF9
:10228000D12C15E0EC14FD040CF05BCB8091000523
:10229000909101059701281B390BC9016091020536
:1022A000709103050E94471D892BB1F42091FE0413
:1022B0003091FF0422503109129FC001139F900DED
:1022C00011240091C7042091C6044091C5046E2DCD
:1022D0008A5F9A4F0E944B043FEFE31AF30AD2CF72
:1022E0008F35910509F08BC08091C3049091C4048F
:1022F000892B09F479CB2091FE043091FF04225000
:10230000310945E0429FC001439F900D11248A5F2F
:102310009A4F0E94E504182F8091020590910305C1
:10232000C12ED12CE12CF12C892B99F515E0EC1460
:10233000FD040CF006CB2091000530910105809141
:10234000FE049091FF04E216F3067CF49C012250F7
:102350003109129FC001139F900D11240091C704F1
:102360002091C6044091C5040BC09C012250310944
:10237000129FC001139F900D112400E020E040E067
:102380006E2D8A5F9A4F0E944B044FEFE41AF40AB5
:10239000CECF75E0B72E96012E193F0909F4D1CAA8
:1023A0008091000590910105A601481B590BCA01B7
:1023B0004091FE045091FF04612F6E194250510963
:1023C0002817390764F0B49EC001B59E900D112402
:1023D0000091C7042091C6044091C50408C0B49E72
:1023E000C001B59E900D112400E020E040E08A5F1E
:1023F0009A4F0E944B045FEFE51AF50ACCCF8E305E
:102400009105C1F441E050E068E37AE080E00E9489
:102410004C1681E090E09093A6048093A5040E945E
:1024200020176093BF047093C0048093C1049093FD
:10243000C2047BC08F30910541F480E00E946C168D
:102440001092A6041092A50470C08A30910531F54F
:102450008091C3049091C404019709F0C5CA80918A
:10246000A3048093E2048091B7049091B804A091F2
:10247000B904B091BA048093E304492F5A2F6B2F0B
:1024800077274093B7045093B8046093B9047093CE
:10249000BA044093E404A093E50453CA8031910543
:1024A00059F482EE91E00E94850381E090E09093E0
:1024B0009C0480939B0439C08131910549F482EEDC
:1024C00091E00E94980310929C0410929B048CCA85
:1024D0008231910501F560E082E00E94E71843E057
:1024E00050E06EE27AE080E00E944C1610929A046E
:1024F000109299040E9420176093910470939204A3
:10250000809393049093940481E090E090939604D8
:10251000809395040AC08D30910561F41092960461
:102520001092950480E00E946C161092FD041092A7
:10253000FC045ACA84369105D1F58091C304909168
:10254000C404019709F050CA8091FE049091FF04E1
:102550008130910549F4809100050E94AD0080ED25
:1025600097E00E945301EDC98230910579F4809182
:10257000000590910105813491051CF480934D0470
:1025800002C010924D0410924C04DBC9039709F06D
:10259000D8C960914D04662309F4D3C980914C04D5
:1025A0006813CFC98EE494E00E944A02CAC98536F6
:1025B000910509F019CA8091C3049091C404019750
:1025C00009F012CA80914C0490914D04891708F0CB
:1025D000B8C9EEEFF4E08F5F20813296A82FB0E00B
:1025E000A35BBB4F2C9325E0E430F20719F48093F2
:1025F0004C04A7C98913EFCF90934C04A2C9289625
:102600000FB6F894DEBF0FBECDBFDF91CF911F9103
:102610000F91FF90EF90DF90CF90BF90AF90089513
:102620000F931F93CF93DF9301E010E08EE695E0C8
:102630000E94D713892B41F18EE695E00E94D713B3
:10264000049761F41092F9041092F8041092FB04BC
:102650001092FA041093C4040093C304C091FA04C6
:10266000D091FB04CE0101969093FB048093FA0471
:102670008EE695E00E94DF13FE01EE0FFF1FE4508F
:10268000FB4F91838083D2CFDF91CF911F910F9128
:1026900008958091FC049091FD04019731F46091BC
:1026A000F7048EE695E00E945E148091FC04909100
:1026B000FD048330910511F0C89741F443E050E0E8
:1026C00062EE74E08EE695E00E9431148091FC0485
:1026D0009091FD04079761F443E050E06AEC74E0E8
:1026E0008EE695E00E9431141092FD041092FC04D5
:1026F0008091FC049091FD04089741F444E050E07F
:1027000062EE74E08EE695E00E9431148091FC0444
:102710009091FD04889761F449E050E06DEC74E01D
:102720008EE695E00E9431141092FD041092FC0494
:102730008091FC049091FD040A9781F444E050E0FC
:1027400062EE74E08EE695E00E9431141092A404CB
:102750001092A3041092FD041092FC048091FC04DA
:102760009091FD040B9771F442E050E06DE974E044
:102770008EE695E00E94311410929D041092FD04A3
:102780001092FC048091FC049091FD040C9771F46C
:1027900043E050E06EE874E08EE695E00E9431146C
:1027A00010928E041092FD041092FC040895809102
:1027B000A10590E02091A205821B91090895209126
:1027C000A2058091A105281750F4E22FF0E0ED5505
:1027D000FA4F808190E02F5F2093A20508958FEF3C
:1027E0009FEF0895E091A2058091A105E81730F4CC
:1027F000F0E0ED55FA4F808190E008958FEF9FEF64
:1028000008950895E0917A05F0917B053097E1F005
:102810003091A2052091A1053217B0F040E0242F9D
:1028200030E02617370754F4DC01A20FB31F5C9188
:10283000D901AD55BA4F5C934F5FF1CF1092A2050D
:102840006093A105CB0109940895E0917C05F09176
:102850007D05309729F01092800510927F0509942C
:102860000895CF92DF92EF92FF920F931F93CF9331
:10287000DF937C01CB018A0120917E05222389F020
:10288000EB016B01C40ED51ECC15DD0569F0699115
:10289000D701ED91FC910190F081E02DC7010995E0
:1028A000F3CF642F0E94EC14C801DF91CF911F91E8
:1028B0000F91FF90EF90DF90CF900895CF93DF932B
:1028C0001F92CDB7DEB7698320917E052223D1F018
:1028D00020917F05203240F021E030E0FC0133837D
:1028E000228380E090E015C080918005E82FF0E021
:1028F000EF57FA4F998190838F5F80938005809383
:102900007F0505C061E0CE0101960E94EC1481E0D4
:1029100090E00F90DF91CF910895FC011382128215
:1029200048EE53E060E070E044835583668377832C
:1029300082E991E09183808308951092A20510921C
:10294000A1051092800510927F050C94CA14CF93B4
:10295000DF93EC01862F0E94E81485E294E10E9447
:102960000A1582E094E10E940515CE01DF91CF9116
:102970000C949D140C94A71470937B0560937A05B6
:10298000089570937D0560937C0508958EE695E02B
:102990000C948D141092300681E080932E061092D4
:1029A0002D0661E082E10E94201961E083E10E942E
:1029B0002019E9EBF0E080818E7F808380818D7F1C
:1029C000808388E48093B80085E48093BC000895F8
:1029D000880F8093BA000895613298F420913006F0
:1029E000243089F46093E505FC0187EE95E0DC0175
:1029F0002A2F281B261718F421912D93F9CF80E058
:102A0000089581E0089582E0089590932A068093C6
:102A10002906089590932C0680932B06089585ED42
:102A20008093BC008091BC0084FDFCCF10923006E6
:102A3000089585EC8093BC001092300608951F9293
:102A40000F920FB60F9211242F933F934F935F93E2
:102A50006F937F938F939F93AF93BF93EF93FF9366
:102A60008091B900887F803609F49CC068F588326F
:102A700009F45BC090F4803109F454C038F4882321
:102A800009F4F5C0883009F44DC0F5C0883109F467
:102A90004CC0803209F45DC0EEC0803409F468C0D7
:102AA00048F4803309F455C0883309F0E4C08093BA
:102AB000C305A8C0803509F44FC0883509F45DC04E
:102AC000883409F0D8C0D5C0883909F4C6C0A8F444
:102AD000883709F467C038F4883609F463C0803752
:102AE00009F460C0C8C0883809F4B7C0803909F457
:102AF0005FC0803809F0BFC05BC0803B09F485C06F
:102B000038F4803A09F466C0883A09F47EC0B3C04C
:102B1000803C09F4A6C0883C09F4A3C0883B09F4B2
:102B200089C0A9C080912F0610C09091080680919D
:102B30000706981770F5E091080681E08E0F8093E4
:102B40000806F0E0E75FF94F80818093BB0085ECD9
:102B500085C08093C3058DC0E091080681E08E0F8B
:102B6000809308068091BB00F0E0E75FF94F808317
:102B700090910806809107066DC0E091080681E0FB
:102B80008E0F809308068091BB00F0E0E75FF94F5D
:102B9000808380912E0681116CC081E080932D0688
:102BA00084EA60C083E0809330061092C405CFCFE2
:102BB0008091C405803208F050C0E091C40581E0E6
:102BC0008E0F8093C4058091BB00F0E0EB53FA4F69
:102BD0008083BDCF8091C405803230F4E091C4057C
:102BE000F0E0EB53FA4F10820E940F156091C4057C
:102BF00070E0E0912906F0912A0685EC95E00995B0
:102C00001092C4050E94191536C084E080933006E6
:102C10001092E6051092E505E0912B06F0912C0646
:102C200009958091E505811105C081E08093E50556
:102C30001092E705E091E60581E08E0F8093E605AE
:102C4000F0E0E951FA4F80818093BB009091E60556
:102C50008091E505981708F47ACF85E88093BC0049
:102C60000AC085EC8093BC001092300604C010921C
:102C7000C3050E940F15FF91EF91BF91AF919F91F6
:102C80008F917F916F915F914F913F912F910F9015
:102C90000FBE0F901F9018958230E8F4E82FF0E0F7
:102CA000EE0FFF1FEF5CF94F71836083813041F0BD
:102CB000809169008C7F842B80936900E89A089545
:102CC00080916900440F551F440F551F837F842B4B
:102CD00080936900E99A0895823068F4813011F098
:102CE000E89801C0E998E82FF0E0EE0FFF1FEF5CD5
:102CF000F94F1182108208951F920F920FB60F9212
:102D000011242F933F934F935F936F937F938F93F0
:102D10009F93AF93BF93EF93FF9380913106909170
:102D20003206892B29F0E0913106F091320609959F
:102D3000FF91EF91BF91AF919F918F917F916F9193
:102D40005F914F913F912F910F900FBE0F901F9069
:102D500018951F920F920FB60F9211242F933F9345
:102D60004F935F936F937F938F939F93AF93BF9393
:102D7000EF93FF938091330690913406892B29F0CD
:102D8000E0913306F09134060995FF91EF91BF91E0
:102D9000AF919F918F917F916F915F914F913F91F3
:102DA0002F910F900FBE0F901F9018951F920F92AA
:102DB0000FB60F9211242F933F938F939F93AF934E
:102DC000BF938091360690913706A0913806B09156
:102DD00039063091350623E0230F2D3720F4019674
:102DE000A11DB11D05C026E8230F0296A11DB11D2E
:102DF000209335068093360690933706A0933806C5
:102E0000B093390680913A0690913B06A0913C061A
:102E1000B0913D060196A11DB11D80933A06909395
:102E20003B06A0933C06B0933D06BF91AF919F91A6
:102E30008F913F912F910F900FBE0F901F9018957B
:102E40002FB7F89460913606709137068091380656
:102E5000909139062FBF08953FB7F89480913A06B4
:102E600090913B06A0913C06B0913D0626B5A89BEB
:102E700005C02F3F19F00196A11DB11D3FBF662768
:102E8000782F892F9A2F620F711D811D911D42E0AD
:102E9000660F771F881F991F4A95D1F70895CF9223
:102EA000DF92EF92FF92CF93DF936B017C010E9440
:102EB0002C17EB01C114D104E104F10489F00E9444
:102EC000571B0E942C176C1B7D0B683E734090F3C0
:102ED00081E0C81AD108E108F108C851DC4FEACFF7
:102EE000DF91CF91FF90EF90DF90CF900895019701
:102EF000009739F0880F991F880F991F0297019743
:102F0000F1F70895789484B5826084BD84B58160BA
:102F100084BD85B5826085BD85B5816085BDEEE6E1
:102F2000F0E0808181608083E1E8F0E010828081C0
:102F300082608083808181608083E0E8F0E080812E
:102F400081608083E1EBF0E0808184608083E0EB4E
:102F5000F0E0808181608083EAE7F0E08081846036
:102F60008083808182608083808181608083808192
:102F7000806880831092C1000895CF92DF92EF9213
:102F8000FF920F931F93CF93DF9390E0FC01E458DF
:102F9000FF4FD491FC01E057FF4F7491611102C0C3
:102FA000C0E001C0CD2FDA01C901BF70672F70E00A
:102FB000660F771F6C557F4F00E010E09801FB0112
:102FC000E590F490F70140814D234C131EC0680139
:102FD00079014FEFC41AD40AE40AF40A0817190752
:102FE0002A073B0709F442C097018601E8CF680130
:102FF0007901FFEFCF1ADF0AEF0AFF0A0817190756
:103000002A073B0799F197018601FB01E590F490AF
:10301000F70140814D234C13EACF801B910BA20B8B
:10302000B30B20E030E0A901FB01E590F490F7013B
:10303000F080FD22FC120AC0281739074A075B07F7
:10304000A9F02F5F3F4F4F4F5F4FEECFA8E1B0E0A9
:103050000E949C1D605F7F4F8F4F9F4F24E096958D
:103060008795779567952A95D1F703C060E070E062
:10307000CB01DF91CF911F910F91FF90EF90DF90E7
:10308000CF9008958E3008F08E50877020914D01BA
:1030900090E4299F90011124822B80937C008091E1
:1030A0007A00806480937A0080917A0086FDFCCF5C
:1030B000809178002091790090E0922B08951F93E1
:1030C000CF93DF93182FEB0161E00E94E718209760
:1030D00011F460E004C0CF3FD10539F461E0812FE5
:1030E000DF91CF911F910C942019E12FF0E0E85966
:1030F000FF4FE491E330F9F048F4E130B9F0E23009
:10310000A1F584B5806284BDC8BD34C0E730E9F064
:10311000E83019F1E43049F58091800080628093B5
:103120008000D0938B00C0938A0024C084B580684F
:1031300084BDC7BD1FC080918000806880938000DF
:10314000D0938900C093880015C08091B00080683A
:103150008093B000C093B3000DC08091B000806236
:103160008093B000C093B40005C0C038D1050CF006
:10317000B5CFAFCFDF91CF911F910895833081F00C
:1031800028F4813099F08230A1F008958730A9F0B9
:103190008830B9F08430D1F4809180008F7D03C0F5
:1031A000809180008F7780938000089584B58F7719
:1031B00002C084B58F7D84BD08958091B0008F7763
:1031C00003C08091B0008F7D8093B0000895CF93AD
:1031D000DF9390E0FC01E458FF4F2491FC01E0579D
:1031E000FF4F8491882349F190E0880F991FFC01DB
:1031F000E854FF4FA591B49182559F4FFC01C591B2
:10320000D4919FB7611108C0F8948C9120958223C6
:103210008C93888182230AC0623051F4F8948C9197
:10322000322F309583238C938881822B888304C02E
:10323000F8948C91822B8C939FBFDF91CF9108954E
:103240000F931F93CF93DF931F92CDB7DEB7282F35
:1032500030E0F901E859FF4F8491F901E458FF4F3C
:103260001491F901E057FF4F04910023C9F088231E
:1032700021F069830E94BE186981E02FF0E0EE0F13
:10328000FF1FE255FF4FA591B4919FB7F8948C9121
:10329000611103C01095812301C0812B8C939FBFC6
:1032A0000F90DF91CF911F910F910895CF93DF93EE
:1032B000282F30E0F901E859FF4F8491F901E458D3
:1032C000FF4FD491F901E057FF4FC491CC2391F007
:1032D00081110E94BE18EC2FF0E0EE0FFF1FEC559D
:1032E000FF4FA591B4912C912D2381E090E021F422
:1032F00080E002C080E090E0DF91CF9108951F92BE
:103300000F920FB60F9211242F938F939F93EF93E9
:10331000FF93E0914E06F0914F068081E0915406B4
:10332000F091550682FD12C09081809157068F5F03
:103330008F7320915806821751F0E0915706F0E004
:10334000E25CF94F958F8093570601C08081FF9111
:10335000EF919F918F912F910F900FBE0F901F9023
:1033600018951F920F920FB60F9211242F933F932F
:103370004F935F936F937F938F939F93AF93BF937D
:10338000EF93FF938EE396E00E946F1AFF91EF9107
:10339000BF91AF919F918F917F916F915F914F916D
:1033A0003F912F910F900FBE0F901F9018958EE3B5
:1033B00096E00E94341A21E0892B09F420E0822F44
:1033C0000895109241061092400688EE93E0A0E026
:1033D000B0E08093420690934306A0934406B093D6
:1033E000450682EA91E090933F0680933E0685EC85
:1033F00090E090934B0680934A0684EC90E0909383
:103400004D0680934C0680EC90E090934F0680939D
:103410004E0681EC90E0909351068093500682EC2A
:1034200090E0909353068093520686EC90E0909340
:103430005506809354061092570610925806109223
:10344000590610925A06089508950E9482170E9404
:10345000241A0E94B20AC1E6DAE10E94CB0A209740
:10346000E1F30E94611AF9CFFC01818D228D90E079
:10347000805C9F4F821B91098F7399270895FC01EF
:10348000918D828D981731F0828DE80FF11D858D19
:1034900090E008958FEF9FEF0895FC01918D828D4C
:1034A000981761F0828DDF01A80FB11D5D968C9198
:1034B000928D9F5F9F73928F90E008958FEF9FEFA3
:1034C000089587ED99E1892B49F080E090E0892B00
:1034D00029F00E94D71981110C9400000895FC0175
:1034E000848DDF01A80FB11DA35ABF4F2C91848D8D
:1034F00090E001968F739927848FA689B7892C93C2
:10350000A089B1898C9180648C93938D848D98135C
:1035100006C00288F389E02D80818F7D8083089525
:10352000CF93DF93EC01888D8823C9F0EA89FB896A
:10353000808185FD05C0A889B9898C9186FD0FC061
:103540000FB607FCF5CF808185FFF2CFA889B98936
:103550008C9185FFEDCFCE010E946F1AE7CFDF91EE
:10356000CF910895CF92DF92FF920F931F93CF9345
:10357000DF931F92CDB7DEB76C01DC015B969C91A7
:103580005B975C968C915C97981307C05096ED9171
:10359000FC915197808185FD32C0F601038D10E0CA
:1035A0000F5F1F4F0F731127F02EF601848DF81255
:1035B00011C00FB607FCF9CFD6015096ED91FC91E2
:1035C0005197808185FFF1CFC60169830E946F1AF0
:1035D0006981EBCF838DE80FF11DE35AFF4F6083C4
:1035E000D6015B960C935B975296ED91FC915397A5
:1035F00080818062808381E058968C930DC0D601D3
:103600005696ED91FC91579760835096ED91FC9101
:10361000519780818064808381E090E00F90DF91FA
:10362000CF911F910F91FF90DF90CF900895CF928F
:10363000DF92EF92FF920F931F93CF93DF936C0172
:103640007A01EB01E60EF71E00E010E0CE15DF0573
:1036500061F06991D601ED91FC910190F081E02D2E
:10366000C6010995080F191FF1CFC801DF91CF914D
:103670001F910F91FF90EF90DF90CF90089561150B
:10368000710581F0DB010D900020E9F7AD0141509B
:103690005109461B570BDC01ED91FC910280F3812F
:1036A000E02D099480E090E008950C943F1B08956C
:1036B0005058BB27AA270ED04DC13ED130F043D180
:1036C00020F031F49F3F11F41EF433C10EF4E09565
:1036D000E7FB29C1E92F4FD180F3BA1762077307BF
:1036E0008407950718F071F49EF567C10EF4E09514
:1036F0000B2EBA2FA02D0B01B90190010C01CA01AC
:10370000A0011124FF27591B99F0593F50F4503E56
:1037100068F11A16F040A22F232F342F4427585F48
:10372000F3CF469537952795A795F0405395C9F760
:103730007EF41F16BA0B620B730B840BBAF0915018
:10374000A1F0FF0FBB1F661F771F881FC2F70EC0B7
:10375000BA0F621F731F841F48F48795779567958A
:10376000B795F7959E3F08F0B3CF9395880F08F073
:103770009927EE0F9795879508950CD0EBC0E3D06D
:1037800040F0DAD030F021F45F3F19F0CCC0511195
:1037900015C1CFC0F0D098F39923C9F35523B1F3E5
:1037A000951B550BBB27AA2762177307840738F0B0
:1037B0009F5F5F4F220F331F441FAA1FA9F333D00F
:1037C0000E2E3AF0E0E830D091505040E695001CC3
:1037D000CAF729D0FE2F27D0660F771F881FBB1F7F
:1037E000261737074807AB07B0E809F0BB0B802D59
:1037F000BF01FF2793585F4F2AF09E3F510568F0A5
:1038000092C0DCC05F3FECF3983EDCF38695779581
:103810006795B795F7959F5FC9F7880F911D9695A6
:10382000879597F90895E1E0660F771F881FBB1F02
:10383000621773078407BA0720F0621B730B840BAF
:10384000BA0BEE1F88F7E095089504D06894B11183
:10385000B5C0089598D088F09F5790F0B92F992758
:10386000B751A0F0D1F0660F771F881F991F1AF08B
:10387000BA95C9F712C0B13081F09FD0B1E0089578
:103880009CC0672F782F8827B85F39F0B93FCCF3F9
:10389000869577956795B395D9F73EF49095809581
:1038A000709561957F4F8F4F9F4F0895E89409C0A1
:1038B00097FB3EF490958095709561957F4F8F4F63
:1038C0009F4F9923A9F0F92F96E9BB279395F69579
:1038D000879577956795B795F111F8CFFAF4BB0FF7
:1038E00011F460FF1BC06F5F7F4F8F4F9F4F16C05B
:1038F000882311F096E911C0772321F09EE8872FE5
:10390000762F05C0662371F096E8862F70E060E0A0
:103910002AF09A95660F771F881FDAF7880F969519
:10392000879597F9089597F99F6780E870E060E0C0
:1039300008959FEF80EC089500240A941616170648
:1039400018060906089500240A9412161306140690
:1039500005060895092E0394000C11F4882352F0F3
:10396000BB0F40F4BF2B11F460FF04C06F5F7F4FAB
:103970008F4F9F4F089557FD9058440F551F59F092
:103980005F3F71F04795880F97FB991F61F09F3F4C
:1039900079F087950895121613061406551FF2CF75
:1039A0004695F1DF08C0161617061806991FF1CFC5
:1039B00086957105610508940895E894BB276627EC
:1039C0007727CB0197F908950BD0C4CFB5DF28F046
:1039D000BADF18F0952309F0A6CFABCF1124EECFB4
:1039E000CADFA0F3959FD1F3950F50E0551F629F5A
:1039F000F001729FBB27F00DB11D639FAA27F00D48
:103A0000B11DAA1F649F6627B00DA11D661F829F6E
:103A10002227B00DA11D621F739FB00DA11D621F53
:103A2000839FA00D611D221F749F3327A00D611D70
:103A3000231F849F600D211D822F762F6A2F112452
:103A40009F5750408AF0E1F088234AF0EE0FFF1FA5
:103A5000BB1F661F771F881F91505040A9F79E3FDC
:103A6000510570F060CFAACF5F3FECF3983EDCF3D6
:103A7000869577956795B795F795E7959F5FC1F719
:103A8000FE2B880F911D9695879597F9089597FBC2
:103A9000072E16F4009407D077FD09D00E94A71DC9
:103AA00007FC05D03EF4909581959F4F0895709541
:103AB00061957F4F0895A1E21A2EAA1BBB1BFD0141
:103AC0000DC0AA1FBB1FEE1FFF1FA217B307E407FD
:103AD000F50720F0A21BB30BE40BF50B661F771F55
:103AE000881F991F1A9469F7609570958095909535
:103AF0009B01AC01BD01CF010895052E97FB1EF47B
:103B000000940E94941D57FD07D00E945B1D07FC86
:103B100003D04EF40C94941D50954095309521950A
:103B20003F4F4F4F5F4F08959095809570956195E9
:103B30007F4F8F4F9F4F08950E94C11DA59F900DED
:103B4000B49F900DA49F800D911D11240895AA1B70
:103B5000BB1B51E107C0AA1FBB1FA617B70710F078
:103B6000A61BB70B881F991F5A95A9F780959095AA
:103B7000BC01CD010895EE0FFF1F0590F491E02DDB
:103B80000994A29FB001B39FC001A39F700D811D36
:103B90001124911DB29F700D811D1124911D089556
:103BA0000F931F93CF93DF93869F8001879F100D04
:103BB000969F100D1124C8010E94EC1DEC01009786
:103BC00029F0A80160E070E00E94131FCE01DF9190
:103BD000CF911F910F910895CF93DF93823091057C
:103BE00010F482E090E0E091DD06F091DE0620E046
:103BF00030E0A0E0B0E0309739F1408151814817C2
:103C00005907B8F04817590771F4828193811097CA
:103C100029F013969C938E9312972CC09093DE06F6
:103C20008093DD0627C02115310531F04217530777
:103C300018F0A901DB0101C0EF019A01BD01DF010C
:103C40000280F381E02DD7CF21153105F9F0281B33
:103C5000390B2430310580F48A819B81611571050F
:103C600021F0FB019383828304C09093DE0680934E
:103C7000DD06FE01329644C0FE01E20FF31F819380
:103C8000919322503109398328833AC02091DB0671
:103C90003091DC06232B41F4209102013091030185
:103CA0003093DC062093DB06209100013091010166
:103CB0002115310541F42DB73EB7409104015091D3
:103CC0000501241B350BE091DB06F091DC06E217C1
:103CD000F307A0F42E1B3F0B2817390778F0AC012F
:103CE0004E5F5F4F2417350748F04E0F5F1F50930C
:103CF000DC064093DB068193919302C0E0E0F0E0A4
:103D0000CF01DF91CF910895CF93DF93009709F40E
:103D100087C0FC01329713821282C091DD06D091D8
:103D2000DE06209781F420813181280F391F809190
:103D3000DB069091DC068217930779F5F093DC0699
:103D4000E093DB066DC0DE0120E030E0AE17BF0778
:103D500050F412964D915C9113979D0141155105B8
:103D600009F1DA01F3CFB383A28340815181840F3B
:103D7000951F8A179B0771F48D919C911197840F61
:103D8000951F02969183808312968D919C91139733
:103D9000938382832115310529F4F093DE06E093A5
:103DA000DD063EC0D9011396FC93EE9312974D9118
:103DB0005D91A40FB51FEA17FB0779F4808191810B
:103DC000840F951F0296D90111969C938E93828140
:103DD000938113969C938E931297E0E0F0E08A8192
:103DE0009B81009719F0FE01EC01F9CFCE010296FC
:103DF00028813981820F931F2091DB063091DC06E8
:103E00002817390769F4309729F41092DE061092CA
:103E1000DD0602C013821282D093DC06C093DB065B
:103E2000DF91CF910895DC0101C06D934150504066
:083E3000E0F70895F894FFCFBC
:103E38000000DF0620000C0B0A2A2A2A2A2A2A3820
:103E48002C0000000000000000000000000000003E
:103E5800000000000000000000000000000000005A
:103E6800000000000000000000000000000000004A
:103E78000000000000000000000000000001000039
:103E880001000800400000010004050D0D0E131587
:103E980016191A1C232526292A2C323401000A0057
:103EA8006400E8033F065B4F666D7D077F6F777C94
:103EB800395E797152656164206661696C00000041
:103EC80000005E143114D713DF13F213011400003D
:0E3ED8000000B21A171B341A4D1A3F1A901A26
:00000001FF
