:100000000C9464000C9456170C9483170C948C0079
:100010000C948C000C9414040C948C000C94230FFE
:100020000C948C000C948C000C948C000C948C0020
:100030000C948C000C94B9110C948C000C948C00D2
:100040000C94B0170C948C000C94001A0C94321A77
:100050000C948C000C948C000C948C000C948C00F0
:100060000C94F9150C948C000000000800020100AB
:100070000003040700000000000000000102040863
:100080001020408001020408102001020408102002
:10009000040404040404040402020202020203032E
:1000A00003030303000000002300260029000000D2
:1000B0000000250028002B0000000000240027007D
:1000C0002A005D040915621A11241FBECFEFD8E083
:1000D000DEBFCDBF11E0A0E0B1E0E4EAFEE302C084
:1000E00005900D92AA34B107D9F726E0AAE4B1E051
:1000F00001C01D92AC32B207E1F710E0C8ECD0E0CD
:1001000004C02297FE010E94021EC23CD107C9F71B
:100110000E94A61A0C94501F0C940000CF92DF92FC
:10012000EF92FF920F931F93E82FF92F05C0015014
:1001300011092109310961F1908196239417B9F3CE
:1001400005C0015011092109310911F1908196234F
:100150009413F7CFC12CD12CE12CF12C0AC08FEFD6
:10016000C81AD80AE80AF80A0C151D052E053F051D
:1001700079F080818623841791F36C2D7D2D8E2D4F
:100180009F2D1F910F91FF90EF90DF90CF900895DA
:1001900060E070E080E090E01F910F91FF90EF90A1
:1001A000DF90CF900895CF93DF93EC0160E08881DA
:1001B0000E94751984E190E00E94511861E08881E5
:1001C0000E94751984E190E0DF91CF910C94511851
:1001D0000F931F93CF93DF93EC01062F18E007FFD7
:1001E00002C061E001C060E089810E947519CE0102
:1001F0000E94D300000F115091F7DF91CF911F9112
:100200000F910895EF92FF921F93CF93DF9300D049
:10021000CDB7DEB77C01162F27FF02C060EC01C00E
:1002200060EE26FF606147FF686046FF646017FF6D
:10023000626016FF6160C70129834A830E94E8005B
:100240002981622FC7010E94E8004A81642FC701FB
:100250000E94E800612FC7010F900F90DF91CF91AE
:100260001F91FF90EF900C94E8007F928F929F92E5
:10027000AF92BF92CF92DF92EF92FF920F931F93B4
:10028000CF93DF93EC01162F942E822E60E00E9414
:10029000E80060E0CE010E94E80060E0CE010E942C
:1002A000E80060E0CE010E94E80083E0189F700142
:1002B000112467018FEFC81AD80A570182E0A80EEF
:1002C000B11C712C8A81781600F571120FC0EB8178
:1002D000FC81EE0DFF1D9082EB81FC81EC0DFD1D7C
:1002E0008082EB81FC81EA0DFB1D0083EB81FC81A8
:1002F00083E0789EE00DF11D11242281418160810F
:10030000CE010E9402017394DDCF60E0CE010E9415
:10031000E80060E0CE010E94E80060E0CE010E94AB
:10032000E80060E0CE01DF91CF911F910F91FF9027
:10033000EF90DF90CF90BF90AF909F908F907F9085
:100340000C94E8000F931F93CF93DF93EC01862F5B
:10035000688349832A8361E00E943C1961E08981B6
:100360000E943C198A8161E070E023E0829FC00115
:1003700011240E94061E9C838B8310E08A8118172B
:1003800048F400E020E040E0612FCE010E943501FA
:100390001F5FF4CFDF91CF911F910F910895FC0162
:1003A00082810895CF93DF93EC01862F6E834F8374
:1003B000288791E09D8760E00E943C1961E08E8172
:1003C0000E94751919861A861B861C86DF91CF91AB
:1003D0000895DF92EF92FF920F931F93CF93DF93D5
:1003E000EC0161E08E810E9475196AEF70E080E097
:1003F00090E00E9429180E94FA1709851A852B851A
:100400003C85601771078207930720F419861A86C6
:100410001B861C862D85211111C009851A852B8507
:100420003C85DC01CB01801B910BA20BB30B803D03
:100430009740A105B10510F481E071C01D860E94AE
:10044000FA1769877A878B879C871C821B821A829E
:100450001982188261E08E810E943C1960E08E81D1
:100460000E94751964E170E080E090E00E94291814
:10047000F89461E08E810E94751988E290E00E94F4
:10048000511860E08E810E943C19F12CD12C81E042
:10049000E12C082F10E08E810E94AB198017910784
:1004A00041F4E39481E090E00E9451188FEFE8124C
:1004B000F2CF8E810E94AB199FEFE916C9F023E0BD
:1004C0002F1590F4F0FC10C09D2D9695969596955D
:1004D000FE01E90FF11D9081990F908328852E155B
:1004E00010F491609083D394F39495E5F912D0CFF2
:1004F000789427E22D1590F42C8130E04881898191
:1005000090E0840F911D4A81840F911D4B81840FCF
:10051000911D99272817390709F48ECF80E0DF91C4
:10052000CF911F910F91FF90EF90DF900895CF92A0
:10053000DF92EF92FF920F931F93CF93DF93EC0123
:10054000162F0E94E901882309F450C08F818B3057
:1005500031F008F44BC08551823078F047C06A8191
:1005600070E080E090E00E94A61C112309F449C0CD
:1005700020E030E040E151E42AC00A81602F6F772B
:1005800070E080E090E00E94A81C20E030E040E8AD
:1005900053E40E94341D6B017C016B8170E080E0AC
:1005A00090E00E94A81C9B01AC01C701B6010E940B
:1005B000DA1B20E030E040E251E40E943E1C07FDDF
:1005C0009058112309F120E030E040E151E40E940D
:1005D000341D20E030E040EA50E40E943E1C20E060
:1005E00030E040E052E40E94DA1B0EC067E071E0A8
:1005F0008BE895E00E94F31A20E030E040EC5FE7E2
:1006000005C09B01AC0102C09B01AC01B901CA014C
:10061000DF91CF911F910F91FF90EF90DF90CF90DE
:100620000895CF92DF92EF92FF92CF93DF93EC0188
:100630000E94E901882379F18F818B3029F158F1EB
:100640008551823040F5688170E080E090E00E9442
:10065000A61C20E030E040E853E40E94341D6B010A
:100660007C01698170E080E090E00E94A81C9B0101
:10067000AC01C701B6010E94DA1B20E030E040E285
:1006800051E40E943E1C11C0688170E080E090E05F
:100690000E94A61C0AC067E071E08BE895E00E940A
:1006A000F31A60E070E080EC9FE7DF91CF91FF905C
:1006B000EF90DF90CF9008958AEB94E00C94AE1405
:1006C000CF93DF93EC0168E670E08AEB94E00E9440
:1006D000E71460E08AEB94E00E946F148AEB94E0E8
:1006E0000E94FC1447E050E068E670E08AEB94E07A
:1006F0000E94DA148AEB94E00E94F013282F2695CA
:10070000269526952E70922F990F990F920F8F7024
:10071000980F98838AEB94E00E94F013982F92959B
:100720009F708F702AE0929F800D112489838AEB3D
:1007300094E00E94F013282F269526952695267082
:10074000922F990F990F920F8F70980F9A838AEBBF
:1007500094E00E94F013982F92959F708F702AE07A
:10076000929F800D11248B838AEB94E00E94F013FA
:10077000982F92959F708F702AE0929F800D112480
:100780008C838AEB94E00E94F013982F92959F70CF
:100790008F702AE0929F800D11248D838AEB94E064
:1007A0000E94F013982F92959F708F702AE0929F6D
:1007B000800D112490E09F838E83DF91CF91089567
:1007C000CF93DF9382E00E94AB19EC0183E00E949B
:1007D000AB198C239D23019719F481E080934C0180
:1007E000DF91CF91089584E0809368008BB381718D
:1007F0008BBB8CE080936D00089548EE53E060E081
:1008000070E084EB94E00E9448122FEF3FEFA901C3
:1008100060EE73E084EB94E00E945E127894089599
:1008200084EB94E00C944F121F920F920FB60F922C
:1008300011241F932F933F934F935F936F937F9355
:100840008F939F93AF93BF93CF93DF93EF93FF93D8
:1008500010914C011130E9F482E00E94AB19EC01D7
:1008600083E00E94AB198C179D071CF410934A017A
:100870000CC082E00E94AB19EC0183E00E94AB192E
:10088000C817D90734F410924A0110934B01109203
:100890004C01FF91EF91DF91CF91BF91AF919F916B
:1008A0008F917F916F915F914F913F912F911F9108
:1008B0000F900FBE0F901F9018958AE491E00C9452
:1008C000F303CF93DF93EC01862FE62FF0E0F9835B
:1008D000E88350E05B834A832C831E821D8261E0A3
:1008E0000E943C1961E08A81DF91CF910C943C1900
:1008F0001F93CF93DF93EC0160E08A810E9475190A
:100900008AE090E00E94511814E061E08A810E9420
:10091000751960E08A810E9475191150B1F7DF9155
:10092000CF911F910895FF920F931F93CF93DF9361
:10093000EC018B0190E1F92E612F661F6627661F7F
:100940008A810E94751988810E94AB1961E0892B08
:1009500009F060E088810E947519000F111FFA9458
:1009600059F7DF91CF911F910F91FF900895EF926A
:10097000FF920F931F93CF93DF93EC017B01CB0189
:1009800093709E838D8360E070E0CE010E9493049B
:1009900000E010E08C81882351F0C701002E02C0D6
:1009A000880F991F0A94E2F791FF0DC009C0C70193
:1009B000002E02C0969587950A94E2F780FF03C047
:1009C0006FEF70E002C060E070E0CE010E9493041F
:1009D0000F5F1F4F0A301105E9F660E070E0CE01AD
:1009E0000E94930460E070E0CE010E949304CE0167
:1009F000DF91CF911F910F91FF90EF900C947804AD
:100A0000FC016483658176810C94B7046B3008F037
:100A10006AE02FEF3FEF02C0220F331F6A95E2F723
:100A200020953095FC0136832583B9010C94B704D9
:100A3000662321F06B3018F06AE001C061E05FEFDF
:100A4000560FFC012581368161E070E002C0660F1F
:100A5000771F5A95E2F7442319F0622B732B04C0D9
:100A60006095709562237323FC01768365830C94F3
:100A7000B704662321F06B3018F06AE001C061E032
:100A80002FEF260F61E070E002C0660F771F2A95F6
:100A9000E2F7FC012581368162277327768365831F
:100AA0000C94B704FC01858196810895FC0181E0D6
:100AB00020813181232B09F480E0089580915C012D
:100AC00090915D01019690935D0180935C01089582
:100AD0000E94FA17609376017093770180937801F2
:100AE0009093790182E00E94AB1990936501809305
:100AF0006401892BA9F060E088E00E94751980915B
:100B0000760190917701A0917801B091790180935D
:100B1000720190937301A0937401B093750114C096
:100B20008091760190917701A0917801B09179013F
:100B300080936E0190936F01A0937001B093710147
:100B400061E088E00E947519409172015091730133
:100B5000609174017091750180916E0190916F01A7
:100B6000A0917001B091710184179507A607B7078E
:100B700040F5481B590B6A0B7B0B40936A0150935D
:100B80006B0160936C0170936D0180917E01909177
:100B90007F01A0918001B0918101840F951FA61F54
:100BA000B71F80937E0190937F01A0938001B09343
:100BB00081011092720110927301109274011092CF
:100BC0007501089564E070E08AEB94E00E94CB1414
:100BD00068E27EE08AEB94E00E94FF1461E67EE02A
:100BE0008AEB94E00E94041541E050E068E675E06D
:100BF00080E00C942617AF92BF92CF92DF92EF92D3
:100C0000FF920F931F93CF93DF93CDB7DEB7289753
:100C10000FB6F894DEBF0FBECDBF8091D601909184
:100C2000D701049709F03AC281E090E09093D50192
:100C30008093D4018091D8019091D901863191059A
:100C400049F46091DA017091DB0183E592E00E9442
:100C5000130F24C28531910521F583E592E00E94AE
:100C60009F10882309F41AC262E971E083E592E0DB
:100C70000E94CC0F81E08093BC0180E090E0843141
:100C8000910554F4FC01E454FE4FDC01AE56BE4F16
:100C90002C9121830196F3CF9093D3018093D201BD
:100CA000FDC18130910539F48091DA010E94AB19C0
:100CB0008093D101F3C18230910539F46091DC0158
:100CC0008091DA010E947519E9C183309105B1F470
:100CD0008091DA010E94971890939101809390017E
:100CE0009C0197FF02C021503F4F3093BD0160E04F
:100CF00071E00E94971D8093BE01D0C184309105A0
:100D000049F46091DC017091DD018091DA010E946B
:100D1000B418C4C18530910539F46091DC0180912B
:100D2000DA010E943C19BAC18730910509F043C02D
:100D30008091DA019091DB0180934F0190935001F3
:100D400061E00E943C1960E080914F010E9475199A
:100D500082E090E00E94511861E080914F010E9472
:100D6000751985E090E00E94511860E080914F0174
:100D70000E94751960E080914F010E943C1920E4A7
:100D800032E44FE050E061E080914F010E94D419BD
:100D90002AE330E040E050E00E94CD1DCA01B901D5
:100DA00020E031E040E050E00E94CD1D2093BD01E5
:100DB0006093BE0173C18830910541F481E0809356
:100DC000BD0182E08093BE0185E022C0843191059F
:100DD00011F580918F01811107C082E592E00E9498
:100DE000F01081E080938F012DE831E04CE851E074
:100DF0006BE871E082E592E00E94001180918B0126
:100E00008093BD0180918C018093BE0180918D0102
:100E10008093BF0143C18E31910571F580918E01A0
:100E2000811107C08AE492E00E945C0381E0809314
:100E30008E018AE492E00E94600380914C028093CC
:100E4000BD0180914B028093BE0180914A02809344
:100E5000BF0180914F028093C00180914E02809328
:100E6000C101909150029093C2018093C30180917F
:100E70004D028093C40112C18832910509F05EC011
:100E80008091860190918701892B09F407C1809197
:100E9000DC019091DD01009719F426E04BE00BC0D6
:100EA0008130910519F426E046E105C002970297CA
:100EB00040F426E045E16091DA018CE392E00E9483
:100EC000D20160E08CE392E00E9497026D837E8302
:100ED0008F8398878CE392E00E94110369837A8361
:100EE0008B839C8310924E0110924D01FE0135962A
:100EF00080E090E001962191DC01A955BE4F2C9332
:100F000084309105BCF384E090E090934E0180938F
:100F10004D010196DC01A955BE4FE1E0F0E0EC0F78
:100F2000FD1FE80FF91F359720812C93883091051C
:100F300084F390934E0180934D015DC082339105FF
:100F4000D9F44091DA015091DB0121E08091DC017C
:100F50009091DD01892B09F420E061E0640FFA0132
:100F6000329737E03E9FC0013F9F900D11248E5E67
:100F70009D4F0E94610492C0C39709F041C0209127
:100F8000DA013091DB012250310947E0429FC00174
:100F9000439F900D11248E5E9D4F0E945605811136
:100FA00061C12EC08A30910509F0F5C58091860196
:100FB00090918701019709F071C08091660180933B
:100FC000BC0180917A0190917B01A0917C01B0914C
:100FD0007D018093BD01492F5A2F6B2F77274093B6
:100FE0007A0150937B0160937C0170937D01409363
:100FF000BE01A093BF0110928701109286014EC0DE
:101000008091D8019091D901C49709F406C18091CB
:10101000D8019091D901C59791F42091DA013091CE
:10102000DB012250310947E0429FC001439F900DF0
:1010300011248E5E9D4F0E94560581112CC1809116
:10104000D8019091D901C69709F440C18091D80187
:101050009091D901C79709F45EC18091D801909110
:10106000D901C89709F484C18091D8019091D90120
:101070008634910509F0A3C16091DA017091DB011A
:1010800041E0460F9B0122503109C901880F991F89
:10109000820F931F80509E4F0E94791280916801A9
:1010A00090916901892BD9F10E94FA170091820170
:1010B000109183012091840130918501601B710B97
:1010C000820B930B613375478105910540F181E0F7
:1010D00090E0909367018093660180917E019091EA
:1010E0007F01A0918001B091810180937A0190935A
:1010F0007B01A0937C01B0937D0110927E01109240
:101100007F0110928001109281010E94FA17609372
:101110008201709383018093840190938501809173
:101120005E0190915F01892B39F180914B018130F3
:1011300019F520914A01809162019091630121305B
:1011400049F401968931910554F01092630110928F
:10115000620109C0019797FF02C088E190E0909377
:1011600063018093620181E080936001809162015C
:101170008093610110924B01809158019091590127
:10118000892B09F454C50E94FA170091540110915B
:1011900055012091560130915701601B710B820B54
:1011A000930B613D77408105910508F440C520917E
:1011B0005C0130915D014EE1429FC001439F900D63
:1011C000112469E470E00E94971DE62F472F609379
:1011D0005A0170935B0181E080935101862F972F14
:1011E00060E071E00E94971D809352012E2F342FF2
:1011F00037FF02C021503F4F3093530110925D01E1
:1012000010925C010E94FA1760935401709355018B
:1012100080935601909357010AC52091DA013091CD
:10122000DB012250310917E0129FC001139F900D7E
:1012300011248E5E9D4F0E945605882309F4E7CE47
:101240002091DA013091DB0122503109129FC00157
:10125000139F900D11246091DC018E5E9D4F0E94C2
:1012600006051CCF61E08091DC019091DD01892BA6
:1012700009F460E02091DA013091DB01225031095C
:1012800047E0429FC001439F900D11248E5E9D4F09
:101290000E94000503CF41E08091DE019091DF01C3
:1012A000892B09F440E02091DA013091DB012250D2
:1012B000310957E0529FC001539F900D1124609156
:1012C000DC018E5E9D4F0E941805E8CE2091DA0168
:1012D0003091DB012250310917E0129FC001139FAA
:1012E000900D11248E5E9D4F0E945605882309F4AF
:1012F000ADCE2091DA013091DB0122503109129FED
:10130000C001139F900D11246091DC018E5E9D4FF2
:101310000E943905C3CE2091DA013091DB012250C1
:10132000310917E0129FC001139F900D11248E5EAA
:101330009D4F0E945605882309F48FCE80E090E0EF
:101340009091DE016091DC017091DD0168277927C1
:101350002091DA013091DB0122503109129FC00146
:10136000139F900D11248E5E9D4F0E94B70496CE60
:101370002091DA013091DB012250310917E0129FF0
:10138000C001139F900D11248E5E9D4F0E94560543
:10139000882309F469CE2091DA013091DB012250D3
:1013A0003109129FC001139F900D11248E5E9D4F35
:1013B0000E9452058093BD019093BE016FCE873489
:1013C000910519F52091DA013091DB0122503109A4
:1013D000C901880F991F820F931F80509E4F0E9452
:1013E000E113882391F02091DA013091DB01225042
:1013F0003109C901880F991F820F931F6091DC0189
:1014000080509E4F0E94901249CE8091D8019091B9
:10141000D9018834910559F52091DA013091DB0129
:1014200022503109C901880F991F820F931F8050E4
:101430009E4F0E94E1138823D1F080E090E09091CC
:10144000DE016091DC017091DD0168277927209130
:10145000DA013091DB0122503109C901880F991F4F
:10146000820F931FE12C00E024E040E05CC08091FB
:10147000D8019091D9018934910589F42091DA013C
:101480003091DB0122503109C901880F991F820F69
:10149000931F80509E4F0E94E11381112BC08091B9
:1014A000D8019091D9018A34910509F041C0209169
:1014B000DA013091DB0122503109C901880F991FEF
:1014C000820F931F80509E4F0E94E113882381F169
:1014D0002091DA013091DB0122503109C901880FD6
:1014E000991F820F931F6091DE0180509E4F0E94D2
:1014F000DA1338C080E090E09091DE016091DC0169
:101500007091DD01682779272091DA013091DB01A4
:1015100022503109C901880F991F820F931FE12CB6
:1015200000E024E041E080509E4F0E946413B6CD5D
:101530008091D8019091D9018B34910519F52091B2
:10154000DA013091DB0122503109C901880F991F5E
:10155000820F931F80509E4F0E94E113882391F0C9
:101560008091DE0189832091DA013091DB012250E4
:101570003109C901880F991F820F931F2091DC0147
:1015800041E00FC18091D8019091D9018C3491052F
:1015900009F075C02091DA013091DB012250310948
:1015A000C901880F991F820F931F80509E4F0E9480
:1015B000E113882309F463C08091DC019091DD017F
:1015C0000AE010E0B8010E94971D2091DA013091E5
:1015D000DB0122503109C901880F991F820F931F27
:1015E00080509E4F0E94DA1389838091DC01909194
:1015F000DD01B8010E94971D2091DA013091DB01D5
:1016000022503109A901440F551F420F531F682F63
:10161000CA0180509E4F0E94DA1380688A838091AD
:10162000DE019091DF01B8010E94971D2091DA013F
:101630003091DB0122503109C901880F991F820FB7
:10164000931F80509E4F0E94DA138B838091DE019E
:101650009091DF01B8010E94971D2091DA0130912D
:10166000DB0122503109A901440F551F420F531FBE
:10167000682FCA0180509E4F0E94DA1367C0809184
:10168000D8019091D9018D34910589F42091DA0126
:101690003091DB0122503109C901880F991F820F57
:1016A000931F80509E4F0E94E11381111EC08091B4
:1016B000D8019091D9018E34910509F049C020914B
:1016C000DA013091DB0122503109C901880F991FDD
:1016D000820F931F80509E4F0E94E1138823C1F117
:1016E0008FEF89838A838B8331C01091DC01A090B6
:1016F000DE01B090DF01AA0CBB1CAA0CBB1CC12CE4
:10170000D12CCA14DB040CF0C9CC812F0E9497188D
:10171000BC012091DA013091DB0122503109C9016D
:10172000880F991F820F931FE12C00E024E040E016
:1017300080509E4F0E9464136AEF70E080E090E05A
:101740000E9429182FEFC21AD20ADBCF8C831CC04B
:101750008091D8019091D9018F34910551F5209154
:10176000DA013091DB0122503109C901880F991F3C
:10177000820F931F80509E4F0E94E1138823C9F06F
:1017800019821A821B821C822091DA013091DB01BE
:1017900022503109C901880F991F820F931F20E041
:1017A00044E0BE016F5F7F4F80509E4F0E94171331
:1017B00075CC8091D8019091D9018A35910569F451
:1017C0008091DA01809388018091DC018093890106
:1017D0008091DE0180938A0161CC8B359105B1F453
:1017E0006091DA017091DB0141E0460F9B012250CC
:1017F000310955E0529FC001539F900D1124209153
:10180000DC018E519E4F0E94A20148CC8C3591057F
:1018100009F044C06091DA017091DB0141E0460FAC
:101820009B012250310955E0529FC001539F900DFA
:1018300011242091DC018E519E4F0E94A201109133
:10184000DE0112FBDD24D0F8D19411FBCC24C0F8CA
:10185000C19411701195E12CF12CE5E0BE2E809120
:10186000DC019091DD01E816F9060CF017CC6091CF
:10187000DA017091DB0162507109B69EC001B79E1A
:10188000900D1124012F2C2D4D2D6E2D8E519E4F1C
:101890000E9435013FEFE31AF30AE1CF8D35910540
:1018A00009F074C02091DC013091DD018091DA01F2
:1018B0009091DB01232BB1F49C012250310945E0CA
:1018C000429FC001439F900D112400918A012091F5
:1018D0008901409188016091DE018E519E4F0E94E6
:1018E0003501DCCB9C012250310945E0429FC0010B
:1018F000439F900D11248E519E4F0E94CF01E12CE9
:10190000F12CC82ED12C15E0EC14FD040CF0C6CB44
:101910002091DC013091DD012130310541F48091CD
:10192000DE019091DF01E816F906B1F42BC02230F8
:10193000310541F48091DE019091DF018E159F0504
:101940005CF420C023303105E9F48091DE019091F0
:10195000DF01E816F906B4F02091DA013091DB01DD
:1019600022503109129FC001139F900D1124009144
:101970008A0120918901409188016E2D8E519E4FE0
:101980000E9435014FEFE41AF40ABECF8E3591055F
:1019900009F052C08091DE019091DF0118161906FE
:1019A00034F081E090E09093DF018093DE0120919C
:1019B000DA013091DB012250310945E0429FC0013C
:1019C000439F900D11248E519E4F0E94CF01E090B5
:1019D000DC01F090DD01C82ED12C15E0EC14FD04E3
:1019E0000CF05CCB8091DC019091DD019701281B0C
:1019F000390BC9016091DE017091DF010E94971DD2
:101A0000892BB1F42091DA013091DB0122503109A8
:101A1000129FC001139F900D112400918A01209103
:101A20008901409188016E2D8E519E4F0E94350193
:101A30003FEFE31AF30AD2CF8F35910509F084C046
:101A40002091DA013091DB012250310945E0429FBB
:101A5000C001439F900D11248E519E4F0E94CF01D3
:101A6000182F8091DE019091DF01C12ED12CE12C45
:101A7000F12C892B99F515E0EC14FD040CF00ECB3C
:101A80002091DC013091DD018091DA019091DB0140
:101A9000E216F3067CF49C0122503109129FC0012A
:101AA000139F900D112400918A012091890140918A
:101AB00088010BC09C0122503109129FC001139F65
:101AC000900D112400E020E040E06E2D8E519E4FDD
:101AD0000E9435014FEFE41AF40ACECF75E0B72E1D
:101AE00096012E193F0909F4D9CA8091DC01909121
:101AF000DD01A601481B590BCA014091DA01509142
:101B0000DB01612F6E19425051092817390764F023
:101B1000B49EC001B59E900D112400918A012091C0
:101B200089014091880108C0B49EC001B59E900D06
:101B3000112400E020E040E08E519E4F0E943501CC
:101B40005FEFE51AF50ACCCF8E309105C1F441E084
:101B500050E068E675E080E00E94261781E090E0A2
:101B600090936901809368010E94FA176093820143
:101B700070938301809384019093850153C08F30CB
:101B8000910509F00FCA80E00E9446171092690182
:101B90001092680147C08031910559F48AE491E0C0
:101BA0000E94FD0381E090E090935F0180935E01CD
:101BB00039C08131910549F48AE491E00E94100412
:101BC00010925F0110925E0169CA8231910501F5A0
:101BD00060E082E00E943C1943E050E06EE575E071
:101BE00080E00E94261710925D0110925C010E9415
:101BF000FA176093540170935501809356019093A6
:101C0000570181E090E090935901809358010AC0F8
:101C10000D9709F043CA109259011092580180E0C3
:101C20000E9446171092D9011092D80137CA2896FF
:101C30000FB6F894DEBF0FBECDBFDF91CF911F91DD
:101C40000F91FF90EF90DF90CF90BF90AF900895ED
:101C50000F931F93CF93DF9301E010E08AEB94E0A2
:101C60000E94E813892B41F18AEB94E00E94E8136B
:101C7000049761F41092D5011092D4011092D7010B
:101C80001092D6011093870100938601C091D6016E
:101C9000D091D701CE0101969093D7018093D601C0
:101CA0008AEB94E00E94F013FE01EE0FFF1FE85252
:101CB000FE4F91838083D2CFDF91CF911F910F91FF
:101CC00008958091D8019091D901019731F46091E4
:101CD000D1018AEB94E00E946F148091D801909119
:101CE000D9019C012B7F2330310511F0C89741F4B5
:101CF00043E050E06CEB71E08AEB94E00E94421408
:101D00008091D8019091D9018830910511F04497C4
:101D100041F444E050E06CEB71E08AEB94E00E9407
:101D200042148091D8019091D9014E9741F449E035
:101D300050E06CEB71E08AEB94E00E9442148091D9
:101D4000D8019091D901889741F449E050E067EAC1
:101D500071E08AEB94E00E9442148091D801909146
:101D6000D901459751F445E150E06CEB71E08AEB05
:101D700094E00E9442141092BC018091D80190918D
:101D8000D9010A9781F444E050E06CEB71E08AEBF2
:101D900094E00E9442141092670110926601109222
:101DA000D9011092D8018091D8019091D9010B9757
:101DB00071F442E050E060E671E08AEB94E00E944A
:101DC0004214109260011092D9011092D8018091B2
:101DD000D8019091D9010C9771F443E050E061E58E
:101DE00071E08AEB94E00E9442141092510110922B
:101DF000D9011092D8010895F89482E08093B00040
:101E00008093B10094E69093B3001092B200809357
:101E100070007894809358021092B3048091570216
:101E200060E00C943C19609357020E94FC0E64E140
:101E300070E080E090E00E94291882E080935802D0
:101E40001092B30408951F920F920FB60F921124AF
:101E50002F933F934F935F936F937F938F939F93B2
:101E6000AF93BF93EF93FF93809157020E94AB19FA
:101E70002091590230915A022F5F3F4F30935A02FE
:101E8000209359029091B304909158029330B9F085
:101E900018F4923039F056C0943051F1953009F46D
:101EA0004BC050C081114EC08091590290915A028E
:101EB0008436910508F442C01092B3041BC08130EF
:101EC00009F040C0E091B3048E0F8093B304F0E0BA
:101ED0008091590290915A02EE0FFF1FE55AFD4F73
:101EE0009183808310925A021092590284E021C09B
:101EF000811117C0E091B30481E08E0F8093B30489
:101F0000F0E08091590290915A02EE0FFF1FE55ABE
:101F1000FD4F9183808310925A021092590283E000
:101F200008C08091590290915A028536910550F06F
:101F300085E08093580206C0811104C010925A02B5
:101F400010925902FF91EF91BF91AF919F918F91A4
:101F50007F916F915F914F913F912F910F900FBEA5
:101F60000F901F9018958BE592E0FB019183808381
:101F70008091B30490E093838283809158028530EE
:101F800041F482E0809358021092B30481E090E023
:101F9000089580E090E008952F923F924F925F92D3
:101FA0006F927F928F929F92AF92BF92CF92DF9269
:101FB000EF92FF920F931F93CF93DF931C01FB01CE
:101FC000DC0112962D913C9113973901B4E06B1A04
:101FD000710877FE04C03901CBE06C0E711CA4E0DF
:101FE00075946794AA95E1F7D1010D911C9140E099
:101FF00050E080E090E07801B6E0EB0EF11CD701F4
:10200000A40FB51F6D917C91860F971F4C5F5F4F9A
:1020100048325105A1F76AE070E00E94971D7B01EC
:102020004B01880C991CD801189640E050E060E004
:1020300070E080E090E08901095011092D913C91F8
:1020400011978216930638F42D913C911197820FC7
:10205000931F6F5F7F4F6A30710559F014969A0194
:102060002E5F3F4F4A5F5F4F4017510714F4A9019D
:10207000E5CF0E94971D562EDF01169648E050E0EE
:1020800020E030E0CC24C394D12C2615370544F54C
:102090001C928A0187E090E0E10168817981600FFC
:1020A000711FEB01A880B9804C90B601082E01C0C9
:1020B000660F0A94EAF78A149B0410F4642902C09C
:1020C000609564216C9301970C5F1F4F8F3FDFEF8A
:1020D0009D0711F72F5F3F4F1196405E5F4FD5CFA1
:1020E00085E0860D8083E101A881B98112968D91EA
:1020F0009C9113978183A881B98114968D919C91AD
:1021000015978283E3825482658282E0809358022D
:102110001092B30480818F5FDF91CF911F910F9157
:10212000FF90EF90DF90CF90BF90AF909F908F90F7
:102130007F906F905F904F903F902F900895CF9336
:10214000DF93EC01BC010E94B30F892BC1F08A819F
:102150009B818034910534F004979C0127703327CC
:10216000232B31F082E0809358021092B30407C011
:10217000B4E095958795BA95E1F78A5F01C080E054
:10218000DF91CF9108951F93CF93DF931F92CDB727
:10219000DEB7162F8AEB94E049830E94AE146CE4FC
:1021A00070E08AEB94E00E94E714612F8AEB94E0E0
:1021B0000E946F144981642F8AEB94E00E946F148F
:1021C0008AEB94E00F90DF91CF911F910C94FC1457
:1021D000462F67E00C94C310462F68E00C94C310A0
:1021E000CF93DF93EC0160E00E94E81060E0CE0145
:1021F0000E94EC1061E0CE01DF91CF910C94E810C9
:102200004F925F926F927F928F929F92AF92BF9206
:10221000CF92DF92EF92FF920F931F93CF93DF93B2
:1022200000D01F92CDB7DEB75B016A01790180E46F
:102230008B838A8389830E94FA172B013C018AEBE6
:1022400094E00E94E813181619066CF40E94FA171D
:102250006419750986099709653F714081059105E3
:1022600074F380E072C08AEB94E00E94F01343E0C4
:1022700050E06CE470E08AEB94E00E94DA140E9473
:10228000FA172B013C018E010F5F1F4F48018AEBAB
:1022900094E00E94E813892B69F1C8018819990913
:1022A0000397D4F40E94FA172B013C01F8018081B6
:1022B000803490F08AEB94E00E94F013F801808360
:1022C0000E94FA1764197509860997096333710525
:1022D000810591055CF3C5CF0E94FA170F5F1F4F70
:1022E0006419750986099709653F71408105910553
:1022F00074F2B7CF898124E0829FC0011124282F76
:1023000087FF02C023E0280F25952595F50120833E
:102310008A81F4E08F9FC0011124282F87FF02C01B
:1023200023E0280F25952595F60120838B81F4E085
:102330008F9FC0011124282F87FF02C023E0280FA0
:1023400025952595F701208381E00F900F900F9040
:10235000DF91CF911F910F91FF90EF90DF90CF9081
:10236000BF90AF909F908F907F906F905F904F90B5
:1023700008951F920F920FB60F9211242F933F933F
:102380004F935F936F937F938F939F93AF93BF937D
:10239000EF93FF93E091B804F091B9040995FF9190
:1023A000EF91BF91AF919F918F917F916F915F91CD
:1023B0004F913F912F910F900FBE0F901F90189546
:1023C000FC01A3E0440F551F661F771FAA95D1F7A4
:1023D0004115510581E06807710514F481E00EC0D4
:1023E00033E075956795579547953A95D1F741151F
:1023F000510581E0680771051CF482E0828331C0D9
:1024000023E075956795579547952A95D1F741151E
:10241000510581E06807710514F483E0EFCF92E085
:1024200075956795579547959A95D1F7411551053B
:1024300081E06807710514F484E0E0CF82E07595CF
:102440006795579547958A95D1F785E08283411521
:10245000510581E06807710524F04FEF5FEF60E000
:1024600070E08FB78383F894518340835093870043
:102470004093860083818FBF80918100887F809305
:102480008100809181009281892B80938100089541
:102490001092800020E1209381000C94E011EFE67F
:1024A000F0E080818E7F80830895E1E8F0E0208174
:1024B000DC0112968C91282B208308950F931F9393
:1024C000CF93DF93EC018B01BA01A9011416150615
:1024D0001606170614F40E94E0111D830C8381E098
:1024E00080936F00CE01DF91CF911F910F910C94DB
:1024F0005512CF93DF93EC01862F6883498360E008
:102500000E943C1960E089810E943C1960E088814A
:102510000E94751960E08981DF91CF910C94751943
:10252000683010F4685F01C06FE0FC0162830895B9
:1025300061E0FC0181810E943C1982E390E00C94EF
:102540005118CF93DF93EC0161E089810E943C191F
:1025500082E390E00E94511860E088810E943C195B
:1025600082E390E00E94511860E089810E943C194A
:1025700082E390E0DF91CF910C9451180F931F9359
:10258000CF93DF93EC01062F18E061E088810E9471
:102590003C1982E390E00E94511800FF02C060E005
:1025A00001C061E089810E943C1982E390E00E94B1
:1025B000511860E088810E943C1982E390E00E94FB
:1025C00051180695115009F761E088810E943C1965
:1025D00060E089810E943C1982E390E00E945118DA
:1025E00060E088810E943C1982E390E00E945118CB
:1025F00089810E94AB19182F811104C061E0898183
:102600000E943C1982E390E00E94511861E08881A9
:102610000E943C1982E390E00E94511881E0111160
:1026200001C080E0DF91CF911F910F910895AF928B
:10263000BF92DF92EF92FF920F931F93CF93DF939E
:1026400000D0CDB7DEB75C01F62EE42E29837A8365
:102650000E94981260E4C5010E94BE12C5010E944A
:10266000A112C5010E9498122981622F63706054E3
:10267000C5010E94BE12DF2C0F2D7A81172F802FEB
:102680008D198E1538F4F80161918F01C5010E94F2
:10269000BE12F5CFC5010E94A112C5010E94981279
:1026A000F50162816058C5010E94BE12C5010F90FC
:1026B0000F90DF91CF911F910F91FF90EF90DF90DE
:1026C000BF90AF900C94A1124F925F926F927F9245
:1026D0008F929F92AF92BF92CF92DF92EF920F9321
:1026E0001F93CF93DF9300D000D0CDB7DEB73C016E
:1026F0005B01322F202F89E1882E81E0982ECE01B8
:1027000001966C01FC0101E01FE3D4015E904E9044
:102710004D01C501B2010E94971D6115710561F45B
:10272000411106C0002321F08E2F8C19833011F443
:10273000108313C0108211C0A62FAF70B0E0A75E47
:10274000BE4F8C918083649DC001659D900D749DEA
:10275000900D1124A81AB90A00E0EE2039F08E2F4E
:102760008C19813019F48081806880833196B1E1C1
:102770008B16B1E09B0649F664E070E0631B7109BB
:102780006C0D7D1D432FC3010E9417130F900F90F6
:102790000F900F90DF91CF911F910F91EF90DF90ED
:1027A000CF90BF90AF909F908F907F906F905F90F1
:1027B0004F9008956F70E62FF0E0E75EFE4F808146
:1027C0000895FC0181E09081911101C080E008959D
:1027D0008091EE0490E02091EF04821B910908950E
:1027E0002091EF048091EE04281750F4E22FF0E0DE
:1027F000E051FB4F808190E02F5F2093EF0408951C
:102800008FEF9FEF0895E091EF048091EE04E817B9
:1028100030F4F0E0E051FB4F808190E008958FEFBD
:102820009FEF08950895E091C604F091C704309792
:10283000E1F03091EF042091EE043217B0F040E067
:10284000242F30E02617370754F4DC01A20FB31F02
:102850005C91D901A051BB4F5C934F5FF1CF1092B7
:10286000EF046093EE04CB0109940895E091C8044D
:10287000F091C904309729F01092CC041092CB0447
:1028800009940895CF92DF92EF92FF920F931F93D6
:10289000CF93DF937C01CB018A012091CA042223CC
:1028A00089F0EB016B01C40ED51ECC15DD0569F076
:1028B0006991D701ED91FC910190F081E02DC70164
:1028C0000995F3CF642F0E94C615C801DF91CF91FF
:1028D0001F910F91FF90EF90DF90CF900895CF93CD
:1028E000DF931F92CDB7DEB769832091CA042223FC
:1028F000D1F02091CB04203240F021E030E0FC0107
:102900003383228380E090E015C08091CC04E82FCF
:10291000F0E0E353FB4F998190838F5F8093CC0469
:102920008093CB0405C061E0CE0101960E94C615DC
:1029300081E090E00F90DF91CF910895FC01138228
:10294000128248EE53E060E070E044835583668372
:1029500077838DE291E09183808308951092EF0454
:102960001092EE041092CC041092CB040C940D152E
:10297000CF93DF93EC01862F0E942B1586E394E121
:102980000E94E41583E194E10E94DF15CE01DF91FE
:10299000CF910C94AE140C94B814862F413208F0E9
:1029A00040E260EF74E00E942F151092EF048093D4
:1029B000EE04089521E00C94CD1481E08093CA04C4
:1029C0006093ED041092CC041092CB0408950C9403
:1029D000DD140F93062F21E04091CB046DEC74E0E1
:1029E0008091ED040E9473151092CC041092CB04D8
:1029F0001092CA040F91089561E00C94E914709349
:102A0000C7046093C60408957093C9046093C80412
:102A100008958AEB94E00C949E1410927D0581E059
:102A200080937B0510927A0561E082E10E9475191E
:102A300061E083E10E947519E9EBF0E080818E7F0F
:102A4000808380818D7F808388E48093B80085E4D3
:102A50008093BC000895880F8093BA000895413296
:102A600008F03FC090917D059111FCCF91E09093CB
:102A70007D0520937B052FEF2093100510925505BF
:102A8000240F2093540590937C0590917C05880F2A
:102A9000892B80937C0580917A05813041F41092D6
:102AA0007A0580917C058093BB0085EC01C085EEA2
:102AB0008093BC0080917D058130E1F380915505C4
:102AC000841710F44091550526E535E0FB01D90146
:102AD0008A2F821B841718F48D918193F9CF842F4C
:102AE000089580E008950F93413208F046C0909118
:102AF0007D059111FCCF92E090937D0500937B05BD
:102B00009FEF909310051092550540935405FB01DB
:102B100066E575E0DB019A2F961B941718F49191E6
:102B20009D93F9CF10927C0590917C05880F892B9D
:102B300080937C0580917A05813041F410927A056A
:102B400080917C058093BB0085EC01C085EE80936D
:102B5000BC00222321F080917D058230E1F3809139
:102B600010058F3F61F080911005803251F0809107
:102B70001005803341F483E007C081E005C080E0A8
:102B800003C082E001C084E00F910895613298F49F
:102B900020917D05243089F460933205FC0184E3A3
:102BA00095E0DC012A2F281B261718F421912D937C
:102BB000F9CF80E0089581E0089582E00895909330
:102BC000770580937605089590937905809378052D
:102BD000089585ED8093BC008091BC0084FDFCCFFE
:102BE00010927D05089585EC8093BC0010927D05C0
:102BF00008951F920F920FB60F9211242F933F93B7
:102C00004F935F936F937F938F939F93AF93BF93F4
:102C1000EF93FF938091B900887F803609F49CC0C0
:102C200068F5883209F45BC090F4803109F454C02F
:102C300038F4882309F4F5C0883009F44DC0F5C094
:102C4000883109F44CC0803209F45DC0EEC0803494
:102C500009F468C048F4803309F455C0883309F09A
:102C6000E4C080931005A8C0803509F44FC08835B2
:102C700009F45DC0883409F0D8C0D5C0883909F49A
:102C8000C6C0A8F4883709F467C038F4883609F458
:102C900063C0803709F460C0C8C0883809F4B7C081
:102CA000803909F45FC0803809F0BFC05BC0803B49
:102CB00009F485C038F4803A09F466C0883A09F40A
:102CC0007EC0B3C0803C09F4A6C0883C09F4A3C010
:102CD000883B09F489C0A9C080917C0510C09091FF
:102CE000550580915405981770F5E091550581E0E0
:102CF0008E0F80935505F0E0EA5AFA4F8081809359
:102D0000BB0085EC85C0809310058DC0E091550512
:102D100081E08E0F809355058091BB00F0E0EA5A68
:102D2000FA4F808390915505809154056DC0E091D4
:102D3000550581E08E0F809355058091BB00F0E032
:102D4000EA5AFA4F808380917B0581116CC081E043
:102D500080937A0584EA60C083E080937D051092B9
:102D60001105CFCF80911105803208F050C0E0915D
:102D7000110581E08E0F809311058091BB00F0E07A
:102D8000EE5EFA4F8083BDCF80911105803230F422
:102D9000E0911105F0E0EE5EFA4F10820E94E91515
:102DA0006091110570E0E0917605F091770582E180
:102DB00095E00995109211050E94F31536C084E044
:102DC00080937D051092330510923205E0917805CD
:102DD000F0917905099580913205811105C081E056
:102DE0008093320510923405E091330581E08E0F17
:102DF00080933305F0E0EC5CFA4F80818093BB0058
:102E00009091330580913205981708F47ACF85E8C0
:102E10008093BC000AC085EC8093BC0010927D05B5
:102E200004C0109210050E94E915FF91EF91BF9127
:102E3000AF919F918F917F916F915F914F913F9152
:102E40002F910F900FBE0F901F9018958230E8F4CD
:102E5000E82FF0E0EE0FFF1FE258FA4F7183608316
:102E6000813041F0809169008C7F842B80936900D0
:102E7000E89A089580916900440F551F440F551F2B
:102E8000837F842B80936900E99A0895823068F4E7
:102E9000813011F0E89801C0E998E82FF0E0EE0FDA
:102EA000FF1FE258FA4F1182108208951F920F926D
:102EB0000FB60F9211242F933F934F935F936F930D
:102EC0007F938F939F93AF93BF93EF93FF938091E3
:102ED0007E0590917F05892B29F0E0917E05F09188
:102EE0007F050995FF91EF91BF91AF919F918F91D0
:102EF0007F916F915F914F913F912F910F900FBEF6
:102F00000F901F9018951F920F920FB60F921124D9
:102F10002F933F934F935F936F937F938F939F93E1
:102F2000AF93BF93EF93FF938091800590918105BC
:102F3000892B29F0E0918005F09181050995FF9199
:102F4000EF91BF91AF919F918F917F916F915F9121
:102F50004F913F912F910F900FBE0F901F9018959A
:102F60001F920F920FB60F9211242F933F938F93BE
:102F70009F93AF93BF938091830590918405A09117
:102F80008505B09186053091820523E0230F2D370A
:102F900020F40196A11DB11D05C026E8230F02965D
:102FA000A11DB11D20938205809383059093840514
:102FB000A0938505B093860580918705909188053B
:102FC000A0918905B0918A050196A11DB11D80933C
:102FD000870590938805A0938905B0938A05BF91D2
:102FE000AF919F918F913F912F910F900FBE0F90B6
:102FF0001F9018952FB7F894609183057091840500
:1030000080918505909186052FBF08953FB7F8946C
:103010008091870590918805A0918905B0918A05D6
:1030200026B5A89B05C02F3F19F00196A11DB11D23
:103030003FBF6627782F892F9A2F620F711D811D40
:10304000911D42E0660F771F881F991F4A95D1F79F
:103050000895CF92DF92EF92FF92CF93DF936B01AF
:103060007C010E940618EB01C114D104E104F104B3
:1030700089F00E94F51A0E9406186C1B7D0B683EB1
:10308000734090F381E0C81AD108E108F108C851F3
:10309000DC4FEACFDF91CF91FF90EF90DF90CF90A0
:1030A00008958230910538F0880F991F880F991F75
:1030B00005970197F1F70895789484B5826084BDEF
:1030C00084B5816084BD85B5826085BD85B581602C
:1030D00085BDEEE6F0E0808181608083E1E8F0E08C
:1030E0001082808182608083808181608083E0E8BB
:1030F000F0E0808181608083E1EBF0E0808184609A
:103100008083E0EBF0E0808181608083EAE7F0E09B
:1031100080818460808380818260808380818160FF
:1031200080838081806880831092C10008958E30F2
:1031300008F08E5087702091060190E4299F90013D
:103140001124822B80937C0080917A00806480938C
:103150007A0080917A0086FDFCCF809178002091E2
:10316000790090E0922B08951F93CF93DF93182F4F
:10317000EB0161E00E943C19209711F460E004C06B
:10318000CF3FD10539F461E0812FDF91CF911F91BD
:103190000C947519E12FF0E0E859FF4FE491E3300A
:1031A000F9F048F4E130B9F0E230A1F584B580627D
:1031B00084BDC8BD34C0E730E9F0E83019F1E4302F
:1031C00049F580918000806280938000D0938B00CD
:1031D000C0938A0024C084B5806884BDC7BD1FC069
:1031E00080918000806880938000D0938900C09394
:1031F000880015C08091B00080688093B000C093B3
:10320000B3000DC08091B00080628093B000C09385
:10321000B40005C0C038D1050CF0B5CFAFCFDF91F9
:10322000CF911F910895833081F028F4813099F077
:103230008230A1F008958730A9F08830B9F0843049
:10324000D1F4809180008F7D03C0809180008F77C2
:1032500080938000089584B58F7702C084B58F7DF8
:1032600084BD08958091B0008F7703C08091B00035
:103270008F7D8093B0000895CF93DF9390E0FC01A1
:10328000E458FF4F2491FC01E057FF4F84918823BD
:1032900049F190E0880F991FFC01E854FF4FA59178
:1032A000B49182559F4FFC01C591D4919FB7611194
:1032B00008C0F8948C91209582238C938881822376
:1032C0000AC0623051F4F8948C91322F30958323E8
:1032D0008C938881822B888304C0F8948C91822BF4
:1032E0008C939FBFDF91CF9108950F931F93CF933E
:1032F000DF931F92CDB7DEB7282F30E0F901E859F0
:10330000FF4F8491F901E458FF4F1491F901E05700
:10331000FF4F04910023C9F0882321F069830E94A4
:1033200013196981E02FF0E0EE0FFF1FE255FF4F08
:10333000A591B4919FB7F8948C91611103C0109539
:10334000812301C0812B8C939FBF0F90DF91CF9180
:103350001F910F910895CF93DF93282F30E0F9014B
:10336000E859FF4F8491F901E458FF4FD491F901D6
:10337000E057FF4FC491CC2391F081110E941319A3
:10338000EC2FF0E0EE0FFF1FEC55FF4FA591B4912D
:103390002C912D2381E090E021F480E002C080E0B8
:1033A00090E0DF91CF9108950F931F93762F90E0D7
:1033B000FC01E458FF4F6491FC01E057FF4FE4919A
:1033C0007111762FF0E0EE0FFF1FEC55FF4F859146
:1033D000949189019A013F70472F0E948E006115D8
:1033E00071058105910531F06F5F7F4F8F4F9F4FC2
:1033F0009F7003C060E070E0CB011F910F910895B2
:103400001F920F920FB60F9211242F938F939F93B9
:10341000EF93FF93E0919B05F0919C058081E091F3
:10342000A105F091A20582FD12C090818091A405B2
:103430008F5F8F732091A505821751F0E091A4054D
:10344000F0E0E557FA4F958F8093A40501C0808185
:10345000FF91EF919F918F912F910F900FBE0F9041
:103460001F9018951F920F920FB60F9211242F9351
:103470003F934F935F936F937F938F939F93AF93FC
:10348000BF93EF93FF938BE895E00E94311BFF9170
:10349000EF91BF91AF919F918F917F916F915F91CC
:1034A0004F913F912F910F900FBE0F901F90189545
:1034B0008BE895E00E94F61A21E0892B09F420E0C0
:1034C000822F089510928E0510928D0588EE93E05C
:1034D000A0E0B0E080938F0590939005A0939105B4
:1034E000B09392058DE391E090938C0580938B05CA
:1034F00085EC90E0909398058093970584EC90E09C
:1035000090939A058093990580EC90E090939C05A8
:1035100080939B0581EC90E090939E0580939D05A0
:1035200082EC90E09093A00580939F0586EC90E05C
:103530009093A2058093A1051092A4051092A50571
:103540001092A6051092A705089508950E945C1890
:103550000E94A51A0E94E205C3E2DBE10E94FB057E
:103560002097E1F30E94231BF9CFCF92DF92EF92D5
:10357000FF920F931F93CF93DF936C017A01EB01BE
:10358000E60EF71E00E010E0CE15DF0561F0699150
:10359000D601ED91FC910190F081E02DC6010995D5
:1035A000080F191FF1CFC801DF91CF911F910F9123
:1035B000FF90EF90DF90CF9008956115710581F035
:1035C000DB010D900020E9F7AD0141505109461B88
:1035D000570BDC01ED91FC910280F381E02D099401
:1035E00080E090E008950C94DD1A0895FC01818D2F
:1035F000228D90E0805C9F4F821B91098F739927E9
:103600000895FC01918D828D981731F0828DE80F1D
:10361000F11D858D90E008958FEF9FEF0895FC01D7
:10362000918D828D981761F0828DDF01A80FB11DF9
:103630005D968C91928D9F5F9F73928F90E008951D
:103640008FEF9FEF089588E59AE1892B49F080E09C
:1036500090E0892B29F00E94581A81110C940000E7
:103660000895FC01848DDF01A80FB11DA35ABF4F3F
:103670002C91848D90E001968F739927848FA68971
:10368000B7892C93A089B1898C9180648C93938D98
:10369000848D981306C00288F389E02D80818F7D88
:1036A00080830895CF93DF93EC01888D8823C9F040
:1036B000EA89FB89808185FD05C0A889B9898C913B
:1036C00086FD0FC00FB607FCF5CF808185FFF2CFD6
:1036D000A889B9898C9185FFEDCFCE010E94311B5D
:1036E000E7CFDF91CF910895CF92DF92FF920F93B2
:1036F0001F93CF93DF931F92CDB7DEB76C0181E0AC
:10370000D60158968C9358975B969C915B975C96E4
:103710008C915C97981307C05096ED91FC9151974E
:10372000808185FD2EC0F601038D10E00F5F1F4FD5
:103730000F731127F02EF601848DF81211C00FB609
:1037400007FCF9CFD6015096ED91FC9151978081FD
:1037500085FFF1CFC60169830E94311B6981EBCFE0
:10376000838DE80FF11DE35AFF4F6083D6015B960E
:103770000C935B975296ED91FC91539780818062F8
:103780000CC0D6015696ED91FC91579760835096E8
:10379000ED91FC91519780818064808381E090E07D
:1037A0000F90DF91CF911F910F91FF90DF90CF90FD
:1037B00008955058BB27AA270ED01CC10DD130F058
:1037C00012D120F031F49F3F11F41EF402C10EF427
:1037D000E095E7FBF8C0E92F1ED180F3BA17620726
:1037E00073078407950718F071F49EF536C10EF43F
:1037F000E0950B2EBA2FA02D0B01B90190010C0101
:10380000CA01A0011124FF27591B99F0593F50F418
:10381000503E68F11A16F040A22F232F342F442770
:10382000585FF3CF469537952795A795F040539568
:10383000C9F77EF41F16BA0B620B730B840BBAF038
:103840009150A1F0FF0FBB1F661F771F881FC2F7A3
:103850000EC0BA0F621F731F841F48F487957795B7
:103860006795B795F7959E3F08F0B3CF9395880F6E
:1038700008F09927EE0F9795879508950CD0BAC058
:10388000B2D040F0A9D030F021F45F3F19F09BC0D6
:103890005111E4C09EC0BFD098F39923C9F35523BA
:1038A000B1F3951B550BBB27AA2762177307840733
:1038B00038F09F5F5F4F220F331F441FAA1FA9F3E9
:1038C00033D00E2E3AF0E0E830D091505040E695DB
:1038D000001CCAF729D0FE2F27D0660F771F881F3C
:1038E000BB1F261737074807AB07B0E809F0BB0B2B
:1038F000802DBF01FF2793585F4F2AF09E3F51054F
:1039000068F061C0ABC05F3FECF3983EDCF3869596
:1039100077956795B795F7959F5FC9F7880F911DC4
:103920009695879597F90895E1E0660F771F881FB0
:10393000BB1F621773078407BA0720F0621B730B63
:10394000840BBA0BEE1F88F7E0950895E89409C040
:1039500097FB3EF490958095709561957F4F8F4FC2
:103960009F4F9923A9F0F92F96E9BB279395F695D8
:10397000879577956795B795F111F8CFFAF4BB0F56
:1039800011F460FF1BC06F5F7F4F8F4F9F4F16C0BA
:10399000882311F096E911C0772321F09EE8872F44
:1039A000762F05C0662371F096E8862F70E060E000
:1039B0002AF09A95660F771F881FDAF7880F969579
:1039C000879597F9089597F99F6780E870E060E020
:1039D00008959FEF80EC089500240A9416161706A8
:1039E00018060906089500240A94121613061406F0
:1039F00005060895092E0394000C11F4882352F053
:103A0000BB0F40F4BF2B11F460FF04C06F5F7F4F0A
:103A10008F4F9F4F089557FD9058440F551F59F0F1
:103A20005F3F71F04795880F97FB991F61F09F3FAB
:103A300079F087950895121613061406551FF2CFD4
:103A40004695F1DF08C0161617061806991FF1CF24
:103A500086957105610508940895E894BB2766274B
:103A60007727CB0197F908950BD0C4CFB5DF28F0A5
:103A7000BADF18F0952309F0A6CFABCF1124EECF13
:103A8000CADFA0F3959FD1F3950F50E0551F629FB9
:103A9000F001729FBB27F00DB11D639FAA27F00DA7
:103AA000B11DAA1F649F6627B00DA11D661F829FCE
:103AB0002227B00DA11D621F739FB00DA11D621FB3
:103AC000839FA00D611D221F749F3327A00D611DD0
:103AD000231F849F600D211D822F762F6A2F1124B2
:103AE0009F5750408AF0E1F088234AF0EE0FFF1F05
:103AF000BB1F661F771F881F91505040A9F79E3F3C
:103B0000510570F060CFAACF5F3FECF3983EDCF335
:103B1000869577956795B795F795E7959F5FC1F778
:103B2000FE2B880F911D9695879597F9089597FB21
:103B3000072E16F4009407D077FD09D00E94EC1DE3
:103B400007FC05D03EF4909581959F4F08957095A0
:103B500061957F4F0895A1E21A2EAA1BBB1BFD01A0
:103B60000DC0AA1FBB1FEE1FFF1FA217B307E4075C
:103B7000F50720F0A21BB30BE40BF50B661F771FB4
:103B8000881F991F1A9469F7609570958095909594
:103B90009B01AC01BD01CF010895052E97FB1EF4DA
:103BA00000940E94E41D57FD07D00E94AB1D07FC46
:103BB00003D04EF40C94E41D50954095309521951A
:103BC0003F4F4F4F5F4F0895909580957095619549
:103BD0007F4F8F4F9F4F0895AA1BBB1B51E107C01A
:103BE000AA1FBB1FA617B70710F0A61BB70B881F8D
:103BF000991F5A95A9F780959095BC01CD0108951C
:103C0000EE0FFF1F0590F491E02D09940F931F9381
:103C1000CF93DF93869F8001879F100D969F100D95
:103C20001124C8010E94221EEC01009729F0A8016E
:103C300060E070E00E94491FCE01DF91CF911F919B
:103C40000F910895CF93DF938230910510F482E0B5
:103C500090E0E0912A06F0912B0620E030E0A0E011
:103C6000B0E0309739F14081518148175907B8F0D9
:103C70004817590771F482819381109729F01396A0
:103C80009C938E9312972CC090932B0680932A06B8
:103C900027C02115310531F04217530718F0A9014B
:103CA000DB0101C0EF019A01BD01DF010280F38158
:103CB000E02DD7CF21153105F9F0281B390B243021
:103CC000310580F48A819B816115710521F0FB012A
:103CD0009383828304C090932B0680932A06FE016F
:103CE000329644C0FE01E20FF31F8193919322505C
:103CF0003109398328833AC020912806309129065A
:103D0000232B41F4209102013091030130932906C5
:103D100020932806209100013091010121153105E1
:103D200041F42DB73EB74091040150910501241B89
:103D3000350BE0912806F0912906E217F307A0F46D
:103D40002E1B3F0B2817390778F0AC014E5F5F4FF1
:103D50002417350748F04E0F5F1F509329064093F4
:103D600028068193919302C0E0E0F0E0CF01DF915B
:103D7000CF910895CF93DF93009709F487C0FC019A
:103D8000329713821282C0912A06D0912B06209777
:103D900081F420813181280F391F8091280690916C
:103DA00029068217930779F5F0932906E0932806F0
:103DB0006DC0DE0120E030E0AE17BF0750F4129670
:103DC0004D915C9113979D014115510509F1DA015F
:103DD000F3CFB383A28340815181840F951F8A174B
:103DE0009B0771F48D919C911197840F951F0296FA
:103DF0009183808312968D919C91139793838283F4
:103E00002115310529F4F0932B06E0932A063EC0D4
:103E1000D9011396FC93EE9312974D915D91A40FE7
:103E2000B51FEA17FB0779F480819181840F951FF4
:103E30000296D90111969C938E9382819381139659
:103E40009C938E931297E0E0F0E08A819B8100972B
:103E500019F0FE01EC01F9CFCE01029628813981DB
:103E6000820F931F209128063091290628173907C1
:103E700069F4309729F410922B0610922A0602C09A
:103E800013821282D0932906C0932806DF91CF9126
:103E90000895DC0101C06D9341505040E0F7089552
:043EA000F894FFCFC4
:103EA40000002C0680000152656164206661696C23
:103EB4000001000A006400E8033F065B4F666D7D65
:103EC400077F6F777C395E7971000000006F1442C0
:103ED40014E813F0130314121400000000741BB54B
:0A3EE4001AF61A0F1B011B521B00F7
:00000001FF
