:100000000C9464000C9449170C9476170C948C0093
:100010000C948C000C9414040C948C000C94160F0B
:100020000C948C000C948C000C948C000C948C0020
:100030000C948C000C94AC110C948C000C948C00DF
:100040000C94A3170C948C000C94F3190C94251A9F
:100050000C948C000C948C000C948C000C948C00F0
:100060000C94EC150C948C000000000800020100B8
:100070000003040700000000000000000102040863
:100080001020408001020408102001020408102002
:10009000040404040404040402020202020203032E
:1000A00003030303000000002300260029000000D2
:1000B0000000250028002B0000000000240027007D
:1000C0002A005D04FC14551A11241FBECFEFD8E09E
:1000D000DEBFCDBF11E0A0E0B1E0EAE8FEE302C080
:1000E00005900D92AC34B107D9F726E0ACE4B1E04D
:1000F00001C01D92A931B207E1F710E0C8ECD0E0D1
:1001000004C02297FE010E94F51DC23CD107C9F729
:100110000E94991A0C94431F0C940000CF92DF9216
:10012000EF92FF920F931F93E82FF92F05C0015014
:1001300011092109310961F1908196239417B9F3CE
:1001400005C0015011092109310911F1908196234F
:100150009413F7CFC12CD12CE12CF12C0AC08FEFD6
:10016000C81AD80AE80AF80A0C151D052E053F051D
:1001700079F080818623841791F36C2D7D2D8E2D4F
:100180009F2D1F910F91FF90EF90DF90CF900895DA
:1001900060E070E080E090E01F910F91FF90EF90A1
:1001A000DF90CF900895CF93DF93EC0160E08881DA
:1001B0000E94681984E190E00E94441861E08881FF
:1001C0000E94681984E190E0DF91CF910C9444186B
:1001D0000F931F93CF93DF93EC01062F18E007FFD7
:1001E00002C061E001C060E089810E946819CE010F
:1001F0000E94D300000F115091F7DF91CF911F9112
:100200000F910895EF92FF921F93CF93DF9300D049
:10021000CDB7DEB77C01162F27FF02C060EC01C00E
:1002200060EE26FF606147FF686046FF646017FF6D
:10023000626016FF6160C70129834A830E94E8005B
:100240002981622FC7010E94E8004A81642FC701FB
:100250000E94E800612FC7010F900F90DF91CF91AE
:100260001F91FF90EF900C94E8007F928F929F92E5
:10027000AF92BF92CF92DF92EF92FF920F931F93B4
:10028000CF93DF93EC01162F942E822E60E00E9414
:10029000E80060E0CE010E94E80060E0CE010E942C
:1002A000E80060E0CE010E94E80083E0189F700142
:1002B000112467018FEFC81AD80A570182E0A80EEF
:1002C000B11C712C8A81781600F571120FC0EB8178
:1002D000FC81EE0DFF1D9082EB81FC81EC0DFD1D7C
:1002E0008082EB81FC81EA0DFB1D0083EB81FC81A8
:1002F00083E0789EE00DF11D11242281418160810F
:10030000CE010E9402017394DDCF60E0CE010E9415
:10031000E80060E0CE010E94E80060E0CE010E94AB
:10032000E80060E0CE01DF91CF911F910F91FF9027
:10033000EF90DF90CF90BF90AF909F908F907F9085
:100340000C94E8000F931F93CF93DF93EC01862F5B
:10035000688349832A8361E00E942F1961E08981C3
:100360000E942F198A8161E070E023E0829FC00122
:1003700011240E94F91D9C838B8310E08A81181739
:1003800048F400E020E040E0612FCE010E943501FA
:100390001F5FF4CFDF91CF911F910F910895FC0162
:1003A00082810895CF93DF93EC01862F6E834F8374
:1003B000288791E09D8760E00E942F1961E08E817F
:1003C0000E94681919861A861B861C86DF91CF91B8
:1003D0000895DF92EF92FF920F931F93CF93DF93D5
:1003E000EC0161E08E810E9468196AEF70E080E0A4
:1003F00090E00E941C180E94ED1709851A852B8534
:100400003C85601771078207930720F419861A86C6
:100410001B861C862D85211111C009851A852B8507
:100420003C85DC01CB01801B910BA20BB30B803D03
:100430009740A105B10510F481E071C01D860E94AE
:10044000ED1769877A878B879C871C821B821A82AB
:100450001982188261E08E810E942F1960E08E81DE
:100460000E94681964E170E080E090E00E941C182E
:10047000F89461E08E810E94681988E290E00E9401
:10048000441860E08E810E942F19F12CD12C81E05C
:10049000E12C082F10E08E810E949E198017910791
:1004A00041F4E39481E090E00E9444188FEFE81259
:1004B000F2CF8E810E949E199FEFE916C9F023E0CA
:1004C0002F1590F4F0FC10C09D2D9695969596955D
:1004D000FE01E90FF11D9081990F908328852E155B
:1004E00010F491609083D394F39495E5F912D0CFF2
:1004F000789427E22D1590F42C8130E04881898191
:1005000090E0840F911D4A81840F911D4B81840FCF
:10051000911D99272817390709F48ECF80E0DF91C4
:10052000CF911F910F91FF90EF90DF900895CF92A0
:10053000DF92EF92FF920F931F93CF93DF93EC0123
:10054000162F0E94E901882309F450C08F818B3057
:1005500031F008F44BC08551823078F047C06A8191
:1005600070E080E090E00E94991C112309F449C0DA
:1005700020E030E040E151E42AC00A81602F6F772B
:1005800070E080E090E00E949B1C20E030E040E8BA
:1005900053E40E94271D6B017C016B8170E080E0B9
:1005A00090E00E949B1C9B01AC01C701B6010E9418
:1005B000CD1B20E030E040E251E40E94311C07FDF9
:1005C0009058112309F120E030E040E151E40E940D
:1005D000271D20E030E040EA50E40E94311C20E07A
:1005E00030E040E052E40E94CD1B0EC069E071E0B3
:1005F00088E795E00E94E61A20E030E040EC5FE7F3
:1006000005C09B01AC0102C09B01AC01B901CA014C
:10061000DF91CF911F910F91FF90EF90DF90CF90DE
:100620000895CF92DF92EF92FF92CF93DF93EC0188
:100630000E94E901882379F18F818B3029F158F1EB
:100640008551823040F5688170E080E090E00E9442
:10065000991C20E030E040E853E40E94271D6B0124
:100660007C01698170E080E090E00E949B1C9B010E
:10067000AC01C701B6010E94CD1B20E030E040E292
:1006800051E40E94311C11C0688170E080E090E06C
:100690000E94991C0AC069E071E088E795E00E9419
:1006A000E61A60E070E080EC9FE7DF91CF91FF9069
:1006B000EF90DF90CF90089587EA94E00C94A11416
:1006C000CF93DF93EC0168E670E087EA94E00E9444
:1006D000DA1460E087EA94E00E94621487EA94E00A
:1006E0000E94EF1447E050E068E670E087EA94E08B
:1006F0000E94CD1487EA94E00E94E313282F2695E8
:10070000269526952E70922F990F990F920F8F7024
:10071000980F988387EA94E00E94E313982F9295AC
:100720009F708F702AE0929F800D1124898387EA41
:1007300094E00E94E313282F26952695269526708F
:10074000922F990F990F920F8F70980F9A8387EAC3
:1007500094E00E94E313982F92959F708F702AE087
:10076000929F800D11248B8387EA94E00E94E3130B
:10077000982F92959F708F702AE0929F800D112480
:100780008C8387EA94E00E94E313982F92959F70E0
:100790008F702AE0929F800D11248D8387EA94E068
:1007A0000E94E313982F92959F708F702AE0929F7A
:1007B000800D112490E09F838E83DF91CF91089567
:1007C000CF93DF9382E00E949E19EC0183E00E94A8
:1007D0009E198C239D23019719F481E080934E018B
:1007E000DF91CF91089584E0809368008BB381718D
:1007F0008BBB8CE080936D00089548EE53E060E081
:1008000070E081EA94E00E943B122FEF3FEFA901D4
:1008100060EE73E081EA94E00E94511278940895AA
:1008200081EA94E00C9442121F920F920FB60F923D
:1008300011241F932F933F934F935F936F937F9355
:100840008F939F93AF93BF93CF93DF93EF93FF93D8
:1008500010914E011130E9F482E00E949E19EC01E2
:1008600083E00E949E198C179D071CF410934C0185
:100870000CC082E00E949E19EC0183E00E949E1948
:10088000C817D90734F410924C0110934D011092FF
:100890004E01FF91EF91DF91CF91BF91AF919F9169
:1008A0008F917F916F915F914F913F912F911F9108
:1008B0000F900FBE0F901F9018958CE491E00C9450
:1008C000F303CF93DF93EC01862FE62FF0E0F9835B
:1008D000E88350E05B834A832C831E821D8261E0A3
:1008E0000E942F1961E08A81DF91CF910C942F191A
:1008F0001F93CF93DF93EC0160E08A810E94681917
:100900008AE090E00E94441814E061E08A810E942D
:10091000681960E08A810E9468191150B1F7DF916F
:10092000CF911F910895FF920F931F93CF93DF9361
:10093000EC018B0190E1F92E612F661F6627661F7F
:100940008A810E94681988810E949E1961E0892B22
:1009500009F060E088810E946819000F111FFA9465
:1009600059F7DF91CF911F910F91FF900895EF926A
:10097000FF920F931F93CF93DF93EC017B01CB0189
:1009800093709E838D8360E070E0CE010E9493049B
:1009900000E010E08C81882351F0C701002E02C0D6
:1009A000880F991F0A94E2F791FF0DC009C0C70193
:1009B000002E02C0969587950A94E2F780FF03C047
:1009C0006FEF70E002C060E070E0CE010E9493041F
:1009D0000F5F1F4F0A301105E9F660E070E0CE01AD
:1009E0000E94930460E070E0CE010E949304CE0167
:1009F000DF91CF911F910F91FF90EF900C947804AD
:100A0000FC016483658176810C94B7046B3008F037
:100A10006AE02FEF3FEF02C0220F331F6A95E2F723
:100A200020953095FC0136832583B9010C94B704D9
:100A3000662321F06B3018F06AE001C061E05FEFDF
:100A4000560FFC012581368161E070E002C0660F1F
:100A5000771F5A95E2F7442319F0622B732B04C0D9
:100A60006095709562237323FC01768365830C94F3
:100A7000B704662321F06B3018F06AE001C061E032
:100A80002FEF260F61E070E002C0660F771F2A95F6
:100A9000E2F7FC012581368162277327768365831F
:100AA0000C94B704FC01858196810895FC0181E0D6
:100AB00020813181232B09F480E0089580915E012B
:100AC00090915F01019690935F0180935E0108957C
:100AD0000E94ED17609378017093790180937A01F9
:100AE00090937B0182E00E949E199093670180930E
:100AF0006601892BA9F060E088E00E946819809166
:100B0000780190917901A0917A01B0917B01809355
:100B1000740190937501A0937601B093770114C08E
:100B20008091780190917901A0917A01B0917B0137
:100B30008093700190937101A0937201B09373013F
:100B400061E088E00E94681940917401509175013C
:100B5000609176017091770180917001909171019F
:100B6000A0917201B091730184179507A607B7078A
:100B700040F5481B590B6A0B7B0B40936C0150935B
:100B80006D0160936E0170936F018091800190916F
:100B90008101A0918201B0918301840F951FA61F4E
:100BA000B71F8093800190938101A0938201B0933D
:100BB00083011092740110927501109276011092C7
:100BC0007701089564E070E087EA94E00E94BE1423
:100BD0006AE27EE087EA94E00E94F21463E67EE037
:100BE00087EA94E00E94F71441E050E068E675E07F
:100BF00080E00C941917AF92BF92CF92DF92EF92E0
:100C0000FF920F931F93CF93DF93CDB7DEB7289753
:100C10000FB6F894DEBF0FBECDBF8091C301909197
:100C2000C401049709F014C281E090E09093C201DE
:100C30008093C1018091C5019091C60186319105D3
:100C400049F46091C7017091C80180E492E00E946C
:100C5000060FFEC18531910521F580E492E00E94E6
:100C60009210882309F4F4C164E971E080E492E011
:100C70000E94BF0F81E08093A90180E090E0843161
:100C8000910554F4FC01E755FE4FDC01AC56BE4F14
:100C90002C9121830196F3CF9093C0018093BF01E3
:100CA000D7C18130910539F48091C7010E949E1906
:100CB0008093BE01CDC18230910539F46091C901A4
:100CC0008091C7010E946819C3C183309105B1F4B6
:100CD0008091C7010E948A1890939301809392019A
:100CE0009C0197FF02C021503F4F3093AA0160E062
:100CF00071E00E948A1D8093AB01AAC184309105E6
:100D000049F46091C9017091CA018091C7010E94A4
:100D1000A7189EC18530910539F46091C901809171
:100D2000C7010E942F1994C18730910509F043C073
:100D30008091C7019091C801809351019093520115
:100D400061E00E942F1960E0809151010E946819B2
:100D500082E090E00E94441861E0809151010E947D
:100D6000681985E090E00E94441860E0809151018C
:100D70000E94681960E0809151010E942F1920E4BF
:100D800032E44FE050E061E0809151010E94C719C8
:100D90002AE330E040E050E00E94C01DCA01B901E2
:100DA00020E031E040E050E00E94C01D2093AA0105
:100DB0006093AB014DC18830910541F481E080938F
:100DC000AA0182E08093AB0185E022C084319105C5
:100DD00011F580919101811107C08FE392E00E948B
:100DE000E31081E0809391012FE831E04EE851E07B
:100DF0006DE871E08FE392E00E94F31080918D0125
:100E00008093AA0180918E018093AB0180918F0124
:100E10008093AC011DC18E31910571F580919001D7
:100E2000811107C087E392E00E945C0381E0809318
:100E3000900187E392E00E946003809139028093E1
:100E4000AA01809138028093AB0180913702809390
:100E5000AC0180913C028093AD0180913B02809374
:100E6000AE0190913D029093AF018093B0018091CB
:100E70003A028093B101ECC08832910509F057C065
:100E80008091C9019091CA01009719F426E04BE0C6
:100E90000BC08130910519F426E046E105C00297A8
:100EA000029740F426E045E16091C70189E292E0B3
:100EB0000E94D20160E089E292E00E9497026D8375
:100EC0007E838F83988789E292E00E941103698371
:100ED0007A838B839C831092500110924F01FE0104
:100EE000359680E090E001962191DC01A755BE4F38
:100EF0002C9384309105BCF384E090E090935001F2
:100F000080934F010196DC01A755BE4FE1E0F0E070
:100F1000EC0FFD1FE80FF91F359720812C938830C7
:100F2000910584F39093500180934F0191C08233D7
:100F30009105D9F44091C7015091C80121E08091F9
:100F4000C9019091CA01892B09F420E061E0640F86
:100F5000FA01329737E03E9FC0013F9F900D112468
:100F600081509E4F0E94610473C0C39791F42091F9
:100F7000C7013091C8012250310947E0429FC001AA
:100F8000439F900D112481509E4F0E945605811160
:100F90004FC18091C5019091C601C49709F461C108
:100FA0008091C5019091C601C59791F42091C70128
:100FB0003091C8012250310947E0429FC001439F50
:100FC000900D112481509E4F0E94560581116EC1D3
:100FD0008091C5019091C601C69791F42091C701F7
:100FE0003091C8012250310917E0129FC001139FB0
:100FF000900D112481509E4F0E94560581119EC173
:101000008091C5019091C601C79709F46AC180918A
:10101000C5019091C601C89709F4A2C18091C5018C
:101020009091C6018634910509F0C1C16091C70154
:101030007091C80141E0460F9B0122503109C9015E
:10104000880F991F820F931F83519E4F0E946C122D
:1010500080916A0190916B01892BD9F10E94ED1763
:1010600000918401109185012091860130918701C2
:10107000601B710B820B930B6133754781059105E2
:1010800040F181E090E09093690180936801809144
:10109000800190918101A0918201B09183018093A0
:1010A0007C0190937D01A0937E01B0937F0110920B
:1010B00080011092810110928201109283010E949E
:1010C000ED1760938401709385018093860190935E
:1010D00087018091600190916101892B39F18091A4
:1010E0004D01813019F520914C018091640190915E
:1010F0006501213049F401968931910554F010922F
:1011000065011092640109C0019797FF02C088E150
:1011100090E0909365018093640181E08093620187
:10112000809164018093630110924D018091C5010B
:101130009091C6010C9739F080915A0190915B0112
:10114000892B49F476C58091C7019091C80190938D
:101150005B0180935A018091060190910701892BD0
:10116000E9F060E082E00E942F1943E050E06EE574
:1011700075E080E00E94191710925F0110925E01E5
:101180000E94ED17609356017093570180935801A8
:101190009093590110920701109206010E94ED17D9
:1011A0000091560110915701209158013091590139
:1011B000601B710B820B930B613D7740810591059C
:1011C00008F437C520915E0130915F014EE1429FE6
:1011D000C001439F900D112469E470E00E948A1DB4
:1011E000E62F472F60935C0170935D0181E080934F
:1011F0005301862F972F60E071E00E948A1D809333
:1012000054012E2F342F37FF02C021503F4F30930F
:10121000550110925F0110925E010E94ED176093DC
:10122000560170935701809358019093590101C55D
:1012300061E08091C9019091CA01892B09F460E0B5
:101240002091C7013091C8012250310947E0429FE7
:10125000C001439F900D112481509E4F0E940005B4
:10126000F7CE2091C7013091C8012250310917E013
:10127000129FC001139F900D112481509E4F0E9418
:101280005605882309F48CCE2091C7013091C801FE
:1012900022503109129FC001139F900D11246091BB
:1012A000C90181509E4F0E940605D2CE41E0809137
:1012B000CB019091CC01892B09F440E02091C7012A
:1012C0003091C8012250310957E0529FC001539F0D
:1012D000900D11246091C90181509E4F0E94180504
:1012E000B7CE2091C7013091C8012250310917E0D3
:1012F000129FC001139F900D112481509E4F0E9498
:101300005605882309F483CE80E090E09091CB01CC
:101310006091C9017091CA01682779272091C7019E
:101320003091C80122503109129FC001139F900DC6
:10133000112481509E4F0E94B7048ACE2091C7018C
:101340003091C80122503109129FC001139F900DA6
:1013500011246091C90181509E4F0E94390578CEB9
:101360002091C7013091C8012250310917E0129F26
:10137000C001139F900D112481509E4F0E9456056D
:10138000882309F44BCE2091C7013091C801225027
:101390003109129FC001139F900D112481509E4F5F
:1013A0000E9452058093AA019093AB0151CE8734DD
:1013B000910519F52091C7013091C80122503109DA
:1013C000C901880F991F820F931F83519E4F0E945E
:1013D000D413882391F02091C7013091C801225085
:1013E0003109C901880F991F820F931F6091C901AC
:1013F00083519E4F0E9483122BCE8091C501909104
:10140000C6018834910559F52091C7013091C80172
:1014100022503109C901880F991F820F931F8351F0
:101420009E4F0E94D4138823D1F080E090E09091E9
:10143000CB016091C9017091CA0168277927209179
:10144000C7013091C80122503109C901880F991F85
:10145000820F931FE12C00E024E040E031C0809136
:10146000C5019091C6018934910579F52091C70194
:101470003091C80122503109C901880F991F820F8C
:10148000931F83519E4F0E94D4138823F1F080E074
:1014900090E09091CB016091C9017091CA016827D9
:1014A00079272091C7013091C80122503109C90123
:1014B000880F991F820F931FE12C00E024E041E088
:1014C00083519E4F0E945713C3CD8091C5019091C7
:1014D000C6018A34910519F52091C7013091C801E0
:1014E00022503109C901880F991F820F931F835120
:1014F0009E4F0E94D413882391F02091C701309110
:10150000C80122503109C901880F991F820F931F0A
:101510006091CB0183519E4F0E94CD131AC08091E0
:10152000C5019091C6018B34910519F52091C70131
:101530003091C80122503109C901880F991F820FCB
:10154000931F83519E4F0E94D413882391F0809162
:10155000CB0189832091C7013091C8012250310904
:10156000C901880F991F820F931F2091C90141E083
:101570000FC18091C5019091C6018C34910589F409
:101580002091C7013091C80122503109C901880F4B
:10159000991F820F931F83519E4F0E94D413811174
:1015A0001AC08091C5019091C6018D34910509F052
:1015B00075C02091C7013091C80122503109C9017D
:1015C000880F991F820F931F83519E4F0E94D4133F
:1015D000811182C063C08091C9019091CA010AE063
:1015E00010E0B8010E948A1D2091C7013091C80106
:1015F00022503109C901880F991F820F931F83510F
:101600009E4F0E94CD1389838091C9019091CA0198
:10161000B8010E948A1D2091C7013091C801225053
:101620003109A901440F551F420F531F682FCA01EA
:1016300083519E4F0E94CD1380688A838091CB0195
:101640009091CC01B8010E948A1D2091C701309170
:10165000C80122503109C901880F991F820F931FB9
:1016600083519E4F0E94CD138B838091CB0190912B
:10167000CC01B8010E948A1D2091C7013091C80198
:1016800022503109A901440F551F420F531F682FE3
:10169000CA0183519E4F0E94CD134FC08091C50156
:1016A0009091C6018E34910509F049C02091C7017F
:1016B0003091C80122503109C901880F991F820F4A
:1016C000931F83519E4F0E94D4138823C1F18FEF43
:1016D00089838A838B8331C01091C901A090CB018B
:1016E000B090CC01AA0CBB1CAA0CBB1CC12CD12CE9
:1016F000CA14DB040CF0ACCC812F0E948A18BC0108
:101700002091C7013091C80122503109C901880FC9
:10171000991F820F931FE12C00E024E040E08351E9
:101720009E4F0E9457136AEF70E080E090E00E94A5
:101730001C182FEFC21AD20ADBCF8C831CC08091F9
:10174000C5019091C6018F34910551F52091C701D3
:101750003091C80122503109C901880F991F820FA9
:10176000931F83519E4F0E94D4138823C9F019827E
:101770001A821B821C822091C7013091C80122501D
:101780003109C901880F991F820F931F20E044E09F
:10179000BE016F5F7F4F83519E4F0E940A1358CC4A
:1017A0008091C5019091C6018A35910569F48091B7
:1017B000C70180938A018091C90180938B01809138
:1017C000CB0180938C0144CC8B359105B1F46091B1
:1017D000C7017091C80141E0460F9B0122503109B9
:1017E00055E0529FC001539F900D11242091C901D3
:1017F00081539E4F0E94A2012BCC8C35910509F09C
:1018000044C06091C7017091C80141E0460F9B013F
:101810002250310955E0529FC001539F900D112471
:101820002091C90181539E4F0E94A2011091CB01CA
:1018300012FBDD24D0F8D19411FBCC24C0F8C19464
:1018400011701195E12CF12CE5E0BE2E8091C901BB
:101850009091CA01E816F9060CF0FACB6091C70125
:101860007091C80162507109B69EC001B79E900D7B
:101870001124012F2C2D4D2D6E2D81539E4F0E9432
:1018800035013FEFE31AF30AE1CF8D35910509F0F9
:1018900074C02091C9013091CA018091C701909113
:1018A000C801232BB1F49C012250310945E0429F2D
:1018B000C001439F900D112400918C0120918B0158
:1018C00040918A016091CB0181539E4F0E94350166
:1018D000BFCB9C012250310945E0429FC001439F8C
:1018E000900D112481539E4F0E94CF01E12CF12CC9
:1018F000C82ED12C15E0EC14FD040CF0A9CB2091DE
:10190000C9013091CA012130310541F48091CB01E8
:101910009091CC01E816F906B1F42BC022303105C4
:1019200041F48091CB019091CC018E159F055CF420
:1019300020C023303105E9F48091CB019091CC0196
:10194000E816F906B4F02091C7013091C801225081
:101950003109129FC001139F900D112400918C0139
:1019600020918B0140918A016E2D81539E4F0E94E0
:1019700035014FEFE41AF40ABECF8E35910509F018
:1019800052C08091CB019091CC011816190634F009
:1019900081E090E09093CC018093CB012091C7012E
:1019A0003091C8012250310945E0429FC001439F58
:1019B000900D112481539E4F0E94CF01E090C901E8
:1019C000F090CA01C82ED12C15E0EC14FD040CF0E7
:1019D0003FCB8091C9019091CA019701281B390B17
:1019E000C9016091CB017091CC010E948A1D892BA5
:1019F000B1F42091C7013091C80122503109129FE2
:101A0000C001139F900D112400918C0120918B0136
:101A100040918A016E2D81539E4F0E9435013FEF08
:101A2000E31AF30AD2CF8F35910509F084C02091D3
:101A3000C7013091C8012250310945E0429FC001E1
:101A4000439F900D112481539E4F0E94CF01182F68
:101A50008091CB019091CC01C12ED12CE12CF12CA5
:101A6000892B99F515E0EC14FD040CF0F1CA2091D6
:101A7000C9013091CA018091C7019091C801E21655
:101A8000F3067CF49C0122503109129FC001139F80
:101A9000900D112400918C0120918B0140918A01BD
:101AA0000BC09C0122503109129FC001139F900D61
:101AB000112400E020E040E06E2D81539E4F0E94F3
:101AC00035014FEFE41AF40ACECF75E0B72E960138
:101AD0002E193F0909F4BCCA8091C9019091CA012D
:101AE000A601481B590BCA014091C7015091C8017A
:101AF000612F6E19425051092817390764F0B49EBE
:101B0000C001B59E900D112400918C0120918B0194
:101B100040918A0108C0B49EC001B59E900D112469
:101B200000E020E040E081539E4F0E9435015FEFCE
:101B3000E51AF50ACCCF8D30910551F480E00E9472
:101B4000391781E090E0909307018093060160C00F
:101B50008E309105C1F441E050E068E675E080E028
:101B60000E94191781E090E090936B0180936A01C5
:101B70000E94ED1760938401709385018093860124
:101B80009093870145C08F30910541F480E00E9419
:101B9000391710926B0110926A013AC08A30910590
:101BA00051F58091880190918901019709F050CAFF
:101BB000809168018093A90180917C0190917D01C1
:101BC000A0917E01B0917F018093AA01492F5A2FE5
:101BD0006B2F772740937C0150937D0160937E01AA
:101BE00070937F014093AB01A093AC0110928901E7
:101BF000109288012DCA8031910579F48CE491E02E
:101C00000E94FD0381E090E0909361018093600168
:101C10001092C6011092C5011BCA419709F018CA5B
:101C20008CE491E00E941004109261011092600116
:101C30000FCA28960FB6F894DEBF0FBECDBFDF9156
:101C4000CF911F910F91FF90EF90DF90CF90BF90B9
:101C5000AF9008950F931F93CF93DF9301E010E0AF
:101C600087EA94E00E94DB13892B41F187EA94E034
:101C70000E94DB13049761F41092C2011092C1011B
:101C80001092C4011092C30110938901009388013E
:101C9000C091C301D091C401CE0101969093C401BB
:101CA0008093C30187EA94E00E94E313FE01EE0FE4
:101CB000FF1FEB53FE4F91838083D2CFDF91CF91F3
:101CC0001F910F9108958091C5019091C6010197D0
:101CD00031F46091BE0187EA94E00E946214809121
:101CE000C5019091C6019C012B7F2330310511F075
:101CF000C89741F443E050E069EA71E087EA94E074
:101D00000E9435148091C5019091C60188309105DB
:101D100011F0449741F444E050E069EA71E087EA49
:101D200094E00E9435148091C5019091C6018E31D6
:101D3000910511F0889741F449E050E069EA71E0BB
:101D400087EA94E00E9435148091C5019091C60104
:101D5000459751F445E150E069EA71E087EA94E083
:101D60000E9435141092A9018091C5019091C6017D
:101D70000A9781F444E050E069EA71E087EA94E070
:101D80000E94351410926901109268011092C601E8
:101D90001092C5018091C5019091C6010B9771F415
:101DA00042E050E062E671E087EA94E00E94351478
:101DB000109262011092C6011092C5018091C50176
:101DC0009091C6010C9751F443E050E063E571E057
:101DD00087EA94E00E943514109253010895F89414
:101DE00082E08093B0008093B10094E69093B300BA
:101DF0001092B20080937000789480934502109204
:101E0000A0048091440260E00C942F196093440276
:101E10000E94EF0E64E170E080E090E00E941C18E8
:101E200082E0809345021092A00408951F920F92C1
:101E30000FB60F9211242F933F934F935F936F939D
:101E40007F938F939F93AF93BF93EF93FF93809173
:101E500044020E949E1920914602309147022F5F52
:101E60003F4F30934702209346029091A0049091F7
:101E700045029330B9F018F4923039F056C09430DE
:101E800051F1953009F44BC050C081114EC0809182
:101E90004602909147028436910508F442C01092A0
:101EA000A0041BC0813009F040C0E091A0048E0F57
:101EB0008093A004F0E08091460290914702EE0FDB
:101EC000FF1FE85BFD4F91838083109247021092C1
:101ED000460284E021C0811117C0E091A00481E096
:101EE0008E0F8093A004F0E080914602909147020B
:101EF000EE0FFF1FE85BFD4F918380831092470236
:101F00001092460283E008C08091460290914702F9
:101F10008536910550F085E08093450206C0811119
:101F200004C01092470210924602FF91EF91BF91B8
:101F3000AF919F918F917F916F915F914F913F9161
:101F40002F910F900FBE0F901F90189588E492E08C
:101F5000FB01918380838091A00490E0938382832E
:101F600080914502853041F482E0809345021092D1
:101F7000A00481E090E0089580E090E008952F9221
:101F80003F924F925F926F927F928F929F92AF9209
:101F9000BF92CF92DF92EF92FF920F931F93CF9356
:101FA000DF931C01FB01DC0112962D913C911397EC
:101FB0003901B4E06B1A710877FE04C03901CBE037
:101FC0006C0E711CA4E075946794AA95E1F7D10199
:101FD0000D911C9140E050E080E090E07801B6E087
:101FE000EB0EF11CD701A40FB51F6D917C91860FEC
:101FF000971F4C5F5F4F48325105A1F76AE070E0D0
:102000000E948A1D7B014B01880C991CD8011896EF
:1020100040E050E060E070E080E090E0890109502D
:1020200011092D913C9111978216930638F42D9148
:102030003C911197820F931F6F5F7F4F6A3071053C
:1020400059F014969A012E5F3F4F4A5F5F4F401739
:10205000510714F4A901E5CF0E948A1D562EDF0115
:10206000169648E050E020E030E0CC24C394D12C18
:102070002615370544F51C928A0187E090E0E101BE
:1020800068817981600F711FEB01A880B9804C9045
:10209000B601082E01C0660F0A94EAF78A149B0461
:1020A00010F4642902C0609564216C9301970C5F61
:1020B0001F4F8F3FDFEF9D0711F72F5F3F4F1196A7
:1020C000405E5F4FD5CF85E0860D8083E101A8811A
:1020D000B98112968D919C9113978183A881B981C2
:1020E00014968D919C9115978283E3825482658228
:1020F00082E0809345021092A00480818F5FDF917F
:10210000CF911F910F91FF90EF90DF90CF90BF90F4
:10211000AF909F908F907F906F905F904F903F9087
:102120002F900895CF93DF93EC01BC010E94A60F7E
:10213000892BC1F08A819B818034910534F004970A
:102140009C0127703327232B31F082E080934502D6
:102150001092A00407C0B4E095958795BA95E1F771
:102160008A5F01C080E0DF91CF9108951F93CF93E4
:10217000DF931F92CDB7DEB7162F87EA94E049832D
:102180000E94A1146CE470E087EA94E00E94DA14E3
:10219000612F87EA94E00E9462144981642F87EAE4
:1021A00094E00E94621487EA94E00F90DF91CF914F
:1021B0001F910C94EF14462F67E00C94B610462F35
:1021C00068E00C94B610CF93DF93EC0160E00E94BE
:1021D000DB1060E0CE010E94DF1061E0CE01DF91F4
:1021E000CF910C94DB104F925F926F927F928F92FF
:1021F0009F92AF92BF92CF92DF92EF92FF920F9396
:102200001F93CF93DF9300D01F92CDB7DEB75B0152
:102210006A01790180E48B838A8389830E94ED17A8
:102220002B013C0187EA94E00E94DB131816190683
:102230006CF40E94ED176419750986099709653FCA
:1022400071408105910574F380E072C087EA94E0E3
:102250000E94E31343E050E06CE470E087EA94E00E
:102260000E94CD140E94ED172B013C018E010F5FDF
:102270001F4F480187EA94E00E94DB13892B69F124
:10228000C801881999090397D4F40E94ED172B010E
:102290003C01F8018081803490F087EA94E00E944C
:1022A000E313F80180830E94ED176419750986090C
:1022B000970963337105810591055CF3C5CF0E94D1
:1022C000ED170F5F1F4F6419750986099709653F60
:1022D00071408105910574F2B7CF898124E0829F16
:1022E000C0011124282F87FF02C023E0280F259565
:1022F0002595F50120838A81F4E08F9FC001112488
:10230000282F87FF02C023E0280F25952595F60189
:1023100020838B81F4E08F9FC0011124282F87FF39
:1023200002C023E0280F25952595F701208381E041
:102330000F900F900F90DF91CF911F910F91FF9011
:10234000EF90DF90CF90BF90AF909F908F907F9055
:102350006F905F904F9008951F920F920FB60F925B
:1023600011242F933F934F935F936F937F938F939A
:102370009F93AF93BF93EF93FF93E091A504F091E8
:10238000A6040995FF91EF91BF91AF919F918F9115
:102390007F916F915F914F913F912F910F900FBE61
:1023A0000F901F901895FC01A3E0440F551F661F66
:1023B000771FAA95D1F74115510581E0680771058E
:1023C00014F481E00EC033E07595679557954795F5
:1023D0003A95D1F74115510581E0680771051CF464
:1023E00082E0828331C023E07595679557954795C4
:1023F0002A95D1F74115510581E06807710514F45C
:1024000083E0EFCF92E075956795579547959A953C
:10241000D1F74115510581E06807710514F484E096
:10242000E0CF82E075956795579547958A95D1F7E6
:1024300085E082834115510581E06807710524F02C
:102440004FEF5FEF60E070E08FB78383F8945183C4
:102450004083509387004093860083818FBF809193
:102460008100887F80938100809181009281892BF7
:102470008093810008951092800020E120938100D4
:102480000C94D311EFE6F0E080818E7F8083089575
:10249000E1E8F0E02081DC0112968C91282B20836A
:1024A00008950F931F93CF93DF93EC018B01BA0133
:1024B000A901141615061606170614F40E94D31166
:1024C0001D830C8381E080936F00CE01DF91CF915B
:1024D0001F910F910C944812CF93DF93EC01862F3C
:1024E0006883498360E00E942F1960E089810E941F
:1024F0002F1960E088810E94681960E08981DF916E
:10250000CF910C946819683010F4685F01C06FE0D7
:10251000FC016283089561E0FC0181810E942F1912
:1025200082E390E00C944418CF93DF93EC0161E0D8
:1025300089810E942F1982E390E00E94441860E094
:1025400088810E942F1982E390E00E94441860E085
:1025500089810E942F1982E390E0DF91CF910C9442
:1025600044180F931F93CF93DF93EC01062F18E0CD
:1025700061E088810E942F1982E390E00E94441854
:1025800000FF02C060E001C061E089810E942F1954
:1025900082E390E00E94441860E088810E942F1935
:1025A00082E390E00E9444180695115009F761E01B
:1025B00088810E942F1960E089810E942F1982E38F
:1025C00090E00E94441860E088810E942F1982E305
:1025D00090E00E94441889810E949E19182F811151
:1025E00004C061E089810E942F1982E390E00E947B
:1025F000441861E088810E942F1982E390E00E94D4
:10260000441881E0111101C080E0DF91CF911F914A
:102610000F910895AF92BF92DF92EF92FF920F93C6
:102620001F93CF93DF9300D0CDB7DEB75C01F62EBA
:10263000E42E29837A830E948B1260E4C5010E94F4
:10264000B112C5010E949412C5010E948B1229810A
:10265000622F63706054C5010E94B112DF2C0F2DF0
:102660007A81172F802F8D198E1538F4F80161911A
:102670008F01C5010E94B112F5CFC5010E949412CD
:10268000C5010E948B12F50162816058C5010E944C
:10269000B112C5010F900F90DF91CF911F910F9153
:1026A000FF90EF90DF90BF90AF900C9494124F92F8
:1026B0005F926F927F928F929F92AF92BF92CF92D2
:1026C000DF92EF920F931F93CF93DF9300D000D050
:1026D000CDB7DEB73C015B01322F202F8BE1882E76
:1026E00081E0982ECE0101966C01FC0101E01FE310
:1026F000D4015E904E904D01C501B2010E948A1D29
:102700006115710561F4411106C0002321F08E2F7F
:102710008C19833011F4108313C0108211C0A62FBE
:10272000AF70B0E0A55EBE4F8C918083649DC00108
:10273000659D900D749D900D1124A81AB90A00E0B2
:10274000EE2039F08E2F8C19813019F48081806849
:1027500080833196B3E18B16B1E09B0649F664E0C5
:1027600070E0631B71096C0D7D1D432FC3010E9436
:102770000A130F900F900F900F90DF91CF911F9140
:102780000F91EF90DF90CF90BF90AF909F908F9080
:102790007F906F905F904F9008956F70E62FF0E0FC
:1027A000E55EFE4F80810895FC0181E090819111EA
:1027B00001C080E008958091DB0490E02091DC046A
:1027C000821B910908952091DC048091DB04281775
:1027D00050F4E22FF0E0E352FB4F808190E02F5F56
:1027E0002093DC0408958FEF9FEF0895E091DC04BF
:1027F0008091DB04E81730F4F0E0E352FB4F808176
:1028000090E008958FEF9FEF08950895E091B3044D
:10281000F091B4043097E1F03091DC042091DB04B6
:102820003217B0F040E0242F30E02617370754F479
:10283000DC01A20FB31F5C91D901A352BB4F5C9383
:102840004F5FF1CF1092DC046093DB04CB0109945D
:102850000895E091B504F091B604309729F01092F4
:10286000B9041092B80409940895CF92DF92EF92C0
:10287000FF920F931F93CF93DF937C01CB018A01CB
:102880002091B704222389F0EB016B01C40ED51E01
:10289000CC15DD0569F06991D701ED91FC910190AE
:1028A000F081E02DC7010995F3CF642F0E94B9157F
:1028B000C801DF91CF911F910F91FF90EF90DF90B2
:1028C000CF900895CF93DF931F92CDB7DEB7698382
:1028D0002091B7042223D1F02091B804203240F097
:1028E00021E030E0FC013383228380E090E015C0DA
:1028F0008091B904E82FF0E0E654FB4F9981908372
:102900008F5F8093B9048093B80405C061E0CE0165
:1029100001960E94B91581E090E00F90DF91CF9170
:102920000895FC011382128248EE53E060E070E0EB
:1029300044835583668377838FE291E0918380831C
:1029400008951092DC041092DB041092B9041092E6
:10295000B8040C940015CF93DF93EC01862F0E94EE
:102960001E1589E294E10E94D71586E094E10E9449
:10297000D215CE01DF91CF910C94A1140C94AB141D
:10298000862F413208F040E26DED74E00E9422157E
:102990001092DC048093DB04089521E00C94C014B1
:1029A00081E08093B7046093DA041092B904109226
:1029B000B80408950C94D0140F93062F21E0409191
:1029C000B8046AEB74E08091DA040E9466151092F4
:1029D000B9041092B8041092B7040F91089561E001
:1029E0000C94DC147093B4046093B3040895709352
:1029F000B6046093B504089587EA94E00C949114AA
:102A000010926A0581E0809368051092670561E085
:102A100082E10E94681961E083E10E946819E9EB94
:102A2000F0E080818E7F808380818D7F808388E449
:102A30008093B80085E48093BC000895880F80934C
:102A4000BA000895413208F03FC090916A05911193
:102A5000FCCF91E090936A05209368052FEF2093B7
:102A6000FD0410924205240F2093410590936905BF
:102A700090916905880F892B80936905809167057E
:102A8000813041F410926705809169058093BB0005
:102A900085EC01C085EE8093BC0080916A05813091
:102AA000E1F380914205841710F44091420523E43C
:102AB00035E0FB01D9018A2F821B841718F48D9110
:102AC0008193F9CF842F089580E008950F934132C8
:102AD00008F046C090916A059111FCCF92E0909366
:102AE0006A05009368059FEF9093FD0410924205DC
:102AF00040934105FB0163E475E0DB019A2F961BCF
:102B0000941718F491919D93F9CF109269059091C3
:102B10006905880F892B809369058091670581304D
:102B200041F410926705809169058093BB0085ECA4
:102B300001C085EE8093BC00222321F080916A05BC
:102B40008230E1F38091FD048F3F61F08091FD04BC
:102B5000803251F08091FD04803341F483E007C05E
:102B600081E005C080E003C082E001C084E00F91F5
:102B70000895613298F420916A05243089F46093B5
:102B80001F05FC0181E295E0DC012A2F281B261796
:102B900018F421912D93F9CF80E0089581E00895F4
:102BA00082E008959093640580936305089590935F
:102BB000660580936505089585ED8093BC0080913E
:102BC000BC0084FDFCCF10926A05089585EC8093CB
:102BD000BC0010926A0508951F920F920FB60F92D3
:102BE00011242F933F934F935F936F937F938F9312
:102BF0009F93AF93BF93EF93FF938091B900887F2A
:102C0000803609F49CC068F5883209F45BC090F402
:102C1000803109F454C038F4882309F4F5C08830B1
:102C200009F44DC0F5C0883109F44CC0803209F474
:102C30005DC0EEC0803409F468C048F4803309F404
:102C400055C0883309F0E4C08093FD04A8C08035E6
:102C500009F44FC0883509F45DC0883409F0D8C044
:102C6000D5C0883909F4C6C0A8F4883709F467C00C
:102C700038F4883609F463C0803709F460C0C8C0EE
:102C8000883809F4B7C0803909F45FC0803809F08A
:102C9000BFC05BC0803B09F485C038F4803A09F4BA
:102CA00066C0883A09F47EC0B3C0803C09F4A6C06F
:102CB000883C09F4A3C0883B09F489C0A9C080916D
:102CC000690510C09091420580914105981770F5F3
:102CD000E091420581E08E0F80934205F0E0ED5BCC
:102CE000FA4F80818093BB0085EC85C08093FD0402
:102CF0008DC0E091420581E08E0F80934205809166
:102D0000BB00F0E0ED5BFA4F80839091420580912B
:102D100041056DC0E091420581E08E0F8093420530
:102D20008091BB00F0E0ED5BFA4F808380916805F5
:102D300081116CC081E08093670584EA60C083E004
:102D400080936A051092FE04CFCF8091FE048032FA
:102D500008F050C0E091FE0481E08E0F8093FE04E5
:102D60008091BB00F0E0E150FB4F8083BDCF8091AC
:102D7000FE04803230F4E091FE04F0E0E150FB4FBD
:102D800010820E94DC156091FE0470E0E091630502
:102D9000F09164058FEF94E009951092FE040E9473
:102DA000E61536C084E080936A05109220051092E3
:102DB0001F05E0916505F0916605099580911F0555
:102DC000811105C081E080931F0510922105E091DB
:102DD000200581E08E0F80932005F0E0EF5DFA4F33
:102DE00080818093BB009091200580911F059817EA
:102DF00008F47ACF85E88093BC000AC085EC809304
:102E0000BC0010926A0504C01092FD040E94DC15FB
:102E1000FF91EF91BF91AF919F918F917F916F91B2
:102E20005F914F913F912F910F900FBE0F901F9088
:102E300018958230E8F4E82FF0E0EE0FFF1FE55917
:102E4000FA4F71836083813041F0809169008C7FFB
:102E5000842B80936900E89A089580916900440F5B
:102E6000551F440F551F837F842B80936900E99A77
:102E70000895823068F4813011F0E89801C0E99833
:102E8000E82FF0E0EE0FFF1FE559FA4F1182108294
:102E900008951F920F920FB60F9211242F933F9314
:102EA0004F935F936F937F938F939F93AF93BF9352
:102EB000EF93FF9380916B0590916C05892B29F01E
:102EC000E0916B05F0916C050995FF91EF91BF9131
:102ED000AF919F918F917F916F915F914F913F91B2
:102EE0002F910F900FBE0F901F9018951F920F9269
:102EF0000FB60F9211242F933F934F935F936F93CD
:102F00007F938F939F93AF93BF93EF93FF938091A2
:102F10006D0590916E05892B29F0E0916D05F0917A
:102F20006E050995FF91EF91BF91AF919F918F91A0
:102F30007F916F915F914F913F912F910F900FBEB5
:102F40000F901F9018951F920F920FB60F92112499
:102F50002F933F938F939F93AF93BF93809170056F
:102F600090917105A0917205B091730530916F0534
:102F700023E0230F2D3720F40196A11DB11D05C0BC
:102F800026E8230F0296A11DB11D20936F058093A3
:102F9000700590937105A0937205B09373058091AD
:102FA000740590917505A0917605B091770501960D
:102FB000A11DB11D8093740590937505A0937605AE
:102FC000B0937705BF91AF919F918F913F912F91D2
:102FD0000F900FBE0F901F9018952FB7F894609127
:102FE00070057091710580917205909173052FBFE6
:102FF00008953FB7F8948091740590917505A0915C
:103000007605B091770526B5A89B05C02F3F19F02E
:103010000196A11DB11D3FBF6627782F892F9A2FDA
:10302000620F711D811D911D42E0660F771F881F81
:10303000991F4A95D1F70895CF92DF92EF92FF92B0
:10304000CF93DF936B017C010E94F917EB01C11450
:10305000D104E104F10489F00E94E81A0E94F917F2
:103060006C1B7D0B683E734090F381E0C81AD10859
:10307000E108F108C851DC4FEACFDF91CF91FF9012
:10308000EF90DF90CF9008958230910538F0880F4F
:10309000991F880F991F05970197F1F70895789464
:1030A00084B5826084BD84B5816084BD85B582604D
:1030B00085BD85B5816085BDEEE6F0E080818160EB
:1030C0008083E1E8F0E010828081826080838081EB
:1030D00081608083E0E8F0E0808181608083E1EBC3
:1030E000F0E0808184608083E0EBF0E080818160AB
:1030F0008083EAE7F0E08081846080838081826061
:103100008083808181608083808180688083109249
:10311000C10008958E3008F08E508770209108010C
:1031200090E4299F90011124822B80937C00809150
:103130007A00806480937A0080917A0086FDFCCFCB
:10314000809178002091790090E0922B08951F9350
:10315000CF93DF93182FEB0161E00E942F19209786
:1031600011F460E004C0CF3FD10539F461E0812F54
:10317000DF91CF911F910C946819E12FF0E0E8598D
:10318000FF4FE491E330F9F048F4E130B9F0E23078
:10319000A1F584B5806284BDC8BD34C0E730E9F0D4
:1031A000E83019F1E43049F5809180008062809325
:1031B0008000D0938B00C0938A0024C084B58068BF
:1031C00084BDC7BD1FC0809180008068809380004F
:1031D000D0938900C093880015C08091B0008068AA
:1031E0008093B000C093B3000DC08091B0008062A6
:1031F0008093B000C093B40005C0C038D1050CF076
:10320000B5CFAFCFDF91CF911F910895833081F07B
:1032100028F4813099F08230A1F008958730A9F028
:103220008830B9F08430D1F4809180008F7D03C064
:10323000809180008F7780938000089584B58F7788
:1032400002C084B58F7D84BD08958091B0008F77D2
:1032500003C08091B0008F7D8093B0000895CF931C
:10326000DF9390E0FC01E458FF4F2491FC01E0570C
:10327000FF4F8491882349F190E0880F991FFC014A
:10328000E854FF4FA591B49182559F4FFC01C59121
:10329000D4919FB7611108C0F8948C912095822336
:1032A0008C93888182230AC0623051F4F8948C9107
:1032B000322F309583238C938881822B888304C09E
:1032C000F8948C91822B8C939FBFDF91CF910895BE
:1032D0000F931F93CF93DF931F92CDB7DEB7282FA5
:1032E00030E0F901E859FF4F8491F901E458FF4FAC
:1032F0001491F901E057FF4F04910023C9F088238E
:1033000021F069830E9406196981E02FF0E0EE0F39
:10331000FF1FE255FF4FA591B4919FB7F8948C9190
:10332000611103C01095812301C0812B8C939FBF35
:103330000F90DF91CF911F910F910895CF93DF935D
:10334000282F30E0F901E859FF4F8491F901E45842
:10335000FF4FD491F901E057FF4FC491CC2391F076
:1033600081110E940619EC2FF0E0EE0FFF1FEC55C3
:10337000FF4FA591B4912C912D2381E090E021F491
:1033800080E002C080E090E0DF91CF9108950F933C
:103390001F93762F90E0FC01E458FF4F6491FC01ED
:1033A000E057FF4FE4917111762FF0E0EE0FFF1F11
:1033B000EC55FF4F8591949189019A013F70472FF9
:1033C0000E948E00611571058105910531F06F5FD6
:1033D0007F4F8F4F9F4F9F7003C060E070E0CB0125
:1033E0001F910F9108951F920F920FB60F92112403
:1033F0002F938F939F93EF93FF93E0918805F09124
:1034000089058081E0918E05F0918F0582FD12C0C3
:103410009081809191058F5F8F7320919205821723
:1034200051F0E0919105F0E0E858FA4F958F8093C4
:10343000910501C08081FF91EF919F918F912F9114
:103440000F900FBE0F901F9018951F920F920FB6FE
:103450000F9211242F933F934F935F936F937F931A
:103460008F939F93AF93BF93EF93FF9388E795E07C
:103470000E94241BFF91EF91BF91AF919F918F917B
:103480007F916F915F914F913F912F910F900FBE60
:103490000F901F90189588E795E00E94E91A21E0A7
:1034A000892B09F420E0822F089510927B05109259
:1034B0007A0588EE93E0A0E0B0E080937C059093DD
:1034C0007D05A0937E05B0937F058FE391E09093F7
:1034D00079058093780585EC90E09093850580933D
:1034E000840584EC90E0909387058093860580ECBA
:1034F00090E0909389058093880581EC90E090930B
:103500008B0580938A0582EC90E090938D058093E3
:103510008C0586EC90E090938F0580938E05109239
:1035200091051092920510929305109294050895BA
:1035300008950E944F180E94981A0E94E205C6E161
:10354000DBE10E94FB052097E1F30E94161BF9CFF7
:10355000CF92DF92EF92FF920F931F93CF93DF935F
:103560006C017A01EB01E60EF71E00E010E0CE15CB
:10357000DF0561F06991D601ED91FC910190F08138
:10358000E02DC6010995080F191FF1CFC801DF9181
:10359000CF911F910F91FF90EF90DF90CF90089502
:1035A0006115710581F0DB010D900020E9F7AD0197
:1035B00041505109461B570BDC01ED91FC910280F3
:1035C000F381E02D099480E090E008950C94D01AE6
:1035D0000895FC01818D228D90E0805C9F4F821BBD
:1035E00091098F7399270895FC01918D828D981709
:1035F00031F0828DE80FF11D858D90E008958FEFF9
:103600009FEF0895FC01918D828D981761F0828D56
:10361000DF01A80FB11D5D968C91928D9F5F9F7306
:10362000928F90E008958FEF9FEF08958BE49AE1D9
:10363000892B49F080E090E0892B29F00E944B1AF9
:1036400081110C9400000895FC01848DDF01A80F06
:10365000B11DA35ABF4F2C91848D90E001968F73BA
:103660009927848FA689B7892C93A089B1898C91D9
:1036700080648C93938D848D981306C00288F3899F
:10368000E02D80818F7D80830895CF93DF93EC01BF
:10369000888D8823C9F0EA89FB89808185FD05C072
:1036A000A889B9898C9186FD0FC00FB607FCF5CFAC
:1036B000808185FFF2CFA889B9898C9185FFEDCFF4
:1036C000CE010E94241BE7CFDF91CF910895CF92C6
:1036D000DF92FF920F931F93CF93DF931F92CDB78B
:1036E000DEB76C0181E0D60158968C9358975B96B3
:1036F0009C915B975C968C915C97981307C0509651
:10370000ED91FC915197808185FD2EC0F601038DCE
:1037100010E00F5F1F4F0F731127F02EF601848DFD
:10372000F81211C00FB607FCF9CFD6015096ED91F3
:10373000FC915197808185FFF1CFC60169830E947A
:10374000241B6981EBCF838DE80FF11DE35AFF4FF6
:103750006083D6015B960C935B975296ED91FC913A
:103760005397808180620CC0D6015696ED91FC91F2
:10377000579760835096ED91FC91519780818064BA
:10378000808381E090E00F90DF91CF911F910F91A6
:10379000FF90DF90CF9008955058BB27AA270ED0F6
:1037A0001CC10DD130F012D120F031F49F3F11F443
:1037B0001EF402C10EF4E095E7FBF8C0E92F1ED11C
:1037C00080F3BA17620773078407950718F071F43E
:1037D0009EF536C10EF4E0950B2EBA2FA02D0B01ED
:1037E000B90190010C01CA01A0011124FF27591B46
:1037F00099F0593F50F4503E68F11A16F040A22F4C
:10380000232F342F4427585FF3CF469537952795BC
:10381000A795F0405395C9F77EF41F16BA0B620BBB
:10382000730B840BBAF09150A1F0FF0FBB1F661F02
:10383000771F881FC2F70EC0BA0F621F731F841F45
:1038400048F4879577956795B795F7959E3F08F06B
:10385000B3CF9395880F08F09927EE0F979587952A
:1038600008950CD0BAC0B2D040F0A9D030F021F405
:103870005F3F19F09BC05111E4C09EC0BFD098F3C8
:103880009923C9F35523B1F3951B550BBB27AA27E1
:1038900062177307840738F09F5F5F4F220F331F53
:1038A000441FAA1FA9F333D00E2E3AF0E0E830D01F
:1038B00091505040E695001CCAF729D0FE2F27D022
:1038C000660F771F881FBB1F261737074807AB07F0
:1038D000B0E809F0BB0B802DBF01FF2793585F4F65
:1038E0002AF09E3F510568F061C0ABC05F3FECF32A
:1038F000983EDCF3869577956795B795F7959F5F2A
:10390000C9F7880F911D9695879597F90895E1E07D
:10391000660F771F881FBB1F621773078407BA07DC
:1039200020F0621B730B840BBA0BEE1F88F7E09537
:103930000895E89409C097FB3EF4909580957095A2
:1039400061957F4F8F4F9F4F9923A9F0F92F96E9EB
:10395000BB279395F695879577956795B795F11160
:10396000F8CFFAF4BB0F11F460FF1BC06F5F7F4FFD
:103970008F4F9F4F16C0882311F096E911C077230F
:1039800021F09EE8872F762F05C0662371F096E818
:10399000862F70E060E02AF09A95660F771F881FE7
:1039A000DAF7880F9695879597F9089597F99F67A5
:1039B00080E870E060E008959FEF80EC08950024B7
:1039C0000A941616170618060906089500240A9484
:1039D00012161306140605060895092E0394000C0A
:1039E00011F4882352F0BB0F40F4BF2B11F460FF99
:1039F00004C06F5F7F4F8F4F9F4F089557FD9058C2
:103A0000440F551F59F05F3F71F04795880F97FBA2
:103A1000991F61F09F3F79F087950895121613065C
:103A20001406551FF2CF4695F1DF08C0161617068B
:103A30001806991FF1CF86957105610508940895C0
:103A4000E894BB2766277727CB0197F908950BD019
:103A5000C4CFB5DF28F0BADF18F0952309F0A6CF60
:103A6000ABCF1124EECFCADFA0F3959FD1F3950F12
:103A700050E0551F629FF001729FBB27F00DB11DF2
:103A8000639FAA27F00DB11DAA1F649F6627B00D82
:103A9000A11D661F829F2227B00DA11D621F739F6B
:103AA000B00DA11D621F839FA00D611D221F749F79
:103AB0003327A00D611D231F849F600D211D822FC0
:103AC000762F6A2F11249F5750408AF0E1F0882307
:103AD0004AF0EE0FFF1FBB1F661F771F881F915014
:103AE0005040A9F79E3F510570F060CFAACF5F3FCD
:103AF000ECF3983EDCF3869577956795B795F79547
:103B0000E7959F5FC1F7FE2B880F911D96958795CE
:103B100097F9089597FB072E16F4009407D077FDC8
:103B200009D00E94DF1D07FC05D03EF490958195D9
:103B30009F4F0895709561957F4F0895A1E21A2EC9
:103B4000AA1BBB1BFD010DC0AA1FBB1FEE1FFF1F41
:103B5000A217B307E407F50720F0A21BB30BE40B91
:103B6000F50B661F771F881F991F1A9469F76095D8
:103B70007095809590959B01AC01BD01CF01089592
:103B8000052E97FB1EF400940E94D71D57FD07D009
:103B90000E949E1D07FC03D04EF40C94D71D509537
:103BA0004095309521953F4F4F4F5F4F0895909529
:103BB0008095709561957F4F8F4F9F4F0895AA1BF9
:103BC000BB1B51E107C0AA1FBB1FA617B70710F008
:103BD000A61BB70B881F991F5A95A9F7809590953A
:103BE000BC01CD010895EE0FFF1F0590F491E02D6B
:103BF00009940F931F93CF93DF93869F8001879F34
:103C0000100D969F100D1124C8010E94151EEC0185
:103C1000009729F0A80160E070E00E943C1FCE01EF
:103C2000DF91CF911F910F910895CF93DF93823051
:103C3000910510F482E090E0E0911706F0911806EB
:103C400020E030E0A0E0B0E0309739F140815181D0
:103C500048175907B8F04817590771F482819381C2
:103C6000109729F013969C938E9312972CC09093E3
:103C700018068093170627C02115310531F0421729
:103C8000530718F0A901DB0101C0EF019A01BD0142
:103C9000DF010280F381E02DD7CF21153105F9F046
:103CA000281B390B2430310580F48A819B816115F2
:103CB000710521F0FB019383828304C09093180661
:103CC00080931706FE01329644C0FE01E20FF31FF7
:103CD0008193919322503109398328833AC02091EE
:103CE000150630911606232B41F4209102013091E4
:103CF00003013093160620931506209100013091A0
:103D000001012115310541F42DB73EB74091040161
:103D100050910501241B350BE0911506F091160614
:103D2000E217F307A0F42E1B3F0B2817390778F092
:103D3000AC014E5F5F4F2417350748F04E0F5F1FF1
:103D400050931606409315068193919302C0E0E0CC
:103D5000F0E0CF01DF91CF910895CF93DF930097EB
:103D600009F487C0FC01329713821282C0911706B2
:103D7000D0911806209781F420813181280F391FB6
:103D800080911506909116068217930779F5F093A6
:103D90001606E09315066DC0DE0120E030E0AE1798
:103DA000BF0750F412964D915C9113979D014115F8
:103DB000510509F1DA01F3CFB383A2834081518128
:103DC000840F951F8A179B0771F48D919C91119711
:103DD000840F951F02969183808312968D919C91FA
:103DE0001397938382832115310529F4F0931806E4
:103DF000E09317063EC0D9011396FC93EE931297F9
:103E00004D915D91A40FB51FEA17FB0779F48081EE
:103E10009181840F951F0296D90111969C938E93E0
:103E20008281938113969C938E931297E0E0F0E049
:103E30008A819B81009719F0FE01EC01F9CFCE0138
:103E4000029628813981820F931F209115063091A7
:103E500016062817390769F4309729F410921806C6
:103E60001092170602C013821282D0931606C093D6
:103E70001506DF91CF910895DC0101C06D9341508B
:0A3E80005040E0F70895F894FFCFDA
:103E8A000000190680000100015265616420666124
:103E9A00696C0001000A006400E8033F065B4F6694
:103EAA006D7D077F6F777C395E7971000000006253
:103EBA00143514DB13E313F613051400000000672E
:0C3ECA001BA81AE91A021BF41A451B0081
:00000001FF
