:100000000C9464000C941E1E0C944B1E0C948C00DB
:100010000C948C000C9495160C948C000C94D904C0
:100020000C948C000C948C000C948C000C94E414B4
:100030000C948C000C94FC020C948C000C948C009E
:100040000C94201A0C948C000C94171F0C945A1FBB
:100050000C948C000C948C000C948C000C948C00F0
:100060000C94F3180C948C000000000700020100AF
:100070000003040600000000000000000102040864
:100080001020408001020408102001020408102002
:10009000040404040404040402020202020203032E
:1000A00003030303000000002300260029000000D2
:1000B0000000250028002B0000000000240027007D
:1000C0002A00DE160318951F11241FBECFEFD8E0BB
:1000D000DEBFCDBF11E0A0E0B1E0E0E9F5E402C091
:1000E00005900D92AE3AB107D9F727E0AEEAB1E03C
:1000F00001C01D92A331B207E1F710E0C8ECD0E0D7
:1001000004C02297FE010E949022C23CD107C9F789
:100110000E94781E0C94C6220C940000CF93DF93AB
:10012000EC0160E088810E94671B84E190E00E94FE
:10013000BF1A61E088810E94671B84E190E0DF9133
:10014000CF910C94BF1A0F931F93CF93DF93EC01C1
:10015000062F18E007FF02C061E001C060E089815E
:100160000E94671BCE010E948E00000F115091F774
:10017000DF91CF911F910F910895EF92FF921F93FE
:10018000CF93DF9300D0CDB7DEB77C01162F27FFCA
:1001900002C060EC01C060EE26FF606147FF68604E
:1001A00046FF646017FF626016FF6160C701298324
:1001B0004A830E94A3002981622FC7010E94A300E5
:1001C0004A81642FC7010E94A300612FC7010F90CD
:1001D0000F90DF91CF911F91FF90EF900C94A300AF
:1001E0007F928F929F92AF92BF92CF92DF92EF92C7
:1001F000FF920F931F93CF93DF93EC01162F942E52
:10020000822E60E00E94A30060E0CE010E94A30065
:1002100060E0CE010E94A30060E0CE010E94A30036
:1002200083E0189F7001112467018FEFC81AD80A64
:10023000570182E0A80EB11C712C8A81781600F556
:1002400071120FC0EB81FC81EE0DFF1D9082EB81DE
:10025000FC81EC0DFD1D8082EB81FC81EA0DFB1D14
:100260000083EB81FC8183E0789EE00DF11D112479
:10027000228141816081CE010E94BD007394DDCF57
:1002800060E0CE010E94A30060E0CE010E94A300C6
:1002900060E0CE010E94A30060E0CE01DF91CF912B
:1002A0001F910F91FF90EF90DF90CF90BF90AF9094
:1002B0009F908F907F900C94A3000F931F93CF93E8
:1002C000DF93EC01862F688349832A8361E00E94D3
:1002D0002E1B61E089810E942E1B8A8161E070E003
:1002E00023E0829FC00111240E94A3229C838B8360
:1002F00010E08A81181748F400E020E040E0612F08
:10030000CE010E94F0001F5FF4CFDF91CF911F91CB
:100310000F910895FC0182810895CF93DF93EC0142
:10032000862F6883498360E00E942E1B60E08981EC
:100330000E942E1B60E088810E94671B60E089811B
:10034000DF91CF910C94671B683010F4685F01C097
:100350006FE0FC016283089561E0FC0181810E94ED
:100360002E1B82E390E00C94BF1ACF93DF93EC0135
:1003700061E089810E942E1B82E390E00E94BF1AF7
:1003800060E088810E942E1B82E390E00E94BF1AE9
:1003900060E089810E942E1B82E390E0DF91CF9183
:1003A0000C94BF1A0F931F93CF93DF93EC01062F8A
:1003B00018E061E088810E942E1B82E390E00E9499
:1003C000BF1A00FF02C060E001C061E089810E94A5
:1003D0002E1B82E390E00E94BF1A60E088810E9499
:1003E0002E1B82E390E00E94BF1A0695115009F778
:1003F00061E088810E942E1B60E089810E942E1B93
:1004000082E390E00E94BF1A60E088810E942E1B68
:1004100082E390E00E94BF1A89810E949D1B182FE1
:10042000811104C061E089810E942E1B82E390E06B
:100430000E94BF1A61E088810E942E1B82E390E037
:100440000E94BF1A81E0111101C080E0DF91CF91BD
:100450001F910F910895AF92BF92DF92EF92FF929A
:100460000F931F93CF93DF9300D0CDB7DEB75C011E
:10047000F62EE42E29837A830E94AC0160E4C50144
:100480000E94D201C5010E94B501C5010E94AC01C4
:100490002981622F63706054C5010E94D201DF2C54
:1004A0000F2D7A81172F802F8D198E1538F4F801B2
:1004B00061918F01C5010E94D201F5CFC5010E9453
:1004C000B501C5010E94AC01F50162816058C5010A
:1004D0000E94D201C5010F900F90DF91CF911F9123
:1004E0000F91FF90EF90DF90BF90AF900C94B5010B
:1004F0004F925F926F927F928F929F92AF92BF9234
:10050000CF92DF92EF920F931F93CF93DF9300D0A0
:1005100000D0CDB7DEB73C015B01322F202F84E63F
:10052000882E81E0982ECE0101966C01FC0101E03D
:100530001FE3D4015E904E904D01C501B2010E94AF
:100540001A226115710561F4411106C0002321F0E2
:100550008E2F8C19833011F4108313C0108211C0B8
:10056000A62FAF70B0E0AC59BE4F8C918083649DD4
:10057000C001659D900D749D900D1124A81AB90AB3
:1005800000E0EE2039F08E2F8C19813019F4808133
:10059000806880833196BCE58B16B1E09B0649F6F6
:1005A00064E070E0631B71096C0D7D1D432FC30176
:1005B0000E942B020F900F900F900F90DF91CF9120
:1005C0001F910F91EF90DF90CF90BF90AF909F90D1
:1005D0008F907F906F905F904F9008956F70E62F8F
:1005E000F0E0EC59FE4F80810895FC0181E090819C
:1005F000911101C080E008951F920F920FB60F92E3
:1006000011242F933F934F935F936F937F938F9317
:100610009F93AF93BF93EF93FF93E091B201F0915B
:10062000B3010995FF91EF91BF91AF919F918F9188
:100630007F916F915F914F913F912F910F900FBEDE
:100640000F901F901895FC01A3E0440F551F661FE3
:10065000771FAA95D1F74115510581E0680771050B
:1006600014F481E00EC033E0759567955795479572
:100670003A95D1F74115510581E0680771051CF4E1
:1006800082E0828331C023E0759567955795479541
:100690002A95D1F74115510581E06807710514F4D9
:1006A00083E0EFCF92E075956795579547959A95BA
:1006B000D1F74115510581E06807710514F484E014
:1006C000E0CF82E075956795579547958A95D1F764
:1006D00085E082834115510581E06807710524F0AA
:1006E0004FEF5FEF60E070E08FB78383F894518342
:1006F0004083509387004093860083818FBF809111
:100700008100887F80938100809181009281892B74
:100710008093810008951092800020E12093810051
:100720000C942303EFE6F0E080818E7F80830895B0
:10073000E1E8F0E02081DC0112968C91282B2083E7
:1007400008950F931F93CF93DF93EC018B01BA01B0
:10075000A901141615061606170614F40E942303A1
:100760001D830C8381E080936F00CE01DF91CF91D8
:100770001F910F910C9498031F93CF93DF931F92B7
:10078000CDB7DEB7162F84E995E049830E94A817FC
:100790006CE470E084E995E00E94E117612F84E940
:1007A00095E00E9469174981642F84E995E00E94D1
:1007B000691784E995E00F90DF91CF911F910C9418
:1007C000F617462F67E00C94BC03462F68E00C94A4
:1007D000BC03CF93DF93EC0160E00E94E10360E093
:1007E000CE010E94E50361E0CE01DF91CF910C9430
:1007F000E1034F925F926F927F928F929F92AF929E
:10080000BF92CF92DF92EF92FF920F931F93CF93FD
:10081000DF9300D01F92CDB7DEB75B016A0179018B
:1008200080E48B838A8389830E946A1A2B013C01AE
:1008300084E995E00E94E216181619066CF40E94ED
:100840006A1A6419750986099709653F714081051F
:10085000910574F380E072C084E995E00E94EA1685
:1008600043E050E06CE470E084E995E00E94D41726
:100870000E946A1A2B013C018E010F5F1F4F480135
:1008800084E995E00E94E216892B69F1C801881974
:1008900099090397D4F40E946A1A2B013C01F801CC
:1008A0008081803490F084E995E00E94EA16F80196
:1008B00080830E946A1A641975098609970963334F
:1008C0007105810591055CF3C5CF0E946A1A0F5F1F
:1008D0001F4F6419750986099709653F71408105A5
:1008E000910574F2B7CF898124E0829FC001112461
:1008F000282F87FF02C023E0280F25952595F501B5
:1009000020838A81F4E08F9FC0011124282F87FF64
:1009100002C023E0280F25952595F60120838B81C1
:10092000F4E08F9FC0011124282F87FF02C023E02D
:10093000280F25952595F701208381E00F900F90D2
:100940000F90DF91CF911F910F91FF90EF90DF906B
:10095000CF90BF90AF909F908F907F906F905F905F
:100960004F900895F89482E08093B0008093B10096
:1009700094E69093B3001092B20080937000789444
:100980008093B901109214048091B80160E00C9436
:100990002E1B6093B8010E94B20464E170E080E015
:1009A00090E00E94991A82E08093B9011092140499
:1009B00008951F920F920FB60F9211242F933F9319
:1009C0004F935F936F937F938F939F93AF93BF9357
:1009D000EF93FF938091B8010E949D1B2091BA0173
:1009E0003091BB012F5F3F4F3093BB012093BA0181
:1009F000909114049091B9019330B9F018F49230A9
:100A000039F056C0943051F1953009F44BC050C0C4
:100A100081114EC08091BA019091BB01843691053D
:100A200008F442C0109214041BC0813009F040C089
:100A3000E09114048E0F80931404F0E08091BA01C9
:100A40009091BB01EE0FFF1FE454FE4F9183808312
:100A50001092BB011092BA0184E021C0811117C02D
:100A6000E091140481E08E0F80931404F0E08091F3
:100A7000BA019091BB01EE0FFF1FE454FE4F91832A
:100A800080831092BB011092BA0183E008C080916C
:100A9000BA019091BB018536910550F085E08093B5
:100AA000B90106C0811104C01092BB011092BA01B5
:100AB000FF91EF91BF91AF919F918F917F916F9136
:100AC0005F914F913F912F910F900FBE0F901F900C
:100AD00018958CEB91E0FB01918380838091140445
:100AE00090E0938382838091B901853041F482E064
:100AF0008093B9011092140481E090E0089580E0A1
:100B000090E008952F923F924F925F926F927F9262
:100B10008F929F92AF92BF92CF92DF92EF92FF920D
:100B20000F931F93CF93DF931C01FB01DC011296FF
:100B30002D913C9113973901B4E06B1A710877FE3F
:100B400004C03901CBE06C0E711CA4E0759467946D
:100B5000AA95E1F7D1010D911C9140E050E080E0B1
:100B600090E07801B6E0EB0EF11CD701A40FB51FA1
:100B70006D917C91860F971F4C5F5F4F48325105F6
:100B8000A1F76AE070E00E941A227B014B01880CF9
:100B9000991CD801189640E050E060E070E080E0D9
:100BA00090E08901095011092D913C91119782160D
:100BB000930638F42D913C911197820F931F6F5F2C
:100BC0007F4F6A30710559F014969A012E5F3F4F9E
:100BD0004A5F5F4F4017510714F4A901E5CF0E9407
:100BE0001A22562EDF01169648E050E020E030E051
:100BF000CC24C394D12C2615370544F51C928A01C8
:100C000087E090E0E10168817981600F711FEB015D
:100C1000A880B9804C90B601082E01C0660F0A94D6
:100C2000EAF78A149B0410F4642902C060956421D9
:100C30006C9301970C5F1F4F8F3FDFEF9D0711F7FC
:100C40002F5F3F4F1196405E5F4FD5CF85E0860DF9
:100C50008083E101A881B98112968D919C911397AF
:100C60008183A881B98114968D919C911597828377
:100C7000E3825482658282E08093B9011092140469
:100C800080818F5FDF91CF911F910F91FF90EF9047
:100C9000DF90CF90BF90AF909F908F907F906F909C
:100CA0005F904F903F902F900895CF93DF93EC018A
:100CB000BC010E946905892BC1F08A819B81803427
:100CC000910534F004979C0127703327232B31F0D2
:100CD00082E08093B9011092140407C0B4E09595A6
:100CE0008795BA95E1F78A5F01C080E0DF91CF91E7
:100CF000089584E995E00C94A817CF93DF93EC0155
:100D000068E670E084E995E00E94E11760E084E91C
:100D100095E00E94691784E995E00E94F61747E084
:100D200050E068E670E084E995E00E94D41784E919
:100D300095E00E94EA16282F2695269526952E7076
:100D4000922F990F990F920F8F70980F988384E9C3
:100D500095E00E94EA16982F92959F708F702AE076
:100D6000929F800D1124898384E995E00E94EA1600
:100D7000282F2695269526952670922F990F990F44
:100D8000920F8F70980F9A8384E995E00E94EA167B
:100D9000982F92959F708F702AE0929F800D11245A
:100DA0008B8384E995E00E94EA16982F92959F70B4
:100DB0008F702AE0929F800D11248C8384E995E046
:100DC0000E94EA16982F92959F708F702AE0929F4A
:100DD000800D11248D8384E995E00E94EA16982FF6
:100DE00092959F708F702AE0929F800D112490E061
:100DF0009F838E83DF91CF910895809166049091B7
:100E000067040196909367048093660408950E9496
:100E10006A1A609380047093810480938204909393
:100E2000830482E00E949D1B90936F0480936E0464
:100E3000892BA9F060E088E00E94671B8091800404
:100E400090918104A0918204B091830480937C04EA
:100E500090937D04A0937E04B0937F0414C080918E
:100E6000800490918104A0918204B09183048093C6
:100E7000780490937904A0937A04B0937B0461E0A2
:100E800088E00E94671B40917C0450917D04609132
:100E90007E0470917F048091780490917904A091F0
:100EA0007A04B0917B0484179507A607B70740F52D
:100EB000481B590B6A0B7B0B4093740450937504C9
:100EC00060937604709377048091880490918904EC
:100ED000A0918A04B0918B04840F951FA61FB71FA1
:100EE0008093880490938904A0938A04B0938B0420
:100EF00010927C0410927D0410927E0410927F0464
:100F0000089564E070E084E995E00E94C5176CE202
:100F100070E184E995E00E94F91765E670E184E9E3
:100F200095E00E94FE1741E050E067E077E080E046
:100F30000C94EE1DAF92BF92CF92DF92EF92FF9290
:100F40000F931F93CF93DF93CDB7DEB728970FB6DC
:100F5000F894DEBF0FBECDBF8091E0049091E10414
:100F6000049709F03AC281E090E09093DF04809307
:100F7000DE048091E2049091E3048631910549F406
:100F80006091E4047091E50484EB91E00E94C9044F
:100F900024C28531910521F584EB91E00E9455062C
:100FA000882309F41AC26CE974E084EB91E00E9492
:100FB000820581E08093C60480E090E08431910551
:100FC00054F4FC01EA53FB4FDC01A456BB4F2C91B7
:100FD00021830196F3CF9093DD048093DC04FDC15F
:100FE0008130910539F48091E4040E949D1B809327
:100FF000DB04F3C18230910539F46091E6048091FD
:10100000E4040E94671BE9C183309105B1F480912B
:10101000E4040E944B1C90939B0480939A049C01CF
:1010200097FF02C021503F4F3093C70460E071E04A
:101030000E941A228093C804D0C18430910549F4DB
:101040006091E6047091E7048091E4040E94681CBA
:10105000C4C18530910539F46091E6048091E404BF
:101060000E942E1BBAC18730910509F043C08091C0
:10107000E4049091E504809317049093180461E0D0
:101080000E942E1B60E0809117040E94671B82E083
:1010900090E00E94BF1A61E0809117040E94671BD4
:1010A00085E090E00E94BF1A60E0809117040E94E2
:1010B000671B60E0809117040E942E1B20E432E43D
:1010C0004FE050E061E0809117040E94C61B2AE3C4
:1010D00030E040E050E00E945022CA01B90120E017
:1010E00031E040E050E00E9450222093C70460931A
:1010F000C80473C18830910541F481E08093C7042E
:1011000082E08093C80485E022C08431910511F506
:1011100080919904811107C08CE595E00E94E90354
:1011200081E08093990427E934E046E954E065E9D9
:1011300074E08CE595E00E94F9038091950480931A
:10114000C704809196048093C8048091970480938B
:10115000C90443C18E31910571F5809198048111C4
:1011600007C084E595E00E94790681E080939804A9
:1011700084E595E00E947D06809156058093C70422
:10118000809155058093C804809154058093C904CB
:10119000809159058093CA04809158058093CB04AF
:1011A00090915A059093CC048093CD04809157057B
:1011B0008093CE0412C18832910509F05EC08091FF
:1011C000900490919104892B09F407C18091E60461
:1011D0009091E704009719F426E04BE00BC08130B2
:1011E000910519F426E046E105C00297029740F404
:1011F00026E045E16091E40486E495E00E94001158
:1012000060E086E495E00E94C5116D837E838F8344
:10121000988786E495E00E943F1269837A838B83E6
:101220009C831092160410921504FE01359680E0FE
:1012300090E001962191DC01AF54BB4F2C93843098
:101240009105BCF384E090E090931604809315041C
:101250000196DC01AF54BB4FE1E0F0E0EC0FFD1F65
:10126000E80FF91F359720812C938830910584F37E
:1012700090931604809315045DC082339105D9F4D0
:101280004091E4045091E50421E08091E6049091BE
:10129000E704892B09F420E061E0640FFA0132973A
:1012A00037E03E9FC0013F9F900D1124845E9A4F0E
:1012B0000E94641592C0C39709F041C02091E404D4
:1012C0003091E5042250310947E0429FC001439F1D
:1012D000900D1124845E9A4F0E945916811161C1AC
:1012E0002EC08A30910509F0F5C580919004909147
:1012F0009104019709F071C0809170048093C60435
:101300008091840490918504A0918604B091870413
:101310008093C704492F5A2F6B2F7727409384045B
:101320005093850460938604709387044093C804A7
:10133000A093C90410929104109290044EC0809121
:10134000E2049091E304C49709F406C18091E20499
:101350009091E304C59791F42091E4043091E50461
:101360002250310947E0429FC001439F900D112454
:10137000845E9A4F0E94591681112CC18091E2041B
:101380009091E304C69709F440C18091E2049091E2
:10139000E304C79709F45EC18091E2049091E304ED
:1013A000C89709F484C18091E2049091E3048634E3
:1013B000910509F0A3C16091E4047091E50441E056
:1013C000460F9B0122503109C901880F991F820FD6
:1013D000931F865F9A4F0E948D01809172049091B5
:1013E0007304892BD9F10E946A1A00918C04109120
:1013F0008D0420918E0430918F04601B710B820B41
:10140000930B613375478105910540F181E090E0D0
:101410009093710480937004809188049091890462
:10142000A0918A04B0918B048093840490938504E6
:10143000A0938604B09387041092880410928904C4
:1014400010928A0410928B040E946A1A60938C0492
:1014500070938D0480938E0490938F048091680420
:1014600090916904892B39F180919205813019F5A9
:101470002091910580916C0490916D04213049F484
:1014800001968931910554F010926D0410926C040C
:1014900009C0019797FF02C088E190E090936D0426
:1014A00080936C0481E080936A0480916C04809343
:1014B0006B04109292058091620490916304892BD1
:1014C00009F4B9C50E946A1A00915E0410915F0484
:1014D0002091600430916104601B710B820B930BAF
:1014E000613D77408105910508F4A5C5209166040A
:1014F000309167044EE1429FC001439F900D11243B
:1015000069E470E00E941A22E62F472F609364047A
:101510007093650481E080935B04862F972F60E0D1
:1015200071E00E941A2280935C042E2F342F37FF23
:1015300002C021503F4F30935D0410926704109217
:1015400066040E946A1A60935E0470935F0480933D
:101550006004909361046FC52091E4043091E50428
:101560002250310917E0129FC001139F900D1124E2
:10157000845E9A4F0E945916882309F4E7CE209181
:10158000E4043091E50422503109129FC001139FF9
:10159000900D11246091E604845E9A4F0E94091612
:1015A0001CCF61E08091E6049091E704892B09F457
:1015B00060E02091E4043091E5042250310947E0D5
:1015C000429FC001439F900D1124845E9A4F0E9458
:1015D000031603CF41E08091E8049091E904892B40
:1015E00009F440E02091E4043091E50422503109EF
:1015F00057E0529FC001539F900D11246091E60463
:10160000845E9A4F0E941B16E8CE2091E40430912C
:10161000E5042250310917E0129FC001139F900D7D
:101620001124845E9A4F0E945916882309F4ADCE86
:101630002091E4043091E50422503109129FC00149
:10164000139F900D11246091E604845E9A4F0E94CE
:101650003C16C3CE2091E4043091E50422503109B8
:1016600017E0129FC001139F900D1124845E9A4FC2
:101670000E945916882309F48FCE80E090E0909163
:10168000E8046091E6047091E704682779272091C7
:10169000E4043091E50422503109129FC001139FE8
:1016A000900D1124845E9A4F0E94BA1596CE209117
:1016B000E4043091E5042250310917E0129FC00183
:1016C000139F900D1124845E9A4F0E94591688230F
:1016D00009F469CE2091E4043091E50422503109E7
:1016E000129FC001139F900D1124845E9A4F0E9497
:1016F00055168093C7049093C8046FCE8734910524
:1017000019F52091E4043091E50422503109C90112
:10171000880F991F820F931F865F9A4F0E94F502D0
:10172000882391F02091E4043091E504225031099E
:10173000C901880F991F820F931F6091E604865F8D
:101740009A4F0E94A40149CE8091E2049091E30453
:101750008834910559F52091E4043091E504225034
:101760003109C901880F991F820F931F865F9A4F15
:101770000E94F5028823D1F080E090E09091E80487
:101780006091E6047091E704682779272091E404CA
:101790003091E50422503109C901880F991F820F49
:1017A000931FE12C00E024E040E05CC08091E20463
:1017B0009091E3048934910589F42091E4043091F7
:1017C000E50422503109C901880F991F820F931F28
:1017D000865F9A4F0E94F50281112BC08091E2042E
:1017E0009091E3048A34910509F041C02091E4040A
:1017F0003091E50422503109C901880F991F820FE9
:10180000931F865F9A4F0E94F502882381F12091F1
:10181000E4043091E50422503109C901880F991F71
:10182000820F931F6091E804865F9A4F0E94EE0238
:1018300038C080E090E09091E8046091E6047091F7
:10184000E704682779272091E4043091E5042250C9
:101850003109C901880F991F820F931FE12C00E005
:1018600024E041E0865F9A4F0E947802B6CD8091D5
:10187000E2049091E3048B34910519F52091E4047E
:101880003091E50422503109C901880F991F820F58
:10189000931F865F9A4F0E94F502882391F08091F2
:1018A000E80489832091E4043091E5042250310951
:1018B000C901880F991F820F931F2091E60441E010
:1018C0000FC18091E2049091E3048C34910509F0FA
:1018D00075C02091E4043091E50422503109C9011A
:1018E000880F991F820F931F865F9A4F0E94F502FF
:1018F000882309F463C08091E6049091E7040AE02C
:1019000010E0B8010E941A222091E4043091E5040D
:1019100022503109C901880F991F820F931F865FDA
:101920009A4F0E94EE0289838091E6049091E70429
:10193000B8010E941A222091E4043091E50422505B
:101940003109A901440F551F420F531F682FCA01C7
:10195000865F9A4F0E94EE0280688A838091E80435
:101960009091E904B8010E941A222091E404309178
:10197000E50422503109C901880F991F820F931F76
:10198000865F9A4F0E94EE028B838091E8049091CB
:10199000E904B8010E941A222091E4043091E50480
:1019A00022503109A901440F551F420F531F682FC0
:1019B000CA01865F9A4F0E94EE0267C08091E204DE
:1019C0009091E3048D34910589F42091E4043091E1
:1019D000E50422503109C901880F991F820F931F16
:1019E000865F9A4F0E94F50281111EC08091E20429
:1019F0009091E3048E34910509F049C02091E404EC
:101A00003091E50422503109C901880F991F820FD6
:101A1000931F865F9A4F0E94F5028823C1F18FEFD2
:101A200089838A838B8331C01091E604A090E804F7
:101A3000B090E904AA0CBB1CAA0CBB1CC12CD12C75
:101A4000CA14DB040CF0C9CC812F0E944B1CBC01D2
:101A50002091E4043091E50422503109C901880F36
:101A6000991F820F931FE12C00E024E040E0865F85
:101A70009A4F0E9478026AEF70E080E090E00E9446
:101A8000991A2FEFC21AD20ADBCF8C831CC0809127
:101A9000E2049091E3048F34910551F52091E40420
:101AA0003091E50422503109C901880F991F820F36
:101AB000931F865F9A4F0E94F5028823C9F019820E
:101AC0001A821B821C822091E4043091E50422508A
:101AD0003109C901880F991F820F931F20E044E04C
:101AE000BE016F5F7F4F865F9A4F0E942B0275CCBD
:101AF0008091E2049091E3048A35910569F4809124
:101B0000E404809392048091E6048093930480918E
:101B1000E8048093940461CC8B359105B1F4609115
:101B2000E4047091E50441E0460F9B012250310925
:101B300055E0529FC001539F900D11242091E6045F
:101B400084519B4F0E945D0148CC8C35910509F072
:101B500044C06091E4047091E50441E0460F9B01AC
:101B60002250310955E0529FC001539F900D11241E
:101B70002091E60484519B4F0E945D011091E8047E
:101B800012FBDD24D0F8D19411FBCC24C0F8C19411
:101B900011701195E12CF12CE5E0BE2E8091E60448
:101BA0009091E704E816F9060CF017CC6091E40474
:101BB0007091E50462507109B69EC001B79E900D08
:101BC0001124012F2C2D4D2D6E2D84519B4F0E94E1
:101BD000F0003FEFE31AF30AE1CF8D35910509F0EC
:101BE00074C02091E6043091E7048091E404909160
:101BF000E504232BB1F49C012250310945E0429FBA
:101C0000C001439F900D11240091940420919304EE
:101C1000409192046091E80484519B4F0E94F0002F
:101C2000DCCB9C012250310945E0429FC001439F1B
:101C3000900D112484519B4F0E948A01E12CF12CBC
:101C4000C82ED12C15E0EC14FD040CF0C6CB20916D
:101C5000E6043091E7042130310541F48091E80435
:101C60009091E904E816F906B1F42BC02230310551
:101C700041F48091E8049091E9048E159F055CF48D
:101C800020C023303105E9F48091E8049091E90403
:101C9000E816F906B4F02091E4043091E5042250EE
:101CA0003109129FC001139F900D112400919404DB
:101CB00020919304409192046E2D84519B4F0E9479
:101CC000F0004FEFE41AF40ABECF8E35910509F00B
:101CD00052C08091E8049091E9041816190634F076
:101CE00081E090E09093E9048093E8042091E4047B
:101CF0003091E5042250310945E0429FC001439FE5
:101D0000900D112484519B4F0E948A01E090E604BB
:101D1000F090E704C82ED12C15E0EC14FD040CF073
:101D20005CCB8091E6049091E7049701281B390B66
:101D3000C9016091E8047091E9040E941A22892B7C
:101D4000B1F42091E4043091E50422503109129F4E
:101D5000C001139F900D11240091940420919304CD
:101D6000409192046E2D84519B4F0E94F0003FEFF2
:101D7000E31AF30AD2CF8F35910509F084C0209180
:101D8000E4043091E5042250310945E0429FC0014E
:101D9000439F900D112484519B4F0E948A01182F5C
:101DA0008091E8049091E904C12ED12CE12CF12C12
:101DB000892B99F515E0EC14FD040CF00ECB209165
:101DC000E6043091E7048091E4049091E504E21682
:101DD000F3067CF49C0122503109129FC001139F2D
:101DE000900D112400919404209193044091920449
:101DF0000BC09C0122503109129FC001139F900D0E
:101E0000112400E020E040E06E2D84519B4F0E94A1
:101E1000F0004FEFE41AF40ACECF75E0B72E96012A
:101E20002E193F0909F4D9CA8091E6049091E7047C
:101E3000A601481B590BCA014091E4045091E504E6
:101E4000612F6E19425051092817390764F0B49E6A
:101E5000C001B59E900D112400919404209193042B
:101E60004091920408C0B49EC001B59E900D11240B
:101E700000E020E040E084519B4F0E94F0005FEFC3
:101E8000E51AF50ACCCF8E309105C1F441E050E05F
:101E900067E077E080E00E94EE1D81E090E09093A3
:101EA0007304809372040E946A1A60938C04709386
:101EB0008D0480938E0490938F0453C08F309105CE
:101EC00009F00FCA80E00E940E1E10927304109257
:101ED000720447C08031910559F481E995E00E9470
:101EE0007E1681E090E0909369048093680439C085
:101EF0008131910549F481E995E00E949116109293
:101F000069041092680469CA8231910501F560E0A4
:101F100082E00E942E1B43E050E06DEF76E080E00F
:101F20000E94EE1D10926704109266040E946A1AC5
:101F300060935E0470935F048093600490936104E7
:101F400081E090E090936304809362040AC08D3036
:101F5000910561F4109263041092620480E00E9483
:101F60000E1E1092E3041092E20437CA84369105E3
:101F7000D1F58091900490919104019709F02DCAB8
:101F80008091E4049091E5048130910549F48091B9
:101F9000E6040E94A91280ED97E00E944F13CAC97F
:101FA0008230910579F48091E6049091E7048134C0
:101FB00091051CF480931A0402C010921A04109226
:101FC0001904B8C9039709F0B5C960911A046623CA
:101FD00009F4B0C9809119046813ACC98BE194E08D
:101FE0000E944614A7C98536910509F0F6C980916B
:101FF000900490919104019709F0EFC98091190420
:1020000090911A04891708F095C9E4EEF4E08F5F07
:1020100020813296A82FB0E0A65EBB4F2C9324E01F
:10202000EA3EF20719F48093190484C98913EFCFAB
:10203000909319047FC928960FB6F894DEBF0FBE9F
:10204000CDBFDF91CF911F910F91FF90EF90DF9067
:10205000CF90BF90AF9008950F931F93CF93DF93CE
:1020600001E010E084E995E00E94E216892B41F13D
:1020700084E995E00E94E216049761F41092DF046F
:102080001092DE041092E1041092E0041093910487
:1020900000939004C091E004D091E104CE01019638
:1020A0009093E1048093E00484E995E00E94EA16AD
:1020B000FE01EE0FFF1FEE51FB4F91838083D2CFC5
:1020C000DF91CF911F910F9108958091E20490913B
:1020D000E304019731F46091DB0484E995E00E9408
:1020E00069178091E2049091E3049C012B7F2330D7
:1020F000310511F0C89741F443E050E066EC74E01C
:1021000084E995E00E943C178091E2049091E304F9
:102110008830910511F0449741F444E050E066ECBA
:1021200074E084E995E00E943C178091E20490916C
:10213000E3044E9741F449E050E066EC74E084E932
:1021400095E00E943C178091E2049091E304889707
:1021500041F449E050E061EB74E084E995E00E94CD
:102160003C178091E2049091E304459751F445E1D6
:1021700050E066EC74E084E995E00E943C17109210
:10218000C6048091E2049091E3040A9781F444E04C
:1021900050E066EC74E084E995E00E943C171092F0
:1021A0007104109270041092E3041092E204809182
:1021B000E2049091E3040B9771F442E050E06AE688
:1021C00074E084E995E00E943C1710926A04109232
:1021D000E3041092E2048091E2049091E3040C97EE
:1021E00071F443E050E06BE574E084E995E00E940F
:1021F0003C1710925B041092E3041092E2040895DD
:10220000CF93DF93EC01862F6E834F83288791E075
:102210009D8760E00E942E1B61E08E810E94671BFB
:1022200019861A861B861C86DF91CF910895DF924E
:10223000EF92FF920F931F93CF93DF93EC0161E036
:102240008E810E94671B6AEF70E080E090E00E9440
:10225000991A0E946A1A09851A852B853C85601790
:1022600071078207930720F419861A861B861C863D
:102270002D85211111C009851A852B853C85DC012E
:10228000CB01801B910BA20BB30B803D9740A105A6
:10229000B10510F481E071C01D860E946A1A698739
:1022A0007A878B879C871C821B821A8219821882EC
:1022B00061E08E810E942E1B60E08E810E94671B70
:1022C00064E170E080E090E00E94991AF89461E087
:1022D0008E810E94671B88E290E00E94BF1A60E036
:1022E0008E810E942E1BF12CD12C81E0E12C082F35
:1022F00010E08E810E949D1B8017910741F4E394AA
:1023000081E090E00E94BF1A8FEFE812F2CF8E8139
:102310000E949D1B9FEFE916C9F023E02F1590F452
:10232000F0FC10C09D2D969596959695FE01E90FAF
:10233000F11D9081990F908328852E1510F49160DE
:102340009083D394F39495E5F912D0CF789427E253
:102350002D1590F42C8130E04881898190E0840F24
:10236000911D4A81840F911D4B81840F911D9927E6
:102370002817390709F48ECF80E0DF91CF911F91A4
:102380000F91FF90EF90DF900895CF92DF92EF9240
:10239000FF920F931F93CF93DF93EC01162F0E94B0
:1023A0001711882309F450C08F818B3031F008F465
:1023B0004BC08551823078F047C06A8170E080E080
:1023C00090E00E942921112309F449C020E030E067
:1023D00040E151E42AC00A81602F6F7770E080E00D
:1023E00090E00E942B2120E030E040E853E40E947E
:1023F000B7216B017C016B8170E080E090E00E946E
:102400002B219B01AC01C701B6010E942C2020E0CA
:1024100030E040E251E40E94902007FD90581123E3
:1024200009F120E030E040E151E40E94B72120E0D2
:1024300030E040EA50E40E94902020E030E040E0AC
:1024400052E40E942C200EC064E771E085E696E01D
:102450000E94292020E030E040EC5FE705C09B01AE
:10246000AC0102C09B01AC01B901CA01DF91CF915F
:102470001F910F91FF90EF90DF90CF900895CF9232
:10248000DF92EF92FF92CF93DF93EC010E9417113E
:10249000882379F18F818B3029F158F18551823071
:1024A00040F5688170E080E090E00E94292120E002
:1024B00030E040E853E40E94B7216B017C01698160
:1024C00070E080E090E00E942B219B01AC01C701ED
:1024D000B6010E942C2020E030E040E251E40E944E
:1024E000902011C0688170E080E090E00E94292176
:1024F0000AC064E771E085E696E00E94292060E06A
:1025000070E080EC9FE7DF91CF91FF90EF90DF903C
:10251000CF9008958627082E8295807F8025092EEA
:10252000982F82958F700826869598278927880F7F
:10253000880F880F80250895EEE7F1E090E0219163
:10254000821729F09F5F9031D1F780E00895892F9D
:1025500008958093000108951F93CF93DF93909186
:102560008805992329F0809185058F5F80938505E3
:102570002091870580918605921759F0803510F4D7
:102580002BE001C02DE1820F809386059093870593
:1025900003C08C5E8093860520918605203A08F45E
:1025A0007AC080918005909181059695879590934A
:1025B00081058093800530918505353028F098603D
:1025C0009093810580938005205A20938605109270
:1025D000850580918405882309F44DC080917F058D
:1025E0008F5F80937F058C3008F455C0C0918005C3
:1025F000D09181058C2F8F730E949C12182FCE01D1
:1026000026E0969587952A95E1F70E949C1290E125
:10261000199F90011124822B90915F0591110EC09A
:10262000809360059CEF980F9B3140F010928405D9
:1026300080915E058F5F80935E052DC0E0915F0500
:1026400091E09E0F90935F05F0E0EF59FA4F808381
:1026500090915F0580916005981750F01092840565
:1026600080915D058F5F80935D0581E08093830598
:1026700010927F0510C0809180059091810588336C
:102680009B4049F481E08093840510927F0510926D
:102690005F0510928305DF91CF911F9108954F92AE
:1026A0005F926F927F92BF92CF92DF92EF92FF92F2
:1026B0000F931F93CF93DF93CDB7DEB72E970FB64F
:1026C000F894DEBF0FBECDBFBC018EE0EEE4F1E0BA
:1026D000DE01119601900D928A95E1F76115710561
:1026E00009F49AC080E090E00E9429219B01AC018E
:1026F00060E070E080E89FE30E94902020E030E0FE
:1027000040E05EE30E94B7216B017C018E010D5F0A
:102710001F4FBB24B394F801619171918F0180E048
:1027200090E00E9429219B01AC0160E074E284E703
:102730009BE40E9490209B01AC0160E070E080E887
:102740009FE30E9490209B01AC01C701B6010E944B
:1027500090200E94F8202B013C01F2E04F1A510812
:10276000610871082DEF42162FEF520661047104C3
:1027700028F0B394E7E0BE12CECF05C0F6E0BF1656
:1027800009F44AC00CC0623071058105910508F456
:1027900043C06115710521E082079105E8F5BB2072
:1027A000D9F11092800028E02093810020918100CF
:1027B0002B29209381007093890060938800809179
:1027C0006F00826080936F0061E0809100010E9441
:1027D0002E1B60E0809101010E942E1B61E0809120
:1027E00002010E942E1B60918905809102012E96A4
:1027F0000FB6F894DEBF0FBECDBFDF91CF911F9112
:102800000F91FF90EF90DF90CF90BF907F906F90EF
:102810005F904F900C94671B2E960FB6F894DEBF16
:102820000FBECDBFDF91CF911F910F91FF90EF9021
:10283000DF90CF90BF907F906F905F904F90089502
:10284000CF9310928F0510928E0510928D05609196
:102850008905C1E06C27809102010E94671BC0932B
:102860008C05CF91089560918905809102010E94A5
:10287000671B60E0809100010E94671B10928C052D
:10288000089580918C058111FCCF0895CF92DF923D
:10289000EF92FF920F931F93CF93DF93F82EE92EC1
:1028A000D62E8BE1861708F485C00E944114C3E040
:1028B000CD0D6C2F8FEF9FEF0E948A12AC2FB0E0EE
:1028C000F4E0B595A795FA95E1F7A258BE4F2C9183
:1028D00020930B01CF70EC2FF0E0E258FE4F2081E7
:1028E00020930C010BE011E0CF2CCF2DDE2D0E5FDD
:1028F0001F4F2C2F2C192D15D0F47E0168810E94BA
:102900008A12A991B0E0E4E0B595A795EA95E1F7C0
:10291000A258BE4F2C91D8012C93D701EC91EF70A7
:10292000F0E0E258FE4F2081F8012183E0CF61E022
:102930006D0D660F80959095E62FF0E0E55FFE4FF8
:10294000DC0144E0B695A7954A95E1F7AF70BB2747
:10295000A258BE4F2C912083E1E0E60FF0E0E55F46
:10296000FE4FDC01AF70BB27A258BE4F2C912083D5
:10297000E2E0E60FF0E0E55FFE4FDC01AB2FBB27A6
:10298000A295AF70A258BE4F2C912083A3E0A60F52
:10299000B0E0A55FBE4FE92FFF27EF70FF27E25899
:1029A000FE4F80818C93645F609390050E94201499
:1029B00081E001C080E0DF91CF911F910F91FF90E6
:1029C000EF90DF90CF9008951F920F920FB60F9265
:1029D00011242F933F934F935F936F937F938F9324
:1029E0009F93AF93BF93EF93FF93809182058823CA
:1029F00021F080918C05882371F180918C058823CA
:102A0000C9F080918D0591E0980F90938D0581110B
:102A100011C0E0918F0580919005E81718F10E9490
:102A2000331480918A0590918B05019690938B05C4
:102A300080938A0580918D05883010F010928D0565
:102A400080918205882379F180918C0581112BC0BA
:102A50000E94AC1228C0809101010E949D1B8093AE
:102A60008805CBCFF0E0ED5FFE4F608120918E05B1
:102A700081E0820F80938E0581E090E001C0880F95
:102A80002A95EAF76823809100010E94671B8091D4
:102A90008E05863078F210928E0580918F058F5FBB
:102AA00080938F05C7CFFF91EF91BF91AF919F9119
:102AB0008F917F916F915F914F913F912F910F90E7
:102AC0000FBE0F901F901895CF93DF93EC01862FC8
:102AD000E62FF0E0F983E88350E05B834A832C83A0
:102AE0001E821D8261E00E942E1B61E08A81DF91BF
:102AF000CF910C942E1B1F93CF93DF93EC0160E0DA
:102B00008A810E94671B8AE090E00E94BF1A14E04D
:102B100061E08A810E94671B60E08A810E94671BD6
:102B20001150B1F7DF91CF911F910895FF920F934C
:102B30001F93CF93DF93EC018B0190E1F92E612F6E
:102B4000661F6627661F8A810E94671B88810E9414
:102B50009D1B61E0892B09F060E088810E94671B62
:102B6000000F111FFA9459F7DF91CF911F910F9128
:102B7000FF900895EF92FF920F931F93CF93DF93EF
:102B8000EC017B01CB0193709E838D8360E070E04C
:102B9000CE010E94961500E010E08C81882351F050
:102BA000C701002E02C0880F991F0A94E2F791FF17
:102BB0000DC009C0C701002E02C0969587950A94E2
:102BC000E2F780FF03C06FEF70E002C060E070E0EA
:102BD000CE010E9496150F5F1F4F0A301105E9F6CE
:102BE00060E070E0CE010E94961560E070E0CE01DA
:102BF0000E949615CE01DF91CF911F910F91FF900A
:102C0000EF900C947B15FC016483658176810C94B4
:102C1000BA156B3008F06AE02FEF3FEF02C0220FC9
:102C2000331F6A95E2F720953095FC0136832583A2
:102C3000B9010C94BA15662321F06B3018F06AE0E4
:102C400001C061E05FEF560FFC012581368161E034
:102C500070E002C0660F771F5A95E2F7442319F01F
:102C6000622B732B04C06095709562237323FC0163
:102C7000768365830C94BA15662321F06B3018F0C7
:102C80006AE001C061E02FEF260F61E070E002C052
:102C9000660F771F2A95E2F7FC01258136816227AE
:102CA0007327768365830C94BA15FC018581968120
:102CB0000895FC0181E020813181232B09F480E01B
:102CC0000895CF93DF9382E00E949D1BEC0183E087
:102CD0000E949D1B8C239D23019719F481E0809312
:102CE0009305DF91CF91089584E0809368008BB3C2
:102CF00081718BBB8CE080936D00089548EE53E0AA
:102D000060E070E08EEA91E00E948B032FEF3FEFCE
:102D1000A90161E676E18EEA91E00E94A103789430
:102D200008958EEA91E00C9492031F920F920FB6D1
:102D30000F9211241F932F933F934F935F936F93A1
:102D40007F938F939F93AF93BF93CF93DF93EF9333
:102D5000FF93109193051130E9F482E00E949D1BCE
:102D6000EC0183E00E949D1B8C179D071CF41093BF
:102D700091050CC082E00E949D1BEC0183E00E9443
:102D80009D1BC817D90734F4109291051093920532
:102D900010929305FF91EF91DF91CF91BF91AF9189
:102DA0009F918F917F916F915F914F913F912F9163
:102DB0001F910F900FBE0F901F90189581E995E01D
:102DC0000C9474168091C80590E02091C905821B6F
:102DD000910908952091C9058091C805281750F4DC
:102DE000E22FF0E0E653FA4F808190E02F5F2093CE
:102DF000C90508958FEF9FEF0895E091C90580916F
:102E0000C805E81730F4F0E0E653FA4F808190E00F
:102E100008958FEF9FEF08950895E091A005F09138
:102E2000A1053097E1F03091C9052091C80532170E
:102E3000B0F040E0242F30E02617370754F4DC01CF
:102E4000A20FB31F5C91D901A653BA4F5C934F5F99
:102E5000F1CF1092C9056093C805CB01099408957C
:102E6000E091A205F091A305309729F01092A605F4
:102E70001092A50509940895CF92DF92EF92FF92E8
:102E80000F931F93CF93DF937C01CB018A01209195
:102E9000A405222389F0EB016B01C40ED51ECC15CD
:102EA000DD0569F06991D701ED91FC910190F08108
:102EB000E02DC7010995F3CF642F0E94C018C80107
:102EC000DF91CF911F910F91FF90EF90DF90CF9006
:102ED0000895CF93DF931F92CDB7DEB7698320911A
:102EE000A4052223D1F02091A505203240F021E055
:102EF00030E0FC013383228380E090E015C08091B4
:102F0000A605E82FF0E0E955FA4F998190838F5F8D
:102F10008093A6058093A50505C061E0CE010196CA
:102F20000E94C01881E090E00F90DF91CF9108954A
:102F3000FC011382128248EE53E060E070E04483AB
:102F400055836683778382E991E091838083089536
:102F50001092C9051092C8051092A6051092A505F9
:102F60000C940718CF93DF93EC01862F0E9425184D
:102F700080E397E10E94DE188DE097E10E94D91866
:102F8000CE01DF91CF910C94A8170C94B217862F25
:102F9000413208F040E26AEC75E00E942918109274
:102FA000C9058093C805089521E00C94C71781E0F6
:102FB0008093A4056093C7051092A6051092A505FD
:102FC00008950C94D7170F93062F21E04091A50583
:102FD00067EA75E08091C7050E946D181092A605FA
:102FE0001092A5051092A4050F91089561E00C942C
:102FF000E3177093A1056093A00508957093A3054E
:103000006093A205089584E995E00C9498171092B6
:10301000570681E0809355061092540661E082E1E4
:103020000E94671B61E083E10E94671BE9EBF0E00F
:1030300080818E7F808380818D7F808388E48093F0
:10304000B80085E48093BC000895880F8093BA008F
:103050000895413208F03FC0909157069111FCCF7E
:1030600091E090935706209355062FEF2093EA05A1
:1030700010922F06240F20932E06909356069091BF
:103080005606880F892B809356068091540681300E
:1030900041F410925406809156068093BB0085EC53
:1030A00001C085EE8093BC00809157068130E1F32A
:1030B00080912F06841710F440912F0620E336E00C
:1030C000FB01D9018A2F821B841718F48D918193FB
:1030D000F9CF842F089580E008950F93413208F0CE
:1030E00046C0909157069111FCCF92E090935706FD
:1030F000009355069FEF9093EA0510922F06409398
:103100002E06FB0160E376E0DB019A2F961B9417F5
:1031100018F491919D93F9CF10925606909156060E
:10312000880F892B8093560680915406813041F494
:1031300010925406809156068093BB0085EC01C026
:1031400085EE8093BC00222321F0809157068230C7
:10315000E1F38091EA058F3F61F08091EA058032CA
:1031600051F08091EA05803341F483E007C081E0AB
:1031700005C080E003C082E001C084E00F910895A3
:10318000613298F420915706243089F460930C063C
:10319000FC018EE096E0DC012A2F281B261718F48C
:1031A00021912D93F9CF80E0089581E0089582E088
:1031B0000895909351068093500608959093530676
:1031C00080935206089585ED8093BC008091BC00E9
:1031D00084FDFCCF10925706089585EC8093BC00C7
:1031E0001092570608951F920F920FB60F92112456
:1031F0002F933F934F935F936F937F938F939F93FF
:10320000AF93BF93EF93FF938091B900887F80368F
:1032100009F49CC068F5883209F45BC090F48031F1
:1032200009F454C038F4882309F4F5C0883009F44F
:103230004DC0F5C0883109F44CC0803209F45DC03E
:10324000EEC0803409F468C048F4803309F455C0F6
:10325000883309F0E4C08093EA05A8C0803509F4FA
:103260004FC0883509F45DC0883409F0D8C0D5C096
:10327000883909F4C6C0A8F4883709F467C038F45F
:10328000883609F463C0803709F460C0C8C0883844
:1032900009F4B7C0803909F45FC0803809F0BFC0B5
:1032A0005BC0803B09F485C038F4803A09F466C0FD
:1032B000883A09F47EC0B3C0803C09F4A6C0883CBB
:1032C00009F4A3C0883B09F489C0A9C080915606BF
:1032D00010C090912F0680912E06981770F5E091FE
:1032E0002F0681E08E0F80932F06F0E0E05DF94F0E
:1032F00080818093BB0085EC85C08093EA058DC0FA
:10330000E0912F0681E08E0F80932F068091BB0005
:10331000F0E0E05DF94F808390912F0680912E06BA
:103320006DC0E0912F0681E08E0F80932F06809173
:10333000BB00F0E0E05DF94F80838091550681117C
:103340006CC081E08093540684EA60C083E080937F
:1033500057061092EB05CFCF8091EB05803208F035
:1033600050C0E091EB0581E08E0F8093EB058091DA
:10337000BB00F0E0E451FA4F8083BDCF8091EB05B4
:10338000803230F4E091EB05F0E0E451FA4F108226
:103390000E94E3186091EB0570E0E0915006F09117
:1033A00051068CEE95E009951092EB050E94ED1800
:1033B00036C084E08093570610920D0610920C06DA
:1033C000E0915206F0915306099580910C06811107
:1033D00005C081E080930C0610920E06E0910D0668
:1033E00081E08E0F80930D06F0E0E25FF94F80815F
:1033F0008093BB0090910D0680910C06981708F4FD
:103400007ACF85E88093BC000AC085EC8093BC002D
:103410001092570604C01092EA050E94E318FF912B
:10342000EF91BF91AF919F918F917F916F915F913C
:103430004F913F912F910F900FBE0F901F901895B5
:103440001F920F920FB60F9211242F933F938F93D9
:103450009F93AF93BF938091590690915A06A09184
:103460005B06B0915C063091580623E0230F2D37A0
:1034700020F40196A11DB11D05C026E8230F029678
:10348000A11DB11D209358068093590690935A06AA
:10349000A0935B06B0935C0680915D0690915E06FA
:1034A000A0915F06B09160060196A11DB11D8093A9
:1034B0005D0690935E06A0935F06B0936006BF9191
:1034C000AF919F918F913F912F910F900FBE0F90D1
:1034D0001F9018952FB7F8946091590670915A066D
:1034E00080915B0690915C062FBF08953FB7F894DA
:1034F00080915D0690915E06A0915F06B091600696
:1035000026B5A89B05C02F3F19F00196A11DB11D3E
:103510003FBF6627782F892F9A2F620F711D811D5B
:10352000911D42E0660F771F881F991F4A95D1F7BA
:103530000895CF92DF92EF92FF92CF93DF936B01CA
:103540007C010E94761AEB01C114D104E104F1045C
:1035500079F00E94761A6C1B7D0B683E7340A0F3D5
:1035600081E0C81AD108E108F108C851DC4FECCF5E
:10357000DF91CF91FF90EF90DF90CF90089501976A
:10358000009739F0880F991F880F991F02970197AC
:10359000F1F70895789484B5826084BD84B5816024
:1035A00084BD85B5826085BD85B5816085BDEEE64B
:1035B000F0E0808181608083E1E8F0E0108280812A
:1035C00082608083808181608083E0E8F0E0808198
:1035D00081608083E1EBF0E0808184608083E0EBB8
:1035E000F0E0808181608083EAE7F0E080818460A0
:1035F00080838081826080838081816080838081FC
:10360000806880831092C1000895833081F028F48F
:10361000813099F08230A1F008958630A9F087308A
:10362000B9F08430D1F4809180008F7D03C0809107
:1036300080008F7780938000089584B58F7702C0D3
:1036400084B58F7D84BD08958091B0008F7703C0CD
:103650008091B0008F7D8093B0000895CF93DF9369
:1036600090E0FC01E458FF4F2491FC01E057FF4F2C
:103670008491882349F190E0880F991FFC01E85458
:10368000FF4FA591B49182559F4FFC01C591D491F4
:103690009FB7611108C0F8948C91209582238C9378
:1036A000888182230AC0623051F4F8948C91322FC1
:1036B000309583238C938881822B888304C0F8946F
:1036C0008C91822B8C939FBFDF91CF9108950F93A4
:1036D0001F93CF93DF931F92CDB7DEB7282F30E033
:1036E000F901E859FF4F8491F901E458FF4F149113
:1036F000F901E057FF4F04910023C9F0882321F01E
:1037000069830E94051B6981E02FF0E0EE0FFF1F27
:10371000E255FF4FA591B4919FB7F8948C91611138
:1037200003C01095812301C0812B8C939FBF0F9004
:10373000DF91CF911F910F910895CF93DF93282FA1
:1037400030E0F901E859FF4F8491F901E458FF4F47
:10375000D491F901E057FF4FC491CC2391F081112E
:103760000E94051BEC2FF0E0EE0FFF1FEC55FF4F02
:10377000A591B4912C912D2381E090E021F480E07B
:1037800002C080E090E0DF91CF910895CF92DF9268
:10379000EF92FF920F931F93CF93DF9390E0FC0182
:1037A000E458FF4FD491FC01E057FF4F7491611131
:1037B00002C0C0E001C0CD2FDA01C901BF70672F80
:1037C00070E0660F771F6C557F4F00E010E09801A6
:1037D000FB01E590F490F70140814D234C131EC08E
:1037E000680179014FEFC41AD40AE40AF40A0817F1
:1037F00019072A073B0709F442C097018601E8CF61
:1038000068017901FFEFCF1ADF0AEF0AFF0A0817F4
:1038100019072A073B0799F197018601FB01E590FB
:10382000F490F70140814D234C13EACF801B910B9C
:10383000A20BB30B20E030E0A901FB01E590F4906E
:10384000F701F080FD22FC120AC0281739074A0749
:103850005B07A9F02F5F3F4F4F4F5F4FEECFA5E1C2
:10386000B0E00E946F22605F7F4F8F4F9F4F24E038
:1038700096958795779567952A95D1F703C060E06F
:1038800070E0CB01DF91CF911F910F91FF90EF90EE
:10389000DF90CF9008958E3008F08E508770209181
:1038A000470190E4299F90011124822B80937C0092
:1038B00080917A00806480937A0080917A0086FDFE
:1038C000FCCF809178002091790090E0922B0895B0
:1038D0001F93CF93DF93182FEB0161E00E942E1B03
:1038E000209711F460E004C0CF3FD10539F461E0C6
:1038F000812FDF91CF911F910C94671BE12FF0E096
:10390000E859FF4FE491E330F9F048F4E130B9F0C1
:10391000E230A1F584B5806284BDC8BD34C0E63014
:10392000E9F0E73019F1E43049F5809180008062D8
:1039300080938000D0938B00C0938A0024C084B50C
:10394000806884BDC7BD1FC080918000806880935F
:103950008000D0938900C093880015C08091B0008A
:1039600080688093B000C093B3000DC08091B00018
:1039700080628093B000C093B40005C0C038D10508
:103980000CF0B5CFAFCFDF91CF911F910895CF93BA
:10399000DF938230910510F482E090E0E09111070E
:1039A000F091120720E030E0A0E0B0E0309739F16C
:1039B0004081518148175907B8F04817590771F4E9
:1039C00082819381109729F013969C938E9312977E
:1039D0002CC0909312078093110727C02115310541
:1039E00031F04217530718F0A901DB0101C0EF01C4
:1039F0009A01BD01DF010280F381E02DD7CF2115AF
:103A00003105F9F0281B390B2430310580F48A8107
:103A10009B816115710521F0FB019383828304C0B2
:103A20009093120780931107FE01329644C0FE0165
:103A3000E20FF31F81939193225031093983288338
:103A40003AC020910F0730911007232B41F42091A9
:103A50004A0130914B013093100720930F072091BA
:103A60004801309149012115310541F42DB73EB788
:103A700040914C0150914D01241B350BE0910F07F3
:103A8000F0911007E217F307A0F42E1B3F0B281745
:103A9000390778F0AC014E5F5F4F2417350748F0C7
:103AA0004E0F5F1F5093100740930F078193919320
:103AB00002C0E0E0F0E0CF01DF91CF910895CF9315
:103AC000DF93009709F487C0FC01329713821282BA
:103AD000C0911107D0911207209781F42081318184
:103AE000280F391F80910F079091100782179307B5
:103AF00079F5F0931007E0930F076DC0DE0120E029
:103B000030E0AE17BF0750F412964D915C911397B9
:103B10009D014115510509F1DA01F3CFB383A28369
:103B200040815181840F951F8A179B0771F48D91F5
:103B30009C911197840F951F029691838083129612
:103B40008D919C911397938382832115310529F4DC
:103B5000F0931207E09311073EC0D9011396FC932E
:103B6000EE9312974D915D91A40FB51FEA17FB07D5
:103B700079F480819181840F951F0296D901119665
:103B80009C938E938281938113969C938E9312972C
:103B9000E0E0F0E08A819B81009719F0FE01EC01E2
:103BA000F9CFCE01029628813981820F931F20918F
:103BB0000F07309110072817390769F4309729F457
:103BC000109212071092110702C013821282D09332
:103BD0001007C0930F07DF91CF9108958230E8F46A
:103BE000E82FF0E0EE0FFF1FEF59F94F718360836C
:103BF000813041F0809169008C7F842B8093690033
:103C0000E89A089580916900440F551F440F551F8D
:103C1000837F842B80936900E99A0895823068F449
:103C2000813011F0E89801C0E998E82FF0E0EE0F3C
:103C3000FF1FEF59F94F1182108208951F920F92C2
:103C40000FB60F9211242F933F934F935F936F936F
:103C50007F938F939F93AF93BF93EF93FF93809145
:103C6000610690916206892B29F0E0916106F0913E
:103C700062060995FF91EF91BF91AF919F918F914E
:103C80007F916F915F914F913F912F910F900FBE58
:103C90000F901F9018951F920F920FB60F9211243C
:103CA0002F933F934F935F936F937F938F939F9344
:103CB000AF93BF93EF93FF93809163069091640657
:103CC000892B29F0E0916306F09164060995FF9134
:103CD000EF91BF91AF919F918F917F916F915F9184
:103CE0004F913F912F910F900FBE0F901F901895FD
:103CF0000E94CA1A0E948107C1E5DFE10E949A076B
:103D00002097E1F30E94511FF9CFFC0124853585EE
:103D1000F901E05CFF4F80819181329620813181F1
:103D2000821B930B8F7399270895FC0184859585D9
:103D3000FC01E05CFF4F408151813296208131814E
:103D40004217530741F00190F081E02DE80FF91F71
:103D5000808190E008958FEF9FEF0895FC018485A6
:103D60009585FC01E05CFF4F4081518132962081B6
:103D700031814217530779F0A081B181A80FB91F93
:103D80008C91208131812F5F3F4F2F7333273183F7
:103D9000208390E008958FEF9FEF0895FC0181A1AB
:103DA000882329F0A489B5898C9186FFFBCF11A2C5
:103DB0000895CF93DF93FC0126853785D901A05C58
:103DC000BF4F8D919C91119701968F739927E901AF
:103DD000CE5BDF4F4881598184179507D9F30D9049
:103DE000BC91A02DA20FB31F6C93A685B785A05CD4
:103DF000BF4F11969C938E93A689B7892C9181E031
:103E000090E0078C02C0880F991F0A94E2F7282BD4
:103E10002C9381E081A30488F589E02D8081806462
:103E2000808381E090E0DF91CF91089508951F9203
:103E30000F920FB60F9211242F933F934F938F93AE
:103E40009F93EF93FF938091C00082FD1CC040912F
:103E5000C60080910B0790910C0701968F739927EC
:103E600020910D0730910E078217930771F0E091B2
:103E70000B07F0910C07E553F94F408390930C0723
:103E800080930B0702C08091C600FF91EF919F9134
:103E90008F914F913F912F910F900FBE0F901F90D8
:103EA000189585E696E00E94851E892B11F00C94EA
:103EB000161F08951F920F920FB60F9211242F9381
:103EC0003F938F939F93EF93FF932091C706309179
:103ED000C8068091C9069091CA062817390731F49F
:103EE0008091C1008F7D8093C10014C0E091C9060C
:103EF000F091CA06E957F94F20818091C906909147
:103F0000CA0601968F7399279093CA068093C906B3
:103F10002093C600FF91EF919F918F913F912F9138
:103F20000F900FBE0F901F90189510926806109278
:103F3000670688EE93E0A0E0B0E080936906909376
:103F40006A06A0936B06B0936C0682EA91E09093A8
:103F50006606809365068BEC96E0909372068093DC
:103F6000710687E896E0909374068093730685EC5B
:103F700090E0909376068093750684EC90E09093A1
:103F800078068093770680EC90E090937A06809391
:103F9000790681EC90E090937C0680937B0682EC1E
:103FA00090E090937E0680937D0686EC90E090935F
:103FB000800680937F0684E08093810683E080936F
:103FC000820687E08093830685E08093840681E003
:103FD000809385060895CF92DF92EF92FF920F9320
:103FE0001F93CF93DF936C017A01EB01E60EF71E6E
:103FF00000E010E0CE15DF0561F06991D601ED918A
:10400000FC910190F081E02DC6010995080F191F60
:10401000F1CFC801DF91CF911F910F91FF90EF90E9
:10402000DF90CF9008956115710581F0DB010D904F
:104030000020E9F7AD0141505109461B570BDC0147
:10404000ED91FC910280F381E02D099480E090E0F5
:1040500008950C9413205058BB27AA270ED04DC1A9
:104060003ED130F043D120F031F49F3F11F41EF4E3
:1040700033C10EF4E095E7FB29C1E92F4FD180F35E
:10408000BA17620773078407950718F071F49EF555
:1040900067C10EF4E0950B2EBA2FA02D0B01B901CC
:1040A00090010C01CA01A0011124FF27591B99F0AE
:1040B000593F50F4503E68F11A16F040A22F232FBA
:1040C000342F4427585FF3CF469537952795A7950A
:1040D000F0405395C9F77EF41F16BA0B620B730BB1
:1040E000840BBAF09150A1F0FF0FBB1F661F771F22
:1040F000881FC2F70EC0BA0F621F731F841F48F4D7
:10410000879577956795B795F7959E3F08F0B3CF5C
:104110009395880F08F09927EE0F97958795089546
:104120000CD0EBC0E3D040F0DAD030F021F45F3FA8
:1041300019F0CCC0511115C1CFC0F0D098F399231C
:10414000C9F35523B1F3951B550BBB27AA2762175B
:104150007307840738F09F5F5F4F220F331F441FA0
:10416000AA1FA9F333D00E2E3AF0E0E830D09150D8
:104170005040E695001CCAF729D0FE2F27D0660FC5
:10418000771F881FBB1F261737074807AB07B0E804
:1041900009F0BB0B802DBF01FF2793585F4F2AF01A
:1041A0009E3F510568F092C0DCC05F3FECF3983E43
:1041B000DCF3869577956795B795F7959F5FC9F777
:1041C000880F911D9695879597F90895E1E0660F00
:1041D000771F881FBB1F621773078407BA0720F079
:1041E000621B730B840BBA0BEE1F88F7E0950895E2
:1041F00004D06894B111B5C0089598D088F09F5745
:1042000090F0B92F9927B751A0F0D1F0660F771F22
:10421000881F991F1AF0BA95C9F712C0B13081F002
:104220009FD0B1E008959CC0672F782F8827B85F92
:1042300039F0B93FCCF3869577956795B395D9F763
:104240003EF490958095709561957F4F8F4F9F4F6D
:104250000895E89409C097FB3EF490958095709579
:1042600061957F4F8F4F9F4F9923A9F0F92F96E9C2
:10427000BB279395F695879577956795B795F11137
:10428000F8CFFAF4BB0F11F460FF1BC06F5F7F4FD4
:104290008F4F9F4F16C0882311F096E911C07723E6
:1042A00021F09EE8872F762F05C0662371F096E8EF
:1042B000862F70E060E02AF09A95660F771F881FBE
:1042C000DAF7880F9695879597F9089597F99F677C
:1042D00080E870E060E008959FEF80EC089500248E
:1042E0000A941616170618060906089500240A945B
:1042F00012161306140605060895092E0394000CE1
:1043000011F4882352F0BB0F40F4BF2B11F460FF6F
:1043100004C06F5F7F4F8F4F9F4F089557FD905898
:10432000440F551F59F05F3F71F04795880F97FB79
:10433000991F61F09F3F79F0879508951216130633
:104340001406551FF2CF4695F1DF08C01616170662
:104350001806991FF1CF8695710561050894089597
:10436000E894BB2766277727CB0197F908950BD0F0
:10437000C4CFB5DF28F0BADF18F0952309F0A6CF37
:10438000ABCF1124EECFCADFA0F3959FD1F3950FE9
:1043900050E0551F629FF001729FBB27F00DB11DC9
:1043A000639FAA27F00DB11DAA1F649F6627B00D59
:1043B000A11D661F829F2227B00DA11D621F739F42
:1043C000B00DA11D621F839FA00D611D221F749F50
:1043D0003327A00D611D231F849F600D211D822F97
:1043E000762F6A2F11249F5750408AF0E1F08823DE
:1043F0004AF0EE0FFF1FBB1F661F771F881F9150EB
:104400005040A9F79E3F510570F060CFAACF5F3FA3
:10441000ECF3983EDCF3869577956795B795F7951D
:10442000E7959F5FC1F7FE2B880F911D96958795A5
:1044300097F9089597FB072E16F4009407D077FD9F
:1044400009D00E947A2207FC05D03EF49095819510
:104450009F4F0895709561957F4F0895A1E21A2EA0
:10446000AA1BBB1BFD010DC0AA1FBB1FEE1FFF1F18
:10447000A217B307E407F50720F0A21BB30BE40B68
:10448000F50B661F771F881F991F1A9469F76095AF
:104490007095809590959B01AC01BD01CF01089569
:1044A000052E97FB1EF400940E94672257FD07D04B
:1044B0000E942E2207FC03D04EF40C9467225095E4
:1044C0004095309521953F4F4F4F5F4F0895909500
:1044D0008095709561957F4F8F4F9F4F08950E94F3
:1044E0009422A59F900DB49F900DA49F800D911DC7
:1044F00011240895AA1BBB1B51E107C0AA1FBB1FB3
:10450000A617B70710F0A61BB70B881F991F5A955F
:10451000A9F780959095BC01CD010895EE0FFF1F7E
:104520000590F491E02D0994A29FB001B39FC001C2
:10453000A39F700D811D1124911DB29F700D811DCF
:104540001124911D08950F931F93CF93DF93869F9E
:104550008001879F100D969F100D1124C8010E94A5
:10456000C71CEC01009729F0A80160E070E00E94F0
:10457000BF22CE01DF91CF911F910F910895DC01F1
:1045800001C06D9341505040E0F70895F894FFCF7B
:104590000C0B0A2A2A2A2A2A2A382C00000000009A
:1045A000000000000000000000000000000000000B
:1045B00000000000000000000000000000000000FB
:1045C00000000000000000000000000000000000EB
:1045D0000000000000000001000013078000000040
:1045E00001000800400000010004050D01000A0060
:1045F0006400E8033F065B4F666D7D077F6F777C45
:10460000395E797152656164206661696C000D0ED6
:10461000131516191A1C232526292A2C32340000BA
:10462000000069173C17E216EA16FD160C17000089
:0E4630000000D91EEB1F851EAE1E951ECE1E6D
:00000001FF
