:100000000C9464000C943D170C946A170C948C00AB
:100010000C948C000C9414040C948C000C940A0F17
:100020000C948C000C948C000C948C000C948C0020
:100030000C948C000C94A0110C948C000C948C00EB
:100040000C9497170C948C000C94E7190C94191AC3
:100050000C948C000C948C000C948C000C948C00F0
:100060000C94E0150C948C000000000800020100C4
:100070000003040700000000000000000102040863
:100080001020408001020408102001020408102002
:10009000040404040404040402020202020203032E
:1000A00003030303000000002300260029000000D2
:1000B0000000250028002B0000000000240027007D
:1000C0002A005D04F014491A11241FBECFEFD8E0B6
:1000D000DEBFCDBF11E0A0E0B1E0E2E7FEE302C089
:1000E00005900D92AA34B107D9F726E0AAE4B1E051
:1000F00001C01D92A731B207E1F710E0C8ECD0E0D3
:1001000004C02297FE010E94E91DC23CD107C9F735
:100110000E948D1A0C94371F0C940000CF92DF922E
:10012000EF92FF920F931F93E82FF92F05C0015014
:1001300011092109310961F1908196239417B9F3CE
:1001400005C0015011092109310911F1908196234F
:100150009413F7CFC12CD12CE12CF12C0AC08FEFD6
:10016000C81AD80AE80AF80A0C151D052E053F051D
:1001700079F080818623841791F36C2D7D2D8E2D4F
:100180009F2D1F910F91FF90EF90DF90CF900895DA
:1001900060E070E080E090E01F910F91FF90EF90A1
:1001A000DF90CF900895CF93DF93EC0160E08881DA
:1001B0000E945C1984E190E00E94381861E0888117
:1001C0000E945C1984E190E0DF91CF910C94381883
:1001D0000F931F93CF93DF93EC01062F18E007FFD7
:1001E00002C061E001C060E089810E945C19CE011B
:1001F0000E94D300000F115091F7DF91CF911F9112
:100200000F910895EF92FF921F93CF93DF9300D049
:10021000CDB7DEB77C01162F27FF02C060EC01C00E
:1002200060EE26FF606147FF686046FF646017FF6D
:10023000626016FF6160C70129834A830E94E8005B
:100240002981622FC7010E94E8004A81642FC701FB
:100250000E94E800612FC7010F900F90DF91CF91AE
:100260001F91FF90EF900C94E8007F928F929F92E5
:10027000AF92BF92CF92DF92EF92FF920F931F93B4
:10028000CF93DF93EC01162F942E822E60E00E9414
:10029000E80060E0CE010E94E80060E0CE010E942C
:1002A000E80060E0CE010E94E80083E0189F700142
:1002B000112467018FEFC81AD80A570182E0A80EEF
:1002C000B11C712C8A81781600F571120FC0EB8178
:1002D000FC81EE0DFF1D9082EB81FC81EC0DFD1D7C
:1002E0008082EB81FC81EA0DFB1D0083EB81FC81A8
:1002F00083E0789EE00DF11D11242281418160810F
:10030000CE010E9402017394DDCF60E0CE010E9415
:10031000E80060E0CE010E94E80060E0CE010E94AB
:10032000E80060E0CE01DF91CF911F910F91FF9027
:10033000EF90DF90CF90BF90AF909F908F907F9085
:100340000C94E8000F931F93CF93DF93EC01862F5B
:10035000688349832A8361E00E94231961E08981CF
:100360000E9423198A8161E070E023E0829FC0012E
:1003700011240E94ED1D9C838B8310E08A81181745
:1003800048F400E020E040E0612FCE010E943501FA
:100390001F5FF4CFDF91CF911F910F910895FC0162
:1003A00082810895CF93DF93EC01862F6E834F8374
:1003B000288791E09D8760E00E94231961E08E818B
:1003C0000E945C1919861A861B861C86DF91CF91C4
:1003D0000895DF92EF92FF920F931F93CF93DF93D5
:1003E000EC0161E08E810E945C196AEF70E080E0B0
:1003F00090E00E9410180E94E11709851A852B854C
:100400003C85601771078207930720F419861A86C6
:100410001B861C862D85211111C009851A852B8507
:100420003C85DC01CB01801B910BA20BB30B803D03
:100430009740A105B10510F481E071C01D860E94AE
:10044000E11769877A878B879C871C821B821A82B7
:100450001982188261E08E810E94231960E08E81EA
:100460000E945C1964E170E080E090E00E94101846
:10047000F89461E08E810E945C1988E290E00E940D
:10048000381860E08E810E942319F12CD12C81E074
:10049000E12C082F10E08E810E949219801791079D
:1004A00041F4E39481E090E00E9438188FEFE81265
:1004B000F2CF8E810E9492199FEFE916C9F023E0D6
:1004C0002F1590F4F0FC10C09D2D9695969596955D
:1004D000FE01E90FF11D9081990F908328852E155B
:1004E00010F491609083D394F39495E5F912D0CFF2
:1004F000789427E22D1590F42C8130E04881898191
:1005000090E0840F911D4A81840F911D4B81840FCF
:10051000911D99272817390709F48ECF80E0DF91C4
:10052000CF911F910F91FF90EF90DF900895CF92A0
:10053000DF92EF92FF920F931F93CF93DF93EC0123
:10054000162F0E94E901882309F450C08F818B3057
:1005500031F008F44BC08551823078F047C06A8191
:1005600070E080E090E00E948D1C112309F449C0E6
:1005700020E030E040E151E42AC00A81602F6F772B
:1005800070E080E090E00E948F1C20E030E040E8C6
:1005900053E40E941B1D6B017C016B8170E080E0C5
:1005A00090E00E948F1C9B01AC01C701B6010E9424
:1005B000C11B20E030E040E251E40E94251C07FD11
:1005C0009058112309F120E030E040E151E40E940D
:1005D0001B1D20E030E040EA50E40E94251C20E092
:1005E00030E040E052E40E94C11B0EC067E071E0C1
:1005F00086E795E00E94DA1A20E030E040EC5FE701
:1006000005C09B01AC0102C09B01AC01B901CA014C
:10061000DF91CF911F910F91FF90EF90DF90CF90DE
:100620000895CF92DF92EF92FF92CF93DF93EC0188
:100630000E94E901882379F18F818B3029F158F1EB
:100640008551823040F5688170E080E090E00E9442
:100650008D1C20E030E040E853E40E941B1D6B013C
:100660007C01698170E080E090E00E948F1C9B011A
:10067000AC01C701B6010E94C11B20E030E040E29E
:1006800051E40E94251C11C0688170E080E090E078
:100690000E948D1C0AC067E071E086E795E00E9429
:1006A000DA1A60E070E080EC9FE7DF91CF91FF9075
:1006B000EF90DF90CF90089585EA94E00C94951424
:1006C000CF93DF93EC0168E670E085EA94E00E9446
:1006D000CE1460E085EA94E00E94561485EA94E026
:1006E0000E94E31447E050E068E670E085EA94E099
:1006F0000E94C11485EA94E00E94D713282F269502
:10070000269526952E70922F990F990F920F8F7024
:10071000980F988385EA94E00E94D713982F9295BA
:100720009F708F702AE0929F800D1124898385EA43
:1007300094E00E94D713282F26952695269526709B
:10074000922F990F990F920F8F70980F9A8385EAC5
:1007500094E00E94D713982F92959F708F702AE093
:10076000929F800D11248B8385EA94E00E94D71319
:10077000982F92959F708F702AE0929F800D112480
:100780008C8385EA94E00E94D713982F92959F70EE
:100790008F702AE0929F800D11248D8385EA94E06A
:1007A0000E94D713982F92959F708F702AE0929F86
:1007B000800D112490E09F838E83DF91CF91089567
:1007C000CF93DF9382E00E949219EC0183E00E94B4
:1007D00092198C239D23019719F481E080934C0199
:1007E000DF91CF91089584E0809368008BB381718D
:1007F0008BBB8CE080936D00089548EE53E060E081
:1008000070E08FE994E00E942F122FEF3FEFA901D3
:1008100060EE73E08FE994E00E94451278940895A9
:100820008FE994E00C9436121F920F920FB60F923C
:1008300011241F932F933F934F935F936F937F9355
:100840008F939F93AF93BF93CF93DF93EF93FF93D8
:1008500010914C011130E9F482E00E949219EC01F0
:1008600083E00E9492198C179D071CF410934A0193
:100870000CC082E00E949219EC0183E00E94921960
:10088000C817D90734F410924A0110934B01109203
:100890004C01FF91EF91DF91CF91BF91AF919F916B
:1008A0008F917F916F915F914F913F912F911F9108
:1008B0000F900FBE0F901F9018958AE491E00C9452
:1008C000F303CF93DF93EC01862FE62FF0E0F9835B
:1008D000E88350E05B834A832C831E821D8261E0A3
:1008E0000E94231961E08A81DF91CF910C94231932
:1008F0001F93CF93DF93EC0160E08A810E945C1923
:100900008AE090E00E94381814E061E08A810E9439
:100910005C1960E08A810E945C191150B1F7DF9187
:10092000CF911F910895FF920F931F93CF93DF9361
:10093000EC018B0190E1F92E612F661F6627661F7F
:100940008A810E945C1988810E94921961E0892B3A
:1009500009F060E088810E945C19000F111FFA9471
:1009600059F7DF91CF911F910F91FF900895EF926A
:10097000FF920F931F93CF93DF93EC017B01CB0189
:1009800093709E838D8360E070E0CE010E9493049B
:1009900000E010E08C81882351F0C701002E02C0D6
:1009A000880F991F0A94E2F791FF0DC009C0C70193
:1009B000002E02C0969587950A94E2F780FF03C047
:1009C0006FEF70E002C060E070E0CE010E9493041F
:1009D0000F5F1F4F0A301105E9F660E070E0CE01AD
:1009E0000E94930460E070E0CE010E949304CE0167
:1009F000DF91CF911F910F91FF90EF900C947804AD
:100A0000FC016483658176810C94B7046B3008F037
:100A10006AE02FEF3FEF02C0220F331F6A95E2F723
:100A200020953095FC0136832583B9010C94B704D9
:100A3000662321F06B3018F06AE001C061E05FEFDF
:100A4000560FFC012581368161E070E002C0660F1F
:100A5000771F5A95E2F7442319F0622B732B04C0D9
:100A60006095709562237323FC01768365830C94F3
:100A7000B704662321F06B3018F06AE001C061E032
:100A80002FEF260F61E070E002C0660F771F2A95F6
:100A9000E2F7FC012581368162277327768365831F
:100AA0000C94B704FC01858196810895FC0181E0D6
:100AB00020813181232B09F480E0089580915C012D
:100AC00090915D01019690935D0180935C01089582
:100AD0000E94E1176093760170937701809378010B
:100AE0009093790182E00E9492199093650180931E
:100AF0006401892BA9F060E088E00E945C19809174
:100B0000760190917701A0917801B091790180935D
:100B1000720190937301A0937401B093750114C096
:100B20008091760190917701A0917801B09179013F
:100B300080936E0190936F01A0937001B093710147
:100B400061E088E00E945C1940917201509173014C
:100B5000609174017091750180916E0190916F01A7
:100B6000A0917001B091710184179507A607B7078E
:100B700040F5481B590B6A0B7B0B40936A0150935D
:100B80006B0160936C0170936D0180917E01909177
:100B90007F01A0918001B0918101840F951FA61F54
:100BA000B71F80937E0190937F01A0938001B09343
:100BB00081011092720110927301109274011092CF
:100BC0007501089564E070E085EA94E00E94B21433
:100BD0006AE17EE085EA94E00E94E61463E57EE047
:100BE00085EA94E00E94EB1441E050E068E675E08D
:100BF00080E00C940D17AF92BF92CF92DF92EF92EC
:100C0000FF920F931F93CF93DF93CDB7DEB7289753
:100C10000FB6F894DEBF0FBECDBF8091C101909199
:100C2000C201049709F014C281E090E09093C001E2
:100C30008093BF018091C3019091C40186319105D9
:100C400049F46091C5017091C6018EE392E00E9463
:100C5000FA0EFEC18531910521F58EE392E00E94E6
:100C60008610882309F4F4C162E971E08EE392E012
:100C70000E94B30F81E08093A70180E090E084316F
:100C8000910554F4FC01E955FE4FDC01AE56BE4F10
:100C90002C9121830196F3CF9093BE018093BD01E7
:100CA000D7C18130910539F48091C5010E94921914
:100CB0008093BC01CDC18230910539F46091C701A8
:100CC0008091C5010E945C19C3C183309105B1F4C4
:100CD0008091C5010E947E189093910180939001AC
:100CE0009C0197FF02C021503F4F3093A80160E064
:100CF00071E00E947E1D8093A901AAC184309105F4
:100D000049F46091C7017091C8018091C5010E94AA
:100D10009B189EC18530910539F46091C70180917F
:100D2000C5010E94231994C18730910509F043C081
:100D30008091C5019091C60180934F01909350011D
:100D400061E00E94231960E080914F010E945C19CC
:100D500082E090E00E94381861E080914F010E948B
:100D60005C1985E090E00E94381860E080914F01A6
:100D70000E945C1960E080914F010E94231920E4D9
:100D800032E44FE050E061E080914F010E94BB19D6
:100D90002AE330E040E050E00E94B41DCA01B901EE
:100DA00020E031E040E050E00E94B41D2093A80113
:100DB0006093A9014DC18830910541F481E0809391
:100DC000A80182E08093A90185E022C084319105C9
:100DD00011F580918F01811107C08DE392E00E948F
:100DE000D71081E080938F012DE831E04CE851E08D
:100DF0006BE871E08DE392E00E94E71080918B0137
:100E00008093A80180918C018093A90180918D012C
:100E10008093AA011DC18E31910571F580918E01DB
:100E2000811107C085E392E00E945C0381E080931A
:100E30008E0185E392E00E946003809137028093E7
:100E4000A801809136028093A90180913502809398
:100E5000AA0180913A028093AB018091390280937C
:100E6000AC0190913B029093AD018093AE018091D3
:100E700038028093AF01ECC08832910509F057C069
:100E80008091C7019091C801009719F426E04BE0CA
:100E90000BC08130910519F426E046E105C00297A8
:100EA000029740F426E045E16091C50187E292E0B7
:100EB0000E94D20160E087E292E00E9497026D8377
:100EC0007E838F83988787E292E00E941103698373
:100ED0007A838B839C8310924E0110924D01FE0108
:100EE000359680E090E001962191DC01A955BE4F36
:100EF0002C9384309105BCF384E090E090934E01F4
:100F000080934D010196DC01A955BE4FE1E0F0E070
:100F1000EC0FFD1FE80FF91F359720812C938830C7
:100F2000910584F390934E0180934D0191C08233DB
:100F30009105D9F44091C5015091C60121E08091FD
:100F4000C7019091C801892B09F420E061E0640F8A
:100F5000FA01329737E03E9FC0013F9F900D112468
:100F600083509E4F0E94610473C0C39791F42091F7
:100F7000C5013091C6012250310947E0429FC001AE
:100F8000439F900D112483509E4F0E94560581115E
:100F90001EC18091C3019091C401C49709F430C16E
:100FA0008091C3019091C401C59791F42091C5012E
:100FB0003091C6012250310947E0429FC001439F52
:100FC000900D112483509E4F0E94560581113DC102
:100FD0008091C3019091C401C69791F42091C501FD
:100FE0003091C6012250310917E0129FC001139FB2
:100FF000900D112483509E4F0E94560581116DC1A2
:101000008091C3019091C401C79709F439C18091BF
:10101000C3019091C401C89709F471C18091C301C3
:101020009091C4018634910509F090C16091C50189
:101030007091C60141E0460F9B0122503109C90160
:10104000880F991F820F931F85519E4F0E94601237
:101050008091680190916901892BD9F10E94E11773
:1010600000918201109183012091840130918501CA
:10107000601B710B820B930B6133754781059105E2
:1010800040F181E090E09093670180936601809148
:101090007E0190917F01A0918001B09181018093A8
:1010A0007A0190937B01A0937C01B0937D01109213
:1010B0007E0110927F0110928001109281010E94A6
:1010C000E117609382017093830180938401909370
:1010D000850180915E0190915F01892B39F18091AA
:1010E0004B01813019F520914A0180916201909164
:1010F0006301213049F401968931910554F0109231
:1011000063011092620109C0019797FF02C088E154
:1011100090E0909363018093620181E0809360018D
:10112000809162018093610110924B01809158017E
:1011300090915901892B09F46CC50E94E117009127
:101140005401109155012091560130915701601BB7
:10115000710B820B930B613D77408105910508F47B
:1011600058C520915C0130915D014EE1429FC00164
:10117000439F900D112469E470E00E947E1DE62FCC
:10118000472F60935A0170935B0181E08093510176
:10119000862F972F60E071E00E947E1D80935201A0
:1011A0002E2F342F37FF02C021503F4F3093530171
:1011B00010925D0110925C010E94E117609354014E
:1011C00070935501809356019093570122C561E0B9
:1011D0008091C7019091C801892B09F460E02091AA
:1011E000C5013091C6012250310947E0429FC0013C
:1011F000439F900D112483509E4F0E94000528CFDD
:101200002091C5013091C6012250310917E0129F8B
:10121000C001139F900D112483509E4F0E945605CC
:10122000882309F4BDCE2091C5013091C60122501A
:101230003109129FC001139F900D11246091C701C5
:1012400083509E4F0E94060503CF41E08091C90163
:101250009091CA01892B09F440E02091C501309199
:10126000C6012250310957E0529FC001539F900D93
:1012700011246091C70183509E4F0E941805E8CE4B
:101280002091C5013091C6012250310917E0129F0B
:10129000C001139F900D112483509E4F0E9456054C
:1012A000882309F4B4CE80E090E09091C901609168
:1012B000C7017091C801682779272091C501309135
:1012C000C60122503109129FC001139F900D1124B5
:1012D00083509E4F0E94B704BBCE2091C501309130
:1012E000C60122503109129FC001139F900D112495
:1012F0006091C70183509E4F0E943905A9CE20916D
:10130000C5013091C6012250310917E0129FC0017A
:10131000139F900D112483509E4F0E9456058823E1
:1013200009F47CCE2091C5013091C60122503109CB
:10133000129FC001139F900D112483509E4F0E9455
:1013400052058093A8019093A90182CE873491051C
:1013500019F52091C5013091C60122503109C9010A
:10136000880F991F820F931F85519E4F0E94C813AB
:10137000882391F02091C5013091C6012250310996
:10138000C901880F991F820F931F6091C701855172
:101390009E4F0E9477125CCE8091C3019091C40150
:1013A0008834910559F52091C5013091C60122502C
:1013B0003109C901880F991F820F931F85519E4FD4
:1013C0000E94C8138823D1F080E090E09091C90179
:1013D0006091C7017091C801682779272091C501E4
:1013E0003091C60122503109C901880F991F820F1F
:1013F000931FE12C00E024E040E031C08091C30164
:101400009091C4018934910579F52091C5013091FD
:10141000C60122503109C901880F991F820F931FFD
:1014200085519E4F0E94C8138823F1F080E090E020
:101430009091C9016091C7017091C801682779270F
:101440002091C5013091C60122503109C901880F90
:10145000991F820F931FE12C00E024E041E08551A9
:101460009E4F0E944B13F4CD8091C3019091C40113
:101470008A34910519F52091C5013091C601225099
:101480003109C901880F991F820F931F85519E4F03
:101490000E94C813882391F02091C5013091C601A4
:1014A00022503109C901880F991F820F931F609143
:1014B000C90185519E4F0E94C1131AC08091C3017A
:1014C0009091C4018B34910519F52091C50130919B
:1014D000C60122503109C901880F991F820F931F3D
:1014E00085519E4F0E94C813882391F08091C901B5
:1014F00089832091C5013091C60122503109C9016B
:10150000880F991F820F931F2091C70141E00FC1DF
:101510008091C3019091C4018C34910589F420918C
:10152000C5013091C60122503109C901880F991FA8
:10153000820F931F85519E4F0E94C81381111AC0BC
:101540008091C3019091C4018D34910509F075C05B
:101550002091C5013091C60122503109C901880F7F
:10156000991F820F931F85519E4F0E94C8138111AE
:1015700082C063C08091C7019091C8010AE010E069
:10158000B8010E947E1D2091C5013091C6012250F4
:101590003109C901880F991F820F931F85519E4FF2
:1015A0000E94C11389838091C7019091C801B8013D
:1015B0000E947E1D2091C5013091C6012250310943
:1015C000A901440F551F420F531F682FCA018551AF
:1015D0009E4F0E94C11380688A838091C9019091B7
:1015E000CA01B8010E947E1D2091C5013091C6013B
:1015F00022503109C901880F991F820F931F85510D
:101600009E4F0E94C1138B838091C9019091CA01A2
:10161000B8010E947E1D2091C5013091C601225063
:101620003109A901440F551F420F531F682FCA01EA
:1016300085519E4F0E94C1134FC08091C30190916C
:10164000C4018E34910509F049C02091C501309143
:10165000C60122503109C901880F991F820F931FBB
:1016600085519E4F0E94C8138823C1F18FEF898353
:101670008A838B8331C01091C701A090C901B090BB
:10168000CA01AA0CBB1CAA0CBB1CC12CD12CCA14AD
:10169000DB040CF0DDCC812F0E947E18BC01209170
:1016A000C5013091C60122503109C901880F991F27
:1016B000820F931FE12C00E024E040E085519E4F13
:1016C0000E944B136AEF70E080E090E00E941018D7
:1016D0002FEFC21AD20ADBCF8C831CC08091C301CA
:1016E0009091C4018F34910551F52091C50130913D
:1016F000C60122503109C901880F991F820F931F1B
:1017000085519E4F0E94C8138823C9F019821A82FE
:101710001B821C822091C5013091C60122503109E3
:10172000C901880F991F820F931F20E044E0BE017A
:101730006F5F7F4F85519E4F0E94FE1289CC809132
:10174000C3019091C4018A35910569F48091C50166
:10175000809388018091C701809389018091C9019C
:1017600080938A0175CC8B359105B1F46091C501E8
:101770007091C60141E0460F9B012250310955E0AE
:10178000529FC001539F900D11242091C701835394
:101790009E4F0E94A2015CCC8C35910509F044C09B
:1017A0006091C5017091C60141E0460F9B01225036
:1017B000310955E0529FC001539F900D1124209193
:1017C000C70183539E4F0E94A2011091C90112FBD1
:1017D000DD24D0F8D19411FBCC24C0F8C194117051
:1017E0001195E12CF12CE5E0BE2E8091C70190917E
:1017F000C801E816F9060CF02BCC6091C501709178
:10180000C60162507109B69EC001B79E900D1124A9
:10181000012F2C2D4D2D6E2D83539E4F0E9435018F
:101820003FEFE31AF30AE1CF8D35910509F074C05B
:101830002091C7013091C8018091C5019091C601E6
:10184000232BB1F49C012250310945E0429FC00195
:10185000439F900D112400918A01209189014091AC
:1018600088016091C90183539E4F0E943501F0CBDE
:101870009C012250310945E0429FC001439F900DD9
:10188000112483539E4F0E94CF01E12CF12CC82ECE
:10189000D12C15E0EC14FD040CF0DACB2091C7013B
:1018A0003091C8012130310541F48091C9019091F6
:1018B000CA01E816F906B1F42BC02230310541F413
:1018C0008091C9019091CA018E159F055CF420C0DA
:1018D00023303105E9F48091C9019091CA01E816DD
:1018E000F906B4F02091C5013091C60122503109AA
:1018F000129FC001139F900D112400918A01209125
:101900008901409188016E2D83539E4F0E943501BD
:101910004FEFE41AF40ABECF8E35910509F052C09C
:101920008091C9019091CA011816190634F081E01E
:1019300090E09093CA018093C9012091C501309134
:10194000C6012250310945E0429FC001439F900DDE
:10195000112483539E4F0E94CF01E090C701F09065
:10196000C801C82ED12C15E0EC14FD040CF070CB8E
:101970008091C7019091C8019701281B390BC901BB
:101980006091C9017091CA010E947E1D892BB1F43A
:101990002091C5013091C60122503109129FC0012A
:1019A000139F900D112400918A012091890140918B
:1019B00088016E2D83539E4F0E9435013FEFE31A3D
:1019C000F30AD2CF8F35910509F084C02091C5016B
:1019D0003091C6012250310945E0429FC001439F2A
:1019E000900D112483539E4F0E94CF01182F809198
:1019F000C9019091CA01C12ED12CE12CF12C892B67
:101A000099F515E0EC14FD040CF022CB2091C701F0
:101A10003091C8018091C5019091C601E216F3068C
:101A20007CF49C0122503109129FC001139F900D3C
:101A3000112400918A0120918901409188010BC0F5
:101A40009C0122503109129FC001139F900D112457
:101A500000E020E040E06E2D83539E4F0E94350150
:101A60004FEFE41AF40ACECF75E0B72E96012E1987
:101A70003F0909F4EDCA8091C7019091C801A60100
:101A8000481B590BCA014091C5015091C601612FF5
:101A90006E19425051092817390764F0B49EC001ED
:101AA000B59E900D112400918A01209189014091E9
:101AB000880108C0B49EC001B59E900D112400E0BD
:101AC00020E040E083539E4F0E9435015FEFE51A0E
:101AD000F50ACCCF8E309105C1F441E050E068E6C4
:101AE00075E080E00E940D1781E090E0909369011D
:101AF000809368010E94E1176093820170938301D3
:101B000080938401909385017FC08F30910541F4CB
:101B100080E00E942D17109269011092680174C034
:101B20008A30910551F58091860190918701019746
:101B300009F08ECA809166018093A70180917A0195
:101B400090917B01A0917C01B0917D018093A801CF
:101B5000492F5A2F6B2F772740937A0150937B019F
:101B600060937C0170937D014093A901A093AA0129
:101B700010928701109286016BCA8031910559F449
:101B80008AE491E00E94FD0381E090E090935F0180
:101B900080935E0139C08131910549F48AE491E076
:101BA0000E94100410925F0110925E0151CA8231AE
:101BB000910501F560E082E00E94231943E050E0C6
:101BC0006EE575E080E00E940D1710925D011092A5
:101BD0005C010E94E117609354017093550180935A
:101BE00056019093570181E090E0909359018093C2
:101BF00058010AC00D9709F02BCA10925901109292
:101C0000580180E00E942D171092C4011092C30168
:101C10001FCA28960FB6F894DEBF0FBECDBFDF9166
:101C2000CF911F910F91FF90EF90DF90CF90BF90D9
:101C3000AF9008950F931F93CF93DF9301E010E0CF
:101C400085EA94E00E94CF13892B41F185EA94E064
:101C50000E94CF13049761F41092C0011092BF014B
:101C60001092C2011092C101109387010093860166
:101C7000C091C101D091C201CE0101969093C201E1
:101C80008093C10185EA94E00E94D713FE01EE0F14
:101C9000FF1FED53FE4F91838083D2CFDF91CF9111
:101CA0001F910F9108958091C3019091C4010197F4
:101CB00031F46091BC0185EA94E00E945614809151
:101CC000C3019091C4019C012B7F2330310511F099
:101CD000C89741F443E050E067EA71E085EA94E098
:101CE0000E9429148091C3019091C401883091050C
:101CF00011F0449741F444E050E067EA71E085EA6E
:101D000094E00E9429148091C3019091C4018E3106
:101D1000910511F0889741F449E050E067EA71E0DD
:101D200085EA94E00E9429148091C3019091C40136
:101D3000459751F445E150E067EA71E085EA94E0A7
:101D40000E9429141092A7018091C3019091C401AF
:101D50000A9781F444E050E067EA71E085EA94E094
:101D60000E94291410926701109266011092C4011A
:101D70001092C3018091C3019091C4010B9771F43B
:101D800042E050E060E671E085EA94E00E942914A8
:101D9000109260011092C4011092C3018091C3019E
:101DA0009091C4010C9771F443E050E061E571E05B
:101DB00085EA94E00E942914109251011092C40106
:101DC0001092C3010895F89482E08093B00080934C
:101DD000B10094E69093B3001092B200809370002B
:101DE00078948093430210929E048091420260E0B6
:101DF0000C942319609342020E94E30E64E170E0A8
:101E000080E090E00E94101882E0809343021092DC
:101E10009E0408951F920F920FB60F9211242F93D4
:101E20003F934F935F936F937F938F939F93AF9362
:101E3000BF93EF93FF93809142020E9492192091E9
:101E40004402309145022F5F3F4F3093450220936B
:101E5000440290919E04909143029330B9F018F49B
:101E6000923039F056C0943051F1953009F44BC09E
:101E700050C081114EC08091440290914502843639
:101E8000910508F442C010929E041BC0813009F0F5
:101E900040C0E0919E048E0F80939E04F0E08091FC
:101EA000440290914502EE0FFF1FEA5BFD4F9183C4
:101EB0008083109245021092440284E021C0811177
:101EC00017C0E0919E0481E08E0F80939E04F0E0A5
:101ED0008091440290914502EE0FFF1FEA5BFD4F97
:101EE00091838083109245021092440283E008C0DF
:101EF00080914402909145028536910550F085E02D
:101F00008093430206C0811104C0109245021092D2
:101F10004402FF91EF91BF91AF919F918F917F917B
:101F20006F915F914F913F912F910F900FBE0F9046
:101F30001F90189586E492E0FB0191838083809145
:101F40009E0490E09383828380914302853041F424
:101F500082E08093430210929E0481E090E0089515
:101F600080E090E008952F923F924F925F926F929F
:101F70007F928F929F92AF92BF92CF92DF92EF9219
:101F8000FF920F931F93CF93DF931C01FB01DC01A2
:101F900012962D913C9113973901B4E06B1A710898
:101FA00077FE04C03901CBE06C0E711CA4E075947F
:101FB0006794AA95E1F7D1010D911C9140E050E0A2
:101FC00080E090E07801B6E0EB0EF11CD701A40FA1
:101FD000B51F6D917C91860F971F4C5F5F4F483204
:101FE0005105A1F76AE070E00E947E1D7B014B0164
:101FF000880C991CD801189640E050E060E070E031
:1020000080E090E08901095011092D913C911197D0
:102010008216930638F42D913C911197820F931FED
:102020006F5F7F4F6A30710559F014969A012E5FE9
:102030003F4F4A5F5F4F4017510714F4A901E5CFA6
:102040000E947E1D562EDF01169648E050E020E0EB
:1020500030E0CC24C394D12C2615370544F51C92CE
:102060008A0187E090E0E10168817981600F711F4A
:10207000EB01A880B9804C90B601082E01C0660F14
:102080000A94EAF78A149B0410F4642902C060954C
:1020900064216C9301970C5F1F4F8F3FDFEF9D070B
:1020A00011F72F5F3F4F1196405E5F4FD5CF85E010
:1020B000860D8083E101A881B98112968D919C9152
:1020C00013978183A881B98114968D919C9115975E
:1020D0008283E3825482658282E08093430210927D
:1020E0009E0480818F5FDF91CF911F910F91FF90B0
:1020F000EF90DF90CF90BF90AF909F908F907F90A8
:102100006F905F904F903F902F900895CF93DF9303
:10211000EC01BC010E949A0F892BC1F08A819B813E
:102120008034910534F004979C0127703327232BCA
:1021300031F082E08093430210929E0407C0B4E025
:1021400095958795BA95E1F78A5F01C080E0DF91A8
:10215000CF9108951F93CF93DF931F92CDB7DEB732
:10216000162F85EA94E049830E9495146CE470E090
:1021700085EA94E00E94CE14612F85EA94E00E94E3
:1021800056144981642F85EA94E00E94561485EA2A
:1021900094E00F90DF91CF911F910C94E314462FA0
:1021A00067E00C94AA10462F68E00C94AA10CF9315
:1021B000DF93EC0160E00E94CF1060E0CE010E944E
:1021C000D31061E0CE01DF91CF910C94CF104F92EC
:1021D0005F926F927F928F929F92AF92BF92CF92B7
:1021E000DF92EF92FF920F931F93CF93DF9300D074
:1021F0001F92CDB7DEB75B016A01790180E48B8362
:102200008A8389830E94E1172B013C0185EA94E0CF
:102210000E94CF13181619066CF40E94E117641976
:10222000750986099709653F71408105910574F329
:1022300080E072C085EA94E00E94D71343E050E04A
:102240006CE470E085EA94E00E94C1140E94E117FA
:102250002B013C018E010F5F1F4F480185EA94E07E
:102260000E94CF13892B69F1C80188199909039736
:10227000D4F40E94E1172B013C01F80180818034E5
:1022800090F085EA94E00E94D713F80180830E94C1
:10229000E11764197509860997096333710581058A
:1022A00091055CF3C5CF0E94E1170F5F1F4F6419C2
:1022B000750986099709653F71408105910574F29A
:1022C000B7CF898124E0829FC0011124282F87FF86
:1022D00002C023E0280F25952595F50120838A81EA
:1022E000F4E08F9FC0011124282F87FF02C023E054
:1022F000280F25952595F60120838B81F4E08F9F8B
:10230000C0011124282F87FF02C023E0280F259544
:102310002595F701208381E00F900F900F90DF91BA
:10232000CF911F910F91FF90EF90DF90CF90BF90D2
:10233000AF909F908F907F906F905F904F90089597
:102340001F920F920FB60F9211242F933F934F932A
:102350005F936F937F938F939F93AF93BF93EF930D
:10236000FF93E091A304F091A4040995FF91EF91EC
:10237000BF91AF919F918F917F916F915F914F919D
:102380003F912F910F900FBE0F901F901895FC0159
:10239000A3E0440F551F661F771FAA95D1F741157B
:1023A000510581E06807710514F481E00EC033E047
:1023B00075956795579547953A95D1F7411551050C
:1023C00081E0680771051CF482E0828331C023E05C
:1023D00075956795579547952A95D1F741155105FC
:1023E00081E06807710514F483E0EFCF92E0759502
:1023F0006795579547959A95D1F74115510581E015
:102400006807710514F484E0E0CF82E07595679564
:10241000579547958A95D1F785E0828341155105F7
:1024200081E06807710524F04FEF5FEF60E070E036
:102430008FB78383F89451834083509387004093F0
:10244000860083818FBF80918100887F8093810087
:10245000809181009281892B809381000895109250
:10246000800020E1209381000C94C711EFE6F0E09A
:1024700080818E7F80830895E1E8F0E02081DC0197
:1024800012968C91282B208308950F931F93CF933E
:10249000DF93EC018B01BA01A9011416150616068B
:1024A000170614F40E94C7111D830C8381E08093EA
:1024B0006F00CE01DF91CF911F910F910C943C12D0
:1024C000CF93DF93EC01862F6883498360E00E94FD
:1024D000231960E089810E94231960E088810E94AD
:1024E0005C1960E08981DF91CF910C945C196830B0
:1024F00010F4685F01C06FE0FC016283089561E041
:10250000FC0181810E94231982E390E00C94381829
:10251000CF93DF93EC0161E089810E94231982E36C
:1025200090E00E94381860E088810E94231982E3BD
:1025300090E00E94381860E089810E94231982E3AC
:1025400090E0DF91CF910C9438180F931F93CF93A5
:10255000DF93EC01062F18E061E088810E942319C7
:1025600082E390E00E94381800FF02C060E001C0E2
:1025700061E089810E94231982E390E00E9438186B
:1025800060E088810E94231982E390E00E9438185D
:102590000695115009F761E088810E94231960E0D7
:1025A00089810E94231982E390E00E94381860E03C
:1025B00088810E94231982E390E00E943818898163
:1025C0000E949219182F811104C061E089810E9434
:1025D000231982E390E00E94381861E088810E940C
:1025E000231982E390E00E94381881E0111101C0A4
:1025F00080E0DF91CF911F910F910895AF92BF922C
:10260000DF92EF92FF920F931F93CF93DF9300D04F
:10261000CDB7DEB75C01F62EE42E29837A830E94C3
:102620007F1260E4C5010E94A512C5010E948812B4
:10263000C5010E947F122981622F63706054C50119
:102640000E94A512DF2C0F2D7A81172F802F8D1954
:102650008E1538F4F80161918F01C5010E94A51211
:10266000F5CFC5010E948812C5010E947F12F501B5
:1026700062816058C5010E94A512C5010F900F909C
:10268000DF91CF911F910F91FF90EF90DF90BF905E
:10269000AF900C9488124F925F926F927F928F92BC
:1026A0009F92AF92BF92CF92DF92EF920F931F93C0
:1026B000CF93DF9300D000D0CDB7DEB73C015B01F4
:1026C000322F202F89E1882E81E0982ECE010196AD
:1026D0006C01FC0101E01FE3D4015E904E904D01BE
:1026E000C501B2010E947E1D6115710561F44111A1
:1026F00006C0002321F08E2F8C19833011F4108333
:1027000013C0108211C0A62FAF70B0E0A75EBE4FFD
:102710008C918083649DC001659D900D749D900D8A
:102720001124A81AB90A00E0EE2039F08E2F8C1976
:10273000813019F48081806880833196B1E18B16F5
:10274000B1E09B0649F664E070E0631B71096C0D13
:102750007D1D432FC3010E94FE120F900F900F901A
:102760000F90DF91CF911F910F91EF90DF90CF905D
:10277000BF90AF909F908F907F906F905F904F90A1
:1027800008956F70E62FF0E0E75EFE4F80810895B8
:10279000FC0181E09081911101C080E00895809159
:1027A000D90490E02091DA04821B910908952091C8
:1027B000DA048091D904281750F4E22FF0E0E552B2
:1027C000FB4F808190E02F5F2093DA0408958FEF14
:1027D0009FEF0895E091DA048091D904E81730F46E
:1027E000F0E0E552FB4F808190E008958FEF9FEF7E
:1027F00008950895E091B104F091B2043097E1F0AA
:102800003091DA042091D9043217B0F040E0242F3F
:1028100030E02617370754F4DC01A20FB31F5C9198
:10282000D901A552BB4F5C934F5FF1CF1092DA04F0
:102830006093D904CB0109940895E091B304F09119
:10284000B404309729F01092B7041092B60409949A
:102850000895CF92DF92EF92FF920F931F93CF9341
:10286000DF937C01CB018A012091B504222389F0FA
:10287000EB016B01C40ED51ECC15DD0569F0699125
:10288000D701ED91FC910190F081E02DC7010995F0
:10289000F3CF642F0E94AD15C801DF91CF911F9136
:1028A0000F91FF90EF90DF90CF900895CF93DF933B
:1028B0001F92CDB7DEB769832091B5042223D1F0F2
:1028C0002091B604203240F021E030E0FC01338357
:1028D000228380E090E015C08091B704E82FF0E0FB
:1028E000E854FB4F998190838F5F8093B704809366
:1028F000B60405C061E0CE0101960E94AD1581E0ED
:1029000090E00F90DF91CF910895FC011382128225
:1029100048EE53E060E070E044835583668377833C
:102920008DE291E09183808308951092DA041092F1
:10293000D9041092B7041092B6040C94F414CF93F7
:10294000DF93EC01862F0E9412158DE194E10E9425
:10295000CB158AEF93E10E94C615CE01DF91CF918E
:102960000C9495140C949F14862F413208F040E289
:102970006BED74E00E9416151092DA048093D9046E
:10298000089521E00C94B41481E08093B504609321
:10299000D8041092B7041092B60408950C94C4148D
:1029A0000F93062F21E04091B60468EB74E080910C
:1029B000D8040E945A151092B7041092B6041092CF
:1029C000B5040F91089561E00C94D0147093B20493
:1029D0006093B10408957093B4046093B3040895B0
:1029E00085EA94E00C9485141092680581E0809348
:1029F00066051092650561E082E10E945C1961E064
:102A000083E10E945C19E9EBF0E080818E7F808396
:102A100080818D7F808388E48093B80085E48093F3
:102A2000BC000895880F8093BA000895413208F0E1
:102A30003FC0909168059111FCCF91E0909368059B
:102A4000209366052FEF2093FB0410924005240F7E
:102A500020933F059093670590916705880F892B18
:102A60008093670580916505813041F4109265057A
:102A7000809167058093BB0085EC01C085EE809353
:102A8000BC00809168058130E1F380914005841796
:102A900010F44091400521E435E0FB01D9018A2F73
:102AA000821B841718F48D918193F9CF842F089598
:102AB00080E008950F93413208F046C09091680578
:102AC0009111FCCF92E090936805009366059FEF0B
:102AD0009093FB041092400540933F05FB0161E495
:102AE00075E0DB019A2F961B941718F491919D9332
:102AF000F9CF1092670590916705880F892B809315
:102B0000670580916505813041F4109265058091DB
:102B100067058093BB0085EC01C085EE8093BC0007
:102B2000222321F0809168058230E1F38091FB043B
:102B30008F3F61F08091FB04803251F08091FB0463
:102B4000803341F483E007C081E005C080E003C02A
:102B500082E001C084E00F910895613298F42091E1
:102B60006805243089F460931D05FC018FE195E030
:102B7000DC012A2F281B261718F421912D93F9CF59
:102B800080E0089581E0089582E0089590936205C1
:102B9000809361050895909364058093630508957B
:102BA00085ED8093BC008091BC0084FDFCCF109229
:102BB0006805089585EC8093BC001092680508951F
:102BC0001F920F920FB60F9211242F933F934F93A2
:102BD0005F936F937F938F939F93AF93BF93EF9385
:102BE000FF938091B900887F803609F49CC068F516
:102BF000883209F45BC090F4803109F454C038F491
:102C0000882309F4F5C0883009F44DC0F5C0883137
:102C100009F44CC0803209F45DC0EEC0803409F480
:102C200068C048F4803309F455C0883309F0E4C023
:102C30008093FB04A8C0803509F44FC0883509F49F
:102C40005DC0883409F0D8C0D5C0883909F4C6C041
:102C5000A8F4883709F467C038F4883609F463C0EB
:102C6000803709F460C0C8C0883809F4B7C080391B
:102C700009F45FC0803809F0BFC05BC0803B09F435
:102C800085C038F4803A09F466C0883A09F47EC0F9
:102C9000B3C0803C09F4A6C0883C09F4A3C0883BBB
:102CA00009F489C0A9C08091670510C090914005C2
:102CB00080913F05981770F5E091400581E08E0FF7
:102CC00080934005F0E0EF5BFA4F80818093BB007A
:102CD00085EC85C08093FB048DC0E091400581E0C8
:102CE0008E0F809340058091BB00F0E0EF5BFA4FC0
:102CF00080839091400580913F056DC0E091400533
:102D000081E08E0F809340058091BB00F0E0EF5B87
:102D1000FA4F80838091660581116CC081E08093B9
:102D2000650584EA60C083E0809368051092FC0426
:102D3000CFCF8091FC04803208F050C0E091FC04B9
:102D400081E08E0F8093FC048091BB00F0E0E350A3
:102D5000FB4F8083BDCF8091FC04803230F4E09142
:102D6000FC04F0E0E350FB4F10820E94D01560910C
:102D7000FC0470E0E0916105F09162058DEF94E054
:102D800009951092FC040E94DA1536C084E0809305
:102D9000680510921E0510921D05E0916305F091E3
:102DA0006405099580911D05811105C081E080931E
:102DB0001D0510921F05E0911E0581E08E0F809386
:102DC0001E05F0E0E15EFA4F80818093BB00909198
:102DD0001E0580911D05981708F47ACF85E8809329
:102DE000BC000AC085EC8093BC001092680504C04A
:102DF0001092FB040E94D015FF91EF91BF91AF910B
:102E00009F918F917F916F915F914F913F912F9102
:102E10000F900FBE0F901F9018958230E8F4E82FA6
:102E2000F0E0EE0FFF1FE759FA4F718360838130A6
:102E300041F0809169008C7F842B80936900E89A2F
:102E4000089580916900440F551F440F551F837FDB
:102E5000842B80936900E99A0895823068F4813068
:102E600011F0E89801C0E998E82FF0E0EE0FFF1F9D
:102E7000E759FA4F1182108208951F920F920FB6F0
:102E80000F9211242F933F934F935F936F937F93F0
:102E90008F939F93AF93BF93EF93FF9380916905B7
:102EA00090916A05892B29F0E0916905F0916A05F6
:102EB0000995FF91EF91BF91AF919F918F917F9174
:102EC0006F915F914F913F912F910F900FBE0F9097
:102ED0001F9018951F920F920FB60F9211242F93E7
:102EE0003F934F935F936F937F938F939F93AF9392
:102EF000BF93EF93FF9380916B0590916C05892BA5
:102F000029F0E0916B05F0916C050995FF91EF9127
:102F1000BF91AF919F918F917F916F915F914F91F1
:102F20003F912F910F900FBE0F901F9018951F92F9
:102F30000F920FB60F9211242F933F938F939F936D
:102F4000AF93BF9380916E0590916F05A09170052E
:102F5000B091710530916D0523E0230F2D3720F4DA
:102F60000196A11DB11D05C026E8230F0296A11DE3
:102F7000B11D20936D0580936E0590936F05A0930E
:102F80007005B09371058091720590917305A091C1
:102F90007405B09175050196A11DB11D8093720550
:102FA00090937305A0937405B0937505BF91AF918D
:102FB0009F918F913F912F910F900FBE0F901F9077
:102FC00018952FB7F89460916E0570916F058091F8
:102FD0007005909171052FBF08953FB7F8948091C7
:102FE000720590917305A0917405B091750526B591
:102FF000A89B05C02F3F19F00196A11DB11D3FBF31
:103000006627782F892F9A2F620F711D811D911DC0
:1030100042E0660F771F881F991F4A95D1F70895E0
:10302000CF92DF92EF92FF92CF93DF936B017C01FF
:103030000E94ED17EB01C114D104E104F10489F001
:103040000E94DC1A0E94ED176C1B7D0B683E7340DA
:1030500090F381E0C81AD108E108F108C851DC4FAB
:10306000EACFDF91CF91FF90EF90DF90CF9008955E
:103070008230910538F0880F991F880F991F0597A6
:103080000197F1F70895789484B5826084BD84B582
:10309000816084BD85B5826085BD85B5816085BD53
:1030A000EEE6F0E0808181608083E1E8F0E010826C
:1030B000808182608083808181608083E0E8F0E0AD
:1030C000808181608083E1EBF0E080818460808397
:1030D000E0EBF0E0808181608083EAE7F0E08081CE
:1030E000846080838081826080838081816080832E
:1030F0008081806880831092C10008958E3008F02E
:103100008E5087702091060190E4299F9001112430
:10311000822B80937C0080917A00806480937A0077
:1031200080917A0086FDFCCF809178002091790013
:1031300090E0922B08951F93CF93DF93182FEB010C
:1031400061E00E942319209711F460E004C0CF3F92
:10315000D10539F461E0812FDF91CF911F910C945B
:103160005C19E12FF0E0E859FF4FE491E330F9F00A
:1031700048F4E130B9F0E230A1F584B5806284BD55
:10318000C8BD34C0E730E9F0E83019F1E43049F562
:1031900080918000806280938000D0938B00C093E8
:1031A0008A0024C084B5806884BDC7BD1FC08091DB
:1031B0008000806880938000D0938900C09388004D
:1031C00015C08091B00080688093B000C093B300B8
:1031D0000DC08091B00080628093B000C093B400B5
:1031E00005C0C038D1050CF0B5CFAFCFDF91CF917E
:1031F0001F910895833081F028F4813099F0823056
:10320000A1F008958730A9F08830B9F08430D1F466
:10321000809180008F7D03C0809180008F778093A4
:103220008000089584B58F7702C084B58F7D84BDFA
:1032300008958091B0008F7703C08091B0008F7D9A
:103240008093B0000895CF93DF9390E0FC01E458A1
:10325000FF4F2491FC01E057FF4F8491882349F1EF
:1032600090E0880F991FFC01E854FF4FA591B4919D
:1032700082559F4FFC01C591D4919FB7611108C041
:10328000F8948C91209582238C93888182230AC0A4
:10329000623051F4F8948C91322F309583238C93C3
:1032A0008881822B888304C0F8948C91822B8C9324
:1032B0009FBFDF91CF9108950F931F93CF93DF931B
:1032C0001F92CDB7DEB7282F30E0F901E859FF4F44
:1032D0008491F901E458FF4F1491F901E057FF4F31
:1032E00004910023C9F0882321F069830E94FA1811
:1032F0006981E02FF0E0EE0FFF1FE255FF4FA5912F
:10330000B4919FB7F8948C91611103C010958123FB
:1033100001C0812B8C939FBF0F90DF91CF911F91A4
:103320000F910895CF93DF93282F30E0F901E859EA
:10333000FF4F8491F901E458FF4FD491F901E05710
:10334000FF4FC491CC2391F081110E94FA18EC2F09
:10335000F0E0EE0FFF1FEC55FF4FA591B4912C91BB
:103360002D2381E090E021F480E002C080E090E035
:10337000DF91CF9108950F931F93762F90E0FC017A
:10338000E458FF4F6491FC01E057FF4FE491711145
:10339000762FF0E0EE0FFF1FEC55FF4F85919491D3
:1033A00089019A013F70472F0E948E0061157105B7
:1033B0008105910531F06F5F7F4F8F4F9F4F9F7059
:1033C00003C060E070E0CB011F910F9108951F9240
:1033D0000F920FB60F9211242F938F939F93EF9319
:1033E000FF93E0918605F09187058081E0918C053F
:1033F000F0918D0582FD12C0908180918F058F5FC5
:103400008F7320919005821751F0E0918F05F0E0C5
:10341000EA58FA4F958F80938F0501C08081FF9104
:10342000EF919F918F912F910F900FBE0F901F9052
:1034300018951F920F920FB60F9211242F933F935E
:103440004F935F936F937F938F939F93AF93BF93AC
:10345000EF93FF9386E795E00E94181BFF91EF9191
:10346000BF91AF919F918F917F916F915F914F919C
:103470003F912F910F900FBE0F901F90189586E7E8
:1034800095E00E94DD1A21E0892B09F420E0822FCB
:103490000895109279051092780588EE93E0A0E0E7
:1034A000B0E080937A0590937B05A0937C05B09360
:1034B0007D058DE391E0909377058093760585EC0B
:1034C00090E0909383058093820584EC90E0909344
:1034D00085058093840580EC90E090938705809328
:1034E000860581EC90E0909389058093880582ECB5
:1034F00090E090938B0580938A0586EC90E0909302
:103500008D0580938C0510928F0510929005109276
:10351000910510929205089508950E9443180E9403
:103520008C1A0E94E205CAE0DBE10E94FB052097AD
:10353000E1F30E940A1BF9CFCF92DF92EF92FF9244
:103540000F931F93CF93DF936C017A01EB01E60E8B
:10355000F71E00E010E0CE15DF0561F06991D6019D
:10356000ED91FC910190F081E02DC6010995080FC5
:10357000191FF1CFC801DF91CF911F910F91FF90DB
:10358000EF90DF90CF9008956115710581F0DB0118
:103590000D900020E9F7AD0141505109461B570B32
:1035A000DC01ED91FC910280F381E02D099480E033
:1035B00090E008950C94C41A0895FC01818D228D29
:1035C00090E0805C9F4F821B91098F73992708952B
:1035D000FC01918D828D981731F0828DE80FF11DDD
:1035E000858D90E008958FEF9FEF0895FC01918DF8
:1035F000828D981761F0828DDF01A80FB11D5D9655
:103600008C91928D9F5F9F73928F90E008958FEFC2
:103610009FEF08958FE39AE1892B49F080E090E0D5
:10362000892B29F00E943F1A81110C940000089503
:10363000FC01848DDF01A80FB11DA35ABF4F2C914F
:10364000848D90E001968F739927848FA689B7891E
:103650002C93A089B1898C9180648C93938D848DF7
:10366000981306C00288F389E02D80818F7D8083C6
:103670000895CF93DF93EC01888D8823C9F0EA8900
:10368000FB89808185FD05C0A889B9898C9186FD5B
:103690000FC00FB607FCF5CF808185FFF2CFA88958
:1036A000B9898C9185FFEDCFCE010E94181BE7CF21
:1036B000DF91CF910895CF92DF92FF920F931F93E6
:1036C000CF93DF931F92CDB7DEB76C0181E0D601B7
:1036D00058968C9358975B969C915B975C968C91CF
:1036E0005C97981307C05096ED91FC91519780819B
:1036F00085FD2EC0F601038D10E00F5F1F4F0F7385
:103700001127F02EF601848DF81211C00FB607FCB8
:10371000F9CFD6015096ED91FC915197808185FFAC
:10372000F1CFC60169830E94181B6981EBCF838D9D
:10373000E80FF11DE35AFF4F6083D6015B960C93AF
:103740005B975296ED91FC915397808180620CC0FB
:10375000D6015696ED91FC91579760835096ED9166
:10376000FC91519780818064808381E090E00F908C
:10377000DF91CF911F910F91FF90DF90CF9008952F
:103780005058BB27AA270ED01CC10DD130F012D142
:1037900020F031F49F3F11F41EF402C10EF4E095C5
:1037A000E7FBF8C0E92F1ED180F3BA176207730751
:1037B0008407950718F071F49EF536C10EF4E09574
:1037C0000B2EBA2FA02D0B01B90190010C01CA01DB
:1037D000A0011124FF27591B99F0593F50F4503E86
:1037E00068F11A16F040A22F232F342F4427585F78
:1037F000F3CF469537952795A795F0405395C9F790
:103800007EF41F16BA0B620B730B840BBAF0915047
:10381000A1F0FF0FBB1F661F771F881FC2F70EC0E6
:10382000BA0F621F731F841F48F4879577956795B9
:10383000B795F7959E3F08F0B3CF9395880F08F0A2
:103840009927EE0F9795879508950CD0BAC0B2D0FE
:1038500040F0A9D030F021F45F3F19F09BC0511126
:10386000E4C09EC0BFD098F39923C9F35523B1F3A8
:10387000951B550BBB27AA2762177307840738F0DF
:103880009F5F5F4F220F331F441FAA1FA9F333D03E
:103890000E2E3AF0E0E830D091505040E695001CF2
:1038A000CAF729D0FE2F27D0660F771F881FBB1FAE
:1038B000261737074807AB07B0E809F0BB0B802D88
:1038C000BF01FF2793585F4F2AF09E3F510568F0D4
:1038D00061C0ABC05F3FECF3983EDCF38695779513
:1038E0006795B795F7959F5FC9F7880F911D9695D6
:1038F000879597F90895E1E0660F771F881FBB1F32
:10390000621773078407BA0720F0621B730B840BDE
:10391000BA0BEE1F88F7E0950895E89409C097FB6D
:103920003EF490958095709561957F4F8F4F9F4F96
:103930009923A9F0F92F96E9BB279395F6958795DA
:1039400077956795B795F111F8CFFAF4BB0F11F49D
:1039500060FF1BC06F5F7F4F8F4F9F4F16C0882344
:1039600011F096E911C0772321F09EE8872F762F7A
:1039700005C0662371F096E8862F70E060E02AF0BB
:103980009A95660F771F881FDAF7880F96958795A7
:1039900097F9089597F99F6780E870E060E00895CF
:1039A0009FEF80EC089500240A9416161706180657
:1039B0000906089500240A94121613061406050633
:1039C0000895092E0394000C11F4882352F0BB0FC4
:1039D00040F4BF2B11F460FF04C06F5F7F4F8F4F27
:1039E0009F4F089557FD9058440F551F59F05F3F62
:1039F00071F04795880F97FB991F61F09F3F79F011
:103A000087950895121613061406551FF2CF469592
:103A1000F1DF08C0161617061806991FF1CF869514
:103A20007105610508940895E894BB2766277727F8
:103A3000CB0197F908950BD0C4CFB5DF28F0BADFDA
:103A400018F0952309F0A6CFABCF1124EECFCADF33
:103A5000A0F3959FD1F3950F50E0551F629FF001A1
:103A6000729FBB27F00DB11D639FAA27F00DB11DFA
:103A7000AA1F649F6627B00DA11D661F829F222783
:103A8000B00DA11D621F739FB00DA11D621F839F0A
:103A9000A00D611D221F749F3327A00D611D231FE0
:103AA000849F600D211D822F762F6A2F11249F572E
:103AB00050408AF0E1F088234AF0EE0FFF1FBB1F51
:103AC000661F771F881F91505040A9F79E3F5105F0
:103AD00070F060CFAACF5F3FECF3983EDCF38695A1
:103AE00077956795B795F795E7959F5FC1F7FE2B9B
:103AF000880F911D9695879597F9089597FB072E46
:103B000016F4009407D077FD09D00E94D31D07FC5E
:103B100005D03EF4909581959F4F089570956195DD
:103B20007F4F0895A1E21A2EAA1BBB1BFD010DC0F9
:103B3000AA1FBB1FEE1FFF1FA217B307E407F5075D
:103B400020F0A21BB30BE40BF50B661F771F881F39
:103B5000991F1A9469F760957095809590959B01CF
:103B6000AC01BD01CF010895052E97FB1EF4009412
:103B70000E94CB1D57FD07D00E94921D07FC03D069
:103B80004EF40C94CB1D50954095309521953F4FA8
:103B90004F4F5F4F089590958095709561957F4F39
:103BA0008F4F9F4F0895AA1BBB1B51E107C0AA1F4F
:103BB000BB1FA617B70710F0A61BB70B881F991FCE
:103BC0005A95A9F780959095BC01CD010895EE0F07
:103BD000FF1F0590F491E02D09940F931F93CF934D
:103BE000DF93869F8001879F100D969F100D1124F3
:103BF000C8010E94091EEC01009729F0A80160E0AD
:103C000070E00E94301FCE01DF91CF911F910F9184
:103C10000895CF93DF938230910510F482E090E015
:103C2000E0911506F091160620E030E0A0E0B0E04B
:103C3000309739F14081518148175907B8F048173A
:103C4000590771F482819381109729F013969C9300
:103C50008E9312972CC0909316068093150627C05A
:103C60002115310531F04217530718F0A901DB0186
:103C700001C0EF019A01BD01DF010280F381E02D57
:103C8000D7CF21153105F9F0281B390B2430310528
:103C900080F48A819B816115710521F0FB0193837A
:103CA000828304C09093160680931506FE01329617
:103CB00044C0FE01E20FF31F81939193225031091A
:103CC000398328833AC02091130630911406232BA0
:103CD00041F42091020130910301309314062093A6
:103CE000130620910001309101012115310541F4A5
:103CF0002DB73EB74091040150910501241B350BAF
:103D0000E0911306F0911406E217F307A0F42E1BBE
:103D10003F0B2817390778F0AC014E5F5F4F24172F
:103D2000350748F04E0F5F1F50931406409313065B
:103D30008193919302C0E0E0F0E0CF01DF91CF9159
:103D40000895CF93DF93009709F487C0FC01329761
:103D500013821282C0911506D0911606209781F425
:103D600020813181280F391F80911306909114060C
:103D70008217930779F5F0931406E09313066DC04C
:103D8000DE0120E030E0AE17BF0750F412964D91EF
:103D90005C9113979D014115510509F1DA01F3CFAB
:103DA000B383A28340815181840F951F8A179B079B
:103DB00071F48D919C911197840F951F02969183B8
:103DC000808312968D919C91139793838283211502
:103DD000310529F4F0931606E09315063EC0D9018B
:103DE0001396FC93EE9312974D915D91A40FB51F1E
:103DF000EA17FB0779F480819181840F951F029661
:103E0000D90111969C938E938281938113969C93F2
:103E10008E931297E0E0F0E08A819B81009719F081
:103E2000FE01EC01F9CFCE01029628813981820F83
:103E3000931F20911306309114062817390769F44F
:103E4000309729F4109216061092150602C01382BC
:103E50001282D0931406C0931306DF91CF91089578
:103E6000DC0101C06D9341505040E0F70895F89493
:023E7000FFCF82
:103E72000000170680000152656164206661696C6A
:103E82000001000A006400E8033F065B4F666D7D97
:103E9200077F6F777C395E79710000000056142924
:103EA20014CF13D713EA13F913000000005B1B9C15
:0A3EB2001ADD1AF61AE81A391B008F
:00000001FF
