:100000000C9463000C948B000C948B000C948B006C
:100010000C948B000C948B000C948B000C948B0034
:100020000C948B000C948B000C948B000C948B0024
:100030000C948B000C948B000C948B000C948B0014
:100040000C940E130C948B000C9407160C945516FC
:100050000C948B000C948B000C948B000C948B00F4
:100060000C945F110C948B0000000000240027000A
:100070002A0000000000250028002B0000000000DE
:1000800023002600290004040404040404040202DA
:100090000202020203030303030301020408102007
:1000A0004080010204081020010204081020000012
:1000B0000007000201000003040600000000000029
:1000C0000000D60FC11711241FBECFEFD8E0DEBF4E
:1000D000CDBF11E0A0E0B1E0E0E4F8E302C005909C
:1000E0000D92A035B107D9F713E0A0E5B1E001C04A
:1000F0001D92A23EB107E1F710E0C6ECD0E004C0CB
:100100002297FE010E941A1CC23CD107C9F70E9427
:1001100017180C941E1C0C9400000F931F93CF9380
:10012000DF93689F8001699F100D789F100D112447
:10013000C8010E94A218EC01009729F060E070E06D
:10014000A8010E94A900CE01DF91CF911F910F91CC
:100150000895DC0101C06D9341505040E0F70895CF
:10016000FC01828108950F931F938C01FC01808113
:1001700060E00E94C31484E190E00E94BD13F80186
:10018000808161E00E94C31484E190E00E94BD136D
:100190001F910F9108950F931F93CF93DF93EC015D
:1001A000062F10E007FF03C0898161E002C089814A
:1001B00060E00E94C314CE010E94B3001F5F18309C
:1001C00011F0000FEFCFDF91CF911F910F910895A4
:1001D000FF920F931F93CF93DF93EC01F62E042F22
:1001E000122F27FD02C060EE01C060EC16FF6061B7
:1001F00007FF686006FF6460F7FE6260F6FE6160FC
:10020000CE010E94CB00CE01612F0E94CB00CE0117
:10021000602F0E94CB00CE016F2D0E94CB00DF919A
:10022000CF911F910F91FF9008956F927F928F92BF
:100230009F92AF92BF92CF92DF92EF92FF920F9375
:100240001F93CF93DF93EC01E62E742E822E902E17
:1002500060E00E94CB00CE0160E00E94CB00CE01A6
:1002600060E00E94CB00CE0160E00E94CB0083E002
:10027000E89E8001112458010894A11CB11C92E051
:10028000C92ED12CC00ED11EFF2483E0682E1FC0C2
:10029000FE1479F4EB81FC81E00FF11F7082EB8199
:1002A000FC81EA0DFB1D8082EB81FC81EC0DFD1DC4
:1002B0009082EB81FC81F69CC0011124E80FF91FAC
:1002C000CE016081418122810E94E800F3948A81FD
:1002D000F816F0F2CE0160E00E94CB00CE0160E0A3
:1002E0000E94CB00CE0160E00E94CB00CE0160E016
:1002F0000E94CB00DF91CF911F910F91FF90EF9063
:10030000DF90CF90BF90AF909F908F907F906F9035
:1003100008950F931F93CF93DF93EC01862F68838B
:1003200049832A8361E00E948414898161E00E94EC
:1003300084149A8183E0989FC001112461E070E0E9
:100340000E948D008B839C8310E008C0CE01612F3A
:1003500040E020E000E00E9415011F5F8A8118172D
:10036000A8F3DF91CF911F910F9108950F931F93E1
:100370008C01862FF80166834783208791E095875B
:1003800060E00E948414F801868161E00E94C31439
:10039000F80111861286138614861F910F91089515
:1003A000CF92DF92EF92FF920F931F93CF93DF9341
:1003B000EC018E8161E00E94C3146AEF70E080E07E
:1003C00090E00E9464130E9456139B01AC01898542
:1003D0009A85AB85BC85281739074A075B0720F447
:1003E00019861A861B861C868D85882371F489855B
:1003F0009A85AB85BC85281B390B4A0B5B0B205DAE
:1004000037404040504008F477C01D860E94561384
:1004100069877A878B879C871C821B821A82198244
:1004200018828E8161E00E9484148E8160E00E94B7
:10043000C31464E170E080E090E00E946413F894DB
:100440008E8161E00E94C31488E290E00E94BD1397
:100450008E8160E00E94841481E0EE2400E010E0D0
:100460000AC0F39481E090E00E94BD138FEFF8166C
:1004700029F40AC0822FFF24C82EDD248E810E9419
:1004800017158C159D0569F38E810E941715282F6D
:100490008FEFF816C9F0043090F000FD10C08E2DDB
:1004A000869586958695FE01E80FF11D9081990F3E
:1004B000908388858F1510F491609083E3940F5F8B
:1004C0001F4F05351105B1F6789487E28E1510F0AF
:1004D00030E013C030E04C8150E02981888190E009
:1004E000820F911D2A81820F911D2B81820F911DF8
:1004F00090704817590709F431E0832FDF91CF91AD
:100500001F910F91FF90EF90DF90CF900895EF92A1
:10051000FF920F931F93CF93DF93EC010E94D001C2
:100520008823A9F18F818B3031F08B3080F1855198
:10053000823068F507C0688170E080E090E00E943A
:10054000A41A22C0688170E080E090E00E94A41AA2
:1005500020E030E040E853E40E94321B7B018C0134
:10056000698170E0882777FD8095982F0E94A61AF0
:100570009B01AC01C801B7010E94D81920E030E00E
:1005800040E251E40E943C1AE62F692F0AC08CEB2E
:1005900093E060E071E00E948C18E0E070E080EC95
:1005A0006FE72E2F372F482F562FB901CA01DF9141
:1005B000CF911F910F91FF90EF900895CF92DF920E
:1005C000EF92FF920F931F93CF93DF93EC01C62E10
:1005D0000E94D001882309F450C08F818B3041F0F4
:1005E0008B3008F44AC08551823008F046C007C0FD
:1005F0006A8170E080E090E00E94A41A29C0DA804D
:100600006D2D70E06F777070882777FD8095982F3B
:100610000E94A61A20E030E040E853E40E94321B1A
:100620007B018C016B8170E0882777FD8095982F86
:100630000E94A61A9B01AC01C801B7010E94D819FB
:1006400020E030E040E251E40E943C1AD7FC905890
:10065000CC20E9F020E030E040E151E40E94321B80
:1006600020E030E040EA50E40E943C1A20E030E014
:1006700040E052E40E94D8190AC08CEB93E060E09D
:1006800071E00E948C1860E070E080EC9FE7DF91E1
:10069000CF911F910F91FF90EF90DF90CF90089531
:1006A000DF92EF92FF920F931F937C0101E312E020
:1006B000C80168E670E00E94610FC80160E00E9416
:1006C0001E10C8010E946110C80168E670E047E092
:1006D00050E00E947210C8010E94740F282F2F77DB
:1006E00022952F703AE0D32E2D9D900111248F700A
:1006F000820FF7018083C8010E94740F282F229572
:100700002F702D9D900111248F70820FF70181832E
:10071000C8010E94740F282F2F7322952F702D9DD2
:10072000900111248F70820FF7018283C8010E940B
:10073000740F282F22952F702D9D900111248F70FA
:10074000820FF7018383C8010E94740F282F22951E
:100750002F702D9D900111248F70820FF7018483DB
:10076000C8010E94740F282F22952F702D9D900193
:1007700011248F70820FF7018583C8010E94740FC6
:10078000282F22952F702D9D900111248F70820F9C
:10079000F701868317821F910F91FF90EF90DF90F2
:1007A000089581E392E00E9476100895FC0185810E
:1007B00096810895FC0120E080819181892B09F0C8
:1007C00021E0822F0895FF920F931F93CF93DF9321
:1007D000EC018B01FF24612F661F6627661F8A814B
:1007E0000E94C31488810E94171560E0892B09F4C8
:1007F00061E088810E94C314000F111FF39480E10F
:10080000F81649F7DF91CF911F910F91FF9008954E
:100810001F93CF93DF93EC018A8160E00E94C314A1
:100820008AE090E00E94BD1310E08A8161E00E949E
:10083000C3148A8160E00E94C3141F5F1430A9F7BB
:10084000DF91CF911F910895EF92FF920F931F9325
:10085000CF93DF93EC017B01CB0193709E838D835B
:10086000CE0160E070E00E94E30300E010E08C81C4
:10087000882351F0C701002E02C0880F991F0A94E7
:10088000E2F791FD0DC009C0C701002E02C0969588
:1008900087950A94E2F780FD03C060E070E002C033
:1008A0006FEF70E0CE010E94E3030F5F1F4F0A302D
:1008B0001105E9F6CE0160E070E00E94E303CE018D
:1008C00060E070E00E94E303CE010E940804DF9123
:1008D000CF911F910F91FF90EF900895FC01662337
:1008E00011F481E004C0862F6B3008F08AE081505B
:1008F00061E070E002C0660F771F8A95E2F785819C
:1009000096816827792776836583CF010E94240426
:100910000895FC01662311F461E003C06B3008F018
:100920006AE0262F215085819681442351F061E0B1
:1009300070E002C0660F771F2A95E2F7682B792BCB
:100940000BC061E070E002C0660F771F2A95E2F7E6
:10095000609570956823792376836583CF010E9423
:1009600024040895FC01862F6B3008F08AE06FEFB5
:100970007FEF02C0660F771F8A95E2F7609570954A
:1009800076836583CF010E9424040895FC0164836B
:10099000658176810E94240408950F931F938C0132
:1009A000862FF8016083118242831382248316828A
:1009B000158261E00E948414F801828161E00E9446
:1009C00084141F910F9108958091C1019091C201EB
:1009D000019731F481E392E06091CF010E941E10F3
:1009E0008091C1019091C2018330910529F0873037
:1009F000910511F0C89741F481E392E060ED71E058
:100A000043E050E00E94ED0F8091C1019091C2013E
:100A10008830910511F0449741F481E392E060ED54
:100A200071E044E050E00E94ED0F8091C10190918F
:100A3000C2018E31910511F0889741F481E392E073
:100A400060ED71E049E050E00E94ED0F08950F93D2
:100A50001F9323C081E392E00E946B0F049741F43F
:100A60001092CE011092CD011092CC011092CB01C8
:100A70000091CB011091CC0181E392E00E94740FB0
:100A8000F801EE0FFF1FEF53FE4F918380830F5F3E
:100A90001F4F1093CC010093CB0181E392E00E94A1
:100AA0006B0F892BB9F61F910F910895AF92BF92EA
:100AB000CF92DF92EF92FF920F931F93DF93CF932A
:100AC000CDB7DEB72C970FB6F894DEBF0FBECDBF03
:100AD0008091CB019091CC01049709F027C78091B8
:100AE000CD019091CE01892B09F020C781E090E0E3
:100AF0009093CE018093CD018091C1019091C2016C
:100B0000019731F48091C3010E9417158093CF01A2
:100B10008091C1019091C201029731F48091C3018B
:100B20006091C5010E94C3148091C1019091C201DE
:100B30000397B1F48091C3010E9402149C01909329
:100B4000DA018093D90160E071E00E94B41B6093E8
:100B5000D101C90160E071E00E94B41B8093D20111
:100B60008091C1019091C201049741F46091C50147
:100B70007091C6018091C3010E9424148091C1012B
:100B80009091C201059731F48091C3016091C50134
:100B90000E9484148091C1019091C201079709F0CD
:100BA00052C08091C3019091C4018093E30190935E
:100BB000E40161E00E9484148091E30160E00E94FE
:100BC000C31482E090E00E94BD138091E30161E0D4
:100BD0000E94C31485E090E00E94BD138091E30160
:100BE00060E00E94C3148091E30160E00E948414DD
:100BF0008091E30161E020E432E44FE050E00E94A4
:100C00006A152AE330E040E050E00E94E91B122F11
:100C1000032FF42EE52E622F732F842F952F20E0C3
:100C200031E040E050E00E94E91B2093D101612FA8
:100C3000702F8F2D9E2D20E031E040E050E00E948B
:100C4000E91B6093D2018091C1019091C20188306B
:100C5000910539F481E08093D10182E08093D20143
:100C600021C0449709F58091DB01882339F480E5A0
:100C700091E00E94CF0D81E08093DB0180E591E05F
:100C80006DED71E04EED51E02FED31E00E94D10CA1
:100C90008091DD018093D1018091DE018093D201AA
:100CA0008091DF018093D3018091C1019091C201B5
:100CB0004E9769F58091DC01882339F481E591E054
:100CC0000E94D10381E08093DC0181E591E00E94E4
:100CD0005003809153018093D10180915201809300
:100CE000D201809151018093D3018091560180936C
:100CF000D401909155019093D50180915701809333
:100D0000D6019093D701809154018093D8018091AE
:100D1000C1019091C201889709F059C08091C50125
:100D20009091C601009731F489E591E06091C3018B
:100D30004BE013C08130910531F489E591E0609179
:100D4000C30146E10AC08230910511F0039741F4D6
:100D500089E591E06091C30145E126E00E94B6017A
:100D600089E591E060E00E94DE0269837A838B83EB
:100D70009C8389E591E00E9487026D837E838F8347
:100D80009887DE011196E1EDF1E020E030E004C04B
:100D90008D9181932F5F3F4F24303105CCF384E058
:100DA00090E09093E6018093E501DE011596E5ED74
:100DB000F1E024E030E004C08D9181932F5F3F4F3C
:100DC00028303105CCF33093E6012093E501809182
:100DD000C1019091C201C297E9F48091C301909141
:100DE000C401482F0297FC0153E0EE0FFF1F5A95F4
:100DF000E1F7E81BF90BE959FE4F642F6F5F20E024
:100E00008091C5019091C601892B09F021E0CF01A5
:100E10000E94CD048091C1019091C201C39771F5E8
:100E20002091C3013091C40122503040C90143E0F8
:100E3000880F991F4A95E1F7821B930B89599E4FA2
:100E40000E94DA038823D1F08091C3019091C401FC
:100E500002979C0103E0220F331F0A95E1F7281B3C
:100E6000390B29593E4F60E08091C5019091C60130
:100E7000892B09F061E0C9010E94C6048091C1017B
:100E80009091C201C49741F52091C3013091C401F2
:100E900022503040C90113E0880F991F1A95E1F7DD
:100EA000821B930B89599E4F0E94DA038823A1F07D
:100EB0002091C3013091C40122503040C901B3E0F8
:100EC000880F991FBA95E1F7821B930B89599E4FA2
:100ED0006091C5010E94B2048091C1019091C2014C
:100EE000C59781F52091C3013091C4012250304053
:100EF000C901A3E0880F991FAA95E1F7821B930B04
:100F000089599E4F0E94DA038823E1F08091C30142
:100F10009091C40102979C01F3E0220F331FFA95D0
:100F2000E1F7281B390B29593E4F40E08091C7015A
:100F30009091C801892B09F041E0C9016091C50178
:100F40000E9489048091C1019091C201C69741F528
:100F50002091C3013091C40122503040C901E3E027
:100F6000880F991FEA95E1F7821B930B89599E4FD1
:100F70000E94DA038823A1F02091C3013091C401BB
:100F800022503040C90173E0880F991F7A95E1F72C
:100F9000821B930B89599E4F6091C5010E946E047C
:100FA0008091C1019091C201C79779F52091C30149
:100FB0003091C40122503040C90163E0880F991F6D
:100FC0006A95E1F7821B930B89599E4F0E94DA03C1
:100FD0008823D9F02091C3013091C40122503040C0
:100FE000C90153E0880F991F5A95E1F7821B930BB3
:100FF0007091C70160E02091C5013091C601622760
:10100000732789599E4F0E9424048091C1019091B9
:10101000C201C89751F52091C3013091C4012250FB
:101020003040C90143E0880F991F4A95E1F7821BC0
:10103000930B89599E4F0E94DA038823B1F02091C7
:10104000C3013091C40122503040C90103E0880F30
:10105000991F0A95E1F7821B930B89599E4F0E94B5
:10106000D6038093D1019093D2018091C1019091D8
:10107000C2018634910591F46091C3017091C4015D
:101080009B0122503040C901880F991F820F931F86
:10109000462F4F5F8F569E4F0E94450F8091C10192
:1010A0009091C2018734910511F52091C3013091CF
:1010B000C40122503040C901880F991F820F931F2D
:1010C0008F569E4F0E94F00D882389F02091C30116
:1010D0003091C40122503040C901880F991F820FFE
:1010E000931F8F569E4F6091C5010E94E00D809125
:1010F000C1019091C2018834910569F52091C30125
:101100003091C40122503040C901880F991F820FCD
:10111000931F8F569E4F0E94F00D8823E1F020917F
:10112000C3013091C40122503040C901880F991F7A
:10113000820F931F7091C70160E02091C50130912B
:10114000C601622773278F569E4F40E024E000E0DF
:10115000EE240E94C50E8091C1019091C201893494
:10116000910569F52091C3013091C40122503040AE
:10117000C901880F991F820F931F8F569E4F0E949F
:10118000F00D8823E1F02091C3013091C401225079
:101190003040C901880F991F820F931F7091C701BA
:1011A00060E02091C5013091C601622773278F56F8
:1011B0009E4F41E024E000E0EE240E94C50E8091A5
:1011C000C1019091C2018A349105C1F52091C301FA
:1011D0003091C40122503040C901880F991F820FFD
:1011E000931F8F569E4F0E94F00D882339F1209156
:1011F000C3013091C40122503040C901880F991FAA
:10120000820F931F8F569E4F6091C7010E94E80D79
:1012100089832091C3013091C40122503040C9011B
:10122000880F991F820F931F8F569E4FBE016F5FCD
:101230007F4F41E02091C5010E94820E8091C10143
:101240009091C2018B34910549F52091C3013091F1
:10125000C40122503040C901880F991F820F931F8B
:101260008F569E4F0E94F00D8823C1F08091C701D8
:1012700089832091C3013091C40122503040C901BB
:10128000880F991F820F931F8F569E4FBE016F5F6D
:101290007F4F41E02091C5010E94820E8091C101E3
:1012A0009091C2018C34910509F089C02091C3014D
:1012B0003091C40122503040C901880F991F820F1C
:1012C000931F8F569E4F0E94F00D882309F477C01C
:1012D0008091C3019091C40102979C01220F331F9A
:1012E000280F391F8091C5019091C6016AE070E016
:1012F0000E94B41BC9018F569E4F0E94E80D89833E
:101300008091C3019091C40102979C01220F331F69
:10131000280F391F8091C5019091C6016AE070E0E5
:101320000E94B41B682FC9018F569E4F0E94E80D82
:1013300080688A838091C3019091C40102979C01C7
:10134000220F331F280F391F8091C7019091C801C8
:101350006AE070E00E94B41BC9018F569E4F0E9444
:10136000E80D8B838091C3019091C40102979C0189
:10137000220F331F280F391F8091C7019091C80198
:101380006AE070E00E94B41B682FC9018F569E4F1F
:101390000E94E80D8C832091C3013091C40122503A
:1013A0003040C901880F991F820F931F8F569E4F9F
:1013B000BE016F5F7F4F44E020E00E94820E80916B
:1013C000C1019091C2018D34910509F041C0209175
:1013D000C3013091C40122503040C901880F991FC8
:1013E000820F931F8F569E4F0E94F00D882381F12C
:1013F000F090C501A090C701B090C801AA0CBB1C19
:10140000AA0CBB1CCC24DD2420C08091C301909188
:10141000C40102978C01000F111F080F191F0F56EE
:101420001E4F8F2D0E940214BC01C80140E024E031
:1014300000E0EE240E94C50E6AEF70E080E090E0CC
:101440000E9464130894C11CD11CCA14DB04ECF282
:101450008091C1019091C2018E34910551F5209186
:10146000C3013091C40122503040C901880F991F37
:10147000820F931F8F569E4F0E94F00D8823C9F054
:101480008FEF89878A878B878C872091C301309162
:10149000C40122503040C901880F991F820F931F49
:1014A0008F569E4FBE01675F7F4F44E020E00E9451
:1014B000820E8091C1019091C2018F34910549F54E
:1014C0002091C3013091C40122503040C901880FDE
:1014D000991F820F931F8F569E4F0E94F00D8823F5
:1014E000C1F019861A861B861C862091C301309193
:1014F000C40122503040C901880F991F820F931FE9
:101500008F569E4FBE01675F7F4F44E020E00E94F0
:10151000820E8091C1019091C2018A35910569F4D2
:101520008091C3018093E0018091C5018093E10126
:101530008091C7018093E20119C08B359105B1F408
:101540006091C3017091C4019B0122503040C901D8
:10155000880F991F880F991F820F931F462F4F5F87
:101560008D559E4F2091C5010E9489018091C10136
:101570009091C2018C35910509F055C06091C3016D
:101580007091C4019B0122503040C901880F991FFE
:10159000880F991F820F931F462F4F5F8D559E4FC7
:1015A0002091C5010E9489012091C7013091C80195
:1015B000C9018470907095958795959587954FEFA3
:1015C00050E0849FC02C1124C901827090709595C1
:1015D0008795849FD02C112421703070249F102D6A
:1015E0001124EE24FF2418C02091C3013091C401BE
:1015F00022503040C901880F991F880F991F820F10
:10160000931F8D559E4F6E2D4C2D2D2D012F0E9419
:1016100015010894E11CF11C8091C5019091C6014F
:10162000E816F9060CF38091C1019091C2018D3545
:10163000910509F078C08091C5019091C601892B70
:10164000D1F42091C3013091C40122503040C9012E
:10165000880F991F880F991F820F931F8D559E4FDA
:101660006091C7014091E0012091E1010091E20108
:101670000E94150158C02091C3013091C40122502D
:101680003040C901880F991F880F991F820F931F3F
:101690008D559E4F0E94B000EE24FF24C82EDD24FD
:1016A0003EC08091C5019091C6018130910541F401
:1016B0008091C7019091C801E816F906A9F42CC0E1
:1016C0008230910541F48091C7019091C8018E1537
:1016D0009F0554F421C00397F9F48091C7019091BC
:1016E000C801E816F906C4F02091C3013091C40185
:1016F00022503040C901880F991F880F991F820F0F
:10170000931F8D559E4F6E2D4091E0012091E10178
:101710000091E2010E9415010894E11CF11CEC14F7
:10172000FD040CF4BECF8091C1019091C2018E35B1
:10173000910509F053C08091C7019091C801181616
:10174000190634F081E090E09093C8018093C701BE
:101750002091C3013091C40122503040C901880F4B
:10176000991F880F991F820F931F8D559E4F0E94BE
:10177000B000E090C501F090C601C82EDD242BC05A
:101780008091C5019091C6016091C7017091C80117
:101790009701281B390BC9010E94B41B892BC1F486
:1017A0002091C3013091C40122503040C901880FFB
:1017B000991F880F991F820F931F8D559E4F6E2D75
:1017C0004091E0012091E1010091E2010E941501A8
:1017D0000894E11CF11CEC14FD0494F28091C10109
:1017E0009091C2018F35910509F0A0C02091C301ED
:1017F0003091C40122503040C901880F991F880FD1
:10180000991F820F931F8D559E4F0E94B000682F25
:101810008091C7019091C801892B09F03FC0EE2447
:10182000FF24C62EDD2436C08091C5019091C601EB
:10183000E816F906BCF42091C3013091C40122508E
:101840003040C901880F991F880F991F820F931F7D
:101850008D559E4F6E2D4091E0012091E101009148
:10186000E20113C02091C3013091C40122503040E5
:10187000C901880F991F880F991F820F931F8D55DB
:101880009E4F6E2D40E020E000E00E94150108947C
:10189000E11CF11CEC14FD043CF248C0A62EBB2454
:1018A000162FEE24FF2465013AC08091C501909166
:1018B000C601A501481B590B24173507BCF0209120
:1018C000C3013091C40122503040C901880F991FD3
:1018D000880F991F820F931F8D559E4F612F409146
:1018E000E0012091E1010091E20113C02091C301C8
:1018F0003091C40122503040C901880F991F880FD0
:10190000991F820F931F8D559E4F612F40E020E05D
:1019100000E00E9415010894E11CF11C1150960191
:101920002E193F09EC14FD0409F0BFCF2C960FB619
:10193000F894DEBF0FBECDBFCF91DF911F910F9105
:10194000FF90EF90DF90CF90BF90AF900895EF920F
:10195000FF920F931F936CEBE62E63E0F62EC70108
:1019600040E855E260E070E00E94901601E312E06A
:10197000C80164E070E00E949510C80167E275E05C
:101980000E94CC0FC80164EE74E00E94D10FC70121
:101990006AE071E00E948F181F910F91FF90EF9005
:1019A00008952F923F925F926F927F928F929F92B3
:1019B000AF92BF92CF92DF92EF92FF920F931F935D
:1019C000DF93CF93CDB7DEB727970FB6F894DEBF7E
:1019D0000FBECDBF1B015D834C833F832E830E94CE
:1019E00056137B018C010CC00E9456136E197F099F
:1019F000800B910B655F7140804090400CF08AC075
:101A000081E392E00E946B0F181619066CF380E4D4
:101A10008B838A83898381E392E00E94740F81E340
:101A200092E06CE470E043E050E00E9472100E948B
:101A30005613AC01CB01DA013C014D016E01089453
:101A4000C11CD11CAA24BB2434C083E0A816B10455
:101A5000FCF40E9456137B018C0137014801F6010A
:101A6000808112C081E392E00E94740F582E0E9480
:101A700056136E197F09800B910B63337105810535
:101A800091050CF047C0852D803460F7F601808306
:101A90000E9456130894C11CD11C66197709880945
:101AA0009909655F714080409040A4F50894A11C9D
:101AB000B11C81E392E00E946B0F892B31F6898182
:101AC00090E0880F991F880F991F982F87FD9D5FC1
:101AD00095959595F10190838A8190E0880F991FE3
:101AE000880F991F982F87FD9D5F95959595EC819F
:101AF000FD8190838B8190E0880F991F880F991F3B
:101B0000982F87FD9D5F95959595EE81FF81908338
:101B100081E001C080E027960FB6F894DEBF0FBECB
:101B2000CDBFCF91DF911F910F91FF90EF90DF908C
:101B3000CF90BF90AF909F908F907F906F905F906D
:101B40003F902F900895EF92FF920F931F93162FBF
:101B5000042F51E3E52E52E0F52EC7010E947610C6
:101B6000C7016CE470E00E94610FC701612F0E9401
:101B70001E10C701602F0E941E10C7010E94611035
:101B80001F910F91FF90EF900895462F68E00E94FB
:101B9000A30D0895462F67E00E94A30D08950F93AB
:101BA0001F938C0160E00E94CA0DC80160E00E9492
:101BB000C50DC80161E00E94CA0D1F910F910895E3
:101BC000FC01683010F06FE001C0685F6283089527
:101BD000E62FF0E0EF70F070E85EFE4F8081089530
:101BE000FC018081811181E00895FF920F931F9382
:101BF000CF93DF93EC01162FFF24888161E00E94D0
:101C0000841482E390E00E94BD13012F10E000FFD6
:101C100003C0898160E002C0898161E00E94841470
:101C200082E390E00E94BD13888160E00E948414EA
:101C300082E390E00E94BD13F39488E0F81621F04F
:101C400015950795102FD9CF888161E00E948414E3
:101C5000898160E00E94841482E390E00E94BD13B9
:101C6000888160E00E94841482E390E00E94BD13AA
:101C700089810E941715182F882321F4898161E03A
:101C80000E94841482E390E00E94BD13888161E089
:101C90000E94841482E390E00E94BD13812F1111F1
:101CA00081E0DF91CF911F910F91FF9008950F93E5
:101CB0001F938C01FC01818161E00E94841482E306
:101CC00090E00E94BD13F801808160E00E948414BE
:101CD00082E390E00E94BD13F801818160E00E94E0
:101CE000841482E390E00E94BD131F910F91089528
:101CF000FC01818161E00E94841482E390E00E94F3
:101D0000BD130895DF92EF92FF920F931F93CF932D
:101D1000DF93EC01062FF72ED42E122F0E94780E9F
:101D2000CE0160E40E94F50DCE010E94570ECE0157
:101D30000E94780E13701054CE01612F0E94F50D91
:101D4000202F3F2DC9017C0110E007C0CE01F70113
:101D500061917F010E94F50D1F5F1D15B8F3CE0143
:101D60000E94570ECE010E94780E6A816058CE0103
:101D70000E94F50DCE010E94570EDF91CF911F9169
:101D80000F91FF90EF90DF9008955F926F927F9296
:101D90008F929F92AF92BF92CF92DF92EF92FF927B
:101DA0000F931F93DF93CF9300D000D0CDB7DEB752
:101DB0005C016B01742E922E602E8E2C2EE2E22E90
:101DC00021E0F22E9E012F5F3F4FE1E040E09FE3D4
:101DD000592ED7010D911C91C601B8010E94B41B68
:101DE0006115710561F4772021F4EE2311F0433081
:101DF00019F4D9015C9216C0D9011C9213C0E62FC8
:101E0000F0E0EF70F070E85EFE4F8081F9018083B2
:101E1000609FC001619F900D709F900D1124C81AA2
:101E2000D90AE0E0882031F0413021F4D9018C91C9
:101E300080688C934F5F8EEF9FEFE80EF91E2F5F47
:101E40003F4F443031F684E090E089199109BE019A
:101E50006F5F7F4F680F791FC501492D262D0E94A6
:101E6000820E0F900F900F900F90CF91DF911F91E6
:101E70000F91FF90EF90DF90CF90BF90AF909F9029
:101E80008F907F906F905F9008950F931F938C01B8
:101E9000862FF8016083418360E00E948414F8017A
:101EA000818160E00E948414F801808160E00E94DA
:101EB000C314F801818160E00E94C3141F910F9147
:101EC000089581E080932C026093090210922A0207
:101ED00010922B0208952091080230E080910702B1
:101EE000281B3109C9010895409107028091080219
:101EF000481718F02FEF3FEF0AC0E42FF0E0E95148
:101F0000FE4F8081282F30E04F5F40930702C901C8
:101F10000895E091070280910802E81718F0EFEFAA
:101F2000FFEF06C0F0E0E951FE4F8081E82FF0E0BE
:101F3000CF0108950895AC0120912F023091300215
:101F400021153105E1F09091070280910802981760
:101F5000B0F090E008C0FA01EA0FFB1F8081A951A0
:101F6000BE4F8C939F5FA92FB0E0A617B7079CF3D5
:101F70001092070260930802CB01F90109950895B8
:101F8000E0912D02F0912E02309729F010922A0252
:101F900010922B02099508957093300260932F02DE
:101FA000089570932E0260932D02089510923402CA
:101FB0001092330288EE93E0A0E0B0E08093350207
:101FC00090933602A0933702B093380284E391E0F5
:101FD00090933202809331020895CF92DF92EF9274
:101FE000FF920F931F93CF93DF937C016B018A01C4
:101FF00080912C028823A1F0C0E0D0E00DC0D70171
:10200000ED91FC91D601AC0FBD1F0190F081E02D48
:10201000C7016C9109952196C017D10780F304C0C0
:10202000CB01642F0E943A11C801DF91CF911F911B
:102030000F91FF90EF90DF90CF900895DF93CF93B3
:102040000F92CDB7DEB7FC01698380912C02882303
:10205000C9F080912B02803238F081E090E09383C8
:10206000828320E030E015C080912A02E82FF0E062
:10207000E65FFD4F998190838F5F80932A02809362
:102080002B0205C0CE01019661E00E943A1121E0C9
:1020900030E0C9010F90CF91DF9108950F93062F83
:1020A000809109026AE072E040912B0221E00E94D7
:1020B000E51010922A0210922B0210922C020F911E
:1020C000089561E00E944E100895413208F040E208
:1020D000862F67EE71E00E949C1010920702809399
:1020E0000802089521E00E946510089510920702E9
:1020F0001092080210922A0210922B020E94F012F3
:1021000008950F931F938C01862F0E94981080ECE6
:102110009FE00E945A118BE99FE00E945511C8016F
:102120000E9476101F910F9108950E9481100895CA
:10213000880F8093BA000895382F413210F040E0A4
:1021400042C080913D028823E1F791E090933D02E7
:1021500020933F028FEF8093AA02109265024150B4
:10216000409366024F5F90933E0280913E02330F90
:10217000832B80933E0280914002813041F4109283
:10218000400280913E028093BB0085EC01C085EE49
:102190008093BC0080913D028130E1F38091650223
:1021A000841710F44091650220E030E00AC0FB0182
:1021B000E20FF31FD901AB5BBD4F8C9180832F5F82
:1021C0003F4F2417A0F3842F08950F931F93582F88
:1021D000122F413210F081E04AC080913D028823E5
:1021E000E1F782E080933D0200933F028FEF8093FE
:1021F000AA021092650240936602A5E4B2E0FB01D8
:1022000002C081918D938E2F861B8417D0F310927C
:102210003E0280913E02550F852B80933E028091B5
:102220004002813041F41092400280913E0280933E
:10223000BB0085EC01C085EE8093BC00112321F02A
:1022400080913D028230E1F38091AA028F3F11F428
:1022500080E00DC08091AA02803211F482E007C0B4
:102260008091AA02803311F084E001C083E01F91C5
:102270000F910895482F613210F081E00895809108
:102280003D02843011F082E0089560938802A7E651
:10229000B2E0842F9C01F90102C081918D938E2FB1
:1022A000841B8617D0F380E00895909344028093B6
:1022B00043020895909342028093410208951F9231
:1022C0000F920FB60F9211242F933F934F935F936A
:1022D0006F937F938F939F93AF93BF93EF93FF93EE
:1022E0008091B90090E0887F90708036910509F464
:1022F000F2C081369105CCF58832910509F47BC096
:1023000089329105B4F48031910509F46FC08131AF
:1023100091053CF4009709F447C1089709F04FC1B3
:1023200065C08831910509F466C0809709F047C1FE
:1023300082C08034910509F4A4C08134910544F42D
:102340008033910509F482C0C89709F038C189C06B
:102350008035910509F489C08835910509F496C046
:102360008834910509F02BC1AEC08839910509F474
:1023700013C189399105ECF48837910509F4ABC094
:10238000893791054CF48836910509F4A4C080374B
:10239000910509F014C19FC08838910509F4FCC06B
:1023A0008039910509F49DC08038910509F007C175
:1023B00098C0803B910509F4C6C0813B91054CF45F
:1023C000803A910509F49FC0883A910509F0F7C059
:1023D000BAC0803C910509F4E3C0883C910509F43A
:1023E000DFC0883B910509F0EAC0C2C080913E027F
:1023F0008093BB00CFC090916502809166029817D0
:1024000068F490916502E92FF0E0EB5BFD4F80816D
:102410008093BB009F5F90936502BCC080913F0298
:10242000882309F44BC085ED8093BC008091BC00EB
:1024300084FDFCCFC2C080E28093AA0285ED809328
:10244000BC008091BC0084FDFCCFB7C080E38093CA
:10245000AA0285ED8093BC008091BC0084FDFCCF76
:10246000ACC088E38093AA029BC0809165029091E2
:10247000BB00E82FF0E0EB5BFD4F90838F5F809314
:102480006502909165028091660282C0809165022A
:102490009091BB00E82FF0E0EB5BFD4F90838F5FE6
:1024A0008093650280913F02882341F085ED8093FF
:1024B000BC008091BC0084FDFCCF7FC081E0809394
:1024C000400284EA6EC085ED8093BC008091BC0020
:1024D00084FDFCCF72C083E080933D021092A9027C
:1024E00059C08091A902803208F056C08091A9029B
:1024F0009091BB00E82FF0E0E757FD4F90838F5F8E
:102500008093A90247C08091A902803230F4E09103
:10251000A902F0E0E757FD4F108285ED8093BC00E3
:102520008091BC0084FDFCCF10923D026091A90215
:10253000E0914302F091440289E892E070E009954D
:102540001092A9022DC084E080933D021092870270
:1025500010928802E0914102F09142020995809127
:102560008802882329F481E0809388021092670210
:1025700090918702E92FF0E0E959FD4F8081809327
:10258000BB009F5F909387029091870280918802A1
:10259000981710F485EC01C085E88093BC000FC04B
:1025A00085EC8093BC0009C01092AA0285ED80934F
:1025B000BC008091BC0084FDFCCF10923D02FF91D5
:1025C000EF91BF91AF919F918F917F916F915F91AB
:1025D0004F913F912F910F900FBE0F901F90189524
:1025E00010923D0281E080933F021092400282E10E
:1025F00061E00E94C31483E161E00E94C314E9EB2F
:10260000F0E080818E7F808380818D7F808388E46D
:102610008093B80085E48093BC0008951F920F92C8
:102620000FB60F9211242F933F938F939F93AF93E5
:10263000BF938091AF029091B002A091B102B0918E
:10264000B2023091B3020196A11DB11D232F2D5F5F
:102650002D3720F02D570196A11DB11D2093B302F7
:102660008093AF029093B002A093B102B093B202F4
:102670008091AB029091AC02A091AD02B091AE02FC
:102680000196A11DB11D8093AB029093AC02A09363
:10269000AD02B093AE02BF91AF919F918F913F91E8
:1026A0002F910F900FBE0F901F9018958FB7F89431
:1026B0002091AF023091B0024091B1025091B2022C
:1026C0008FBFB901CA0108959B01AC017FB7F8948F
:1026D0008091AB029091AC02A091AD02B091AE029C
:1026E00066B5A89B05C06F3F19F00196A11DB11DED
:1026F0007FBFBA2FA92F982F8827860F911DA11D64
:10270000B11D62E0880F991FAA1FBB1F6A95D1F700
:10271000BC012DC0FFB7F8948091AB029091AC0240
:10272000A091AD02B091AE02E6B5A89B05C0EF3F07
:1027300019F00196A11DB11DFFBFBA2FA92F982F27
:1027400088278E0F911DA11DB11DE2E0880F991FF2
:10275000AA1FBB1FEA95D1F7861B970B885E934093
:10276000C8F2215030404040504068517C4F211504
:1027700031054105510571F60895019739F0880F2B
:10278000991F880F991F02970197F1F70895789480
:1027900084B5826084BD84B5816084BD85B5826066
:1027A00085BD85B5816085BDEEE6F0E08081816004
:1027B0008083E1E8F0E01082808182608083808104
:1027C00081608083E0E8F0E0808181608083E1EBDC
:1027D000F0E0808184608083E0EBF0E080818160C4
:1027E0008083EAE7F0E0808184608083808182607A
:1027F0008083808181608083808180688083109263
:10280000C1000895982F8E3008F09E5097708091E7
:1028100011018295880F880F807C892B80937C0022
:1028200080917A00806480937A0080917A0086FD9E
:10283000FCCF2091780040917900942F80E030E027
:10284000282B392BC90108951F93CF93DF93182F9D
:10285000EB0161E00E948414209709F44AC0CF3F45
:10286000D10509F449C0E12FF0E0E255FF4F849112
:102870008330C1F0843028F4813051F08230B1F5DA
:102880000CC0863019F1873049F1843079F514C0D5
:1028900084B5806884BDC7BD33C084B5806284BD03
:1028A000C8BD2EC080918000806880938000D09346
:1028B0008900C093880024C080918000806280934A
:1028C0008000D0938B00C0938A001AC08091B00022
:1028D00080688093B000C093B30012C08091B000B4
:1028E00080628093B000C093B4000AC0C038D105A4
:1028F0001CF4812F60E002C0812F61E00E94C314AC
:10290000DF91CF911F910895CF93DF93482F50E02F
:10291000CA0186569F4FFC0134914A575F4FFA0116
:102920008491882369F190E0880F991FFC01E85990
:10293000FF4FA591B491FC01EE58FF4FC591D49182
:10294000662351F42FB7F8948C91932F9095892397
:102950008C93888189230BC0623061F42FB7F8947F
:102960008C91932F909589238C938881832B8883D6
:102970002FBF06C09FB7F8948C91832B8C939FBF79
:10298000DF91CF910895482F50E0CA0182559F4FA3
:10299000FC012491CA0186569F4FFC0194914A572D
:1029A0005F4FFA013491332309F440C0222351F1DF
:1029B000233071F0243028F42130A1F0223011F5B9
:1029C00014C02630B1F02730C1F02430D9F404C04F
:1029D000809180008F7703C0809180008F7D8093ED
:1029E000800010C084B58F7702C084B58F7D84BD10
:1029F00009C08091B0008F7703C08091B0008F7DB7
:102A00008093B000E32FF0E0EE0FFF1FEE58FF4F72
:102A1000A591B4912FB7F894662321F48C919095E9
:102A2000892302C08C91892B8C932FBF0895682F26
:102A300070E0CB0182559F4FFC012491CB0186565B
:102A40009F4FFC0144916A577F4FFB01949199235A
:102A500019F420E030E03CC0222351F1233071F022
:102A6000243028F42130A1F0223011F514C0263092
:102A7000B1F02730C1F02430D9F404C08091800037
:102A80008F7703C0809180008F7D8093800010C07D
:102A900084B58F7702C084B58F7D84BD09C08091D5
:102AA000B0008F7703C08091B0008F7D8093B0001D
:102AB000892F90E0880F991F84589F4FFC01A591A2
:102AC000B4918C9120E030E0842311F021E030E0DB
:102AD000C90108958F929F92AF92BF92CF92DF92D9
:102AE000EF92FF920F931F93CF93DF93A82FB0E045
:102AF000CD0186569F4FFC018490AA57BF4FFD0120
:102B00008491662311F4992401C0982C6FEFA62EAE
:102B10006FEFB62E6FEFC62E6FE0D62EA222B32235
:102B2000C422D522682F70E0660F771F64587F4F4C
:102B3000EE24FF248701FB01A591B4910BC0EA1498
:102B4000FB040C051D0509F44EC00894E11CF11CA2
:102B5000011D111D8C918821891589F30CC0EA147F
:102B6000FB040C051D0509F43EC00894E11CF11C92
:102B7000011D111D03C0FB01A591B4918C91882109
:102B8000891569F720E030E040E050E0FB01C59195
:102B9000D4910FC0DA01C9018E0D9F1DA01FB11F76
:102BA0008A159B05AC05BD05F1F02F5F3F4F4F4FD8
:102BB0005F4F88818821891569F3CA01B90125E130
:102BC00030E040E050E00E94951B9B01AC01205F8B
:102BD0003F4F4F4F5F4F84E0569547953795279568
:102BE0008A95D1F704C020E030E040E050E0B90120
:102BF000CA01DF91CF911F910F91FF90EF90DF906D
:102C0000CF90BF90AF909F908F90089508951F929E
:102C10000F920FB60F9211242F933F934F938F93E0
:102C20009F93EF93FF938091C00082FD1DC0409160
:102C3000C60020913403309135032F5F3F4F2F772B
:102C4000307080913603909137032817390771F05F
:102C5000E0913403F0913503EC54FD4F4083309301
:102C600035032093340302C08091C600FF91EF9199
:102C70009F918F914F913F912F910F900FBE0F9089
:102C80001F901895E091C803F091C903E058FF4FD9
:102C90008191919120813181821B930B8F7790706C
:102CA000892B11F00E94061608951F920F920FB6FD
:102CB0000F9211242F933F938F939F93EF93FF9342
:102CC0002091B8033091B9038091BA039091BB036E
:102CD0002817390731F48091C1008F7D8093C1009E
:102CE00014C0E091BA03F091BB03E85CFC4F208173
:102CF0008091BA039091BB0301968F779070909367
:102D0000BB038093BA032093C600FF91EF919F917C
:102D10008F913F912F910F900FBE0F901F9018959C
:102D2000AF92BF92DF92EF92FF920F931F93CF93D8
:102D3000DF93EC017A018B01DD24403081EE5807EE
:102D400080E0680780E0780711F0DD24D39491E0FB
:102D5000A92EB12CEC89FD89DD2069F0C50108A000
:102D600002C0880F991F0A94E2F7808360E079E03F
:102D70008DE390E005C0108260E874E88EE190E099
:102D8000A80197010E94C71B21503040404050408D
:102D9000569547953795279580E12030380720F0E4
:102DA000DD2011F0DD24D6CFE889F9893083EA8966
:102DB000FB89208319A2EE89FF89408121E030E060
:102DC000C9010C8C02C0880F991F0A94E2F7482BA6
:102DD0004083EE89FF894081C9010D8C02C0880FB4
:102DE000991F0A94E2F7482B4083EE89FF894081BE
:102DF000C9010E8C02C0880F991F0A94E2F7482B74
:102E00004083EE89FF8980810F8C02C0220F331F1F
:102E10000A94E2F7209528232083DF91CF911F9118
:102E20000F91FF90EF90DF90BF90AF900895DC017D
:102E30001C96ED91FC911D97E058FF4F2191319127
:102E400080819181281B390B2F773070C90108953B
:102E5000DC011C96ED91FC911D97E058FF4F2081FD
:102E60003181E058F040DF01AE57BF4F8D919C910A
:102E700011972817390719F42FEF3FEF07C08D91ED
:102E80009C91E80FF91F8081282F30E0C901089537
:102E9000DC011C96ED91FC911D97E058FF4F2081BD
:102EA0003181E058F040DF01AE57BF4F8D919C91CA
:102EB00011972817390719F42FEF3FEF10C08D91A4
:102EC0009C911197E80FF91F20818D919C9111978A
:102ED00001968F77907011969C938E9330E0C90184
:102EE0000895DC0191968C919197882339F054963E
:102EF000ED91FC915597808186FFF9CF91961C92B8
:102F00000895CF93DF93EC01EE85FF85E058FF4FE6
:102F100020813181E058F0402F5F3F4F2F77307094
:102F2000DF01AE57BF4F8D919C911197281739073C
:102F3000D1F3E058FF4F80819181E058F040E80FD5
:102F4000F91F6083EE85FF85E058FF4F31832083B2
:102F5000EE89FF89208181E090E00F8C02C0880F0C
:102F6000991F0A94E2F7282B208381E089A3EC893A
:102F7000FD8980818064808381E090E0DF91CF9142
:102F800008951092BF031092BE0388EE93E0A0E074
:102F9000B0E08093C0039093C103A093C203B093A9
:102FA000C30384E491E09093BD038093BC0384EB5E
:102FB00092E09093C9038093C80388E393E09093D1
:102FC000CB038093CA0385EC90E09093CD0380936C
:102FD000CC0384EC90E09093CF038093CE0380ECFD
:102FE00090E09093D1038093D00381EC90E0909394
:102FF000D3038093D20382EC90E09093D503809327
:10300000D40386EC90E09093D7038093D60384E0BA
:103010008093D80383E08093D90387E08093DA0319
:1030200085E08093DB0381E08093DC030895CF93F8
:10303000DF930E94C7130E94A70CC2E4D6E10E944E
:1030400056052097E1F30E944216F9CFCF92DF9206
:10305000EF92FF920F931F93CF93DF937C016B014D
:103060008A01C0E0D0E00FC0D6016D916D01D7019B
:10307000ED91FC910190F081E02DC7010995C80FF9
:10308000D91F015010400115110571F7CE01DF91D4
:10309000CF911F910F91FF90EF90DF90CF90089507
:1030A000EF92FF920F931F938C01DC01ED91FC9145
:1030B0000190F081E02D6DE009957C01D801ED9142
:1030C000FC910190F081E02DC8016AE009959C0116
:1030D0002E0D3F1DC9011F910F91FF90EF90089594
:1030E000CF93DF93EC016115710519F420E030E016
:1030F0000FC0DB010D900020E9F71197A61BB70B5D
:10310000E881F9810280F381E02DAD0109959C01F0
:10311000C901DF91CF9108950E9470180895EF9230
:10312000FF920F931F937C010E9470188C01C701BE
:103130000E945018080F191FC8011F910F91FF908E
:10314000EF9008950F931F93CF93DF93BC018230CC
:10315000910510F462E070E0E091E003F091E1038A
:1031600040E050E0A0E0B0E024C08081918186176B
:103170009707D0F08617970771F482819381109793
:1031800029F013969C938E9312972CC09093E10391
:103190008093E00327C04115510519F08417950766
:1031A00018F48D01AC01EF01DF01828193819C0154
:1031B000F9013097D1F641155105F9F0CA01861B86
:1031C000970B8430910580F48A819B81011511054C
:1031D00021F0F8019383828304C09093E1038093EC
:1031E000E003FE01329645C0FE01E80FF91F61932E
:1031F00071930297998388833CC08091DE039091FC
:10320000DF03892B41F48091140190911501909373
:10321000DF038093DE0340911601509117014115A1
:10322000510541F44DB75EB78091120190911301A1
:10323000481B590B2091DE033091DF03241735071B
:10324000B0F4CA01821B930B8617970780F0AB017D
:103250004E5F5F4F8417950750F0420F531F5093F6
:10326000DF034093DE03F9016193719302C0E0E054
:10327000F0E0CF01DF91CF911F910F910895CF938F
:10328000DF939C01009709F48FC0EC0122971B8209
:103290001A826091E0037091E1036115710581F478
:1032A00088819981820F931F2091DE033091DF0383
:1032B0002817390739F5D093DF03C093DE0374C0B4
:1032C000DB0140E050E0AC17BD0708F1BB83AA83E7
:1032D000FE0121913191E20FF31FAE17BF0779F480
:1032E0008D919C911197280F391F2E5F3F4F398385
:1032F000288312968D919C9113979B838A83411505
:10330000510571F4D093E103C093E0034DC01296D0
:103310008D919C911397AD01009711F0DC01D3CFF3
:10332000DA011396DC93CE931297FA012191319131
:10333000E20FF31FCE17DF0769F488819981280F08
:10334000391F2E5F3F4FFA01318320838A819B8191
:1033500093838283E0E0F0E0DB0112968D919C91F3
:103360001397009719F0BC01FD01F6CFAB014E5F3A
:103370005F4FDB018D919C91840F951F2091DE039F
:103380003091DF032817390779F4309729F4109228
:10339000E1031092E00302C01382128242505040B7
:1033A0005093DF034093DE03DF91CF91089550588F
:1033B000BB27AA270ED01CC10DD130F012D120F0AE
:1033C00031F49F3F11F41EF402C10EF4E095E7FBC7
:1033D000F8C0E92F1ED180F3BA176207730784077C
:1033E000950718F071F49EF536C10EF4E0950B2E9A
:1033F000BA2FA02D0B01B90190010C01CA01A00147
:103400001124FF27591B99F0593F50F4503E68F1A1
:103410001A16F040A22F232F342F4427585FF3CFE2
:10342000469537952795A795F0405395C9F77EF4B3
:103430001F16BA0B620B730B840BBAF09150A1F0FC
:10344000FF0FBB1F661F771F881FC2F70EC0BA0F82
:10345000621F731F841F48F4879577956795B7950A
:10346000F7959E3F08F0B3CF9395880F08F0992702
:10347000EE0F9795879508950CD0BAC0B2D040F062
:10348000A9D030F021F45F3F19F09BC05111E4C086
:103490009EC0BFD098F39923C9F35523B1F3951B70
:1034A000550BBB27AA2762177307840738F09F5F65
:1034B0005F4F220F331F441FAA1FA9F333D00E2ED4
:1034C0003AF0E0E830D091505040E695001CCAF741
:1034D00029D0FE2F27D0660F771F881FBB1F261706
:1034E00037074807AB07B0E809F0BB0B802DBF01D9
:1034F000FF2793585F4F2AF09E3F510568F061C047
:10350000ABC05F3FECF3983EDCF38695779567950B
:10351000B795F7959F5FC9F7880F911D9695879589
:1035200097F90895E1E0660F771F881FBB1F6217A8
:1035300073078407BA0720F0621B730B840BBA0B66
:10354000EE1F88F7E0950895E89409C097FB3EF4D4
:1035500090958095709561957F4F8F4F9F4F9923E0
:10356000A9F0F92F96E9BB279395F695879577955E
:103570006795B795F111F8CFFAF4BB0F11F460FF1E
:103580001BC06F5F7F4F8F4F9F4F16C0882311F076
:1035900096E911C0772321F09EE8872F762F05C08A
:1035A000662371F096E8862F70E060E02AF09A9525
:1035B000660F771F881FDAF7880F9695879597F91A
:1035C000089597F99F6780E870E060E008959FEFA5
:1035D00080EC089500240A941616170618060906AA
:1035E000089500240A941216130614060506089579
:1035F000092E0394000C11F4882352F0BB0F40F401
:10360000BF2B11F460FF04C06F5F7F4F8F4F9F4F40
:10361000089557FD9058440F551F59F05F3F71F0C2
:103620004795880F97FB991F61F09F3F79F0879529
:103630000895121613061406551FF2CF4695F1DFB2
:1036400008C0161617061806991FF1CF8695710542
:10365000610508940895E894BB2766277727CB0176
:1036600097F908950BD0C4CFB5DF28F0BADF18F072
:10367000952309F0A6CFABCF1124EECFCADFA0F37C
:10368000959FD1F3950F50E0551F629FF001729FF7
:10369000BB27F00DB11D639FAA27F00DB11DAA1F16
:1036A000649F6627B00DA11D661F829F2227B00D63
:1036B000A11D621F739FB00DA11D621F839FA00DEE
:1036C000611D221F749F3327A00D611D231F849F3E
:1036D000600D211D822F762F6A2F11249F57504095
:1036E0008AF0E1F088234AF0EE0FFF1FBB1F661F30
:1036F000771F881F91505040A9F79E3F510570F0E9
:1037000060CFAACF5F3FECF3983EDCF386957795C8
:103710006795B795F795E7959F5FC1F7FE2B880FE3
:10372000911D9695879597F90895629FD001739F93
:10373000F001829FE00DF11D649FE00DF11D929F4D
:10374000F00D839FF00D749FF00D659FF00D99278C
:10375000729FB00DE11DF91F639FB00DE11DF91FB0
:10376000BD01CF011124089597FB092E07260AD029
:1037700077FD04D049D006D000201AF470956195E9
:103780007F4F0895F6F7909581959F4F0895A1E298
:103790001A2EAA1BBB1BFD010DC0AA1FBB1FEE1FCB
:1037A000FF1FA217B307E407F50720F0A21BB30B16
:1037B000E40BF50B661F771F881F991F1A9469F792
:1037C00060957095809590959B01AC01BD01CF01EE
:1037D000089597FB092E05260ED057FD04D0D7DF9C
:1037E0000AD0001C38F450954095309521953F4FF4
:1037F0004F4F5F4F0895F6F79095809570956195BE
:103800007F4F8F4F9F4F0895AA1BBB1B51E107C0ED
:10381000AA1FBB1FA617B70710F0A61BB70B881F60
:10382000991F5A95A9F780959095BC01CD010895EF
:10383000EE0FFF1F0590F491E02D0994F894FFCF4F
:1038400052656164206661696C005265616479212A
:1038500000018000E20300003F065B4F666D7D07BC
:103860007F6F777C395E797101000A006400E8039C
:10387000000000001E10ED0F6B0F740F890F9A0FE0
:10388000000000008117261817174817281771170E
:00000001FF
