:100000000C9464000C94E9120C9416130C948C005C
:100010000C948C000C9449030C948C000C948C0070
:100020000C948C000C948C000C948C000C948C0020
:100030000C948C000C9405050C948C000C948C0092
:100040000C9443130C948C000C9459160C949C162D
:100050000C948C000C948C000C948C000C948C00F0
:100060000C9410110C948C00000000070002010099
:100070000003040600000000000000000102040864
:100080001020408001020408102001020408102002
:10009000040404040404040402020202020203032E
:1000A00003030303000000002300260029000000D2
:1000B0000000250028002B0000000000240027007D
:1000C0002A009203B710D71611241FBECFEFD8E035
:1000D000DEBFCDBF11E0A0E0B1E0E0E8F5E302C093
:1000E00005900D92AA34B107D9F713E0AAE4B1E064
:1000F00001C01D92A23BB107E1F710E0C8ECD0E0CF
:1001000004C02297FE010E94971AC23CD107C9F78A
:100110000E9474150C94BE1A0C940000CF93DF93C8
:10012000EC01862F6E834F83288791E09D8760E0E6
:100130000E94DC1461E08E810E94151519861A86D2
:100140001B861C86DF91CF910895DF92EF92FF927C
:100150000F931F93CF93DF93EC0161E08E810E9498
:1001600015156AEF70E080E090E00E94BC130E94D9
:100170008D1309851A852B853C85601771078207C9
:10018000930720F419861A861B861C862D8521115B
:1001900011C009851A852B853C85DC01CB01801BAC
:1001A000910BA20BB30B803D9740A105B10510F454
:1001B00081E071C01D860E948D1369877A878B87C5
:1001C0009C871C821B821A821982188261E08E81B0
:1001D0000E94DC1460E08E810E94151564E170E0DD
:1001E00080E090E00E94BC13F89461E08E810E9450
:1001F000151588E290E00E94E21360E08E810E9473
:10020000DC14F12CD12C81E0E12C082F10E08E8140
:100210000E944B158017910741F4E39481E090E030
:100220000E94E2138FEFE812F2CF8E810E944B15ED
:100230009FEFE916C9F023E02F1590F4F0FC10C0F1
:100240009D2D969596959695FE01E90FF11D90814D
:10025000990F908328852E1510F491609083D39484
:10026000F39495E5F912D0CF789427E22D1590F408
:100270002C8130E04881898190E0840F911D4A8172
:10028000840F911D4B81840F911D992728173907E1
:1002900009F48ECF80E0DF91CF911F910F91FF90F5
:1002A000EF90DF900895CF92DF92EF92FF920F933D
:1002B0001F93CF93DF93EC01162F0E94A500882394
:1002C00009F450C08F818B3031F008F44BC0855158
:1002D000823078F047C06A8170E080E090E00E9450
:1002E0002119112309F449C020E030E040E151E434
:1002F0002AC00A81602F6F7770E080E090E00E9452
:10030000231920E030E040E853E40E94AF196B016C
:100310007C016B8170E080E090E00E9423199B01DA
:10032000AC01C701B6010E94551820E030E040E260
:1003300051E40E94B91807FD9058112309F120E0FB
:1003400030E040E151E40E94AF1920E030E040EAA3
:1003500050E40E94B91820E030E040E052E40E94EE
:1003600055180EC067E071E084E093E00E94BF156D
:1003700020E030E040EC5FE705C09B01AC0102C02B
:100380009B01AC01B901CA01DF91CF911F910F917F
:10039000FF90EF90DF90CF900895CF92DF92EF9291
:1003A000FF92CF93DF93EC010E94A500882379F19F
:1003B0008F818B3029F158F18551823040F5688169
:1003C00070E080E090E00E94211920E030E040E8F9
:1003D00053E40E94AF196B017C01698170E080E0F9
:1003E00090E00E9423199B01AC01C701B6010E9455
:1003F000551820E030E040E251E40E94B91811C0E5
:10040000688170E080E090E00E9421190AC067E0F6
:1004100071E084E093E00E94BF1560E070E080EC42
:100420009FE7DF91CF91FF90EF90DF90CF900895FD
:10043000CF93DF93EC01862FE62FF0E0F983E8837A
:1004400050E05B834A832C831E821D8261E00E9400
:10045000DC1461E08A81DF91CF910C94DC141F934E
:10046000CF93DF93EC0160E08A810E9415158AE04A
:1004700090E00E94E21314E061E08A810E94151569
:1004800060E08A810E9415151150B1F7DF91CF917C
:100490001F910895FF920F931F93CF93DF93EC0169
:1004A0008B0190E1F92E612F661F6627661F8A81F6
:1004B0000E94151588810E944B1561E0892B09F077
:1004C00060E088810E941515000F111FFA9459F7FA
:1004D000DF91CF911F910F91FF900895EF92FF92BE
:1004E0000F931F93CF93DF93EC017B01CB019370AC
:1004F0009E838D8360E070E0CE010E944A0200E09E
:1005000010E08C81882351F0C701002E02C0880FB3
:10051000991F0A94E2F791FF0DC009C0C701002E90
:1005200002C0969587950A94E2F780FF03C06FEFAB
:1005300070E002C060E070E0CE010E944A020F5FEE
:100540001F4F0A301105E9F660E070E0CE010E940D
:100550004A0260E070E0CE010E944A02CE01DF91C3
:10056000CF911F910F91FF90EF900C942F02FC01FF
:100570006483658176810C946E026B3008F06AE0CA
:100580002FEF3FEF02C0220F331F6A95E2F720954D
:100590003095FC0136832583B9010C946E026623E5
:1005A00021F06B3018F06AE001C061E05FEF560F98
:1005B000FC012581368161E070E002C0660F771F83
:1005C0005A95E2F7442319F0622B732B04C060950F
:1005D000709562237323FC01768365830C946E020D
:1005E000662321F06B3018F06AE001C061E02FEF64
:1005F000260F61E070E002C0660F771F2A95E2F7D0
:10060000FC012581368162277327768365830C94EC
:100610006E02FC01858196810895FC0181E02081B4
:100620003181232B09F480E00895CF93DF9382E09A
:100630000E944B15EC0183E00E944B158C239D23F7
:10064000019719F481E080934C01DF91CF910895D7
:1006500084E0809368008BB381718BBB8CE08093C6
:100660006D00089548EE53E060E070E08DE491E0A5
:100670000E9494052FEF3FEFA90165E173E08DE43F
:1006800091E00E94AA05789408958DE491E00C947D
:100690009B051F920F920FB60F9211241F932F9359
:1006A0003F934F935F936F937F938F939F93AF93FA
:1006B000BF93CF93DF93EF93FF9310914C011130D1
:1006C000E9F482E00E944B15EC0183E00E944B1597
:1006D0008C179D071CF410934A010CC082E00E9405
:1006E0004B15EC0183E00E944B15C817D90734F471
:1006F00010924A0110934B0110924C01FF91EF911F
:10070000DF91CF91BF91AF919F918F917F916F9129
:100710005F914F913F912F911F910F900FBE0F90BE
:100720001F9018958AE491E00C942803CF93DF93EF
:10073000EC01862F6883498360E00E94DC1460E04E
:1007400089810E94DC1460E088810E94151560E0B8
:100750008981DF91CF910C941515683010F4685F92
:1007600001C06FE0FC016283089561E0FC018181BA
:100770000E94DC1482E390E00C94E213CF93DF93A9
:10078000EC0161E089810E94DC1482E390E00E9428
:10079000E21360E088810E94DC1482E390E00E9412
:1007A000E21360E089810E94DC1482E390E0DF9133
:1007B000CF910C94E2130F931F93CF93DF93EC012F
:1007C000062F18E061E088810E94DC1482E390E04B
:1007D0000E94E21300FF02C060E001C061E0898175
:1007E0000E94DC1482E390E00E94E21360E08881C2
:1007F0000E94DC1482E390E00E94E21306951150FF
:1008000009F761E088810E94DC1460E089810E9420
:10081000DC1482E390E00E94E21360E088810E9491
:10082000DC1482E390E00E94E21389810E944B1560
:10083000182F811104C061E089810E94DC1482E3D9
:1008400090E00E94E21361E088810E94DC1482E360
:1008500090E00E94E21381E0111101C080E0DF917D
:10086000CF911F910F910895AF92BF92DF92EF92B7
:10087000FF920F931F93CF93DF9300D0CDB7DEB7D6
:100880005C01F62EE42E29837A830E94B50360E48E
:10089000C5010E94DB03C5010E94BE03C5010E9481
:1008A000B5032981622F63706054C5010E94DB0388
:1008B000DF2C0F2D7A81172F802F8D198E1538F48C
:1008C000F80161918F01C5010E94DB03F5CFC501DD
:1008D0000E94BE03C5010E94B503F5016281605804
:1008E000C5010E94DB03C5010F900F90DF91CF91EE
:1008F0001F910F91FF90EF90DF90BF90AF900C94FD
:10090000BE034F925F926F927F928F929F92AF92AF
:10091000BF92CF92DF92EF920F931F93CF93DF930B
:1009200000D000D0CDB7DEB73C015B01322F202FC5
:1009300089E1882E81E0982ECE0101966C01FC01A0
:1009400001E01FE3D4015E904E904D01C501B2015C
:100950000E941D1A6115710561F4411106C0002342
:1009600021F08E2F8C19833011F4108313C0108264
:1009700011C0A62FAF70B0E0A75EBE4F8C918083F0
:10098000649DC001659D900D749D900D1124A81A61
:10099000B90A00E0EE2039F08E2F8C19813019F45D
:1009A0008081806880833196B1E18B16B1E09B062F
:1009B00049F664E070E0631B71096C0D7D1D432FE7
:1009C000C3010E9434040F900F900F900F90DF919D
:1009D000CF911F910F91EF90DF90CF90BF90AF908C
:1009E0009F908F907F906F905F904F9008956F7061
:1009F000E62FF0E0E75EFE4F80810895FC0181E084
:100A00009081911101C080E008951F920F920FB65E
:100A10000F9211242F933F934F935F936F937F9384
:100A20008F939F93AF93BF93EF93FF93E091510107
:100A3000F09152010995FF91EF91BF91AF919F9174
:100A40008F917F916F915F914F913F912F910F9077
:100A50000FBE0F901F901895FC01A3E0440F551F87
:100A6000661F771FAA95D1F74115510581E06807E8
:100A7000710514F481E00EC033E0759567955795C4
:100A800047953A95D1F74115510581E06807710501
:100A90001CF482E0828331C023E0759567955795F9
:100AA00047952A95D1F74115510581E068077105F1
:100AB00014F483E0EFCF92E07595679557954795CD
:100AC0009A95D1F74115510581E06807710514F435
:100AD00084E0E0CF82E075956795579547958A95B4
:100AE000D1F785E082834115510581E068077105E2
:100AF00024F04FEF5FEF60E070E08FB78383F894EE
:100B000051834083509387004093860083818FBF39
:100B100080918100887F8093810080918100928103
:100B2000892B8093810008951092800020E120930A
:100B300081000C942C05EFE6F0E080818E7F8083AD
:100B40000895E1E8F0E02081DC0112968C91282BD9
:100B5000208308950F931F93CF93DF93EC018B01B4
:100B6000BA01A901141615061606170614F40E94F8
:100B70002C051D830C8381E080936F00CE01DF91F3
:100B8000CF911F910F910C94A105CF93DF93EC01AE
:100B900060E088810E94151584E190E00E94E213D4
:100BA00061E088810E94151584E190E0DF91CF918A
:100BB0000C94E2130F931F93CF93DF93EC01062F56
:100BC00018E007FF02C061E001C060E089810E9477
:100BD0001515CE010E94C505000F115091F7DF9148
:100BE000CF911F910F910895EF92FF921F93CF9392
:100BF000DF9300D0CDB7DEB77C01162F27FF02C0F0
:100C000060EC01C060EE26FF606147FF686046FF50
:100C1000646017FF626016FF6160C70129834A8321
:100C20000E94DA052981622FC7010E94DA054A81F4
:100C3000642FC7010E94DA05612FC7010F900F9042
:100C4000DF91CF911F91FF90EF900C94DA057F9286
:100C50008F929F92AF92BF92CF92DF92EF92FF92CC
:100C60000F931F93CF93DF93EC01162F942E822EB8
:100C700060E00E94DA0560E0CE010E94DA0560E0E3
:100C8000CE010E94DA0560E0CE010E94DA0583E021
:100C9000189F7001112467018FEFC81AD80A5701F5
:100CA00082E0A80EB11C712C8A81781600F57112B1
:100CB0000FC0EB81FC81EE0DFF1D9082EB81FC816A
:100CC000EC0DFD1D8082EB81FC81EA0DFB1D008394
:100CD000EB81FC8183E0789EE00DF11D11242281DF
:100CE00041816081CE010E94F4057394DDCF60E004
:100CF000CE010E94DA0560E0CE010E94DA0560E0D4
:100D0000CE010E94DA0560E0CE01DF91CF911F9104
:100D10000F91FF90EF90DF90CF90BF90AF909F909A
:100D20008F907F900C94DA050F931F93CF93DF93EE
:100D3000EC01862F688349832A8361E00E94DC14DA
:100D400061E089810E94DC148A8161E070E023E027
:100D5000829FC00111240E949B1A9C838B8310E008
:100D60008A81181748F400E020E040E0612FCE01AE
:100D70000E9427061F5FF4CFDF91CF911F910F9143
:100D80000895FC0182810895809162019091630130
:100D90000196909363018093620108950E948D13E0
:100DA00060937C0170937D0180937E0190937F011D
:100DB00082E00E944B1590936B0180936A014091F1
:100DC0007C0150917D0160917E0170917F01892BA2
:100DD00049F0409378015093790160937A017093C0
:100DE0007B0108C0409374015093750160937601B4
:100DF00070937701409178015091790160917A0167
:100E000070917B018091740190917501A0917601A0
:100E1000B091770184179507A607B70740F5481BDF
:100E2000590B6A0B7B0B40937001509371016093D7
:100E30007201709373018091840190918501A0915A
:100E40008601B0918701840F951FA61FB71F80935D
:100E5000840190938501A0938601B093870110923D
:100E600078011092790110927A0110927B01089515
:100E700064E070E084E392E00E94AB1064EF7EE0F7
:100E800084E392E00E94AD106DE27FE084E392E0A3
:100E90000C94B210AF92BF92CF92DF92EF92FF927A
:100EA0000F931F93CF93DF93CDB7DEB728970FB67D
:100EB000F894DEBF0FBECDBF8091C0019091C101FB
:100EC000049709F0BAC18091BE019091BF01892BAE
:100ED00009F0B3C181E090E09093BF018093BE011F
:100EE0008091C2019091C3018130910539F48091C4
:100EF000C4010E944B158093BD019FC182309105B2
:100F000039F46091C6018091C4010E94151595C104
:100F100083309105B1F48091C4010E943D129093F9
:100F20009201809391019C0197FF02C021503F4F95
:100F30003093A90160E071E00E941D1A8093AA011C
:100F40007CC18430910549F46091C6017091C7015C
:100F50008091C4010E945A1270C18530910539F404
:100F60006091C6018091C4010E94DC1466C1873083
:100F7000910509F043C08091C4019091C50180930F
:100F800055019093560161E00E94DC1460E080916D
:100F900055010E94151582E090E00E94E21361E085
:100FA000809155010E94151585E090E00E94E213A2
:100FB00060E0809155010E94151560E08091550117
:100FC0000E94DC1420E432E44FE050E061E08091C4
:100FD00055010E9428142AE330E040E050E00E94CE
:100FE000531ACA01B90120E031E040E050E00E940C
:100FF000531A2093A9016093AA011FC1883091055B
:1010000051F481E08093A90182E08093AA0187E0F6
:101010008093AB0112C18832910509F05EC08091C6
:101020008C0190918D01892B09F407C18091C60133
:101030009091C701009719F426E04BE00BC0813076
:10104000910519F426E046E105C00297029740F4A5
:1010500026E045E16091C40186E292E00E948E00A4
:1010600060E086E292E00E9453016D837E838F836D
:10107000988786E292E00E94CD0169837A838B8310
:101080009C831092540110925301FE01359680E02A
:1010900090E001962191DC01AD56BE4F2C93843037
:1010A0009105BCF384E090E0909354018093530148
:1010B0000196DC01AD56BE4FE1E0F0E0EC0FFD1F04
:1010C000E80FF91F359720812C938830910584F320
:1010D00090935401809353015DC082339105D9F4FC
:1010E0004091C4015091C50121E08091C6019091C9
:1010F000C701892B09F420E061E0640FFA013297FF
:1011000037E03E9FC0013F9F900D112484509E4FB9
:101110000E94180292C0C39709F041C02091C401F7
:101120003091C5012250310947E0429FC001439FE1
:10113000900D112484509E4F0E940D03811161C1B6
:101140002EC08A30910509F0F2C580918C019091F2
:101150008D01019709F071C080916C018093A80105
:101160008091800190918101A0918201B0918301D1
:101170008093A901492F5A2F6B2F77274093800125
:101180005093810160938201709383014093AA017F
:10119000A093AB0110928D0110928C014EC08091F2
:1011A000C2019091C301C49709F406C18091C201A4
:1011B0009091C301C59791F42091C4013091C5016C
:1011C0002250310947E0429FC001439F900D1124F6
:1011D00084509E4F0E940D0381112CC18091C20149
:1011E0009091C301C69709F440C18091C2019091CA
:1011F000C301C79709F45EC18091C2019091C301F8
:10120000C89709F483C18091C2019091C3018634CB
:10121000910509F0A2C16091C4017091C50141E03E
:10122000460F9B0122503109C901880F991F820F77
:10123000931F86519E4F0E94960380916E0190915C
:101240006F01892BD9F10E948D13009188011091B3
:10125000890120918A0130918B01601B710B820BF7
:10126000930B613375478105910540F181E090E072
:1012700090936D0180936C01809184019091850120
:10128000A0918601B09187018093800190938101A4
:10129000A0938201B0938301109284011092850182
:1012A00010928601109287010E948D13609388012D
:1012B0007093890180938A0190938B0180916401DE
:1012C00090916501892B39F180914B01813019F59D
:1012D00020914A018091680190916901213049F47F
:1012E00001968931910554F01092690110926801BC
:1012F00009C0019797FF02C088E190E090936901CF
:101300008093680181E080936601809168018093F9
:10131000670110924B0180915E0190915F01892BD2
:1013200009F451C50E948D1300915A0110915B017F
:1013300020915C0130915D01601B710B820B930B5E
:10134000613D77408105910508F43DC5209162011A
:10135000309163014EE1429FC001439F900D1124E3
:1013600069E470E00E941D1AE62F472F6093600128
:101370007093610181E080935701862F972F60E081
:1013800071E00E941D1A809358012E2F342F37FFD1
:1013900002C021503F4F30935901109263011092C7
:1013A00062010E948D1360935A0170935B018093D8
:1013B0005C0190935D0107C52091C4013091C50186
:1013C0002250310917E0129FC001139F900D112484
:1013D00084509E4F0E940D03882309F4E7CE20918C
:1013E000C4013091C50122503109129FC001139FE1
:1013F000900D11246091C60184509E4F0E94BD0241
:101400001CCF61E08091C6019091C701892B09F43E
:1014100060E02091C4013091C5012250310947E0BC
:10142000429FC001439F900D112484509E4F0E9403
:10143000B70203CF41E08091C8019091C901892B87
:1014400009F440E02091C4013091C50122503109D6
:1014500057E0529FC001539F900D11246091C60127
:1014600084509E4F0E94CF02E8CE2091C40130915B
:10147000C5012250310917E0129FC001139F900D42
:10148000112484509E4F0E940D03882309F4ADCE91
:101490002091C4013091C50122503109129FC00131
:1014A000139F900D11246091C60184509E4F0E949D
:1014B000F002C3CE2091C4013091C5012250310900
:1014C00017E0129FC001139F900D112484509E4F6E
:1014D0000E940D03882309F48FCE9091C80180E00B
:1014E0006091C6017091C701682779272091C401D6
:1014F0003091C50122503109129FC001139F900DF8
:10150000112484509E4F0E946E0297CE2091C401F8
:101510003091C5012250310917E0129FC001139F7D
:10152000900D112484509E4F0E940D03882309F4CE
:101530006ACE2091C4013091C50122503109129F19
:10154000C001139F900D112484509E4F0E940903E7
:101550008093A9019093AA0170CE8734910519F563
:101560002091C4013091C50122503109C901880F71
:10157000991F820F931F86519E4F0E94FE0488235D
:1015800091F02091C4013091C50122503109C90167
:10159000880F991F820F931F6091C60186519E4F3D
:1015A0000E94AD034ACE8091C2019091C30188345C
:1015B000910551F52091C4013091C50122503109A6
:1015C000C901880F991F820F931F86519E4F0E9459
:1015D000FE048823C9F09091C80180E06091C601A3
:1015E0007091C701682779272091C4013091C50106
:1015F00022503109C901880F991F820F931FE12CD6
:1016000000E024E040E05BC08091C2019091C30102
:101610008934910589F42091C4013091C50122508B
:101620003109C901880F991F820F931F86519E4F60
:101630000E94FE0481112BC08091C2019091C301D0
:101640008A34910509F040C02091C4013091C50150
:1016500022503109C901880F991F820F931F8651AB
:101660009E4F0E94FE04882379F12091C40130919D
:10167000C50122503109C901880F991F820F931F9C
:101680006091C80186519E4F0E94F70437C0909127
:10169000C80180E06091C6017091C7016827792771
:1016A0002091C4013091C50122503109C901880F30
:1016B000991F820F931FE12C00E024E041E0865146
:1016C0009E4F0E948104B9CD8091C2019091C301C7
:1016D0008B34910519F52091C4013091C501225038
:1016E0003109C901880F991F820F931F86519E4FA0
:1016F0000E94FE04882391F08091C8018983209183
:10170000C4013091C50122503109C901880F991FC8
:10171000820F931F2091C60141E00FC18091C20149
:101720009091C3018C34910509F075C02091C401DA
:101730003091C50122503109C901880F991F820FCC
:10174000931F86519E4F0E94FE04882309F463C0B4
:101750008091C6019091C7010AE010E0B8010E9493
:101760001D1A2091C4013091C50122503109C901CF
:10177000880F991F820F931F86519E4F0E94F70476
:1017800089838091C6019091C701B8010E941D1AFA
:101790002091C4013091C50122503109A901440FA3
:1017A000551F420F531F682FCA0186519E4F0E943A
:1017B000F70480688A838091C8019091C901B801BB
:1017C0000E941D1A2091C4013091C5012250310997
:1017D000C901880F991F820F931F86519E4F0E9447
:1017E000F7048B838091C8019091C901B8010E94D0
:1017F0001D1A2091C4013091C50122503109A9015F
:10180000440F551F420F531F682FCA0186519E4F28
:101810000E94F70467C08091C2019091C3018D348A
:10182000910589F42091C4013091C50122503109FC
:10183000C901880F991F820F931F86519E4F0E94E6
:10184000FE0481111EC08091C2019091C3018E34AB
:10185000910509F049C02091C4013091C501225081
:101860003109C901880F991F820F931F86519E4F1E
:101870000E94FE048823C1F18FEF89838A838B83C2
:1018800031C01091C601A090C801B090C901AA0C46
:10189000BB1CAA0CBB1CC12CD12CCA14DB040CF041
:1018A000CCCC812F0E943D12BC012091C40130910B
:1018B000C50122503109C901880F991F820F931F5A
:1018C000E12C00E024E040E086519E4F0E9481041C
:1018D0006AEF70E080E090E00E94BC132FEFC21A24
:1018E000D20ADBCF8C831CC08091C2019091C301CE
:1018F0008F34910551F52091C4013091C5012250DA
:101900003109C901880F991F820F931F86519E4F7D
:101910000E94FE048823C9F019821A821B821C824D
:101920002091C4013091C50122503109C901880FAD
:10193000991F820F931F20E044E0BE016F5F7F4F2D
:1019400086519E4F0E94340478CC8091C2019091C0
:10195000C3018A35910569F48091C40180938E0199
:101960008091C60180938F018091C801809390017E
:1019700064CC8B359105B1F46091C4017091C501BF
:1019800041E0460F9B012250310955E0529FC001B2
:10199000539F900D11242091C60184539E4F0E94A5
:1019A00094064BCC8C35910509F044C06091C4017C
:1019B0007091C50141E0460F9B012250310955E06D
:1019C000529FC001539F900D11242091C601845352
:1019D0009E4F0E9494061091C80112FBDD24D0F89E
:1019E000D19411FBCC24C0F8C19411701195E12C55
:1019F000F12CE5E0BE2E8091C6019091C701E8165A
:101A0000F9060CF01ACC6091C4017091C5016250C6
:101A10007109B69EC001B79E900D1124012F2C2D87
:101A20004D2D6E2D84539E4F0E9427063FEFE31AE3
:101A3000F30AE1CF8D35910509F074C02091C601FC
:101A40003091C7018091C4019091C501232BB1F45D
:101A50009C012250310945E0429FC001439F900DF7
:101A600011240091900120918F0140918E0160918D
:101A7000C80184539E4F0E942706DFCB9C01225051
:101A8000310945E0429FC001439F900D11248453CA
:101A90009E4F0E94C106E12CF12CC82ED12C15E0DE
:101AA000EC14FD040CF0C9CB2091C6013091C701A4
:101AB0002130310541F48091C8019091C901E816A7
:101AC000F906B1F42BC02230310541F48091C801F0
:101AD0009091C9018E159F055CF420C0233031051B
:101AE000E9F48091C8019091C901E816F906B4F0B3
:101AF0002091C4013091C50122503109129FC001CB
:101B0000139F900D11240091900120918F0140911D
:101B10008E016E2D84539E4F0E9427064FEFE41ACC
:101B2000F40ABECF8E35910509F052C08091C801EC
:101B30009091C9011816190634F081E090E0909355
:101B4000C9018093C8012091C4013091C501225080
:101B5000310945E0429FC001439F900D11248453F9
:101B60009E4F0E94C106E090C601F090C701C82EAA
:101B7000D12C15E0EC14FD040CF05FCB8091C60174
:101B80009091C7019701281B390BC9016091C801C9
:101B90007091C9010E941D1A892BB1F42091C401D2
:101BA0003091C50122503109129FC001139F900D41
:101BB00011240091900120918F0140918E016E2D92
:101BC00084539E4F0E9427063FEFE31AF30AD2CFB9
:101BD0008F35910509F084C02091C4013091C50171
:101BE0002250310945E0429FC001439F900D1124CE
:101BF00084539E4F0E94C106182F8091C801909176
:101C0000C901C12ED12CE12CF12C892B99F515E0BD
:101C1000EC14FD040CF011CB2091C6013091C701EA
:101C20008091C4019091C501E216F3067CF49C01F9
:101C300022503109129FC001139F900D1124009171
:101C4000900120918F0140918E010BC09C01225088
:101C50003109129FC001139F900D112400E020E074
:101C600040E06E2D84539E4F0E9427064FEFE41AEA
:101C7000F40ACECF75E0B72E96012E193F0909F46C
:101C8000DCCA8091C6019091C701A601481B590B7F
:101C9000CA014091C4015091C501612F6E19425093
:101CA00051092817390764F0B49EC001B59E900D04
:101CB00011240091900120918F0140918E0108C064
:101CC000B49EC001B59E900D112400E020E040E0DC
:101CD00084539E4F0E9427065FEFE51AF50ACCCF8A
:101CE0008E309105C1F441E050E06EEC76E080E08A
:101CF0000E94B91281E090E090936F0180936E0191
:101D00000E948D13609388017093890180938A01EA
:101D100090938B0153C08F30910509F012CA80E077
:101D20000E94D91210926F0110926E0147C080314B
:101D3000910559F48AE491E00E94320381E090E039
:101D4000909365018093640139C08131910549F414
:101D50008AE491E00E9445031092650110926401AB
:101D60006CCA8231910501F560E082E00E94DC14CA
:101D700043E050E064EC76E080E00E94B9121092FB
:101D80006301109262010E948D1360935A01709357
:101D90005B0180935C0190935D0181E090E0909302
:101DA0005F0180935E010AC00D9709F046CA109248
:101DB0005F0110925E0180E00E94D9121092C3016F
:101DC0001092C2013ACA28960FB6F894DEBF0FBE31
:101DD000CDBFDF91CF911F910F91FF90EF90DF90DA
:101DE000CF90BF90AF9008950F931F93CF93DF9341
:101DF00001E010E084E392E00E94C80F892B41F1DA
:101E000084E392E00E94C80F049761F41092BF012E
:101E10001092BE011092C1011092C00110938D0169
:101E200000938C01C091C001D091C101CE010196F7
:101E30009093C1018093C00184E392E00E94D00F8F
:101E4000FE01EE0FFF1FEE53FE4F91838083D2CF32
:101E5000DF91CF911F910F9108958091C2019091D0
:101E6000C301019731F46091BD0184E392E00E94C7
:101E70004F108091C2019091C3019C012B7F2330B0
:101E8000310511F0C89741F443E050E068EA71E091
:101E900084E392E00E9422108091C2019091C301DC
:101EA0008830910511F0449741F444E050E068EA2D
:101EB00071E084E392E00E9422108091C20190912F
:101EC000C3014E9741F449E050E068EA71E084E3D1
:101ED00092E00E9422108091C2019091C3018897E4
:101EE00041F449E050E063E971E084E392E00E944C
:101EF00022108091C2019091C301459751F445E1B0
:101F000050E068EA71E084E392E00E9422101092AF
:101F1000A8018091C2019091C3010A9781F444E025
:101F200050E068EA71E084E392E00E94221010928F
:101F30006D0110926C011092C3011092C201809148
:101F4000C2019091C3010B9771F442E050E066E644
:101F500071E084E392E00E942210109266011092D8
:101F6000C3011092C2018091C2019091C3010C97EC
:101F700071F443E050E067E571E084E392E00E9491
:101F80002210109257011092C3011092C2010895BD
:101F90008091670290E020916802821B9109089568
:101FA0002091680280916702281750F4E22FF0E038
:101FB000E759FD4F808190E02F5F209368020895DC
:101FC0008FEF9FEF0895E091680280916702E81714
:101FD00030F4F0E0E759FD4F808190E008958FEFF5
:101FE0009FEF08950895E0914002F09141023097EB
:101FF000E1F030916802209167023217B0F040E0C2
:10200000242F30E02617370754F4DC01A20FB31F4A
:102010005C91D901A759BD4F5C934F5FF1CF1092EE
:10202000680260936702CB0109940895E09142022F
:10203000F0914302309729F0109246021092450227
:1020400009940895CF92DF92EF92FF920F931F931E
:10205000CF93DF937C01CB018A012091440222239C
:1020600089F0EB016B01C40ED51ECC15DD0569F0BE
:102070006991D701ED91FC910190F081E02DC701AC
:102080000995F3CF642F0E94DD10C801DF91CF9135
:102090001F910F91FF90EF90DF90CF900895CF9315
:1020A000DF931F92CDB7DEB76983209144022223CC
:1020B000D1F020914502203240F021E030E0FC01D7
:1020C0003383228380E090E015C080914602E82FA0
:1020D000F0E0E95BFD4F998190838F5F809346022A
:1020E0008093450205C061E0CE0101960E94DD109B
:1020F00081E090E00F90DF91CF910895FC01138271
:10210000128248EE53E060E070E0448355836683BA
:1021100077838DE291E09183808308951092680225
:102120001092670210924602109245020C94BB1066
:10213000CF93DF93EC01862F0E94D91086E190E1C6
:102140000E94FB1083EF9FE00E94F610CE01DF910A
:10215000CF910C948E100C94981070934102609360
:10216000400208957093430260934202089584E30D
:1021700092E00C947E101092F60281E08093F402BB
:102180001092F30261E082E10E94151561E083E1A3
:102190000E941515E9EBF0E080818E7F80838081BD
:1021A0008D7F808388E48093B80085E48093BC00B1
:1021B0000895880F8093BA000895613298F42091B1
:1021C000F602243089F46093AB02FC018DEA92E0C0
:1021D000DC012A2F281B261718F421912D93F9CF03
:1021E00080E0089581E0089582E008959093F002E0
:1021F0008093EF0208959093F2028093F102089584
:1022000085ED8093BC008091BC0084FDFCCF1092D2
:10221000F602089585EC8093BC001092F6020895B2
:102220001F920F920FB60F9211242F933F934F934B
:102230005F936F937F938F939F93AF93BF93EF932E
:10224000FF938091B900887F803609F49CC068F5BF
:10225000883209F45BC090F4803109F454C038F43A
:10226000882309F4F5C0883009F44DC0F5C08831E1
:1022700009F44CC0803209F45DC0EEC0803409F42A
:1022800068C048F4803309F455C0883309F0E4C0CD
:1022900080938902A8C0803509F44FC0883509F4BD
:1022A0005DC0883409F0D8C0D5C0883909F4C6C0EB
:1022B000A8F4883709F467C038F4883609F463C095
:1022C000803709F460C0C8C0883809F4B7C08039C5
:1022D00009F45FC0803809F0BFC05BC0803B09F4DF
:1022E00085C038F4803A09F466C0883A09F47EC0A3
:1022F000B3C0803C09F4A6C0883C09F4A3C0883B65
:1023000009F489C0A9C08091F50210C09091CE0255
:102310008091CD02981770F5E091CE0281E08E0F8A
:102320008093CE02F0E0E153FD4F80818093BB00AB
:1023300085EC85C0809389028DC0E091CE0281E05A
:102340008E0F8093CE028091BB00F0E0E153FD4FF1
:1023500080839091CE028091CD026DC0E091CE023B
:1023600081E08E0F8093CE028091BB00F0E0E153BC
:10237000FD4F80838091F40281116CC081E08093D5
:10238000F30284EA60C083E08093F60210928A022E
:10239000CFCF80918A02803208F050C0E0918A024B
:1023A00081E08E0F80938A028091BB00F0E0E557B8
:1023B000FD4F8083BDCF80918A02803230F4E0915E
:1023C0008A02F0E0E557FD4F10820E9400116091F3
:1023D0008A0270E0E091EF02F091F0028BE892E067
:1023E000099510928A020E940A1136C084E08093F7
:1023F000F6021092AC021092AB02E091F102F09161
:10240000F20209958091AB02811105C081E08093B1
:10241000AB021092AD02E091AC0281E08E0F80938E
:10242000AC02F0E0E355FD4F80818093BB009091BA
:10243000AC028091AB02981708F47ACF85E88093BC
:10244000BC000AC085EC8093BC001092F60204C068
:10245000109289020E940011FF91EF91BF91AF91FC
:102460009F918F917F916F915F914F913F912F91AC
:102470000F900FBE0F901F9018958E3008F08E5061
:1024800087702091000190E4299F90011124822BF4
:1024900080937C0080917A00806480937A008091A0
:1024A0007A0086FDFCCF809178002091790090E041
:1024B000922B08951F93CF93DF93182FEB0161E0C8
:1024C0000E94DC14209711F460E004C0CF3FD105D6
:1024D00039F461E0812FDF91CF911F910C94151594
:1024E000E12FF0E0E859FF4FE491E330F9F048F4D0
:1024F000E130B9F0E230A1F584B5806284BDC8BD99
:1025000034C0E630E9F0E73019F1E43049F5809164
:102510008000806280938000D0938B00C0938A00FB
:1025200024C084B5806884BDC7BD1FC08091800071
:10253000806880938000D0938900C093880015C084
:102540008091B00080688093B000C093B3000DC04C
:102550008091B00080628093B000C093B40005C049
:10256000C038D1050CF0B5CFAFCFDF91CF911F911F
:1025700008958230E8F4E82FF0E0EE0FFF1FE950F5
:10258000FD4F71836083813041F0809169008C7FC1
:10259000842B80936900E89A089580916900440F24
:1025A000551F440F551F837F842B80936900E99A40
:1025B0000895823068F4813011F0E89801C0E998FC
:1025C000E82FF0E0EE0FFF1FE950FD4F118210825F
:1025D00008951F920F920FB60F9211242F933F93DD
:1025E0004F935F936F937F938F939F93AF93BF931B
:1025F000EF93FF938091F7029091F802892B29F0D5
:10260000E091F702F091F8020995FF91EF91BF91E7
:10261000AF919F918F917F916F915F914F913F917A
:102620002F910F900FBE0F901F9018951F920F9231
:102630000FB60F9211242F933F934F935F936F9395
:102640007F938F939F93AF93BF93EF93FF9380916B
:10265000F9029091FA02892B29F0E091F902F091A8
:10266000FA020995FF91EF91BF91AF919F918F91E0
:102670007F916F915F914F913F912F910F900FBE7E
:102680000F901F9018951F920F920FB60F92112462
:102690002F933F938F939F93AF93BF938091FC02AF
:1026A0009091FD02A091FE02B091FF023091FB02D9
:1026B00023E0230F2D3720F40196A11DB11D05C085
:1026C00026E8230F0296A11DB11D2093FB028093E3
:1026D000FC029093FD02A093FE02B093FF02809152
:1026E000000390910103A0910203B09103030196AE
:1026F000A11DB11D8093000390930103A0930203D9
:10270000B0930303BF91AF919F918F913F912F9110
:102710000F900FBE0F901F9018952FB7F8946091EF
:10272000FC027091FD028091FE029091FF022FBF8A
:1027300008953FB7F8948091000390910103A09110
:102740000203B091030326B5A89B05C02F3F19F0E3
:102750000196A11DB11D3FBF6627782F892F9A2FA3
:10276000620F711D811D911D42E0660F771F881F4A
:10277000991F4A95D1F70895CF92DF92EF92FF9279
:10278000CF93DF936B017C010E949913EB01C1147D
:10279000D104E104F10479F00E9499136C1B7D0BC4
:1027A000683E7340A0F381E0C81AD108E108F1083F
:1027B000C851DC4FECCFDF91CF91FF90EF90DF90CD
:1027C000CF9008950197009739F0880F991F880FCF
:1027D000991F02970197F1F70895789484B5826064
:1027E00084BD84B5816084BD85B5826085BD85B5B5
:1027F000816085BDEEE6F0E0808181608083E1E864
:10280000F0E010828081826080838081816080839B
:10281000E0E8F0E0808181608083E1EBF0E080819E
:1028200084608083E0EBF0E0808181608083EAE770
:10283000F0E08081846080838081826080838081F9
:10284000816080838081806880831092C1000895B8
:102850008F929F92AF92BF92CF92DF92EF92FF92B0
:102860000F931F93CF93DF9390E0FC01E458FF4F49
:102870000491FC01E057FF4F7491611102C010E018
:1028800001C0102FDA01C901BF70672F70E0660F19
:10289000771F6C557F4F812C912C5401FB01C59102
:1028A000D491E881E023E11310C0750164012FEF9A
:1028B000C21AD20AE20AF20A88169906AA06BB06CA
:1028C00009F441C046015701ECCFFB01C591D491F9
:1028D000E881E023E11779F0750164012FEFC21A56
:1028E000D20AE20AF20A88169906AA06BB0659F12C
:1028F00046015701EDCF88199909AA09BB0920E0C3
:1029000030E0A901FB01C591D49168816023611376
:102910000AC0281739074A075B07A9F02F5F3F4F06
:102920004F4F5F4FF2CFA5E1B0E00E94121A605FF7
:102930007F4F8F4F9F4F24E09695879577956795AA
:102940002A95D1F703C060E070E0CB01DF91CF9111
:102950001F910F91FF90EF90DF90CF90BF90AF90BD
:102960009F908F900895833081F028F4813099F002
:102970008230A1F008958630A9F08730B9F0843014
:10298000D1F4809180008F7D03C0809180008F778B
:1029900080938000089584B58F7702C084B58F7DC1
:1029A00084BD08958091B0008F7703C08091B000FE
:1029B0008F7D8093B0000895CF93DF9390E0FC016A
:1029C000E458FF4F2491FC01E057FF4F8491882386
:1029D00049F190E0880F991FFC01E854FF4FA59141
:1029E000B49182559F4FFC01C591D4919FB761115D
:1029F00008C0F8948C91209582238C93888182233F
:102A00000AC0623051F4F8948C91322F30958323B0
:102A10008C938881822B888304C0F8948C91822BBC
:102A20008C939FBFDF91CF9108950F931F93CF9306
:102A3000DF931F92CDB7DEB7282F30E0F901E859B8
:102A4000FF4F8491F901E458FF4F1491F901E057C9
:102A5000FF4F04910023C9F0882321F069830E946D
:102A6000B3146981E02FF0E0EE0FFF1FE255FF4F36
:102A7000A591B4919FB7F8948C91611103C0109502
:102A8000812301C0812B8C939FBF0F90DF91CF9149
:102A90001F910F910895CF93DF93282F30E0F90114
:102AA000E859FF4F8491F901E458FF4FD491F9019F
:102AB000E057FF4FC491CC2391F081110E94B314D1
:102AC000EC2FF0E0EE0FFF1FEC55FF4FA591B491F6
:102AD0002C912D2381E090E021F480E002C080E081
:102AE00090E0DF91CF9108950E94ED130E94380786
:102AF000C3E9D6E10E944A072097E1F30E949316AA
:102B0000F9CFCF92DF92EF92FF920F931F93CF9363
:102B1000DF936C017A01EB01E60EF71E00E010E096
:102B2000CE15DF0561F06991D601ED91FC91019020
:102B3000F081E02DC6010995080F191FF1CFC801DA
:102B4000DF91CF911F910F91FF90EF90DF90CF9089
:102B500008956115710581F0DB010D900020E9F702
:102B6000AD0141505109461B570BDC01ED91FC9121
:102B70000280F381E02D099480E090E008950C94A8
:102B8000A915FC0124853585F901E05CFF4F8081A2
:102B90009181F901EE5BFF4F20813181821B930B04
:102BA0008F7399270895FC0184859585FC01E05C6D
:102BB000FF4F40815181FC01EE5BFF4F208131814D
:102BC0004217530741F00190F081E02DE80FF91F03
:102BD000808190E008958FEF9FEF0895FC01848538
:102BE0009585FC01E05CFF4F40815181FC01EE5B6B
:102BF000FF4F208131814217530779F0A081B181C5
:102C0000A80FB91F8C91208131812F5F3F4F2F7307
:102C100033273183208390E008958FEF9FEF08954D
:102C2000FC0181A1882329F0A489B5898C9186FFB4
:102C3000FBCF11A20895CF93DF93FC012685378542
:102C4000D901A05CBF4F8D919C91119701968F7314
:102C50009927E901CE5BDF4F488159818417950799
:102C6000D9F30D90BC91A02DA20FB31F6C93A68534
:102C7000B785A05CBF4F11969C938E93A689B789A8
:102C80002C9181E090E0078C02C0880F991F0A9474
:102C9000E2F7282B2C9381E081A30488F589E02DAD
:102CA00080818064808381E090E0DF91CF910895FE
:102CB00008951F920F920FB60F9211242F933F93F6
:102CC0004F938F939F93EF93FF938091C00082FD6A
:102CD0001CC04091C6008091AA039091AB0301965D
:102CE0008F7399272091AC033091AD03821793071E
:102CF00071F0E091AA03F091AB03E659FC4F4083D9
:102D00009093AB038093AA0302C08091C600FF9109
:102D1000EF919F918F914F913F912F910F900FBE07
:102D20000F901F90189584E093E00E94C115892BA5
:102D300011F00C94581608951F920F920FB60F922F
:102D400011242F933F938F939F93EF93FF932091A1
:102D50006603309167038091680390916903281797
:102D6000390731F48091C1008F7D8093C10014C078
:102D7000E0916803F0916903EA5DFC4F2081809146
:102D800068039091690301968F7399279093690363
:102D9000809368032093C600FF91EF919F918F91DC
:102DA0003F912F910F900FBE0F901F90189510928A
:102DB00007031092060388EE93E0A0E0B0E0809352
:102DC000080390930903A0930A03B0930B038DE3C8
:102DD00091E090930503809304038AE693E0909337
:102DE00011038093100386E293E090931303809382
:102DF000120385EC90E0909315038093140384EC08
:102E000090E0909317038093160380EC90E09093EA
:102E100019038093180381EC90E090931B03809337
:102E20001A0382EC90E090931D0380931C0386ECC0
:102E300090E090931F0380931E0384E0809320030F
:102E400083E08093210387E08093220385E08093D1
:102E5000230381E0809324030895CF93DF9382308E
:102E6000910510F482E090E0E091B003F091B1039D
:102E700020E030E0A0E0B0E0309739F140815181AE
:102E800048175907B8F04817590771F482819381A0
:102E9000109729F013969C938E9312972CC09093C1
:102EA000B1038093B00327C02115310531F04217DB
:102EB000530718F0A901DB0101C0EF019A01BD0120
:102EC000DF010280F381E02DD7CF21153105F9F024
:102ED000281B390B2430310580F48A819B816115D0
:102EE000710521F0FB019383828304C09093B103A9
:102EF0008093B003FE01329644C0FE01E20FF31F3F
:102F00008193919322503109398328833AC02091CB
:102F1000AE033091AF03232B41F420910301309194
:102F200004013093AF032093AE032091010130914F
:102F300002012115310541F42DB73EB7409105013D
:102F400050910601241B350BE091AE03F091AF03C5
:102F5000E217F307A0F42E1B3F0B2817390778F070
:102F6000AC014E5F5F4F2417350748F04E0F5F1FCF
:102F70005093AF034093AE038193919302C0E0E07E
:102F8000F0E0CF01DF91CF910895CF93DF930097C9
:102F900009F487C0FC01329713821282C091B003FA
:102FA000D091B103209781F420813181280F391FFE
:102FB0008091AE039091AF038217930779F5F09358
:102FC000AF03E093AE036DC0DE0120E030E0AE174A
:102FD000BF0750F412964D915C9113979D014115D6
:102FE000510509F1DA01F3CFB383A2834081518106
:102FF000840F951F8A179B0771F48D919C911197EF
:10300000840F951F02969183808312968D919C91D7
:103010001397938382832115310529F4F093B1032B
:10302000E093B0033EC0D9011396FC93EE93129740
:103030004D915D91A40FB51FEA17FB0779F48081CC
:103040009181840F951F0296D90111969C938E93BE
:103050008281938113969C938E931297E0E0F0E027
:103060008A819B81009719F0FE01EC01F9CFCE0116
:10307000029628813981820F931F2091AE033091EF
:10308000AF032817390769F4309729F41092B10378
:103090001092B00302C013821282D093AF03C09388
:1030A000AE03DF91CF9108955058BB27AA270ED0C9
:1030B0001CC10DD130F012D120F031F49F3F11F43A
:1030C0001EF402C10EF4E095E7FBF8C0E92F1ED113
:1030D00080F3BA17620773078407950718F071F435
:1030E0009EF536C10EF4E0950B2EBA2FA02D0B01E4
:1030F000B90190010C01CA01A0011124FF27591B3D
:1031000099F0593F50F4503E68F11A16F040A22F42
:10311000232F342F4427585FF3CF469537952795B3
:10312000A795F0405395C9F77EF41F16BA0B620BB2
:10313000730B840BBAF09150A1F0FF0FBB1F661FF9
:10314000771F881FC2F70EC0BA0F621F731F841F3C
:1031500048F4879577956795B795F7959E3F08F062
:10316000B3CF9395880F08F09927EE0F9795879521
:1031700008950CD0BAC0B2D040F0A9D030F021F4FC
:103180005F3F19F09BC05111E4C09EC0BFD098F3BF
:103190009923C9F35523B1F3951B550BBB27AA27D8
:1031A00062177307840738F09F5F5F4F220F331F4A
:1031B000441FAA1FA9F333D00E2E3AF0E0E830D016
:1031C00091505040E695001CCAF729D0FE2F27D019
:1031D000660F771F881FBB1F261737074807AB07E7
:1031E000B0E809F0BB0B802DBF01FF2793585F4F5C
:1031F0002AF09E3F510568F061C0ABC05F3FECF321
:10320000983EDCF3869577956795B795F7959F5F20
:10321000C9F7880F911D9695879597F90895E1E074
:10322000660F771F881FBB1F621773078407BA07D3
:1032300020F0621B730B840BBA0BEE1F88F7E0952E
:103240000895E89409C097FB3EF490958095709599
:1032500061957F4F8F4F9F4F9923A9F0F92F96E9E2
:10326000BB279395F695879577956795B795F11157
:10327000F8CFFAF4BB0F11F460FF1BC06F5F7F4FF4
:103280008F4F9F4F16C0882311F096E911C0772306
:1032900021F09EE8872F762F05C0662371F096E80F
:1032A000862F70E060E02AF09A95660F771F881FDE
:1032B000DAF7880F9695879597F9089597F99F679C
:1032C00080E870E060E008959FEF80EC08950024AE
:1032D0000A941616170618060906089500240A947B
:1032E00012161306140605060895092E0394000C01
:1032F00011F4882352F0BB0F40F4BF2B11F460FF90
:1033000004C06F5F7F4F8F4F9F4F089557FD9058B8
:10331000440F551F59F05F3F71F04795880F97FB99
:10332000991F61F09F3F79F0879508951216130653
:103330001406551FF2CF4695F1DF08C01616170682
:103340001806991FF1CF86957105610508940895B7
:10335000E894BB2766277727CB0197F908950BD010
:10336000C4CFB5DF28F0BADF18F0952309F0A6CF57
:10337000ABCF1124EECFCADFA0F3959FD1F3950F09
:1033800050E0551F629FF001729FBB27F00DB11DE9
:10339000639FAA27F00DB11DAA1F649F6627B00D79
:1033A000A11D661F829F2227B00DA11D621F739F62
:1033B000B00DA11D621F839FA00D611D221F749F70
:1033C0003327A00D611D231F849F600D211D822FB7
:1033D000762F6A2F11249F5750408AF0E1F08823FE
:1033E0004AF0EE0FFF1FBB1F661F771F881F91500B
:1033F0005040A9F79E3F510570F060CFAACF5F3FC4
:10340000ECF3983EDCF3869577956795B795F7953D
:10341000E7959F5FC1F7FE2B880F911D96958795C5
:1034200097F908950E94721AA59F900DB49F900D70
:10343000A49F800D911D1124089597FB072E16F46B
:10344000009407D077FD09D00E94811A07FC05D0AF
:103450003EF4909581959F4F0895709561957F4FAB
:103460000895A1E21A2EAA1BBB1BFD010DC0AA1FC5
:10347000BB1FEE1FFF1FA217B307E407F50720F0DD
:10348000A21BB30BE40BF50B661F771F881F991F58
:103490001A9469F760957095809590959B01AC01A1
:1034A000BD01CF010895052E97FB1EF400940E94E4
:1034B0006A1A57FD07D00E94311A07FC03D04EF458
:1034C0000C946A1A50954095309521953F4F4F4F77
:1034D0005F4F089590958095709561957F4F8F4FC0
:1034E0009F4F0895A29FB001B39FC001A39F700D8D
:1034F000811D1124911DB29F700D811D1124911DFC
:103500000895AA1BBB1B51E107C0AA1FBB1FA6172A
:10351000B70710F0A61BB70B881F991F5A95A9F77C
:1035200080959095BC01CD010895EE0FFF1F059089
:10353000F491E02D09940F931F93CF93DF93869F0F
:103540008001879F100D969F100D1124C8010E94C5
:103550002D17EC01009729F0A80160E070E00E94AF
:10356000B71ACE01DF91CF911F910F910895DC0121
:1035700001C06D9341505040E0F70895F894FFCF9B
:10358000010000B203800052656164206661696CCD
:103590000001000A006400E8033F065B4F666D7D92
:1035A000077F6F777C395E7971000000004F102231
:1035B00010C80FD00FE30FF20F000000001B1681A0
:0A35C00015C115EE15D31510160005
:00000001FF
