:100000000C94A5000C9405190C9432190C94CD0095
:100010000C94CD000C94BB130C94CD000C94A6044E
:100020000C94CD000C94CD000C94CD000C94CD001C
:100030000C94CD000C94CF000C94CD000C94CD000A
:100040000C944F170C94CD000C943F1B0C947B1B0D
:100050000C94CD000C94CD000C94CD000C94CD00EC
:100060000C941F160C94CD0007634236B79BD8A79B
:100070001A39685618AEBAAB558C1D3CB7CC5763CD
:10008000BD6DEDFD753EF6177231BF000000803F7B
:1000900008000000BE922449123EABAAAA2ABECD97
:1000A000CCCC4C3E00000080BEABAAAAAA3E000009
:1000B0000000BF000000803F000000000008417801
:1000C000D3BB4387D1133D190E3CC3BD4282AD2B38
:1000D0003E68EC8276BED98FE1A93E4C80EFFFBE30
:1000E00001C4FF7F3F000000000000000007000285
:1000F00001000003040600000000000000000102EF
:1001000004081020408001020408102001020408A5
:100110001020040404040404040402020202020283
:10012000030303030303000000002300260029004B
:1001300000000000250028002B0000000000240023
:1001400027002A0004142E15B61B11241FBECFEF62
:10015000D8E0DEBFCDBF11E0A0E0B1E0EAE3F3E418
:1001600002C005900D92A235B107D9F716E0A2E5BD
:10017000B1E001C01D92AF31B107E1F711E0CAE46F
:10018000D1E004C02297FE010E942020C434D10790
:10019000C9F70E94401C0C949B210C9400001F92F4
:1001A0000F920FB60F9211242F933F934F935F93AB
:1001B0006F937F938F939F93AF93BF93EF93FF932F
:1001C000E0915601F09157010995FF91EF91BF9190
:1001D000AF919F918F917F916F915F914F913F91DF
:1001E0002F910F900FBE0F901F901895FC01A3E068
:1001F000440F551F661F771FAA95D1F7411551056A
:1002000081E06807710514F481E00EC033E0759554
:100210006795579547953A95D1F74115510581E076
:10022000680771051CF482E0828332C023E0759573
:100230006795579547952A95D1F74115510581E066
:100240006807710514F483E0EFCF92E07595679528
:10025000579547959A95D1F74115510581E0680763
:10026000710514F484E0E0CF82E0759567955795A9
:1002700047958A95D1F785E082834115510581E044
:10028000680771050CF404C04FEF5FEF60E070E0A9
:100290008FB78383F89451834083509387004093B2
:1002A000860083818FBF80918100887F8093810049
:1002B000809181009281892B809381000895109212
:1002C000800020E1209381000C94F600E1E8F0E04A
:1002D0002081DC0112968C91282B208308950F93A6
:1002E0001F93CF93DF93EC018B01BA01A901141680
:1002F00015061606170614F40E94F6001D830C83DB
:1003000081E080936F00CE01DF91CF911F910F911B
:100310000C946601CF93DF93EC01862F68834983A9
:1003200060E00E94891960E089810E94891960E07B
:1003300088810E94C11960E08981DF91CF910C947E
:10034000C119683010F4685F01C06FE0FC0162837E
:10035000089561E0FC0181810E94891982E390E0A7
:100360000C94FB17CF93DF93EC0161E089810E942D
:10037000891982E390E00E94FB1760E088810E9467
:10038000891982E390E00E94FB1760E089810E9456
:10039000891982E390E0DF91CF910C94FB170F93C2
:1003A0001F93CF93DF93EC01062F18E061E0888163
:1003B0000E94891982E390E00E94FB1700FF02C0AF
:1003C00060E001C061E089810E94891982E390E0C8
:1003D0000E94FB1760E088810E94891982E390E007
:1003E0000E94FB170695115009F761E088810E9471
:1003F000891960E089810E94891982E390E00E9456
:10040000FB1760E088810E94891982E390E00E94D6
:10041000FB1789810E94F819182F811104C061E02F
:1004200089810E94891982E390E00E94FB1761E0B4
:1004300088810E94891982E390E00E94FB1781E085
:10044000111101C080E0DF91CF911F910F910895AC
:10045000CF92DF92EF92FF920F931F93CF93DF9390
:1004600000D0CDB7DEB76C01F62EE42E29837A8357
:100470000E94A90160E4C6010E94CF01C6010E944A
:10048000B201C6010E94A9012981622F63706054E4
:10049000C6010E94CF010F2D7A81172F06C0F801E7
:1004A00061918F01C6010E94CF01802F8F198E1597
:1004B000B0F3C6010E94B201C6010E94A901F60173
:1004C00062816058C6010E94CF01C6010F900F9053
:1004D000DF91CF911F910F91FF90EF90DF90CF9020
:1004E0000C94B2014F925F926F927F928F929F9283
:1004F000AF92BF92CF92DF92EF920F931F93CF9361
:10050000DF9300D000D0CDB7DEB73C016B01322FB6
:10051000202F87E1A82E81E0B82E88248394912C87
:100520008C0E9D1EF40101E01FE3D5015E904E90FC
:100530005D01C601B2010E94AC1F6115710561F435
:10054000411106C0002321F08E2F8819833011F449
:10055000108313C0108211C0DB01AF70BB27A95EEE
:10056000BE4F8C918083649DC001659D900D749DEC
:10057000900D1124C81AD90A00E0EE2039F08E2F10
:100580008819813019F48081806880833196BFE0BA
:10059000AB16B1E0BB0649F684E090E0831B9109FD
:1005A000BE016F5F7F4F680F791F432FC3010E9409
:1005B00028020F900F900F900F90DF91CF911F9115
:1005C0000F91EF90DF90CF90BF90AF909F908F9062
:1005D0007F906F905F904F9008956F70E62FF0E0DE
:1005E000E95EFE4F80810895FC0181E090819111C8
:1005F00001C080E00895CF93DF93EC01862F6883DC
:1006000019824A831B822C831E821D8261E00E9414
:10061000891961E08A81DF91CF910C9489191F9328
:10062000CF93DF93EC0160E08A810E94C1198AE0D8
:1006300090E00E94FB1714E061E08A810E94C119DA
:1006400060E08A810E94C1191150B1F7DF91CF910A
:100650001F910895FF920F931F93CF93DF93EC01A7
:100660008B0190E1F92E612F661F6627661F8A8134
:100670000E94C11988810E94F81961E0892B09F054
:1006800060E088810E94C119000F111FFA9459F788
:10069000DF91CF911F910F91FF900895EF92FF92FC
:1006A0000F931F93CF93DF93EC017B01CB019370EA
:1006B0009E838D8360E070E0CE010E942A0300E0FB
:1006C00010E08C81882351F0C701002E02C0880FF2
:1006D000991F0A94E2F791FF0DC009C0C701002ECF
:1006E00002C0969587950A94E2F780FF03C06FEFEA
:1006F00070E002C060E070E0CE010E942A030F5F4C
:100700001F4F0A301105E9F660E070E0CE010E944B
:100710002A0360E070E0CE010E942A03CE01DF913F
:10072000CF911F910F91FF90EF900C940F036623D0
:1007300021F06B3018F06AE001C061E0262F2150F3
:1007400061E070E002C0660F771F2A95E2F7FC01B6
:100750002581368162277327768365830C944E0347
:10076000662321F06B3018F06AE001C061E0562F7B
:100770005150FC012581368161E070E002C0660FB6
:10078000771F5A95E2F7442319F0622B732B04C0AC
:100790006095709562237323FC01768365830C94C6
:1007A0004E036B3008F06AE02FEF3FEF02C0220FDC
:1007B000331F6A95E2F720953095FC013683258337
:1007C000B9010C944E03FC016483658176810C941D
:1007D0004E03FC01858196810895FC0181E0208112
:1007E0003181232B09F480E0089583EA94E00C948E
:1007F000D314CF93DF93EC0168E670E083EA94E0D2
:100800000E940C1560E083EA94E00E94931483EA4E
:1008100094E00E94211547E050E068E670E083EA2A
:1008200094E00E94FF1483EA94E00E941114382F90
:100830003695369536953E70232F220F220F230FC3
:100840008F709927280F288383EA94E00E9411145F
:10085000282F22952F708F7099273AE0239F800DC3
:100860001124898383EA94E00E941114382F36956D
:10087000369536953670232F220F220F230F8F7057
:100880009927280F2A8383EA94E00E941114282FC5
:1008900022952F708F7099273AE0239F800D1124A5
:1008A0008B8383EA94E00E941114282F22952F70E5
:1008B0008F7099273AE0239F800D11248C8383EA5F
:1008C00094E00E941114282F22952F708F70992781
:1008D0003AE0239F800D11248D8383EA94E00E94E7
:1008E0001114282F22952F708F7099273AE0239F9B
:1008F000800D11248E831F82DF91CF910895F8948B
:1009000082E08093B0008093B10094E69093B300AE
:100910001092B20080937000789480935D011092E1
:10092000B80380915C0160E00C94891960935C01CC
:100930000E947F0464E170E080E090E00E94D5179F
:1009400082E080935D011092B80308951F920F9288
:100950000FB60F9211242F933F934F935F936F9392
:100960007F938F939F93AF93BF93EF93FF93809168
:100970005C010E94F81920915E0130915F012F5FA8
:100980003F4F30935F0120935E019091B8039091A7
:100990005D019330C1F020F4923009F058C006C0D8
:1009A000943059F1953009F052C04BC081114FC0BD
:1009B00080915E0190915F018436910508F443C0F7
:1009C0001092B8031CC0813009F041C02091B803D7
:1009D000E22FF0E080915E0190915F01EE0FFF1F2A
:1009E000E05AFE4F918380832F5F2093B8031092CB
:1009F0005F0110925E0184E021C0811117C0209137
:100A0000B803E22FF0E080915E0190915F01EE0F5C
:100A1000FF1FE05AFE4F918380832F5F2093B8031E
:100A200010925F0110925E0183E008C080915E0128
:100A300090915F018536910550F085E080935D01CE
:100A400006C0811104C010925F0110925E01FF91F7
:100A5000EF91BF91AF919F918F917F916F915F9136
:100A60004F913F912F910F900FBE0F901F901895AF
:100A7000FB0180E691E0918380838091B8038283BB
:100A8000138280915D01853041F482E080935D01A5
:100A90001092B80321E030E002C020E030E0C9014C
:100AA00008954F925F927F928F929F92AF92BF92E2
:100AB000CF92DF92EF92FF920F931F93CF93DF932A
:100AC0002C01FB01DC0112962D913C9113974901F9
:100AD000B4E08B1A910897FE04C04901CBE08C0E5C
:100AE000911CA4E095948794AA95E1F7D2010D9109
:100AF0001C9140E050E080E090E07801B6E0EB0E21
:100B0000F11CD701A40FB51F6D917C91860F971F23
:100B10004C5F5F4F48325105A1F76AE070E00E94D8
:100B2000AC1F7B015B01AA0CBB1CD801189640E0EE
:100B300050E060E070E080E090E089010950110928
:100B400001C0A9012D913C911197A216B30638F46A
:100B50002D913C911197820F931F6F5F7F4F6A30E9
:100B6000710549F014969A012E5F3F4F4A5F5F4F1F
:100B70004017510734F30E94AC1F762EDF01169602
:100B800048E050E020E030E0CC24C394D12C2EC0CB
:100B90001C928A0187E090E0E20168817981600F10
:100BA000711FEB0168817981A616B70648F4B6017A
:100BB000082E01C0660F0A94EAF77C91762B09C0D3
:100BC000B601082E01C0660F0A94EAF760957C9181
:100BD00076237C9301970C5F1F4F8F3FDFEF9D07BC
:100BE000D9F62F5F3F4F1196405E5F4F28153905AC
:100BF0007CF2882D8B5F8083E201A881B9811296F7
:100C00008D919C9113978183A881B98114968D91C0
:100C10009C9115978283E3827482858282E080931F
:100C20005D011092B80380818F5FDF91CF911F919A
:100C30000F91FF90EF90DF90CF90BF90AF909F907B
:100C40008F907F905F904F900895CF93DF93EC014A
:100C5000BC010E943805892BC1F08A819B818034B8
:100C6000910534F004979C0127703327232B31F032
:100C700082E080935D011092B80307C0B4E09595BF
:100C80008795BA95E1F78A5F01C080E0DF91CF9147
:100C900008951F93CF93DF931F92CDB7DEB7162F22
:100CA00083EA94E049830E94D3146CE470E083EA01
:100CB00094E00E940C15612F83EA94E00E94931443
:100CC0004981642F83EA94E00E94931483EA94E0BC
:100CD0000F90DF91CF911F910C942115462F67E063
:100CE0000C944906462F68E00C944906CF93DF9395
:100CF000EC0160E00E946E0660E0CE010E94720688
:100D000061E0CE01DF91CF910C946E064F925F921D
:100D10006F927F928F929F92AF92BF92CF92DF920B
:100D2000EF92FF920F931F93CF93DF9300D01F9208
:100D3000CDB7DEB75B016A01790180E48B838A83DA
:100D400089830E9499172B013C010DC00E949917BD
:100D50006419750986099709653F714081059105F8
:100D600014F080E06EC083EA94E00E940814181624
:100D7000190664F383EA94E00E94111443E050E002
:100D80006CE470E083EA94E00E94FF140E949917DB
:100D90002B013C018E010F5F1F4F48012DC0C80180
:100DA000881999090397D4F40E9499172B013C01E3
:100DB00011C083EA94E00E941114F80180830E941C
:100DC00099176419750986099709633371058105B7
:100DD00091053CF6F8018081803458F70E949917FC
:100DE0000F5F1F4F6419750986099709653F7140A8
:100DF000810591050CF0B5CF83EA94E00E940814B8
:100E0000892B69F69981892F880F880F95FD8D5F51
:100E100085958595F50180839A81892F880F880FA4
:100E200095FD8D5F85958595F60180839B81892F42
:100E3000880F880F95FD8D5F85958595F7018083D7
:100E400081E00F900F900F90DF91CF911F910F9144
:100E5000FF90EF90DF90CF90BF90AF909F908F90DA
:100E60007F906F905F904F900895CF93DF93EC0148
:100E7000862F6E834F83288791E09D8760E00E94D4
:100E8000891961E08E810E94C11919861A861B8614
:100E90001C86DF91CF910895DF92EF92FF920F931E
:100EA0001F93CF93DF93EC0161E08E810E94C11903
:100EB0006AEF70E080E090E00E94D5170E949917D9
:100EC00009851A852B853C85601771078207930772
:100ED00020F419861A861B861C862D85211111C0C7
:100EE00009851A852B853C85DC01CB01801B910B84
:100EF000A20BB30B803D9740A105B10510F481E032
:100F000073C01D860E94991769877A878B879C8793
:100F10001C821B821A821982188261E08E810E94D3
:100F2000891960E08E810E94C11964E170E080E05F
:100F300090E00E94D517F89461E08E810E94C1195B
:100F400088E290E00E94FB1760E08E810E94891980
:100F5000F12CD12C81E009C0E39481E090E00E9463
:100F6000FB178FEFE81204C009C0E12C082F10E036
:100F70008E810E94F8198017910771F38E810E946B
:100F8000F8199FEFE916C9F023E02F1590F4F0FC53
:100F900010C09D2D969596959695FE01E90FF11D31
:100FA0009081990F908328852E1510F4916090837D
:100FB000D394F39495E5F912D8CF789427E22D15C0
:100FC00090F42C8130E04881898190E0840F911D5C
:100FD0004A81840F911D4B81840F911D99272817F9
:100FE000390709F48CCF80E0DF91CF911F910F91E9
:100FF000FF90EF90DF900895EF92FF920F931F9371
:10100000CF93DF93EC010E944C07882391F18F81ED
:101010008B3029F070F18551823058F507C0688116
:1010200070E080E090E00E944B1D2DC0688170E070
:1010300080E090E00E944B1D20E030E040E853E467
:101040000E94D91D7B018C01698170E080E090E0F5
:101050000E944D1D9B01AC016E2D7F2D802F912F85
:101060000E944E1C20E030E040E251E40E94B21C9D
:101070000AC067E271E084E795E00E943E1C60E0F0
:1010800070E080EC9FE7DF91CF911F910F91FF906F
:10109000EF900895CF92DF92EF92FF920F931F93FC
:1010A000CF93DF938C01C62F0E944C07882309F44D
:1010B00077C0F80187818B3039F008F471C0855111
:1010C000823008F06DC01DC0F801628170E080E0E0
:1010D00090E00E944B1DB62FA72FF82FE92F462F27
:1010E000572F682F792FCB01BA01CC2309F462C0A6
:1010F00020E030E040E151E46B2F7A2F8F2F9E2FBC
:1011000037C0F801D2816D2F6F7770E080E090E0FA
:101110000E944D1D20E030E040E853E40E94D91DBC
:101120006B017C01F801638170E080E090E00E9437
:101130004D1D9B01AC016C2D7D2D8E2D9F2D0E9490
:101140004E1C20E030E040E251E40E94B21C472FE8
:10115000382F292F862F942FA32FB22FBC01CD011A
:10116000D7FD9058CC2331F120E030E040E151E44C
:101170000E94D91D20E030E040EA50E40E94B21CF9
:1011800020E030E040E052E40E944E1C472F382F10
:10119000292F862F942FA32FB22FBC01CD010AC077
:1011A00067E271E084E795E00E943E1C60E070E039
:1011B00080EC9FE7DF91CF911F910F91FF90EF900F
:1011C000DF90CF9008958091C8039091C903019654
:1011D0009093C9038093C80308958091250490914A
:1011E0002604019731F460911E0483EA94E00E9482
:1011F000931480912504909126048330910529F061
:101200008730910511F0C89741F443E050E069E060
:1012100074E083EA94E00E94651480912504909123
:1012200026048830910511F0449741F444E050E0E1
:1012300069E074E083EA94E00E94651480912504DB
:10124000909126048E31910511F0889741F449E080
:1012500050E069E074E083EA94E00E9465148091B4
:10126000250490912604459751F445E150E069E04A
:1012700074E083EA94E00E9465141092090480915E
:101280002504909126040A9751F444E050E069E067
:1012900074E083EA94E00E9465141092090480913E
:1012A0002504909126040B9751F442E050E06CEC39
:1012B00073E083EA94E00E9465141092CC0380915D
:1012C0002504909126040C9751F443E050E06DEB17
:1012D00073E083EA94E00E9465141092BD030895C0
:1012E000CF93DF9322C083EA94E00E94081404970E
:1012F00041F41092220410922104109224041092BE
:101300002304C0912304D091240483EA94E00E9432
:101310001114FE01EE0FFF1FEB5DFB4F91838083E5
:101320002196D0932404C093230483EA94E00E947E
:101330000814892BC1F6DF91CF91089564E070E025
:1013400083EA94E00E94F01460E779E083EA94E095
:101350000E9424156DEE78E083EA94E00C94291540
:101360004F925F926F927F92AF92BF92CF92DF9235
:10137000EF92FF920F931F93CF93DF93CDB7DEB71A
:101380002C970FB6F894DEBF0FBECDBF809123041B
:10139000909124040497A1F08091CA039091CB030B
:1013A000892B71F48091D0039091D103892B41F462
:1013B0008091C4039091C503892B11F40C9477128A
:1013C00081E090E090932204809321048091250491
:1013D000909126048631910549F46091270470911B
:1013E000280488E591E00E949604C5C485319105E2
:1013F00021F588E591E00E942506882309F4BBC405
:1014000064EF73E088E591E00E94510581E08093EC
:10141000090480E090E009C0FC01E75FFB4FDC01BC
:10142000AC50BC4F2C912183019684319105A4F3DB
:101430009093200480931F049EC48130910539F459
:10144000809127040E94F81980931E0494C482306E
:10145000910539F460912904809127040E94C119F3
:101460008AC483309105B1F4809127040E94211A27
:101470009093F3038093F2039C0197FF02C02150E5
:101480003F4F30930A0460E071E00E94AC1F8093EC
:101490000B0471C48430910549F460912904709162
:1014A0002A04809127040E94421A65C48530910560
:1014B00039F460912904809127040E9489195BC442
:1014C0008730910509F043C080912704909128044A
:1014D0008093BB039093BC0361E00E94891960E094
:1014E0008091BB030E94C11982E090E00E94FB172B
:1014F00061E08091BB030E94C11985E090E00E94E9
:10150000FB1760E08091BB030E94C11960E08091ED
:10151000BB030E94891920E432E44FE050E061E00F
:101520008091BB030E9440182AE330E040E050E085
:101530000E94E21FCA01B90120E031E040E050E022
:101540000E94E21F20930A0460930B0414C48830A5
:10155000910541F481E080930A0482E080930B04BA
:1015600084E022C08431910511F58091F10381114D
:1015700007C08FE994E00E94760681E08093F10332
:101580002FEE33E04EEE53E06DEE73E08FE994E022
:101590000E9486068091ED0380930A048091EE03F9
:1015A00080930B048091EF0380930C04E4C38E318D
:1015B000910571F58091F003811107C087E994E0EE
:1015C0000E94F50381E08093F00387E994E00E9494
:1015D000F9038091990480930A0480919804809380
:1015E0000B048091970480930C0480919C04809359
:1015F0000D0480919B0480930E0490919D04909320
:101600000F048093100480919A0480931104B3C353
:101610008832910509F05AC08091290490912A04DA
:10162000009719F426E04BE005C08130910549F49C
:1016300026E046E16091270489E894E00E9435079E
:1016400008C08230910519F426E045E1F3CF0397F5
:10165000D9F360E089E894E00E944A0869877A87B4
:101660008B879C8789E894E00E94FC076D837E83CA
:101670008F8398871092BA031092B903FE013996AE
:1016800080E090E001962191DC01A75FBB4F2C9395
:1016900084309105BCF384E090E09093BA0380938A
:1016A000B9030196DC01A75FBB4FE5E0F0E0EC0F6A
:1016B000FD1FE80FF91F359720812C938830910585
:1016C00084F39093BA038093B90355C38233910591
:1016D000E1F48091270490912804482F21E0609143
:1016E000290470912A04672B09F420E0642F6F5FAE
:1016F000FC01329737E03E9FC0013F9F900D1124BF
:10170000815A9B4F0E94FB0236C3C39709F01FC545
:1017100020912704309128042250310947E0429F4C
:10172000C001439F900D1124815A9B4F0E94ED03ED
:101730008111F4C40CC52091270430912804225053
:10174000310917E0129FC001139F900D1124815A97
:101750009B4F0E94ED03811102C580912504909159
:101760002604C59709F028C5209127043091280444
:101770002250310947E0429FC001439F900D112440
:10178000815A9B4F0E94ED038111FBC415C5209126
:101790002704309128042250310917E0129FC0011C
:1017A000139F900D1124815A9B4F0E94ED038111CC
:1017B0000AC51BC520912704309128042250310905
:1017C00017E0129FC001139F900D1124815A9B4F67
:1017D0000E94ED03811110C528C520912704309186
:1017E00028042250310917E0129FC001139F900D69
:1017F0001124815A9B4F0E94ED0381111DC530C5F4
:101800006091270470912804462F4F5F9B0122505E
:101810003109C901880F991F820F931F835B9B4F6A
:101820000E948A01A8C28734910509F034C520912D
:1018300027043091280422503109C901880F991FCB
:10184000820F931F835B9B4F0E94F402811111C58D
:1018500022C5209127043091280422503109C90162
:10186000880F991F820F931F835B9B4F0E94F40286
:10187000811119C531C520912704309128042250C7
:101880003109C901880F991F820F931F835B9B4FFA
:101890000E94F402811128C544C52091270430918B
:1018A000280422503109C901880F991F820F931F04
:1018B000835B9B4F0E94F40281113CC580912504FB
:1018C000909126048B34910509F058C52091270486
:1018D0003091280422503109C901880F991F820FC5
:1018E000931F835B9B4F0E94F402811135C546C54F
:1018F000209127043091280422503109C901880F12
:10190000991F820F931F835B9B4F0E94F4028111EA
:101910003EC5A0C5209127043091280422503109EA
:10192000C901880F991F820F931F835B9B4F0E94F1
:10193000F402811197C5A3C5812F0E94211ABC0111
:10194000209127043091280422503109C901880FC1
:10195000991F820F931FE12C00E024E040E0835B9D
:101960009B4F0E9472026AEF70E080E090E00E945C
:10197000D5172FEFC21AD20ACA14DB04ECF2FBC14E
:10198000209127043091280422503109C901880F81
:10199000991F820F931F835B9B4F0E94F40281115A
:1019A00076C57BC520912704309128042250310947
:1019B000C901880F991F820F931F835B9B4F0E9461
:1019C000F402811172C58AC5809127048093EA03CD
:1019D000809129048093EB0380912B048093EC0386
:1019E000CAC18B359105B1F4609127047091280428
:1019F000462F4F5F9B012250310955E0529FC00195
:101A0000539F900D112420912904815D9B4F0E94CA
:101A10005B13B1C18C35910509F048C06091270472
:101A200070912804462F4F5F9B012250310955E0E9
:101A3000529FC001539F900D112420912904815D74
:101A40009B4F0E945B1300912B0410912C0402FB0E
:101A5000DD24D0F8D19401FBCC24C0F8C1940170EE
:101A60001127102F1195E12CF12CF5E0BF2E16C097
:101A7000609127047091280462507109B69EC001DC
:101A8000B79E900D1124012F2C2D4D2D6E2D815DB3
:101A90009B4F0E94EE123FEFE31AF30A8091290454
:101AA00090912A04E816F9061CF365C18D3591055D
:101AB00009F075C02091290430912A0480912704EF
:101AC00090912804232BB1F49C012250310945E068
:101AD000429FC001439F900D11240091EC0320917F
:101AE000EB034091EA0360912B04815D9B4F0E94C0
:101AF000EE1241C19C012250310945E0429FC001D4
:101B0000439F900D1124815D9B4F0E948813E12C0F
:101B1000F12CC82ED12C15E03DC020912904309124
:101B20002A042130310541F480912B0490912C043A
:101B3000E816F906B1F42BC02230310541F480914A
:101B40002B0490912C048E159F055CF420C023304B
:101B50003105E9F480912B0490912C04E816F906E4
:101B6000B4F0209127043091280422503109129FAB
:101B7000C001139F900D11240091EC032091EB0301
:101B80004091EA036E2D815D9B4F0E94EE128FEF14
:101B9000E81AF80AEC14FD040CF4BFCFECC08E3543
:101BA000910509F052C080912B0490912C041816D5
:101BB000190634F081E090E090932C0480932B047C
:101BC00020912704309128042250310945E0429F9A
:101BD000C001439F900D1124815D9B4F0E9488138B
:101BE000E0902904F0902A04C82ED12C15E029C0D9
:101BF0008091290490912A049701281B390BC9016F
:101C000060912B0470912C040E94AC1F892BB1F4BD
:101C1000209127043091280422503109129FC001DD
:101C2000139F900D11240091EC032091EB03409140
:101C3000EA036E2D815D9B4F0E94EE123FEFE31A87
:101C4000F30AEC14FD04A4F296C08F35910509F057
:101C500083C020912704309128042250310945E0A7
:101C6000429FC001439F900D1124815D9B4F0E94B4
:101C7000881320912B0430912C04232B59F133C06D
:101C80008091290490912A042091270430912804FE
:101C900022503109E816F90664F4129FC001139F1F
:101CA000900D11240091EC032091EB034091EA0385
:101CB00008C0129FC001139F900D112400E020E086
:101CC00040E06E2D815D9B4F0E94EE128FEFE81A6F
:101CD000F80A05C0E12CF12CC82ED12C15E0EC142B
:101CE000FD0474F248C0C82ED12C760115E030C036
:101CF0008091290490912A049601281B390B809128
:101D0000270490912804E216F3067CF09C012250EF
:101D10003109129FC001139F900D11240091EC0313
:101D20002091EB034091EA030BC09C012250310942
:101D3000129FC001139F900D112400E020E040E0AD
:101D40006E2D815D9B4F0E94EE1221E0E21AF10898
:101D5000E114F10469F60FC00D9769F480E00E9468
:101D6000F51881E090E090930701809306011092AE
:101D700026041092250480912504909126040A9748
:101D800039F08091D0039091D103892B49F4F9C0A7
:101D900080912704909128049093D1038093D003DD
:101DA00020E432E44FE050E060E088E00E94401818
:101DB0006093E6037093E7038093E8039093E9034D
:101DC0000091DE031091DF032091E0033091E103E5
:101DD000060F171F281F391F0093DE031093DF0320
:101DE0002093E0033093E1030E949917C0900A0109
:101DF000D0900B01E0900C01F0900D010091E203F6
:101E00001091E3032091E4033091E503601B710B13
:101E1000820B930BC616D706E806F90608F0B1C088
:101E20006091DE037091DF038091E0039091E10304
:101E30000E944B1D2B013C01C701B6010E944B1DA6
:101E400020E030E040E251E40E94D91D9B01AC014A
:101E5000C301B2010E94B21C5B018C01862F9B2D35
:101E6000A02FB12F8093DA039093DB03A093DC03C0
:101E7000B093DD0320E030E040E450E46A2D7B2D98
:101E8000802F912F0E943C1E2DEC3CEC4CE85FE330
:101E90000E94D91D2B013C012A2D3B2D402F512F93
:101EA0006A2D7B2D802F912F0E94D91D23E333E3D0
:101EB00043E750E40E94D91D9B01AC01C301B2016C
:101EC0000E944D1C6B017C0120E030E042E054E4B4
:101ED0006A2D7B2D802F912F0E94D91D9B01AC0173
:101EE000C701B6010E944E1C22E538EB4EE15FE3CC
:101EF0000E944E1CFB01462F5F2F682F792F4093C5
:101F0000D6035093D7036093D8037093D9031092EC
:101F1000DE031092DF031092E0031092E10320E051
:101F200030E048EC52E4BF010E94D91D0E941A1D06
:101F300021E020930904C12CD12C7601D394A70170
:101F400096010E94E21F60930A042093D20330930B
:101F5000D3034093D4035093D503CA01B901A70119
:101F600096010E94E21F60930B0420930C040E94D0
:101F700099176093E2037093E3038093E4039093D3
:101F8000E50380912504909126040B9739F0809108
:101F9000CA039091CB03892B49F43EC0809127045A
:101FA000909128049093CB038093CA0380910801F9
:101FB00090910901892B41F080EA94E00E94A813D6
:101FC00010920901109208018091A104813021F53D
:101FD0002091A0048091CE039091CF03213051F441
:101FE0000196893191050CF40AC01092CF0310922A
:101FF000CE0309C0019797FF02C088E190E090935B
:10200000CF038093CE0381E08093CC038091CE03F5
:102010008093CD031092A104809125049091260411
:102020000C9739F08091C4039091C503892B49F432
:102030005EC280912704909128049093C5038093F9
:10204000C4038091060190910701892BE9F060E0BB
:1020500082E00E94891943E050E063EE78E080E07E
:102060000E94D5181092C9031092C8030E949917B4
:102070006093C0037093C1038093C2039093C30322
:1020800010920701109206010E9499170091C00357
:102090001091C1032091C2033091C303601B710BE7
:1020A000820B930B613D77408105910508F41FC2B7
:1020B0002091C8033091C9034EE1429FC001439F64
:1020C000900D112469E470E00E94AC1FE62F472FA9
:1020D0006093C6037093C70381E08093BD03862F8E
:1020E000972F60E071E00E94AC1F8093BE032E2FFB
:1020F000342F37FF02C021503F4F3093BF0310925F
:10210000C9031092C8030E9499176093C00370938B
:10211000C1038093C2039093C303E9C161E080913E
:10212000290490912A04892B09F460E02091270466
:10213000309128042250310947E0429FC001439F5B
:10214000900D1124815A9B4F0E94E30314CE80917D
:10215000250490912604C49709F0FFCAECCA209187
:1021600027043091280422503109129FC001139F87
:10217000900D112460912904815A9B4F0E94D10334
:10218000FACD41E080912B0490912C04892B09F425
:1021900040E020912704309128042250310957E073
:1021A000529FC001539F900D112460912904815AC0
:1021B0009B4F0E94B003DFCD8091250490912604AF
:1021C000C69799F4E4CA209127043091280422503C
:1021D0003109129FC001139F900D112460912904B1
:1021E000815A9B4F0E949703C6CD80912504909100
:1021F0002604C797D1F4DECA90912B0480E0609149
:10220000290470912A0468277927209127043091A6
:10221000280422503109129FC001139F900D1124F0
:10222000815A9B4F0E944E03A6CD80912504909128
:102230002604C897A9F4D1CA209127043091280414
:1022400022503109129FC001139F900D1124815A11
:102250009B4F0E94E90380930A0490930B048BCD5B
:1022600080912504909126048634910509F0DBCAFB
:10227000C7CA209127043091280422503109C9018E
:10228000880F991F820F931F60912904835B9B4FD6
:102290000E94A10170CD809125049091260488347C
:1022A0009105D1F4D6CA90912B0480E06091290465
:1022B00070912A04682779272091270430912804F7
:1022C00022503109C901880F991F820F931FE12CF9
:1022D00000E024E040E020C0809125049091260495
:1022E00089349105F1F4C7CA90912B0480E0609184
:1022F000290470912A0468277927209127043091B6
:10230000280422503109C901880F991F820F931F99
:10231000E12C00E024E041E0835B9B4F0E947202CD
:102320002ACD80912504909126048A34910509F0E4
:10233000C5CAB3CA2091270430912804225031091C
:10234000C901880F991F820F931F60912B04835B33
:102350009B4F0E94ED0202C080912B048983209143
:1023600027043091280422503109C901880F991F90
:10237000820F931F2091290441E0A8C08091250479
:10238000909126048C34910509F064C0B1CA809103
:10239000290490912A040AE010E0B8010E94AC1FC1
:1023A000209127043091280422503109C901880F57
:1023B000991F820F931F835B9B4F0E94ED028983BD
:1023C0008091290490912A04B8010E94AC1F2091A9
:1023D00027043091280422503109A901440F551FC8
:1023E000420F531F682FCA01835B9B4F0E94ED026F
:1023F00080688A8380912B0490912C04B8010E94FC
:10240000AC1F209127043091280422503109C901C2
:10241000880F991F820F931F835B9B4F0E94ED02D1
:102420008B8380912B0490912C04B8010E94AC1FE7
:10243000209127043091280422503109A901440F2A
:10244000551F420F531F682FCA01835B9B4F0E9489
:10245000ED0221C080912504909126048D349105D0
:1024600071F458CA10912904A0902B04B0902C0448
:10247000AA0CBB1CAA0CBB1CC12CD12C7DCA809100
:102480002504909126048E34910539F479CA8FEF92
:1024900089838A838B838C830CC0809125049091DF
:1024A00026048F349105D1F47DCA19821A821B82C9
:1024B0001C82209127043091280422503109C9013F
:1024C000880F991F820F931F20E044E0BE016F5FC9
:1024D0007F4F835B9B4F0E9428024DCC8091250447
:1024E000909126048A35910509F07BCA6DCA2C9615
:1024F0000FB6F894DEBF0FBECDBFDF91CF911F9115
:102500000F91FF90EF90DF90CF90BF90AF907F90B2
:102510006F905F904F900895CF93DF93EC0160E050
:1025200088810E94C11984E190E00E94FB1761E05C
:1025300088810E94C11984E190E0DF91CF910C94D1
:10254000FB170F931F93CF93DF93EC01062F18E037
:1025500007FF02C061E001C060E089810E94C119EB
:10256000CE010E948C12000F115091F7DF91CF9194
:102570001F910F910895EF92FF921F93CF93DF93D6
:1025800000D0CDB7DEB77C01162F27FF02C060EC6C
:1025900001C060EE26FF606147FF686046FF64602F
:1025A00017FF626016FF6160C70129834A830E949A
:1025B000A1122981622FC7010E94A1124A81642FB2
:1025C000C7010E94A112612FC7010F900F90DF91E8
:1025D000CF911F91FF90EF900C94A1127F928F9258
:1025E0009F92AF92BF92CF92DF92EF92FF920F93A2
:1025F0001F93CF93DF93EC01162F942E822E60E071
:102600000E94A11260E0CE010E94A11260E0CE0102
:102610000E94A11260E0CE010E94A11283E0189FE7
:102620007001112467018FEFC81AD80A570182E0A0
:10263000A80EB11C712C1FC071120FC0EB81FC8160
:10264000EE0DFF1D9082EB81FC81EC0DFD1D808263
:10265000EB81FC81EA0DFB1D0083EB81FC8183E0B3
:10266000789EE00DF11D1124228141816081CE010F
:102670000E94BB1273948A817816F0F260E0CE015A
:102680000E94A11260E0CE010E94A11260E0CE0182
:102690000E94A11260E0CE01DF91CF911F910F91B6
:1026A000FF90EF90DF90CF90BF90AF909F908F9072
:1026B0007F900C94A1120F931F93CF93DF93EC01A3
:1026C000862F688349832A8361E00E94891961E02B
:1026D00089810E9489198A8161E070E023E0829FEC
:1026E000C00111240E9424208B839C8310E008C029
:1026F00000E020E040E0612FCE010E94EE121F5F5B
:102700008A811817A8F3DF91CF911F910F91089537
:10271000FC0182810895CF93DF9382E00E94F81933
:10272000EC0183E00E94F8198C239D23019719F492
:1027300081E08093A204DF91CF91089584E080939B
:1027400068008BB381718BBB8CE080936D00089522
:1027500048EE53E060E070E082E591E00E945F01A6
:102760002FEF3FEFA9016BE873E182E591E00E9452
:102770006F01789408951F920F920FB60F92112453
:102780001F932F933F934F935F936F937F938F93F9
:102790009F93AF93BF93CF93DF93EF93FF931091EA
:1027A000A2041130E9F482E00E94F819EC0183E000
:1027B0000E94F8198C179D071CF41093A0040CC0FC
:1027C00082E00E94F819EC0183E00E94F819C81712
:1027D000D90734F41092A0041093A1041092A2041B
:1027E000FF91EF91DF91CF91BF91AF919F918F9129
:1027F0007F916F915F914F913F912F911F910F901A
:102800000FBE0F901F90189580EA94E00C949E13D1
:102810002091D70430E08091D804281B3109C901E8
:1028200008958091D8049091D704891750F4E82F27
:10283000F0E0E752FB4F208130E08F5F8093D804B7
:1028400002C02FEF3FEFC9010895E091D8048091B5
:10285000D704E81730F4F0E0E752FB4F208130E076
:1028600002C02FEF3FEFC90108950895E091AF0432
:10287000F091B0043097E1F03091D8042091D70462
:102880003217B0F040E009C0DC01A20FB31F5C9129
:10289000D901A752BB4F5C934F5F242F30E026171E
:1028A000370794F31092D8046093D704CB010994AE
:1028B0000895E091B104F091B204309729F010929C
:1028C000B5041092B40409940895CF92DF92EF9268
:1028D000FF920F931F93CF93DF937C01CB018A016B
:1028E0002091B304222391F0EB016B01C40ED51E9D
:1028F00009C06991D701ED91FC910190F081E02D23
:10290000C7010995CC15DD05A1F703C0642F0E940E
:10291000EC15C801DF91CF911F910F91FF90EF90BF
:10292000DF90CF900895CF93DF931F92CDB7DEB79E
:1029300069832091B3042223D1F02091B404203282
:1029400040F021E030E0FC013383228320E030E0DE
:1029500015C08091B504E82FF0E0EA54FB4F99814F
:1029600090838F5F8093B5048093B40405C061E0C9
:10297000CE0101960E94EC1521E030E0C9010F90D4
:10298000DF91CF910895FC011382128248EE53E04B
:1029900060E070E0448355836683778385E391E04C
:1029A0009183808308951092D8041092D7041092D6
:1029B000B5041092B4040C943215CF93DF93EC015C
:1029C000862F0E94501589E594E10E940A1686E33D
:1029D00094E10E940516CE01DF91CF910C94D3149F
:1029E0000C94DD14862F413208F040E269ED74E06A
:1029F0000E9454151092D8048093D704089521E0C2
:102A00000C94F21481E08093B3046093D604109286
:102A1000B5041092B40408950C9402150F93062F78
:102A200021E04091B40466EB74E08091D6040E94EA
:102A300099151092B5041092B4041092B3040F913A
:102A4000089561E00C940E157093B0046093AF0488
:102A500008957093B2046093B104089583EA94E0FA
:102A60000C94C3141092020581E08093000510922B
:102A7000FF0461E082E10E94C11961E083E10E94EC
:102A8000C119E9EBF0E080818E7F808380818D7FAA
:102A9000808388E48093B80085E48093BC00089527
:102AA000880F8093BA000895413208F03FC090919A
:102AB00002059111FCCF91E090930205209300054F
:102AC0002FEF2093F9041092FE04242F215020931D
:102AD000FD049093010590910105880F892B809347
:102AE00001058091FF04813041F41092FF04809130
:102AF00001058093BB0085EC01C085EE8093BC008E
:102B0000809102058130E1F38091FE04841710F476
:102B10004091FE0423E035E0FB01D90102C08D9114
:102B200081938A2F821B8417D0F301C040E0842F49
:102B300008950F93413208F046C09091020591111B
:102B4000FCCF92E090930205009300059FEF9093D5
:102B5000F9041092FE044093FD04FB0163E075E06C
:102B6000DB0102C091919D939A2F961B9417D0F38D
:102B70001092010590910105880F892B8093010522
:102B80008091FF04813041F41092FF04809101058F
:102B90008093BB0085EC01C085EE8093BC002223AE
:102BA00021F0809102058230E1F38091F9048F3F9A
:102BB00061F08091F904803251F08091F904803302
:102BC00041F483E007C081E005C080E003C082E0FB
:102BD00001C084E00F910895613298F420910205BC
:102BE000243089F46093FB04FC0183E295E0DC016E
:102BF00002C021912D932A2F281B2617D0F380E0A5
:102C0000089581E0089582E00895909344058093AB
:102C1000430508959093460580934505089585EDF5
:102C20008093BC008091BC0084FDFCCF1092020513
:102C3000089585EC8093BC001092020508951F92C0
:102C40000F920FB60F9211242F933F934F935F93E0
:102C50006F937F938F939F93AF93BF93EF93FF9364
:102C60008091B900887F803609F49FC058F588327A
:102C700009F45BC090F4803109F452C038F4882321
:102C800009F4F8C0883009F0F9C04AC0883109F465
:102C90004CC0803209F0F2C05CC0803409F46BC0D3
:102CA00038F4803309F455C0883309F0E7C054C0C4
:102CB000803509F454C0883509F462C0883409F0BD
:102CC000DDC0DAC0883909F4CBC0A8F4883709F42C
:102CD0006CC038F4883609F468C0803709F0CEC07B
:102CE00064C0883809F4BCC0803909F464C08038F5
:102CF00009F0C4C060C0803B09F48AC038F4803A4F
:102D000009F46BC0883A09F0B9C082C0803C09F46C
:102D1000ABC0883C09F4A8C0883B09F0AFC08DC0A7
:102D2000809101058093BB0012C09091FE048091B8
:102D3000FD04981788F58091FE04E82FF0E0ED5F20
:102D4000FA4F90819093BB008F5F8093FE0485ECD7
:102D500088C08093F90490C08093F90456C0809194
:102D6000FE049091BB00E82FF0E0ED5FFA4F9083F6
:102D70008F5F8093FE049091FE048091FD046DC0EE
:102D80008091FE049091BB00E82FF0E0ED5FFA4FD8
:102D900090838F5F8093FE048091000581116CC049
:102DA00081E08093FF0484EA60C083E080930205A1
:102DB0001092FA04CCCF8091FA04803208F050C00F
:102DC0008091FA049091BB00E82FF0E0E95BFA4FA4
:102DD00090838F5F8093FA04BACF8091FA04803297
:102DE00030F4E091FA04F0E0E95BFA4F10820E94BF
:102DF0000F166091FA04E0914305F091440570E0EC
:102E000087E495E009951092FA040E94191636C0DD
:102E100084E0809302051092FC041092FB04E09180
:102E20004505F091460509958091FB04811105C087
:102E300081E08093FB04109223058091FC04E82F2D
:102E4000F0E0ED5DFA4F90819093BB008F5F80932F
:102E5000FC049091FC048091FB04981708F477CF50
:102E600085E88093BC000AC085EC8093BC0010927A
:102E7000020504C01092F9040E940F16FF91EF9111
:102E8000BF91AF919F918F917F916F915F914F9182
:102E90003F912F910F900FBE0F901F9018951F928A
:102EA0000F920FB60F9211242F933F938F939F93FE
:102EB000AF93BF938091670590916805A0916905D4
:102EC000B0916A0530916F05232F2D5F2D3720F4C7
:102ED0000196A11DB11D05C0232F2A570296A11DE1
:102EE000B11D20936F058093670590936805A093AB
:102EF0006905B0936A0580916B0590916C05A0916E
:102F00006D05B0916E050196A11DB11D80936B05F5
:102F100090936C05A0936D05B0936E05BF91AF9132
:102F20009F918F913F912F910F900FBE0F901F9007
:102F300018950F931F938FB7F89400916705109120
:102F400068052091690530916A058FBFB801C901F4
:102F50001F910F9108950F931F939FB7F8940091BD
:102F60006B0510916C0520916D0530916E0586B54D
:102F7000A89B06C08F3F21F00F5F1F4F2F4F3F4F81
:102F80009FBF322F212F102F0027080F111D211D49
:102F9000311D42E0000F111F221F331F4A95D1F748
:102FA000B801C9011F910F910895CF92DF92EF925E
:102FB000FF92CF93DF936B017C010E94AB17EB0173
:102FC0000EC00E94AB176C1B7D0B683E734038F03F
:102FD00081E0C81AD108E108F108C851DC4FC114DA
:102FE000D104E104F10469F7DF91CF91FF90EF90F4
:102FF000DF90CF900895019739F0880F991F880FBF
:10300000991F02970197F1F70895789484B582602B
:1030100084BD84B5816084BD85B5826085BD85B57C
:10302000816085BDEEE6F0E0808181608083E1E82B
:10303000F0E0108280818260808380818160808363
:10304000E0E8F0E0808181608083E1EBF0E0808166
:1030500084608083E0EBF0E0808181608083EAE738
:10306000F0E08081846080838081826080838081C1
:10307000816080838081806880831092C100089580
:103080008F929F92AF92BF92CF92DF92EF92FF9278
:103090000F931F93CF93DF9390E0FC01E250FF4F1B
:1030A000D491FC01EE5EFE4F7491611102C0C0E04C
:1030B00001C0CD2FDA01C901BF70672F70E0660F24
:1030C000771F6A5D7E4F812C912C5401FB01059185
:1030D000149110C0C12CD12C7601C394C80CD91CFA
:1030E000EA1CFB1C88169906AA06BB0609F44BC00D
:1030F00046015701F801E081ED23EC1759F310C0A8
:10310000C12CD12C7601C394C80CD91CEA1CFB1C21
:1031100088169906AA06BB06B1F14601570103C0FD
:10312000FB0105911491F801E081ED23EC13E8CF48
:1031300088199909AA09BB0920E030E0A901FB011F
:103140006591749109C0281739074A075B07D9F0C0
:103150002F5F3F4F4F4F5F4FFB01E081ED23EC1797
:1031600091F3A5E1B0E00E94A11F8B019C01005FDB
:103170001F4F2F4F3F4F84E03695279517950795A2
:103180008A95D1F703C000E010E09801B801C901A9
:10319000DF91CF911F910F91FF90EF90DF90CF9033
:1031A000BF90AF909F908F9008958230E8F4E82F01
:1031B000F0E0EE0FFF1FE059FA4F7183608381301A
:1031C00041F0809169008C7F842B80936900E89A9C
:1031D000089580916900440F551F440F551F837F48
:1031E000842B80936900E99A0895823068F48130D5
:1031F00011F0E89801C0E998E82FF0E0EE0FFF1F0A
:10320000E059FA4F1182108208951F920F920FB663
:103210000F9211242F933F934F935F936F937F935C
:103220008F939F93AF93BF93EF93FF93809170051C
:1032300090917105892B29F0E0917005F09171054D
:103240000995FF91EF91BF91AF919F918F917F91E0
:103250006F915F914F913F912F910F900FBE0F9003
:103260001F9018951F920F920FB60F9211242F9353
:103270003F934F935F936F937F938F939F93AF93FE
:10328000BF93EF93FF938091720590917305892B03
:1032900029F0E0917205F09173050995FF91EF9186
:1032A000BF91AF919F918F917F916F915F914F915E
:1032B0003F912F910F900FBE0F901F901895833064
:1032C00069F028F48130A1F0823011F514C0863005
:1032D000B1F08730C1F08430D9F404C0809180000F
:1032E0008F7703C0809180008F7D80938000089548
:1032F00084B58F7702C084B58F7D84BD0895809199
:10330000B0008F7703C08091B0008F7D8093B000B4
:103310000895CF93DF9390E0FC01E250FF4F44917A
:10332000FC01EE5EFE4F8491882341F190E0880F0E
:10333000991FFC01E65CFE4F25913491D901805D17
:103340009E4FFC0185919491C82FD92F9FB7F89477
:103350008C91611106C0409584238C9388818423CD
:1033600008C0623041F4242F209582238C938881F9
:10337000842B888302C0842B8C939FBFDF91CF91D5
:1033800008950F931F93CF93DF931F92CDB7DEB7AE
:10339000282F30E0F901E651FF4F8491F901E25006
:1033A000FF4F1491F901EE5EFE4F04910023D1F01E
:1033B000882321F069830E945F196981E02FF0E082
:1033C000EE0FFF1FE05DFE4F85919491DC019FB7EA
:1033D000F8948C91611103C01095812301C0812B59
:1033E0008C939FBF0F90DF91CF911F910F91089504
:1033F000CF93DF93282F30E0F901E651FF4F8491FE
:10340000F901E250FF4FD491F901EE5EFE4FC491F5
:10341000CC2389F081110E945F19EC2FF0E0EE0FB0
:10342000FF1FEA5DFE4F85919491DC018C918D2305
:1034300021E030E011F420E030E0C901DF91CF91CC
:1034400008958E3008F08E50877020910E0140E470
:10345000249F90011124822B80937C0080917A001C
:10346000806480937A0080917A0086FDFCCF209161
:10347000780030917900932F80E0AC01422B9A01C3
:10348000C90108951F93CF93DF93182FEB0161E0DB
:103490000E948919209711F460E004C0CF3FD10544
:1034A00039F461E0812FDF91CF911F910C94C11904
:1034B000E12FF0E0E651FF4FE491E330B9F028F45A
:1034C000E13051F0E230B1F50CC0E63019F1E730EF
:1034D00049F1E43079F514C084B5806884BDC7BD76
:1034E0002EC084B5806284BDC8BD29C08091800093
:1034F000806880938000D0938900C09388001FC0AB
:1035000080918000806280938000D0938B00C09374
:103510008A0015C08091B00080688093B000C0938D
:10352000B3000DC08091B00080628093B000C09362
:10353000B40005C0C038D1050CF0B3CFADCFDF91DA
:10354000CF911F910895FC0184859585FC01E05C75
:10355000FF4F20813181FC01EE5BFF4F8081918123
:10356000281B390B2F733327C9010895FC0184856B
:103570009585FC01E05CFF4F40815181FC01EE5BD1
:10358000FF4F208131814217530741F00190F081B4
:10359000E02DE80FF91F208130E002C02FEF3FEF50
:1035A000C9010895FC0184859585FC01E05CFF4F0D
:1035B00040815181FC01EE5BFF4F20813181421738
:1035C000530781F0A081B181A80FB91F8C91208190
:1035D00031812F5F3F4F2F73332731832083282F73
:1035E00030E002C02FEF3FEFC9010895FC0186854E
:1035F0009785FC01E05CFF4FDC01AE5BBF4F408173
:1036000051812D913C91119742175307C1F70895AD
:10361000CF93DF93FC0186859785DC01A05CBF4FCB
:103620002D913C9111972F5F3F4F2F733327EC0162
:10363000CE5BDF4F4881598124173507D9F30D90B0
:10364000BC91A02DA80FB91F6C93A685B785A05C6F
:10365000BF4F11963C932E93A689B7892C9181E098
:1036600090E0058C02C0880F991F0A94E2F7282B7E
:103670002C9381E090E0DF91CF91089508951F92FF
:103680000F920FB60F9211242F933F934F938F9366
:103690009F93EF93FF934091C600809117069091FE
:1036A000180601968F7399272091190630911A06F2
:1036B0008217930759F0E0911706F0911806E95226
:1036C000FA4F40839093180680931706FF91EF916D
:1036D0009F918F914F913F912F910F900FBE0F901F
:1036E0001F90189584E795E00E94A31A892B11F08A
:1036F0000C943E1B08951F920F920FB60F92112447
:103700002F933F938F939F93EF93FF932091D30534
:103710003091D4058091D5059091D60528173907A9
:1037200031F48091C1008F7D8093C10014C0E0917D
:10373000D505F091D605ED56FA4F20818091D5053B
:103740009091D60501968F7399279093D605809313
:10375000D5052093C600FF91EF919F918F913F91E6
:103760002F910F900FBE0F901F9018951092770514
:103770001092760588EE93E0A0E0B0E080937805A3
:1037800090937905A0937A05B0937B0585E491E049
:10379000909375058093740587ED95E0909381056E
:1037A0008093800583E995E090938305809382055B
:1037B00085EC90E0909385058093840584EC90E0FF
:1037C000909387058093860580EC90E0909389051F
:1037D0008093880581EC90E090938B0580938A0517
:1037E00086EC90E090938D0580938C0584E0809327
:1037F0008E0583E080938F0587E08093900585E0B8
:103800008093910581E0809392050895CF92DF9295
:10381000EF92FF920F931F93CF93DF936C01EB0115
:103820007A01E60EF71E00E010E00BC06991D601A8
:10383000ED91FC910190F081E02DC6010995080FF2
:10384000191FCE15DF0591F7C801DF91CF911F91A8
:103850000F91FF90EF90DF90CF900895DB010D90D6
:103860000020E9F7AD0141505109461B570BDC011F
:10387000ED91FC910280F381E02D09940C942E1CB3
:103880000E9405180E949E09C2E7DBE10E94B00970
:103890002097E1F30E94721BF9CF5058BB27AA274B
:1038A0000ED04DC13ED130F043D120F031F49F3FD6
:1038B00011F41EF433C10EF4E095E7FB29C1E92FA2
:1038C0004FD180F3BA17620773078407950718F082
:1038D00071F49EF567C10EF4E0950B2EBA2FA02D62
:1038E0000B01B90190010C01CA01A0011124FF27AD
:1038F000591B99F0593F50F4503E68F11A16F040A8
:10390000A22F232F342F4427585FF3CF46953795A6
:103910002795A795F0405395C9F77EF41F16BA0B6B
:10392000620B730B840BBAF09150A1F0FF0FBB1F19
:10393000661F771F881FC2F70EC0BA0F621F731F62
:10394000841F48F4879577956795B795F7959E3FBF
:1039500008F0B3CF9395880F08F09927EE0F97954D
:10396000879508950CD0EBC0E3D040F0DAD030F06A
:1039700021F45F3F19F0CCC0511115C1CFC0F0D078
:1039800098F39923C9F35523B1F3951B550BBB2726
:10399000AA2762177307840738F09F5F5F4F220FD3
:1039A000331F441FAA1FA9F333D00E2E3AF0E0E8CC
:1039B00030D091505040E695001CCAF729D0FE2F18
:1039C00027D0660F771F881FBB1F261737074807AA
:1039D000AB07B0E809F0BB0B802DBF01FF27935860
:1039E0005F4F2AF09E3F510568F092C0DCC05F3FF8
:1039F000ECF3983EDCF3869577956795B795F79548
:103A00009F5FC9F7880F911D9695879597F908953F
:103A1000E1E0660F771F881FBB1F621773078407DB
:103A2000BA0720F0621B730B840BBA0BEE1F88F7EA
:103A3000E095089504D06894B111B5C0089598D068
:103A400088F09F5790F0B92F9927B751A0F0D1F087
:103A5000660F771F881F991F1AF0BA95C9F712C011
:103A6000B13081F09FD0B1E008959CC0672F782FCE
:103A70008827B85F39F0B93FCCF38695779567957D
:103A8000B395D9F73EF490958095709561957F4FE9
:103A90008F4F9F4F0895E89409C097FB3EF490958F
:103AA0008095709561957F4F8F4F9F4F9923A9F017
:103AB000F92F96E9BB279395F695879577956795A6
:103AC000B795F111F8CFFAF4BB0F11F460FF1BC0EA
:103AD0006F5F7F4F8F4F9F4F16C0882311F096E97D
:103AE00011C0772321F09EE8872F762F05C066232B
:103AF00071F096E8862F70E060E02AF09A95660FE4
:103B0000771F881FDAF7880F9695879597F908959C
:103B100097F99F6780E870E060E008959FEF80EC80
:103B2000089500240A941616170618060906089523
:103B300000240A9412161306140605060895092E89
:103B40000394000C11F4882352F0BB0F40F4BF2BF8
:103B500011F460FF04C06F5F7F4F8F4F9F4F089538
:103B600057FD9058440F551F59F05F3F71F047952E
:103B7000880F97FB991F61F09F3F79F08795089513
:103B8000121613061406551FF2CF4695F1DF08C032
:103B9000161617061806991FF1CF8695710561054F
:103BA00008940895E894BB2766277727CB0197F9F7
:103BB00008950BD0C4CFB5DF28F0BADF18F09523F5
:103BC00009F0A6CFABCF1124EECFCADFA0F3959FAB
:103BD000D1F3950F50E0551F629FF001729FBB27F4
:103BE000F00DB11D639FAA27F00DB11DAA1F649FA0
:103BF0006627B00DA11D661F829F2227B00DA11D53
:103C0000621F739FB00DA11D621F839FA00D611DD8
:103C1000221F749F3327A00D611D231F849F600DF9
:103C2000211D822F762F6A2F11249F5750408AF032
:103C3000E1F088234AF0EE0FFF1FBB1F661F771FBE
:103C4000881F91505040A9F79E3F510570F060CFFA
:103C5000AACF5F3FECF3983EDCF3869577956795A6
:103C6000B795F795E7959F5FC1F7FE2B880F911DDC
:103C70009695879597F90895FA01EE0FFF1F3096F4
:103C80002105310599F16115710561F48038BFE3B3
:103C90009B0749F168949038810561F08038BFEF47
:103CA0009B0741F0992342F5FF3FE10531052105CE
:103CB00011F1E8940894E795D901AA2329F4AB2FD0
:103CC000BE2FF85FD0F310C0FF5F70F4A695E0F749
:103CD000F73950F019F0FF3A38F49F779F930CD0E2
:103CE0000F9007FC905808953EF018CF60E070E008
:103CF00080E89FE308954FE79F775F934F933F934B
:103D00002F939ED02F913F914F915F9152DF05C02D
:103D100019F40EF0FDCE46CF01CF2ADFC8F3963856
:103D2000C0F707F80F92E8942BE33AEA48EB5FE715
:103D30004EDF0F920F920F924DB75EB70F92C0D029
:103D4000E8E6F0E016D04F915F91EF91FF91E59595
:103D5000EE1FFF1F49F0FE57E0684427EE0F441F97
:103D6000FA95E1F74195550B32D00F9007FE26C02A
:103D70000895DF93CF931F930F93FF92EF92DF92FB
:103D80007B018C01689405C0DA2EEF011EDFFE0175
:103D9000E894A5912591359145915591AEF3EF01A8
:103DA0008EDDFE019701A801DA9479F7DF90EF909C
:103DB000FF900F911F91CF91DF9108959B01AC016E
:103DC00060E070E080E89FE3CDCDA2CEACC0D0DE55
:103DD000E8F39923D9F3940F511DBBF39150504050
:103DE00094F059F0882332F0660F771F881F9150A6
:103DF0005040C1F79E3F510544F7880F911D96959D
:103E0000879597F908955F3FACF0983E9CF0BB27EB
:103E1000869577956795B79508F4B1609395C1F746
:103E2000BB0F58F711F460FFE8CF6F5F7F4F8F4FE4
:103E30009F4FE3CFB8CE0EF076C070CE689468CEB8
:103E400097DEC8F39923D1F3C6F3DF93CF931F9383
:103E50000F93FF92C92FDD2788232AF02197660F41
:103E6000771F881FDAF720E030E040E85FEB9FE340
:103E7000883920F0803E30F021968F770FDDE0E921
:103E8000F0E003C00BDDEDEBF0E073DF8B01BE0172
:103E9000EC01FB2E6F5771097595771F880B990BF5
:103EA000FCDD28E132E741E35FE38FDEAF2D9801CF
:103EB000AE01FF900F911F91CF91DF9100DD3FCEBA
:103EC000FA01DC01AA0FBB1F9B01AC01BF5728F40C
:103ED00022273327442750781FC0B75188F4AB2FCF
:103EE0000024469537952795011CA395D2F3002011
:103EF00069F0220F331F441FB395DAF30DD0CDCCF8
:103F000061307105A0E88A07B94630F49B01AC0125
:103F10006627772788279078309621F02083318391
:103F20004283538308959F3F31F0915020F4879549
:103F300077956795B795880F911D9695879597F911
:103F400008950E94FE1FA59F900DB49F900DA49F01
:103F5000800D911D1124089597FB072E16F40094EF
:103F600007D077FD09D00E940A2007FC05D03EF457
:103F7000909581959F4F0895709561957F4F089515
:103F8000A1E21A2EAA1BBB1BFD010DC0AA1FBB1F5D
:103F9000EE1FFF1FA217B307E407F50720F0A21BCF
:103FA000B30BE40BF50B661F771F881F991F1A943C
:103FB00069F760957095809590959B01AC01BD0166
:103FC000CF010895052E97FB16F4009407D057FDF6
:103FD0000DD00E94C01F07FC09D07EF490958095FB
:103FE000709561957F4F8F4F9F4F089550954095E5
:103FF000309521953F4F4F4F5F4F0895A29FB001DD
:10400000B39FC001A39F01D0B29F700D811D1124E9
:10401000911D0895AA1BBB1B51E107C0AA1FBB1F1E
:10402000A617B70710F0A61BB70B881F991F5A9544
:10403000A9F780959095BC01CD010895EE0FFF1F63
:104040000590F491E02D09940F931F93CF93DF9384
:10405000689F8001699F100D789F100D1124C80181
:104060000E944220C82FD92F209731F0A80160E08C
:1040700070E08C2F0E947921CE01DF91CF911F91AA
:104080000F9108950F931F93CF93DF938230910583
:1040900010F482E090E0E0911D06F0911E0620E011
:1040A00030E0C0E0D0E023C040815181481759077B
:1040B000A8F04817590761F482819381209719F07D
:1040C0009B838A832EC090931E0680931D0629C071
:1040D0002115310529F04217530710F0A90102C03C
:1040E000BE01DF0102811381EF019A01F8013097CF
:1040F000D9F62115310509F1281B390B243031057A
:1041000090F412968D919C9113976115710521F091
:10411000FB019383828304C090931E0680931D0647
:10412000FD01329644C0FD01E20FF31F819391938C
:10413000225031092D933C933AC020911B063091B7
:104140001C06232B41F4209102013091030130938E
:104150001C0620931B0620910001309101012115BE
:10416000310541F42DB73EB740910401509105014E
:10417000241B350BE0911B06F0911C06E217F30798
:10418000A0F42E1B3F0B2817390778F0AC014E5FC7
:104190005F4F2417350748F04E0F5F1F50931C06E2
:1041A00040931B068193919302C0E0E0F0E0CF01C1
:1041B000DF91CF911F910F910895EF92FF920F938E
:1041C0001F93CF93DF93009709F48EC0DC01129701
:1041D00013961C921E921297E0901D06F0901E06F8
:1041E000E114F10489F42D913C911197280F391FA6
:1041F00080911B0690911C068217930789F5B09356
:104200001C06A0931B0670C0E70120E030E001C04F
:10421000EA01CA17DB0738F44A815B819E01411528
:104220005105B1F722C0AC0142505109FA01D383C4
:10423000C28300811181BC01600F711F6C177D0763
:1042400061F468817981600F711F6E5F7F4F7183A8
:1042500060836A817B81738362832115310529F430
:10426000B0931E06A0931D063FC0F901B383A2833D
:10427000E90149915991C40FD51FAC17BD0771F4DD
:10428000DC019E918E91840F951F0296918380830D
:1042900012968D919C91139793838283A0E0B0E056
:1042A00002C0D7017C01F701828193810097C9F791
:1042B000C701029620813181820F931F20911B0636
:1042C00030911C062817390779F4109729F41092B9
:1042D0001E0610921D0604C013961C921E92129781
:1042E000F0921C06E0921B06CDB7DEB7E6E00C9418
:1042F0008C21DC0101C06D9341505040E0F70895DE
:104300002A88398848885F846E847D848C849B8465
:10431000AA84B984C884DF80EE80FD800C811B8173
:10432000AA81B981CE0FD11D0FB6F894DEBF0FBEA2
:0A433000CDBFED010895F894FFCF12
:10433A0000001F0620000100010030750000010185
:10434A00000A006400E8033F065B4F666D7D077F45
:10435A006F777C395E797152656164206661696C38
:10436A000000000000931465140814111425143574
:10437A001400000000081B061CA31AD21AB61AF66B
:02438A001A0017
:00000001FF
