:100000000C9462000C948A000C948A000C94220FC9
:100010000C94780E0C94CE0D0C948A000C94A715B9
:100020000C948A000C948A000C948A000C948A0028
:100030000C948A000C943D150C948A000C948A0050
:100040000C94B9130C948A000C9429140C94031486
:100050000C948A000C948A000C948A000C948A00F8
:100060000C94CC0F0C948A000000000024002700A0
:100070002A0000000000250028002B0000000000DE
:1000800023002600290004040404040404040202DA
:100090000202020203030303030301020408102007
:1000A0004080010204081020010204081020000012
:1000B0000008000201000003040700000000000027
:1000C00000005C2111241FBECFEFD8E0DEBFCDBF02
:1000D00011E0A0E0B1E0ECEFFCE402C005900D926D
:1000E000A035B107D9F725E0A0E5B1E001C01D9228
:1000F000AF3EB207E1F710E0C2E6D0E004C02197BE
:10010000FE010E94E522C136D107C9F70E94EA1F0D
:100110000C947C260C9400008F929F92AF92BF9219
:10012000CF92DF92EF92FF920F931F93CF93DF93C3
:1001300000D000D0CDB7DEB78091B8059091B90559
:10014000049739F48091BA059091BB05892B09F485
:10015000DFC18091E605863009F07CC08091B6054C
:100160009091B705019711F00C94AE0A8091E705C4
:100170008F70F82E8091E70590E054E09595879573
:100180005A95E1F7282F2370E22ED090E705809151
:10019000E8052091E90590E0982F88275C01A20EE0
:1001A000B11C0F2D10E0C801855E9D4F4C01FC0174
:1001B0008081882319F08F2D0E94FA1062E08F2D24
:1001C0000E94071381E0F4018083F801E057FD4F9E
:1001D000E082C501A0E0B0E0F80143E0EE0FFF1FB0
:1001E0004A95E1F7ED52FE4F80839183A283B3835A
:1001F0001482158216821782E1100AC02D2D2295D5
:10020000269526952370A8014E535C4F01E01CC033
:10021000F1E0EF1277C18CE0809FF001819FF00D3B
:100220001124EC5DFD4F1082118212821382148220
:100230001582168217821086118612861386A801EF
:100240004E535C4F00E021E06DED7BE08F2D0E946E
:10025000040D58C18091E605893059F48091B605A6
:100260009091B705019711F00C94AE0A8091E705C3
:1002700047C18091E6058A3051F58091B60590918D
:10028000B705019711F00C94AE0AE091E70524E060
:10029000E29FF0011124E155FE4F80819181A281FE
:1002A000B3812091E6052093D1058093D205492F93
:1002B0005A2F6B2F77274093D305AD0166277727F9
:1002C0004093D4058B2F9927AA27BB27FFC0809185
:1002D000E6058B30D1F48091B6059091B705019772
:1002E00011F00C94AE0A00E010E0F801E55EFD4F5D
:1002F0008081882319F0802F0E94FA100F5F1F4F12
:100300000930110591F70C94AE0A8091E6058C3006
:10031000E1F58091B6059091B705019711F00C9425
:10032000AE0A2091E7052A30F0F080E090E040E04E
:1003300050E0FC01E55EFD4F208130E0082E02C058
:10034000220F331F0A94E2F7420F531F01968930A0
:10035000910579F78091E6058093D1054093D20508
:100360005093D305CFC08091E6058093D1051092BC
:10037000D205E22FF0E0E55EFD4F808101C0880FDD
:100380002A95EAF78093D305BDC08091E6058E30AB
:1003900009F053C08091B6059091B705019711F00F
:1003A0000C94AE0A1091E7059090E805183008F01B
:1003B000A9C0C12ED12CC601855E9D4F5C01FC01F8
:1003C000808101E0010F882331F0812F0E94FA1013
:1003D000802F0E94FA1027E02C9DC0012D9D900DCA
:1003E00011249C012A583A4F7901F90110830183A5
:1003F00012821382148215829682808162E00E94AA
:100400000713F701818162E00E940713F601E45EA1
:10041000FD4F81E08083F5018083F701808100E05A
:1004200022E0A7016DE77BE00E94040DF7018181C6
:1004300022E0A7016DE77BE00ACF8091E6058D30D1
:1004400009F047C08091B6059091B705019711F06A
:100450000C94AE0AE091E70527E0E29FF001112439
:10046000EA58FA4F82809380A480B5806401092CF9
:10047000000CEE08FF08F7FE0EC06DE28BEF93E074
:100480000E943E1266277727CB016C197D098E09E1
:100490009F094AE003C04AE0C701B6010E94BF17A6
:1004A0008DE491E00E94AD178091E6058093D1051F
:1004B0008092D205892D99278093D305990F880BB7
:1004C000982F8093D405990F880B982F8093D5058A
:1004D00019C08091E6058F3011F00C94AE0A80911E
:1004E000B6059091B705019711F00C94AE0A1091E2
:1004F000E705183038F4812F0E94FA1081E0810F4F
:100500000E94FA101092B7051092B6050C94AE0A2C
:1005100081E090E09093BB058093BA058091E60559
:10052000813049F48091E6058093D1058091E705FB
:100530000E94AF129DC28091E605823029F460913D
:10054000E8058091E7052CC08091E6058330A1F491
:100550008091E7050E9443132091E6052093D10581
:100560009C0197FF02C021503F4F3093D20560E0BD
:1005700071E00E943A2238C48091E605843009F087
:100580005EC00091E805E02EF12C1091E70561E0D6
:10059000812F0E940713E114F10429F460E0812FF8
:1005A0000E94D812DBC72FEFE216F10409F445C010
:1005B000E12FF0E0E255FF4FE491E330F9F048F429
:1005C000E130B9F0E230A1F584B5806284BD08BDA8
:1005D000C5C7E730E9F0E83019F1E43049F580911A
:1005E0008000806280938000F0928B00E0928A000D
:1005F000B5C784B5806884BD07BDB0C78091800051
:10060000806880938000F0928900E0928800A6C7FD
:100610008091B00080688093B0000093B3009EC7C3
:100620008091B00080628093B0000093B40096C7C0
:1006300030E8E316F1040CF4B1CF61E0B0CF809163
:10064000E605853029F46091E8058091E705E6C16B
:100650008091E605873009F065C0F090E7050F2D21
:1006600010E01093AE010093AD0161E08F2D0E9468
:10067000071360E08F2D0E94D81283E090E001976D
:10068000F1F761E08F2D0E94D8128FE090E0019782
:10069000F1F760E08F2D0E94D81260E08F2D0E944C
:1006A0000713F801E656FF4F6491F801EA57FF4F30
:1006B000E491F0E0EE0FFF1FE458FF4F8591949115
:1006C00008EF14E221E030E0462F0E94DE186115A9
:1006D00071058105910551F0DC01CB010196A11D49
:1006E000B11D6C017D01EFE0FE2203C0C12CD12CB5
:1006F00076018091E6058093D105C701B60120E01F
:100700003AE340E050E00E9470222093D205C701F6
:10071000B6012AE330E040E050E00E9470222093CE
:10072000D3051CC78091E605883069F48091E60501
:100730008093D10581E08093D20584E08093D30536
:100740001092D4050BC78091E605883209F031C1BB
:100750008091B6059091B705892B09F4FFC6809169
:10076000E805811104C08091E7056BE013C080911A
:10077000E805813021F48091E70566E10BC08091A6
:10078000E805823021F08091E805833029F48091DA
:10079000E70565E10E94361761E08091EB030E9456
:1007A000D8126AEF70E080E090E00E947F132FB7CC
:1007B000F8948091CC039091CD03A091CE03B09199
:1007C000CF032FBF4091EE035091EF036091F003F0
:1007D0007091F10384179507A607B70740F41092AC
:1007E000EE031092EF031092F0031092F1032091A8
:1007F000F203211112C04091EE035091EF0360917A
:10080000F0037091F103841B950BA60BB70B803D91
:100810009740A105B10508F489C01092F2032FB7E3
:10082000F8948091CC039091CD03A091CE03B09128
:10083000CF032FBF8093EE039093EF03A093F003B9
:10084000B093F1031092E9031092E8031092E703CA
:100850001092E6031092E50361E08091EB030E94A1
:10086000071360E08091EB030E94D81264E170E00E
:1008700080E090E00E947F13F89461E08091EB03A8
:100880000E94D8128BE990E00197F1F760E0809127
:10089000EB030E940713F12C81E010E000E0C82E6A
:1008A000D12C8091EB030E94AF128C159D0519F499
:1008B0000F5F0F3FB1F78091EB030E94AF120F3F24
:1008C000C1F0143098F010FD11C0EF2DE695E695BB
:1008D000E695F0E0EB51FC4F9081990F90832091C9
:1008E000ED03201710F491609083F3941F5F15358A
:1008F000A9F6789427E22F15B0F42091E90330E0AF
:100900004091E5038091E60390E0840F911D4091B2
:10091000E703840F911D4091E803840F911D9927EF
:100920002817390719F080E090E025C08091EC038A
:100930008B3009F0A0C06091E70370E080E090E0A8
:100940000E9414246093F3037093F4038093F503DF
:100950009093F6036091E50370E080E090E00E94E0
:1009600014246093F7037093F8038093F903909332
:10097000FA0383EF93E02091E6052093BC05FC0188
:1009800021E030E04191D901A454BA4F4C932F5F3C
:100990003F4F25303105B1F7FC0134968191D901E3
:1009A000A454BA4F8C932F5F3F4F29303105B1F7D4
:1009B000A9CD8091E6058233A1F56091E8054091CB
:1009C000E7058091E7058F5F2091E70530E0225031
:1009D000310997E0929FF001939FF00D1124ED579C
:1009E000FE4FA82FB0E0B183A08350E05383428331
:1009F00091E0611101C090E0948397E0929F8001A3
:100A0000939F100D11240D571E4FF8011682158269
:100A100061E00E94071361E0F80182810E940713E0
:100A20009DC58091E605833309F0A8C08091E70554
:100A300090E0029747E0489FF001499FF00D112494
:100A4000ED57FE4F80819181892B09F078C096C0C7
:100A50008091E605853109F418C58091E605883155
:100A600009F07CC58091E6058093D1050E94231989
:100A70008093D20573C58B3008F47BCF85518230CB
:100A800008F077CF1091E703612F6F7770E080E077
:100A900090E00E94162420E030E040E853E40E94F9
:100AA000C6246B017C016091E80370E080E090E077
:100AB0000E9416249B01AC01C701B6010E94FB22D3
:100AC00020E030E040E251E40E946C2317FD09C0B1
:100AD0006093F3037093F4038093F5039093F6030C
:100AE0000BC0DC01CB01B0588093F3039093F40367
:100AF000A093F503B093F6036091E50370E080E006
:100B000090E00E94142420E030E040E853E40E948A
:100B1000C6246B017C016091E60370E080E090E008
:100B20000E9416249B01AC01C701B6010E94FB2262
:100B300020E030E040E251E40E946C2312CF90911B
:100B4000E8052091E70530E022503109429FF0018D
:100B5000439FF00D1124ED57FE4F81E0911101C02C
:100B600080E0848347E0429FC001439F900D1124A1
:100B70008D579E4FFC016581768133C18091E605DA
:100B8000843379F58091E70590E0029727E0289F6C
:100B9000F001299FF00D1124ED57FE4F80819181C6
:100BA000892BF9F08091E8052091E70530E022508B
:100BB00031098B3008F08AE06FEF7FEF02C0660FDB
:100BC000771F8A95E2F76095709547E0429FC001D4
:100BD000439F900D11248D579E4FFC0176836583B2
:100BE00000C18091E605853381F48091E70590E0AE
:100BF000029727E0289FF001299FF00D1124ED575F
:100C0000FE4F80819181892BB9F48091E60586336E
:100C100009F068C08091E70590E0029757E0589F7F
:100C2000F001599FF00D1124ED57FE4F8081918105
:100C3000892B09F06EC056C03091E9059091E80506
:100C40004091E70550E042505109249FF001259F53
:100C5000F00D1124ED57FE4F992309F441C09B304C
:100C600008F09AE091503323B1F087E0849FD001DF
:100C7000859FB00D1124AD57BE4F61E070E002C0FA
:100C8000660F771F9A95E2F715962D913C9116976E
:100C9000622B732B17C061E070E002C0660F771FF4
:100CA0009A95E2F76095709587E0849FD001859FC3
:100CB000B00D1124AD57BE4F15962D913C9116974E
:100CC0006223732387E0849FD001859FB00D112498
:100CD000AD57BE4F16967C936E931597CF0181C08A
:100CE00091E0C0CF8091E605873309F040C0809144
:100CF000E70590E0029747E0489FF001499FF00D1B
:100D00001124ED57FE4F80819181892B09F057C046
:100D10002EC09091E8052091E70530E0225031097E
:100D2000529FB001539F700D1124AB014D575E4F80
:100D30009923D9F09B3008F09AE0915061E070E07F
:100D400002C0660F771F9A95E2F787E0829FF00155
:100D5000839FF00D1124ED57FE4F258136816227C8
:100D6000732776836583CA013CC091E0E6CF80910A
:100D7000E6058833E1F58091E70590E0029727E0EA
:100D8000289FF001299FF00D1124ED57FE4F80811F
:100D90009181892B61F18091E70590E00297289F6E
:100DA000F001299FF00D1124ED57FE4F95818681AA
:100DB0002091E6052093D1059093D20515C060914E
:100DC000E8058091E9052091E70570E0782B30E097
:100DD00022503109429FC001439F900D11248D572D
:100DE0009E4F0E946116BAC38093D305B7C380910A
:100DF000E605863429F59091E7058091E705009195
:100E0000E70510E0025011099801220F331F020F6D
:100E1000131F0F581E4FF80180839F5F918360E07E
:100E20000E94071360E0F80181810E94071360E0CF
:100E3000F80180810E94D81260E0F8018181B0CB76
:100E40008091E605873479F48091E70590E0029778
:100E5000FC01EE0FFF1F8E0F9F1FFC01EF58FE4F8E
:100E60008081811124C08091E6058834A9F58091A4
:100E7000E70590E00297FC01EE0FFF1F8E0F9F1F0A
:100E8000FC01EF58FE4F8081882331F16091E80525
:100E90009091E9058091E70570E0792B90E0029749
:100EA0009C01220F331F820F931F40E038C0209116
:100EB000E8058091E70590E00297283058F4285F14
:100EC000FC01EE0FFF1F8E0F9F1FFC01EF58FE4F1E
:100ED000228344C32FE0F4CF8091E605893421F5C5
:100EE0008091E70590E00297FC01EE0FFF1F8E0F47
:100EF0009F1FFC01EF58FE4F80818823A9F060916D
:100F0000E8059091E9058091E70570E0792B90E084
:100F100002979C01220F331F820F931F41E08F58CD
:100F20009E4F0E944E171AC38091E6058A34C9F479
:100F30008091E70590E00297FC01EE0FFF1F8E0FF6
:100F40009F1FFC01EF58FE4F8081882351F0E091F4
:100F5000E9058091E705EF70F0E0E05FFE4F8081EA
:100F600015C08091E6058B34F9F48091E70590E097
:100F70000297FC01EE0FFF1F8E0F9F1FFC01EF5821
:100F8000FE4F8081882381F08091E905898320913B
:100F9000E8058091E70590E00297AC01440F551FEA
:100FA000840F951F41E0BCC28091E6058C3409F0A6
:100FB00045C08091E70590E00297FC01EE0FFF1F0E
:100FC0008E0F9F1FFC01EF58FE4F80818823B1F1E7
:100FD0008091E8059091E7052AE0622F0E942E2279
:100FE0008F70E82FF0E0E05FFE4F80818983809171
:100FF000E8059091E7050E942E22E92FF0E0E05FDE
:10100000FE4F808180688A838091E9059091E70591
:101010000E942E228F70E82FF0E0E05FFE4F80816B
:101020008B838091E9059091E7050E942E22E92F9C
:10103000F0E0E05FFE4F80818C8367C28091E6051F
:101040008D34A1F58091E70590E00297FC01EE0F49
:10105000FF1F8E0F9F1FFC01EF58FE4F80818823DA
:1010600029F1D090E8050091E905F4E00F9F800197
:101070001124E12CF12CE016F10609F46FC28D2D3C
:101080000E944313BC012091E70530E02250310952
:10109000C901880F991F820F931F40E08F589E4F00
:1010A0000E944E17FFEFEF1AFF0AE5CF8091E60589
:1010B0008E34E1F48091E70590E00297FC01EE0F99
:1010C000FF1F8E0F9F1FFC01EF58FE4F808188236A
:1010D00069F08091060190910701A0910801B091FB
:1010E000090189839A83AB83BC830FC28091E60593
:1010F0008F3479F48091E70590E00297FC01EE0FC0
:10110000FF1F8E0F9F1FFC01EF58FE4F8081811142
:10111000F8C18091E6058A3569F48091E7058093EE
:101120006E018091E80580936F018091E9058093BD
:10113000700114C28091E6058B35B1F42091E80569
:101140004091E7056091E705E091E7054F5FF0E02A
:10115000329735E03E9FC0013F9F900D1124805B88
:101160009E4F0E942F21FAC18091E6058C3509F02F
:1011700048C02091E8054091E7056091E705E091BE
:10118000E7054F5FF0E0329735E03E9FC0013F9F9B
:10119000900D1124805B9E4F0E942F214091E90504
:1011A00042FB442740F9142F11952091E90526951B
:1011B0002170D22ED1940091E9050170C02EC19406
:1011C000E12CF12CA5E0BA2E8091E80590E0E8161C
:1011D000F9060CF0C3C12091E70530E02250310937
:1011E000B29EC001B39E900D11240C2D2D2D412FC8
:1011F0006E2D805B9E4F0E94BE162FEFE21AF20A00
:10120000E3CF8091E6058D3509F056C08091E80561
:10121000811118C06091E9052091E70530E0225066
:10122000310945E0429FC001439F900D1124009178
:10123000700120916F0140916E01805B9E4F0E9472
:10124000BE168CC18091E70590E0029725E0289FAB
:10125000F001299FF00D1124E05BFE4FC280E12CCC
:10126000F12CD12C15E0EC14FD040CF077C1809129
:10127000E805813039F48091E90590E0E816F90637
:1012800009F056C18091E805823039F48091E90572
:1012900090E08E159F050CF04BC18091E8058330DE
:1012A00039F48091E90590E0E816F9060CF040C1A8
:1012B0003FEFE31AF30AD7CF8091E6058E3509F0A8
:1012C00043C08091E905811103C081E08093E90565
:1012D0008091E70590E0029725E0289FF001299F83
:1012E000F00D1124E05BFE4FC280E090E805F12C88
:1012F000D12C15E0EC14FD040CF030C18091E80510
:101300006091E905F701E81BF109CF0170E00E9447
:101310003A22892BA9F42091E70530E022503109C7
:10132000129FC001139F900D112400917001209114
:101330006F0140916E016E2D805B9E4F0E94BE1624
:10134000FFEFEF1AFF0AD6CF8091E6058F3509F03F
:1013500071C08091E70590E0029725E0289FF00199
:10136000299FF00D1124E05BFE4FC2808091E905BA
:10137000D12C81112FC0E12CF12C15E0EC14FD04CF
:101380000CF0ECC08091E80590E02091E70530E09A
:1013900022503109E816F90664F4129FC001139F28
:1013A000900D11240091700120916F0140916E0108
:1013B00008C0129FC001139F900D112400E020E08F
:1013C00040E06E2D805B9E4F0E94BE162FEFE21A0A
:1013D000F20AD4CF760115E0E114F10409F4BEC09D
:1013E0008091E805F601E81BF1092091E70530E05E
:1013F00022503109EE16FF0664F0129FC001139FC0
:10140000900D11240091700120916F0140916E01A7
:1014100008C0129FC001139F900D112400E020E02E
:1014200040E06E2D805B9E4F0E94BE16F1E0EF1AE9
:10143000F108D2CF8091E605863109F009CB6091A1
:10144000E70570E080E090E04AE00E94BF178091DD
:10145000E7058093A504F89482E08093B000809320
:10146000B10094E69093B3001092B20080937000A4
:1014700078948093A4041092A8048091A50460E05D
:101480000E9407131092E60569C00E94231920915B
:10149000D503892B79F18091E6058093D1052093BE
:1014A000D2059091D7038091D8039093D305809370
:1014B000D4058091D9039091DA03A091DB03B09118
:1014C000DC038093D505492F5A2F6B2F7727409344
:1014D000D605AD01662777274093D7058B2F99272F
:1014E000AA27BB278093D80582E08093A40410929A
:1014F000A80434C08091E6058093D1052093D205DD
:101500002DC019821A821B821C828091E70590E00F
:1015100002979C01220F331F820F931F20E044E0AB
:10152000BE016F5F7F4F8F589E4F0E94641516C09B
:101530002091E70530E022503109129FC001139F2E
:10154000900D11240091700120916F0140916E0166
:101550006E2D805B9E4F0E94BE16AACE0F900F90FC
:101560000F900F90DF91CF911F910F91FF90EF900F
:10157000DF90CF90BF90AF909F908F90089580E0C4
:1015800090E0892B29F00E94121281110C94000026
:10159000089585ED8093BC008091BC0084FDFCCF54
:1015A0001092B30308954091FD02262F30E0240FDE
:1015B000311D21323105DCF42091B3032430C9F40C
:1015C000FC0180E090E0861758F43091FD022191F3
:1015D000DC01A352BD4FA30FB11D2C930196F3CF95
:1015E0008091FD02680F6093FD0280E0089581E024
:1015F000089582E00895E091BA03F091BB0330971B
:1016000029F01092B5031092B40309940895CF9372
:10161000DF93AC01E091B803F091B9033097F1F09A
:101620009091B7038091B6039817C0F090E0292FEE
:1016300030E02617370754F4D901A354BD4FEA010F
:10164000C20FD31F28812C939F5FF1CF1092B70355
:101650006093B603CB01DF91CF910994DF91CF91D5
:1016600008950895E091B7038091B603E81730F428
:10167000F0E0E354FD4F808190E008958FEF9FEFFD
:1016800008959091B7038091B603981750F4E92F0D
:10169000F0E0E354FD4F208130E09F5F9093B7036B
:1016A00002C02FEF3FEFC90108958091B60390E08B
:1016B0002091B703821B91090895CF93DF93CB014B
:1016C000EA01642F0E94D30ACE01DF91CF910895E1
:1016D000CF93DF931F92CDB7DEB7698361E0CE0170
:1016E00001960E94D30A81E090E00F90DF91CF91A4
:1016F0000895089580E090E008951F93CF93DF93BD
:10170000EC0188810E94AF12182F89810E94AF12CC
:101710009C013327210F311D21303105A9F4181701
:1017200040F48A819B81AC81BD810196A11DB11DD0
:1017300007C08A819B81AC81BD810197A109B10954
:101740008A839B83AC83BD838A819B81AC81BD816D
:10175000B7FF05C01A821B821C821D8215C04A81F8
:101760005B816C817D818E8190E0A0E0B0E0841788
:101770009507A607B70744F48E8190E0A0E0B0E09B
:101780008A839B83AC83BD83688170E080E090E0B6
:101790004AE00E94BF178CE491E00E94AD17698176
:1017A00070E080E090E04AE00E94BF178CE491E096
:1017B000DF91CF911F910C94AD17CF92DF92EF92F2
:1017C000FF920F931F93CF93DF93FC01C081D0E072
:1017D000FE01E057FD4F8081811112C0CC0FDD1F4B
:1017E000CC0FDD1FC756DD4F88819981AA81BB814F
:1017F0000196A11DB11D88839983AA83BB8359C01B
:101800008081813009F055C061110FC00E945A13C8
:101810002CE02C9FF0012D9FF00D1124EC5DFD4F6D
:1018200060877187828793870EC00E945A132CE0CD
:101830002C9FF0012D9FF00D1124EC5DFD4F648372
:101840007583868397832CE02C9FC0012D9F900D7C
:101850001124EC01CC5DDD4F8C819D81AE81BF8177
:10186000088519852A853B85081719072A073B072C
:1018700000F5C880D980EA80FB80BC01CD01601BE7
:10188000710B820B930B28EE33E040E050E00E9496
:101890004E22C901330FAA0BBB0BC80ED91EEA1E7C
:1018A000FB1EC882D982EA82FB821C821D821E82B4
:1018B0001F82DF91CF911F910F91FF90EF90DF90EA
:1018C000CF9008954F925F926F927F928F929F92E6
:1018D000AF92BF92DF92EF92FF920F931F93CF933D
:1018E000DF930E945A1328EE33E040E050E00E945C
:1018F0004E2249015A01C0E0D0E04CE0D42EFE0156
:10190000E55EFD4F8081882309F469C08E0133E0D4
:10191000000F111F3A95E1F7F801ED52FE4F848157
:101920009581A681B78124013501481A590A6A0AAE
:101930007B0A80819181A281B381481659066A068B
:101940007B0608F44CC0DE01A057BD4F8C91882364
:1019500039F18130E9F5DC9EC001DD9E900D112446
:101960009C012C5D3D4F7901D9012D913D914D9107
:101970005C9160817181828193810E941E22A3010A
:1019800092010E944E22FE01EE0FFF1FEE0FFF1F7D
:10199000E155FE4F2083318342835383F70114C006
:1019A000CE01880F991F880F991FFC01E756FD4F44
:1019B0004081518162817381DC01A155BE4F4D93FD
:1019C0005D936D937C931397108211821282138220
:1019D000F801ED52FE4F84829582A682B78221964D
:1019E000C930D10509F08BCFDF91CF911F910F91B5
:1019F000FF90EF90DF90BF90AF909F908F907F907F
:101A00006F905F904F9008958F929F92AF92BF9288
:101A1000CF92DF92EF92FF920F931F93CF93DF93BA
:101A20006B015A01863140F4883070F048E650E08E
:101A30008E3008F490C002C040E050E0863108F4D7
:101A40008DC060E070E08CC0382F6DE670E048E635
:101A500050E092E0E92FF0E0EE0FFF1FE65FFE4F4F
:101A60000190F081E02D309709F48BC0C114D104AE
:101A700009F487C0C32FD0E0A1E0B0E002C0AA0FF4
:101A8000BB1F3A95E2F71FB7F8944E01880C991CDA
:101A9000880C991C7F01E80CF91CE701D982C882E7
:101AA000BB82AA8231A1DA2ED094D22FDD7FC1E091
:101AB000DC1302C03A2B01C03D2131A3215032A1D9
:101AC000223010F43A2B01C03D2132A3EB012881D2
:101AD0002A2B2883EA012881883050F061E08E307B
:101AE00008F460E031E001C0330F6A95EAF701C005
:101AF00034E0322BEA01388380A18D21913021F02E
:101B0000923021F023B103C026B101C029B12A23AC
:101B1000282B20A30023E9F082A1482F50E0822F38
:101B200090E0809590958423952331A13223832BD7
:101B30008A239B23892B69F0A22361E009F460E0EA
:101B4000E401CE0FDF1FD701ED91FC918A819B81CB
:101B500009951FBF16C06BE670E002C06CE670E02E
:101B600091E08E3008F490E08E3010F438EF01C030
:101B700032EF380F4115510521F06115710509F05B
:101B800069CFDF91CF911F910F91FF90EF90DF9080
:101B9000CF90BF90AF909F908F9008951F920F921B
:101BA0000FB60F9211242F933F934F935F936F9330
:101BB0007F938F939F93AF93BF93CF93DF93EF93D5
:101BC000FF93C9B120916D00DC2FD0958091AC03BB
:101BD000D8239091AB039C238D2F892BD091AA03FE
:101BE000DC27D223D823C093AA03D0FF0BC0E091F7
:101BF0008A03F0918B036C2F617080918C0390911C
:101C00008D030995D1FF0CC0C1FB662760F9E091F7
:101C10008E03F0918F038091900390919103099529
:101C2000D2FF0CC0C2FB662760F9E0919203F091ED
:101C3000930380919403909195030995D3FF0CC071
:101C4000C3FB662760F9E0919603F09197038091BA
:101C50009803909199030995D4FF0CC0C4FB6627A3
:101C600060F9E0919A03F0919B0380919C0390911D
:101C70009D030995D5FF0CC0C5FB662760F9E0916F
:101C80009E03F0919F038091A0039091A103099579
:101C9000D6FF0CC0C6FB662760F9E091A203F09165
:101CA000A3038091A4039091A5030995D7FF0DC0CC
:101CB0006C2F661F6627661FE091A603F091A703AD
:101CC0008091A8039091A9030995FF91EF91DF916D
:101CD000CF91BF91AF919F918F917F916F915F91C4
:101CE0004F913F912F910F900FBE0F901F9018951D
:101CF0001F920F920FB60F9211242F933F934F9381
:101D00005F936F937F938F939F93AF93BF93CF9383
:101D1000DF93EF93FF93C6B120916C00DC2FD09539
:101D200080918903D823909188039C238D2F892B40
:101D3000D0918703DC27D223D823C0938703D0FF19
:101D40000BC0E0916703F09168036C2F6170809184
:101D5000690390916A030995D1FF0CC0C1FB662706
:101D600060F9E0916B03F0916C0380916D039091A9
:101D70006E030995D2FF0CC0C2FB662760F9E091A3
:101D80006F03F09170038091710390917203099534
:101D9000D3FF0CC0C3FB662760F9E0917303F09199
:101DA000740380917503909176030995D4FF0CC05C
:101DB000C4FB662760F9E0917703F0917803809186
:101DC000790390917A030995D5FF0CC0C5FB66276E
:101DD00060F9E0917B03F0917C0380917D03909109
:101DE0007E030995D6FF0CC0C6FB662760F9E0911B
:101DF0007F03F09180038091810390918203099584
:101E0000D7FF0DC06C2F661F6627661FE091830306
:101E1000F091840380918503909186030995FF9149
:101E2000EF91DF91CF91BF91AF919F918F917F9172
:101E30006F915F914F913F912F910F900FBE0F9037
:101E40001F9018951F920F920FB60F9211242F9387
:101E50003F934F935F936F937F938F939F93AF9332
:101E6000BF93CF93DF93EF93FF93C3B120916B00A8
:101E7000DC2FD09580916603D823909165039C2335
:101E80008D2F892BD0916403DC27D223D823C093D4
:101E90006403D0FF0BC0E0914403F09145036C2F25
:101EA000617080914603909147030995D1FF0CC062
:101EB000C1FB662760F9E0914803F09149038091E6
:101EC0004A0390914B030995D2FF0CC0C2FB6627D1
:101ED00060F9E0914C03F0914D0380914E03909195
:101EE0004F030995D3FF0CC0C3FB662760F9E0914F
:101EF0005003F0915103809152039091530309953F
:101F0000D4FF0CC0C4FB662760F9E0915403F09144
:101F1000550380915603909157030995D5FF0CC046
:101F2000C5FB662760F9E0915803F0915903809151
:101F30005A0390915B030995D6FF0CC0C6FB662738
:101F400060F9E0915C03F0915D0380915E039091F4
:101F50005F030995D7FF0DC06C2F661F6627661FAC
:101F6000E0916003F09161038091620390916303BB
:101F70000995FF91EF91DF91CF91BF91AF919F9123
:101F80008F917F916F915F914F913F912F910F9022
:101F90000FBE0F901F9018951F920F920FB60F92C1
:101FA00011242F933F934F935F936F937F938F935E
:101FB0009F93AF93BF93EF93FF938091B900887F76
:101FC000803609F49CC068F5883209F45BC090F44F
:101FD000803109F454C038F4882309F4F6C08830FD
:101FE00009F44DC0F6C0883109F44CC0803209F4C0
:101FF0005DC0EFC0803409F468C048F4803309F450
:1020000055C0883309F0E5C080932003D8C08035DF
:1020100009F44FC0883509F45DC0883409F0D9C08F
:10202000D6C0883909F4C7C0A8F4883709F467C056
:1020300038F4883609F463C0803709F460C0C9C039
:10204000883809F4B8C0803909F45FC0803809F0D5
:10205000C0C05BC0803B09F486C038F4803A09F404
:1020600066C0883A09F47FC0B4C0803C09F4A7C0B8
:10207000883C09F4A4C0883B09F48AC0AAC08091B6
:10208000430310C09091420380914103981770F56B
:10209000E091420381E08E0F80934203F0E0EF5D18
:1020A000FC4F80818093BB0085EC86C08093200329
:1020B0008EC0E091420381E08E0F809342038091B5
:1020C000BB00F0E0EF5DFC4F808390914203809174
:1020D00041036EC0E091420381E08E0F8093420382
:1020E0008091BB00F0E0EF5DFC4F80838091B203F4
:1020F00081116DC081E08093B10384EA61C083E007
:102100008093B30310921F03CFCF80911F038032BF
:1021100008F051C0E0911F0381E08E0F80931F03F0
:102120008091BB00F0E0E150FD4F8083BDCF85EC96
:102130008093BC001092B30380911F03803230F46F
:10214000E0911F03F0E0E150FD4F108260911F030A
:1021500070E0E091AD03F091AE038FEF92E009954E
:1021600010921F0336C084E08093B3031092FE02E6
:102170001092FD02E091AF03F091B00309958091B8
:10218000FD02811105C081E08093FD021092DD0205
:10219000E091FE0281E08E0F8093FE02F0E0E352B8
:1021A000FD4F80818093BB009091FE028091FD02E3
:1021B000981708F479CF85E88093BC000AC085ECB5
:1021C0008093BC001092B30304C0109220030E94BD
:1021D000C90AFF91EF91BF91AF919F918F917F912C
:1021E0006F915F914F913F912F910F900FBE0F9084
:1021F0001F9018950F931F93CF93DF93C82FD0E0B4
:102200008E01055E1D4FE8019881992309F475C080
:10221000863140F4883070F048E650E08E3008F4A3
:1022200056C002C040E050E0863108F453C0A0E040
:10223000B0E052C0982F48E650E0ADE6B0E0E2E0F2
:10224000F0E0EE0FFF1FE65FFE4F0190F081E02D02
:102250003097B9F1292F30E06FB7F894220F331F70
:10226000220F331F2E0F3F1FE901198218821B8294
:102270001A8221E030E001C0220F9A95EAF72095FA
:1022800091A1922391A392A1922392A39C9129239D
:102290002C939C91911114C0FA017081883060F0E8
:1022A00091E08E3008F490E021E030E001C0220F90
:1022B0009A95EAF7209501C02BEF2723EA0128839E
:1022C0006FBF61E00E940713F801108216C0ABE6F1
:1022D000B0E002C0ACE6B0E0E1E08E3008F4E0E04F
:1022E0008E3010F498EF01C092EF980F4115510510
:1022F00041F3109709F0A4CFE4CFDF91CF911F9164
:102300000F910895833081F028F4813099F0823064
:10231000A1F008958730A9F08830B9F08430D1F465
:10232000809180008F7D03C0809180008F778093A3
:102330008000089584B58F7702C084B58F7D84BDF9
:1023400008958091B0008F7703C08091B0008F7D99
:102350008093B0000895CF92DF92EF92FF920F9397
:102360001F93CF93DF936C017A018B01C0E0D0E023
:10237000CE15DF0581F0D8016D918D01D601ED916B
:10238000FC910190F081E02DC6010995892B11F097
:102390002196EECF7E01C701DF91CF911F910F9162
:1023A000FF90EF90DF90CF900895FC01538D448D06
:1023B000252F30E0842F90E0821B930B541710F0F0
:1023C000CF96089501970895FC01918D828D9817FD
:1023D00061F0828DDF01A80FB11D5D968C91928D09
:1023E0009F5F9F73928F90E008958FEF9FEF089506
:1023F000FC01918D828D981731F0828DE80FF11DCF
:10240000858D90E008958FEF9FEF0895FC01918DE9
:10241000228D892F90E0805C9F4F821B91098F73E2
:10242000992708958BEF93E00E94061221E0892BF3
:1024300009F420E0822F0895FC01848DDF01A80FAC
:10244000B11DA35ABF4F2C91848D90E001968F73DC
:102450009927848FA689B7892C93A089B1898C91FB
:10246000837080648C93938D848D981306C002884A
:10247000F389E02D80818F7D80830895EF92FF9214
:102480000F931F93CF93DF93EC0181E0888F9B8D97
:102490008C8D981305C0E889F989808185FD26C057
:1024A000F62E0B8D10E00F5F1F4F0F731127E02EDC
:1024B0008C8DE8120CC00FB607FCFACFE889F989B9
:1024C000808185FFF5CFCE010E941C12F1CF8B8D4C
:1024D000FE01E80FF11DE35AFF4FF0829FB7F89419
:1024E0000B8FEA89FB89808180620AC09FB7F894CC
:1024F000EE89FF896083E889F9898081837080642F
:1025000080839FBF81E090E0DF91CF911F910F9179
:10251000FF90EF900895CF93DF93EC01888D88238F
:10252000C9F0EA89FB89808185FD05C0A889B98940
:102530008C9186FD0FC00FB607FCF5CF808185FF1B
:10254000F2CFA889B9898C9185FFEDCFCE010E9489
:102550001C12E7CFDF91CF9108950E947026CF9390
:10256000DF93282F30E0F901E255FF4F8491F90104
:10257000E656FF4FD491F901EA57FF4FC491CC239F
:1025800091F081110E948211EC2FF0E0EE0FFF1FFD
:10259000E458FF4FA591B491EC91ED2381E090E0D8
:1025A00021F480E002C080E090E0DF91CF910895B7
:1025B0001F93CF93DF93282F30E0F901E255FF4FAF
:1025C0008491F901E656FF4FD491F901EA57FF4F84
:1025D000C491CC23C1F0162F81110E948211EC2FDF
:1025E000F0E0EE0FFF1FEE58FF4FA591B4919FB79B
:1025F000F894111104C08C91D095D82302C0EC91AD
:10260000DE2BDC939FBFDF91CF911F910895CF9375
:10261000DF9390E0FC01E656FF4F2491FC01EA575E
:10262000FF4F8491882361F190E0880F991FFC018E
:10263000E859FF4FC591D491FC01EE58FF4FA59189
:10264000B491611109C09FB7F894888120958223C5
:102650008883EC912E230BC0623061F49FB7F8940D
:102660008881322F309583238883EC912E2B2C93F5
:102670009FBF06C08FB7F894E8812E2B28838FBFA9
:10268000DF91CF9108958E3008F08E50877080646E
:1026900080937C0080917A00806480937A0080919E
:1026A0007A0086FDFCCF809178002091790090E03F
:1026B000922B08953FB7F8948091D1039091D20363
:1026C000A091D303B091D40326B5A89B05C02F3F9A
:1026D00019F00196A11DB11D3FBFBA2FA92F982F48
:1026E0008827820F911DA11DB11DBC01CD0142E0C3
:1026F000660F771F881F991F4A95D1F708958F920B
:102700009F92AF92BF92CF92DF92EF92FF926B01B6
:102710007C010E945A134B015C01C114D104E104F5
:10272000F104F1F00E945A13DC01CB0188199909D8
:10273000AA09BB09883E9340A105B10570F321E0C9
:10274000C21AD108E108F10888EE880E83E0981ECD
:10275000A11CB11CC114D104E104F10419F7DDCFAF
:10276000FF90EF90DF90CF90BF90AF909F908F90B1
:1027700008951F920F920FB60F9211242F933F933B
:102780008F939F93AF93BF938091CC039091CD0390
:10279000A091CE03B091CF033091D00323E0230F5B
:1027A0002D3720F40196A11DB11D05C026E8230F89
:1027B0000296A11DB11D2093D0038093CC0390936A
:1027C000CD03A093CE03B093CF038091D10390911A
:1027D000D203A091D303B091D4030196A11DB11DE2
:1027E0008093D1039093D203A093D303B093D403E7
:1027F000BF91AF919F918F913F912F910F900FBEFD
:102800000F901F9018951F920F920FB60F921124E0
:102810002F933F934F935F936F937F938F939F93E8
:10282000AF93BF93EF93FF938BEF93E00E941C1243
:10283000FF91EF91BF91AF919F918F917F916F9198
:102840005F914F913F912F910F900FBE0F901F906E
:1028500018951F920F920FB60F9211242F938F93FA
:102860009F93EF93FF93E0910B04F0910C04808110
:10287000E0911104F091120482FD12C090818091C8
:1028800014048F5F8F7320911504821751F0E0912B
:102890001404F0E0E550FC4F958F8093140401C0C0
:1028A0008081FF91EF919F918F912F910F900FBE9B
:1028B0000F901F9018950F931F93CF93DF938C0168
:1028C00061E0FC0181810E940713C3ECD0E0CE01DE
:1028D0000197F1F760E0F80180810E940713CE01B3
:1028E0000197F1F760E0F80181810E9407132197B9
:1028F000F1F7DF91CF911F910F91089561E0FC01F5
:1029000081810E94071383EC90E00197F1F708950D
:10291000CF92DF92EF92FF920F931F93CF93DF93AB
:10292000EC01E62E88E0F82E93ECC92ED12C61E064
:1029300088810E940713C6010197F1F7E0FE02C0EB
:1029400060E001C061E089810E94071303EC10E0A0
:10295000C6010197F1F760E088810E940713C60164
:102960000197F1F7E694FA94F110E1CF61E08881E4
:102970000E94071360E089810E940713C801019734
:10298000F1F760E088810E940713C8010197F1F711
:1029900089810E94AF12F82E811104C061E0898103
:1029A0000E94071303EC10E0C8010197F1F761E002
:1029B00088810E940713C8010197F1F781E0F110A7
:1029C00001C080E0DF91CF911F910F91FF90EF90B8
:1029D000DF90CF900895EF92FF920F931F93CF93C4
:1029E0007C018B01C0E1612F661F6627661FF7011E
:1029F00082810E94D812F70180810E94AF1261E0AB
:102A0000892B09F060E0F70180810E94D812000F45
:102A1000111FC15041F7CF911F910F91FF90EF907F
:102A20000895EF92FF920F931F93CF93DF93EC01E2
:102A3000062F18E08BE4E82EF12C07FF02C061E0BE
:102A400001C060E089810E94D81260E088810E9404
:102A5000D812C7010197F1F761E088810E94D8126E
:102A6000C7010197F1F7000F115039F7DF91CF91AE
:102A70001F910F91FF90EF9008951F920F920FB644
:102A80000F9211242F933F934F935F936F937F93F4
:102A90008F939F93AF93BF93EF93FF93E091C00306
:102AA000F091C1030995FF91EF91BF91AF919F9173
:102AB0008F917F916F915F914F913F912F910F90E7
:102AC0000FBE0F901F901895DF92EF92FF920F9319
:102AD0001F93CF93DF93EC01D62EE72EF42E122F07
:102AE0000E947E1460E4CE010E948814CE010E94F0
:102AF0005B14CE010E947E14612F63706054CE017E
:102B00000E9488140D2D1E2DC8018F0D911D7C0172
:102B10000E151F0539F0F80161918F01CE010E9459
:102B20008814F6CFCE010E945B14CE010E947E1461
:102B30006A816058CE010E948814CE01DF91CF9146
:102B40001F910F91FF90EF90DF900C945B141F92F8
:102B50000F920FB60F9211242F933F934F935F93D1
:102B60006F937F938F939F93AF93BF93EF93FF9355
:102B70008091A5040E94AF122091A9043091AA046B
:102B80002F5F3F4F3093AA042093A9049091A8048B
:102B9000953618F096E09093A4049091A404943094
:102BA000C9F128F4923069F09330D1F05EC09530CD
:102BB00009F451C0963009F058C091E09093750522
:102BC00051C0811152C02091A9043091AA04243629
:102BD000310508F442C0109275051092A8041CC07B
:102BE000813009F042C0E091A80491E09E0F9093DB
:102BF000A804F0E02091A9043091AA04EE0FFF1F71
:102C0000EC55FB4F308727831092AA041092A90439
:102C100094E029C0811117C0E091A80491E09E0FB3
:102C20009093A804F0E02091A9043091AA04EE0F3B
:102C3000FF1FEC55FB4F308727831092AA04109298
:102C4000A90493E010C02091A9043091AA0425366C
:102C5000310558F007C0811108C01092AA041092E3
:102C6000A90403C095E09093A4049091A70499232C
:102C7000B9F081110AC08091A604882321F08091C7
:102C8000A60461E009C02D9A0BC08091A604882398
:102C900031F08091A60460E00E94D81201C02D9806
:102CA000FF91EF91BF91AF919F918F917F916F9124
:102CB0005F914F913F912F910F900FBE0F901F90FA
:102CC0001895EF92FF920F931F93CF93DF93EC0130
:102CD0007B01CB0193709E838D8360E070E0CE0119
:102CE0000E94EB1400E010E08C81882369F0C7019A
:102CF000002E02C0880F991F0A94E2F7BC016627D4
:102D0000727091FF0FC00CC0C701002E02C09695D3
:102D100087950A94E2F7BC016170772780FF02C0B3
:102D20006FEF70E0CE010E94EB140F5F1F4F0A306F
:102D30001105D1F660E070E0CE010E94EB1460E076
:102D400070E0CE010E94EB1460E08A810E94D812EC
:102D500083E290E00197F1F714E061E08A810E943C
:102D6000D81260E08A810E94D8121150B1F7DF9129
:102D7000CF911F910F91FF90EF900895AF92BF9266
:102D8000CF92DF92EF92FF920F931F93CF93DF9337
:102D9000EC01C62EB42EA22E60E00E94111560E058
:102DA000CE010E94111560E0CE010E94111560E075
:102DB000CE010E94111510E08A81181708F03CC05E
:102DC00023E0129FC00111241C110FC0EB81FC8174
:102DD000E80FF91FB082EB81FC81E80FF91FA18297
:102DE000EB81FC81E80FF91F0283EB81FC81E80F86
:102DF000F91FD280E180F080D7FC02C060EE01C0F4
:102E000060ECD6FE6061E7FE6860E6FE6460F7FE97
:102E10006260F6FE6160CE010E9411156D2DCE013B
:102E20000E9411156E2DCE010E9411156F2DCE013D
:102E30000E9411151F5FC0CF60E0CE010E941115E6
:102E400060E0CE010E94111560E0CE010E941115D4
:102E500060E0CE01DF91CF911F910F91FF90EF9035
:102E6000DF90CF90BF90AF900C941115CF93DF936C
:102E7000C5EED3E08E836F8396E0988791E09D87BF
:102E800060E00E94071361E08E810E94D8121986CB
:102E90001A861B861C86DF91CF9108957F928F92B0
:102EA0009F92AF92BF92CF92DF92EF92FF920F93D9
:102EB0001F93CF93DF9300D000D0CDB7DEB77C0156
:102EC0009B01942E08E211E0FE0131967724739461
:102ED00040E05F018FE3882ED801DE90CE908D0117
:102EE000C901B6010E943A226115710551F4911091
:102EF00004C0772011F0433011F4808213C0108297
:102F000011C0A62FAF70B0E0A05FBE4F8C91808340
:102F1000C69EC001C79E900DD69E900D1124281B01
:102F2000390B712C4F5F31964430B1F620E0B5017A
:102F3000C7010E9464150F900F900F900F90DF91C2
:102F4000CF911F910F91FF90EF90DF90CF90BF90A6
:102F5000AF909F908F907F900895009769F0FC014B
:102F600001900020E9F73197AF01481B590BBC01D4
:102F70008BEF93E00C94AB1180E090E008958F927A
:102F80009F92AF92BF920F931F93CF93DF93CDB7D2
:102F9000DEB7A1970FB6F894DEBF0FBECDBF19A262
:102FA000423008F44AE08E010F5D1F4F842E912CB1
:102FB000A12CB12CA50194010E944E22E62FB9014B
:102FC000CA0101501109EA3014F4E05D01C0E95C66
:102FD000D801EC93232B242B252B61F7C8010E94E9
:102FE000AD17A1960FB6F894DEBF0FBECDBFDF912F
:102FF000CF911F910F91BF90AF909F908F900895A8
:103000008091CB0381117BC08091E605813041F432
:1030100042E050E061ED75E088E994E00E945D0BCC
:103020008091E605833009F46FC08091E605873012
:1030300009F46AC08091E605883309F465C080917F
:10304000E605883009F469C08091E605843109F409
:1030500064C08091E6058E3141F449E050E061EDB5
:1030600075E088E994E00E945D0B8091E605883266
:1030700041F449E050E06CEB75E088E994E00E948F
:103080005D0B8091E6058A3041F445E050E061ED4A
:1030900075E088E994E00E945D0B8091E6058C3034
:1030A00041F443E050E061ED75E088E994E00E946E
:1030B0005D0B8091E605853151F448E050E061ED0B
:1030C00075E088E994E00E945D0B1092D105809133
:1030D000E6058D3041F445E050E061ED75E088E9AA
:1030E00094E00E945D0B8091E6058831F9F442E09E
:1030F00050E061ED75E088E994E00C945D0B67E1C8
:1031000088E994E00C94680B43E050E061ED75E0D1
:1031100088E994E00E945D0B92CF44E050E061EDBD
:1031200075E088E994E00E945D0B93CF08950F93BA
:103130001F93CF93DF938091CB0381112FC001E0C8
:1031400010E08091B6032091B703821719F190E047
:10315000821B9109049761F41092BB051092BA0585
:103160001092B9051092B8051093B7050093B605F3
:10317000C091B805D091B905CE0101969093B905DB
:103180008093B80588E994E00E94410BCA51DA4F58
:103190008883D7CF81E08093CB030BC09091B60397
:1031A0008091B703981729F088E994E00E94410BB9
:1031B000F5CFDF91CF911F910F910895CF92DF92BC
:1031C000EF92FF920F931F93E82FF92F05C0015044
:1031D00011092109310961F1908196239417B9F3FE
:1031E00005C0015011092109310911F1908196237F
:1031F0009413F7CFC12CD12CE12CF12C0AC08FEF06
:10320000C81AD80AE80AF80A0C151D052E053F054C
:1032100079F080818623841791F36C2D7D2D8E2D7E
:103220009F2D1F910F91FF90EF90DF90CF90089509
:1032300060E070E080E090E01F910F91FF90EF90D0
:10324000DF90CF9008952F923F924F925F926F92AE
:103250007F928F929F92AF92BF92CF92DF92EF9226
:10326000FF920F931F93CF93DF9300D000D000D035
:10327000CDB7DEB78BEA94E09093E0038093DF0351
:103280008091A80490E09093E2038093E103809101
:10329000750590E09093E4038093E3038091A40488
:1032A000853009F06DC68091AD049091AE048858C8
:1032B00091098D35910588F48091A804843041F4FA
:1032C0008091AF049091B0048097479708F483C031
:1032D0008091A804843408F065C08091A8048A31E4
:1032E00008F4CCC08091AB049091AC04843F914031
:1032F00080F41092DE031092DD038FEF9FEFDC016C
:103300008093D9039093DA03A093DB03B093DC039B
:1033100046C08091AD049091AE0485974B9708F01C
:10332000ADC0E1EBF4E082E090E040E050E0BA01B3
:103330008C010F5F1F4F2091A80430E00217130784
:103340006CF49F0122503109D9012D913C912750F5
:1033500031092730310508F476C0C80101979595E9
:1033600087959093DE038093DD030C972CF41092E5
:10337000DE031092DD0382C04093D9035093DA0339
:103380006093DB037093DC0384E090E0EAC4409335
:10339000D9035093DA036093DB037093DC038BE073
:1033A00090E0DFC48091AF049091B0048254910901
:1033B0008E9708F092CF20E030E080E090E0DC01D2
:1033C000F901EF54FB4F4081518149505109493077
:1033D000510588F082CF8091B1049091B204099791
:1033E000099708F075CF1092DE031092DD038FEF7E
:1033F0009FEFDC01C8C5F901ED54FB4F40815181BD
:10340000475151094231510588F4880F991FAA1F6D
:10341000BB1F81602C5F3F4F2038310589F620E2C9
:1034200030E03093DE032093DD03ADC54081518150
:10343000465051094730510508F04FCF880F991F6A
:10344000AA1FBB1FE7CF20813181235131092F30C3
:10345000310540F4440F551F661F771F41600296E7
:10346000349666CF208131812A50310929303105C7
:1034700028F4440F551F661F771FF1CF8091A804D1
:103480008A3108F45EC08091AB049091AC04803224
:10349000934008F42ECF8091AD049091AE04C6976E
:1034A000869708F04EC08091AF049091B004C69703
:1034B000869708F046C0E3EBF4E083E090E040E05C
:1034C00050E0BA018C010F5F1F4F2091A80430E03B
:1034D0000217130764F49F0122503109D9012D917D
:1034E0003C912C5031092B30310580F0C8010197F7
:1034F000959587959093DE038093DD030C970CF0F0
:1035000046CF1092DE031092DD031BC02081318173
:10351000255231092B31310540F4440F551F661FE8
:10352000771F416002963496CDCF208131812C5097
:1035300031092A30310528F4440F551F661F771FC3
:10354000F1CF8091A804823208F457C08091AD0475
:103550009091AE040697079708F04FC0E1EBF4E0B6
:1035600082E090E040E050E0BA018C010F5F1F4F15
:103570002091A80430E002171307C4F4DF0112976A
:103580002D913C9111972E5131092731310538F594
:10359000440F551F661F771F41602081318134968B
:1035A000235031092530310530F1C8010197959537
:1035B00087959093DE038093DD0340972CF410925F
:1035C000DE031092DD0319C04093D9035093DA0350
:1035D0006093DB037093DC038CE090E0C2C32D9119
:1035E0003C912C5031092B30310538F4440F551FD4
:1035F000661F771FD2CF0296B8CF1C821B8281E054
:1036000090E09A8389838091A8048D3078F41C829D
:103610001B8281E090E09A8389838091E1039091FD
:10362000E203181619060CF46CC0C3C049E753E056
:10363000BE016D5F7F4FCE0101960E94A621892BAE
:1036400031F749E753E0BE016D5F7F4FCE01019630
:103650000E94A6210197D9F649E753E0BE016D5FAC
:103660007F4FCE0101960E94A621892B81F6C12CA5
:10367000D12C760100E010E08091A80490E029812F
:103680003A812817390774F549E753E0BE016D5FA9
:103690007F4FCE0101960E94A6215C0149E753E0CD
:1036A000BE016D5F7F4FCE0101960E94A621B1E061
:1036B000AB16B10451F4892B09F0A9CFCC0CDD1C59
:1036C000EE1CFF1C6894C0F80AC0AB2809F09FCF1D
:1036D000019709F09CCFCC0CDD1CEE1CFF1C0F5F8A
:1036E0001F4FCACF1093DE030093DD03C092D903AE
:1036F000D092DA03E092DB03F092DC0381E090E009
:1037000030C3E091DF03F091E00382E090E09A8320
:1037100089838281938189974E9708F04AC083E01C
:1037200090E09A838983848195810B970A9708F0AA
:1037300040C04CEB51E0BE016D5F7F4FCE01019662
:103740000E94A621892BA9F54CEB51E0BE016D5FCB
:103750007F4FCE0101960E94A621019751F5C12C01
:10376000D12C760100E010E02091E1033091E203DA
:1037700089819A81821793070CF026C14CEB51E0A6
:10378000BE016D5F7F4FCE0101960E94A6215C01B4
:103790000330110509F0E2C04CEB51E0BE016D5F52
:1037A0007F4FCE0101960E94A621A816B90609F402
:1037B000D5C0E091DF03F091E00382819381C69749
:1037C0008697E0F4848195814B974597B8F4DF01A3
:1037D00016967F0126ECE20EF11C20E030E040E07E
:1037E00050E060E070E080E090E00D911C91119756
:1037F000095011090830110508F4F5C08091A8049A
:10380000893370F1828193818957910983359105BC
:1038100008F425C125C0D90112966D917C911397AA
:10382000665171096131710508F045C1D701C601C2
:10383000880F991FAA1FBB1F6C017D016894C0F8F7
:103840004E5F5F4F2C5F3F4F4B33510509F416C15C
:10385000D9016D917C916A50710969307105D8F276
:103860008091A804823231F4828193810A9709976A
:1038700008F431C18281938189579109833591057B
:10388000D0F48091A8048132B0F084819581CA97E8
:10389000899788F49F012A5F3F4FC12CD12C760174
:1038A00043E050E0D9016D917C916A507109693013
:1038B000710508F42FC1828193818C549109C597B9
:1038C00078F48091A804843031F4848195818097C4
:1038D000479708F482C18091A804843408F064C139
:1038E0008091A804863460F1828193810C970B97B4
:1038F00008F4C1C125C0D90112966D917C9113972E
:103900006E5171096731710508F0EDC1D701C6012B
:10391000880F991FAA1FBB1F6C017D016894C0F816
:103920004E5F5F4F2C5F3F4F4534510509F4BEC1D8
:10393000D9016D917C916C5071096B307105D8F291
:103940008091A804883508F43DC28281938185580E
:1039500091098B35910508F4D6C134C24CEB51E086
:10396000BE016D5F7F4FCE0101960E94A6214C01E2
:103970000330110569F44CEB51E0BE016D5F7F4FE0
:10398000CE0101960E94A6218816990609F011CF52
:10399000A114B10459F48A94892809F00ACFCC0CF7
:1039A000DD1CEE1CFF1C6894C0F80BC0AA94AB2869
:1039B00009F0FFCE892809F0FCCECC0CDD1CEE1CF2
:1039C000FF1C0F5F1F4FD0CE1093DE030093DD036B
:1039D000C092D903D092DA03E092DB03F092DC03C9
:1039E00082E090E0BEC112960D911C911397015197
:1039F00011090D30110528F501E00E949A2221607D
:103A00001496AE15BF0509F0F0CE2093D90330937C
:103A1000DA034093DB035093DC0300E20E94B522FB
:103A20002093D7033093D80385E090E09093D6039A
:103A30008093D50380E390E09093DE038093DD03D1
:103A400094C112960D911C911397045011090530E1
:103A5000110508F0D3CE01E00E949A22D1CF8481D3
:103A60009581CA97899708F0FBCE9F012A5F3F4F47
:103A7000C12CD12C760143E050E0EACE9F012A58B8
:103A80003F4FD9012D913C912A5031092930310500
:103A900008F0E6CE2CE130E03093DE032093DD0326
:103AA000C092D903D092DA03E092DB03F092DC03F8
:103AB0008AE090E056C1D90112966D917C911397DE
:103AC000665071096730710508F0CACECC0CDD1C58
:103AD000EE1CFF1CB5CE2091A804CF01820F911DD2
:103AE000820F911DDC0112978D919C910A97099785
:103AF00008F0C0CE1092DE031092DD038FEF9FEF2F
:103B0000DC018093D9039093DA03A093DB03B09395
:103B1000DC0347C0D90112966D917C9113976651D1
:103B200071096131710568F5D701C601880F991FC8
:103B3000AA1FBB1F6C017D016894C0F84E5F5F4FE8
:103B40002C5F3F4F4332510509F0ACCE9F012A5BF9
:103B50003F4FD9012D913C912A503109293031052F
:103B600008F0A9CE20E130E03093DE032093DD039E
:103B7000C092D903D092DA03E092DB03F092DC0327
:103B800010C0D90112966D917C91139766507109FE
:103B90006730710508F08FCECC0CDD1CEE1CFF1CCD
:103BA000CDCF86E090E0DDC0848195818954910974
:103BB000C39708F095CE9F012A5F3F4FBF016A5718
:103BC0007F4FC12CD12C7601D9014D915C91495088
:103BD000510949305105B8F083CE86819781099704
:103BE000099708F078CE1092DE031092DD038FEF74
:103BF0009FEFDC018093D9039093DA03A093DB035A
:103C0000B093DC03CBC1D90112964D915C9113970F
:103C10004651510941315105F0F4D701C601880FD1
:103C2000991FAA1FBB1F6C017D016894C0F82C5F0F
:103C30003F4F2617370741F620E230E03093DE038E
:103C40002093DD03C092D903D092DA03E092DB0324
:103C5000F092DC03A3C1D90112964D915C911397A8
:103C6000465051094730510508F03ACECC0CDD1CC6
:103C7000EE1CFF1CDCCF848195810997099708F021
:103C80005FCE868197818C974F9708F059CE8085BB
:103C9000918589974D9708F053CE9F01265F3F4F3E
:103CA000C12CD12C760145E050E042CE9F01265731
:103CB0003F4FD9012D913C912C5031092B303105CA
:103CC00008F03ECE20E230E03093DE032093DD03A7
:103CD000C092D903D092DA03E092DB03F092DC03C6
:103CE00088E090E03EC0D90112966D917C911397C7
:103CF000695071096930710508F022CECC0CDD1CC9
:103D0000EE1CFF1C0DCE84819581825491098E9703
:103D100008F058C08F01045C1F4F8DE190E040E037
:103D200050E02091A80430E0245031098217930715
:103D3000FCF00197959587959093DE038093DD03C2
:103D40008A970CF43FC0052E000C660B770B40934E
:103D5000D9035093DA036093DB037093DC0389E0AB
:103D600090E09093D6038093D50381E090E019C151
:103D7000980122503109D9012D913C9129503109E6
:103D800028303105F8F4BC016F5F7F4FD8012D91C9
:103D90003C91275031092730310538F4440F551F25
:103DA000416002960C5F1F4FBCCFD8012D913C9112
:103DB000285131092231310510F0CB01BACF440F1F
:103DC000551FEFCF8091A8048032E1F48281938166
:103DD00006970697B8F4848195810997099790F41E
:103DE0009F012A5F3F4FBF01625C7F4FC12CD12CE6
:103DF0007601D9014D915C914650510946305105EB
:103E000008F47EC08091E1039091E2039E838D834C
:103E100006970CF4B0C08F010E5F1F4F75ECC72ED4
:103E20007DE9D72E7CE1E72E71E8F72EE3E02E2E18
:103E3000312CD80114966D917C911597AD90BC9062
:103E400080E090E00E9414242B013C01B50180E049
:103E500090E00E9414244B015C012DEC3CEC4CE4FE
:103E60005FE30E94C6249B01AC01C301B2010E9422
:103E7000672387FD17C02DEC3CEC4CE45FE3C301E6
:103E8000B2010E94C6249B01AC01C501B4010E948D
:103E90006723E82F880FFF0BEE27FF0FEE1FFF278A
:103EA000319602C0E0E0F0E0A701960163E971E01D
:103EB00080E091E00E941E226F01FF0FEE08FF08D4
:103EC000C626D726E826F926BFEF2B1A3B0A0E5F37
:103ED0001F4FED81FE81E215F30509F0AACFC092D4
:103EE000D903D092DA03E092DB03F092DC0380E2A4
:103EF00090E09093DE038093DD038FEF9FEF31CF4F
:103F0000D90112964D915C91139749515109433152
:103F1000510508F5D701C601880F991FAA1FBB1FBD
:103F20006C017D016894C0F82C5F3F4F261737075E
:103F300009F05FCF2EE030E03093DE032093DD0305
:103F4000C092D903D092DA03E092DB03F092DC0353
:103F50008FE090E006CFD90112964D915C911397B6
:103F6000495051094930510508F04CCFCC0CDD1CAB
:103F7000EE1CFF1CD9CF82E08093A4041092A80409
:103F800080E090E00EC08093D9039093DA03A09371
:103F9000DB03B093DC0383E090E0E3CE87E090E0C6
:103FA000E0CE26960FB6F894DEBF0FBECDBFDF91F0
:103FB000CF911F910F91FF90EF90DF90CF90BF9026
:103FC000AF909F908F907F906F905F904F903F90B9
:103FD0002F900895789484B5826084BD84B5816003
:103FE00084BD85B5826085BD85B5816085BD8091C4
:103FF0006E00816080936E0010928100809181003C
:104000008260809381008091810081608093810033
:10401000809180008160809380008091B1008460F5
:104020008093B1008091B00081608093B000809156
:104030007A00846080937A0080917A008260809315
:104040007A0080917A00816080937A0080917A0072
:10405000806880937A001092C100E0910B04F09187
:104060000C0482E08083E0910704F0910804108240
:10407000E0910904F0910A0483E380831092130411
:10408000E0910F04F0911004C6E0C083E0910D04AC
:10409000F0910E04808180618083E0910D04F091A5
:1040A0000E04808188608083E0910D04F0910E04FD
:1040B000808180688083E0910D04F0910E048081FE
:1040C0008F7D80831092B7031092B6031092B503D0
:1040D0001092B4031092B30381E08093B203109264
:1040E000B10361E082E10E94D81261E083E10E94A5
:1040F000D8128091B9008E7F8093B9008091B90069
:104100008D7F8093B90088E48093B80085E4809324
:10411000BC008BEF9AE09093B0038093AF0387E0ED
:104120009BE09093AE038093AD03C093BA0087E900
:1041300098E19093B9038093B80380E098E190935D
:10414000BB038093BA03549A5C9880E090E0FC0132
:10415000EE53FC4F8083019689309105C1F783E0CF
:104160008093BE038FB78093BF03F89488EA91E6EB
:104170009093BD038093BC03909387008093860047
:104180008091BF038FBF80918100887F80938100E1
:10419000909181008091BE03982B9093810022E63C
:1041A0003CE03093C1032093C00391E090936F00F3
:1041B00090918100892B809381008091CB0388238B
:1041C00029F00E948C001092CB0302C00E948C0048
:1041D0000E94BF0AF2CFCF92DF92EF92FF92CF936D
:1041E000DF93EC01072E000C880B990B0E9416241C
:1041F0006B017C0120E030E040E45FE30E94C624D4
:1042000020E030E048E452E40E946C230E94DE2368
:10421000C617D707D4F020E030E040EA5FE3C701DB
:10422000B6010E94C62420E030E048E452E40E9437
:104230006C2320E030E040E85FE30E94FB220E9414
:10424000DE2321E06C177D070CF420E0822F90E044
:10425000DF91CF91FF90EF90DF90CF9008950F9373
:104260001F93CF93DF93EC01862F688349832A83C2
:1042700061E00E94071361E089810E9407138A812F
:1042800061E070E023E0829FC00111240E94332589
:104290009C838B8310E08A81181748F400E020E0AB
:1042A00040E0612FCE010E94BE161F5FF4CFDF9168
:1042B000CF911F910F910895EBEFF3E013821282DB
:1042C00088EE93E0A0E0B0E084839583A683B78373
:1042D0002CE231E03183208325EC30E035872487E0
:1042E00024EC30E03787268720EC30E0318B208BC0
:1042F00021EC30E0338B228B22EC30E0358B248BA9
:1043000026EC30E0378B268B118E128E138E148E96
:10431000E8E9F4E01382128284839583A683B7834D
:104320008EE391E091838083E4EAF4E082E081838C
:104330001382E6E7F5E080E286838587848B838FAE
:1043400082A381A780AB87AB86AF08958F929F929F
:10435000AF92BF92CF92DF92EF92FF920F931F9393
:10436000CF93DF93FC0120813181E091E103F09153
:10437000E2032E173F070CF04FC0F901EE0FFF1FAD
:10438000A091DF03B091E003EA0FFB1FA080B18092
:10439000217033276901F1E0CF26232B19F42CE992
:1043A0003FEF02C024E630E07A018B01EC014901C5
:1043B000840E951EB401C5010E94EB20892B99F44F
:1043C0008E0C9F1CB401C5010E94EB20892B71F457
:1043D000B701680D791DC5010E94EB20892BF9F00A
:1043E00023E030E005C021E030E002C022E030E010
:1043F000F801808191810196821793071CF49183C3
:10440000808308C0F8011182108288819981019609
:1044100099838883C60105C081E090E002C08FEFD8
:104420009FEFDF91CF911F910F91FF90EF90DF9061
:10443000CF90BF90AF909F908F900895DB018F93A6
:104440009F930E948F22BF91AF91A29F800D911DDB
:10445000A39F900DB29F900D11240895991B79E0B0
:1044600004C0991F961708F0961B881F7A95C9F704
:104470008095089597FB072E16F4009407D077FDDA
:1044800009D00E94D12207FC05D03EF49095819579
:104490009F4F0895709561957F4F0895A1E21A2E60
:1044A000AA1BBB1BFD010DC0AA1FBB1FEE1FFF1FD8
:1044B000A217B307E407F50720F0A21BB30BE40B28
:1044C000F50B661F771F881F991F1A9469F760956F
:1044D0007095809590959B01AC01BD01CF01089529
:1044E000052E97FB1EF400940E94872257FD07D0EB
:1044F0000E944E2207FC03D04EF40C948722509564
:104500004095309521953F4F4F4F5F4F08959095BF
:104510008095709561957F4F8F4F9F4F08950E94B2
:10452000EB22A59F900DB49F900DA49F800D911D2F
:10453000112408950F93083090F0982F872F762F2D
:10454000652F542F432F322F22270850F4CF220FEC
:10455000331F441F551F661F771F881F991F0A9519
:10456000B2F70F91089597FB10F8169400080F9377
:10457000083098F00850232F342F452F562F672FDF
:10458000782F892F902DF4CF05949795879577955F
:10459000679557954795379527950A95AAF70F91EF
:1045A0000895AA1BBB1B51E107C0AA1FBB1FA6177A
:1045B000B70710F0A61BB70B881F991F5A95A9F7CC
:1045C00080959095BC01CD010895EE0FFF1F0590D9
:1045D000F491E02D0994A29FB001B39FC001A39F65
:1045E000700D811D1124911DB29F700D811D11242C
:1045F000911D08955058BB27AA270E9412230C949E
:104600008C240E947E2438F00E94852420F039F406
:104610009F3F19F426F40C947B240EF4E095E7FBFD
:104620000C947524E92F0E949D2458F3BA17620751
:1046300073078407950720F079F4A6F50C94BF243E
:104640000EF4E0950B2EBA2FA02D0B01B9019001AD
:104650000C01CA01A0011124FF27591B99F0593FF1
:1046600050F4503E68F11A16F040A22F232F342F39
:104670004427585FF3CF469537952795A795F04087
:104680005395C9F77EF41F16BA0B620B730B840B9C
:10469000BAF09150A1F0FF0FBB1F661F771F881F54
:1046A000C2F70EC0BA0F621F731F841F48F48795AC
:1046B00077956795B795F7959E3F08F0B0CF93959E
:1046C000880F08F09927EE0F9795879508950E9417
:1046D000512408F481E008950E9480230C948C24D6
:1046E0000E94852458F00E947E2440F029F45F3F08
:1046F00029F00C94752451110C94C0240C947B2443
:104700000E949D2468F39923B1F3552391F3951BDF
:10471000550BBB27AA2762177307840738F09F5FE2
:104720005F4F220F331F441FAA1FA9F335D00E2E4F
:104730003AF0E0E832D091505040E695001CCAF7BC
:104740002BD0FE2F29D0660F771F881FBB1F26177F
:1047500037074807AB07B0E809F0BB0B802DBF0156
:10476000FF2793585F4F3AF09E3F510578F00C9425
:1047700075240C94C0245F3FE4F3983ED4F38695EF
:1047800077956795B795F7959F5FC9F7880F911D46
:104790009695879597F90895E1E0660F771F881F32
:1047A000BB1F621773078407BA0720F0621B730BE5
:1047B000840BBA0BEE1F88F7E09508950E94E5235D
:1047C0006894B1110C94C02408950E94A52488F027
:1047D0009F5798F0B92F9927B751B0F0E1F0660FC5
:1047E000771F881F991F1AF0BA95C9F714C0B13006
:1047F00091F00E94BF24B1E008950C94BF24672F6C
:10480000782F8827B85F39F0B93FCCF38695779534
:104810006795B395D9F73EF490958095709561951D
:104820007F4F8F4F9F4F0895E89409C097FB3EF448
:1048300090958095709561957F4F8F4F9F4F9923ED
:10484000A9F0F92F96E9BB279395F695879577956B
:104850006795B795F111F8CFFAF4BB0F11F460FF2B
:104860001BC06F5F7F4F8F4F9F4F16C0882311F083
:1048700096E911C0772321F09EE8872F762F05C097
:10488000662371F096E8862F70E060E02AF09A9532
:10489000660F771F881FDAF7880F9695879597F927
:1048A0000895990F0008550FAA0BE0E8FEEF1616C1
:1048B0001706E807F907C0F012161306E407F50714
:1048C00098F0621B730B840B950B39F40A2661F088
:1048D000232B242B252B21F408950A2609F4A1402B
:1048E000A6958FEF811D811D089597F99F6780E838
:1048F00070E060E008959FEF80EC089500240A9432
:104900001616170618060906089500240A941216AA
:104910001306140605060895092E0394000C11F4DD
:10492000882352F0BB0F40F4BF2B11F460FF04C08A
:104930006F5F7F4F8F4F9F4F089557FD9058440FE3
:10494000551F59F05F3F71F04795880F97FB991FEE
:1049500061F09F3F79F087950895121613061406AB
:10496000551FF2CF4695F1DF08C016161706180638
:10497000991FF1CF86957105610508940895E89413
:10498000BB2766277727CB0197F908950E94D92482
:104990000C948C240E947E2438F00E94852420F000
:1049A000952311F00C9475240C947B2411240C9401
:1049B000C0240E949D2470F3959FC1F3950F50E091
:1049C000551F629FF001729FBB27F00DB11D639FC1
:1049D000AA27F00DB11DAA1F649F6627B00DA11D67
:1049E000661F829F2227B00DA11D621F739FB00D0D
:1049F000A11D621F839FA00D611D221F749F33277D
:104A0000A00D611D231F849F600D211D822F762F15
:104A10006A2F11249F5750409AF0F1F088234AF0F2
:104A2000EE0FFF1FBB1F661F771F881F915050405E
:104A3000A9F79E3F510580F00C9475240C94C02476
:104A40005F3FE4F3983ED4F3869577956795B795E5
:104A5000F795E7959F5FC1F7FE2B880F911D9695FF
:104A6000879597F908950F931F93CF93DF93869FB0
:104A70008001879F100D969F100D1124C8010E9480
:104A80004F25EC01009729F0A80160E070E00E943A
:104A90007526CE01DF91CF911F910F9108950F934D
:104AA0001F93CF93DF938230910510F482E090E062
:104AB000E091ED05F091EE0520E030E0A0E0B0E0FF
:104AC000309719F1408151810281138148175907AC
:104AD000C8F08417950769F4109731F012960C937B
:104AE000129713961C9327C00093ED051093EE05C3
:104AF00022C02115310519F04217530718F49A0105
:104B0000BD01EF01DF01F801DBCF21153105F9F01F
:104B1000281B390B2430310580F48A819B81611573
:104B2000710521F0FB019383828304C09093EE050D
:104B30008093ED05FE01329644C0FE01E20FF31FA3
:104B40008193919322503109398328833AC020916F
:104B5000EB053091EC05232B41F4209102013091BB
:104B600003013093EC052093EB0520910001309177
:104B700001012115310541F42DB73EB740910401E3
:104B800050910501241B350BE091EB05F091EC05EC
:104B9000E217F307A0F42E1B3F0B2817390778F014
:104BA000AC014E5F5F4F2417350748F04E0F5F1F73
:104BB0005093EC054093EB058193919302C0E0E0A4
:104BC000F0E0CF01DF91CF911F910F910895CF9326
:104BD000DF93009709F481C0FC013297138212829F
:104BE000A091ED05B091EE05109781F420813181FF
:104BF000820F931F2091EB053091EC0528173907A0
:104C000051F5F093EC05E093EB0567C0ED0120E072
:104C100030E0CE17DF0740F44A815B819E014115E9
:104C20005105F1F0EA01F5CFD383C2834081518170
:104C3000840F951FC817D90759F488819981840F6B
:104C4000951F0296918380838A819B8193838283BF
:104C50002115310529F4F093EE05E093ED053DC0F3
:104C6000E901FB83EA8349915991C40FD51FEC17E1
:104C7000FD0761F480819181840F951F0296E901FF
:104C800099838883828193819B838A83E0E0F0E02B
:104C900012968D919C911397009719F0FD01DC01FC
:104CA000F7CF8D919C9111979D012E5F3F4F820F01
:104CB000931F2091EB053091EC052817390769F413
:104CC000309729F41092EE051092ED0502C0138280
:104CD0001282B093EC05A093EB05DF91CF9108957C
:104CE00081E090E0F8940C947C26DC0101C06D9387
:0C4CF00041505040E0F70895F894FFCFC9
:104CFC000000EF052000FFFFFFFF440367038A035A
:104D0C003F065B4F666D7D077F6F777C395E7971EF
:104D1C0001000A006400E803000000003E12AB1121
:104D2C00D5118B120612E411F81100000000680B6B
:104D3C005D0B7A0B310B550B410B320B0D0A00003E
:00000001FF
