:100000000C9462000C948A000C948A000C944C0EA0
:100010000C94A20D0C94F80C0C948A000C94AD1561
:100020000C948A000C948A000C948A000C948A0028
:100030000C948A000C9439150C948A000C948A0054
:100040000C94E8120C948A000C9458130C943213FC
:100050000C948A000C948A000C948A000C948A00F8
:100060000C94F60E0C948A00000000002400270077
:100070002A0000000000250028002B0000000000DE
:1000800023002600290004040404040404040202DA
:100090000202020203030303030301020408102007
:1000A0004080010204081020010204081020000012
:1000B0000008000201000003040700000000000027
:1000C00000007E2111241FBECFEFD8E0DEBFCDBFE0
:1000D00011E0A0E0B1E0E2E8FDE402C005900D927D
:1000E000AC34B107D9F725E0ACE4B1E001C01D9212
:1000F000AD3EB207E1F710E0C2E6D0E004C02197C0
:10010000FE010E941C23C136D107C9F70E940B20B3
:100110000C94BF260C9400008F929F92AF92BF92D6
:10012000CF92DF92EF92FF920F931F93CF93DF93C3
:1001300000D000D0CDB7DEB78091B6059091B7055D
:10014000049739F48091B8059091B905892B09F489
:10015000E4C18091E405863009F07BC08091B4054C
:100160009091B505019711F00C94A30A8091E505D3
:100170008F70F82E2091E50530E0B4E03595279595
:10018000BA95E1F7822F8370E82ED090E505409173
:10019000E6058091E70550E0542F44275A01A80E48
:1001A000B11C0F2D10E0F801E75EFD4F4F0180817B
:1001B000882319F08F2D0E94241062E08F2D0E9459
:1001C000361281E0F4018083F801E257FD4FE082AE
:1001D000A50160E070E0F801A3E0EE0FFF1FAA9513
:1001E000E1F7EF52FE4F40835183628373831482A1
:1001F000158216821782E1100AC02D2D22952695B0
:1002000026952370A80140545C4F01E01CC0F1E02A
:10021000EF127DC18CE0809FF001819FF00D1124D1
:10022000EE5DFD4F108211821282138214821582BC
:10023000168217821086118612861386A8014054F2
:100240005C4F00E021E061ED7BE08F2D0E948A137E
:100250005EC18091E405893059F48091B405909194
:10026000B505019711F00C94A30A8091E5054DC1E5
:100270008091E4058A3051F58091B4059091B505DF
:10028000019711F00C94A30AE091E50524E0E29FA8
:10029000F0011124E355FE4F80819181A281B38149
:1002A0002091E4052093CF058093D005492F5A2F44
:1002B0006B2F77274093D105AD01662777274093B1
:1002C000D2058B2F9927AA27BB2705C18091E4056A
:1002D0008B30D1F48091B4059091B505019711F060
:1002E0000C94A30A00E010E0F801E75EFD4F808166
:1002F000882319F0802F0E9424100F5F1F4F0930B0
:10030000110591F70C94A30A8091E4058C30E1F576
:100310008091B4059091B505019711F00C94A30A52
:100320002091E5052A30F0F080E090E040E050E0D8
:10033000FC01E75EFD4F208130E0082E02C0220F55
:10034000331F0A94E2F7420F531F0196893091053B
:1003500079F78091E4058093CF054093D0055093C1
:10036000D105D5C08091E4058093CF051092D005CA
:10037000E22FF0E0E75EFD4F808101C0880F2A95F3
:10038000EAF78093D105C3C08091E4058E3009F06F
:1003900053C08091B4059091B505019711F00C946C
:1003A000A30A1091E5059090E605183008F0AFC05B
:1003B000C12ED12CC601875E9D4F5C01FC0180815E
:1003C00001E0010F882331F0812F0E942410802F3B
:1003D0000E94241027E02C9DC0012D9D900D11241A
:1003E0009C012C583A4F7901F90110830183128244
:1003F0001382148215829682808162E00E943612F6
:10040000F701818162E00E943612F601E65EFD4F3F
:1004100081E08083F5018083F701808100E022E0A4
:10042000A70161E77BE00E948A13F701818122E046
:10043000A70161E77BE00ACF8091E4058D3009F0E8
:100440004DC08091B4059091B505019711F00C94C1
:10045000A30AE091E50527E0E29FF0011124EC58A2
:10046000FA4F82809380A480B5806401092C000C2F
:10047000EE08FF08F7FE14C0E091F903F091FA03CB
:100480000190F081E02D6DE289EF93E009956627F8
:100490007727CB016C197D098E099F094AE003C0BB
:1004A0004AE0C701B6010E94DC1789E491E00E948E
:1004B000CA178091E4058093CF058092D005892DDD
:1004C00099278093D105990F880B982F8093D20597
:1004D000990F880B982F8093D30519C08091E4055C
:1004E0008F3011F00C94A30A8091B4059091B5055A
:1004F000019711F00C94A30A1091E505183038F417
:10050000812F0E94241081E0810F0E9424101092FC
:10051000B5051092B4050C94A30A81E090E0909385
:10052000B9058093B8058091E405813049F4809144
:10053000E4058093CF058091E5050E94DD119DC201
:100540008091E405823029F46091E6058091E5050B
:1005500030C08091E4058330C1F48091E5050E94AC
:1005600072129093AC018093AB012091E40520932B
:10057000CF059C0197FF02C021503F4F3093D0051B
:1005800060E071E00E9471222EC48091E405843005
:1005900009F05EC00091E605E02EF12C1091E50512
:1005A00061E0812F0E943612E114F10429F460E029
:1005B000812F0E940612C7C72FEFE216F10409F43B
:1005C00045C0E12FF0E0E255FF4FE491E330F9F050
:1005D00048F4E130B9F0E230A1F584B5806284BD21
:1005E00008BDB1C7E730E9F0E83019F1E43049F56A
:1005F00080918000806280938000F0928B00E09276
:100600008A00A1C784B5806884BD07BD9CC780915E
:100610008000806880938000F0928900E0928800DA
:1006200092C78091B00080688093B0000093B300BF
:100630008AC78091B00080628093B0000093B400BC
:1006400082C730E8E316F1040CF4B1CF61E0B0CF1B
:100650008091E405853029F46091E6058091E505F7
:10066000E2C18091E405873009F060C0F090E505B3
:100670000F2D10E01093AA010093A90161E08F2DC6
:100680000E94361260E08F2D0E94061283E090E0F7
:100690000197F1F761E08F2D0E9406128FE090E044
:1006A0000197F1F760E08F2D0E94061260E08F2D18
:1006B0000E943612F801E656FF4F6491F801EA579E
:1006C000FF4FE491F0E0EE0FFF1FE458FF4F8591DC
:1006D000949108EF14E221E030E0462F0E94FB18CD
:1006E000611571058105910549F0DC01CB01019689
:1006F000A11DB11DBC01CD019F7003C060E070E081
:10070000CB012AE330E040E050E00E94A722809134
:10071000E4058093CF05BB2757FDBA95A52F942FED
:10072000832F8093D0052093D1050DC78091E405D8
:10073000883069F48091E4058093CF0581E080934F
:10074000D00584E08093D1051092D205FCC680913B
:10075000E405883209F032C18091B4059091B50565
:10076000892B09F4F0C68091E605811104C08091BF
:10077000E5056BE013C08091E605813021F480919E
:10078000E50566E10BC08091E605823021F080919D
:10079000E605833029F48091E50565E10E94531751
:1007A00061E08091E9030E9406126AEF70E080E048
:1007B00090E00E94AE122FB7F8948091CA039091F6
:1007C000CB03A091CC03B091CD032FBF4091EC039C
:1007D0005091ED036091EE037091EF03841795073C
:1007E000A607B70740F41092EC031092ED031092A5
:1007F000EE031092EF032091F003211112C04091FB
:10080000EC035091ED036091EE037091EF03841BB4
:10081000950BA60BB70B803D9740A105B10508F4D9
:1008200089C01092F0032FB7F8948091CA03909179
:10083000CB03A091CC03B091CD032FBF8093EC03E9
:100840009093ED03A093EE03B093EF031092E703B0
:100850001092E6031092E5031092E4031092E30372
:1008600061E08091E9030E94361260E08091E90323
:100870000E94061264E170E080E090E00E94AE12F7
:10088000F89461E08091E9030E9406128BE990E000
:100890000197F1F760E08091E9030E943612F12C94
:1008A00010E081E000E0C82ED12C8091E9030E9485
:1008B000DD118C159D0519F40F5F0F3FB1F7809185
:1008C000E9030E94DD110F3FC1F0143098F010FDD4
:1008D00011C0EF2DE695E695E695F0E0ED51FC4F61
:1008E0009081990F90832091EB03201710F4916071
:1008F0009083F3941F5F1535A9F67894F7E2FF15FE
:10090000B0F42091E70330E04091E3038091E403E9
:1009100090E0840F911D4091E503840F911D40915B
:10092000E603840F911D99272817390719F080E0F5
:1009300090E025C08091EA038B3009F0A1C060915E
:10094000E50370E080E090E00E944B246093F103A7
:100950007093F2038093F3039093F4036091E303A5
:1009600070E080E090E00E944B246093F503709368
:10097000F6038093F7039093F80381EF93E02091BF
:10098000E4052093BA05FC0120E030E02F5F3F4FE3
:100990004191D901A654BA4F4C9324303105B1F797
:1009A000FC01349685E090E02191DC01A654BA4F19
:1009B0002C93019689309105B9F7A9CD8091E40572
:1009C0008233A1F56091E6054091E5058091E5054A
:1009D0008F5F2091E50530E02250310997E0929F2A
:1009E000F001939FF00D1124E158FE4FA82FB0E0C5
:1009F000B183A08350E05383428391E0611101C031
:100A000090E0948397E0929F8001939F100D1124B2
:100A100001581E4FF8011682158261E00E943612BD
:100A200061E0F80182810E9436128DC58091E40553
:100A3000833309F0AAC08091E50590E0029747E072
:100A4000489FF001499FF00D1124E158FE4F80812D
:100A50009181892B09F07AC098C08091E405853195
:100A600009F408C58091E405883109F06CC58091CE
:100A7000E4058093CF050E9440198093D00563C59B
:100A80008B3008F47ACF8551823008F076CF109100
:100A9000E503612F6F7770E080E090E00E944D24C5
:100AA00020E030E040E853E40E94FD246B017C012B
:100AB0008091E603682F70E080E090E00E944D2472
:100AC0009B01AC01C701B6010E94322320E030E057
:100AD00040E251E40E94A32317FD09C06093F10393
:100AE0007093F2038093F3039093F4030BC0DC0143
:100AF000CB01B0588093F1039093F203A093F303DA
:100B0000B093F4036091E30370E080E090E00E9412
:100B10004B2420E030E040E853E40E94FD246B01C8
:100B20007C018091E403682F70E080E090E00E94F7
:100B30004D249B01AC01C701B6010E94322320E085
:100B400030E040E251E40E94A3230FCF9091E605EC
:100B50002091E50530E022503109429FF001439F8A
:100B6000F00D1124E158FE4F81E0911101C080E0A9
:100B7000848347E0429FC001439F900D1124815818
:100B80009E4FFC01658176812BC18091E405843301
:100B900079F58091E50590E0029727E0289FF00124
:100BA000299FF00D1124E158FE4F80819181892BFE
:100BB000F9F08091E6052091E50530E022503109F9
:100BC0008B3008F08AE06FEF7FEF02C0660F771F6F
:100BD0008A95E2F76095709547E0429FC001439F78
:100BE000900D112481589E4FFC0176836583F8C0D7
:100BF0008091E405853381F48091E50590E00297CA
:100C000027E0289FF001299FF00D1124E158FE4FA5
:100C100080819181892BB9F48091E405863309F0B4
:100C200060C08091E50590E0029757E0589FF00181
:100C3000599FF00D1124E158FE4F80819181892B3D
:100C400009F066C04EC03091E7059091E6054091ED
:100C5000E50550E042505109249FF001259FF00D19
:100C60001124E158FE4F9923D1F19B3008F09AE00E
:100C7000915061E070E002C0660F771F9A95E2F72D
:100C8000332379F087E0849FD001859FB00D112434
:100C9000A158BE4F15962D913C911697622B732B40
:100CA00010C06095709587E0849FD001859FB00D3E
:100CB0001124A158BE4F15962D913C911697622391
:100CC000732387E0849FD001859FB00D1124A15824
:100CD000BE4F16967C936E931597CF0181C091E01D
:100CE000C7CF8091E405873309F040C08091E505C6
:100CF00090E0029747E0489FF001499FF00D1124D2
:100D0000E158FE4F80819181892B09F057C02EC098
:100D10009091E6052091E50530E022503109529F7F
:100D2000B001539F700D1124AB0141585E4F9923C0
:100D3000D9F09B3008F09AE0915061E070E002C079
:100D4000660F771F9A95E2F787E0829FF001839FF5
:100D5000F00D1124E158FE4F25813681622773275B
:100D600076836583CA013CC091E0E6CF8091E405BB
:100D70008833E1F58091E50590E0029727E0289F10
:100D8000F001299FF00D1124E158FE4F80819181DF
:100D9000892B61F18091E50590E00297289FF00191
:100DA000299FF00D1124E158FE4F958186812091F5
:100DB000E4052093CF059093D00515C06091E6051A
:100DC0008091E7052091E50570E0782B30E0225016
:100DD0003109429FC001439F900D112481589E4FBD
:100DE0000E946716B0C38093D105ADC38091E4051E
:100DF000863429F59091E5058091E5050091E5059A
:100E000010E0025011099801220F331F020F131F27
:100E100003591E4FF80180839F5F918360E00E9419
:100E2000361260E0F80181810E94361260E0F8011C
:100E300080810E94061260E0F8018181BACB809126
:100E4000E405873479F48091E50590E00297FC0190
:100E5000EE0FFF1F8E0F9F1FFC01E359FE4F808195
:100E6000811124C08091E4058834A9F58091E505BD
:100E700090E00297FC01EE0FFF1F8E0F9F1FFC01F9
:100E8000E359FE4F8081882331F16091E60590910E
:100E9000E7058091E50570E0792B90E002979C01D1
:100EA000220F331F820F931F40E038C02091E605C8
:100EB0008091E50590E00297283058F4285FFC0106
:100EC000EE0FFF1F8E0F9F1FFC01E359FE4F228381
:100ED0003AC32FE0F4CF8091E405893421F5809165
:100EE000E50590E00297FC01EE0FFF1F8E0F9F1F9C
:100EF000FC01E359FE4F80818823A9F06091E6054B
:100F00009091E7058091E50570E0792B90E00297DC
:100F10009C01220F331F820F931F41E083599E4F84
:100F20000E946B1710C38091E4058A34C9F4809144
:100F3000E50590E00297FC01EE0FFF1F8E0F9F1F4B
:100F4000FC01E359FE4F8081882351F0E091E705D1
:100F50008091E505EF70F0E0E45FFE4F808115C001
:100F60008091E4058B34F9F48091E50590E00297D7
:100F7000FC01EE0FFF1F8E0F9F1FFC01E359FE4F78
:100F80008081882381F08091E70589832091E6059F
:100F90008091E50590E00297AC01440F551F840F46
:100FA000951F41E0B2C28091E4058C3409F044C041
:100FB0008091E50590E00297FC01EE0FFF1F8E0F78
:100FC0009F1FFC01E359FE4F80818823A9F1809186
:100FD000E6059091E5052AE0622F0E9465228F7058
:100FE000E82FF0E0E45FFE4F808189838091E60581
:100FF0009091E5050E946522E92FF0E0E45FFE4F45
:10100000808180688A838091E7059091E5050E9440
:1010100065228F70E82FF0E0E45FFE4F80818B83C4
:101020008091E7059091E5050E946522E92FF0E0A7
:10103000E45FFE4F80814EC08091E4058D3499F5C8
:101040008091E50590E00297FC01EE0FFF1F8E0FE7
:101050009F1FFC01E359FE4F8081882321F1D0902E
:10106000E605E090E705F4E0EF9E7001112400E052
:1010700010E00E151F0509F466C28D2D0E94721234
:10108000BC012091E50530E022503109C901880FEB
:10109000991F820F931F40E083599E4F0E946B1748
:1010A0000F5F1F4FE6CF8091E4058E34A9F4809145
:1010B000E50590E00297FC01EE0FFF1F8E0F9F1FCA
:1010C000FC01E359FE4F8081882331F08FEF898343
:1010D0008A838B838C830EC28091E4058F3479F4EC
:1010E0008091E50590E00297FC01EE0FFF1F8E0F47
:1010F0009F1FFC01E359FE4F80818111F7C1809150
:10110000E4058A3569F48091E50580936A01809150
:10111000E60580936B018091E70580936C0113C213
:101120008091E4058B35B1F42091E6054091E50509
:101130006091E505E091E5054F5FF0E0329735E01D
:101140003E9FC0013F9F900D1124845B9E4F0E94E3
:101150005121F9C18091E4058C3509F047C02091F7
:10116000E6054091E5056091E505E091E5054F5FF5
:10117000F0E0329735E03E9FC0013F9F900D112473
:10118000845B9E4F0E9451214091E70542FB44271A
:1011900040F9E42EE1941091E70516951170119530
:1011A0008091E7058170F82EF194C12CD12C45E097
:1011B000B42E8091E60590E0C816D9060CF0C3C1A4
:1011C0002091E50530E022503109B29EC001B39E66
:1011D000900D11240F2D212F4E2D6C2D845B9E4FD1
:1011E0000E94C416FFEFCF1ADF0AE3CF8091E40517
:1011F0008D3509F056C08091E605811118C06091C7
:10120000E7052091E50530E02250310945E0429F95
:10121000C001439F900D112400916C0120916B013E
:1012200040916A01845B9E4F0E94C4168CC18091DC
:10123000E50590E0029725E0289FF001299FF00D39
:101240001124E45BFE4FC280E12CF12CD12C15E07F
:10125000EC14FD040CF077C18091E605813039F47F
:101260008091E70590E0E816F90609F056C18091F3
:10127000E605823039F48091E70590E08E159F05F0
:101280000CF04BC18091E605833039F48091E7057D
:1012900090E0E816F9060CF040C12FEFE21AF20ACE
:1012A000D7CF8091E4058E3509F043C08091E705E2
:1012B000811103C081E08093E7058091E50590E00E
:1012C000029725E0289FF001299FF00D1124E45B8F
:1012D000FE4FC280E090E605F12CD12C15E0EC1415
:1012E000FD040CF030C18091E6056091E705F7013F
:1012F000E81BF109CF0170E00E947122892BA9F44B
:101300002091E50530E022503109129FC001139F62
:10131000900D112400916C0120916B0140916A01A4
:101320006E2D845B9E4F0E94C416FFEFEF1AFF0ADA
:10133000D6CF8091E4058F3509F071C08091E50525
:1013400090E0029725E0289FF001299FF00D1124DD
:10135000E45BFE4FC2808091E705D12C81112FC044
:10136000E12CF12C15E0EC14FD040CF0ECC08091A4
:10137000E60590E02091E50530E022503109E816BD
:10138000F90664F4129FC001139F900D112400917F
:101390006C0120916B0140916A0108C0129FC0014D
:1013A000139F900D112400E020E040E06E2D845B3F
:1013B0009E4F0E94C4162FEFE21AF20AD4CF760194
:1013C00015E0E114F10409F4BEC08091E605F601D0
:1013D000E81BF1092091E50530E022503109EE16B5
:1013E000FF0664F0129FC001139F900D112400911D
:1013F0006C0120916B0140916A0108C0129FC001ED
:10140000139F900D112400E020E040E06E2D845BDE
:101410009E4F0E94C416F1E0EF1AF108D2CF8091DE
:10142000E405863109F019CB6091E50570E080E0B4
:1014300090E04AE00E94DC178091E5058093A304C8
:10144000F89482E08093B0008093B10094E690938A
:10145000B3001092B2008093700078948093A2043D
:101460001092A6048091A30460E00E9436121092AC
:10147000E40569C00E9440192091D303892B79F1BA
:101480008091E4058093CF052093D0059091D503FA
:101490008091D6039093D1058093D2058091D70394
:1014A0009091D803A091D903B091DA038093D3052A
:1014B000492F5A2F6B2F77274093D405AD0166270C
:1014C00077274093D5058B2F9927AA27BB27809391
:1014D000D60582E08093A2041092A60434C08091C5
:1014E000E4058093CF052093D0052DC019821A8280
:1014F0001B821C828091E50590E002979C01220FDF
:10150000331F820F931F20E044E0BE016F5F7F4FC7
:1015100083599E4F0E94601516C02091E50530E06A
:1015200022503109129FC001139F900D1124009188
:101530006C0120916B0140916A016E2D845B9E4F7E
:101540000E94C416AACE0F900F900F900F90DF91BB
:10155000CF911F910F91FF90EF90DF90CF90BF90B0
:10156000AF909F908F90089585ED8093BC008091FF
:10157000BC0084FDFCCF1092AD0308954091FB02A6
:10158000262F30E0240F311D21323105DCF420916B
:10159000AD032430C9F4FC0180E090E0861758F4D4
:1015A0003091FB022191DC01A552BD4FA30FB11D6B
:1015B0002C930196F3CF8091FB02680F6093FB029E
:1015C00080E0089581E0089582E00895E091B803F5
:1015D000F091B903309729F01092AF031092AE0347
:1015E00009940895CF93DF93AC01E091B603F09195
:1015F000B7033097F1F09091B1038091B003981741
:10160000C0F090E0292F30E02617370754F4D901B5
:10161000A554BD4FEA01C20FD31F88818C939F5FF1
:10162000F1CF1092B1036093B003CB01DF91CF9162
:101630000994DF91CF9108950895E091B1038091CD
:10164000B003E81730F4F0E0E554FD4F808190E0FE
:1016500008958FEF9FEF08959091B1038091B003AB
:10166000981750F4E92FF0E0E554FD4F208130E069
:101670009F5F9093B10302C02FEF3FEFC901089520
:101680008091B00390E02091B103821B91090895ED
:10169000CF93DF9300D0CDB7DEB7CB01642F498362
:1016A0005A830E94BE0A4981842F5A81952F0F9038
:1016B0000F90DF91CF910895CF93DF931F92CDB715
:1016C000DEB7698361E0CE0101960E94BE0A81E027
:1016D00090E00F90DF91CF910895089580E090E021
:1016E00008951F93CF93DF93EC0188810E94DD1151
:1016F000182F89810E94DD119C013327210F311D94
:1017000021303105A9F4181740F48A819B81AC81FE
:10171000BD810196A11DB11D07C08A819B81AC814D
:10172000BD810197A109B1098A839B83AC83BD83E5
:101730008A819B81AC81BD81B7FF05C01A821B8263
:101740001C821D8215C04A815B816C817D818E81E6
:1017500090E0A0E0B0E084179507A607B70744F42F
:101760008E8190E0A0E0B0E08A839B83AC83BD8350
:10177000688170E080E090E04AE00E94DC1788E435
:1017800091E00E94CA17698170E080E090E04AE031
:101790000E94DC1788E491E0DF91CF911F910C94B7
:1017A000CA17CF92DF92EF92FF920F931F93CF93BE
:1017B000DF93FC01C081D0E0FE01E257FD4F808144
:1017C000811112C0CC0FDD1FCC0FDD1FC956DD4FBC
:1017D00088819981AA81BB810196A11DB11D888351
:1017E0009983AA83BB8359C08081813009F055C099
:1017F00061110FC00E9489122CE02C9FF0012D9FD7
:10180000F00D1124EE5DFD4F60877187828793870D
:101810000EC00E9489122CE02C9FF0012D9FF00D2C
:101820001124EE5DFD4F64837583868397832CE0DE
:101830002C9FC0012D9F900D1124EC01CE5DDD4F3A
:101840008C819D81AE81BF81088519852A853B8564
:10185000081719072A073B0700F5C880D980EA80D6
:10186000FB80BC01CD01601B710B820B930B28EE3A
:1018700033E040E050E00E948522C901330FAA0BFB
:10188000BB0BC80ED91EEA1EFB1EC882D982EA8293
:10189000FB821C821D821E821F82DF91CF911F91CD
:1018A0000F91FF90EF90DF90CF9008954F925F924D
:1018B0006F927F928F929F92AF92BF92DF92EF9240
:1018C000FF920F931F93CF93DF930E94891228EE0C
:1018D00033E040E050E00E94852249015A01C0E017
:1018E000D0E04CE0D42EFE01E75EFD4F80818823DE
:1018F00009F469C08E0133E0000F111F3A95E1F73A
:10190000F801EF52FE4F84819581A681B7812401B1
:101910003501481A590A6A0A7B0A80819181A2819D
:10192000B381481659066A067B0608F44CC0DE01EE
:10193000A257BD4F8C91882339F18130E9F5DC9EA7
:10194000C001DD9E900D11249C012E5D3D4F79015B
:10195000D9016D917D918D919C9120813181428140
:1019600053810E945522A30192010E948522FE010B
:10197000EE0FFF1FEE0FFF1FE355FE4F2083318355
:1019800042835383F70114C0CE01880F991F880F3B
:10199000991FFC01E956FD4F40815181628173819D
:1019A000DC01A355BE4F4D935D936D937C931397CC
:1019B0001082118212821382F801EF52FE4F84824C
:1019C0009582A682B7822196C930D10509F08BCFC6
:1019D000DF91CF911F910F91FF90EF90DF90BF901B
:1019E000AF909F908F907F906F905F904F900895F1
:1019F0001F920F920FB60F9211242F933F934F9384
:101A00005F936F937F938F939F93AF93BF93CF9386
:101A1000DF93EF93FF93C9B120916D00DC2FD09538
:101A200080916403D823909163039C238D2F892B8D
:101A3000D0916203DC27D223D823C0936203D0FF66
:101A40000BC0E0914203F09143036C2F61708091D1
:101A50004403909145030995D1FF0CC0C1FB662753
:101A600060F9E0914603F09147038091480390911B
:101A700049030995D2FF0CC0C2FB662760F9E091CB
:101A80004A03F0914B0380914C0390914D030995CB
:101A9000D3FF0CC0C3FB662760F9E0914E03F091C1
:101AA0004F0380915003909151030995D4FF0CC0CE
:101AB000C4FB662760F9E0915203F09153038091D3
:101AC0005403909155030995D5FF0CC0C5FB6627BB
:101AD00060F9E0915603F09157038091580390917B
:101AE00059030995D6FF0CC0C6FB662760F9E09143
:101AF0005A03F0915B0380915C0390915D0309951B
:101B0000D7FF0DC06C2F661F6627661FE0915E032E
:101B1000F0915F0380916003909161030995FF91BB
:101B2000EF91DF91CF91BF91AF919F918F917F9175
:101B30006F915F914F913F912F910F900FBE0F903A
:101B40001F9018951F920F920FB60F9211242F938A
:101B50003F934F935F936F937F938F939F93AF9335
:101B6000BF93CF93DF93EF93FF93C6B120916C00A7
:101B7000DC2FD09580918703D823909186039C23F6
:101B80008D2F892BD0918503DC27D223D823C093B6
:101B90008503D0FF0BC0E0916503F09166036C2FC5
:101BA000617080916703909168030995D1FF0CC023
:101BB000C1FB662760F9E0916903F0916A038091A7
:101BC0006B0390916C030995D2FF0CC0C2FB662792
:101BD00060F9E0916D03F0916E0380916F03909135
:101BE00070030995D3FF0CC0C3FB662760F9E09131
:101BF0007103F091720380917303909174030995BE
:101C0000D4FF0CC0C4FB662760F9E0917503F09126
:101C1000760380917703909178030995D5FF0CC0E6
:101C2000C5FB662760F9E0917903F0917A03809112
:101C30007B0390917C030995D6FF0CC0C6FB6627F9
:101C400060F9E0917D03F0917E0380917F03909194
:101C500080030995D7FF0DC06C2F661F6627661F8E
:101C6000E0918103F091820380918303909184033A
:101C70000995FF91EF91DF91CF91BF91AF919F9126
:101C80008F917F916F915F914F913F912F910F9025
:101C90000FBE0F901F9018951F920F920FB60F92C4
:101CA00011242F933F934F935F936F937F938F9361
:101CB0009F93AF93BF93CF93DF93EF93FF93C3B102
:101CC00020916B00DC2FD0958091AA03D8239091AE
:101CD000A9039C238D2F892BD091A803DC27D22325
:101CE000D823C093A803D0FF0BC0E0918803F091E4
:101CF00089036C2F617080918A0390918B03099501
:101D0000D1FF0CC0C1FB662760F9E0918C03F09114
:101D10008D0380918E0390918F030995D2FF0CC0A3
:101D2000C2FB662760F9E0919003F09191038091E6
:101D30009203909193030995D3FF0CC0C3FB6627D0
:101D400060F9E0919403F09195038091960390914E
:101D500097030995D4FF0CC0C4FB662760F9E09196
:101D60009803F091990380919A0390919B030995B0
:101D7000D5FF0CC0C5FB662760F9E0919C03F0918C
:101D80009D0380919E0390919F030995D6FF0CC0FF
:101D9000C6FB662760F9E091A003F091A103809152
:101DA000A2039091A3030995D7FF0DC06C2F661F66
:101DB0006627661FE091A403F091A5038091A60316
:101DC0009091A7030995FF91EF91DF91CF91BF917A
:101DD000AF919F918F917F916F915F914F913F91C3
:101DE0002F910F900FBE0F901F9018951F920F927A
:101DF0000FB60F9211242F933F934F935F936F93DE
:101E00007F938F939F93AF93BF93EF93FF938091B3
:101E1000B900887F803609F49CC068F5883209F4DF
:101E20005BC090F4803109F454C038F4882309F47D
:101E3000F6C0883009F44DC0F6C0883109F44CC0B2
:101E4000803209F45DC0EFC0803409F468C048F402
:101E5000803309F455C0883309F0E5C080931E0330
:101E6000D8C0803509F44FC0883509F45DC0883486
:101E700009F0D9C0D6C0883909F4C7C0A8F488379A
:101E800009F467C038F4883609F463C0803709F470
:101E900060C0C9C0883809F4B8C0803909F45FC08F
:101EA000803809F0C0C05BC0803B09F486C038F4BC
:101EB000803A09F466C0883A09F47FC0B4C0803C17
:101EC00009F4A7C0883C09F4A4C0883B09F48AC07F
:101ED000AAC08091410310C09091400380913F03BC
:101EE000981770F5E091400381E08E0F80934003D6
:101EF000F0E0E15EFC4F80818093BB0085EC86C002
:101F000080931E038EC0E091400381E08E0F80938A
:101F100040038091BB00F0E0E15EFC4F8083909134
:101F2000400380913F036EC0E091400381E08E0F3B
:101F3000809340038091BB00F0E0E15EFC4F808322
:101F40008091AC0381116DC081E08093AB0384EA82
:101F500061C083E08093AD0310921D03CFCF8091C9
:101F60001D03803208F051C0E0911D0381E08E0F07
:101F700080931D038091BB00F0E0E350FD4F808310
:101F8000BDCF85EC8093BC001092AD0380911D0302
:101F9000803230F4E0911D03F0E0E350FD4F1082F9
:101FA00060911D0370E0E091B203F091B3038DEFF7
:101FB00092E0099510921D0336C084E08093AD0332
:101FC0001092FC021092FB02E091B403F091B50371
:101FD00009958091FB02811105C081E08093FB028D
:101FE0001092DB02E091FC0281E08E0F8093FC02F4
:101FF000F0E0E552FD4F80818093BB009091FC02A0
:102000008091FB02981708F479CF85E88093BC0093
:102010000AC085EC8093BC001092AD0304C01092FE
:102020001E030E94B40AFF91EF91BF91AF919F915F
:102030008F917F916F915F914F913F912F910F9071
:102040000FBE0F901F9018950F931F93CF93DF93A0
:10205000C82FD0E08E01075E1D4FE80198819923BB
:1020600009F475C0863108F06FC0883058F048E632
:1020700050E08E3008F458C0863108F458C0A0E013
:10208000B0E057C0982FADE6B0E048E650E0E2E09F
:10209000F0E0EE0FFF1FEA5FFE4F0190F081E02DB0
:1020A00041155105D9F11097C9F13097B9F1292F90
:1020B00030E06FB7F894220F331F220F331F2E0F1B
:1020C0003F1FE901198218821B821A8221E030E049
:1020D00001C0220F9A95EAF7209591A1922391A32E
:1020E00092A1922392A39C9129232C939C919111CC
:1020F00014C0FA019081883060F071E08E3008F4ED
:1021000070E021E030E001C0220F7A95EAF72095D7
:1021100001C02BEF2923EA0128836FBF61E00E94F1
:102120003612F801108213C0ABE6B0E002C0ACE694
:10213000B0E0E1E08E3008F4E0E08E3010F498EF8B
:1021400001C092EF980FA4CF40E050E095CFDF910F
:10215000CF911F910F910895833081F028F4813041
:1021600099F08230A1F008958730A9F08830B9F055
:102170008430D1F4809180008F7D03C080918000F5
:102180008F7780938000089584B58F7702C084B5DF
:102190008F7D84BD08958091B0008F7703C08091BA
:1021A000B0008F7D8093B0000895CF92DF92EF92C0
:1021B000FF920F931F93CF93DF936C017A018B01F2
:1021C000C0E0D0E0CE15DF0589F0D8016D918D011A
:1021D000D601ED91FC910190F081E02DC6010995A9
:1021E000892B11F47E0102C02196ECCFC701DF914B
:1021F000CF911F910F91FF90EF90DF90CF900895B6
:10220000FC01538D448D252F30E0842F90E0821BFC
:10221000930B541710F0CF96089501970895FC0181
:10222000918D828D981761F0828DDF01A80FB11D0D
:102230005D968C91928D9F5F9F73928F90E0089531
:102240008FEF9FEF0895FC01918D828D981731F0EB
:10225000828DE80FF11D858D90E008958FEF9FEF3F
:102260000895FC01918D228D892F90E0805C9F4F15
:10227000821B91098F739927089589EF93E00E943B
:10228000311121E0892B09F420E0822F0895FC010F
:10229000848DDF01A80FB11DA35ABF4F2C91848DEF
:1022A00090E001968F739927848FA689B7892C9324
:1022B000A089B1898C9180648C93938D848D9813BF
:1022C00006C00288F389E02D80818F7D8083089588
:1022D000EF92FF920F931F93CF93DF93EC0181E076
:1022E000888F9B8D8C8D981305C0E889F989808132
:1022F00085FD24C0F62E0B8D10E00F5F1F4F0F736E
:102300001127E02E8C8DE8120CC00FB607FCFACF17
:10231000E889F989808185FFF5CFCE010E944711B8
:10232000F1CF8B8DFE01E80FF11DE35AFF4FF082D4
:102330000B8FEA89FB898081806207C0EE89FF8963
:102340006083E889F98980818064808381E090E0FE
:10235000DF91CF911F910F91FF90EF900895CF9350
:10236000DF93EC01888D8823C9F0EA89FB8980819D
:1023700085FD05C0A889B9898C9186FD0FC00FB66F
:1023800007FCF5CF808185FFF2CFA889B9898C91B0
:1023900085FFEDCFCE010E944711E7CFDF91CF91AE
:1023A000089580E090E0892B29F00E943D11811171
:1023B0000C94000008950E94B326CF93DF93282F3A
:1023C00030E0F901E255FF4F8491F901E656FF4FE5
:1023D000D491F901EA57FF4FC491CC2391F08111B8
:1023E0000E94AC10EC2FF0E0EE0FFF1FE458FF4FFF
:1023F000A591B491EC91ED2381E090E021F480E08F
:1024000002C080E090E0DF91CF9108951F93CF93B9
:10241000DF93282F30E0F901E255FF4F8491F90155
:10242000E656FF4FD491F901EA57FF4FC491CC23F0
:10243000C9F0162F81110E94AC10EC2FF0E0EE0FC6
:10244000FF1FEE58FF4FA591B4918FB7F89411116B
:1024500005C09C91ED2FE095E92302C0EC91ED2B96
:10246000EC938FBFDF91CF911F910895CF93DF93AE
:1024700090E0FC01E656FF4F2491FC01EA57FF4F24
:102480008491882361F190E0880F991FFC01E8593D
:10249000FF4FC591D491FC01EE58FF4FA591B49127
:1024A000611109C09FB7F8948881209582238883A1
:1024B000EC912E230BC0623061F49FB7F894388101
:1024C000822F809583238883EC912E2B2C939FBFA2
:1024D00006C08FB7F894E8812E2B28838FBFDF9139
:1024E000CF9108958E3008F08E508770806480936D
:1024F0007C0080917A00806480937A0080917A00D9
:1025000086FDFCCF809178002091790090E0922B9D
:1025100008953FB7F8948091CF039091D003A09194
:10252000D103B091D20326B5A89B05C02F3F19F067
:102530000196A11DB11D3FBFBA2FA92F982F882743
:10254000820F911DA11DB11DBC01CD0142E0660F9E
:10255000771F881F991F4A95D1F708958F929F92F0
:10256000AF92BF92CF92DF92EF92FF926B017C010C
:102570000E9489124B015C01C114D104E104F104F1
:10258000F1F00E948912DC01CB0188199909AA098E
:10259000BB09883E9340A105B10570F321E0C21A42
:1025A000D108E108F10888EE880E83E0981EA11C8E
:1025B000B11CC114D104E104F10419F7DDCFFF907F
:1025C000EF90DF90CF90BF90AF909F908F90089545
:1025D0001F920F920FB60F9211242F933F938F9358
:1025E0009F93AF93BF938091CA039091CB03A09127
:1025F000CC03B091CD033091CE0323E0230F2D37D0
:1026000020F40196A11DB11D05C026E8230F0296F6
:10261000A11DB11D2093CE038093CA039093CB03D9
:10262000A093CC03B093CD038091CF039091D003BE
:10263000A091D103B091D2030196A11DB11D809349
:10264000CF039093D003A093D103B093D203BF9153
:10265000AF919F918F913F912F910F900FBE0F904F
:102660001F9018951F920F920FB60F9211242F935F
:102670003F934F935F936F937F938F939F93AF930A
:10268000BF93EF93FF9389EF93E00E944711FF916F
:10269000EF91BF91AF919F918F917F916F915F91DA
:1026A0004F913F912F910F900FBE0F901F90189553
:1026B0001F920F920FB60F9211242F938F939F9317
:1026C000EF93FF93E0910904F0910A048081E09177
:1026D0000F04F091100482FD12C0908180911204C9
:1026E0008F5F8F7320911304821751F0E0911204D1
:1026F000F0E0E750FC4F958F8093120401C0808179
:10270000FF91EF919F918F912F910F900FBE0F909E
:102710001F9018958F929F92AF92BF92CF92DF92A7
:10272000EF92FF920F931F93CF93DF935B0186315C
:1027300008F0ADC0883060F0C8E6CC2ED12C8E30C9
:1027400008F495C0863108F495C060E070E094C04C
:10275000382F92E06DE670E0B8E6CB2ED12CE92F51
:10276000F0E0EE0FFF1FEA5FFE4F0190F081E02DD9
:10277000C114D10409F48EC06115710509F48AC031
:10278000309709F487C0A114B10409F483C0C32FA2
:10279000D0E0A1E0B0E002C0AA0FBB1F3A95E2F77B
:1027A0001FB7F8944E01880C991C880C991C7F0166
:1027B000E80CF91CE701B982A8825B834A8331A146
:1027C0004A2F4095522F5D7F513011F43A2B01C0B2
:1027D000342331A33FEF320F22A1323010F42A2BE1
:1027E00001C0242322A3EB0128812A2B2883E601A0
:1027F0003881883050F051E08E3008F450E021E00C
:1028000001C0220F5A95EAF701C024E0232BE6010C
:10281000288380A18423913021F0923021F043B1AC
:1028200003C046B101C049B14A23482B40A300234D
:10283000E1F0842F90E08095909522A130E08223F2
:10284000932321A12423822B8A239B23892B69F0A4
:10285000A42361E009F460E0E401CE0FDF1FD7019B
:10286000ED91FC918A819B8109951FBF13C06BE696
:1028700070E002C06CE670E091E08E3008F490E009
:102880008E3010F438EF01C032EF380F68CFC12C12
:10289000D12C58CFDF91CF911F910F91FF90EF90E6
:1028A000DF90CF90BF90AF909F908F9008950F933F
:1028B0001F93CF93DF938C0161E0FC0181810E9423
:1028C0003612C3ECD0E0CE010197F1F760E0F801D9
:1028D00080810E943612CE010197F1F760E0F80185
:1028E00081810E9436122197F1F7DF91CF911F91DC
:1028F0000F91089561E0FC0181810E94361283EC02
:1029000090E00197F1F70895CF92DF92EF92FF9256
:102910000F931F93CF93DF93EC01E62E88E0F82E00
:1029200093ECC92ED12C61E088810E943612C60139
:102930000197F1F7E0FE02C060E001C061E089812B
:102940000E94361203EC10E0C6010197F1F760E037
:1029500088810E943612C6010197F1F7E694FA9435
:10296000F110E1CF61E088810E94361260E0898138
:102970000E943612C8010197F1F760E088810E9439
:102980003612C8010197F1F789810E94DD11F82EF6
:10299000811104C061E089810E94361203EC10E0CD
:1029A000C8010197F1F761E088810E943612F801B1
:1029B0003197F1F781E0F11001C080E0DF91CF9114
:1029C0001F910F91FF90EF90DF90CF900895EF92BD
:1029D000FF920F931F93CF937C018B01C0E1612F76
:1029E000661F6627661FF70182810E940612F701A3
:1029F00080810E94DD1161E0892B09F060E0F70120
:102A000080810E940612000F111FC15041F7CF9123
:102A10001F910F91FF90EF900895EF92FF920F9307
:102A20001F93CF93DF93EC01062F18E08BE4E82E81
:102A3000F12C07FF02C061E001C060E089810E94C3
:102A4000061260E088810E940612C7010197F1F723
:102A500061E088810E940612C7010197F1F7000F1B
:102A6000115039F7DF91CF911F910F91FF90EF90A7
:102A700008951F920F920FB60F9211242F933F9338
:102A80004F935F936F937F938F939F93AF93BF9376
:102A9000EF93FF93E091BE03F091BF030995FF917F
:102AA000EF91BF91AF919F918F917F916F915F91C6
:102AB0004F913F912F910F900FBE0F901F9018953F
:102AC000AF92BF92DF92EF92FF920F931F93CF933B
:102AD000DF9300D0CDB7DEB75C01F62EE42E29835C
:102AE0007A830E947A1460E4C5010E948414C501AF
:102AF0000E945714C5010E947A142981237060EC4A
:102B0000620FC5010E948414DF2C0F2D7A81172FCC
:102B1000802F8D198E1538F4F80161918F01C50150
:102B20000E948414F5CFC5010E945714C5010E946C
:102B30007A14F50162816058C5010E948414C501B0
:102B40000F900F90DF91CF911F910F91FF90EF9019
:102B5000DF90BF90AF900C9457141F920F920FB656
:102B60000F9211242F933F934F935F936F937F9313
:102B70008F939F93AF93BF93EF93FF938091A304A1
:102B80000E94DD112091A7043091A8042F5F3F4FD0
:102B90003093A8042093A7049091A604953618F0CA
:102BA00096E09093A2049091A2049430C9F128F485
:102BB000923069F09330D1F05EC0953009F451C085
:102BC000963009F058C091E09093730551C081117F
:102BD00052C02091A7043091A8042436310508F48E
:102BE00042C0109273051092A6041CC0813009F0F7
:102BF00042C0E091A60491E09E0F9093A604F0E0FD
:102C00002091A7043091A804EE0FFF1FEE55FB4F53
:102C1000308727831092A8041092A70494E029C05B
:102C2000811117C0E091A60491E09E0F9093A60435
:102C3000F0E02091A7043091A804EE0FFF1FEE559D
:102C4000FB4F308727831092A8041092A70493E0CB
:102C500010C02091A7043091A8042536310558F002
:102C600007C0811108C01092A8041092A70403C0E5
:102C700095E09093A2049091A5049923B9F0811155
:102C80000AC08091A404882321F08091A40461E00B
:102C900009C02D9A0BC08091A404882331F0809143
:102CA000A40460E00E94061201C02D98FF91EF91EC
:102CB000BF91AF919F918F917F916F915F914F9154
:102CC0003F912F910F900FBE0F901F901895EF928C
:102CD000FF920F931F93CF93DF93EC017B01CB0106
:102CE00093709E838D8360E070E0CE010E94E714B4
:102CF00000E010E08C81882369F0C701002E02C03B
:102D0000880F991F0A94E2F7BC016627727091FF41
:102D10000FC00CC0C701002E02C0969587950A947B
:102D2000E2F7BC016170772780FF02C06FEF70E0AF
:102D3000CE010E94E7140F5F1F4F0A301105D1F634
:102D400060E070E0CE010E94E71460E070E0CE0128
:102D50000E94E71460E08A810E94061283E290E0FC
:102D60000197F1F714E061E08A810E94061260E0A9
:102D70008A810E9406121150B1F7DF91CF911F9105
:102D80000F91FF90EF9008954F925F926F927F9214
:102D90008F929F92AF92BF92CF92DF92EF92FF926B
:102DA0000F931F93CF93DF93EC01962E842E722EF8
:102DB00060E00E940D1560E0CE010E940D1560E0FC
:102DC000CE010E940D1560E0CE010E940D1583E03A
:102DD000989E5001112475018FEFE81AF80A6501D9
:102DE00082E0C80ED11C10E08A81181708F03BC0A1
:102DF00019110FC0EB81FC81EA0DFB1D8082EB8174
:102E0000FC81EE0DFF1D7082EB81FC81EC0DFD1D40
:102E10000083EB81FC8183E0189FE00DF11D1124FC
:102E200042805180608047FC02C060EE01C060ECCF
:102E300046FE606157FE686056FE646067FE626031
:102E400066FE6160CE010E940D15642DCE010E94C8
:102E50000D15652DCE010E940D15662DCE010E9427
:102E60000D151F5FC1CF60E0CE010E940D1560E01F
:102E7000CE010E940D1560E0CE010E940D1560E0AC
:102E8000CE01DF91CF911F910F91FF90EF90DF90D6
:102E9000CF90BF90AF909F908F907F906F905F90FA
:102EA0004F900C940D15CF93DF93C3EED3E08E8338
:102EB0006F8396E0988791E09D8760E00E943612CC
:102EC00061E08E810E94061219861A861B861C8676
:102ED000DF91CF9108957F928F929F92AF92BF9290
:102EE000CF92DF92EF92FF920F931F93CF93DF93D6
:102EF00000D000D0CDB7DEB77C019B01942E04E258
:102F000011E0FE0131967724739440E05F018FE376
:102F1000882ED801DE90CE908D01C901B6010E94A5
:102F20007122CB01009751F4911004C0772011F069
:102F3000433011F4808213C0108211C0A62FAF70ED
:102F4000B0E0A45FBE4F5C9150838C9DB0018D9D1D
:102F5000700D9C9D700D1124261B370B712C4F5F3B
:102F600031964430B1F620E0B501C7010E946015EA
:102F70000F900F900F900F90DF91CF911F910F91B5
:102F8000FF90EF90DF90CF90BF90AF909F908F9089
:102F90007F900895009769F0FC0101900020E9F707
:102FA0003197AF01481B590BBC0189EF93E00C949A
:102FB000D51080E090E008958F929F92AF92BF92DB
:102FC0000F931F93CF93DF93CDB7DEB7A1970FB6C3
:102FD000F894DEBF0FBECDBF19A2423008F44AE01C
:102FE0008E010F5D1F4F842E912CA12CB12CA501B9
:102FF00094010E948522E62FB901CA0101501109EE
:10300000EA3014F4E05D01C0E95CD801EC93232BB5
:10301000242B252B61F7C8010E94CA17A1960FB671
:10302000F894DEBF0FBECDBFDF91CF911F910F91FE
:10303000BF90AF909F908F9008958091C9038111A8
:103040007BC08091E405813041F442E050E06FECB8
:1030500075E086E994E00E94480B8091E405833096
:1030600009F46FC08091E405873009F46AC080914B
:10307000E405883309F465C08091E405883009F4DB
:1030800069C08091E405843109F464C08091E4054D
:103090008E3141F449E050E06FEC75E086E994E050
:1030A0000E94480B8091E405883241F449E050E0E9
:1030B0006AEB75E086E994E00E94480B8091E40594
:1030C0008A3041F445E050E06FEC75E086E994E029
:1030D0000E94480B8091E4058C3041F443E050E0BD
:1030E0006FEC75E086E994E00E94480B8091E4055E
:1030F000853151F448E050E06FEC75E086E994E0EA
:103100000E94480B1092CF058091E4058D3041F468
:1031100045E050E06FEC75E086E994E00E94480BD2
:103120008091E4058831F9F442E050E06FEC75E0FD
:1031300086E994E00C94480B67E186E994E00C94EE
:103140005C0B43E050E06FEC75E086E994E00E9490
:10315000480B92CF44E050E06FEC75E086E994E0D4
:103160000E94480B93CF08950F931F93CF93DF9343
:103170008091C90381112FC001E010E08091B0035C
:103180002091B103821719F190E0821B91090497F5
:1031900061F41092B9051092B8051092B70510921B
:1031A000B6051093B5050093B405C091B605D0914E
:1031B000B705CE0101969093B7058093B60586E9D1
:1031C00094E00E942C0BCC51DA4F8883D7CF81E05A
:1031D0008093C9030BC09091B0038091B1039817FD
:1031E00029F086E994E00E942C0BF5CFDF91CF9176
:1031F0001F910F910895CF92DF92EF92FF920F935C
:103200001F93E82FF92F05C0015011092109310939
:1032100061F1908196239417B9F305C0015011090B
:103220002109310911F1908196239413F7CFC12C14
:10323000D12CE12CF12C0AC08FEFC81AD80AE80A69
:10324000F80A0C151D052E053F0579F080818623AF
:10325000841791F36C2D7D2D8E2D9F2D1F910F9135
:10326000FF90EF90DF90CF90089560E070E080E0F5
:1032700090E01F910F91FF90EF90DF90CF90089515
:103280002F923F924F925F926F927F928F929F9276
:10329000AF92BF92CF92DF92EF92FF920F931F9364
:1032A000CF93DF9300D000D000D0CDB7DEB789EA4E
:1032B00094E09093DE038093DD038091A60490E078
:1032C0009093E0038093DF038091730590E09093E7
:1032D000E2038093E1038091A204853009F07BC36F
:1032E0008091AB049091AC04885891098D3591057B
:1032F00088F48091A604843041F48091AD049091CB
:10330000AE048097479708F401C28091A6048434E4
:1033100008F0E3C18091A6048A3108F454C080917A
:10332000A9049091AA04843F914080F41092DC0398
:103330001092DB038FEF9FEFDC018093D703909314
:10334000D803A093D903B093DA035BC08091AB0498
:103350009091AC0485974B97B0F5EFEAF4E082E0EA
:1033600090E040E050E0BA018C010F5F1F4F2091C8
:10337000A60430E0021713076CF49F0122503109B4
:10338000D9012D913C91275031092730310508F49E
:10339000F5C1C8010197959587959093DC038093BB
:1033A000DB030C972CF41092DC031092DB030BC0B0
:1033B0004093D7035093D8036093D9037093DA03F3
:1033C00084E090E0FCC28091A6048A3108F44DC0EC
:1033D0008091A9049091AA048032934008F4A6CF6A
:1033E0008091AB049091AC04C697869708F4E2C133
:1033F0003CC04093D7035093D8036093D903709394
:10340000DA038BE090E0DBC2208131812552310963
:103410002B31310508F0DEC1440F551F661F771FA1
:103420004160029634968C010F5F1F4F2091A604D5
:1034300030E00217130764F49F0122503109D901CB
:103440002D913C912C5031092B303105E8F2C80107
:103450000197959587959093DC038093DB030C97F8
:1034600044F61092DC031092DB038091A6048232B2
:1034700008F44CC08091AB049091AC040697079778
:1034800008F044C0EFEAF4E082E090E040E050E071
:10349000BA018C010F5F1F4F2091A60430E0021784
:1034A0001307DCF4DF0112972D913C9111972E51F7
:1034B00031092731310508F09AC1440F551F661FA5
:1034C000771F4160208131813496235031092530A6
:1034D000310510F40296DDCFC801019795958795C7
:1034E0009093DC038093DB0340972CF41092DC0371
:1034F0001092DB030BC04093D7035093D803609323
:10350000D9037093DA038CE090E059C21C821B82CD
:1035100081E090E09A8389838091A6048D3008F43D
:103520006BC049E753E0BE016D5F7F4FCE0101964E
:103530000E94E121892B09F05FC049E753E0BE01F9
:103540006D5F7F4FCE0101960E94E121019709F046
:1035500053C049E753E0BE016D5F7F4FCE01019636
:103560000E94E121892B09F047C0C12CD12C7601A2
:1035700000E010E08091A60490E029813A812817AC
:1035800039075CF549E753E0BE016D5F7F4FCE011F
:1035900001960E94E1215C0149E753E0BE016D5FA5
:1035A0007F4FCE0101960E94E121B1E0AB16B1043C
:1035B00049F4892B09F5CC0CDD1CEE1CFF1C68942A
:1035C000C0F808C0AB28C1F40197B1F4CC0CDD1CE5
:1035D000EE1CFF1C0F5F1F4FCDCF1093DC03009339
:1035E000DB03C092D703D092D803E092D903F092C4
:1035F000DA0381E090E0E3C11C821B8281E090E06D
:103600009A8389838091DF039091E003181619064D
:103610000CF058C0E091DD03F091DE0382E090E011
:103620009A8389838281938189974E9708F04AC053
:1036300083E090E09A838983848195810B970A9730
:1036400008F040C04CEB51E0BE016D5F7F4FCE01F2
:1036500001960E94E121892BA9F54CEB51E0BE01B6
:103660006D5F7F4FCE0101960E94E121019751F5D8
:10367000C12CD12C760100E010E029813A818091A3
:10368000DF039091E003281739070CF0F3C04CEBEF
:1036900051E0BE016D5F7F4FCE0101960E94E12196
:1036A0004C010330110509F0AFC04CEB51E0BE01F5
:1036B0006D5F7F4FCE0101960E94E1218816990629
:1036C00009F4A2C0E091DD03F091DE0382819381D1
:1036D000C697869708F4DDC08CC18091AD049091A7
:1036E000AE04825491098E9708F014CE20E030E0A9
:1036F00080E090E0DC01F901E155FB4F4081518110
:10370000495051094930510588F004CE8091AF04E9
:103710009091B0040997099708F0F7CD1092DC0357
:103720001092DB038FEF9FEFDC0158C1F901EF54DA
:10373000FB4F40815181475151094231510588F475
:10374000880F991FAA1FBB1F81602C5F3F4F203835
:10375000310589F620E230E03093DC032093DB036F
:103760003DC140815181465051094730510508F013
:10377000D1CD880F991FAA1FBB1FE7CF20813181B0
:10378000235131092F30310540F4440F551F661F76
:10379000771F416002963496E7CD208131812A500F
:1037A00031092930310508F00ECE440F551F661F30
:1037B000771FF0CF8091AD049091AE04C6978697A5
:1037C00008F053CEE1EBF4E083E090E040E050E01D
:1037D000BA0129CE208131812C5031092A3031059E
:1037E00008F043CE440F551F661F771F1ACE2D9148
:1037F0003C912C5031092B30310508F087CE440F15
:10380000551F661F771F5ECE4CEB51E0BE016D5F0A
:103810007F4FCE0101960E94E1215C01033011052A
:1038200069F44CEB51E0BE016D5F7F4FCE01019614
:103830000E94E121A816B90609F044CF8114910431
:1038400059F4AA94AB2809F03DCFCC0CDD1CEE1C3A
:10385000FF1C6894C0F80BC08A94892809F032CF05
:10386000AB2809F02FCFCC0CDD1CEE1CFF1C0F5F2A
:103870001F4F03CF1093DC030093DB03C092D703E9
:10388000D092D803E092D903F092DA0382E090E07C
:1038900096C0848195814B97459708F0AAC0DF01B7
:1038A00016967F0126ECE20EF11C20E030E040E0AD
:1038B00050E060E070E080E090E00D911C91119785
:1038C000095011090830110508F093C012960D91A6
:1038D0001C911397015111090D30110520F501E0DC
:1038E0000E94D12221601496AE15BF0531F72093B6
:1038F000D7033093D8034093D9035093DA0300E2FF
:103900000E94EC222093D5033093D60385E090E00B
:103910009093D4038093D30380E390E09093DC03EF
:103920008093DB0350C012960D911C9113970450A5
:1039300011090530110508F05CC001E00E94D12298
:10394000D2CF980122503109D9012D913C912950B3
:1039500031092830310508F0FAC0BC016F5F7F4F94
:10396000D8012D913C91275031092730310508F0BD
:10397000EBC2440F551F416002960C5F1F4F209110
:10398000A60430E02450310982179307D4F201973E
:10399000959587959093DC038093DB038A970CF4CD
:1039A000D6C0052E000C660B770B4093D7035093BF
:1039B000D8036093D9037093DA0389E090E0909381
:1039C000D4038093D30381E090E00CC382E0809322
:1039D000A2041092A60480E090E004C38093D70371
:1039E0009093D803A093D903B093DA0383E090E0D7
:1039F000E6CF8091A604893370F182819381895743
:103A000091098335910508F440C125C0D90112966A
:103A10006D917C911397665171096131710508F0C0
:103A200060C1D701C601880F991FAA1FBB1F6C0177
:103A30007D016894C0F84E5F5F4F2C5F3F4F4B3362
:103A4000510509F431C1D9016D917C916A50710918
:103A500069307105D8F28091A604823231F48281F6
:103A600093810A97099708F44CC182819381895701
:103A7000910983359105D0F48091A6048132B0F08C
:103A800084819581CA97899788F49F012A5F3F4F67
:103A9000C12CD12C760143E050E0D9016D917C918D
:103AA0006A5071096930710508F44AC182819381B5
:103AB0008C549109C59778F48091A604843031F430
:103AC000848195818097479708F499C18091A604D5
:103AD000843408F07BC18091A604863460F1828131
:103AE00093810C970B9708F4D8C125C0D901129681
:103AF0006D917C9113976E5171096731710508F0D2
:103B000004C2D701C601880F991FAA1FBB1F6C01F1
:103B10007D016894C0F84E5F5F4F2C5F3F4F453486
:103B2000510509F4D5C1D9016D917C916C50710991
:103B30006B307105D8F28091A604883540F08281FF
:103B40009381855891098B35910508F4EEC18091D8
:103B5000A6048032E1F48281938106970697B8F437
:103B6000848195810997099790F49F012A5F3F4FBF
:103B7000BF01625C7F4FC12CD12C7601D9014D91E0
:103B80005C91465051094630510508F4EAC18091D4
:103B9000DF039091E0039E838D8306970CF416CF8C
:103BA0008F010A5F1F4F73E0272E312CE5ECCE2EDC
:103BB000EDE9DE2EECE1EE2EE1E8FE2ED8016D916E
:103BC0007C91F8013497A080B18080E090E00E9461
:103BD0004B242B013C01B50180E090E00E944B2476
:103BE0004B015C012DEC3CEC4CE45FE30E94FD24B6
:103BF0009B01AC01C301B2010E949E2387FD17C047
:103C00002DEC3CEC4CE45FE3C301B2010E94FD24C7
:103C10009B01AC01C501B4010E949E23E82F880FCF
:103C2000FF0BEE27FF0FEE1FFF27319602C0E0E0EB
:103C3000F0E0A701960163E971E080E091E00E9465
:103C400055226F01FF0FEE08FF08C626D726E8268B
:103C5000F926BFEF2B1A3B0A0E5F1F4FED81FE8145
:103C60002E163F0609F0AACFC092D703D092D803F0
:103C7000E092D903F092DA0380E290E09093DC03C3
:103C80008093DB038FEF9FEF9ACE84819581CA9753
:103C9000899708F0E0CE9F012A5F3F4FC12CD12CBD
:103CA000760143E050E0CFCE9F012A583F4FD90123
:103CB0002D913C912A5031092930310508F0CBCEA5
:103CC0002CE130E03093DC032093DB03C092D70378
:103CD000D092D803E092D903F092DA038AE090E020
:103CE0006ECED90112966D917C9113976650710931
:103CF0006730710508F0AFCECC0CDD1CEE1CFF1C4C
:103D00009ACE2091A604CF01820F911D820F911DA2
:103D1000DC0112978D919C910A97099708F0A5CE26
:103D20001092DC031092DB038FEF9FEFDC01809396
:103D3000D7039093D803A093D903B093DA034CC16F
:103D4000D90112966D917C91139766517109613179
:103D5000710588F112966D917C91139766507109E7
:103D60006730710508F0A2CECC0CDD1CEE1CFF1CE8
:103D70004E5F5F4F2C5F3F4F4332510509F08DCEB0
:103D80009F012A5B3F4FD9012D913C912A50310967
:103D90002930310508F08ACE20E130E03093DC0391
:103DA0002093DB03C092D703D092D803E092D903CB
:103DB000F092DA0311C1D701C601880F991FAA1F1B
:103DC000BB1F6C017D016894C0F8D2CF84819581BE
:103DD00089549109C39708F07ECE9F012A5F3F4F17
:103DE000BF016A577F4FC12CD12C7601D9014D916B
:103DF0005C914950510949305105B8F06CCE86812B
:103E000097810997099708F061CE1092DC03109210
:103E1000DB038FEF9FEFDC018093D7039093D803F0
:103E2000A093D903B093DA03DAC0D90112964D9169
:103E30005C9113974651510941315105F0F4D70176
:103E4000C601880F991FAA1FBB1F6C017D016894D2
:103E5000C0F82C5F3F4F2617370741F620E230E0CD
:103E60003093DC032093DB03C092D703D092D803B6
:103E7000E092D903F092DA03B2C0D90112964D91C3
:103E80005C911397465051094730510508F023CEF5
:103E9000CC0CDD1CEE1CFF1CDCCF848195810997C6
:103EA000099708F048CE868197818C974F9708F044
:103EB00042CE8085918589974D9708F03CCE9F0131
:103EC000265F3F4FC12CD12C760145E050E02BCE30
:103ED0009F0126573F4FD9012D913C912C5031091C
:103EE0002B30310508F027CE20E230E03093DC03A0
:103EF0002093DB03C092D703D092D803E092D9037A
:103F0000F092DA0388E090E05ACDD90112966D91D3
:103F10007C911397695071096930710508F00BCED7
:103F2000CC0CDD1CEE1CFF1CF6CD848195818254E7
:103F300091098E9708F00BCE8F01045C1F4F8DE125
:103F400090E040E050E01BCDD8012D913C912851EC
:103F500031092231310510F0CB0119CD440F551F25
:103F60000BCDD90112964D915C911397495151098E
:103F70004331510508F5D701C601880F991FAA1FC3
:103F8000BB1F6C017D016894C0F82C5F3F4F261762
:103F9000370709F0F3CD2EE030E03093DC032093B7
:103FA000DB03C092D703D092D803E092D903F092FA
:103FB000DA038FE090E003CDD90112964D915C9128
:103FC0001397495051094930510508F0E0CDCC0C08
:103FD000DD1CEE1CFF1CD9CF86E090E0F0CC87E022
:103FE00090E0EDCC26960FB6F894DEBF0FBECDBFA5
:103FF000DF91CF911F910F91FF90EF90DF90CF90C5
:10400000BF90AF909F908F907F906F905F904F90F8
:104010003F902F900895789484B5826084BD84B5D4
:10402000816084BD85B5826085BD85B5816085BDB3
:1040300080916E00816080936E001092810080916B
:1040400081008260809381008091810081608093F3
:104050008100809180008160809380008091B10018
:1040600084608093B1008091B00081608093B00043
:1040700080917A00846080937A0080917A008260D7
:1040800080937A0080917A00816080937A00809199
:104090007A00806880937A001092C100E091090450
:1040A000F0910A0482E08083E0910504F091060417
:1040B0001082E0910704F091080483E3808310925A
:1040C0001104E0910D04F0910E0486E08083E091EC
:1040D0000B04F0910C04808180618083E0910B04DB
:1040E000F0910C04808188608083E0910B04F09152
:1040F0000C04808180688083E0910B04F0910C04B3
:1041000080818F7D808388E08093BA0086EE9AE07C
:104110009093B5038093B40382EF9AE09093B30336
:104120008093B2031092B1031092B0031092AF03C8
:104130001092AE031092AD0381E08093AC03109215
:10414000AB0361E082E10E94061261E083E10E941C
:1041500006128091B9008E7F8093B9008091B900DA
:104160008D7F8093B90088E48093B80085E48093C4
:10417000BC0084EB98E19093B7038093B6038DE184
:1041800098E19093B9038093B803549A5C9880E0C7
:1041900090E0FC01E054FC4F80830196893091054A
:1041A000C1F783E08093BC038FB78093BD03F8947D
:1041B00088EA91E69093BB038093BA0390938700BB
:1041C000809386008091BD038FBF80918100887F9E
:1041D00080938100909181008091BC03982B9093F3
:1041E000810026E53CE03093BF032093BE0391E0BD
:1041F00090936F0090918100892B80938100809132
:10420000C903882329F00E948C001092C90302C0C0
:104210000E948C000E94D111F2CFCF92DF92EF92D8
:10422000FF92CF93DF93EC01072E000C880B990BC4
:104230000E944D246B017C0120E030E040E45FE30C
:104240000E94FD2420E030E048E452E40E94A323D1
:104250000E941524C617D707D4F020E030E040EACA
:104260005FE3C701B6010E94FD2420E030E048E48E
:1042700052E40E94A32320E030E040E85FE30E9484
:1042800032230E94152421E06C177D070CF420E0F6
:10429000822F90E0DF91CF91FF90EF90DF90CF9051
:1042A00008950F931F93CF93DF93EC01862F6883BC
:1042B00049832A8361E00E94361261E089810E946D
:1042C00036128A8161E070E023E0829FC0011124F0
:1042D0000E946A259C838B8310E08A81181748F41A
:1042E00000E020E040E0612FCE010E94C4161F5F75
:1042F000F4CFDF91CF911F910F9108951092FC039D
:104300001092FB0388EE93E0A0E0B0E08093FD0301
:104310009093FE03A093FF03B093000428E231E0E2
:104320003093FA032093F90325EC30E03093060430
:104330002093050424EC30E0309308042093070414
:1043400020EC30E030930A042093090421EC30E0A3
:1043500030930C0420930B0422EC30E030930E04D5
:1043600020930D0426EC30E03093100420930F04CA
:104370001092120410921304109214041092150457
:10438000109299041092980480939A0490939B043D
:10439000A0939C04B0939D048AE391E090939704CA
:1043A0008093960482E08093A3041092A504E4E72E
:1043B000F5E080E28683379695E0E33BF907D1F795
:1043C00008958F929F92AF92BF92CF92DF92EF9219
:1043D000FF920F931F93CF93DF93FC01C081D18194
:1043E0002091DF033091E003C217D3070CF04BC0DC
:1043F0009E01220F331FE091DD03F091DE03E20FF7
:10440000F31F80809180C170DD27F1E0CF272097D6
:1044100019F404E610E002C00CE91FEF7A015B0119
:104420006C01040F151FB801C4010E940D21892BD6
:1044300099F40E0D1F1DB801C4010E940D21892B96
:1044400071F4B8016E0D7F1DC4010E940D21892BEE
:10445000E9F023E030E005C021E030E002C022E0D6
:1044600030E0F501808191810196821793073CF03D
:10447000F50111821082F60180819181019691836C
:104480008083CE0105C081E090E002C08FEF9FEFF6
:10449000DF91CF911F910F91FF90EF90DF90CF9020
:1044A000BF90AF909F908F900895DB018F939F9363
:1044B0000E94C622BF91AF91A29F800D911DA39F24
:1044C000900DB29F900D11240895991B79E004C0BE
:1044D000991F961708F0961B881F7A95C9F7809543
:1044E000089597FB072E16F4009407D077FD09D0A6
:1044F0000E94082307FC05D03EF4909581959F4FBC
:104500000895709561957F4F0895A1E21A2EAA1B18
:10451000BB1BFD010DC0AA1FBB1FEE1FFF1FA21773
:10452000B307E407F50720F0A21BB30BE40BF50B70
:10453000661F771F881F991F1A9469F760957095F9
:10454000809590959B01AC01BD01CF010895052E8A
:1045500097FB1EF400940E94BE2257FD07D00E94D4
:10456000852207FC03D04EF40C94BE225095409552
:10457000309521953F4F4F4F5F4F0895909580950F
:10458000709561957F4F8F4F9F4F08950E94222312
:10459000A59F900DB49F900DA49F800D911D112497
:1045A00008950F93083090F0982F872F762F652F5E
:1045B000542F432F322F22270850F4CF220F331FBE
:1045C000441F551F661F771F881F991F0A95B2F752
:1045D0000F91089597FB10F8169400080F93083078
:1045E00098F00850232F342F452F562F672F782F00
:1045F000892F902DF4CF059497958795779567959A
:1046000057954795379527950A95AAF70F910895DD
:10461000AA1BBB1B51E107C0AA1FBB1FA617B707E8
:1046200010F0A61BB70B881F991F5A95A9F7809504
:104630009095BC01CD010895EE0FFF1F0590F491F8
:10464000E02D0994A29FB001B39FC001A39F700DFC
:10465000811D1124911DB29F700D811D1124911D8A
:1046600008955058BB27AA270E9449230C94C324BD
:104670000E94B52438F00E94BC2420F039F49F3FFA
:1046800019F426F40C94B2240EF4E095E7FB0C9494
:10469000AC24E92F0E94D42458F3BA176207730799
:1046A0008407950720F079F4A6F50C94F6240EF40F
:1046B000E0950B2EBA2FA02D0B01B90190010C0132
:1046C000CA01A0011124FF27591B99F0593F50F44A
:1046D000503E68F11A16F040A22F232F342F4427A2
:1046E000585FF3CF469537952795A795F04053959A
:1046F000C9F77EF41F16BA0B620B730B840BBAF06A
:104700009150A1F0FF0FBB1F661F771F881FC2F7D4
:104710000EC0BA0F621F731F841F48F487957795E8
:104720006795B795F7959E3F08F0B0CF9395880FA2
:1047300008F09927EE0F9795879508950E94882491
:1047400008F481E008950E94B7230C94C3240E94CA
:10475000BC2458F00E94B52440F029F45F3F29F0B2
:104760000C94AC2451110C94F7240C94B2240E94A4
:10477000D42468F39923B1F3552391F3951B550B7A
:10478000BB27AA2762177307840738F09F5F5F4F24
:10479000220F331F441FAA1FA9F335D00E2E3AF063
:1047A000E0E832D091505040E695001CCAF72BD07B
:1047B000FE2F29D0660F771F881FBB1F26173707CC
:1047C0004807AB07B0E809F0BB0B802DBF01FF27FE
:1047D00093585F4F3AF09E3F510578F00C94AC240B
:1047E0000C94F7245F3FE4F3983ED4F386957795D5
:1047F0006795B795F7959F5FC9F7880F911D9695B7
:10480000879597F90895E1E0660F771F881FBB1F12
:10481000621773078407BA0720F0621B730B840BBF
:10482000BA0BEE1F88F7E09508950E941C24689447
:10483000B1110C94F72408950E94DC2488F09F574E
:1048400098F0B92F9927B751B0F0E1F0660F771FB4
:10485000881F991F1AF0BA95C9F714C0B13091F0AA
:104860000E94F624B1E008950C94F624672F782F67
:104870008827B85F39F0B93FCCF38695779567956F
:10488000B395D9F73EF490958095709561957F4FDB
:104890008F4F9F4F0895E89409C097FB3EF4909581
:1048A0008095709561957F4F8F4F9F4F9923A9F009
:1048B000F92F96E9BB279395F69587957795679598
:1048C000B795F111F8CFFAF4BB0F11F460FF1BC0DC
:1048D0006F5F7F4F8F4F9F4F16C0882311F096E96F
:1048E00011C0772321F09EE8872F762F05C066231D
:1048F00071F096E8862F70E060E02AF09A95660FD6
:10490000771F881FDAF7880F9695879597F908958E
:10491000990F0008550FAA0BE0E8FEEF16161706D0
:10492000E807F907C0F012161306E407F50798F038
:10493000621B730B840B950B39F40A2661F0232B51
:10494000242B252B21F408950A2609F4A140A695CD
:104950008FEF811D811D089597F99F6780E870E0B2
:1049600060E008959FEF80EC089500240A941616E5
:10497000170618060906089500240A94121613064D
:10498000140605060895092E0394000C11F48823DB
:1049900052F0BB0F40F4BF2B11F460FF04C06F5FF7
:1049A0007F4F8F4F9F4F089557FD9058440F551FCD
:1049B00059F05F3F71F04795880F97FB991F61F0A1
:1049C0009F3F79F087950895121613061406551F18
:1049D000F2CF4695F1DF08C0161617061806991F84
:1049E000F1CF86957105610508940895E894BB2779
:1049F00066277727CB0197F908950E9410250C941C
:104A0000C3240E94B52438F00E94BC2420F09523D2
:104A100011F00C94AC240C94B22411240C94F724BF
:104A20000E94D42470F3959FC1F3950F50E0551F59
:104A3000629FF001729FBB27F00DB11D639FAA27F3
:104A4000F00DB11DAA1F649F6627B00DA11D661F42
:104A5000829F2227B00DA11D621F739FB00DA11D63
:104A6000621F839FA00D611D221F749F3327A00D1D
:104A7000611D231F849F600D211D822F762F6A2FB9
:104A800011249F5750409AF0F1F088234AF0EE0F1E
:104A9000FF1FBB1F661F771F881F91505040A9F74B
:104AA0009E3F510580F00C94AC240C94F7245F3F9A
:104AB000E4F3983ED4F3869577956795B795F79587
:104AC000E7959F5FC1F7FE2B880F911D96958795FF
:104AD00097F908950F931F93CF93DF93869F8001DB
:104AE000879F100D969F100D1124C8010E948625E6
:104AF000EC01009729F0A80160E070E00E94B82660
:104B0000CE01DF91CF911F910F910895CF93DF9345
:104B10008230910510F482E090E0E091EB05F09195
:104B2000EC0520E030E0C0E0D0E0309711F14081AA
:104B3000518148175907C0F04817590761F482811D
:104B40009381209719F09B838A832BC09093EC0567
:104B50008093EB0526C02115310519F04217530744
:104B600018F49A01BE01DF01EF010280F381E02D0C
:104B7000DCCF2115310509F1281B390B2430310513
:104B800090F412968D919C9113976115710521F007
:104B9000FB019383828304C09093EC058093EB0523
:104BA000FD01329644C0FD01E20FF31F8193919302
:104BB000225031092D933C933AC02091E905309160
:104BC000EA05232B41F42091020130910301309337
:104BD000EA052093E905209100013091010121159A
:104BE000310541F42DB73EB74091040150910501C4
:104BF000241B350BE091E905F091EA05E217F30774
:104C0000A0F42E1B3F0B2817390778F0AC014E5F3C
:104C10005F4F2417350748F04E0F5F1F5093EA058A
:104C20004093E9058193919302C0E0E0F0E0CF0169
:104C3000DF91CF9108950F931F93CF93DF93009748
:104C400009F48CC0FC013297138212820091EB05AB
:104C50001091EC050115110581F420813181820F3D
:104C6000931F2091E9053091EA052817390779F556
:104C7000F093EA05E093E90571C0D80140E050E007
:104C8000AE17BF0750F412962D913C911397AD01CA
:104C90002115310509F1D901F3CF9D01DA013383E3
:104CA000228360817181860F971F8217930769F4B1
:104CB000EC0128813981260F371F2E5F3F4F31834A
:104CC00020838A819B8193838283452B29F4F093EF
:104CD000EC05E093EB0542C01396FC93EE9312971C
:104CE000ED01499159919E01240F351FE217F307F9
:104CF00071F480819181840F951F029611969C9387
:104D00008E938281938113969C938E931297E0E009
:104D1000F0E0D80112968D919C911397009719F0AD
:104D2000F8018C01F6CF8D919C9198012E5F3F4F39
:104D3000820F931F2091E9053091EA052817390762
:104D400069F4309729F41092EC051092EB0502C03B
:104D5000138212821093EA050093E905DF91CF9147
:104D60001F910F91089581E090E0F8940C94BF2674
:104D7000DC0101C06D9341505040E0F70895F89474
:024D8000FFCF63
:104D82000000ED0520008803650342033F065B4FE8
:104D9200666D7D077F6F777C395E797101000A004D
:104DA2006400E803000000006811D5100011AF1183
:104DB20031110F112311000000005C0B480B6E0B28
:0C4DC2001C0B400B2C0B1D0B0D0A0000FD
:00000001FF
