:100000000C9462000C948A000C948A000C948A0070
:100010000C948A000C948A000C948A000C948A0038
:100020000C948A000C948A000C948A000C948A0028
:100030000C948A000C948A000C948A000C948A0018
:100040000C94AB050C948A000C948A000C948A00E2
:100050000C948A000C948A000C948A000C948A00F8
:100060000C9485020C948A000000000024002700F4
:100070002A0000000000250028002B0000000000DE
:1000800023002600290004040404040404040202DA
:100090000202020203030303030301020408102007
:1000A0004080010204081020010204081020000012
:1000B0000007000201000003040600000000000029
:1000C0000000C20111241FBECFEFD8E0DEBFCDBFBC
:1000D00011E0A0E0B1E0EAEBFCE002C005900D9277
:1000E000A231B107D9F711E0A2E1B1E001C01D9240
:1000F000A23FB107E1F710E0C4ECD0E004C02297C2
:10010000FE010E945706C23CD107C9F70E949C0518
:100110000C945B060C9400008091120190911301E5
:10012000019731F48FE691E0609120010E940A026C
:100130008091120190911301039741F48FE691E0B1
:1001400061E271E043E050E00E94D90108950F930D
:100150001F9323C08FE691E00E945701049741F45A
:1001600010921F0110921E0110921D0110921C018D
:1001700000911C0110911D018FE691E00E94600129
:10018000F801EE0FFF1FEE5EFE4F918380830F5F3D
:100190001F4F10931D0100931C018FE691E00E94F8
:1001A0005701892BB9F61F910F91089580911C0179
:1001B00090911D01049709F05BC080911E01909100
:1001C0001F01892B09F054C081E090E090931F013A
:1001D00080931E018091120190911301019731F4D7
:1001E000809114010E9449058093200180911201A1
:1001F00090911301029731F48091140160911601DE
:100200000E94F50480911201909113010397B1F4BB
:10021000809114010E9434049C01909325018093E5
:10022000240160E071E00E942E0660932201C90162
:1002300060E071E00E942E068093230180911201FC
:1002400090911301049741F4609116017091170188
:10025000809114010E945604809112019091130123
:10026000059731F480911401609116010E94B60443
:1002700008950F931F938DE061E00E94B6040FE68E
:1002800011E0C80164E070E00E945902C80167EA09
:1002900070E00E94B801C8016CE870E00E94BD01E6
:1002A00084E061E00E94B6041F910F9108952091AF
:1002B000470130E080914601281B3109C9010895AA
:1002C0004091460180914701481718F02FEF3FEF0A
:1002D0000AC0E42FF0E0EA5DFE4F8081282F30E075
:1002E0004F5F40934601C9010895E0914601809116
:1002F0004701E81718F0EFEFFFEF06C0F0E0EA5D06
:10030000FE4F8081E82FF0E0CF0108950895AC0101
:1003100020916D0130916E0121153105E1F0909130
:100320004601809147019817B0F090E008C0FA01AB
:10033000EA0FFB1F8081AA5DBE4F8C939F5FA92FA0
:10034000B0E0A617B7079CF31092460160934701EF
:10035000CB01F90109950895E0916B01F0916C01D1
:10036000309729F01092680110926901099508955B
:1003700070936E0160936D01089570936C016093AA
:100380006B010895109272011092710188EE93E052
:10039000A0E0B0E08093730190937401A093750185
:1003A000B093760185E091E09093700180936F01A6
:1003B0000895CF92DF92EF92FF920F931F93CF9306
:1003C000DF937C016B018A0180916A018823A1F08F
:1003D000C0E0D0E00DC0D701ED91FC91D601AC0F8B
:1003E000BD1F0190F081E02DC7016C910995219608
:1003F000C017D10780F304C0CB01642F0E946002B4
:10040000C801DF91CF911F910F91FF90EF90DF9086
:10041000CF900895DF93CF930F92CDB7DEB7FC0155
:10042000698380916A018823C9F0809169018032D3
:1004300038F081E090E09383828320E030E015C0C3
:1004400080916801E82FF0E0E85BFE4F998190838E
:100450008F5F809368018093690105C0CE0101968A
:1004600061E00E94600221E030E0C9010F90CF916D
:10047000DF91089510924601109247011092680191
:10048000109269010E94160408950F931F938C0126
:10049000862F0E945C028CEA91E00E94800287E82D
:1004A00091E00E947B02C8010E943A021F910F91C5
:1004B00008950E9445020895880F8093BA00089518
:1004C000482F613210F081E0089580917B018430E3
:1004D00011F082E008956093C601A5EAB1E0842F8F
:1004E0009C01F90102C081918D938E2F841B861788
:1004F000D0F380E008959093820180938101089564
:100500009093800180937F0108951F920F920FB600
:100510000F9211242F933F934F935F936F937F9389
:100520008F939F93AF93BF93EF93FF938091B90005
:1005300090E0887F90708036910509F4F2C0813692
:100540009105CCF58832910509F47BC0893291057B
:10055000B4F48031910509F46FC0813191053CF408
:10056000009709F447C1089709F04FC165C0883169
:10057000910509F466C0809709F047C182C08034B4
:10058000910509F4A4C08134910544F480339105A8
:1005900009F482C0C89709F038C189C08035910537
:1005A00009F489C08835910509F496C0883491050D
:1005B00009F02BC1AEC08839910509F413C18939FE
:1005C0009105ECF48837910509F4ABC089379105A2
:1005D0004CF48836910509F4A4C08037910509F0E0
:1005E00014C19FC08838910509F4FCC08039910579
:1005F00009F49DC08038910509F007C198C0803B7F
:10060000910509F4C6C0813B91054CF4803A9105EF
:1006100009F49FC0883A910509F0F7C0BAC0803C40
:10062000910509F4E3C0883C910509F4DFC0883BDB
:10063000910509F0EAC0C2C080917C018093BB00A3
:10064000CFC09091A3018091A401981768F4909174
:10065000A301E92FF0E0ED57FE4F80818093BB00AE
:100660009F5F9093A301BCC080917D01882309F412
:100670004BC085ED8093BC008091BC0084FDFCCF15
:10068000C2C080E28093E80185ED8093BC00809138
:10069000BC0084FDFCCFB7C080E38093E80185ED0A
:1006A0008093BC008091BC0084FDFCCFACC088E38B
:1006B0008093E8019BC08091A3019091BB00E82F3B
:1006C000F0E0ED57FE4F90838F5F8093A3019091F0
:1006D000A3018091A40182C08091A3019091BB00ED
:1006E000E82FF0E0ED57FE4F90838F5F8093A301DA
:1006F00080917D01882341F085ED8093BC0080913D
:10070000BC0084FDFCCF7FC081E080937E0184EA41
:100710006EC085ED8093BC008091BC0084FDFCCF51
:1007200072C083E080937B011092E70159C08091F1
:10073000E701803208F056C08091E7019091BB003C
:10074000E82FF0E0E953FE4F90838F5F8093E7013D
:1007500047C08091E701803230F4E091E701F0E09A
:10076000E953FE4F108285ED8093BC008091BC0060
:1007700084FDFCCF10927B016091E701E091810143
:10078000F091820187EC91E070E009951092E70109
:100790002DC084E080937B011092C5011092C601A8
:1007A000E0917F01F091800109958091C601882335
:1007B00029F481E08093C6011092A5019091C501B2
:1007C000E92FF0E0EB55FE4F80818093BB009F5FE7
:1007D0009093C5019091C5018091C601981710F4BE
:1007E00085EC01C085E88093BC000FC085EC809348
:1007F000BC0009C01092E80185ED8093BC00809197
:10080000BC0084FDFCCF10927B01FF91EF91BF9162
:10081000AF919F918F917F916F915F914F913F9198
:100820002F910F900FBE0F901F90189510927B0183
:1008300081E080937D0110927E0182E161E00E945F
:10084000F50483E161E00E94F504E9EBF0E08081CA
:100850008E7F808380818D7F808388E48093B80041
:1008600085E48093BC000895982F8E3008F09E5048
:100870009770809100018295880F880F807C892B6A
:1008800080937C0080917A00806480937A008091CC
:100890007A0086FDFCCF2091780040917900942F5A
:1008A00080E030E0282B392BC90108951F93CF93A6
:1008B000DF93182FEB0161E00E94B604209709F442
:1008C0004AC0CF3FD10509F449C0E12FF0E0E2551D
:1008D000FF4F84918330C1F0843028F4813051F08F
:1008E0008230B1F50CC0863019F1873049F184307F
:1008F00079F514C084B5806884BDC7BD33C084B5A4
:10090000806284BDC8BD2EC08091800080688093C5
:100910008000D0938900C093880024C0809180001B
:10092000806280938000D0938B00C0938A001AC0AD
:100930008091B00080688093B000C093B30012C073
:100940008091B00080628093B000C093B4000AC070
:10095000C038D1051CF4812F60E002C0812F61E016
:100960000E94F504DF91CF911F910895CF93DF93FB
:10097000482F50E0CA0186569F4FFC0134914A57D8
:100980005F4FFA018491882369F190E0880F991FE5
:10099000FC01E859FF4FA591B491FC01EE58FF4FBF
:1009A000C591D491662351F42FB7F8948C91932F6D
:1009B000909589238C93888189230BC0623061F4E0
:1009C0002FB7F8948C91932F909589238C938881DD
:1009D000832B88832FBF06C09FB7F8948C91832BFD
:1009E0008C939FBFDF91CF910895482F50E0CA01AB
:1009F00082559F4FFC012491CA0186569F4FFC01EE
:100A000094914A575F4FFA013491332309F440C05F
:100A1000222351F1233071F0243028F42130A1F049
:100A2000223011F514C02630B1F02730C1F0243047
:100A3000D9F404C0809180008F7703C0809180003A
:100A40008F7D8093800010C084B58F7702C084B5FD
:100A50008F7D84BD09C08091B0008F7703C08091E5
:100A6000B0008F7D8093B000E32FF0E0EE0FFF1F0A
:100A7000EE58FF4FA591B4912FB7F894662321F457
:100A80008C919095892302C08C91892B8C932FBFD8
:100A90000895682F70E0CB0182559F4FFC0124918F
:100AA000CB0186569F4FFC0144916A577F4FFB0153
:100AB0009491992319F420E030E03CC0222351F1B5
:100AC000233071F0243028F42130A1F0223011F5C8
:100AD00014C02630B1F02730C1F02430D9F404C05E
:100AE000809180008F7703C0809180008F7D8093FC
:100AF000800010C084B58F7702C084B58F7D84BD1F
:100B000009C08091B0008F7703C08091B0008F7DC5
:100B10008093B000892F90E0880F991F84589F4FD1
:100B2000FC01A591B4918C9120E030E0842311F078
:100B300021E030E0C9010895CF93DF930E94F305CF
:100B40000E943901C0E0D0E00E94D6002097E1F376
:100B50000E940000F9CF1F920F920FB60F9211243E
:100B60002F933F938F939F93AF93BF938091ED010A
:100B70009091EE01A091EF01B091F0013091F1015F
:100B80000196A11DB11D232F2D5F2D3720F02D576C
:100B90000196A11DB11D2093F1018093ED01909369
:100BA000EE01A093EF01B093F0018091E9019091E3
:100BB000EA01A091EB01B091EC010196A11DB11DDC
:100BC0008093E9019093EA01A093EB01B093EC01CB
:100BD000BF91AF919F918F913F912F910F900FBE39
:100BE0000F901F901895789484B5826084BD84B569
:100BF000816084BD85B5826085BD85B5816085BD18
:100C0000EEE6F0E0808181608083E1E8F0E0108230
:100C1000808182608083808181608083E0E8F0E071
:100C2000808181608083E1EBF0E08081846080835B
:100C3000E0EBF0E0808181608083EAE7F0E0808192
:100C400084608083808182608083808181608083F2
:100C50008081806880831092C100089597FB092EDF
:100C600007260AD077FD04D00CD006D000201AF455
:100C7000709561957F4F0895F6F7909581959F4FF8
:100C80000895AA1BBB1B51E107C0AA1FBB1FA617D3
:100C9000B70710F0A61BB70B881F991F5A95A9F725
:100CA00080959095BC01CD010895EE0FFF1F059032
:0A0CB000F491E02D0994F894FFCFB1
:100CBA0001000000000A02D901570160017501868E
:020CCA00010027
:00000001FF
