:100000000C9462000C945B0E0C94340E0C948A00D9
:100010000C948A000C9484120C948A000C946D1138
:100020000C948A000C948A000C948A000C948A0028
:100030000C948A000C94F9100C948A000C948A0099
:100040000C94EA0D0C948A000C94A80E0C94820E69
:100050000C948A000C948A000C948A000C948A00F8
:100060000C94DA0E0C948A00000000002400270093
:100070002A0000000000250028002B0000000000DE
:1000800023002600290004040404040404040202DA
:100090000202020203030303030301020408102007
:1000A0004080010204081020010204081020000012
:1000B0000008000201000003040700000000000027
:1000C0000000411E11241FBECFEFD8E0DEBFCDBF20
:1000D00011E0A0E0B1E0EAEDF6E402C005900D9277
:1000E000AC34B107D9F724E0ACE4B1E001C01D9213
:1000F000AB36B207E1F710E0C2E6D0E004C02197CA
:10010000FE010E94C31FC136D107C9F70E94191C06
:100110000C946B230C9400004F925F926F927F922D
:100120008F929F92AF92BF92CF92DF92EF92FF9207
:100130000F931F93CF93DF93CDB7DEB7A1970FB681
:10014000F894DEBF0FBECDBF8091C9019091CA0166
:10015000892B09F45AC00E94DE0D0E94F2206B0127
:100160007C016091C5017091C6018091C701909199
:10017000C8010E94F2209B01AC01C701B6010E9498
:10018000D81F4B015C01409001015090020160902A
:10019000030170900401C301B2010E94F2209B018F
:1001A000AC01C501B4010E94A421181674F5A091F8
:1001B000AF02B091B002A30192010E946D1F0E9494
:1001C000F220A50194010E944A200E94C32060935E
:1001D000C1017093C2018093C3019093C401109236
:1001E000B0021092AF02C701B6010E94C320609313
:1001F000C5017093C6018093C7019093C80181E047
:1002000090E090937D0280937C02809172029091A5
:100210007302049799F48091740290917502892B6E
:1002200009F493C00BC08091A802823009F0A1C0EC
:100230006091AA028091A9020E94FC0C80915C014D
:1002400090915D01892B59F180916604813039F5D7
:10025000209165048091540190915501213049F419
:1002600001968931910554F0109255011092540174
:1002700009C0019797FF02C088E190E09093550173
:10028000809354018091A8028093790281E0809349
:100290007A028091540180937B02109266048091CF
:1002A000560190915701892B11F40C94260B0E9452
:1002B000DE0D009158011091590120915A013091A1
:1002C0005B01DC01CB01801B910BA20BB30B813DC9
:1002D0009740A105B10510F40C94260B2091AD02B6
:1002E0003091AE024EE1429FC001439F900D112418
:1002F00069E470E00E94181FE62F472F60935201B7
:100300007093530181E080937602862F972F60E0EF
:1003100071E00E94181F809377022E2F342F37FF31
:1003200002C021503F4F309378021092AE021092DB
:10033000AD020E94DE0D60935801709359018093C5
:100340005A0190935B010C94260B81E090E090930E
:100350007502809374028091A802813009F063CF06
:100360008091A802809393028091A9020E94D30CED
:10037000AFC28091A8028330C1F48091A9020E948B
:10038000680D9093C0018093BF012091A802209333
:1003900093029C0197FF02C021503F4F309394027B
:1003A00060E071E00E94181F5FC48091A802843051
:1003B00009F05CC00091AA02E02EF12C1091A90274
:1003C00061E0812F0E942C0DE114F10419F460E02A
:1003D000812F32CF2FEFE216F10409F445C0E12F4F
:1003E000F0E0E255FF4FE491E330F9F048F4E130FA
:1003F000B9F0E230A1F584B5806284BD08BD1ECF9E
:10040000E730E9F0E83019F1E43049F580918000F7
:10041000806280938000F0928B00E0928A000ECF81
:1004200084B5806884BD07BD09CF80918000806855
:1004300080938000F0928900E0928800FFCE809146
:10044000B00080688093B0000093B300F7CE809135
:10045000B00080628093B0000093B400EFCE30E82B
:10046000E316F1040CF4B3CF61E0B2CF8091A8029F
:10047000853029F46091AA028091A902CFC18091B0
:10048000A802873009F060C0F090A9020F2D10E09B
:100490001093BE010093BD0161E08F2D0E942C0DD1
:1004A00060E08F2D0E94FC0C83E090E00197F1F753
:1004B00061E08F2D0E94FC0C8FE090E00197F1F736
:1004C00060E08F2D0E94FC0C60E08F2D0E942C0DAF
:1004D000F801E656FF4F6491F801EA57FF4FE491A7
:1004E000F0E0EE0FFF1FE458FF4F8591949108EF65
:1004F00014E221E030E0462F0E94091561157105D4
:100500008105910549F0DC01CB010196A11DB11DCA
:10051000BC01CD019F7003C060E070E0CB012AE315
:1005200030E040E050E00E944E1F8091A80280938E
:100530009302BB2757FDBA95A52F942F832F809345
:100540009402209395027ACE8091A802883069F4B3
:100550008091A8028093930281E08093940283E0CB
:10056000809395021092960269CE8091A8028832FB
:1005700009F01FC18091700290917102892B09F4DA
:100580005DCE8091AA02811104C08091A9026BE026
:1005900013C08091AA02813021F48091A90266E102
:1005A0000BC08091AA02823021F08091AA02833090
:1005B00029F48091A90265E10E94921461E0809182
:1005C000D9020E94FC0C6AEF70E080E090E00E948B
:1005D000A40D0E94DE0D0091DC021091DD0220913D
:1005E000DE023091DF02601771078207930740F443
:1005F0001092DC021092DD021092DE021092DF02F5
:100600002091E002211114C00091DC021091DD0262
:100610002091DE023091DF02DC01CB01801B910BC7
:10062000A20BB30B803D9740A105B10508F480C033
:100630001092E0020E94DE0D6093DC027093DD02F6
:100640008093DE029093DF021092D7021092D602BE
:100650001092D5021092D4021092D30261E08091E0
:10066000D9020E942C0D60E08091D9020E94FC0CFE
:1006700064E170E080E090E00E94A40DF89461E0F5
:100680008091D9020E94FC0C8BE990E00197F1F770
:1006900060E08091D9020E942C0DF12C10E081E0E5
:1006A00000E0C82ED12C8091D9020E94D30C8C1569
:1006B0009D0519F40F5F0F3FB1F78091D9020E9499
:1006C000D30C0F3FC1F0143098F010FD11C0EF2D86
:1006D000E695E695E695F0E0ED52FD4F9081990F95
:1006E00090832091DB02201710F491609083F394A3
:1006F0001F5F1535A9F67894F7E2FF15B0F4209145
:10070000D70230E04091D3028091D40290E0840F70
:10071000911D4091D502840F911D4091D602840F06
:10072000911D99272817390719F020E030E01AC0E9
:100730008091DA02853109F4CEC0863109F032C1E8
:100740001092E5021092E6021092E7021092E8027F
:100750001092E1021092E2021092E3021092E4027F
:1007600021EE32E08091A80280937E0281E090E049
:100770009093BC018093BB01F901E80FF91F408100
:10078000FC01E258FD4F4083019685309105A1F7A9
:10079000F901E80FF91F4081FC01E258FD4F408349
:1007A000019689309105A1F79093BC018093BB011C
:1007B0007AC08091A8028233A1F56091AA0240918B
:1007C000A9028091A9028F5F2091A90230E02250F6
:1007D000310997E0929FF001939FF00D1124EF569D
:1007E000FE4FA82FB0E0B183A08350E05383428333
:1007F00091E0611101C090E0948397E0929F8001A5
:10080000939F100D11240F561E4FF801168215826A
:1008100061E00E942C0D61E0F80182810E942C0DA4
:100820000DCD8091A802833309F0F5C08091A90213
:1008300090E0029747E0489FF001499FF00D112496
:10084000EF56FE4F80819181892B09F0C5C0E3C02E
:100850008091A8028A3009F0BCC580917002909105
:100860007102019709F0EACC8091A802809393026B
:1008700080917C0290917D02809394028091C101CD
:100880009091C201A091C301B091C40180939502DF
:10089000492F5A2F6B2F772740939602CD01AA2715
:1008A000BB27809397021092710210927002C6CCFF
:1008B0008091A802853109F475C68091A80288311B
:1008C00009F0BCCC8091A802809393020E944E153F
:1008D00080939402B3CC1091D502612F6F7770E0B2
:1008E00080E090E00E94F42020E030E040E853E413
:1008F0000E94A9216B017C018091D602682F70E0D3
:1009000080E090E00E94F4209B01AC01C701B60199
:100910000E94D91F20E030E040E251E40E944A20CA
:1009200017FD09C06093E1027093E2028093E30235
:100930009093E4020BC0DC01CB01B0588093E1023C
:100940009093E202A093E302B093E4026091D30299
:1009500070E080E090E00E94F22020E030E040E88B
:1009600053E40E94A9216B017C018091D402682F7D
:1009700070E080E090E00E94F4209B01AC01C70190
:10098000B6010E94D91F20E030E040E251E40E940D
:100990004A206093E5027093E6028093E702909309
:1009A000E802DECE8B3009F0DBCE6091D50270E03C
:1009B00080E090E00E94F2206093E1027093E202F6
:1009C0008093E3029093E4026091D30270E080E0B0
:1009D00090E00E94F220DDCF9091AA022091A9021E
:1009E00030E022503109429FF001439FF00D112465
:1009F000EF56FE4F81E0911101C080E0848347E013
:100A0000429FC001439F900D11248F569E4FFC01C1
:100A10006581768132C08091A802843389F5809106
:100A2000A90290E0029727E0289FF001299FF00D8E
:100A30001124EF56FE4F80819181892B09F180911D
:100A4000AA022091A90230E0225031098B3008F02F
:100A50008AE06FEF7FEF02C0660F771F8A95E2F79B
:100A60006095709547E0429FC001439F900D11240F
:100A70008F569E4FFC01768365830E942712DECB42
:100A80008091A802853309F05FC08091A90290E0AF
:100A9000029747E0489FF001499FF00D1124EF565F
:100AA000FE4F80819181892B09F44EC05091AB0299
:100AB0009091AA022091A90230E022503109429F70
:100AC000F001439FF00D1124EF56FE4F9923D1F111
:100AD0009B3008F09AE0915061E070E002C0660F30
:100AE000771F9A95E2F7552379F087E0829FD0012E
:100AF000839FB00D1124AF56BE4F15964D915C915A
:100B00001697642B752B10C06095709587E0829FB7
:100B1000D001839FB00D1124AF56BE4F15964D9155
:100B20005C9116976423752387E0829FD001839F91
:100B3000B00D1124AF56BE4F16967C936E93159749
:100B4000CF019BCF91E0C7CF8091A8028633F1F50A
:100B50008091A90290E0029757E0589FF001599FB9
:100B6000F00D1124EF56FE4F80819181892B71F198
:100B70009091AA022091A90230E022503109529F9F
:100B8000B001539F700D1124AB014F565E4F992356
:100B9000D9F09B3008F09AE0915061E070E002C01B
:100BA000660F771F9A95E2F787E0829FF001839F97
:100BB000F00D1124EF56FE4F2581368162277327F1
:100BC00076836583CA0159CF91E0E6CF8091A80270
:100BD000873319F58091A90290E0029747E0489F7A
:100BE000F001499FF00D1124EF56FE4F8081918155
:100BF000892B99F06091AA028091AB022091A90201
:100C000070E0782B30E022503109429FC001439FB1
:100C1000900D11248F569E4F30CF8091A8028833BB
:100C200031F58091A90290E0029727E0289FF0011A
:100C3000299FF00D1124EF56FE4F80819181892B61
:100C4000B1F08091A90290E00297289FF001299FBE
:100C5000F00D1124EF56FE4F958186812091A80258
:100C6000209393029093940280939502E7CA809117
:100C7000A802863429F59091A9028091A9020091D9
:100C8000A90210E0025011099801220F331F020F30
:100C9000131F01581E4FF80180839F5F918360E00E
:100CA0000E942C0D60E0F80181810E942C0D60E013
:100CB000F80180810E94FC0C60E0F8018181BCCACF
:100CC0008091A802873421F58091A90290E00297D3
:100CD000FC01EE0FFF1F8E0F9F1FFC01E158FE4F1E
:100CE00080818823A9F02091AA028091A90290E036
:100CF0000297283058F4285FFC01EE0FFF1F8E0F7B
:100D00009F1FFC01E158FE4F228398CA2FE0F4CFC9
:100D10008091A802883401F58091A90290E00297A1
:100D2000FC01EE0FFF1F8E0F9F1FFC01E158FE4FCD
:100D30008081882389F06091AA029091AB02809112
:100D4000A90270E0792B90E002979C01220F331FDB
:100D5000820F931F40E040C08091A802893479F44B
:100D60008091A90290E00297FC01EE0FFF1F8E0F09
:100D70009F1FFC01E158FE4F808181111DC08091B1
:100D8000A8028A3471F58091A90290E00297FC01D3
:100D9000EE0FFF1F8E0F9F1FFC01E158FE4F808159
:100DA0008823F9F0E091AB028091A902EF70F0E0A6
:100DB000E05FFE4F80812AC06091AA029091AB0251
:100DC0008091A90270E0792B90E002979C01220F9C
:100DD000331F820F931F41E081589E4F0E94AA1437
:100DE0002DCA8091A8028B34F9F48091A90290E079
:100DF0000297FC01EE0FFF1F8E0F9F1FFC01E158B1
:100E0000FE4F8081882381F08091AB0289832091FD
:100E1000AA028091A90290E00297AC01440F551FED
:100E2000840F951F41E0BCC08091A8028C3409F06A
:100E300044C08091A90290E00297FC01EE0FFF1FD1
:100E40008E0F9F1FFC01E158FE4F80818823A9F17E
:100E50008091AA029091A9022AE0622F0E940C1FA1
:100E60008F70E82FF0E0E05FFE4F808189838091F2
:100E7000AA029091A9020E940C1FE92FF0E0E05F06
:100E8000FE4F808180688A838091AB029091A90295
:100E90000E940C1F8F70E82FF0E0E05FFE4F808112
:100EA0008B838091AB029091A9020E940C1FE92FC5
:100EB000F0E0E05FFE4F80814FC08091A8028D344A
:100EC00079F48091A90290E00297FC01EE0FFF1FD8
:100ED0008E0F9F1FFC01E158FE4F8081811118C0C9
:100EE0008091A8028E34D1F58091A90290E00297FA
:100EF000FC01EE0FFF1F8E0F9F1FFC01E158FE4FFC
:100F00008081882359F18FEF89838A838B8324C062
:100F1000D090AA02E090AB02F4E0EF9E70011124A1
:100F200000E010E00E151F0509F488C98D2D0E9400
:100F3000680DBC012091A90230E022503109C9019D
:100F4000880F991F820F931F40E081589E4F0E9487
:100F5000AA140F5F1F4FE6CF8C8317C08091A802A1
:100F60008F3431F58091A90290E00297FC01EE0FD9
:100F7000FF1F8E0F9F1FFC01E158FE4F80818823C9
:100F8000B9F019821A821B821C828091A90290E01A
:100F900002979C01220F331F820F931F20E044E031
:100FA000BE016F5F7F4F81589E4F0E94201146C93E
:100FB0008091A8028A3569F48091A90280937C010E
:100FC0008091AA0280937D018091AB0280937E0183
:100FD00035C98091A8028B35B1F42091AA024091C5
:100FE000A9026091A902E091A9024F5FF0E0329757
:100FF00035E03E9FC0013F9F900D1124825A9E4FC5
:101000000E94141E1BC98091A8028C3509F047C0AC
:101010002091AA024091A9026091A902E091A9023F
:101020004F5FF0E0329735E03E9FC0013F9F900D4B
:101030001124825A9E4F0E94141E4091AB0242FB23
:10104000442740F9E42EE1941091AB0216951170FB
:1010500011958091AB028170F82EF194C12CD12CA6
:10106000B5E0BB2E8091AA0290E0C816D9060CF01C
:10107000E5C82091A90230E022503109B29EC0019A
:10108000B39E900D11240F2D212F4E2D6C2D825AC1
:101090009E4F0E94851DFFEFCF1ADF0AE3CF80919C
:1010A000A8028D3509F056C08091AA02811118C09E
:1010B0006091AB022091A90230E02250310945E055
:1010C000429FC001439F900D112400917E01209109
:1010D0007D0140917C01825A9E4F0E94851DAEC8C1
:1010E0008091A90290E0029725E0289FF001299FB6
:1010F000F00D1124E25AFE4FC280E12CF12CD12CCC
:1011000015E0EC14FD040CF099C88091AA0281301E
:1011100039F48091AB0290E0E816F90609F080C23C
:101120008091AA02823039F48091AB0290E08E1552
:101130009F050CF075C28091AA02833039F480912A
:10114000AB0290E0E816F9060CF06AC22FEFE21A43
:10115000F20AD7CF8091A8028E3509F043C0809162
:10116000AB02811103C081E08093AB028091A902A0
:1011700090E0029725E0289FF001299FF00D1124AF
:10118000E25AFE4FC280E090AA02F12CD12C15E069
:10119000EC14FD040CF052C88091AA026091AB02DD
:1011A000F701E81BF109CF0170E00E94181F892B9D
:1011B000A9F42091A90230E022503109129FC00108
:1011C000139F900D112400917E0120917D0140918B
:1011D0007C016E2D825A9E4F0E94851DFFEFEF1AF3
:1011E000FF0AD6CF8091A8028F3509F073C0809195
:1011F000A90290E0029725E0289FF001299FF00DB9
:101200001124E25AFE4FC2808091AB02D12C811191
:1012100030C0E12CF12C15E0EC14FD0414F00C941A
:101220001E018091AA0290E02091A90230E0225094
:101230003109E816F90664F4129FC001139F900D5E
:10124000112400917E0120917D0140917C0108C014
:10125000129FC001139F900D112400E020E040E098
:101260006E2D825A9E4F0E94851D2FEFE21AF20AC0
:10127000D3CF760115E0E114F10411F40C941E01B2
:101280008091AA02F601E81BF1092091A90230E041
:1012900022503109EE16FF0664F0129FC001139F21
:1012A000900D112400917E0120917D0140917C01DF
:1012B00008C0129FC001139F900D112400E020E090
:1012C00040E06E2D825A9E4F0E94851DF1E0EF1A7C
:1012D000F108D1CF8091A8028E3061F58091A902EA
:1012E0008093090180910901823031F080910901D8
:1012F000833021F08FEF03C080E001C081E041E046
:1013000050E06EEB73E10E94F51C81E090E0909359
:10131000CA018093C9011092B0021092AF020E94DC
:10132000DE0D6093C5017093C6018093C701909351
:10133000C80134C18091A8028F30A1F480910901C5
:10134000823031F080910901833021F08FEF03C0AA
:1013500080E001C081E00E94E31C1092CA0110925B
:10136000C9011CC18091A8028930D9F42091A90239
:101370008091AA0290E0982F8827820F911D092E54
:10138000000CAA0BBB0B8093010190930201A09368
:101390000301B093040110927D0210927C020C9420
:1013A0001E018091A802863009F052CA8091A802DD
:1013B000809393028091010190910201A091030119
:1013C000B091040180939402892F9A2FAB2FBB27F1
:1013D0004BCC8091A8028031C9F510928000809397
:1013E000810021E020934E018FB780934F01F89444
:1013F00080E49FE190934D0180934C01909387008E
:101400008093860080914F018FBF80918100887FFB
:10141000809381009091810080914E01982B909350
:10142000810040EC50E150935101409350012093D2
:101430006F0090918100892B80938100789481E0E6
:1014400090E090935D0180935C01A8C08091A80218
:10145000813159F480916F008E7F80936F001092DC
:101460005D0110925C010C941E018091A8028231F2
:10147000A1F51091A90210930001123021F0133050
:1014800021F08FEF03C080E001C081E060E00E94A6
:101490002C0D123021F0133021F08FEF03C080E0CB
:1014A00001C081E043E050E069ED72E10E94F51C6B
:1014B0001092AE021092AD020E94DE0D60935801B0
:1014C0007093590180935A0190935B0181E090E001
:1014D000909357018093560161C08091A8028D308E
:1014E00091F41092570110925601809100018230C0
:1014F00021F0833021F08FEF03C080E001C081E054
:101500000E94E31C4BC08091A802863109F0D0C92B
:101510002091A90230E040E050E019A28E010F5D59
:101520001F4F6AE0C62ED12CE12CF12CCA01B90163
:10153000A70196010E942C1F605DF80162938F0144
:10154000211531054105510589F7309761F001906A
:101550000020E9F73197AF01401B510BB80189EE2C
:1015600092E00E949D0B8091A90280939303F894CE
:1015700082E08093B0008093B10094E69093B30032
:101580001092B2008093700078948093920310922E
:1015900096038091930360E00E942C0D1092A802A4
:1015A0000C941E010E944E152091C302892B81F1DB
:1015B0008091A80280939302209394029091C50297
:1015C0008091C60290939502809396028091C70203
:1015D0009091C802A091C902B091CA02809397026B
:1015E000492F5A2F6B2F772740939802AD0166271A
:1015F0007727409399028B2F9927AA27BB2780939F
:101600009A0282E080939203109296030C941E013A
:101610008091A80280939302209394020C941E015F
:101620002091A90230E022503109129FC001139F7E
:10163000900D112400917E0120917D0140917C014B
:101640006E2D825A9E4F0E94851D80CDA1960FB6A9
:10165000F894DEBF0FBECDBFDF91CF911F910F91E8
:10166000FF90EF90DF90CF90BF90AF909F908F90C2
:101670007F906F905F904F900895833081F028F4B1
:10168000813099F08230A1F008958730A9F0883038
:10169000B9F08430D1F4809180008F7D03C08091B7
:1016A00080008F7780938000089584B58F7702C083
:1016B00084B58F7D84BD08958091B0008F7703C07D
:1016C0008091B0008F7D8093B0000895E09160021A
:1016D000F0916102309729F01092CC011092CB0169
:1016E00009940895CF93DF93AC01E0915E02F091ED
:1016F0005F023097F1F09091CE018091CD01981763
:10170000C0F090E0292F30E02617370754F4D901B4
:10171000A053BE4FEA01C20FD31F88818C939F5FF5
:10172000F1CF1092CE016093CD01CB01DF91CF912B
:101730000994DF91CF9108950895CF92DF92EF92AF
:10174000FF920F931F93CF93DF936C017A018B016C
:10175000C0E0D0E0CE15DF0589F0D8016D918D0194
:10176000D601ED91FC910190F081E02DC601099523
:10177000892B11F47E0102C02196ECCFC701DF91C5
:10178000CF911F910F91FF90EF90DF90CF90089530
:10179000FC01538D448D252F30E0842F90E0821B77
:1017A000930B541710F0CF96089501970895FC01FC
:1017B000918D828D981761F0828DDF01A80FB11D88
:1017C0005D968C91928D9F5F9F73928F90E00895AC
:1017D0008FEF9FEF0895FC01918D828D981731F066
:1017E000828DE80FF11D858D90E008958FEF9FEFBA
:1017F0000895FC01918D228D892F90E0805C9F4F90
:10180000821B91098F739927089589EE92E00E94B7
:10181000F90B21E0892B09F420E0822F0895FC01C7
:10182000848DDF01A80FB11DA35ABF4F2C91848D69
:1018300090E001968F739927848FA689B7892C939E
:10184000A089B1898C9180648C93938D848D981339
:1018500006C00288F389E02D80818F7D8083089502
:10186000EF92FF920F931F93CF93DF93EC0181E0F0
:10187000888F9B8D8C8D981305C0E889F9898081AC
:1018800085FD24C0F62E0B8D10E00F5F1F4F0F73E8
:101890001127E02E8C8DE8120CC00FB607FCFACF92
:1018A000E889F989808185FFF5CFCE010E940F0C70
:1018B000F1CF8B8DFE01E80FF11DE35AFF4FF0824F
:1018C0000B8FEA89FB898081806207C0EE89FF89DE
:1018D0006083E889F98980818064808381E090E079
:1018E000DF91CF911F910F91FF90EF900895CF93CB
:1018F000DF93EC01888D8823C9F0EA89FB89808118
:1019000085FD05C0A889B9898C9186FD0FC00FB6E9
:1019100007FCF5CF808185FFF2CFA889B9898C912A
:1019200085FFEDCFCE010E940F0CE7CFDF91CF9165
:10193000089580E090E0892B29F00E94050C811128
:101940000C940000089585ED8093BC008091BC004C
:1019500084FDFCCF1092590208950895E091CE01C4
:101960008091CD01E81730F4F0E0E053FE4F808124
:1019700090E008958FEF9FEF08959091CE018091B0
:10198000CD01981750F4E92FF0E0E053FE4F20818D
:1019900030E09F5F9093CE0102C02FEF3FEFC9016F
:1019A00008950E945F23CF93DF93282F30E0F90141
:1019B000E255FF4F8491F901E656FF4FD491F901AA
:1019C000EA57FF4FC491CC2391F081110E943D0B47
:1019D000EC2FF0E0EE0FFF1FE458FF4FA591B491FC
:1019E000EC91ED2381E090E021F480E002C080E002
:1019F00090E0DF91CF9108951F93CF93DF93282F2D
:101A000030E0F901E255FF4F8491F901E656FF4FAE
:101A1000D491F901EA57FF4FC491CC23C9F0162F96
:101A200081110E943D0BEC2FF0E0EE0FFF1FEE58EE
:101A3000FF4FA591B4918FB7F894111105C09C91F7
:101A4000ED2FE095E92302C0EC91ED2BEC938FBFD5
:101A5000DF91CF911F910895CF93DF9390E0FC0128
:101A6000E656FF4F2491FC01EA57FF4F84918823EB
:101A700061F190E0880F991FFC01E859FF4FC59173
:101A8000D491FC01EE58FF4FA591B491611109C0AA
:101A90009FB7F8948881209582238883EC912E2328
:101AA0000BC0623061F49FB7F8943881822F809523
:101AB00083238883EC912E2B2C939FBF06C08FB776
:101AC000F894E8812E2B28838FBFDF91CF91089562
:101AD0008E3008F08E508770806480937C008091F7
:101AE0007A00806480937A0080917A0086FDFCCF32
:101AF000809178002091790090E0922B08953FB773
:101B0000F8948091670290916802A0916902B09167
:101B10006A0226B5A89B05C02F3F19F00196A11DAA
:101B2000B11D3FBFBA2FA92F982F8827820F911D73
:101B3000A11DB11DBC01CD0142E0660F771F881FBA
:101B4000991F4A95D1F708958F929F92AF92BF92B5
:101B5000CF92DF92EF92FF926B017C010E947F0D8A
:101B60004B015C01C114D104E104F104F1F00E94C5
:101B70007F0DDC01CB0188199909AA09BB09883EB0
:101B80009340A105B10570F321E0C21AD108E10824
:101B9000F10888EE880E83E0981EA11CB11CC114C8
:101BA000D104E104F10419F7DDCFFF90EF90DF904D
:101BB000CF90BF90AF909F908F9008952FB7F894DB
:101BC0006091630270916402809165029091660257
:101BD0002FBF08951F920F920FB60F9211242F93CB
:101BE0003F938F939F93AF93BF93809163029091A4
:101BF0006402A0916502B09166023091620223E016
:101C0000230F2D3720F40196A11DB11D05C026E834
:101C1000230F0296A11DB11D2093620280936302DF
:101C200090936402A0936502B0936602809167026C
:101C300090916802A0916902B0916A020196A11D7B
:101C4000B11D8093670290936802A0936902B093DC
:101C50006A02BF91AF919F918F913F912F910F9009
:101C60000FBE0F901F9018951F920F920FB60F92F4
:101C700011242F933F934F935F936F937F938F9391
:101C80009F93AF93BF93EF93FF93E0910701F09180
:101C900008010995FF91EF91BF91AF919F918F91AD
:101CA0007F916F915F914F913F912F910F900FBE58
:101CB0000F901F9018951F920F920FB60F9211243C
:101CC0002F933F934F935F936F937F938F939F9344
:101CD000AF93BF93EF93FF93E0910501F09106015D
:101CE0000995FF91EF91BF91AF919F918F917F9156
:101CF0006F915F914F913F912F910F900FBE0F9079
:101D00001F9018951F920F920FB60F9211242F93C8
:101D10003F934F935F936F937F938F939F93AF9373
:101D2000BF93EF93FF9389EE92E00E940F0CFF9117
:101D3000EF91BF91AF919F918F917F916F915F9143
:101D40004F913F912F910F900FBE0F901F901895BC
:101D50001F920F920FB60F9211242F938F939F9380
:101D6000EF93FF93E091F902F091FA028081E09104
:101D7000FF02F091000382FD12C090818091020366
:101D80008F5F8F7320910303821751F0E09102035C
:101D9000F0E0E751FD4F958F8093020301C08081F1
:101DA000FF91EF919F918F912F910F900FBE0F9008
:101DB0001F9018951F920F920FB60F9211242F9318
:101DC0003F934F935F936F937F938F939F93AF93C3
:101DD000BF93EF93FF938091B900887F803609F419
:101DE0009CC068F5883209F45BC090F4803109F436
:101DF00054C038F4882309F4F6C0883009F44DC083
:101E0000F6C0883109F44CC0803209F45DC0EFC0DF
:101E1000803409F468C048F4803309F455C088332D
:101E200009F0E5C080933302D8C0803509F44FC073
:101E3000883509F45DC0883409F0D9C0D6C0883926
:101E400009F4C7C0A8F4883709F467C038F48836A5
:101E500009F463C0803709F460C0C9C0883809F448
:101E6000B8C0803909F45FC0803809F0C0C05BC0D9
:101E7000803B09F486C038F4803A09F466C0883A99
:101E800009F47FC0B4C0803C09F4A7C0883C09F4C1
:101E9000A4C0883B09F48AC0AAC08091560210C031
:101EA0009091550280915402981770F5E091550277
:101EB00081E08E0F80935502F0E0EC5CFD4F808155
:101EC0008093BB0085EC86C0809333028EC0E09186
:101ED000550281E08E0F809355028091BB00F0E0A7
:101EE000EC5CFD4F808390915502809154026EC04E
:101EF000E091550281E08E0F809355028091BB00E6
:101F0000F0E0EC5CFD4F80838091580281116DC040
:101F100081E08093570284EA61C083E08093590294
:101F200010923202CFCF80913202803208F051C03D
:101F3000E091320281E08E0F809332028091BB00EB
:101F4000F0E0EE5EFD4F8083BDCF85EC8093BC005A
:101F50001092590280913202803230F4E0913202C4
:101F6000F0E0EE5EFD4F10826091320270E0E09191
:101F70005A02F0915B0282E192E0099510923202DE
:101F800036C084E080935902109211021092100220
:101F9000E0915C02F0915D0209958091100281113F
:101FA00005C081E0809310021092F001E0911102CF
:101FB00081E08E0F80931102F0E0E051FE4F8081AE
:101FC0008093BB009091110280911002981708F441
:101FD00079CF85E88093BC000AC085EC8093BC0073
:101FE0001092590204C0109233020E94A30CFF9178
:101FF000EF91BF91AF919F918F917F916F915F9181
:102000004F913F912F910F900FBE0F901F901895F9
:1020100040911002262F30E0240F311D213231056E
:10202000DCF4209159022430C9F4FC0180E090E0F6
:10203000861758F4309110022191DC01A051BE4F57
:10204000A30FB11D2C930196F3CF80911002680F5E
:102050006093100280E0089581E0089582E0089581
:102060000F931F93CF93DF938C0161E0FC0181817B
:102070000E942C0DC3ECD0E0CE010197F1F760E097
:10208000F80180810E942C0DCE010197F1F760E0EC
:10209000F80181810E942C0D2197F1F7DF91CF91FA
:1020A0001F910F91089561E0FC0181810E942C0D28
:1020B00083EC90E00197F1F70895CF92DF92EF92D1
:1020C000FF920F931F93CF93DF93EC01E62E88E0EE
:1020D000F82E93ECC92ED12C61E088810E942C0D42
:1020E000C6010197F1F7E0FE02C060E001C061E0C7
:1020F00089810E942C0D03EC10E0C6010197F1F7D5
:1021000060E088810E942C0DC6010197F1F7E694EA
:10211000FA94F110E1CF61E088810E942C0D60E01B
:1021200089810E942C0DC8010197F1F760E0888138
:102130000E942C0DC8010197F1F789810E94D30CF0
:10214000F82E811104C061E089810E942C0D03ECFE
:1021500010E0C8010197F1F761E088810E942C0D21
:10216000F8013197F1F781E0F11001C080E0DF91D3
:10217000CF911F910F91FF90EF90DF90CF90089536
:10218000CF93DF9382E00E94D30CEC0183E00E94A6
:10219000D30C8C239D23019719F481E080936F0267
:1021A000DF91CF910895EF92FF920F931F93CF93FA
:1021B0007C018B01C0E1612F661F6627661FF70156
:1021C00082810E94FC0CF70180810E94D30C61E0A7
:1021D000892B09F060E0F70180810E94FC0C000F60
:1021E000111FC15041F7CF911F910F91FF90EF90B8
:1021F00008951F920F920FB60F9211242F933F93C1
:102200004F935F936F937F938F939F93AF93BF93FE
:10221000EF93FF93E0915001F09151010995FF91E7
:10222000EF91BF91AF919F918F917F916F915F914E
:102230004F913F912F910F900FBE0F901F901895C7
:10224000AF92BF92DF92EF92FF920F931F93CF93C3
:10225000DF9300D0CDB7DEB75C01F62EE42E2983E4
:102260007A830E94531060E4C5010E945D10C5018D
:102270000E943010C5010E9453102981237060EC28
:10228000620FC5010E945D10DF2C0F2D7A81172F80
:10229000802F8D198E1538F4F80161918F01C501D9
:1022A0000E945D10F5CFC5010E943010C5010E944B
:1022B0005310F50162816058C5010E945D10C5018F
:1022C0000F900F90DF91CF911F910F91FF90EF90A2
:1022D000DF90BF90AF900C9430101F920F920FB60A
:1022E0000F9211242F933F934F935F936F937F939C
:1022F0008F939F93AF93BF93EF93FF93809193033B
:102300000E94D30C20919703309198032F5F3F4F89
:10231000309398032093970390919603953618F085
:1023200096E090939203909192039430C9F128F42F
:10233000923069F09330D1F05EC0953009F451C00D
:10234000963009F058C091E09093630451C0811118
:1023500052C020919703309198032436310508F438
:1023600042C010926304109296031CC0813009F0A1
:1023700042C0E091960391E09E0F90939603F0E0A7
:102380002091970330919803EE0FFF1FEE56FC4FFC
:1023900030872783109298031092970394E029C006
:1023A000811117C0E091960391E09E0F90939603E0
:1023B000F0E02091970330919803EE0FFF1FEE5647
:1023C000FC4F30872783109298031092970393E075
:1023D00010C020919703309198032536310558F0AD
:1023E00007C0811108C0109298031092970303C090
:1023F00095E090939203909195039923B9F0811100
:102400000AC080919403882321F08091940361E0B5
:1024100009C02D9A0BC080919403882331F08091DC
:10242000940360E00E94FC0C01C02D98FF91EF9195
:10243000BF91AF919F918F917F916F915F914F91DC
:102440003F912F910F900FBE0F901F901895EF9214
:10245000FF920F931F93CF93DF93EC017B01CB018E
:1024600093709E838D8360E070E0CE010E94D31054
:1024700000E010E08C81882369F0C701002E02C0C3
:10248000880F991F0A94E2F7BC016627727091FFCA
:102490000FC00CC0C701002E02C0969587950A9404
:1024A000E2F7BC016170772780FF02C06FEF70E038
:1024B000CE010E94D3100F5F1F4F0A301105D1F6D5
:1024C00060E070E0CE010E94D31060E070E0CE01C9
:1024D0000E94D31060E08A810E94FC0C83E290E0AD
:1024E0000197F1F714E061E08A810E94FC0C60E042
:1024F0008A810E94FC0C1150B1F7DF91CF911F919E
:102500000F91FF90EF9008951F920F920FB60F92C8
:1025100011240F931F932F933F934F935F936F93C8
:102520007F938F939F93AF93BF93CF93EF93FF933B
:10253000C0916F02C130E9F482E00E94D30C8C019B
:1025400083E00E94D30C801791071CF4C0936504AC
:102550000CC082E00E94D30C8C0183E00E94D30C5B
:102560000817190734F410926504C093660410929A
:102570006F02FF91EF91CF91BF91AF919F918F919A
:102580007F916F915F914F913F912F911F910F918B
:102590000F900FBE0F901F9018958091CD0190E085
:1025A0002091CE01821B91090895089580E090E06A
:1025B00008958091AD029091AE0201969093AE0283
:1025C0008093AD020895CF93DF9300D0CDB7DEB7EF
:1025D000CB01642F49835A830E9408104981842FBC
:1025E0005A81952F0F900F90DF91CF910895CF933F
:1025F000DF931F92CDB7DEB7698361E0CE0101960C
:102600000E94081081E090E00F90DF91CF91089533
:102610008091CF0181119AC08091A802813041F44C
:1026200042E050E063E972E086E893E00E94E31242
:102630008091A802833009F48EC08091A80287306F
:1026400009F489C08091A802883309F484C080917C
:10265000A802883009F488C08091A802843109F466
:1026600083C08091A8028E3141F449E050E063E9D3
:1026700072E086E893E00E94E3128091A80288321B
:1026800041F449E050E06EE772E086E893E00E9492
:10269000E3128091A802853151F448E050E063E9EB
:1026A00072E086E893E00E94E31210929302809118
:1026B000A802883141F442E050E063E972E086E824
:1026C00093E00E94E3128091A8028A3071F445E001
:1026D00050E063E972E086E893E00E94E312109212
:1026E0007D0210927C021092A8028091A80286308E
:1026F00051F443E050E063E972E086E893E00E9421
:10270000E3121092A8028091A8028B3071F443E08A
:1027100050E069E772E086E893E00E94E3121092CD
:102720007A02109279021092A8028091A8028C304D
:1027300021F543E050E066E772E086E893E00E940E
:10274000E312109276021092A802089567E186E8DB
:1027500093E00C94F71243E050E063E972E086E8FE
:1027600093E00E94E31273CF44E050E063E972E02B
:1027700086E893E00E94E31274CF08950F931F93AD
:102780000E947F0D6093BF027093C0028093C102CC
:102790009093C202809109010E94D30C9093BE02D3
:1027A0008093BD02892B89F08091BF029091C00275
:1027B000A091C102B091C2028093B9029093BA0273
:1027C000A093BB02B093BC0210C08091BF02909155
:1027D000C002A091C102B091C2028093B502909351
:1027E000B602A093B702B093B8024091B9025091DB
:1027F000BA026091BB027091BC028091B5029091C7
:10280000B602A091B702B091B80284179507A60747
:10281000B707F0F58091B9029091BA02A091BB027E
:10282000B091BC020091B5021091B6022091B7029E
:102830003091B802BC01CD01601B710B820B930B70
:1028400028EE33E040E050E00E942C1F2093B102BC
:102850003093B2024093B3025093B4022091AF027E
:102860003091B0028091B1029091B202A091B30276
:10287000B091B402820F931F9093B0028093AF0285
:102880001092B9021092BA021092BB021092BC02CE
:102890001F910F9108950F931F93CF93DF93809112
:1028A000CF0181112FC001E010E08091CD01209176
:1028B000CE01821719F190E0821B9109049761F40F
:1028C00010927502109274021092730210927202AA
:1028D0001093710200937002C0917202D091730242
:1028E000CE010196909373028093720286E893E082
:1028F0000E94BD0CC855DD4F8883D7CF81E08093FF
:10290000CF010BC09091CD018091CE01981729F095
:1029100086E893E00E94BD0CF5CFDF91CF911F9127
:102920000F910895CF93DF93C3EDD2E08E836F8331
:1029300096E0988791E09D8760E00E942C0D61E011
:102940008E810E94FC0C19861A861B861C86DF91DC
:10295000CF9108957F928F929F92AF92BF92CF9224
:10296000DF92EF92FF920F931F93CF93DF9300D0EC
:1029700000D0CDB7DEB77C019B01942E08E211E0B8
:10298000FE0131967724739440E05F018FE3882E37
:10299000D801DE90CE908D01C901B6010E94181FAA
:1029A000CB01009751F4911004C0772011F043300F
:1029B00011F4808213C0108211C0A62FAF70B0E056
:1029C000A05FBE4F5C9150838C9DB0018D9D700DBA
:1029D0009C9D700D1124261B370B712C4F5F319677
:1029E0004430B1F620E0B501C7010E9420110F90DC
:1029F0000F900F900F90DF91CF911F910F91FF904B
:102A0000EF90DF90CF90BF90AF909F908F907F908E
:102A10000895CF92DF92EF92FF920F931F93E82FCA
:102A2000F92F05C0015011092109310961F1908187
:102A300096239417B9F305C00150110921093109F2
:102A400011F1908196239413F7CFC12CD12CE12C56
:102A5000F12C0AC08FEFC81AD80AE80AF80A0C1538
:102A60001D052E053F0579F080818623841791F39B
:102A70006C2D7D2D8E2D9F2D1F910F91FF90EF902E
:102A8000DF90CF90089560E070E080E090E01F91CB
:102A90000F91FF90EF90DF90CF9008952F923F928B
:102AA0004F925F926F927F928F929F92AF92BF925E
:102AB000CF92DF92EF92FF920F931F93CF93DF930A
:102AC00000D000D000D0CDB7DEB789E993E0909375
:102AD000CE028093CD028091960390E09093D00235
:102AE0008093CF028091630490E09093D202809310
:102AF000D10280919203853009F07BC380919B03C2
:102B000090919C03885891098D35910588F48091A6
:102B10009603843041F480919D0390919E038097A9
:102B2000479708F401C280919603843408F0E3C10A
:102B3000809196038A3108F454C080919903909152
:102B40009A03843F914080F41092CC021092CB0201
:102B50008FEF9FEFDC018093C7029093C802A09390
:102B6000C902B093CA025BC080919B0390919C0301
:102B700085974B97B0F5EFE9F3E082E090E040E015
:102B800050E0BA018C010F5F1F4F2091960330E097
:102B9000021713076CF49F0122503109D9012D91BE
:102BA0003C91275031092730310508F4F5C1C8019F
:102BB0000197959587959093CC028093CB020C97C3
:102BC0002CF41092CC021092CB020BC04093C7029F
:102BD0005093C8026093C9027093CA0284E090E0E7
:102BE000FCC2809196038A3108F44DC0809199030C
:102BF00090919A038032934008F4A6CF80919B0372
:102C000090919C03C697869708F4E2C13CC040931C
:102C1000C7025093C8026093C9027093CA028BE046
:102C200090E0DBC220813181255231092B31310501
:102C300008F0DEC1440F551F661F771F41600296E2
:102C400034968C010F5F1F4F2091960330E00217DE
:102C5000130764F49F0122503109D9012D913C9151
:102C60002C5031092B303105E8F2C80101979595B8
:102C700087959093CC028093CB020C9744F61092E8
:102C8000CC021092CB0280919603823208F44CC0A1
:102C900080919B0390919C030697079708F044C08E
:102CA000EFE9F3E082E090E040E050E0BA018C010F
:102CB0000F5F1F4F2091960330E002171307DCF4DB
:102CC000DF0112972D913C9111972E513109273137
:102CD000310508F09AC1440F551F661F771F4160E8
:102CE000208131813496235031092530310510F48B
:102CF0000296DDCFC8010197959587959093CC02F8
:102D00008093CB0240972CF41092CC021092CB020D
:102D10000BC04093C7025093C8026093C9027093DE
:102D2000CA028CE090E059C21C821B8281E090E0D4
:102D30009A838983809196038D3008F46BC049E7AC
:102D400053E0BE016D5F7F4FCE0101960E94881E49
:102D5000892B09F05FC049E753E0BE016D5F7F4FEB
:102D6000CE0101960E94881E019709F053C049E7E1
:102D700053E0BE016D5F7F4FCE0101960E94881E19
:102D8000892B09F047C0C12CD12C760100E010E05E
:102D90008091960390E029813A81281739075CF5E4
:102DA00049E753E0BE016D5F7F4FCE0101960E945F
:102DB000881E5C0149E753E0BE016D5F7F4FCE0185
:102DC00001960E94881EB1E0AB16B10449F4892B2C
:102DD00009F5CC0CDD1CEE1CFF1C6894C0F808C083
:102DE000AB28C1F40197B1F4CC0CDD1CEE1CFF1C28
:102DF0000F5F1F4FCDCF1093CC020093CB02C09238
:102E0000C702D092C802E092C902F092CA0281E0E1
:102E100090E0E3C11C821B8281E090E09A83898369
:102E20008091CF029091D002181619060CF058C06C
:102E3000E091CD02F091CE0282E090E09A83898306
:102E40008281938189974E9708F04AC083E090E091
:102E50009A838983848195810B970A9708F040C0F3
:102E60004CEB51E0BE016D5F7F4FCE0101960E9499
:102E7000881E892BA9F54CEB51E0BE016D5F7F4F99
:102E8000CE0101960E94881E019751F5C12CD12CCC
:102E9000760100E010E029813A818091CF02909183
:102EA000D002281739070CF0F3C04CEB51E0BE01FB
:102EB0006D5F7F4FCE0101960E94881E4C0103304A
:102EC000110509F0AFC04CEB51E0BE016D5F7F4FC3
:102ED000CE0101960E94881E8816990609F4A2C0A8
:102EE000E091CD02F091CE0282819381C6978697C0
:102EF00008F4DDC08CC180919D0390919E038254A3
:102F000091098E9708F014CE20E030E080E090E048
:102F1000DC01F901E156FC4F4081518149505109D2
:102F20004930510588F004CE80919F039091A00311
:102F30000997099708F0F7CD1092CC021092CB02B6
:102F40008FEF9FEFDC0158C1F901EF55FC4F408135
:102F50005181475151094231510588F4880F991F19
:102F6000AA1FBB1F81602C5F3F4F2038310589F6B7
:102F700020E230E03093CC022093CB023DC140816F
:102F80005181465051094730510508F0D1CD880F85
:102F9000991FAA1FBB1FE7CF20813181235131091F
:102FA0002F30310540F4440F551F661F771F4160D5
:102FB00002963496E7CD208131812A50310929309B
:102FC000310508F00ECE440F551F661F771FF0CF56
:102FD00080919D0390919E03C697869708F053CEEB
:102FE000E1EAF3E083E090E040E050E0BA0129CE6E
:102FF000208131812C5031092A30310508F043CE2F
:10300000440F551F661F771F1ACE2D913C912C50EF
:1030100031092B30310508F087CE440F551F661F4C
:10302000771F5ECE4CEB51E0BE016D5F7F4FCE014E
:1030300001960E94881E5C010330110569F44CEB77
:1030400051E0BE016D5F7F4FCE0101960E94881E48
:10305000A816B90609F044CF8114910459F4AA9432
:10306000AB2809F03DCFCC0CDD1CEE1CFF1C689496
:10307000C0F80BC08A94892809F032CFAB2809F038
:103080002FCFCC0CDD1CEE1CFF1C0F5F1F4F03CF9E
:103090001093CC020093CB02C092C702D092C80218
:1030A000E092C902F092CA0282E090E096C0848168
:1030B00095814B97459708F0AAC0DF0116967F01CE
:1030C00026ECE20EF11C20E030E040E050E060E051
:1030D00070E080E090E00D911C911197095011096A
:1030E0000830110508F093C012960D911C911397AA
:1030F000015111090D30110520F501E00E94781FE2
:1031000021601496AE15BF0531F72093C7023093A6
:10311000C8024093C9025093CA0200E20E94931F62
:103120002093C5023093C60285E090E09093C402DC
:103130008093C30280E390E09093CC028093CB0213
:1031400050C012960D911C9113970450110905302F
:10315000110508F05CC001E00E94781FD2CF9801F1
:1031600022503109D9012D913C9129503109283043
:10317000310508F0FAC0BC016F5F7F4FD8012D9177
:103180003C91275031092730310508F0EBC2440F3C
:10319000551F416002960C5F1F4F2091960330E04F
:1031A0002450310982179307D4F20197959587959A
:1031B0009093CC028093CB028A970CF4D6C0052E54
:1031C000000C660B770B4093C7025093C8026093C4
:1031D000C9027093CA0289E090E09093C402809380
:1031E000C30281E090E00CC382E0809392031092CE
:1031F000960380E090E004C38093C7029093C802D6
:10320000A093C902B093CA0283E090E0E6CF809118
:103210009603893370F182819381895791098335AF
:10322000910508F440C125C0D90112966D917C9199
:103230001397665171096131710508F060C1D701BA
:10324000C601880F991FAA1FBB1F6C017D016894DE
:10325000C0F84E5F5F4F2C5F3F4F4B33510509F471
:1032600031C1D9016D917C916A5071096930710544
:10327000D8F280919603823231F4828193810A9749
:10328000099708F44CC1828193818957910983354C
:103290009105D0F4809196038132B0F084819581BC
:1032A000CA97899788F49F012A5F3F4FC12CD12C80
:1032B000760143E050E0D9016D917C916A5071092B
:1032C0006930710508F44AC1828193818C54910957
:1032D000C59778F480919603843031F48481958188
:1032E0008097479708F499C180919603843408F039
:1032F0007BC180919603863460F1828193810C9723
:103300000B9708F4D8C125C0D90112966D917C9114
:1033100013976E5171096731710508F004C2D70126
:10332000C601880F991FAA1FBB1F6C017D016894FD
:10333000C0F84E5F5F4F2C5F3F4F4534510509F495
:10334000D5C1D9016D917C916C5071096B307105BB
:10335000D8F280919603883540F082819381855818
:1033600091098B35910508F4EEC180919603803266
:10337000E1F48281938106970697B8F48481958160
:103380000997099790F49F012A5F3F4FBF01625C44
:103390007F4FC12CD12C7601D9014D915C914650C3
:1033A00051094630510508F4EAC18091CF0290914D
:1033B000D0029E838D8306970CF416CF8F010A5F8F
:1033C0001F4F73E0272E312CE5ECCE2EEDE9DE2EDB
:1033D000ECE1EE2EE1E8FE2ED8016D917C91F80132
:1033E0003497A080B18080E090E00E94F2202B0111
:1033F0003C01B50180E090E00E94F2204B015C01AD
:103400002DEC3CEC4CE45FE30E94A9219B01AC0154
:10341000C301B2010E94452087FD17C02DEC3CEC92
:103420004CE45FE3C301B2010E94A9219B01AC01FE
:10343000C501B4010E944520E82F880FFF0BEE273D
:10344000FF0FEE1FFF27319602C0E0E0F0E0A7017A
:10345000960163E971E080E091E00E94FC1E6F013B
:10346000FF0FEE08FF08C626D726E826F926BFEF8D
:103470002B1A3B0A0E5F1F4FED81FE812E163F0671
:1034800009F0AACFC092C702D092C802E092C90246
:10349000F092CA0280E290E09093CC028093CB023B
:1034A0008FEF9FEF9ACE84819581CA97899708F014
:1034B000E0CE9F012A5F3F4FC12CD12C760143E023
:1034C00050E0CFCE9F012A583F4FD9012D913C911A
:1034D0002A5031092930310508F0CBCE2CE130E0FB
:1034E0003093CC022093CB02C092C702D092C80284
:1034F000E092C902F092CA028AE090E06ECED90151
:1035000012966D917C911397665071096730710521
:1035100008F0AFCECC0CDD1CEE1CFF1C9ACE209127
:103520009603CF01820F911D820F911DDC0112972E
:103530008D919C910A97099708F0A5CE1092CC0224
:103540001092CB028FEF9FEFDC018093C702909324
:10355000C802A093C902B093CA024CC1D901129605
:103560006D917C911397665171096131710588F1F4
:1035700012966D917C9113976650710967307105B1
:1035800008F0A2CECC0CDD1CEE1CFF1C4E5F5F4F82
:103590002C5F3F4F4332510509F08DCE9F012A5BCE
:1035A0003F4FD9012D913C912A50310929303105E5
:1035B00008F08ACE20E130E03093CC022093CB0299
:1035C000C092C702D092C802E092C902F092CA0229
:1035D00011C1D701C601880F991FAA1FBB1F6C011B
:1035E0007D016894C0F8D2CF848195818954910976
:1035F000C39708F07ECE9F012A5F3F4FBF016A57F5
:103600007F4FC12CD12C7601D9014D915C9149504D
:10361000510949305105B8F06CCE868197810997E0
:10362000099708F061CE1092CC021092CB028FEF76
:103630009FEFDC018093C7029093C802A093C90258
:10364000B093CA02DAC0D90112964D915C911397DA
:103650004651510941315105F0F4D701C601880F97
:10366000991FAA1FBB1F6C017D016894C0F82C5FD5
:103670003F4F2617370741F620E230E03093CC0267
:103680002093CB02C092C702D092C802E092C90236
:10369000F092CA02B2C0D90112964D915C91139773
:1036A000465051094730510508F023CECC0CDD1CA3
:1036B000EE1CFF1CDCCF848195810997099708F0E7
:1036C00048CE868197818C974F9708F042CE8085AF
:1036D000918589974D9708F03CCE9F01265F3F4F1B
:1036E000C12CD12C760145E050E02BCE9F0126570E
:1036F0003F4FD9012D913C912C5031092B30310590
:1037000008F027CE20E230E03093CC022093CB02A9
:10371000C092C702D092C802E092C902F092CA02D7
:1037200088E090E05ACDD90112966D917C91139763
:10373000695071096930710508F00BCECC0CDD1CA5
:10374000EE1CFF1CF6CD84819581825491098E97E1
:1037500008F00BCE8F01045C1F4F8DE190E040E03C
:1037600050E01BCDD8012D913C91285131092231D7
:10377000310510F0CB0119CD440F551F0BCDD901E8
:1037800012964D915C91139749515109433151055E
:1037900008F5D701C601880F991FAA1FBB1F6C012E
:1037A0007D016894C0F82C5F3F4F2617370709F05A
:1037B000F3CD2EE030E03093CC022093CB02C092C8
:1037C000C702D092C802E092C902F092CA028FE00A
:1037D00090E003CDD90112964D915C911397495019
:1037E00051094930510508F0E0CDCC0CDD1CEE1C30
:1037F000FF1CD9CF86E090E0F0CC87E090E0EDCCE4
:1038000026960FB6F894DEBF0FBECDBFDF91CF91E5
:103810001F910F91FF90EF90DF90CF90BF90AF90EE
:103820009F908F907F906F905F904F903F902F90E0
:103830000895789484B5826084BD84B5816084BD28
:1038400085B5826085BD85B5816085BD80916E003E
:10385000816080936E00109281008091810082606F
:1038600080938100809181008160809381008091AC
:1038700080008160809380008091B100846080939B
:10388000B1008091B00081608093B00080917A0097
:10389000846080937A0080917A00826080937A00BD
:1038A00080917A00816080937A0080917A008068AC
:1038B00080937A001092C100E091F902F091FA022F
:1038C00082E08083E091F502F091F6021082E091AF
:1038D000F702F091F80283E3808310920103E091F4
:1038E000FD02F091FE0286E08083E091FB02F09100
:1038F000FC02808180618083E091FB02F091FC02F8
:10390000808188608083E091FB02F091FC028081DD
:1039100080688083E091FB02F091FC0280818F7DC2
:10392000808388E08093BA0086E69BE090935D02F6
:1039300080935C0282E79BE090935B0280935A0243
:103940001092CE011092CD011092CC011092CB01B9
:103950001092590281E0809358021092570261E060
:1039600082E10E94FC0C61E083E10E94FC0C8091EA
:10397000B9008E7F8093B9008091B9008D7F8093CC
:10398000B90088E48093B80085E48093BC008BE4A0
:1039900094E190935F0280935E0288E093E19093BC
:1039A000610280936002549A5C988091CF018823D1
:1039B00029F00E948C001092CF0102C00E948C005E
:1039C0000E94990CF2CF823078F4813011F0E8989F
:1039D00001C0E998E82FF0E0EE0FFF1FEB5FFE4F0C
:1039E0008CE99BE09183808308958230E8F4E82F8E
:1039F000F0E0EE0FFF1FEB5FFE4F718360838130BD
:103A000041F0809169008C7F482B40936900E89ACF
:103A1000089580916900440F551F440F551F837FFF
:103A2000482B40936900E99A0895EF92FF920F9313
:103A30001F93CF93DF93EC01062F18E08BE4E82E61
:103A4000F12C07FF02C061E001C060E089810E94A3
:103A5000FC0C60E088810E94FC0CC7010197F1F723
:103A600061E088810E94FC0CC7010197F1F7000F0B
:103A7000115039F7DF91CF911F910F91FF90EF9087
:103A80000895CF92DF92EF92FF92CF93DF93EC01F4
:103A9000072E000C880B990B0E94F4206B017C010F
:103AA00020E030E040E45FE30E94A92120E030E024
:103AB00048E452E40E944A200E94BC20C617D7075F
:103AC000D4F020E030E040EA5FE3C701B6010E9495
:103AD000A92120E030E048E452E40E944A2020E09E
:103AE00030E040E85FE30E94D91F0E94BC2021E043
:103AF0006C177D070CF420E0822F90E0DF91CF91CE
:103B0000FF90EF90DF90CF9008954F925F926F9269
:103B10007F928F929F92AF92BF92CF92DF92EF925D
:103B2000FF920F931F93CF93DF93EC01962E842E79
:103B3000722E60E00E94151D60E0CE010E94151DEE
:103B400060E0CE010E94151D60E0CE010E94151DAF
:103B500083E0989E5001112475018FEFE81AF80A4E
:103B6000650182E0C80ED11C10E08A81181708F0A8
:103B70003BC019110FC0EB81FC81EA0DFB1D808257
:103B8000EB81FC81EE0DFF1D7082EB81FC81EC0D61
:103B9000FD1D0083EB81FC8183E0189FE00DF11D8A
:103BA000112442805180608047FC02C060EE01C059
:103BB00060EC46FE606157FE686056FE646067FE1A
:103BC000626066FE6160CE010E94151D642DCE010B
:103BD0000E94151D652DCE010E94151D662DCE017A
:103BE0000E94151D1F5FC1CF60E0CE010E94151D10
:103BF00060E0CE010E94151D60E0CE010E94151DFF
:103C000060E0CE01DF91CF911F910F91FF90EF9077
:103C1000DF90CF90BF90AF909F908F907F906F90EC
:103C20005F904F900C94151D0F931F93CF93DF93CC
:103C3000EC01862F688349832A8361E00E942C0D62
:103C400061E089810E942C0D8A8161E070E023E0AF
:103C5000829FC00111240E9416229C838B8310E056
:103C60008A81181748F400E020E040E0612FCE017F
:103C70000E94851D1F5FF4CFDF91CF911F910F919F
:103C80000895E9EEF2E01382128288EE93E0A0E05C
:103C9000B0E084839583A683B7832CE231E031833F
:103CA000208325EC30E03587248724EC30E037870B
:103CB000268720EC30E0318B208B21EC30E0338BF9
:103CC000228B22EC30E0358B248B26EC30E0378BD6
:103CD000268B118E128E138E148EE6E8F3E013827B
:103CE000128284839583A683B7838EE391E09183C8
:103CF0008083E2E9F3E082E08183138284E08093B1
:103D000068008BB381718BBB8CE080936D0008954C
:103D10008F929F92AF92BF92CF92DF92EF92FF92DB
:103D20000F931F93CF93DF93FC01C081D18120912A
:103D3000CF023091D002C217D3070CF04BC09E01C6
:103D4000220F331FE091CD02F091CE02E20FF31F5C
:103D500080809180C170DD27F1E0CF27209719F492
:103D600004E610E002C00CE91FEF7A015B016C0170
:103D7000040F151FB801C4010E94411D892B99F43D
:103D80000E0D1F1DB801C4010E94411D892B71F445
:103D9000B8016E0D7F1DC4010E94411D892BE9F001
:103DA00023E030E005C021E030E002C022E030E056
:103DB000F501808191810196821793073CF0F5010E
:103DC00011821082F6018081918101969183808316
:103DD000CE0105C081E090E002C08FEF9FEFDF9140
:103DE000CF911F910F91FF90EF90DF90CF90BF90F8
:103DF000AF909F908F900895DB018F939F930E94C7
:103E00006D1FBF91AF91A29F800D911DA39F900D3B
:103E1000B29F900D11240895991B79E004C0991F59
:103E2000961708F0961B881F7A95C9F78095089514
:103E300097FB072E16F4009407D077FD09D00E9457
:103E4000AF1F07FC05D03EF4909581959F4F0895D4
:103E5000709561957F4F0895A1E21A2EAA1BBB1B96
:103E6000FD010DC0AA1FBB1FEE1FFF1FA217B30746
:103E7000E407F50720F0A21BB30BE40BF50B661F5C
:103E8000771F881F991F1A9469F760957095809520
:103E900090959B01AC01BD01CF010895052E97FBC4
:103EA0001EF400940E94651F57FD07D00E942C1F2E
:103EB00007FC03D04EF40C94651F50954095309547
:103EC00021953F4F4F4F5F4F089590958095709586
:103ED00061957F4F8F4F9F4F08950E94C91FA59FE7
:103EE000900DB49F900DA49F800D911D11240895F5
:103EF0000F93083090F0982F872F762F652F542F2F
:103F0000432F322F22270850F4CF220F331F441F94
:103F1000551F661F771F881F991F0A95B2F70F91CB
:103F2000089597FB10F8169400080F93083098F046
:103F30000850232F342F452F562F672F782F892F86
:103F4000902DF4CF0594979587957795679557951C
:103F50004795379527950A95AAF70F910895AA1BBB
:103F6000BB1B51E107C0AA1FBB1FA617B70710F064
:103F7000A61BB70B881F991F5A95A9F78095909596
:103F8000BC01CD010895EE0FFF1F0590F491E02DC7
:103F90000994A29FB001B39FC001A39F700D811D22
:103FA0001124911DB29F700D811D1124911D089542
:103FB0005058BB27AA270E94F01F0C946A210E9428
:103FC0005C2138F00E94632120F039F49F3F19F4FE
:103FD00026F40C9459210EF4E095E7FB0C94532140
:103FE000E92F0E947B2158F3BA17620773078407F1
:103FF000950720F079F4A6F50C949D210EF4E09538
:104000000B2EBA2FA02D0B01B90190010C01CA0192
:10401000A0011124FF27591B99F0593F50F4503E3D
:1040200068F11A16F040A22F232F342F4427585F2F
:10403000F3CF469537952795A795F0405395C9F747
:104040007EF41F16BA0B620B730B840BBAF09150FF
:10405000A1F0FF0FBB1F661F771F881FC2F70EC09E
:10406000BA0F621F731F841F48F487957795679571
:10407000B795F7959E3F08F0B0CF9395880F08F05D
:104080009927EE0F9795879508950E942F2108F4A0
:1040900081E008950E945E200C946A210E946321B1
:1040A00058F00E945C2140F029F45F3F29F00C9405
:1040B000532151110C949E210C9459210E947B2173
:1040C00068F39923B1F3552391F3951B550BBB2747
:1040D000AA2762177307840738F09F5F5F4F220F8C
:1040E000331F441FAA1FA9F335D00E2E3AF0E0E883
:1040F00032D091505040E695001CCAF72BD0FE2FCD
:1041000029D0660F771F881FBB1F26173707480760
:10411000AB07B0E809F0BB0B802DBF01FF27935818
:104120005F4F3AF09E3F510578F00C9453210C9468
:104130009E215F3FE4F3983ED4F38695779567958B
:10414000B795F7959F5FC9F7880F911D969587954D
:1041500097F90895E1E0660F771F881FBB1F62176C
:1041600073078407BA0720F0621B730B840BBA0B2A
:10417000EE1F88F7E09508950E94C3206894B1115E
:104180000C949E2108950E94832188F09F5798F0F7
:10419000B92F9927B751B0F0E1F0660F771F881F4C
:1041A000991F1AF0BA95C9F714C0B13091F00E9466
:1041B0009D21B1E008950C949D21672F782F8827C9
:1041C000B85F39F0B93FCCF3869577956795B3958D
:1041D000D9F73EF490958095709561957F4F8F4FFC
:1041E0009F4F0895E89409C097FB3EF49095809501
:1041F000709561957F4F8F4F9F4F9923A9F0F92FAD
:1042000096E9BB279395F695879577956795B7952A
:10421000F111F8CFFAF4BB0F11F460FF1BC06F5F10
:104220007F4F8F4F9F4F16C0882311F096E911C022
:10423000772321F09EE8872F762F05C0662371F043
:1042400096E8862F70E060E02AF09A95660F771F57
:10425000881FDAF7880F9695879597F90895990F33
:104260000008550FAA0BE0E8FEEF16161706E80740
:10427000F907C0F012161306E407F50798F0621B61
:10428000730B840B950B39F40A2661F0232B242B36
:10429000252B21F408950A2609F4A140A6958FEF55
:1042A000811D811D089597F99F6780E870E060E0A7
:1042B00008959FEF80EC089500240A9416161706BF
:1042C00018060906089500240A9412161306140607
:1042D00005060895092E0394000C11F4882352F06A
:1042E000BB0F40F4BF2B11F460FF04C06F5F7F4F22
:1042F0008F4F9F4F089557FD9058440F551F59F009
:104300005F3F71F04795880F97FB991F61F09F3FC2
:1043100079F087950895121613061406551FF2CFEB
:104320004695F1DF08C0161617061806991FF1CF3B
:1043300086957105610508940895E894BB27662762
:104340007727CB0197F908950E942F2108F48FEF6A
:1043500008950E94BC210C946A210E945C2138F0CF
:104360000E94632120F0952311F00C9453210C94AA
:10437000592111240C949E210E947B2170F3959F5A
:10438000C1F3950F50E0551F629FF001729FBB274C
:10439000F00DB11D639FAA27F00DB11DAA1F649FE8
:1043A0006627B00DA11D661F829F2227B00DA11D9B
:1043B000621F739FB00DA11D621F839FA00D611D21
:1043C000221F749F3327A00D611D231F849F600D42
:1043D000211D822F762F6A2F11249F5750409AF06B
:1043E000F1F088234AF0EE0FFF1FBB1F661F771FF7
:1043F000881F91505040A9F79E3F510580F00C94C2
:1044000053210C949E215F3FE4F3983ED4F38695AC
:1044100077956795B795F795E7959F5FC1F7FE2B61
:10442000880F911D9695879597F908950F931F937F
:10443000CF93DF93869F8001879F100D969F100D6D
:104440001124C8010E943222EC01009729F0A80132
:1044500060E070E00E946423CE01DF91CF911F9154
:104460000F910895CF93DF938230910510F482E08D
:1044700090E0E0916904F0916A0420E030E0C0E04F
:10448000D0E0309711F14081518148175907C0F0B1
:104490004817590761F482819381209719F09B8313
:1044A0008A832BC090936A048093690426C02115E7
:1044B000310519F04217530718F49A01BE01DF01C4
:1044C000EF010280F381E02DDCCF2115310509F1E8
:1044D000281B390B2430310590F412968D919C9154
:1044E00013976115710521F0FB019383828304C04A
:1044F00090936A0480936904FD01329644C0FD01E3
:10450000E20FF31F81939193225031092D933C9335
:104510003AC02091670430916804232B41F4209124
:104520000C0130910D0130936804209367042091B1
:104530000A0130910B012115310541F42DB73EB729
:1045400040910E0150910F01241B350BE09167043F
:10455000F0916804E217F307A0F42E1B3F0B281715
:10456000390778F0AC014E5F5F4F2417350748F0EC
:104570004E0F5F1F5093680440936704819391939B
:1045800002C0E0E0F0E0CF01DF91CF9108950F93FA
:104590001F93CF93DF93009709F48CC0FC013297EF
:1045A000138212820091690410916A0401151105A9
:1045B00081F420813181820F931F20916704309113
:1045C00068042817390779F5F0936804E0936704C5
:1045D00071C0D80140E050E0AE17BF0750F412960A
:1045E0002D913C911397AD012115310509F1D901A8
:1045F000F3CF9D01DA013383228360817181860FBD
:10460000971F8217930769F4EC0128813981260FDF
:10461000371F2E5F3F4F318320838A819B81938395
:104620008283452B29F4F0936A04E093690442C025
:104630001396FC93EE931297ED01499159919E01C7
:10464000240F351FE217F30771F480819181840FE5
:10465000951F029611969C938E9382819381139657
:104660009C938E931297E0E0F0E0D80112968D9122
:104670009C911397009719F0F8018C01F6CF8D915A
:104680009C9198012E5F3F4F820F931F20916704EA
:10469000309168042817390769F4309729F410928B
:1046A0006A041092690402C0138212821093680493
:1046B00000936704DF91CF911F910F91089581E0DE
:1046C00090E0F8940C946B23DC0101C06D93415091
:0A46D0005040E0F70895F894FFCF82
:1046DA0002307500009C0B9C0B0200006B0420004A
:1046EA003F065B4F666D7D077F6F777C395E797118
:1046FA0001000A006400E80300000000300C9D0B72
:10470A00C80B770CF90BD70BEB0B00000000F71264
:0C471A00E312D612AD0CCD12BD0CAE0C9B
:00000001FF
