:100000000C9463000C948B000C948B000C948B006C
:100010000C948B000C948B000C948B000C948B0034
:100020000C948B000C948B000C948B000C948B0024
:100030000C948B000C948B000C948B000C948B0014
:100040000C94FA080C948B000C94D80C0C94140D9E
:100050000C948B000C948B000C948B000C948B00F4
:100060000C94A6040C948B00000000070002010011
:100070000003040600000000000000000102040864
:100080001020408001020408102001020408102002
:10009000040404040404040402020202020203032E
:1000A00003030303000000002300260029000000D2
:1000B0000000250028002B0000000000240027007D
:1000C0002A00B503CF0D11241FBECFEFD8E0DEBF4D
:1000D000CDBF11E0A0E0B1E0E4ECF0E202C0059099
:1000E0000D92A233B107D9F712E0A2E3B1E001C04B
:1000F0001D92A03EB107E1F710E0C6ECD0E004C0CD
:100100002297FE010E945C10C23CD107C9F70E94F1
:100110002F0C0C9460100C940000CF93DF9322C03E
:100120008CE691E00E948F02049741F410924801FE
:100130001092470110924A0110924901C091490161
:10014000D0914A018CE691E00E949802FE01EE0FE8
:10015000FF1FE55BFE4F918380832196D0934A0178
:10016000C09349018CE691E00E948F02892BC1F671
:10017000DF91CF91089580914B0190914C010197AF
:1001800031F4609146018CE691E00E941A0380915F
:100190004B0190914C018330910511F0079741F488
:1001A00043E050E06DE371E08CE691E00E94EC02E8
:1001B00080914B0190914C01449741F444E050E010
:1001C0006DE371E08CE691E00E94EC0280914B01BE
:1001D00090914C018E31910511F0889741F449E0DE
:1001E00050E06DE371E08CE691E00C94EC02089530
:1001F00040E855E260E070E089E392E00E944F0D34
:1002000064E070E08CE691E00E9477036DE870E0B6
:100210008CE691E00E94AB036BEB70E08CE691E022
:100220000E94B00361E071E089E392E00C941B0C42
:10023000CF93DF93CDB7DEB728970FB6F894DEBF24
:100240000FBECDBF8091490190914A01049709F0FA
:100250005DC18091470190914801892B09F056C1F9
:1002600081E090E0909348018093470180914B0199
:1002700090914C01019731F480914D010E94060B41
:100280008093460180914B0190914C01029731F48B
:1002900060914F0180914D010E94CF0A80914B01E6
:1002A00090914C010397A9F480914D010E94EB09B4
:1002B00090933C0180933B019C0197FF02C0215029
:1002C0003F4F30933E0160E071E00E94E80F809361
:1002D0003F0180914B0190914C01049741F4609152
:1002E0004F017091500180914D010E940C0A809144
:1002F0004B0190914C01059731F460914F01809131
:100300004D010E94970A80914B0190914C010797F3
:1003100009F042C080914D0190914E0180933401CB
:100320009093350161E00E94970A60E0809134016A
:100330000E94CF0A82E090E00E94A60961E08091CD
:1003400034010E94CF0A85E090E00E94A60960E097
:10035000809134010E94CF0A60E0809134010E94B4
:10036000970A20E432E44FE050E061E080913401EC
:100370000E942F0B2AE330E040E050E00E941E1064
:10038000CA01B90120E031E040E050E00E941E10B7
:1003900020933E0160933F0180914B0190914C016D
:1003A000449709F580913A01811107C08BE691E0ED
:1003B0000E94030681E080933A0128E331E047E39D
:1003C00051E066E371E08BE691E00E9413068091B4
:1003D000360180933E018091370180933F018091E7
:1003E00038018093400180914B0190914C014E97D0
:1003F00069F580913901811107C083E691E00E947F
:10040000C20681E08093390183E691E00E94C6062E
:100410008091650180933E018091640180933F014A
:100420008091630180934001809168018093410134
:1004300080916701809342019091690190934301FB
:1004400080934401809166018093450180914B0126
:1004500090914C01889709F059C080914F0190917B
:100460005001009719F426E04BE005C0813091055A
:1004700049F426E046E160914D0185E591E00E9456
:100480004C0708C08230910519F426E045E1F3CF0E
:100490000397D9F360E085E591E00E9461086D83E0
:1004A0007E838F83988785E591E00E941308698396
:1004B0007A838B839C831092330110923201FE0168
:1004C000359680E090E001962191DC01A35CBE4F5F
:1004D0002C9384309105BCF384E090E09093330139
:1004E000809332010196DC01A35CBE4FE1E0F0E0B5
:1004F000EC0FFD1FE80FF91F359720812C938830F2
:10050000910584F3909333018093320128960FB6BE
:10051000F894DEBF0FBECDBFDF91CF91089520913B
:10052000A00130E08091A101281B3109C901089583
:100530008091A1019091A001891750F4E82FF0E07B
:10054000EE55FE4F208130E08F5F8093A10102C005
:100550002FEF3FEFC9010895E091A1018091A00123
:10056000E81730F4F0E0EE55FE4F208130E002C095
:100570002FEF3FEFC90108950895E0917801F091C0
:1005800079013097E1F03091A1012091A00132175B
:10059000B0F040E009C0DC01A20FB31F5C91D901AB
:1005A000AE55BE4F5C934F5F242F30E026173707C0
:1005B00094F31092A1016093A001CB0109940895D6
:1005C000E0917A01F0917B01309729F010927E0141
:1005D00010927D0109940895CF92DF92EF92FF92DD
:1005E0000F931F93CF93DF937C01CB018A0120915E
:1005F0007C01222391F0EB016B01C40ED51E09C0D2
:100600006991D701ED91FC910190F081E02DC70136
:100610000995CC15DD05A1F703C0642F0E94730472
:10062000C801DF91CF911F910F91FF90EF90DF9064
:10063000CF900895CF93DF931F92CDB7DEB7698334
:1006400020917C012223D1F020917D01203240F0C5
:1006500021E030E0FC013383228320E030E015C04C
:1006600080917E01E82FF0E0E158FE4F9981908360
:100670008F5F80937E0180937D0105C061E0CE0194
:1006800001960E94730421E030E0C9010F90DF91D0
:10069000CF910895FC011382128248EE53E060E08E
:1006A00070E044835583668377838CE091E0918387
:1006B000808308951092A1011092A00110927E01F2
:1006C00010927D010C94B903CF93DF93EC01862F38
:1006D0000E94D70380EE92E00E9491048DEB92E09D
:1006E0000E948C04CE01DF91CF910C945A030C949C
:1006F0006403862F413208F040E262EA71E00E9412
:10070000DB031092A1018093A001089521E00C94D5
:10071000790381E080937C0160939F0110927E01B8
:1007200010927D0108950C9489030F93062F21E008
:1007300040917D016FE771E080919F010E9420044C
:1007400010927E0110927D0110927C010F9108950C
:1007500061E00C949503709379016093780108959A
:1007600070937B0160937A0108958CE691E00C947C
:100770004A031092CB0181E08093C9011092C80115
:1007800061E082E10E94CF0A61E083E10E94CF0A2A
:10079000E9EBF0E080818E7F808380818D7F808394
:1007A00088E48093B80085E48093BC000895880FA6
:1007B0008093BA000895413208F03FC09091CB0178
:1007C0009111FCCF91E09093CB012093C9012FEFC1
:1007D0002093C2011092C701242F21502093C601FB
:1007E0009093CA019091CA01880F892B8093CA0106
:1007F0008091C801813041F41092C8018091CA01F2
:100800008093BB0085EC01C085EE8093BC00809195
:10081000CB018130E1F38091C701841710F440913E
:10082000C7012CEC31E0FB01D90102C08D9181930D
:100830008A2F821B8417D0F301C040E0842F0895D3
:100840000F93413208F046C09091CB019111FCCF3B
:1008500092E09093CB010093C9019FEF9093C20166
:100860001092C7014093C601FB016CEC71E0DB0103
:1008700002C091919D939A2F961B9417D0F31092DA
:10088000CA019091CA01880F892B8093CA01809177
:10089000C801813041F41092C8018091CA0180934F
:1008A000BB0085EC01C085EE8093BC00222321F0C3
:1008B0008091CB018230E1F38091C2018F3F61F0E2
:1008C0008091C201803251F08091C201803341F4A5
:1008D00083E007C081E005C080E003C082E001C082
:1008E00084E00F910895613298F42091CB01243077
:1008F00089F46093C401FC018CEE91E0DC0102C03C
:1009000021912D932A2F281B2617D0F380E00895DC
:1009100081E0089582E0089590930D0280930C0287
:10092000089590930F0280930E02089585ED8093B1
:10093000BC008091BC0084FDFCCF1092CB010895D7
:1009400085EC8093BC001092CB0108951F920F920A
:100950000FB60F9211242F933F934F935F936F9392
:100960007F938F939F93AF93BF93EF93FF93809168
:10097000B900887F803609F49FC058F5883209F4A1
:100980005BC090F4803109F452C038F4882309F434
:10099000F8C0883009F0F9C04AC0883109F44CC069
:1009A000803209F0F2C05CC0803409F46BC038F4C6
:1009B000803309F455C0883309F0E7C054C080354E
:1009C00009F454C0883509F462C0883409F0DDC0E8
:1009D000DAC0883909F4CBC0A8F4883709F46CC0B0
:1009E00038F4883609F468C0803709F0CEC064C096
:1009F000883809F4BCC0803909F464C0803809F033
:100A0000C4C060C0803B09F48AC038F4803A09F45D
:100A10006BC0883A09F0B9C082C0803C09F4ABC011
:100A2000883C09F4A8C0883B09F0AFC08DC0809114
:100A3000CA018093BB0012C09091C7018091C6018A
:100A4000981788F58091C701E82FF0E0E453FE4F36
:100A500090819093BB008F5F8093C70185EC88C025
:100A60008093C20190C08093C20156C08091C7019B
:100A70009091BB00E82FF0E0E453FE4F90838F5F2E
:100A80008093C7019091C7018091C6016DC080918C
:100A9000C7019091BB00E82FF0E0E453FE4F908334
:100AA0008F5F8093C7018091C90181116CC081E083
:100AB0008093C80184EA60C083E08093CB011092E8
:100AC000C301CCCF8091C301803208F050C0809127
:100AD000C3019091BB00E82FF0E0E05FFD4F9083F1
:100AE0008F5F8093C301BACF8091C301803230F40D
:100AF000E091C301F0E0E05FFD4F10820E94960498
:100B00006091C301E0910C02F0910D0270E080E170
:100B100092E009951092C3010E94A00436C084E0BF
:100B20008093CB011092C5011092C401E0910E0296
:100B3000F0910F0209958091C401811105C081E0F7
:100B40008093C4011092EC018091C501E82FF0E080
:100B5000E451FE4F90819093BB008F5F8093C5015D
:100B60009091C5018091C401981708F477CF85E86A
:100B70008093BC000AC085EC8093BC001092CB012E
:100B800004C01092C2010E949604FF91EF91BF91A0
:100B9000AF919F918F917F916F915F914F913F9115
:100BA0002F910F900FBE0F901F9018951F93CF930A
:100BB000DF931F92CDB7DEB7162F8CE691E0498305
:100BC0000E945A036CE470E08CE691E00E9493036B
:100BD000612F8CE691E00E941A034981642F8CE614
:100BE00091E00E941A038CE691E00F90DF91CF9183
:100BF0001F910C94A803462F67E00C94D605462F4E
:100C000068E00C94D605CF93DF93EC0160E00E947E
:100C1000FB0560E0CE010E94FF0561E0CE01DF919F
:100C2000CF910C94FB054F925F926F927F928F92BF
:100C30009F92AF92BF92CF92DF92EF92FF920F936B
:100C40001F93CF93DF9300D01F92CDB7DEB75B0128
:100C50006A01790180E48B838A8389830E94440935
:100C60002B013C010DC00E944409641975098609D5
:100C70009709653F71408105910514F080E06EC0D1
:100C80008CE691E00E948F021816190664F38CE638
:100C900091E00E94980243E050E06CE470E08CE642
:100CA00091E00E9486030E9444092B013C018E01C1
:100CB0000F5F1F4F48012DC0C8018819990903977C
:100CC000D4F40E9444092B013C0111C08CE691E050
:100CD0000E949802F80180830E94440964197509F2
:100CE0008609970963337105810591053CF6F80182
:100CF0008081803458F70E9444090F5F1F4F6419A8
:100D0000750986099709653F7140810591050CF0C9
:100D1000B5CF8CE691E00E948F02892B69F699810C
:100D2000892F880F880F95FD8D5F85958595F50135
:100D300080839A81892F880F880F95FD8D5F859517
:100D40008595F60180839B81892F880F880F95FDFB
:100D50008D5F85958595F701808381E00F900F90D9
:100D60000F90DF91CF911F910F91FF90EF90DF9047
:100D7000CF90BF90AF909F908F907F906F905F903B
:100D80004F9008958CE691E00C945A03CF93DF9333
:100D9000EC0168E670E08CE691E00E94930360E06D
:100DA0008CE691E00E941A038CE691E00E94A80371
:100DB00047E050E068E670E08CE691E00E94860330
:100DC0008CE691E00E949802382F3695369536953C
:100DD0003E70232F220F220F230F8F709927280F89
:100DE00028838CE691E00E949802282F22952F708C
:100DF0008F7099273AE0239F800D112489838CE618
:100E000091E00E949802382F3695369536953670C7
:100E1000232F220F220F230F8F709927280F2A8349
:100E20008CE691E00E949802282F22952F708F70F7
:100E300099273AE0239F800D11248B838CE691E063
:100E40000E949802282F22952F708F7099273AE0E0
:100E5000239F800D11248C838CE691E00E949802E0
:100E6000282F22952F708F7099273AE0239F800DAD
:100E700011248D838CE691E00E949802282F229500
:100E80002F708F7099273AE0239F800D11248E8355
:100E90001F82DF91CF910895CF93DF93EC01862FCE
:100EA0006E834F83288791E09D8760E00E94970AB8
:100EB00061E08E810E94CF0A19861A861B861C86E5
:100EC000DF91CF910895DF92EF92FF920F931F93DE
:100ED000CF93DF93EC0161E08E810E94CF0A6AEF2D
:100EE00070E080E090E00E9480090E94440909853A
:100EF0001A852B853C85601771078207930720F4BC
:100F000019861A861B861C862D85211111C009851C
:100F10001A852B853C85DC01CB01801B910BA20B34
:100F2000B30B803D9740A105B10510F481E073C07B
:100F30001D860E94440969877A878B879C871C825B
:100F40001B821A821982188261E08E810E94970AA0
:100F500060E08E810E94CF0A64E170E080E090E062
:100F60000E948009F89461E08E810E94CF0A88E295
:100F700090E00E94A60960E08E810E94970AF12C01
:100F8000D12C81E009C0E39481E090E00E94A609A1
:100F90008FEFE81204C009C0E12C082F10E08E8109
:100FA0000E94060B8017910771F38E810E94060B39
:100FB0009FEFE916C9F023E02F1590F4F0FC10C064
:100FC0009D2D969596959695FE01E90FF11D9081C0
:100FD000990F908328852E1510F491609083D394F7
:100FE000F39495E5F912D8CF789427E22D1590F473
:100FF0002C8130E04881898190E0840F911D4A81E5
:10100000840F911D4B81840F911D99272817390753
:1010100009F48CCF80E0DF91CF911F910F91FF9069
:10102000EF90DF900895EF92FF920F931F93CF936D
:10103000DF93EC010E946307882391F18F818B304D
:1010400029F070F18551823058F507C0688170E051
:1010500080E090E00E94EC0E2DC0688170E080E09E
:1010600090E00E94EC0E20E030E040E853E40E9463
:101070007A0F7B018C01698170E080E090E00E9432
:10108000EE0E9B01AC016E2D7F2D802F912F0E94C3
:10109000200E20E030E040E251E40E94840E0AC0BD
:1010A00068E171E089E392E00E94FC0B60E070E08F
:1010B00080EC9FE7DF91CF911F910F91FF90EF9010
:1010C0000895CF92DF92EF92FF920F931F93CF93E9
:1010D000DF938C01C62F0E946307882309F477C031
:1010E000F80187818B3039F008F471C08551823066
:1010F00008F06DC01DC0F801628170E080E090E0F2
:101100000E94EC0EB62FA72FF82FE92F462F572F4E
:10111000682F792FCB01BA01CC2309F462C020E0FB
:1011200030E040E151E46B2F7A2F8F2F9E2F37C094
:10113000F801D2816D2F6F7770E080E090E00E941F
:10114000EE0E20E030E040E853E40E947A0F6B019D
:101150007C01F801638170E080E090E00E94EE0E77
:101160009B01AC016C2D7D2D8E2D9F2D0E94200E9C
:1011700020E030E040E251E40E94840E472F382FF7
:10118000292F862F942FA32FB22FBC01CD01D7FD7D
:101190009058CC2331F120E030E040E151E40E944E
:1011A0007A0F20E030E040EA50E40E94840E20E014
:1011B00030E040E052E40E94200E472F382F292FC4
:1011C000862F942FA32FB22FBC01CD010AC068E156
:1011D00071E089E392E00E94FC0B60E070E080EC3B
:1011E0009FE7DF91CF911F910F91FF90EF90DF90DC
:1011F000CF9008951F920F920FB60F9211242F9344
:101200003F938F939F93AF93BF93809130029091C0
:101210003102A0913202B091330230913802232F73
:101220002D5F2D3720F40196A11DB11D05C0232F80
:101230002A570296A11DB11D2093380280933002D7
:1012400090933102A0933202B09333028091340222
:1012500090913502A0913602B09137020196A11DFE
:10126000B11D8093340290933502A0933602B0935F
:101270003702BF91AF919F918F913F912F910F9026
:101280000FBE0F901F9018950F931F938FB7F89470
:1012900000913002109131022091320230913302DC
:1012A0008FBFB801C9011F910F9108950F931F932C
:1012B0009FB7F894009134021091350220913602C4
:1012C0003091370286B5A89B06C08F3F21F00F5F93
:1012D0001F4F2F4F3F4F9FBF322F212F102F00271F
:1012E000080F111D211D311D42E0000F111F221F8B
:1012F000331F4A95D1F7B801C9011F910F91089585
:10130000CF92DF92EF92FF92CF93DF936B017C013C
:101310000E945609EB010EC00E9456096C1B7D0B02
:10132000683E734038F081E0C81AD108E108F1083E
:10133000C851DC4FC114D104E104F10469F7DF9115
:10134000CF91FF90EF90DF90CF900895019739F003
:10135000880F991F880F991F02970197F1F7089539
:10136000789484B5826084BD84B5816084BD85B580
:10137000826085BD85B5816085BDEEE6F0E0808147
:1013800081608083E1E8F0E0108280818260808368
:10139000808181608083E0E8F0E0808181608083EB
:1013A000E1EBF0E0808184608083E0EBF0E080811D
:1013B00081608083EAE7F0E08081846080838081BF
:1013C0008260808380818160808380818068808367
:1013D0001092C10008958E3008F08E5087702091D1
:1013E000000140E4249F90011124822B80937C0013
:1013F00080917A00806480937A0080917A0086FDE3
:10140000FCCF2091780030917900932F80E0AC01DF
:10141000422B9A01C90108951F93CF93DF93182F90
:10142000EB0161E00E94970A209711F460E004C08C
:10143000CF3FD10539F461E0812FDF91CF911F912A
:101440000C94CF0AE12FF0E0E859FF4FE491E3302C
:10145000B9F028F4E13051F0E230B1F50CC0E630DB
:1014600019F1E73049F1E43079F514C084B58068AA
:1014700084BDC7BD2EC084B5806284BDC8BD29C0EF
:1014800080918000806880938000D0938900C09311
:1014900088001FC080918000806280938000D0937C
:1014A0008B00C0938A0015C08091B0008068809343
:1014B000B000C093B3000DC08091B00080628093F3
:1014C000B000C093B40005C0C038D1050CF0B3CF54
:1014D000ADCFDF91CF911F910895833069F028F44B
:1014E0008130A1F0823011F514C08630B1F0873020
:1014F000C1F08430D9F404C0809180008F7703C09C
:10150000809180008F7D80938000089584B58F77CF
:1015100002C084B58F7D84BD08958091B0008F771F
:1015200003C08091B0008F7D8093B0000895CF9369
:10153000DF9390E0FC01E458FF4F4491FC01E05739
:10154000FF4F8491882341F190E0880F991FFC019F
:10155000E854FF4F25913491D90182559F4FFC01EA
:1015600085919491C82FD92F9FB7F8948C916111D0
:1015700006C0409584238C938881842308C0623000
:1015800041F4242F209582238C938881842B888397
:1015900002C0842B8C939FBFDF91CF9108950F934E
:1015A0001F93CF93DF931F92CDB7DEB7282F30E084
:1015B000F901E859FF4F8491F901E458FF4F149164
:1015C000F901E057FF4F04910023D1F0882321F067
:1015D00069830E946D0A6981E02FF0E0EE0FFF1F22
:1015E000E255FF4F85919491DC019FB7F8948C915F
:1015F000611103C01095812301C0812B8C939FBF83
:101600000F90DF91CF911F910F910895CF93DF93AA
:10161000282F30E0F901E859FF4F8491F901E4588F
:10162000FF4FD491F901E057FF4FC491CC2389F0CB
:1016300081110E946D0AEC2FF0E0EE0FFF1FEC55B8
:10164000FF4F85919491DC018C918D2321E030E056
:1016500011F420E030E0C901DF91CF9108958F921D
:101660009F92AF92BF92CF92DF92EF92FF920F9331
:101670001F93CF93DF9390E0FC01E458FF4FD49188
:10168000FC01E057FF4F7491611102C0C0E001C03E
:10169000CD2FDA01C901BF70672F70E0660F771F89
:1016A0006C557F4F812C912C5401FB0105911491B5
:1016B00010C0C12CD12C7601C394C80CD91CEA1CD3
:1016C000FB1C88169906AA06BB0609F44BC0460106
:1016D0005701F801E081ED23EC1759F310C0C12C3C
:1016E000D12C7601C394C80CD91CEA1CFB1C8816AB
:1016F0009906AA06BB06B1F14601570103C0FB01DA
:1017000005911491F801E081ED23EC13E8CF8819DD
:101710009909AA09BB0920E030E0A901FB01659104
:10172000749109C0281739074A075B07D9F02F5F62
:101730003F4F4F4F5F4FFB01E081ED23EC1791F3DB
:10174000A5E1B0E00E94DD0F8B019C01005F1F4FFF
:101750002F4F3F4F84E036952795179507958A952B
:10176000D1F703C000E010E09801B801C901DF9192
:10177000CF911F910F91FF90EF90DF90CF90BF908E
:10178000AF909F908F900895CF92DF92EF92FF924B
:101790000F931F93CF93DF936C01EB017A01E60E59
:1017A000F71E00E010E00BC06991D601ED91FC91AD
:1017B0000190F081E02DC6010995080F191FCE1583
:1017C000DF0591F7C801DF91CF911F910F91FF9035
:1017D000EF90DF90CF900895DB010D900020E9F7A6
:1017E000AD0141505109461B570BDC01ED91FC91B5
:1017F0000280F381E02D09940C94EC0BDC01ED9157
:10180000FC910190F081E02D09940F931F93CF93E9
:10181000DF93EC016DE00E94FE0B8C016AE0CE01CB
:101820000E94FE0B9C01200F311FC901DF91CF9157
:101830001F910F9108950F931F93CF93DF93EC01A6
:101840000E94EC0B8C01CE010E94050C9801280F20
:10185000391FC901DF91CF911F910F9108950E9407
:10186000B0090E94F800CBE0DDE00E94180120974B
:10187000E1F30E940B0DF9CFFC0184859585FC01F5
:10188000E05CFF4F20813181FC01EE5BFF4F8081E6
:101890009181281B390B2F733327C9010895FC014F
:1018A00084859585FC01E05CFF4F40815181FC01FE
:1018B000EE5BFF4F208131814217530741F00190C9
:1018C000F081E02DE80FF91F208130E002C02FEFFA
:1018D0003FEFC9010895FC0184859585FC01E05C1A
:1018E000FF4F40815181FC01EE5BFF4F2081318130
:1018F0004217530781F0A081B181A80FB91F8C91C5
:10190000208131812F5F3F4F2F7333273183208315
:10191000282F30E002C02FEF3FEFC9010895FC01EE
:1019200086859785FC01E05CFF4FDC01AE5BBF4F15
:10193000408151812D913C91119742175307C1F776
:101940000895CF93DF93FC0186859785DC01A05C29
:10195000BF4F2D913C9111972F5F3F4F2F7333272E
:10196000EC01CE5BDF4F4881598124173507D9F34D
:101970000D90BC91A02DA80FB91F6C93A685B785BB
:10198000A05CBF4F11963C932E93A689B7892C91EA
:1019900081E090E0058C02C0880F991F0A94E2F75D
:1019A000282B2C9381E090E0DF91CF91089508954A
:1019B0001F920F920FB60F9211242F933F934F93C4
:1019C0008F939F93EF93FF934091C6008091DC0229
:1019D0009091DD0201968F7399272091DE0230915C
:1019E000DF028217930759F0E091DC02F091DD02EB
:1019F000E456FD4F40839093DD028093DC02FF911B
:101A0000EF919F918F914F913F912F910F900FBE2A
:101A10000F901F90189589E392E00E943C0C892B4F
:101A200011F00C94D70C08951F920F920FB60F92DD
:101A300011242F933F938F939F93EF93FF932091C4
:101A400098023091990280919A0290919B022817F6
:101A5000390731F48091C1008F7D8093C10014C09B
:101A6000E0919A02F0919B02E85AFD4F208180910B
:101A70009A0290919B0201968F73992790939B02F3
:101A800080939A022093C600FF91EF919F918F91CE
:101A90003F912F910F900FBE0F901F901895CF92EE
:101AA000DF92EF92FF92CF93DF93EC016A017B010B
:101AB000411581EE580761057105F9F0EC89FD8942
:101AC00081E090E00E8C02C0880F991F0A94E2F723
:101AD000808360E079E08DE390E0A70196010E94A9
:101AE000FC0F215031094109510956954795379509
:101AF0002795211580E1380798F0EC89FD8910823F
:101B000060E874E88EE190E0A70196010E94FC0F66
:101B10002150310941095109569547953795279527
:101B2000E889F9893083EA89FB892083EE89FF8976
:101B3000408181E090E09C010A8C02C0220F331F9B
:101B40000A94E2F7422B4083EE89FF8940819C0191
:101B50000B8C02C0220F331F0A94E2F7422B408302
:101B6000EE89FF8940819C010C8C02C0220F331F3B
:101B70000A94E2F7422B4083EE89FF8920810D8C85
:101B800002C0880F991F0A94E2F780958223808310
:101B9000DF91CF91FF90EF90DF90CF90089510925A
:101BA0003C0210923B0288EE93E0A0E0B0E080930C
:101BB0003D0290933E02A0933F02B093400286E222
:101BC00091E090933A02809339028CE992E09093ED
:101BD00046028093450288E592E090934802809304
:101BE000470285EC90E090934A028093490284EC8E
:101BF00090E090934C0280934B0280EC90E09093A5
:101C00004E0280934D0281EC90E0909350028093BD
:101C10004F0286EC90E0909352028093510284E050
:101C20008093530283E08093540287E080935502AF
:101C300085E08093560281E08093570208955058C2
:101C4000BB27AA270ED01CC10DD130F012D120F035
:101C500031F49F3F11F41EF402C10EF4E095E7FB4E
:101C6000F8C0E92F1ED180F3BA1762077307840703
:101C7000950718F071F49EF536C10EF4E0950B2E21
:101C8000BA2FA02D0B01B90190010C01CA01A001CE
:101C90001124FF27591B99F0593F50F4503E68F129
:101CA0001A16F040A22F232F342F4427585FF3CF6A
:101CB000469537952795A795F0405395C9F77EF43B
:101CC0001F16BA0B620B730B840BBAF09150A1F084
:101CD000FF0FBB1F661F771F881FC2F70EC0BA0F0A
:101CE000621F731F841F48F4879577956795B79592
:101CF000F7959E3F08F0B3CF9395880F08F099278A
:101D0000EE0F9795879508950CD0BAC0B2D040F0E9
:101D1000A9D030F021F45F3F19F09BC05111E4C00D
:101D20009EC0BFD098F39923C9F35523B1F3951BF7
:101D3000550BBB27AA2762177307840738F09F5FEC
:101D40005F4F220F331F441FAA1FA9F333D00E2E5B
:101D50003AF0E0E830D091505040E695001CCAF7C8
:101D600029D0FE2F27D0660F771F881FBB1F26178D
:101D700037074807AB07B0E809F0BB0B802DBF0160
:101D8000FF2793585F4F2AF09E3F510568F061C0CE
:101D9000ABC05F3FECF3983EDCF386957795679593
:101DA000B795F7959F5FC9F7880F911D9695879511
:101DB00097F90895E1E0660F771F881FBB1F621730
:101DC00073078407BA0720F0621B730B840BBA0BEE
:101DD000EE1F88F7E0950895E89409C097FB3EF45C
:101DE00090958095709561957F4F8F4F9F4F992368
:101DF000A9F0F92F96E9BB279395F69587957795E6
:101E00006795B795F111F8CFFAF4BB0F11F460FFA5
:101E10001BC06F5F7F4F8F4F9F4F16C0882311F0FD
:101E200096E911C0772321F09EE8872F762F05C011
:101E3000662371F096E8862F70E060E02AF09A95AC
:101E4000660F771F881FDAF7880F9695879597F9A1
:101E5000089597F99F6780E870E060E008959FEF2C
:101E600080EC089500240A94161617061806090631
:101E7000089500240A941216130614060506089500
:101E8000092E0394000C11F4882352F0BB0F40F488
:101E9000BF2B11F460FF04C06F5F7F4F8F4F9F4FC8
:101EA000089557FD9058440F551F59F05F3F71F04A
:101EB0004795880F97FB991F61F09F3F79F08795B1
:101EC0000895121613061406551FF2CF4695F1DF3A
:101ED00008C0161617061806991FF1CF86957105CA
:101EE000610508940895E894BB2766277727CB01FE
:101EF00097F908950BD0C4CFB5DF28F0BADF18F0FA
:101F0000952309F0A6CFABCF1124EECFCADFA0F303
:101F1000959FD1F3950F50E0551F629FF001729F7E
:101F2000BB27F00DB11D639FAA27F00DB11DAA1F9D
:101F3000649F6627B00DA11D661F829F2227B00DEA
:101F4000A11D621F739FB00DA11D621F839FA00D75
:101F5000611D221F749F3327A00D611D231F849FC5
:101F6000600D211D822F762F6A2F11249F5750401C
:101F70008AF0E1F088234AF0EE0FFF1FBB1F661FB7
:101F8000771F881F91505040A9F79E3F510570F070
:101F900060CFAACF5F3FECF3983EDCF38695779550
:101FA0006795B795F795E7959F5FC1F7FE2B880F6B
:101FB000911D9695879597F908950E943A10A59FCF
:101FC000900DB49F900DA49F800D911D1124089534
:101FD00097FB072E16F4009407D077FD09D00E94D6
:101FE000461007FC05D03EF4909581959F4F0895CB
:101FF000709561957F4F0895A1E21A2EAA1BBB1B15
:10200000FD010DC0AA1FBB1FEE1FFF1FA217B307C4
:10201000E407F50720F0A21BB30BE40BF50B661FDA
:10202000771F881F991F1A9469F76095709580959E
:1020300090959B01AC01BD01CF010895052E97FB42
:1020400016F4009407D057FD0DD00E94FC0F07FC3A
:1020500009D07EF490958095709561957F4F8F4F54
:102060009F4F089550954095309521953F4F4F4F84
:102070005F4F0895A29FB001B39FC001A39F01D0FD
:10208000B29F700D811D1124911D0895AA1BBB1BC9
:1020900051E107C0AA1FBB1FA617B70710F0A61B68
:1020A000B70B881F991F5A95A9F780959095BC0189
:1020B000CD010895EE0FFF1F0590F491E02D0994D6
:0420C000F894FFCFC2
:1020C4000152656164792100000000001A03EC02EA
:1020D4008F029802AC02BC02526561642066616999
:1020E4006C0000000000A10CC40B3C0C6B0C4F0CEA
:0220F4008F0C4F
:00000001FF
