:100000000C9462000C948A000C948A000C940314E3
:100010000C9459130C94AF120C948A000C948B1608
:100020000C948A000C948A000C948A000C948A0028
:100030000C948A000C9417160C948A000C948A0075
:100040000C94540D0C948A000C94C40D0C949E0DC9
:100050000C948A000C948A000C948A000C948A00F8
:100060000C94F60D0C948A00000000002400270078
:100070002A0000000000250028002B0000000000DE
:1000800023002600290004040404040404040202DA
:100090000202020203030303030301020408102007
:1000A0004080010204081020010204081020000012
:1000B0000008000201000003040700000000000027
:1000C00000007E2111241FBECFEFD8E0DEBFCDBFE0
:1000D00011E0A0E0B1E0E2E8FDE402C005900D927D
:1000E000AC34B107D9F725E0ACE4B1E001C01D9212
:1000F000AD3EB207E1F710E0C2E6D0E004C02197C0
:10010000FE010E941C23C136D107C9F70E940B20B3
:100110000C94BF260C9400008F929F92AF92BF92D6
:10012000CF92DF92EF92FF920F931F93CF93DF93C3
:1001300000D000D0CDB7DEB780915E0290915F0213
:10014000049739F48091600290916102892B09F43F
:10015000E4C180918C02863009F07BC080915C0202
:1001600090915D02019711F00C94A30A80918D0289
:100170008F70F82E20918D0230E0B4E035952795F0
:10018000BA95E1F7822F8370E82ED0908D024091CE
:100190008E0280918F0250E0542F44275A01A80EFE
:1001A000B11C0F2D10E0F801E350FD4F4F0180818D
:1001B000882319F08F2D0E94AD1462E08F2D0E94CC
:1001C000A20C81E0F4018083F801EE58FC4FE0823C
:1001D000A50160E070E0F801A3E0EE0FFF1FAA9513
:1001E000E1F7EB54FD4F40835183628373831482A4
:1001F000158216821782E1100AC02D2D22952695B0
:1002000026952370A80149545E4F01E01CC0F1E01F
:10021000EF127DC18CE0809FF001819FF00D1124D1
:10022000EA5FFC4F108211821282138214821582BF
:10023000168217821086118612861386A8014954E9
:100240005E4F00E021E064E770E18F2D0E94E21133
:100250005EC180918C02893059F480915C0290914A
:100260005D02019711F00C94A30A80918D024DC19B
:1002700080918C028A3051F580915C0290915D02F0
:10028000019711F00C94A30AE0918D0224E0E29F03
:10029000F0011124EF56FD4F80819181A281B3813D
:1002A00020918C022093770280937802492F5A2F55
:1002B0006B2F772740937902AD016627772740930C
:1002C0007A028B2F9927AA27BB2705C180918C0220
:1002D0008B30D1F480915C0290915D02019711F016
:1002E0000C94A30A00E010E0F801E350FD4F808178
:1002F000882319F0802F0E94AD140F5F1F4F093023
:10030000110591F70C94A30A80918C028C30E1F5D1
:1003100080915C0290915D02019711F00C94A30A08
:1003200020918D022A30F0F080E090E040E050E033
:10033000FC01E350FD4F208130E0082E02C0220F67
:10034000331F0A94E2F7420F531F0196893091053B
:1003500079F780918C0280937702409378025093D2
:100360007902D5C080918C02809377021092780236
:10037000E22FF0E0E350FD4F808101C0880F2A9505
:10038000EAF780937902C3C080918C028E3009F025
:1003900053C080915C0290915D02019711F00C9422
:1003A000A30A10918D0290908E02183008F0AFC011
:1003B000C12ED12CC60183509D4F5C01FC01808170
:1003C00001E0010F882331F0812F0E94AD14802FAE
:1003D0000E94AD1427E02C9DC0012D9D900D11248D
:1003E0009C0127553A4F7901F9011083018312824C
:1003F0001382148215829682808162E00E94A20C90
:10040000F701818162E00E94A20CF601E250FD4FEB
:1004100081E08083F5018083F701808100E022E0A4
:10042000A70164E170E10E94E211F701818122E0FD
:10043000A70164E170E10ACF80918C028D3009F050
:100440004DC080915C0290915D02019711F00C9477
:10045000A30AE0918D0227E0E29FF0011124E75505
:10046000FA4F82809380A480B5806401092C000C2F
:10047000EE08FF08F7FE14C0E0912E04F0912F045F
:100480000190F081E02D6DE28EE294E009956627FF
:100490007727CB016C197D098E099F094AE003C0BB
:1004A0004AE0C701B6010E94BA1889E491E00E94AF
:1004B000A81880918C028093770280927802892D0F
:1004C000992780937902990F880B982F80937A024D
:1004D000990F880B982F80937B0219C080918C0212
:1004E0008F3011F00C94A30A80915C0290915D0210
:1004F000019711F00C94A30A10918D02183038F472
:10050000812F0E94AD1481E0810F0E94AD141092E2
:100510005D0210925C020C94A30A81E090E090933B
:1005200061028093600280918C02813049F4809155
:100530008C028093770280918D020E94490C9DC2AB
:1005400080918C02823029F460918E0280918D021C
:1005500030C080918C028330C1F480918D020E9462
:10056000DE0C9093AC018093AB0120918C02209320
:1005700077029C0197FF02C021503F4F30937802D1
:1005800060E071E00E9471222EC480918C02843060
:1005900009F05EC000918E02E02EF12C10918D02C8
:1005A00061E0812F0E94A20CE114F10429F460E0C3
:1005B000812F0E94720CC7C72FEFE216F10409F4D5
:1005C00045C0E12FF0E0E255FF4FE491E330F9F050
:1005D00048F4E130B9F0E230A1F584B5806284BD21
:1005E00008BDB1C7E730E9F0E83019F1E43049F56A
:1005F00080918000806280938000F0928B00E09276
:100600008A00A1C784B5806884BD07BD9CC780915E
:100610008000806880938000F0928900E0928800DA
:1006200092C78091B00080688093B0000093B300BF
:100630008AC78091B00080628093B0000093B400BC
:1006400082C730E8E316F1040CF4B1CF61E0B0CF1B
:1006500080918C02853029F460918E0280918D0208
:10066000E2C180918C02873009F060C0F0908D0269
:100670000F2D10E01093AA010093A90161E08F2DC6
:100680000E94A20C60E08F2D0E94720C83E090E02B
:100690000197F1F761E08F2D0E94720C8FE090E0DE
:1006A0000197F1F760E08F2D0E94720C60E08F2DB2
:1006B0000E94A20CF801E656FF4F6491F801EA5738
:1006C000FF4FE491F0E0EE0FFF1FE458FF4F8591DC
:1006D000949108EF14E221E030E0462F0E94FB18CD
:1006E000611571058105910549F0DC01CB01019689
:1006F000A11DB11DBC01CD019F7003C060E070E081
:10070000CB012AE330E040E050E00E94A722809134
:100710008C0280937702BB2757FDBA95A52F942FA3
:10072000832F80937802209379020DC780918C02E9
:10073000883069F480918C028093770281E0809305
:10074000780283E08093790210927A02FCC680914D
:100750008C02883209F032C180915C0290915D0276
:10076000892B09F4F0C680918E02811104C080911A
:100770008D026BE013C080918E02813021F4809154
:100780008D0266E10BC080918E02823021F0809153
:100790008E02833029F480918D0265E10E94311828
:1007A00061E080911E040E94720C6AEF70E080E0AC
:1007B00090E00E941A0D2FB7F8948091C10190919A
:1007C000C201A091C301B091C4012FBF4091210487
:1007D000509122046091230470912404841795079A
:1007E000A607B70740F41092210410922204109239
:1007F00023041092240420912504211112C0409159
:100800002104509122046091230470912404841BDC
:10081000950BA60BB70B803D9740A105B10508F4D9
:1008200089C0109225042FB7F8948091C10190914E
:10083000C201A091C301B091C4012FBF80932104D4
:1008400090932204A0932304B093240410921C04D8
:1008500010921B0410921A0410921904109218049A
:1008600061E080911E040E94A20C60E080911E0451
:100870000E94720C64E170E080E090E00E941A0D2A
:10088000F89461E080911E040E94720C8BE990E064
:100890000197F1F760E080911E040E94A20CF12CF8
:1008A00010E081E000E0C82ED12C80911E040E944F
:1008B000490C8C159D0519F40F5F0F3FB1F780911E
:1008C0001E040E94490C0F3FC1F0143098F010FD37
:1008D00011C0EF2DE695E695E695F0E0E85EFB4F5A
:1008E0009081990F908320912004201710F491603B
:1008F0009083F3941F5F1535A9F67894F7E2FF15FE
:10090000B0F420911C0430E0409118048091190447
:1009100090E0840F911D40911A04840F911D409125
:100920001B04840F911D99272817390719F080E0BF
:1009300090E025C080911F048B3009F0A1C0609128
:100940001A0470E080E090E00E944B24609326043B
:1009500070932704809328049093290460911804CD
:1009600070E080E090E00E944B2460932A04709332
:100970002B0480932C0490932D0486E294E0209124
:100980008C0220936202FC0120E030E02F5F3F4F99
:100990004191D901AE59BD4F4C9324303105B1F787
:1009A000FC01349685E090E02191DC01AE59BD4F09
:1009B0002C93019689309105B9F7A9CD80918C02CD
:1009C0008233A1F560918E0240918D0280918D025B
:1009D0008F5F20918D0230E02250310997E0929F85
:1009E000F001939FF00D1124E158FE4FA82FB0E0C5
:1009F000B183A08350E05383428391E0611101C031
:100A000090E0948397E0929F8001939F100D1124B2
:100A100001581E4FF8011682158261E00E94A20C57
:100A200061E0F80182810E94A20C8DC580918C0248
:100A3000833309F0AAC080918D0290E0029747E0CD
:100A4000489FF001499FF00D1124E158FE4F80812D
:100A50009181892B09F07AC098C080918C028531F0
:100A600009F408C580918C02883109F06CC5809129
:100A70008C02809377020E9440198093780263C5AC
:100A80008B3008F47ACF8551823008F076CF109100
:100A90001A04612F6F7770E080E090E00E944D248F
:100AA00020E030E040E853E40E94FD246B017C012B
:100AB00080911B04682F70E080E090E00E944D243C
:100AC0009B01AC01C701B6010E94322320E030E057
:100AD00040E251E40E94A32317FD09C0609326045D
:100AE0007093270480932804909329040BC0DC01A1
:100AF000CB01B0588093260490932704A093280438
:100B0000B09329046091180470E080E090E00E94A6
:100B10004B2420E030E040E853E40E94FD246B01C8
:100B20007C0180911904682F70E080E090E00E94C1
:100B30004D249B01AC01C701B6010E94322320E085
:100B400030E040E251E40E94A3230FCF90918E0247
:100B500020918D0230E022503109429FF001439FE5
:100B6000F00D1124E158FE4F81E0911101C080E0A9
:100B7000848347E0429FC001439F900D1124815818
:100B80009E4FFC01658176812BC180918C0284335C
:100B900079F580918D0290E0029727E0289FF0017F
:100BA000299FF00D1124E158FE4F80819181892BFE
:100BB000F9F080918E0220918D0230E022503109AF
:100BC0008B3008F08AE06FEF7FEF02C0660F771F6F
:100BD0008A95E2F76095709547E0429FC001439F78
:100BE000900D112481589E4FFC0176836583F8C0D7
:100BF00080918C02853381F480918D0290E0029780
:100C000027E0289FF001299FF00D1124E158FE4FA5
:100C100080819181892BB9F480918C02863309F00F
:100C200060C080918D0290E0029757E0589FF001DC
:100C3000599FF00D1124E158FE4F80819181892B3D
:100C400009F066C04EC030918F0290918E024091A3
:100C50008D0250E042505109249FF001259FF00D74
:100C60001124E158FE4F9923D1F19B3008F09AE00E
:100C7000915061E070E002C0660F771F9A95E2F72D
:100C8000332379F087E0849FD001859FB00D112434
:100C9000A158BE4F15962D913C911697622B732B40
:100CA00010C06095709587E0849FD001859FB00D3E
:100CB0001124A158BE4F15962D913C911697622391
:100CC000732387E0849FD001859FB00D1124A15824
:100CD000BE4F16967C936E931597CF0181C091E01D
:100CE000C7CF80918C02873309F040C080918D027C
:100CF00090E0029747E0489FF001499FF00D1124D2
:100D0000E158FE4F80819181892B09F057C02EC098
:100D100090918E0220918D0230E022503109529F35
:100D2000B001539F700D1124AB0141585E4F9923C0
:100D3000D9F09B3008F09AE0915061E070E002C079
:100D4000660F771F9A95E2F787E0829FF001839FF5
:100D5000F00D1124E158FE4F25813681622773275B
:100D600076836583CA013CC091E0E6CF80918C0216
:100D70008833E1F580918D0290E0029727E0289F6B
:100D8000F001299FF00D1124E158FE4F80819181DF
:100D9000892B61F180918D0290E00297289FF001EC
:100DA000299FF00D1124E158FE4F958186812091F5
:100DB0008C02209377029093780215C060918E0286
:100DC00080918F0220918D0270E0782B30E02250CC
:100DD0003109429FC001439F900D112481589E4FBD
:100DE0000E944517B0C380937902ADC380918C02F5
:100DF000863429F590918D0280918D0200918D02AB
:100E000010E0025011099801220F331F020F131F27
:100E100003591E4FF80180839F5F918360E00E9419
:100E2000A20C60E0F80181810E94A20C60E0F80150
:100E300080810E94720C60E0F8018181BACB8091C0
:100E40008C02873479F480918D0290E00297FC0146
:100E5000EE0FFF1F8E0F9F1FFC01E359FE4F808195
:100E6000811124C080918C028834A9F580918D0273
:100E700090E00297FC01EE0FFF1F8E0F9F1FFC01F9
:100E8000E359FE4F8081882331F160918E02909169
:100E90008F0280918D0270E0792B90E002979C0187
:100EA000220F331F820F931F40E038C020918E0223
:100EB00080918D0290E00297283058F4285FFC0161
:100EC000EE0FFF1F8E0F9F1FFC01E359FE4F228381
:100ED0003AC32FE0F4CF80918C02893421F58091C0
:100EE0008D0290E00297FC01EE0FFF1F8E0F9F1FF7
:100EF000FC01E359FE4F80818823A9F060918E02A6
:100F000090918F0280918D0270E0792B90E0029792
:100F10009C01220F331F820F931F41E083599E4F84
:100F20000E94491810C380918C028A34C9F48091C0
:100F30008D0290E00297FC01EE0FFF1F8E0F9F1FA6
:100F4000FC01E359FE4F8081882351F0E0918F022C
:100F500080918D02EF70F0E0E45FFE4F808115C05C
:100F600080918C028B34F9F480918D0290E002978D
:100F7000FC01EE0FFF1F8E0F9F1FFC01E359FE4F78
:100F80008081882381F080918F02898320918E0255
:100F900080918D0290E00297AC01440F551F840FA1
:100FA000951F41E0B2C280918C028C3409F044C09C
:100FB00080918D0290E00297FC01EE0FFF1F8E0FD3
:100FC0009F1FFC01E359FE4F80818823A9F1809186
:100FD0008E0290918D022AE0622F0E9465228F700E
:100FE000E82FF0E0E45FFE4F8081898380918E02DC
:100FF00090918D020E946522E92FF0E0E45FFE4FA0
:10100000808180688A8380918F0290918D020E94F6
:1010100065228F70E82FF0E0E45FFE4F80818B83C4
:1010200080918F0290918D020E946522E92FF0E05D
:10103000E45FFE4F80814EC080918C028D3499F523
:1010400080918D0290E00297FC01EE0FFF1F8E0F42
:101050009F1FFC01E359FE4F8081882321F1D0902E
:101060008E02E0908F02F4E0EF9E7001112400E008
:1010700010E00E151F0509F466C28D2D0E94DE0CCE
:10108000BC0120918D0230E022503109C901880F46
:10109000991F820F931F40E083599E4F0E94491869
:1010A0000F5F1F4FE6CF80918C028E34A9F48091A0
:1010B0008D0290E00297FC01EE0FFF1F8E0F9F1F25
:1010C000FC01E359FE4F8081882331F08FEF898343
:1010D0008A838B838C830EC280918C028F3479F447
:1010E00080918D0290E00297FC01EE0FFF1F8E0FA2
:1010F0009F1FFC01E359FE4F80818111F7C1809150
:101100008C028A3569F480918D0280936A01809106
:101110008E0280936B0180918F0280936C0113C2C9
:1011200080918C028B35B1F420918E0240918D021A
:1011300060918D02E0918D024F5FF0E0329735E0D3
:101140003E9FC0013F9F900D1124845B9E4F0E94E3
:101150005121F9C180918C028C3509F047C0209152
:101160008E0240918D0260918D02E0918D024F5F61
:10117000F0E0329735E03E9FC0013F9F900D112473
:10118000845B9E4F0E94512140918F0242FB442775
:1011900040F9E42EE19410918F021695117011958B
:1011A00080918F028170F82EF194C12CD12C45E0F2
:1011B000B42E80918E0290E0C816D9060CF0C3C1FF
:1011C00020918D0230E022503109B29EC001B39EC1
:1011D000900D11240F2D212F4E2D6C2D845B9E4FD1
:1011E0000E94A217FFEFCF1ADF0AE3CF80918C0293
:1011F0008D3509F056C080918E02811118C0609122
:101200008F0220918D0230E02250310945E0429F4B
:10121000C001439F900D112400916C0120916B013E
:1012200040916A01845B9E4F0E94A2178CC18091FD
:101230008D0290E0029725E0289FF001299FF00D94
:101240001124E45BFE4FC280E12CF12CD12C15E07F
:10125000EC14FD040CF077C180918E02813039F4DA
:1012600080918F0290E0E816F90609F056C180914E
:101270008E02823039F480918F0290E08E159F05A6
:101280000CF04BC180918E02833039F480918F0233
:1012900090E0E816F9060CF040C12FEFE21AF20ACE
:1012A000D7CF80918C028E3509F043C080918F0298
:1012B000811103C081E080938F0280918D0290E0C4
:1012C000029725E0289FF001299FF00D1124E45B8F
:1012D000FE4FC280E0908E02F12CD12C15E0EC1470
:1012E000FD040CF030C180918E0260918F02F701F5
:1012F000E81BF109CF0170E00E947122892BA9F44B
:1013000020918D0230E022503109129FC001139FBD
:10131000900D112400916C0120916B0140916A01A4
:101320006E2D845B9E4F0E94A217FFEFEF1AFF0AFB
:10133000D6CF80918C028F3509F071C080918D02DB
:1013400090E0029725E0289FF001299FF00D1124DD
:10135000E45BFE4FC28080918F02D12C81112FC09F
:10136000E12CF12C15E0EC14FD040CF0ECC08091A4
:101370008E0290E020918D0230E022503109E81673
:10138000F90664F4129FC001139F900D112400917F
:101390006C0120916B0140916A0108C0129FC0014D
:1013A000139F900D112400E020E040E06E2D845B3F
:1013B0009E4F0E94A2172FEFE21AF20AD4CF7601B5
:1013C00015E0E114F10409F4BEC080918E02F6012B
:1013D000E81BF10920918D0230E022503109EE1610
:1013E000FF0664F0129FC001139F900D112400911D
:1013F0006C0120916B0140916A0108C0129FC001ED
:10140000139F900D112400E020E040E06E2D845BDE
:101410009E4F0E94A217F1E0EF1AF108D2CF8091FF
:101420008C02863109F019CB60918D0270E080E06A
:1014300090E04AE00E94BA1880918D028093D8040F
:10144000F89482E08093B0008093B10094E690938A
:10145000B3001092B2008093700078948093D70408
:101460001092DB048091D80460E00E94A20C1092DC
:101470008C0269C00E94401920910804892B79F1DF
:1014800080918C02809377022093780290910A04D5
:1014900080910B049093790280937A0280910C04DE
:1014A00090910D04A0910E04B0910F0480937B02E3
:1014B000492F5A2F6B2F772740937C02AD01662767
:1014C000772740937D028B2F9927AA27BB278093EC
:1014D0007E0282E08093D7041092DB0434C08091B6
:1014E0008C0280937702209378022DC019821A8291
:1014F0001B821C8280918D0290E002979C01220F3A
:10150000331F820F931F20E044E0BE016F5F7F4FC7
:1015100083599E4F0E943E1616C020918D0230E0E6
:1015200022503109129FC001139F900D1124009188
:101530006C0120916B0140916A016E2D845B9E4F7E
:101540000E94A217AACE0F900F900F900F90DF91DC
:10155000CF911F910F91FF90EF90DF90CF90BF90B0
:10156000AF909F908F900895833081F028F4813060
:1015700099F08230A1F008958730A9F08830B9F051
:101580008430D1F4809180008F7D03C080918000F1
:101590008F7780938000089584B58F7702C084B5DB
:1015A0008F7D84BD08958091B0008F7703C08091B6
:1015B000B0008F7D8093B0000895E0915502F091C6
:1015C0005602309729F01092AE011092AD010994A5
:1015D0000895CF93DF93AC01E0915302F091540250
:1015E0003097F1F09091B0018091AF019817C0F061
:1015F00090E0292F30E02617370754F4D901AB5378
:10160000BE4FEA01C20FD31F88818C939F5FF1CF39
:101610001092B0016093AF01CB01DF91CF9109949B
:10162000DF91CF910895CF92DF92EF92FF920F93C7
:101630001F93CF93DF936C017A018B01C0E0D0E060
:10164000CE15DF0589F0D8016D918D01D601ED91A0
:10165000FC910190F081E02DC6010995892B11F4D0
:101660007E0102C02196ECCFC701DF91CF911F917F
:101670000F91FF90EF90DF90CF900895FC01538D74
:10168000448D252F30E0842F90E0821B930B54175C
:1016900010F0CF96089501970895FC01918D828DE9
:1016A000981761F0828DDF01A80FB11D5D968C91B6
:1016B000928D9F5F9F73928F90E008958FEF9FEFC1
:1016C0000895FC01918D828D981731F0828DE80F7D
:1016D000F11D858D90E008958FEF9FEF0895FC0137
:1016E000918D228D892F90E0805C9F4F821B910904
:1016F0008F73992708958EE294E00E946F0B21E08A
:10170000892B09F420E0822F0895FC01848DDF01EC
:10171000A80FB11DA35ABF4F2C91848D90E0019664
:101720008F739927848FA689B7892C93A089B18953
:101730008C9180648C93938D848D981306C002885D
:10174000F389E02D80818F7D80830895EF92FF9251
:101750000F931F93CF93DF93EC0181E0888F9B8DD4
:101760008C8D981305C0E889F989808185FD24C096
:10177000F62E0B8D10E00F5F1F4F0F731127E02E19
:101780008C8DE8120CC00FB607FCFACFE889F989F6
:10179000808185FFF5CFCE010E94850BF1CF8B8D27
:1017A000FE01E80FF11DE35AFF4FF0820B8FEA892B
:1017B000FB898081806207C0EE89FF896083E889A8
:1017C000F98980818064808381E090E0DF91CF910E
:1017D0001F910F91FF90EF900895CF93DF93EC014D
:1017E000888D8823C9F0EA89FB89808185FD05C041
:1017F000A889B9898C9186FD0FC00FB607FCF5CF7B
:10180000808185FFF2CFA889B9898C9185FFEDCFC2
:10181000CE010E94850BE7CFDF91CF91089580E044
:1018200090E0892B29F00E947B0B81110C94000021
:10183000089585ED8093BC008091BC0084FDFCCFB1
:1018400010924E0208950895E091B0018091AF0189
:10185000E81730F4F0E0EB53FE4F808190E00895FC
:101860008FEF9FEF08959091B0018091AF0198178D
:1018700050F4E92FF0E0EB53FE4F208130E09F5F02
:101880009093B00102C02FEF3FEFC90108950E946D
:10189000B326CF93DF93282F30E0F901E255FF4FB5
:1018A0008491F901E656FF4FD491F901EA57FF4FB1
:1018B000C491CC2391F081110E94B40AEC2FF0E086
:1018C000EE0FFF1FE458FF4FA591B491EC91ED236B
:1018D00081E090E021F480E002C080E090E0DF91C0
:1018E000CF9108951F93CF93DF93282F30E0F90114
:1018F000E255FF4F8491F901E656FF4FD491F9016B
:10190000EA57FF4FC491CC23C9F0162F81110E94D2
:10191000B40AEC2FF0E0EE0FFF1FEE58FF4FA59139
:10192000B4918FB7F894111105C09C91ED2FE095FB
:10193000E92302C0EC91ED2BEC938FBFDF91CF91A7
:101940001F910895CF93DF9390E0FC01E656FF4F7F
:101950002491FC01EA57FF4F8491882361F190E0C4
:10196000880F991FFC01E859FF4FC591D491FC01E4
:10197000EE58FF4FA591B491611109C09FB7F8943B
:101980008881209582238883EC912E230BC06230BE
:1019900061F49FB7F8943881822F809583238883E0
:1019A000EC912E2B2C939FBF06C08FB7F894E88143
:1019B0002E2B28838FBFDF91CF9108958E3008F0B2
:1019C0008E508770806480937C0080917A00806460
:1019D00080937A0080917A0086FDFCCF8091780018
:1019E0002091790090E0922B08953FB7F894809170
:1019F000580290915902A0915A02B0915B0226B50B
:101A0000A89B05C02F3F19F00196A11DB11D3FBF36
:101A1000BA2FA92F982F8827820F911DA11DB11DC4
:101A2000BC01CD0142E0660F771F881F991F4A95C0
:101A3000D1F708958F929F92AF92BF92CF92DF928B
:101A4000EF92FF926B017C010E94F50C4B015C014F
:101A5000C114D104E104F104F1F00E94F50CDC01A1
:101A6000CB0188199909AA09BB09883E9340A105B1
:101A7000B10570F321E0C21AD108E108F10888EE3F
:101A8000880E83E0981EA11CB11CC114D104E1048E
:101A9000F10419F7DDCFFF90EF90DF90CF90BF906A
:101AA000AF909F908F9008951F920F920FB60F9254
:101AB00011242F933F938F939F93AF93BF93809164
:101AC000C1019091C201A091C301B091C4013091B4
:101AD000570223E0230F2D3720F40196A11DB11DDD
:101AE00005C026E8230F0296A11DB11D20935702C1
:101AF0008093C1019093C201A093C301B093C4012C
:101B00008091580290915902A0915A02B0915B02C3
:101B10000196A11DB11D8093580290935902A09384
:101B20005A02B0935B02BF91AF919F918F913F9109
:101B30002F910F900FBE0F901F9018951F920F922C
:101B40000FB60F9211242F933F934F935F936F9390
:101B50007F938F939F93AF93BF93EF93FF938EE207
:101B600094E00E94850BFF91EF91BF91AF919F91FF
:101B70008F917F916F915F914F913F912F910F9036
:101B80000FBE0F901F9018951F920F920FB60F92D5
:101B900011242F938F939F93EF93FF93E0913E0433
:101BA000F0913F048081E0914404F091450482FD6E
:101BB00012C09081809147048F5F8F7320914804F9
:101BC000821751F0E0914704F0E0E25DFB4F958F02
:101BD0008093470401C08081FF91EF919F918F9185
:101BE0002F910F900FBE0F901F9018951F920F927C
:101BF0000FB60F9211242F933F934F935F936F93E0
:101C00007F938F939F93AF93BF93EF93FF938091B5
:101C1000B900887F803609F49CC068F5883209F4E1
:101C20005BC090F4803109F454C038F4882309F47F
:101C3000F6C0883009F44DC0F6C0883109F44CC0B4
:101C4000803209F45DC0EFC0803409F468C048F404
:101C5000803309F455C0883309F0E5C08093280229
:101C6000D8C0803509F44FC0883509F45DC0883488
:101C700009F0D9C0D6C0883909F4C7C0A8F488379C
:101C800009F467C038F4883609F463C0803709F472
:101C900060C0C9C0883809F4B8C0803909F45FC091
:101CA000803809F0C0C05BC0803B09F486C038F4BE
:101CB000803A09F466C0883A09F47FC0B4C0803C19
:101CC00009F4A7C0883C09F4A4C0883B09F48AC081
:101CD000AAC080914B0210C090914A0280914902A3
:101CE000981770F5E0914A0281E08E0F80934A02C6
:101CF000F0E0E75DFD4F80818093BB0085EC86C0FE
:101D0000809328028EC0E0914A0281E08E0F80937A
:101D10004A028091BB00F0E0E75DFD4F8083909127
:101D20004A02809149026EC0E0914A0281E08E0F22
:101D300080934A028091BB00F0E0E75DFD4F808315
:101D400080914D0281116DC081E080934C0284EA44
:101D500061C083E080934E0210922702CFCF809122
:101D60002702803208F051C0E091270281E08E0FF7
:101D7000809327028091BB00F0E0E95FFD4F8083F4
:101D8000BDCF85EC8093BC0010924E02809127025B
:101D9000803230F4E0912702F0E0E95FFD4F1082DD
:101DA0006091270270E0E0914F02F091500287E0CD
:101DB00092E009951092270236C084E080934E028B
:101DC0001092060210920502E0915102F091520227
:101DD000099580910502811105C081E0809305027B
:101DE0001092E501E091060281E08E0F80930602D9
:101DF000F0E0EB51FE4F80818093BB009091060292
:101E000080910502981708F479CF85E88093BC008B
:101E10000AC085EC8093BC0010924E0204C0109260
:101E200028020E94190CFF91EF91BF91AF919F91F1
:101E30008F917F916F915F914F913F912F910F9073
:101E40000FBE0F901F90189540910502262F30E08D
:101E5000240F311D21323105DCF420914E02243053
:101E6000C9F4FC0180E090E0861758F43091050237
:101E70002191DC01AB51BE4FA30FB11D2C930196F4
:101E8000F3CF80910502680F6093050280E008950A
:101E900081E0089582E008958091AF0190E0209163
:101EA000B001821B91090895089580E090E00895A3
:101EB000CF93DF9300D0CDB7DEB7CB01642F49833A
:101EC0005A830E94240F4981842F5A81952F0F90A5
:101ED0000F90DF91CF910895CF93DF931F92CDB7ED
:101EE000DEB7698361E0CE0101960E94240F81E094
:101EF00090E00F90DF91CF9108958091C001811102
:101F00007BC080918C02813041F442E050E067E771
:101F100072E08BEC94E00E94580F80918C02833029
:101F200009F46FC080918C02873009F46AC08091F7
:101F30008C02883309F465C080918C02883009F4E2
:101F400069C080918C02843109F464C080918C0254
:101F50008E3141F449E050E067E772E08BEC94E0A9
:101F60000E94580F80918C02883241F449E050E081
:101F700062E672E08BEC94E00E94580F80918C0234
:101F80008A3041F445E050E067E772E08BEC94E082
:101F90000E94580F80918C028C3041F443E050E055
:101FA00067E772E08BEC94E00E94580F80918C02FE
:101FB000853151F448E050E067E772E08BEC94E043
:101FC0000E94580F1092770280918C028D3041F45C
:101FD00045E050E067E772E08BEC94E00E94580F18
:101FE00080918C028831F9F442E050E067E772E0BA
:101FF0008BEC94E00C94580F67E18BEC94E00C941C
:102000006C0F43E050E067E772E08BEC94E00E94D5
:10201000580F92CF44E050E067E772E08BEC94E019
:102020000E94580F93CF08951F93CF93DF93EC0135
:1020300088810E94490C182F89810E94490C9C01BB
:102040003327210F311D21303105A9F4181740F431
:102050008A819B81AC81BD810196A11DB11D07C004
:102060008A819B81AC81BD810197A109B1098A83D5
:102070009B83AC83BD838A819B81AC81BD81B7FF8B
:1020800005C01A821B821C821D8215C04A815B8199
:102090006C817D818E8190E0A0E0B0E0841795078F
:1020A000A607B70744F48E8190E0A0E0B0E08A83F1
:1020B0009B83AC83BD83688170E080E090E04AE060
:1020C0000E94BA1888E491E00E94A818698170E023
:1020D00080E090E04AE00E94BA1888E491E0DF9145
:1020E000CF911F910C94A818CF92DF92EF92FF929C
:1020F0000F931F93CF93DF93FC01C081D0E0FE01CB
:10210000EE58FC4F8081811112C0CC0FDD1FCC0F27
:10211000DD1FC558DC4F88819981AA81BB8101965A
:10212000A11DB11D88839983AA83BB8359C0808177
:10213000813009F055C061110FC00E94F50C2CE0F0
:102140002C9FF0012D9FF00D1124EA5FFC4F60875A
:102150007187828793870EC00E94F50C2CE02C9F1C
:10216000F0012D9FF00D1124EA5FFC4F648375830D
:10217000868397832CE02C9FC0012D9F900D112406
:10218000EC01CA5FDC4F8C819D81AE81BF810885E7
:1021900019852A853B85081719072A073B0700F58B
:1021A000C880D980EA80FB80BC01CD01601B710B27
:1021B000820B930B28EE33E040E050E00E94852232
:1021C000C901330FAA0BBB0BC80ED91EEA1EFB1E9A
:1021D000C882D982EA82FB821C821D821E821F82F3
:1021E000DF91CF911F910F91FF90EF90DF90CF90F3
:1021F00008954F925F926F927F928F929F92AF92CB
:10220000BF92DF92EF92FF920F931F93CF93DF93D2
:102210000E94F50C28EE33E040E050E00E94852259
:1022200049015A01C0E0D0E04CE0D42EFE01E35059
:10223000FD4F8081882309F469C08E0133E0000FCF
:10224000111F3A95E1F7F801EB54FD4F8481958118
:10225000A681B78124013501481A590A6A0A7B0A06
:1022600080819181A281B381481659066A067B0656
:1022700008F44CC0DE01AE58BC4F8C91882339F174
:102280008130E9F5DC9EC001DD9E900D11249C019A
:102290002A5F3C4F7901D9016D917D918D919C917F
:1022A00020813181428153810E945522A3019201F4
:1022B0000E948522FE01EE0FFF1FEE0FFF1FEF565B
:1022C000FD4F2083318342835383F70114C0CE0135
:1022D000880F991F880F991FFC01E558FC4F40811A
:1022E000518162817381DC01AF56BD4F4D935D9387
:1022F0006D937C9313971082118212821382F801DE
:10230000EB54FD4F84829582A682B7822196C93014
:10231000D10509F08BCFDF91CF911F910F91FF90E5
:10232000EF90DF90BF90AF909F908F907F906F90D5
:102330005F904F9008950F931F93CF93DF938091F9
:10234000C00181112FC001E010E08091AF01209108
:10235000B001821719F190E0821B9109049761F492
:10236000109261021092600210925F0210925E025F
:1023700010935D0200935C02C0915E02D0915F02F7
:10238000CE01019690935F0280935E028BEC94E005
:102390000E94330CC457DD4F8883D7CF81E08093F0
:1023A000C0010BC09091AF018091B001981729F046
:1023B0008BEC94E00E94330CF5CFDF91CF911F910D
:1023C0000F9108958F929F92AF92BF92CF92DF921A
:1023D000EF92FF920F931F93CF93DF935B018631B0
:1023E00008F0ADC0883060F0C8E6CC2ED12C8E301D
:1023F00008F495C0863108F495C060E070E094C0A0
:10240000382F92E06DE670E0B8E6CB2ED12CE92FA4
:10241000F0E0EE0FFF1FEA5FFE4F0190F081E02D2C
:10242000C114D10409F48EC06115710509F48AC084
:10243000309709F487C0A114B10409F483C0C32FF5
:10244000D0E0A1E0B0E002C0AA0FBB1F3A95E2F7CE
:102450001FB7F8944E01880C991C880C991C7F01B9
:10246000E80CF91CE701B982A8825B834A8331A199
:102470004A2F4095522F5D7F513011F43A2B01C005
:10248000342331A33FEF320F22A1323010F42A2B34
:1024900001C0242322A3EB0128812A2B2883E601F3
:1024A0003881883050F051E08E3008F450E021E05F
:1024B00001C0220F5A95EAF701C024E0232BE60160
:1024C000288380A18423913021F0923021F043B100
:1024D00003C046B101C049B14A23482B40A30023A1
:1024E000E1F0842F90E08095909522A130E0822346
:1024F000932321A12423822B8A239B23892B69F0F8
:10250000A42361E009F460E0E401CE0FDF1FD701EE
:10251000ED91FC918A819B8109951FBF13C06BE6E9
:1025200070E002C06CE670E091E08E3008F490E05C
:102530008E3010F438EF01C032EF380F68CFC12C65
:10254000D12C58CFDF91CF911F910F91FF90EF9039
:10255000DF90CF90BF90AF909F908F9008951F9283
:102560000F920FB60F9211242F933F934F935F93C7
:102570006F937F938F939F93AF93BF93CF93DF938B
:10258000EF93FF93C9B120916D00DC2FD09580911E
:102590000704D823909106049C238D2F892BD0917A
:1025A0000504DC27D223D823C0930504D0FF0BC039
:1025B000E091E503F091E6036C2F61708091E703F1
:1025C0009091E8030995D1FF0CC0C1FB662760F923
:1025D000E091E903F091EA038091EB039091EC0321
:1025E0000995D2FF0CC0C2FB662760F9E091ED03AC
:1025F000F091EE038091EF039091F0030995D3FFE2
:102600000CC0C3FB662760F9E091F103F091F2037F
:102610008091F3039091F4030995D4FF0CC0C4FB9F
:10262000662760F9E091F503F091F6038091F703D6
:102630009091F8030995D5FF0CC0C5FB662760F99A
:10264000E091F903F091FA038091FB039091FC0370
:102650000995D6FF0CC0C6FB662760F9E091FD0323
:10266000F091FE038091FF03909100040995D7FF3C
:102670000DC06C2F661F6627661FE0910104F09164
:10268000020480910304909104040995FF91EF9155
:10269000DF91CF91BF91AF919F918F917F916F917A
:1026A0005F914F913F912F910F900FBE0F901F9010
:1026B00018951F920F920FB60F9211242F933F93EC
:1026C0004F935F936F937F938F939F93AF93BF933A
:1026D000CF93DF93EF93FF93C6B120916C00DC2F73
:1026E000D0958091E403D8239091E3039C238D2F10
:1026F000892BD091E203DC27D223D823C093E203B5
:10270000D0FF0BC0E091C203F091C3036C2F617046
:102710008091C4039091C5030995D1FF0CC0C1FB02
:10272000662760F9E091C603F091C7038091C80362
:102730009091C9030995D2FF0CC0C2FB662760F9CE
:10274000E091CA03F091CB038091CC039091CD032B
:102750000995D3FF0CC0C3FB662760F9E091CE0357
:10276000F091CF038091D0039091D1030995D4FFCC
:102770000CC0C4FB662760F9E091D203F091D3034B
:102780008091D4039091D5030995D5FF0CC0C5FB6A
:10279000662760F9E091D603F091D7038091D803C2
:1027A0009091D9030995D6FF0CC0C6FB662760F946
:1027B000E091DA03F091DB038091DC039091DD037B
:1027C0000995D7FF0DC06C2F661F6627661FE09125
:1027D000DE03F091DF038091E0039091E10309951E
:1027E000FF91EF91DF91CF91BF91AF919F918F9129
:1027F0007F916F915F914F913F912F910F900FBEFD
:102800000F901F9018951F920F920FB60F921124E0
:102810002F933F934F935F936F937F938F939F93E8
:10282000AF93BF93CF93DF93EF93FF93C3B1209107
:102830006B00DC2FD0958091C103D8239091C00309
:102840009C238D2F892BD091BF03DC27D223D82343
:10285000C093BF03D0FF0BC0E0919F03F091A00392
:102860006C2F61708091A1039091A2030995D1FF13
:102870000CC0C1FB662760F9E091A303F091A403AB
:102880008091A5039091A6030995D2FF0CC0C2FBCD
:10289000662760F9E091A703F091A8038091A9034E
:1028A0009091AA030995D3FF0CC0C3FB662760F97A
:1028B000E091AB03F091AC038091AD039091AE0336
:1028C0000995D4FF0CC0C4FB662760F9E091AF0303
:1028D000F091B0038091B1039091B2030995D5FFB7
:1028E0000CC0C5FB662760F9E091B303F091B40317
:1028F0008091B5039091B6030995D6FF0CC0C6FB35
:10290000662760F9E091B703F091B8038091B903AD
:102910009091BA030995D7FF0DC06C2F661F6627EB
:10292000661FE091BB03F091BC038091BD039091C1
:10293000BE030995FF91EF91DF91CF91BF91AF91C8
:102940009F918F917F916F915F914F913F912F91C7
:102950000F900FBE0F901F9018950F931F93CF935A
:10296000DF93C82FD0E08E0103501D4FE8019881FE
:10297000992309F475C0863108F06FC0883058F08B
:1029800048E650E08E3008F458C0863108F458C04C
:10299000A0E0B0E057C0982FADE6B0E048E650E0C8
:1029A000E2E0F0E0EE0FFF1FEA5FFE4F0190F081E2
:1029B000E02D41155105D9F11097C9F13097B9F1C2
:1029C000292F30E06FB7F894220F331F220F331FE7
:1029D0002E0F3F1FE901198218821B821A8221E003
:1029E00030E001C0220F9A95EAF7209591A1922339
:1029F00091A392A1922392A39C9129232C939C9121
:102A0000911114C0FA019081883060F071E08E302D
:102A100008F470E021E030E001C0220F7A95EAF777
:102A2000209501C02BEF2923EA0128836FBF61E0C5
:102A30000E94A20CF801108213C0ABE6B0E002C005
:102A4000ACE6B0E0E1E08E3008F4E0E08E3010F467
:102A500098EF01C092EF980FA4CF40E050E095CFDF
:102A6000DF91CF911F910F9108950F931F93CF93F3
:102A7000DF938C0161E0FC0181810E94A20CC3EC18
:102A8000D0E0CE010197F1F760E0F80180810E946B
:102A9000A20CCE010197F1F760E0F80181810E945C
:102AA000A20C2197F1F7DF91CF911F910F9108951B
:102AB00061E0FC0181810E94A20C83EC90E001970F
:102AC000F1F70895CF92DF92EF92FF920F931F9349
:102AD000CF93DF93EC01E62E88E0F82E93ECC92E1D
:102AE000D12C61E088810E94A20CC6010197F1F708
:102AF000E0FE02C060E001C061E089810E94A20C9A
:102B000003EC10E0C6010197F1F760E088810E94B4
:102B1000A20CC6010197F1F7E694FA94F110E1CF07
:102B200061E088810E94A20C60E089810E94A20C71
:102B3000C8010197F1F760E088810E94A20CC801EA
:102B40000197F1F789810E94490CF82E811104C088
:102B500061E089810E94A20C03EC10E0C80101979A
:102B6000F1F761E088810E94A20CF8013197F1F73A
:102B700081E0F11001C080E0DF91CF911F910F91B2
:102B8000FF90EF90DF90CF900895EF92FF920F9318
:102B90001F93CF937C018B01C0E1612F661F6627D5
:102BA000661FF70182810E94720CF70180810E94EA
:102BB000490C61E0892B09F060E0F70180810E94F7
:102BC000720C000F111FC15041F7CF911F910F914F
:102BD000FF90EF900895EF92FF920F931F93CF9382
:102BE000DF93EC01062F18E08BE4E82EF12C07FFB1
:102BF00002C061E001C060E089810E94720C60E067
:102C000088810E94720CC7010197F1F761E0888109
:102C10000E94720CC7010197F1F7000F115039F7AC
:102C2000DF91CF911F910F91FF90EF9008951F9228
:102C30000F920FB60F9211242F933F934F935F93F0
:102C40006F937F938F939F93AF93BF93EF93FF9374
:102C5000E091B501F091B6010995FF91EF91BF9117
:102C6000AF919F918F917F916F915F914F913F9124
:102C70002F910F900FBE0F901F901895AF92BF929B
:102C8000DF92EF92FF920F931F93CF93DF9300D0C9
:102C9000CDB7DEB75C01F62EE42E29837A830E943D
:102CA000581560E4C5010E946215C5010E943515E2
:102CB000C5010E9458152981237060EC620FC5017F
:102CC0000E946215DF2C0F2D7A81172F802F8D190E
:102CD0008E1538F4F80161918F01C5010E946215CB
:102CE000F5CFC5010E943515C5010E945815F501A3
:102CF00062816058C5010E946215C5010F900F9056
:102D0000DF91CF911F910F91FF90EF90DF90BF90D7
:102D1000AF900C9435151F920F920FB60F9211249D
:102D20002F933F934F935F936F937F938F939F93D3
:102D3000AF93BF93EF93FF938091D8040E94490C07
:102D40002091DC043091DD042F5F3F4F3093DD0490
:102D50002093DC049091DB04953618F096E0909374
:102D6000D7049091D7049430C9F128F4923069F0D7
:102D70009330D1F05EC0953009F451C0963009F01F
:102D800058C091E09093A80551C0811152C0209184
:102D9000DC043091DD042436310508F442C0109281
:102DA000A8051092DB041CC0813009F042C0E091FC
:102DB000DB0491E09E0F9093DB04F0E02091DC04B3
:102DC0003091DD04EE0FFF1FE952FB4F3087278360
:102DD0001092DD041092DC0494E029C0811117C028
:102DE000E091DB0491E09E0F9093DB04F0E02091F2
:102DF000DC043091DD04EE0FFF1FE952FB4F3087FA
:102E000027831092DD041092DC0493E010C020911F
:102E1000DC043091DD042536310558F007C08111FE
:102E200008C01092DD041092DC0403C095E090937A
:102E3000D7049091DA049923B9F081110AC08091E6
:102E4000D904882321F08091D90461E009C02D9A2A
:102E50000BC08091D904882331F08091D90460E0BF
:102E60000E94720C01C02D98FF91EF91BF91AF911C
:102E70009F918F917F916F915F914F913F912F9192
:102E80000F900FBE0F901F901895EF92FF920F9327
:102E90001F93CF93DF93EC017B01CB0193709E8353
:102EA0008D8360E070E0CE010E94C51500E010E067
:102EB0008C81882369F0C701002E02C0880F991FFA
:102EC0000A94E2F7BC016627727091FF0FC00CC034
:102ED000C701002E02C0969587950A94E2F7BC01BF
:102EE0006170772780FF02C06FEF70E0CE010E9413
:102EF000C5150F5F1F4F0A301105D1F660E070E075
:102F0000CE010E94C51560E070E0CE010E94C5159B
:102F100060E08A810E94720C83E290E00197F1F7F1
:102F200014E061E08A810E94720C60E08A810E9454
:102F3000720C1150B1F7DF91CF911F910F91FF905B
:102F4000EF9008954F925F926F927F928F929F922F
:102F5000AF92BF92CF92DF92EF92FF920F931F93A7
:102F6000CF93DF93EC01962E842E722E60E00E94A8
:102F7000EB1560E0CE010E94EB1560E0CE010E94EF
:102F8000EB1560E0CE010E94EB1583E0989E5001A6
:102F9000112475018FEFE81AF80A650182E0C80E66
:102FA000D11C10E08A81181708F03BC019110FC01E
:102FB000EB81FC81EA0DFB1D8082EB81FC81EE0D33
:102FC000FF1D7082EB81FC81EC0DFD1D0083EB8108
:102FD000FC8183E0189FE00DF11D11244280518097
:102FE000608047FC02C060EE01C060EC46FE60619C
:102FF00057FE686056FE646067FE626066FE616050
:10300000CE010E94EB15642DCE010E94EB15652DBB
:10301000CE010E94EB15662DCE010E94EB151F5FBD
:10302000C1CF60E0CE010E94EB1560E0CE010E94AE
:10303000EB1560E0CE010E94EB1560E0CE01DF9160
:10304000CF911F910F91FF90EF90DF90CF90BF90A5
:10305000AF909F908F907F906F905F904F900C9467
:10306000EB15CF93DF93C8E1D4E08E836F8396E0B6
:10307000988791E09D8760E00E94A20C61E08E81BC
:103080000E94720C19861A861B861C86DF91CF91CE
:1030900008957F928F929F92AF92BF92CF92DF92CC
:1030A000EF92FF920F931F93CF93DF9300D000D046
:1030B000CDB7DEB77C019B01942E04E211E0FE0146
:1030C00031967724739440E05F018FE3882ED80116
:1030D000DE90CE908D01C901B6010E947122CB0114
:1030E000009751F4911004C0772011F0433011F48F
:1030F000808213C0108211C0A62FAF70B0E0A45F11
:10310000BE4F5C9150838C9DB0018D9D700D9C9D38
:10311000700D1124261B370B712C4F5F31964430F4
:10312000B1F620E0B501C7010E943E160F900F9046
:103130000F900F90DF91CF911F910F91FF90EF9023
:10314000DF90CF90BF90AF909F908F907F90089529
:10315000009769F0FC0101900020E9F73197AF0179
:10316000481B590BBC018EE294E00C94130B80E0D9
:1031700090E008958F929F92AF92BF920F931F930A
:10318000CF93DF93CDB7DEB7A1970FB6F894DEBF2C
:103190000FBECDBF19A2423008F44AE08E010F5D88
:1031A0001F4F842E912CA12CB12CA50194010E94BB
:1031B0008522E62FB901CA0101501109EA3014F441
:1031C000E05D01C0E95CD801EC93232B242B252B77
:1031D00061F7C8010E94A818A1960FB6F894DEBF47
:1031E0000FBECDBFDF91CF911F910F91BF90AF90D8
:1031F0009F908F900895CF92DF92EF92FF920F935E
:103200001F93E82FF92F05C0015011092109310939
:1032100061F1908196239417B9F305C0015011090B
:103220002109310911F1908196239413F7CFC12C14
:10323000D12CE12CF12C0AC08FEFC81AD80AE80A69
:10324000F80A0C151D052E053F0579F080818623AF
:10325000841791F36C2D7D2D8E2D9F2D1F910F9135
:10326000FF90EF90DF90CF90089560E070E080E0F5
:1032700090E01F910F91FF90EF90DF90CF90089515
:103280002F923F924F925F926F927F928F929F9276
:10329000AF92BF92CF92DF92EF92FF920F931F9364
:1032A000CF93DF9300D000D000D0CDB7DEB78EED46
:1032B00094E090931304809312048091DB0490E0D7
:1032C00090931504809314048091A80590E0909346
:1032D0001704809316048091D704853009F07BC3CE
:1032E0008091E0049091E104885891098D35910511
:1032F00088F48091DB04843041F48091E204909161
:10330000E3048097479708F401C28091DB0484347A
:1033100008F0E3C18091DB048A3108F454C0809145
:10332000DE049091DF04843F914080F410921104F8
:10333000109210048FEF9FEFDC0180930C049093A8
:103340000D04A0930E04B0930F045BC08091E004C1
:103350009091E10485974B97B0F5E4EEF4E082E0BC
:1033600090E040E050E0BA018C010F5F1F4F2091C8
:10337000DB0430E0021713076CF49F01225031097F
:10338000D9012D913C91275031092730310508F49E
:10339000F5C1C80101979595879590931104809385
:1033A00010040C972CF410921104109210040BC00E
:1033B00040930C0450930D0460930E0470930F041B
:1033C00084E090E0FCC28091DB048A3108F44DC0B7
:1033D0008091DE049091DF048032934008F4A6CF00
:1033E0008091E0049091E104C697869708F4E2C1C9
:1033F0003CC040930C0450930D0460930E047093F2
:103400000F048BE090E0DBC220813181255231092D
:103410002B31310508F0DEC1440F551F661F771FA1
:103420004160029634968C010F5F1F4F2091DB04A0
:1034300030E00217130764F49F0122503109D901CB
:103440002D913C912C5031092B303105E8F2C80107
:1034500001979595879590931104809310040C978C
:1034600044F610921104109210048091DB04823211
:1034700008F44CC08091E0049091E104069707970E
:1034800008F044C0E4EEF4E082E090E040E050E078
:10349000BA018C010F5F1F4F2091DB0430E002174F
:1034A0001307DCF4DF0112972D913C9111972E51F7
:1034B00031092731310508F09AC1440F551F661FA5
:1034C000771F4160208131813496235031092530A6
:1034D000310510F40296DDCFC801019795958795C7
:1034E000909311048093100440972CF410921104CF
:1034F000109210040BC040930C0450930D04609381
:103500000E0470930F048CE090E059C21C821B8261
:1035100081E090E09A8389838091DB048D3008F408
:103520006BC049E753E0BE016D5F7F4FCE0101964E
:103530000E94E121892B09F05FC049E753E0BE01F9
:103540006D5F7F4FCE0101960E94E121019709F046
:1035500053C049E753E0BE016D5F7F4FCE01019636
:103560000E94E121892B09F047C0C12CD12C7601A2
:1035700000E010E08091DB0490E029813A81281777
:1035800039075CF549E753E0BE016D5F7F4FCE011F
:1035900001960E94E1215C0149E753E0BE016D5FA5
:1035A0007F4FCE0101960E94E121B1E0AB16B1043C
:1035B00049F4892B09F5CC0CDD1CEE1CFF1C68942A
:1035C000C0F808C0AB28C1F40197B1F4CC0CDD1CE5
:1035D000EE1CFF1C0F5F1F4FCDCF10931104009303
:1035E0001004C0920C04D0920D04E0920E04F092EC
:1035F0000F0481E090E0E3C11C821B8281E090E037
:103600009A838983809114049091150418161906E1
:103610000CF058C0E0911204F091130482E090E0A5
:103620009A8389838281938189974E9708F04AC053
:1036300083E090E09A838983848195810B970A9730
:1036400008F040C04CEB51E0BE016D5F7F4FCE01F2
:1036500001960E94E121892BA9F54CEB51E0BE01B6
:103660006D5F7F4FCE0101960E94E121019751F5D8
:10367000C12CD12C760100E010E029813A818091A3
:10368000140490911504281739070CF0F3C04CEB83
:1036900051E0BE016D5F7F4FCE0101960E94E12196
:1036A0004C010330110509F0AFC04CEB51E0BE01F5
:1036B0006D5F7F4FCE0101960E94E1218816990629
:1036C00009F4A2C0E0911204F09113048281938165
:1036D000C697869708F4DDC08CC18091E204909172
:1036E000E304825491098E9708F014CE20E030E074
:1036F00080E090E0DC01F901EC51FB4F4081518109
:10370000495051094930510588F004CE8091E404B4
:103710009091E5040997099708F0F7CD10921104EC
:10372000109210048FEF9FEFDC0158C1F901EA51AC
:10373000FB4F40815181475151094231510588F475
:10374000880F991FAA1FBB1F81602C5F3F4F203835
:10375000310589F620E230E0309311042093100403
:103760003DC140815181465051094730510508F013
:10377000D1CD880F991FAA1FBB1FE7CF20813181B0
:10378000235131092F30310540F4440F551F661F76
:10379000771F416002963496E7CD208131812A500F
:1037A00031092930310508F00ECE440F551F661F30
:1037B000771FF0CF8091E2049091E304C69786973B
:1037C00008F053CEE6EEF4E083E090E040E050E015
:1037D000BA0129CE208131812C5031092A3031059E
:1037E00008F043CE440F551F661F771F1ACE2D9148
:1037F0003C912C5031092B30310508F087CE440F15
:10380000551F661F771F5ECE4CEB51E0BE016D5F0A
:103810007F4FCE0101960E94E1215C01033011052A
:1038200069F44CEB51E0BE016D5F7F4FCE01019614
:103830000E94E121A816B90609F044CF8114910431
:1038400059F4AA94AB2809F03DCFCC0CDD1CEE1C3A
:10385000FF1C6894C0F80BC08A94892809F032CF05
:10386000AB2809F02FCFCC0CDD1CEE1CFF1C0F5F2A
:103870001F4F03CF1093110400931004C0920C0447
:10388000D0920D04E0920E04F0920F0482E090E0DA
:1038900096C0848195814B97459708F0AAC0DF01B7
:1038A00016967F0126ECE20EF11C20E030E040E0AD
:1038B00050E060E070E080E090E00D911C91119785
:1038C000095011090830110508F093C012960D91A6
:1038D0001C911397015111090D30110520F501E0DC
:1038E0000E94D12221601496AE15BF0531F72093B6
:1038F0000C0430930D0440930E0450930F0400E227
:103900000E94EC2220930A0430930B0485E090E09F
:10391000909309048093080480E390E0909311044D
:103920008093100450C012960D911C91139704506F
:1039300011090530110508F05CC001E00E94D12298
:10394000D2CF980122503109D9012D913C912950B3
:1039500031092830310508F0FAC0BC016F5F7F4F94
:10396000D8012D913C91275031092730310508F0BD
:10397000EBC2440F551F416002960C5F1F4F209110
:10398000DB0430E02450310982179307D4F2019709
:103990009595879590931104809310048A970CF461
:1039A000D6C0052E000C660B770B40930C04509389
:1039B0000D0460930E0470930F0489E090E09093DF
:1039C00009048093080481E090E00CC382E08093B6
:1039D000D7041092DB0480E090E004C380930C04D1
:1039E00090930D04A0930E04B0930F0483E090E035
:1039F000E6CF8091DB04893370F18281938189570E
:103A000091098335910508F440C125C0D90112966A
:103A10006D917C911397665171096131710508F0C0
:103A200060C1D701C601880F991FAA1FBB1F6C0177
:103A30007D016894C0F84E5F5F4F2C5F3F4F4B3362
:103A4000510509F431C1D9016D917C916A50710918
:103A500069307105D8F28091DB04823231F48281C1
:103A600093810A97099708F44CC182819381895701
:103A7000910983359105D0F48091DB048132B0F057
:103A800084819581CA97899788F49F012A5F3F4F67
:103A9000C12CD12C760143E050E0D9016D917C918D
:103AA0006A5071096930710508F44AC182819381B5
:103AB0008C549109C59778F48091DB04843031F4FB
:103AC000848195818097479708F499C18091DB04A0
:103AD000843408F07BC18091DB04863460F18281FC
:103AE00093810C970B9708F4D8C125C0D901129681
:103AF0006D917C9113976E5171096731710508F0D2
:103B000004C2D701C601880F991FAA1FBB1F6C01F1
:103B10007D016894C0F84E5F5F4F2C5F3F4F453486
:103B2000510509F4D5C1D9016D917C916C50710991
:103B30006B307105D8F28091DB04883540F08281CA
:103B40009381855891098B35910508F4EEC18091D8
:103B5000DB048032E1F48281938106970697B8F402
:103B6000848195810997099790F49F012A5F3F4FBF
:103B7000BF01625C7F4FC12CD12C7601D9014D91E0
:103B80005C91465051094630510508F4EAC18091D4
:103B90001404909115049E838D8306970CF416CF20
:103BA0008F010A5F1F4F73E0272E312CE5ECCE2EDC
:103BB000EDE9DE2EECE1EE2EE1E8FE2ED8016D916E
:103BC0007C91F8013497A080B18080E090E00E9461
:103BD0004B242B013C01B50180E090E00E944B2476
:103BE0004B015C012DEC3CEC4CE45FE30E94FD24B6
:103BF0009B01AC01C301B2010E949E2387FD17C047
:103C00002DEC3CEC4CE45FE3C301B2010E94FD24C7
:103C10009B01AC01C501B4010E949E23E82F880FCF
:103C2000FF0BEE27FF0FEE1FFF27319602C0E0E0EB
:103C3000F0E0A701960163E971E080E091E00E9465
:103C400055226F01FF0FEE08FF08C626D726E8268B
:103C5000F926BFEF2B1A3B0A0E5F1F4FED81FE8145
:103C60002E163F0609F0AACFC0920C04D0920D0484
:103C7000E0920E04F0920F0480E290E09093110421
:103C8000809310048FEF9FEF9ACE84819581CA971D
:103C9000899708F0E0CE9F012A5F3F4FC12CD12CBD
:103CA000760143E050E0CFCE9F012A583F4FD90123
:103CB0002D913C912A5031092930310508F0CBCEA5
:103CC0002CE130E03093110420931004C0920C04D6
:103CD000D0920D04E0920E04F0920F048AE090E07E
:103CE0006ECED90112966D917C9113976650710931
:103CF0006730710508F0AFCECC0CDD1CEE1CFF1C4C
:103D00009ACE2091DB04CF01820F911D820F911D6D
:103D1000DC0112978D919C910A97099708F0A5CE26
:103D200010921104109210048FEF9FEFDC0180932A
:103D30000C0490930D04A0930E04B0930F044CC197
:103D4000D90112966D917C91139766517109613179
:103D5000710588F112966D917C91139766507109E7
:103D60006730710508F0A2CECC0CDD1CEE1CFF1CE8
:103D70004E5F5F4F2C5F3F4F4332510509F08DCEB0
:103D80009F012A5B3F4FD9012D913C912A50310967
:103D90002930310508F08ACE20E130E0309311045B
:103DA00020931004C0920C04D0920D04E0920E04F3
:103DB000F0920F0411C1D701C601880F991FAA1FE5
:103DC000BB1F6C017D016894C0F8D2CF84819581BE
:103DD00089549109C39708F07ECE9F012A5F3F4F17
:103DE000BF016A577F4FC12CD12C7601D9014D916B
:103DF0005C914950510949305105B8F06CCE86812B
:103E000097810997099708F061CE109211041092DA
:103E100010048FEF9FEFDC0180930C0490930D044E
:103E2000A0930E04B0930F04DAC0D90112964D91FD
:103E30005C9113974651510941315105F0F4D70176
:103E4000C601880F991FAA1FBB1F6C017D016894D2
:103E5000C0F82C5F3F4F2617370741F620E230E0CD
:103E60003093110420931004C0920C04D0920D04DE
:103E7000E0920E04F0920F04B2C0D90112964D9157
:103E80005C911397465051094730510508F023CEF5
:103E9000CC0CDD1CEE1CFF1CDCCF848195810997C6
:103EA000099708F048CE868197818C974F9708F044
:103EB00042CE8085918589974D9708F03CCE9F0131
:103EC000265F3F4FC12CD12C760145E050E02BCE30
:103ED0009F0126573F4FD9012D913C912C5031091C
:103EE0002B30310508F027CE20E230E0309311046A
:103EF00020931004C0920C04D0920D04E0920E04A2
:103F0000F0920F0488E090E05ACDD90112966D919D
:103F10007C911397695071096930710508F00BCED7
:103F2000CC0CDD1CEE1CFF1CF6CD848195818254E7
:103F300091098E9708F00BCE8F01045C1F4F8DE125
:103F400090E040E050E01BCDD8012D913C912851EC
:103F500031092231310510F0CB0119CD440F551F25
:103F60000BCDD90112964D915C911397495151098E
:103F70004331510508F5D701C601880F991FAA1FC3
:103F8000BB1F6C017D016894C0F82C5F3F4F261762
:103F9000370709F0F3CD2EE030E030931104209381
:103FA0001004C0920C04D0920D04E0920E04F09222
:103FB0000F048FE090E003CDD90112964D915C91F2
:103FC0001397495051094930510508F0E0CDCC0C08
:103FD000DD1CEE1CFF1CD9CF86E090E0F0CC87E022
:103FE00090E0EDCC26960FB6F894DEBF0FBECDBFA5
:103FF000DF91CF911F910F91FF90EF90DF90CF90C5
:10400000BF90AF909F908F907F906F905F904F90F8
:104010003F902F900895789484B5826084BD84B5D4
:10402000816084BD85B5826085BD85B5816085BDB3
:1040300080916E00816080936E001092810080916B
:1040400081008260809381008091810081608093F3
:104050008100809180008160809380008091B10018
:1040600084608093B1008091B00081608093B00043
:1040700080917A00846080937A0080917A008260D7
:1040800080937A0080917A00816080937A00809199
:104090007A00806880937A001092C100E0913E041B
:1040A000F0913F0482E08083E0913A04F0913B0478
:1040B0001082E0913C04F0913D0483E380831092F0
:1040C0004604E0914204F091430486E08083E0914D
:1040D0004004F0914104808180618083E09140043C
:1040E000F0914104808188608083E0914004F091E8
:1040F0004104808180688083E0914004F091410414
:1041000080818F7D808388E08093BA008DED9AE076
:10411000909352028093510289EE9AE0909350025C
:1041200080934F021092B0011092AF011092AE0135
:104130001092AD0110924E0281E080934D021092D8
:104140004C0261E082E10E94720C61E083E10E9416
:10415000720C8091B9008E7F8093B9008091B90074
:104160008D7F8093B90088E48093B80085E48093C4
:10417000BC008BE991E190935402809353028DE748
:104180009FE09093560280935502549A5C9880E089
:1041900090E0FC01E954FE4F80830196893091053F
:1041A000C1F783E08093B3018FB78093B401F89493
:1041B00088EA91E69093B2018093B10190938700D1
:1041C000809386008091B4018FBF80918100887FA9
:1041D00080938100909181008091B301982B9093FE
:1041E000810029EF30E13093B6012093B50191E0D1
:1041F00090936F0090918100892B80938100809132
:10420000C001882329F00E948C001092C00102C0D6
:104210000E948C000E940F0CF2CFCF92DF92EF929F
:10422000FF92CF93DF93EC01072E000C880B990BC4
:104230000E944D246B017C0120E030E040E45FE30C
:104240000E94FD2420E030E048E452E40E94A323D1
:104250000E941524C617D707D4F020E030E040EACA
:104260005FE3C701B6010E94FD2420E030E048E48E
:1042700052E40E94A32320E030E040E85FE30E9484
:1042800032230E94152421E06C177D070CF420E0F6
:10429000822F90E0DF91CF91FF90EF90DF90CF9051
:1042A00008950F931F93CF93DF93EC01862F6883BC
:1042B00049832A8361E00E94A20C61E089810E9407
:1042C000A20C8A8161E070E023E0829FC00111248A
:1042D0000E946A259C838B8310E08A81181748F41A
:1042E00000E020E040E0612FCE010E94A2171F5F96
:1042F000F4CFDF91CF911F910F9108951092310467
:104300001092300488EE93E0A0E0B0E08093320495
:1043100090933304A0933404B093350428E231E041
:1043200030932F0420932E0425EC30E030933B048F
:1043300020933A0424EC30E030933D0420933C0475
:1043400020EC30E030933F0420933E0421EC30E039
:10435000309341042093400422EC30E03093430436
:104360002093420426EC30E030934504209344042B
:1043700010924704109248041092490410924A0483
:104380001092CE041092CD048093CF049093D00469
:10439000A093D104B093D2048AE391E09093CC042B
:1043A0008093CB0482E08093D8041092DA04E9EA87
:1043B000F5E080E28683379695E0E83EF907D1F78D
:1043C00008958F929F92AF92BF92CF92DF92EF9219
:1043D000FF920F931F93CF93DF93FC01C081D18194
:1043E0002091140430911504C217D3070CF04BC070
:1043F0009E01220F331FE0911204F0911304E20F8B
:10440000F31F80809180C170DD27F1E0CF272097D6
:1044100019F404E610E002C00CE91FEF7A015B0119
:104420006C01040F151FB801C4010E940D21892BD6
:1044300099F40E0D1F1DB801C4010E940D21892B96
:1044400071F4B8016E0D7F1DC4010E940D21892BEE
:10445000E9F023E030E005C021E030E002C022E0D6
:1044600030E0F501808191810196821793073CF03D
:10447000F50111821082F60180819181019691836C
:104480008083CE0105C081E090E002C08FEF9FEFF6
:10449000DF91CF911F910F91FF90EF90DF90CF9020
:1044A000BF90AF909F908F900895DB018F939F9363
:1044B0000E94C622BF91AF91A29F800D911DA39F24
:1044C000900DB29F900D11240895991B79E004C0BE
:1044D000991F961708F0961B881F7A95C9F7809543
:1044E000089597FB072E16F4009407D077FD09D0A6
:1044F0000E94082307FC05D03EF4909581959F4FBC
:104500000895709561957F4F0895A1E21A2EAA1B18
:10451000BB1BFD010DC0AA1FBB1FEE1FFF1FA21773
:10452000B307E407F50720F0A21BB30BE40BF50B70
:10453000661F771F881F991F1A9469F760957095F9
:10454000809590959B01AC01BD01CF010895052E8A
:1045500097FB1EF400940E94BE2257FD07D00E94D4
:10456000852207FC03D04EF40C94BE225095409552
:10457000309521953F4F4F4F5F4F0895909580950F
:10458000709561957F4F8F4F9F4F08950E94222312
:10459000A59F900DB49F900DA49F800D911D112497
:1045A00008950F93083090F0982F872F762F652F5E
:1045B000542F432F322F22270850F4CF220F331FBE
:1045C000441F551F661F771F881F991F0A95B2F752
:1045D0000F91089597FB10F8169400080F93083078
:1045E00098F00850232F342F452F562F672F782F00
:1045F000892F902DF4CF059497958795779567959A
:1046000057954795379527950A95AAF70F910895DD
:10461000AA1BBB1B51E107C0AA1FBB1FA617B707E8
:1046200010F0A61BB70B881F991F5A95A9F7809504
:104630009095BC01CD010895EE0FFF1F0590F491F8
:10464000E02D0994A29FB001B39FC001A39F700DFC
:10465000811D1124911DB29F700D811D1124911D8A
:1046600008955058BB27AA270E9449230C94C324BD
:104670000E94B52438F00E94BC2420F039F49F3FFA
:1046800019F426F40C94B2240EF4E095E7FB0C9494
:10469000AC24E92F0E94D42458F3BA176207730799
:1046A0008407950720F079F4A6F50C94F6240EF40F
:1046B000E0950B2EBA2FA02D0B01B90190010C0132
:1046C000CA01A0011124FF27591B99F0593F50F44A
:1046D000503E68F11A16F040A22F232F342F4427A2
:1046E000585FF3CF469537952795A795F04053959A
:1046F000C9F77EF41F16BA0B620B730B840BBAF06A
:104700009150A1F0FF0FBB1F661F771F881FC2F7D4
:104710000EC0BA0F621F731F841F48F487957795E8
:104720006795B795F7959E3F08F0B0CF9395880FA2
:1047300008F09927EE0F9795879508950E94882491
:1047400008F481E008950E94B7230C94C3240E94CA
:10475000BC2458F00E94B52440F029F45F3F29F0B2
:104760000C94AC2451110C94F7240C94B2240E94A4
:10477000D42468F39923B1F3552391F3951B550B7A
:10478000BB27AA2762177307840738F09F5F5F4F24
:10479000220F331F441FAA1FA9F335D00E2E3AF063
:1047A000E0E832D091505040E695001CCAF72BD07B
:1047B000FE2F29D0660F771F881FBB1F26173707CC
:1047C0004807AB07B0E809F0BB0B802DBF01FF27FE
:1047D00093585F4F3AF09E3F510578F00C94AC240B
:1047E0000C94F7245F3FE4F3983ED4F386957795D5
:1047F0006795B795F7959F5FC9F7880F911D9695B7
:10480000879597F90895E1E0660F771F881FBB1F12
:10481000621773078407BA0720F0621B730B840BBF
:10482000BA0BEE1F88F7E09508950E941C24689447
:10483000B1110C94F72408950E94DC2488F09F574E
:1048400098F0B92F9927B751B0F0E1F0660F771FB4
:10485000881F991F1AF0BA95C9F714C0B13091F0AA
:104860000E94F624B1E008950C94F624672F782F67
:104870008827B85F39F0B93FCCF38695779567956F
:10488000B395D9F73EF490958095709561957F4FDB
:104890008F4F9F4F0895E89409C097FB3EF4909581
:1048A0008095709561957F4F8F4F9F4F9923A9F009
:1048B000F92F96E9BB279395F69587957795679598
:1048C000B795F111F8CFFAF4BB0F11F460FF1BC0DC
:1048D0006F5F7F4F8F4F9F4F16C0882311F096E96F
:1048E00011C0772321F09EE8872F762F05C066231D
:1048F00071F096E8862F70E060E02AF09A95660FD6
:10490000771F881FDAF7880F9695879597F908958E
:10491000990F0008550FAA0BE0E8FEEF16161706D0
:10492000E807F907C0F012161306E407F50798F038
:10493000621B730B840B950B39F40A2661F0232B51
:10494000242B252B21F408950A2609F4A140A695CD
:104950008FEF811D811D089597F99F6780E870E0B2
:1049600060E008959FEF80EC089500240A941616E5
:10497000170618060906089500240A94121613064D
:10498000140605060895092E0394000C11F48823DB
:1049900052F0BB0F40F4BF2B11F460FF04C06F5FF7
:1049A0007F4F8F4F9F4F089557FD9058440F551FCD
:1049B00059F05F3F71F04795880F97FB991F61F0A1
:1049C0009F3F79F087950895121613061406551F18
:1049D000F2CF4695F1DF08C0161617061806991F84
:1049E000F1CF86957105610508940895E894BB2779
:1049F00066277727CB0197F908950E9410250C941C
:104A0000C3240E94B52438F00E94BC2420F09523D2
:104A100011F00C94AC240C94B22411240C94F724BF
:104A20000E94D42470F3959FC1F3950F50E0551F59
:104A3000629FF001729FBB27F00DB11D639FAA27F3
:104A4000F00DB11DAA1F649F6627B00DA11D661F42
:104A5000829F2227B00DA11D621F739FB00DA11D63
:104A6000621F839FA00D611D221F749F3327A00D1D
:104A7000611D231F849F600D211D822F762F6A2FB9
:104A800011249F5750409AF0F1F088234AF0EE0F1E
:104A9000FF1FBB1F661F771F881F91505040A9F74B
:104AA0009E3F510580F00C94AC240C94F7245F3F9A
:104AB000E4F3983ED4F3869577956795B795F79587
:104AC000E7959F5FC1F7FE2B880F911D96958795FF
:104AD00097F908950F931F93CF93DF93869F8001DB
:104AE000879F100D969F100D1124C8010E948625E6
:104AF000EC01009729F0A80160E070E00E94B82660
:104B0000CE01DF91CF911F910F910895CF93DF9345
:104B10008230910510F482E090E0E091EB05F09195
:104B2000EC0520E030E0C0E0D0E0309711F14081AA
:104B3000518148175907C0F04817590761F482811D
:104B40009381209719F09B838A832BC09093EC0567
:104B50008093EB0526C02115310519F04217530744
:104B600018F49A01BE01DF01EF010280F381E02D0C
:104B7000DCCF2115310509F1281B390B2430310513
:104B800090F412968D919C9113976115710521F007
:104B9000FB019383828304C09093EC058093EB0523
:104BA000FD01329644C0FD01E20FF31F8193919302
:104BB000225031092D933C933AC02091E905309160
:104BC000EA05232B41F42091020130910301309337
:104BD000EA052093E905209100013091010121159A
:104BE000310541F42DB73EB74091040150910501C4
:104BF000241B350BE091E905F091EA05E217F30774
:104C0000A0F42E1B3F0B2817390778F0AC014E5F3C
:104C10005F4F2417350748F04E0F5F1F5093EA058A
:104C20004093E9058193919302C0E0E0F0E0CF0169
:104C3000DF91CF9108950F931F93CF93DF93009748
:104C400009F48CC0FC013297138212820091EB05AB
:104C50001091EC050115110581F420813181820F3D
:104C6000931F2091E9053091EA052817390779F556
:104C7000F093EA05E093E90571C0D80140E050E007
:104C8000AE17BF0750F412962D913C911397AD01CA
:104C90002115310509F1D901F3CF9D01DA013383E3
:104CA000228360817181860F971F8217930769F4B1
:104CB000EC0128813981260F371F2E5F3F4F31834A
:104CC00020838A819B8193838283452B29F4F093EF
:104CD000EC05E093EB0542C01396FC93EE9312971C
:104CE000ED01499159919E01240F351FE217F307F9
:104CF00071F480819181840F951F029611969C9387
:104D00008E938281938113969C938E931297E0E009
:104D1000F0E0D80112968D919C911397009719F0AD
:104D2000F8018C01F6CF8D919C9198012E5F3F4F39
:104D3000820F931F2091E9053091EA052817390762
:104D400069F4309729F41092EC051092EB0502C03B
:104D5000138212821093EA050093E905DF91CF9147
:104D60001F910F91089581E090E0F8940C94BF2674
:104D7000DC0101C06D9341505040E0F70895F89474
:024D8000FFCF63
:104D82000000ED0520009F03C203E5033F065B4FD1
:104D9200666D7D077F6F777C395E797101000A004D
:104DA2006400E80300000000A60B130B3E0BED0BA2
:104DB2006F0B4D0B610B000000006C0F580F550F6D
:0C4DC200230C4C0F330C240C0D0A0000D5
:00000001FF
