:100000000C9462000C94F60E0C94CF0E0C948A00A3
:100010000C948A000C947F150C948A000C9468143C
:100020000C948A000C948A000C948A000C948A0028
:100030000C948A000C94F4130C948A000C948A009B
:100040000C94850E0C948A000C94430F0C941D0F95
:100050000C948A000C948A000C948A000C948A00F8
:100060000C94FD110C948A0000000000240027006D
:100070002A0000000000250028002B0000000000DE
:1000800023002600290004040404040404040202DA
:100090000202020203030303030301020408102007
:1000A0004080010204081020010204081020000012
:1000B0000008000201000003040700000000000027
:1000C0000000771F11241FBECFEFD8E0DEBFCDBFE9
:1000D00011E0A0E0B1E0E0E5F9E402C005900D9286
:1000E000AC35B107D9F724E0ACE5B1E001C01D9211
:1000F000AB37B207E1F710E0C2E6D0E004C02197C9
:10010000FE010E94F920C136D107C9F70E944F1D98
:100110000C94A6240C9400004F925F926F927F92F1
:100120008F929F92AF92BF92CF92DF92EF92FF9207
:100130000F931F93CF93DF9300D000D0CDB7DEB7DE
:100140008091D9019091DA01892B09F45AC00E945B
:10015000790E0E9428226B017C016091D50170917B
:10016000D6018091D7019091D8010E9428229B014D
:10017000AC01C701B6010E940E214B015C01409009
:100180000101509002016090030170900401C301CD
:10019000B2010E9428229B01AC01C501B4010E945A
:1001A000DA22181674F5A0913302B0913402A3013B
:1001B00092010E94A3200E942822A50194010E947E
:1001C00080210E94F9216093D1017093D201809324
:1001D000D3019093D4011092340210923302C701DC
:1001E000B6010E94F9216093D5017093D6018093E6
:1001F000D7019093D80181E090E090930102809321
:1002000000028091F6019091F701049799F4809192
:10021000F8019091F901892B09F493C00BC08091EA
:100220002C02823009F0A1C060912E0280912D0233
:100230000E94970D80916C0190916D01892B59F16D
:1002400080917604813039F52091750480916401A4
:1002500090916501213049F401968931910554F05E
:10026000109265011092640109C0019797FF02C0C6
:1002700088E190E0909365018093640180912C0265
:100280008093FD0181E08093FE0180916401809361
:10029000FF01109276048091660190916701892B8D
:1002A00011F40C94210B0E94790E009168011091B9
:1002B000690120916A0130916B01DC01CB01801B47
:1002C000910BA20BB30B813D9740A105B10510F432
:1002D0000C94210B20913102309132024EE1429F69
:1002E000C001439F900D112469E470E00E944E20EC
:1002F000E62F472F609362017093630181E0809342
:10030000FA01862F972F60E071E00E944E208093C3
:10031000FB012E2F342F37FF02C021503F4F309367
:10032000FC0110923202109231020E94790E609309
:1003300068017093690180936A0190936B010C943A
:10034000210B81E090E09093F9018093F801809176
:100350002C02813009F063CF80912C028093170228
:1003600080912D020E946E0DEAC280912C02833092
:10037000C1F480912D020E94030E9093D0018093CE
:10038000CF0120912C02209317029C0197FF02C0FD
:1003900021503F4F3093180260E071E00E944E20E0
:1003A00080C480912C02843009F05CC000912E0240
:1003B000E02EF12C10912D0261E0812F0E94C70DDB
:1003C000E114F10419F460E0812F32CF2FEFE2162F
:1003D000F10409F445C0E12FF0E0E255FF4FE4914C
:1003E000E330F9F048F4E130B9F0E230A1F584B53A
:1003F000806284BD08BD1ECFE730E9F0E83019F116
:10040000E43049F580918000806280938000F09212
:100410008B00E0928A000ECF84B5806884BD07BD52
:1004200009CF80918000806880938000F0928900DD
:10043000E0928800FFCE8091B00080688093B00089
:100440000093B300F7CE8091B00080628093B0003B
:100450000093B400EFCE30E8E316F1040CF4B3CF10
:1004600061E0B2CF80912C02853029F460912E0298
:1004700080912D020AC280912C02873009F060C061
:10048000F0902D020F2D10E01093CE010093CD01BE
:1004900061E08F2D0E94C70D60E08F2D0E94970DA7
:1004A00083E090E00197F1F761E08F2D0E94970DB6
:1004B0008FE090E00197F1F760E08F2D0E94970D9B
:1004C00060E08F2D0E94C70DF801E656FF4F649142
:1004D000F801EA57FF4FE491F0E0EE0FFF1FE458F8
:1004E000FF4F8591949108EF14E221E030E0462F10
:1004F0000E943F16611571058105910549F0DC01E7
:10050000CB010196A11DB11DBC01CD019F7003C09F
:1005100060E070E0CB012AE330E040E050E00E9470
:10052000842080912C0280931702BB2757FDBA9537
:10053000A52F942F832F80931802209319027ACE2F
:1005400080912C02883069F480912C0280931702EC
:1005500081E08093180283E08093190210921A02BE
:1005600069CE80912C02883209F05AC18091F40141
:100570009091F501892B09F45DCE80912E028111B5
:1005800004C080912D026BE013C080912E02813057
:1005900021F480912D0266E10BC080912E02823001
:1005A00021F080912E02833029F480912D0265E1A3
:1005B0000E94C81561E08091E9020E94970D6AEFE0
:1005C00070E080E090E00E943F0E0E94790E009162
:1005D000EC021091ED022091EE023091EF026017D3
:1005E00071078207930740F41092EC021092ED021B
:1005F0001092EE021092EF022091F002211114C02D
:100600000091EC021091ED022091EE023091EF0288
:10061000DC01CB01801B910BA20BB30B803D9740FB
:10062000A105B10508F480C01092F0020E94790E75
:100630006093EC027093ED028093EE029093EF02D0
:100640001092E7021092E6021092E5021092E40284
:100650001092E30261E08091E9020E94C70D60E020
:100660008091E9020E94970D64E170E080E090E0E3
:100670000E943F0EF89461E08091E9020E94970D7C
:100680008BE990E00197F1F760E08091E9020E9428
:10069000C70DF12C10E081E000E0C82ED12C809134
:1006A000E9020E946E0D8C159D0519F40F5F0F3F36
:1006B000B1F78091E9020E946E0D0F3FC1F0143036
:1006C00098F010FD11C0EF2DE695E695E695F0E067
:1006D000ED51FD4F9081990F90832091EB022017EF
:1006E00010F491609083F3941F5F1535A9F6789408
:1006F000F7E2FF15B0F42091E70230E04091E30209
:100700008091E40290E0840F911D4091E502840FF6
:10071000911D4091E602840F911D992728173907F2
:1007200019F000E010E025C08091EA028B3009F05A
:1007300009C16091E50270E080E090E00E9428220B
:100740006093F1027093F2028093F3029093F402AB
:100750006091E30270E080E090E00E9428226093C4
:10076000F5027093F6028093F7029093F80201EF7E
:1007700012E0F80160817181828193810E94970C5F
:10078000F80164817581868197810E94970CF80138
:1007900080810E94840CF80181810E94840CF80100
:1007A00082810E94840CF80183810E94840CF801EC
:1007B00084810E94840CF80185810E94840CF801D8
:1007C00086810E94840CF80187810E94840C8091AC
:1007D0002C028093020281E090E09093CC01809300
:1007E000CB01FC013197E00FF11F2081FC01EE5F8E
:1007F000FD4F208301968530910599F7FC013197D3
:10080000E00FF11F2081FC01EE5FFD4F2083019678
:100810008930910599F79093CC018093CB017AC0F0
:1008200080912C028233A1F560912E0240912D021D
:1008300080912D028F5F20912D0230E022503109EE
:1008400097E0929FF001939FF00D1124EF55FE4F1A
:10085000A82FB0E0B183A08350E05383428391E09E
:10086000611101C090E0948397E0929F8001939F73
:10087000100D11240F551E4FF8011682158261E0EC
:100880000E94C70D61E0F80182810E94C70DD2CCA1
:1008900080912C02833309F0DAC080912D0290E020
:1008A000029747E0489FF001499FF00D1124EF5552
:1008B000FE4F80819181892B09F0AAC0C8C0809128
:1008C0002C028A3009F0A3C58091F4019091F501C2
:1008D000019709F0AFCC80912C0280931702809190
:1008E000000290910102809318028091D1019091B1
:1008F000D201A091D301B091D40180931902492F64
:100900005A2F6B2F772740931A02CD01AA27BB27B6
:1009100080931B021092F5011092F4018BCC809110
:100920002C02853109F439C680912C02883109F0F6
:1009300081CC80912C02809317020E9484168093B0
:10094000180278CC8B3008F412CF8551823008F031
:100950000ECF1091E502612F6F7770E080E090E09C
:100960000E942A2220E030E040E853E40E94DF2287
:100970006B017C018091E602682F70E080E090E0DE
:100980000E942A229B01AC01C701B6010E940F21DF
:1009900020E030E040E251E40E94802117FD09C0D0
:1009A0006093F1027093F2028093F3029093F40249
:1009B0000BC0DC01CB01B0588093F1029093F2029E
:1009C000A093F302B093F4026091E30270E080E040
:1009D00090E00E94282220E030E040E853E40E94AA
:1009E000DF226B017C018091E402682F70E080E0DF
:1009F00090E00E942A229B01AC01C701B6010E942F
:100A00000F2120E030E040E251E40E948021A7CE97
:100A100090912E0220912D0230E022503109429F08
:100A2000F001439FF00D1124EF55FE4F81E091112D
:100A300001C080E0848347E0429FC001439F900D46
:100A400011248F559E4FFC016581768132C08091C3
:100A50002C02843389F580912D0290E0029727E0E3
:100A6000289FF001299FF00D1124EF55FE4F808142
:100A70009181892B09F180912E0220912D0230E085
:100A8000225031098B3008F08AE06FEF7FEF02C00F
:100A9000660F771F8A95E2F76095709547E0429F51
:100AA000C001439F900D11248F559E4FFC0176830A
:100AB00065830E942215BECB80912C02853381F480
:100AC00080912D0290E0029747E0489FF001499FF6
:100AD000F00D1124EF55FE4F80819181892BB9F4DF
:100AE00080912C02863309F08EC080912D0290E017
:100AF000029757E0589FF001599FF00D1124EF55D0
:100B0000FE4F80819181892B09F04FC07CC05091AC
:100B10002F0290912E0220912D0230E022503109B7
:100B2000429FF001439FF00D1124EF55FE4F992392
:100B3000D1F19B3008F09AE0915061E070E002C082
:100B4000660F771F9A95E2F7552379F087E0829F29
:100B5000D001839FB00D1124AF55BE4F15964D9116
:100B60005C911697642B752B10C06095709587E08B
:100B7000829FD001839FB00D1124AF55BE4F1596B3
:100B80004D915C9116976423752387E0829FD00175
:100B9000839FB00D1124AF55BE4F16967C936E9374
:100BA0001597CF0186CF91E0C7CF90912E0220916B
:100BB0002D0230E022503109529FB001539F700D39
:100BC0001124AB014F555E4F9923D9F09B3008F0AB
:100BD0009AE0915061E070E002C0660F771F9A952D
:100BE000E2F787E0829FF001839FF00D1124EF551B
:100BF000FE4F258136816227732776836583CA017C
:100C000058CF91E0E6CF80912C02873319F580917F
:100C10002D0290E0029747E0489FF001499FF00DB8
:100C20001124EF55FE4F80819181892B99F06091BD
:100C30002E0280912F0220912D0270E0782B30E05F
:100C400022503109429FC001439F900D11248F55BE
:100C50009E4F2FCF80912C02883331F580912D0249
:100C600090E0029727E0289FF001299FF00D1124C2
:100C7000EF55FE4F80819181892BB1F080912D023B
:100C800090E00297289FF001299FF00D1124EF5565
:100C9000FE4F9581868120912C022093170290931C
:100CA000180280931902C6CA80912C02863429F555
:100CB00090912D0280912D0200912D0210E00250A2
:100CC00011099801220F331F020F131F01571E4FE6
:100CD000F80180839F5F918360E00E94C70D60E010
:100CE000F80181810E94C70D60E0F80180810E94B7
:100CF000970D60E0F80181819BCA80912C028734B6
:100D000021F580912D0290E00297FC01EE0FFF1F6C
:100D10008E0F9F1FFC01E157FE4F80818823A9F0B1
:100D200020912E0280912D0290E00297283058F4F5
:100D3000285FFC01EE0FFF1F8E0F9F1FFC01E15784
:100D4000FE4F228377CA2FE0F4CF80912C028834A3
:100D500001F580912D0290E00297FC01EE0FFF1F3C
:100D60008E0F9F1FFC01E157FE4F8081882389F081
:100D700060912E0290912F0280912D0270E0792BCC
:100D800090E002979C01220F331F820F931F40E0D7
:100D900023C080912C02893421F580912D0290E0AE
:100DA0000297FC01EE0FFF1F8E0F9F1FFC01E15702
:100DB000FE4F80818823A9F060912E0290912F022E
:100DC00080912D0270E0792B90E002979C01220F18
:100DD000331F820F931F41E081579E4F0E94E01501
:100DE00029CA80912C028A34C9F480912D0290E0A6
:100DF0000297FC01EE0FFF1F8E0F9F1FFC01E157B2
:100E0000FE4F8081882351F0E0912F0280912D02C6
:100E1000EF70F0E0E05FFE4F808115C080912C0202
:100E20008B34F9F480912D0290E00297FC01EE0FD3
:100E3000FF1F8E0F9F1FFC01E157FE4F808188230B
:100E400081F080912F02898320912E0280912D02C2
:100E500090E00297AC01440F551F840F951F41E0AD
:100E6000BDC080912C028C3479F480912D0290E0E9
:100E70000297FC01EE0FFF1F8E0F9F1FFC01E15731
:100E8000FE4F8081811115C080912C028D3409F0B4
:100E900045C080912D0290E00297FC01EE0FFF1FEC
:100EA0008E0F9F1FFC01E157FE4F808181114EC0C4
:100EB00035C080912E0290912D022AE0622F0E946F
:100EC00042208F70E82FF0E0E05FFE4F8081898341
:100ED00080912E0290912D020E944220E92FF0E095
:100EE000E05FFE4F808180688A8380912F0290911D
:100EF0002D020E9442208F70E82FF0E0E05FFE4F4D
:100F000080818B8380912F0290912D020E9442203C
:100F1000E92FF0E0E05FFE4F80813CC080912C0221
:100F20008E34D1F580912D0290E00297FC01EE0FF6
:100F3000FF1F8E0F9F1FFC01E157FE4F808188230A
:100F400059F18FEF89838A838B8324C0D0902E023E
:100F5000E0902F02F4E0EF9E7001112400E010E019
:100F60000E151F0509F466C98D2D0E94030EBC01E4
:100F700020912D0230E022503109C901880F991FBC
:100F8000820F931F40E081579E4F0E94E0150F5F34
:100F90001F4FE6CF8C8317C080912C028F3431F520
:100FA00080912D0290E00297FC01EE0FFF1F8E0F43
:100FB0009F1FFC01E157FE4F80818823B9F0198201
:100FC0001A821B821C8280912D0290E002979C0164
:100FD000220F331F820F931F20E044E0BE016F5F9A
:100FE0007F4F81579E4F0E941B1424C980912C0271
:100FF0008A3569F480912D0280938C0180912E02B4
:1010000080938D0180912F0280938E0113C980916E
:101010002C028B35B1F420912E0240912D0260916B
:101020002D02E0912D024F5FF0E0329735E03E9FB8
:10103000C0013F9F900D112482599E4F0E944A1F6C
:10104000F9C880912C028C3509F047C020912E02FE
:1010500040912D0260912D02E0912D024F5FF0E052
:10106000329735E03E9FC0013F9F900D1124825979
:101070009E4F0E944A1F40912F0242FB442740F995
:10108000E42EE19410912F02169511701195809124
:101090002F028170F82EF194C12CD12C75E0B72E5F
:1010A00080912E0290E0C816D9060CF0C3C820919A
:1010B0002D0230E022503109B29EC001B39E900D46
:1010C00011240F2D212F4E2D6C2D82599E4F0E94E1
:1010D000BB1EFFEFCF1ADF0AE3CF80912C028D35C4
:1010E00009F056C080912E02811118C060912F0224
:1010F00020912D0230E02250310945E0429FC0018D
:10110000439F900D112400918E0120918D014091FB
:101110008C0182599E4F0E94BB1E8CC880912D026B
:1011200090E0029725E0289FF001299FF00D1124FF
:10113000E259FE4FC280E12CF12CD12C15E0EC14C9
:10114000FD040CF077C880912E02813039F4809133
:101150002F0290E0E816F90609F05DC280912E0298
:10116000823039F480912F0290E08E159F050CF0AB
:1011700052C280912E02833039F480912F0290E088
:10118000E816F9060CF047C22FEFE21AF20AD7CFA1
:1011900080912C028E3509F043C080912F0281117D
:1011A00003C081E080932F0280912D0290E002978E
:1011B00025E0289FF001299FF00D1124E259FE4FF0
:1011C000C280E0902E02F12CD12C15E0EC14FD042D
:1011D0000CF030C880912E0260912F02F701E81BBD
:1011E000F109CF0170E00E944E20892BA9F42091D3
:1011F0002D0230E022503109129FC001139F900D43
:10120000112400918E0120918D0140918C016E2D51
:1012100082599E4F0E94BB1EFFEFEF1AFF0AD6CFE6
:1012200080912C028F3509F073C080912D0290E0DF
:10123000029725E0289FF001299FF00D1124E25923
:10124000FE4FC28080912F02D12C811130C0E12C41
:10125000F12C15E0EC14FD0414F00C941A018091AB
:101260002E0290E020912D0230E022503109E81644
:10127000F90664F4129FC001139F900D1124009190
:101280008E0120918D0140918C0108C0129FC001F8
:10129000139F900D112400E020E040E06E2D825954
:1012A0009E4F0E94BB1E2FEFE21AF20AD3CF7601A7
:1012B00015E0E114F10411F40C941A0180912E024E
:1012C000F601E81BF10920912D0230E0225031098E
:1012D000EE16FF0664F0129FC001139F900D1124BB
:1012E00000918E0120918D0140918C0108C0129FC8
:1012F000C001139F900D112400E020E040E06E2D0E
:1013000082599E4F0E94BB1EF1E0EF1AF108D1CF27
:1013100080912C028E3061F580912D02809309011D
:1013200080910901823031F080910901833021F0F0
:101330008FEF03C080E001C081E041E050E06FE446
:1013400071E10E942B1E81E090E09093DA0180937E
:10135000D90110923402109233020E94790E6093E8
:10136000D5017093D6018093D7019093D80111C114
:1013700080912C028F30A1F480910901823031F0EC
:1013800080910901833021F08FEF03C080E001C01C
:1013900081E00E94191E1092DA011092D901F9C061
:1013A00080912C028930D9F420912D0280912E0257
:1013B00090E0982F8827820F911D092E000CAA0B10
:1013C000BB0B8093010190930201A0930301B093A2
:1013D000040110920102109200020C941A018091F3
:1013E0002C02863009F06BCA80912C028093170280
:1013F0008091010190910201A0910301B09104013B
:1014000080931802892F9A2FAB2FBB274ACC80914B
:101410002C028031C9F5109280008093810021E078
:1014200020935E018FB780935F01F89480E49FE181
:1014300090935D0180935C01909387008093860078
:1014400080915F018FBF80918100887F80938100B0
:101450009091810080915E01982B909381004BEBDD
:1014600053E1509361014093600120936F0090918C
:101470008100892B80938100789481E090E09093A3
:101480006D0180936C0185C080912C02813159F4EB
:1014900080916F008E7F80936F0010926D0110928B
:1014A0006C010C941A0180912C028231A1F51091EB
:1014B0002D0210930001123021F0133021F08FEF34
:1014C00003C080E001C081E060E00E94C70D1230DF
:1014D00021F0133021F08FEF03C080E001C081E0E4
:1014E00043E050E068E470E10E942B1E109232024B
:1014F000109231020E94790E609368017093690125
:1015000080936A0190936B0181E090E09093670172
:10151000809366013EC080912C028D3091F4109230
:1015200067011092660180910001823021F08330C2
:1015300021F08FEF03C080E001C081E00E94191EFE
:1015400028C080912C02863109F0E9C960912D02F2
:1015500070E080E090E04AE00E94430C80912D0210
:101560008093A303F89482E08093B0008093B1004D
:1015700094E69093B3001092B20080937000789438
:101580008093A2031092A6038091A30360E00E94BF
:10159000C70D10922C020C941A010E9484162091FF
:1015A000D302892B81F180912C0280931702209322
:1015B00018029091D5028091D602909319028093DF
:1015C0001A028091D7029091D802A091D902B091CD
:1015D000DA0280931B02492F5A2F6B2F77274093F3
:1015E0001C02AD016627772740931D028B2F992798
:1015F000AA27BB2780931E0282E08093A203109249
:10160000A6030C941A0180912C0280931702209358
:1016100018020C941A0120912D0230E02250310959
:10162000129FC001139F900D112400918E012091F3
:101630008D0140918C016E2D82599E4F0E94BB1EE0
:10164000A3CD0F900F900F900F90DF91CF911F912E
:101650000F91FF90EF90DF90CF90BF90AF909F9051
:101660008F907F906F905F904F900895833081F0BE
:1016700028F4813099F08230A1F008958730A9F0E4
:101680008830B9F08430D1F4809180008F7D03C020
:10169000809180008F7780938000089584B58F7744
:1016A00002C084B58F7D84BD08958091B0008F778E
:1016B00003C08091B0008F7D8093B000089508959D
:1016C000CF92DF92EF92FF920F931F93CF93DF930E
:1016D0006C017A018B01C0E0D0E0CE15DF0589F006
:1016E000D8016D918D01D601ED91FC910190F081B1
:1016F000E02DC6010995892B11F47E0102C02196C7
:10170000ECCFC701DF91CF911F910F91FF90EF9028
:10171000DF90CF900895FC01538D448D252F30E04C
:10172000842F90E0821B930B541710F0CF960895EE
:1017300001970895FC01918D828D981761F0828D3B
:10174000DF01A80FB11D5D968C91928D9F5F9F73F5
:10175000928F90E008958FEF9FEF0895FC01918D97
:10176000828D981731F0828DE80FF11D858D90E004
:1017700008958FEF9FEF0895009769F0FC010190A5
:101780000020E9F73197AF01481B590BBC0189EFE5
:1017900092E00C94600B80E090E008950E949A24FF
:1017A00089EF92E00E94750F21E0892B09F420E077
:1017B000822F0895EF92FF920F931F93CF93DF93A1
:1017C000EC0181E0888F9B8D8C8D981305C0E88992
:1017D000F989808185FD24C0F62E0B8D10E00F5F06
:1017E0001F4F0F731127E02E8C8DE8120CC00FB61F
:1017F00007FCFACFE889F989808185FFF5CFCE0112
:101800000E94DC11F1CF8B8DFE01E80FF11DE35A30
:10181000FF4FF0820B8FEA89FB898081806207C0CD
:10182000EE89FF896083E889F989808180648083FB
:1018300081E090E0DF91CF911F910F91FF90EF90A9
:101840000895CF93DF93EC01888D8823C9F0EA894E
:10185000FB89808185FD05C0A889B9898C9186FDA9
:101860000FC00FB607FCF5CF808185FFF2CFA889A6
:10187000B9898C9185FFEDCFCE010E94DC11E7CFB5
:10188000DF91CF9108958F929F92AF92BF920F9365
:101890001F93CF93DF93CDB7DEB7A1970FB6F89420
:1018A000DEBF0FBECDBF19A2423008F44AE08E0160
:1018B0000F5D1F4F842E912CA12CB12CA5019401FA
:1018C0000E946220E62FB901CA0101501109EA30D5
:1018D00014F4E05D01C0E95CD801EC93232B242BC8
:1018E000252B61F7C8010E94BC0BA1960FB6F89496
:1018F000DEBF0FBECDBFDF91CF911F910F91BF9083
:10190000AF909F908F900895CF93DF93682F70E0F2
:1019100080E090E04AE00E94430CEC018CE491E00E
:101920000E94BC0B8C0F9D1FDF91CF9108954F92A9
:101930005F926F927F928F929F92AF92BF92CF925F
:10194000DF92EF92FF926B017C019B01AC010E9440
:101950004C23882319F08FE491E01AC04601570107
:10196000E894B7F82FEF3FEF4FE75FE7C501B40109
:101970000E944C23811110C02FEF3FEF4FE75FE72C
:10198000C501B4010E947B21181634F483E591E06F
:101990000E94BC0B7C018FC02FEF3FEF4FE75FE44D
:1019A000C701B6010E94DA2218161CF487E591E0FF
:1019B000EFCF2FEF3FEF4FE75FECC701B6010E947B
:1019C0007B2187FDF3CF20E030E0A901C701B601FC
:1019D0000E947B2187FF11C0E091F902F091FA0289
:1019E0000190F081E02D6DE289EF92E009955C01B4
:1019F000F7FAF094F7F8F09402C0A12CB12C2AE089
:101A000037ED43EA5BE3C701B6010E940F212B01CA
:101A10003C010E94F9216B017C010E9428229B015C
:101A2000AC01C301B2010E940E212B013C014AE02E
:101A3000C701B6010E94430C7C01EA0CFB1CE0913B
:101A4000F902F091FA020190F081E02D6EE289EF47
:101A500092E00995E80EF91E20E030E040E251E402
:101A6000C301B2010E94DF222B013C010E94F92137
:101A70004B01A12CB12C4AE0C501B4010E94430CDA
:101A8000E80EF91EC501B4010E9428229B01AC0199
:101A9000C301B2010E940E2120E030E040E251E497
:101AA0000E94DF220E94F92180E090E04AE00E943B
:101AB000430CE80EF91E8CE491E00E94BC0B8E0DE5
:101AC0009F1DFF90EF90DF90CF90BF90AF909F90C1
:101AD0008F907F906F905F904F900895CF93DF939A
:101AE000282F30E0F901E255FF4F8491F901E656C5
:101AF000FF4FD491F901EA57FF4FC491CC2391F0E5
:101B000081110E94360BEC2FF0E0EE0FFF1FE4581E
:101B1000FF4FA591B491EC91ED2381E090E021F489
:101B200080E002C080E090E0DF91CF9108951F93A4
:101B3000CF93DF93282F30E0F901E255FF4F8491D6
:101B4000F901E656FF4FD491F901EA57FF4FC491CE
:101B5000CC23C9F0162F81110E94360BEC2FF0E038
:101B6000EE0FFF1FEE58FF4FA591B4918FB7F89479
:101B7000111105C09C91ED2FE095E92302C0EC9175
:101B8000ED2BEC938FBFDF91CF911F910895CF93F1
:101B9000DF9390E0FC01E656FF4F2491FC01EA57E9
:101BA000FF4F8491882361F190E0880F991FFC0119
:101BB000E859FF4FC591D491FC01EE58FF4FA59114
:101BC000B491611109C09FB7F89488812095822350
:101BD0008883EC912E230BC0623061F49FB7F89498
:101BE0003881822F809583238883EC912E2B2C9330
:101BF0009FBF06C08FB7F894E8812E2B28838FBF34
:101C0000DF91CF9108958E3008F08E5087708064F8
:101C100080937C0080917A00806480937A00809128
:101C20007A0086FDFCCF809178002091790090E0C9
:101C3000922B08953FB7F8948091F0019091F101B3
:101C4000A091F201B091F30126B5A89B05C02F3FEA
:101C500019F00196A11DB11D3FBFBA2FA92F982FD2
:101C60008827820F911DA11DB11DBC01CD0142E04D
:101C7000660F771F881F991F4A95D1F708958F9295
:101C80009F92AF92BF92CF92DF92EF92FF926B0141
:101C90007C010E941A0E4B015C01C114D104E104C5
:101CA000F104F1F00E941A0EDC01CB0188199909A8
:101CB000AA09BB09883E9340A105B10570F321E054
:101CC000C21AD108E108F10888EE880E83E0981E58
:101CD000A11CB11CC114D104E104F10419F7DDCF3A
:101CE000FF90EF90DF90CF90BF90AF909F908F903C
:101CF00008952FB7F8946091EC017091ED018091F7
:101D0000EE019091EF012FBF08951F920F920FB631
:101D10000F9211242F933F938F939F93AF93BF9371
:101D20008091EC019091ED01A091EE01B091EF0155
:101D30003091EB0123E0230F2D3720F40196A11DF4
:101D4000B11D05C026E8230F0296A11DB11D2093E9
:101D5000EB018093EC019093ED01A093EE01B09321
:101D6000EF018091F0019091F101A091F201B09109
:101D7000F3010196A11DB11D8093F0019093F10133
:101D8000A093F201B093F301BF91AF919F918F9116
:101D90003F912F910F900FBE0F901F9018951F929B
:101DA0000F920FB60F9211242F933F934F935F938F
:101DB0006F937F938F939F93AF93BF93EF93FF9313
:101DC000E0910701F09108010995FF91EF91BF9112
:101DD000AF919F918F917F916F915F914F913F91C3
:101DE0002F910F900FBE0F901F9018951F920F927A
:101DF0000FB60F9211242F933F934F935F936F93DE
:101E00007F938F939F93AF93BF93EF93FF93E09153
:101E10000501F09106010995FF91EF91BF91AF91F6
:101E20009F918F917F916F915F914F913F912F91F2
:101E30000F900FBE0F901F9018951F920F920FB624
:101E40000F9211242F933F934F935F936F937F9340
:101E50008F939F93AF93BF93EF93FF9389EF92E09C
:101E60000E94DC11FF91EF91BF91AF919F918F91F3
:101E70007F916F915F914F913F912F910F900FBE86
:101E80000F901F9018951F920F920FB60F9211246A
:101E90002F938F939F93EF93FF93E0910903F0911A
:101EA0000A038081E0910F03F091100382FD12C0BC
:101EB0009081809112038F5F8F732091130382179B
:101EC00051F0E0911203F0E0E750FD4F958F8093C1
:101ED000120301C08081FF91EF919F918F912F910B
:101EE0000F900FBE0F901F901895FC01918D228DC1
:101EF000892F90E0805C9F4F821B91098F739927F7
:101F0000089580E090E0892B29F00E94D00B811188
:101F10000C940000089585ED8093BC008091BC0076
:101F200084FDFCCF1092DD01089540918702262F99
:101F300030E0240F311D21323105DCF42091DD0128
:101F40002430C9F4FC0180E090E0861758F4309109
:101F500087022191DC01A959BD4FA30FB11D2C931C
:101F60000196F3CF80918702680F6093870280E02B
:101F7000089581E0089582E00895E091E801F091EC
:101F8000E901309729F01092DF011092DE010994E7
:101F90000895CF93DF93AC01E091E601F091E70162
:101FA0003097F1F09091E1018091E0019817C0F035
:101FB00090E0292F30E02617370754F4D901A95BA8
:101FC000BD4FEA01C20FD31F88818C939F5FF1CF71
:101FD0001092E1016093E001CB01DF91CF91099470
:101FE000DF91CF9108950895E091E1018091E001A2
:101FF000E81730F4F0E0E95BFD4F808190E0089550
:102000008FEF9FEF08959091E1018091E001981783
:1020100050F4E92FF0E0E95BFD4F208130E09F5F55
:102020009093E10102C02FEF3FEFC9010895809125
:10203000E00190E02091E101821B91090895CF9386
:10204000DF9300D0CDB7DEB7CB01642F49835A832D
:102050000E94950F4981842F5A81952F0F900F90E0
:10206000DF91CF910895CF93DF931F92CDB7DEB765
:10207000698361E0CE0101960E94950F81E090E0B6
:102080000F90DF91CF910895089580E090E008953A
:1020900080913102909132020196909332028093A6
:1020A000310208958091EA0181119AC080912C0239
:1020B000813041F442E050E067E172E086E993E06C
:1020C0000E941F1080912C02833009F48EC08091F1
:1020D0002C02873009F489C080912C02883309F4DE
:1020E00084C080912C02883009F488C080912C0231
:1020F000843109F483C080912C028E3141F449E08F
:1021000050E067E172E086E993E00E941F10809141
:102110002C02883241F449E050E062E072E086E946
:1021200093E00E941F1080912C02853151F448E009
:1021300050E067E172E086E993E00E941F10109280
:10214000170280912C02883141F442E050E067E1AF
:1021500072E086E993E00E941F1080912C028A3081
:1021600071F445E050E067E172E086E993E00E9497
:102170001F10109201021092000210922C02809106
:102180002C02863051F443E050E067E172E086E9CA
:1021900093E00E941F1010922C0280912C028B3031
:1021A00071F443E050E06DEF71E086E993E00E9446
:1021B0001F101092FE011092FD0110922C028091CE
:1021C0002C028C3021F543E050E06AEF71E086E9A3
:1021D00093E00E941F101092FA0110922C020895B1
:1021E00067E186E993E00C94331043E050E067E147
:1021F00072E086E993E00E941F1073CF44E050E044
:1022000067E172E086E993E00E941F1074CF0895A1
:102210000F931F93CF93DF938091EA0181112FC019
:1022200001E010E08091E0012091E101821719F1B5
:1022300090E0821B9109049761F41092F9011092C9
:10224000F8011092F7011092F6011093F501009336
:10225000F401C091F601D091F701CE01019690935F
:10226000F7018093F60186E993E00E940310C45DB4
:10227000DD4F8883D7CF81E08093EA010BC0909136
:10228000E0018091E101981729F086E993E00E942E
:102290000310F5CFDF91CF911F910F9108950F9308
:1022A0001F930E941A0E609343027093440280931E
:1022B000450290934602809109010E946E0D909311
:1022C000420280934102892B89F0809143029091D0
:1022D0004402A0914502B091460280933D02909342
:1022E0003E02A0933F02B093400210C0809143028F
:1022F00090914402A0914502B09146028093390228
:1023000090933A02A0933B02B0933C0240913D026D
:1023100050913E0260913F027091400280913902DB
:1023200090913A02A0913B02B0913C02841795072C
:10233000A607B707F0F580913D0290913E02A0916B
:102340003F02B09140020091390210913A0220916F
:102350003B0230913C02BC01CD01601B710B820B32
:10236000930B28EE33E040E050E00E94622020937F
:102370003502309336024093370250933802209151
:102380003302309134028091350290913602A0914F
:102390003702B0913802820F931F909334028093DA
:1023A000330210923D0210923E0210923F021092B0
:1023B00040021F910F910895FC01848DDF01A80F49
:1023C000B11DA35ABF4F2C91848D90E001968F735D
:1023D0009927848FA689B7892C93A089B1898C917C
:1023E00080648C93938D848D981306C00288F38942
:1023F000E02D80818F7D808308951F920F920FB60C
:102400000F9211242F933F934F935F936F937F937A
:102410008F939F93AF93BF93EF93FF938091B900F6
:10242000887F803609F49CC068F5883209F45BC067
:1024300090F4803109F454C038F4882309F4F6C0CC
:10244000883009F44DC0F6C0883109F44CC08032A0
:1024500009F45DC0EFC0803409F468C048F48033EB
:1024600009F455C0883309F0E5C08093AA02D8C0AA
:10247000803509F44FC0883509F45DC0883409F00F
:10248000D9C0D6C0883909F4C7C0A8F4883709F480
:1024900067C038F4883609F463C0803709F460C037
:1024A000C9C0883809F4B8C0803909F45FC08038E1
:1024B00009F0C0C05BC0803B09F486C038F4803AA4
:1024C00009F466C0883A09F47FC0B4C0803C09F4BE
:1024D000A7C0883C09F4A4C0883B09F48AC0AAC0FC
:1024E0008091CD0210C09091CC028091CB029817C0
:1024F00070F5E091CC0281E08E0F8093CC02F0E089
:10250000E555FD4F80818093BB0085EC86C08093AC
:10251000AA028EC0E091CC0281E08E0F8093CC02A3
:102520008091BB00F0E0E555FD4F80839091CC0297
:102530008091CB026EC0E091CC0281E08E0F80933F
:10254000CC028091BB00F0E0E555FD4F8083809187
:10255000DC0181116DC081E08093DB0184EA61C000
:1025600083E08093DD011092A902CFCF8091A90270
:10257000803208F051C0E091A90281E08E0F809373
:10258000A9028091BB00F0E0E757FD4F8083BDCFEB
:1025900085EC8093BC001092DD018091A90280320D
:1025A00030F4E091A902F0E0E757FD4F108260910E
:1025B000A90270E0E091E201F091E30189E892E084
:1025C00009951092A90236C084E08093DD01109233
:1025D000880210928702E091E401F091E5010995EB
:1025E00080918702811105C081E08093870210925B
:1025F0006702E091880281E08E0F80938802F0E00C
:10260000E959FD4F80818093BB00909188028091B1
:102610008702981708F479CF85E88093BC000AC038
:1026200085EC8093BC001092DD0104C01092AA02D8
:102630000E948B0FFF91EF91BF91AF919F918F916E
:102640007F916F915F914F913F912F910F900FBEAE
:102650000F901F9018950F931F93CF93DF938C01CA
:1026600061E0FC0181810E94C70DC3ECD0E0CE0186
:102670000197F1F760E0F80180810E94C70DCE015B
:102680000197F1F760E0F80181810E94C70D219761
:10269000F1F7DF91CF911F910F91089561E0FC0157
:1026A00081810E94C70D83EC90E00197F1F70895B6
:1026B000CF92DF92EF92FF920F931F93CF93DF930E
:1026C000EC01E62E88E0F82E93ECC92ED12C61E0C7
:1026D00088810E94C70DC6010197F1F7E0FE02C094
:1026E00060E001C061E089810E94C70D03EC10E049
:1026F000C6010197F1F760E088810E94C70DC6010D
:102700000197F1F7E694FA94F110E1CF61E0888146
:102710000E94C70D60E089810E94C70DC801019722
:10272000F1F760E088810E94C70DC8010197F1F7B9
:1027300089810E946E0DF82E811104C061E08981AB
:102740000E94C70D03EC10E0C8010197F1F761E0AA
:1027500088810E94C70DF8013197F1F781E0F110EF
:1027600001C080E0DF91CF911F910F91FF90EF901A
:10277000DF90CF900895CF93DF9382E00E946E0D9B
:10278000EC0183E00E946E0D8C239D23019719F4C8
:1027900081E08093D202DF91CF910895EF92FF9272
:1027A0000F931F93CF937C018B01C0E1612F661FB4
:1027B0006627661FF70182810E94970DF7018081CD
:1027C0000E946E0D61E0892B09F060E0F7018081C5
:1027D0000E94970D000F111FC15041F7CF911F911B
:1027E0000F91FF90EF9008951F920F920FB60F92E6
:1027F00011242F933F934F935F936F937F938F9306
:102800009F93AF93BF93EF93FF93E0916001F0919B
:1028100061010995FF91EF91BF91AF919F918F91C8
:102820007F916F915F914F913F912F910F900FBECC
:102830000F901F901895AF92BF92DF92EF92FF9288
:102840000F931F93CF93DF9300D0CDB7DEB75C011A
:10285000F62EE42E29837A830E944E1360E4C5018C
:102860000E945813C5010E942B13C5010E944E13EC
:102870002981237060EC620FC5010E945813DF2C80
:102880000F2D7A81172F802F8D198E1538F4F801AE
:1028900061918F01C5010E945813F5CFC5010E94B7
:1028A0002B13C5010E944E13F50162816058C501CA
:1028B0000E945813C5010F900F90DF91CF911F9187
:1028C0000F91FF90EF90DF90BF90AF900C942B137F
:1028D0001F920F920FB60F9211242F933F934F9395
:1028E0005F936F937F938F939F93AF93BF93EF9378
:1028F000FF938091A3030E946E0D2091A703309156
:10290000A8032F5F3F4F3093A8032093A703909114
:10291000A603953618F096E09093A2039091A20337
:102920009430C9F128F4923069F09330D1F05EC050
:10293000953009F451C0963009F058C091E0909359
:10294000730451C0811152C02091A7033091A80394
:102950002436310508F442C0109273041092A60385
:102960001CC0813009F042C0E091A60391E09E0FA7
:102970009093A603F0E02091A7033091A803EE0FF7
:10298000FF1FEE55FC4F308727831092A80310924B
:10299000A70394E029C0811117C0E091A60391E03C
:1029A0009E0F9093A603F0E02091A7033091A80317
:1029B000EE0FFF1FEE55FC4F308727831092A803C0
:1029C0001092A70393E010C02091A7033091A803B1
:1029D0002536310558F007C0811108C01092A803B0
:1029E0001092A70303C095E09093A2039091A503D2
:1029F0009923B9F081110AC08091A403882321F0A2
:102A00008091A40361E009C02D9A0BC08091A403BA
:102A1000882331F08091A40360E00E94970D01C0EB
:102A20002D98FF91EF91BF91AF919F918F917F91E1
:102A30006F915F914F913F912F910F900FBE0F902B
:102A40001F901895EF92FF920F931F93CF93DF93F0
:102A5000EC017B01CB0193709E838D8360E070E07D
:102A6000CE010E94CE1300E010E08C81882369F033
:102A7000C701002E02C0880F991F0A94E2F7BC011B
:102A80006627727091FF0FC00CC0C701002E02C0F4
:102A9000969587950A94E2F7BC016170772780FFCD
:102AA00002C06FEF70E0CE010E94CE130F5F1F4F88
:102AB0000A301105D1F660E070E0CE010E94CE131D
:102AC00060E070E0CE010E94CE1360E08A810E9437
:102AD000970D83E290E00197F1F714E061E08A81BD
:102AE0000E94970D60E08A810E94970D1150B1F706
:102AF000DF91CF911F910F91FF90EF9008951F925A
:102B00000F920FB60F9211240F931F932F933F93A1
:102B10004F935F936F937F938F939F93AF93BF93E5
:102B2000CF93EF93FF93C091D202C130E9F482E0DA
:102B30000E946E0D8C0183E00E946E0D801791073C
:102B40001CF4C09375040CC082E00E946E0D8C01D1
:102B500083E00E946E0D0817190734F41092750473
:102B6000C09376041092D202FF91EF91CF91BF9162
:102B7000AF919F918F917F916F915F914F913F9115
:102B80002F911F910F910F900FBE0F901F901895CE
:102B9000CF93DF93C3EED2E08E836F8396E0988766
:102BA00091E09D8760E00E94C70D61E08E810E94E8
:102BB000970D19861A861B861C86DF91CF91089582
:102BC0007F928F929F92AF92BF92CF92DF92EF92BD
:102BD000FF920F931F93CF93DF9300D000D0CDB718
:102BE000DEB77C019B01942E08E211E0FE013196D4
:102BF0007724739440E05F018FE3882ED801DE9044
:102C0000CE908D01C901B6010E944E20CB010097E4
:102C100051F4911004C0772011F0433011F48082F8
:102C200013C0108211C0A62FAF70B0E0A05FBE4FDE
:102C30005C9150838C9DB0018D9D700D9C9D700D9D
:102C40001124261B370B712C4F5F31964430B1F69F
:102C500020E0B501C7010E941B140F900F900F9048
:102C60000F90DF91CF911F910F91FF90EF90DF9028
:102C7000CF90BF90AF909F908F907F900895CF920C
:102C8000DF92EF92FF920F931F93E82FF92F05C069
:102C9000015011092109310961F19081962394179E
:102CA000B9F305C0015011092109310911F19081D1
:102CB00096239413F7CFC12CD12CE12CF12C0AC010
:102CC0008FEFC81AD80AE80AF80A0C151D052E0558
:102CD0003F0579F080818623841791F36C2D7D2D3B
:102CE0008E2D9F2D1F910F91FF90EF90DF90CF9031
:102CF000089560E070E080E090E01F910F91FF90F8
:102D0000EF90DF90CF9008952F923F924F925F9275
:102D10006F927F928F929F92AF92BF92CF92DF92EB
:102D2000EF92FF920F931F93CF93DF9300D000D0C9
:102D300000D0CDB7DEB789EA93E09093DE028093AE
:102D4000DD028091A60390E09093E0028093DF0281
:102D50008091730490E09093E2028093E10280916D
:102D6000A203853009F07BC38091AB039091AC0343
:102D7000885891098D35910588F48091A603843097
:102D800041F48091AD039091AE038097479708F48A
:102D900001C28091A603843408F0E3C18091A603A8
:102DA0008A3108F454C08091A9039091AA03843F0A
:102DB000914080F41092DC021092DB028FEF9FEFC3
:102DC000DC018093D7029093D802A093D902B093EC
:102DD000DA025BC08091AB039091AC0385974B976F
:102DE000B0F5EFEAF3E082E090E040E050E0BA01B5
:102DF0008C010F5F1F4F2091A60330E002171307CD
:102E00006CF49F0122503109D9012D913C9127503A
:102E100031092730310508F4F5C1C80101979595AE
:102E200087959093DC028093DB020C972CF4109230
:102E3000DC021092DB020BC04093D7025093D80201
:102E40006093D9027093DA0284E090E0FCC2809132
:102E5000A6038A3108F44DC08091A9039091AA037A
:102E60008032934008F4A6CF8091AB039091AC03DD
:102E7000C697869708F4E2C13CC04093D7025093AE
:102E8000D8026093D9027093DA028BE090E0DBC243
:102E900020813181255231092B31310508F0DEC105
:102EA000440F551F661F771F4160029634968C01B0
:102EB0000F5F1F4F2091A60330E00217130764F441
:102EC0009F0122503109D9012D913C912C5031099B
:102ED0002B303105E8F2C8010197959587959093BD
:102EE000DC028093DB020C9744F61092DC02109215
:102EF000DB028091A603823208F44CC08091AB03C0
:102F00009091AC030697079708F044C0EFEAF3E00E
:102F100082E090E040E050E0BA018C010F5F1F4F6B
:102F20002091A60330E002171307DCF4DF011297AB
:102F30002D913C9111972E5131092731310508F01F
:102F40009AC1440F551F661F771F41602081318150
:102F50003496235031092530310510F40296DDCF27
:102F6000C8010197959587959093DC028093DB02C9
:102F700040972CF41092DC021092DB020BC04093BD
:102F8000D7025093D8026093D9027093DA028CE092
:102F900090E059C21C821B8281E090E09A83898371
:102FA0008091A6038D3008F46BC049E753E0BE0161
:102FB0006D5F7F4FCE0101960E94BE1F892B09F0E5
:102FC0005FC049E753E0BE016D5F7F4FCE010196C0
:102FD0000E94BE1F019709F053C049E753E0BE01AC
:102FE0006D5F7F4FCE0101960E94BE1F892B09F0B5
:102FF00047C0C12CD12C760100E010E08091A603DF
:1030000090E029813A81281739075CF549E753E0B8
:10301000BE016D5F7F4FCE0101960E94BE1F5C0115
:1030200049E753E0BE016D5F7F4FCE0101960E94DC
:10303000BE1FB1E0AB16B10449F4892B09F5CC0CE5
:10304000DD1CEE1CFF1C6894C0F808C0AB28C1F45E
:103050000197B1F4CC0CDD1CEE1CFF1C0F5F1F4F61
:10306000CDCF1093DC020093DB02C092D702D09246
:10307000D802E092D902F092DA0281E090E0E3C156
:103080001C821B8281E090E09A8389838091DF0219
:103090009091E002181619060CF058C0E091DD027C
:1030A000F091DE0282E090E09A83898382819381AD
:1030B00089974E9708F04AC083E090E09A8389830D
:1030C000848195810B970A9708F040C04CEB51E042
:1030D000BE016D5F7F4FCE0101960E94BE1F892BFE
:1030E000A9F54CEB51E0BE016D5F7F4FCE0101961B
:1030F0000E94BE1F019751F5C12CD12C760100E032
:1031000010E029813A818091DF029091E002281736
:1031100039070CF0F3C04CEB51E0BE016D5F7F4FFF
:10312000CE0101960E94BE1F4C010330110509F02B
:10313000AFC04CEB51E0BE016D5F7F4FCE010196F9
:103140000E94BE1F8816990609F4A2C0E091DD0214
:10315000F091DE0282819381C697869708F4DDC0E4
:103160008CC18091AD039091AE03825491098E97EA
:1031700008F014CE20E030E080E090E0DC01F901BE
:10318000E155FC4F40815181495051094930510569
:1031900088F004CE8091AF039091B003099709970E
:1031A00008F0F7CD1092DC021092DB028FEF9FEF58
:1031B000DC0158C1F901EF54FC4F40815181475166
:1031C00051094231510588F4880F991FAA1FBB1F6E
:1031D00081602C5F3F4F2038310589F620E230E0D6
:1031E0003093DC022093DB023DC140815181465087
:1031F00051094730510508F0D1CD880F991FAA1FFA
:10320000BB1FE7CF20813181235131092F30310598
:1032100040F4440F551F661F771F41600296349695
:10322000E7CD208131812A5031092930310508F05C
:103230000ECE440F551F661F771FF0CF8091AD0350
:103240009091AE03C697869708F053CEE1EBF3E07A
:1032500083E090E040E050E0BA0129CE2081318146
:103260002C5031092A30310508F043CE440F551F48
:10327000661F771F1ACE2D913C912C5031092B30AF
:10328000310508F087CE440F551F661F771F5ECEAD
:103290004CEB51E0BE016D5F7F4FCE0101960E9465
:1032A000BE1F5C010330110569F44CEB51E0BE0117
:1032B0006D5F7F4FCE0101960E94BE1FA816B90612
:1032C00009F044CF8114910459F4AA94AB2809F071
:1032D0003DCFCC0CDD1CEE1CFF1C6894C0F80BC06D
:1032E0008A94892809F032CFAB2809F02FCFCC0C73
:1032F000DD1CEE1CFF1C0F5F1F4F03CF1093DC0281
:103300000093DB02C092D702D092D802E092D90299
:10331000F092DA0282E090E096C0848195814B972A
:10332000459708F0AAC0DF0116967F0126ECE20E51
:10333000F11C20E030E040E050E060E070E080E030
:1033400090E00D911C911197095011090830110559
:1033500008F093C012960D911C9113970151110919
:103360000D30110520F501E00E94AE202160149679
:10337000AE15BF0531F72093D7023093D8024093A2
:10338000D9025093DA0200E20E94C9202093D502AC
:103390003093D60285E090E09093D4028093D302DC
:1033A00080E390E09093DC028093DB0250C01296A1
:1033B0000D911C911397045011090530110508F067
:1033C0005CC001E00E94AE20D2CF980122503109AA
:1033D000D9012D913C91295031092830310508F04F
:1033E000FAC0BC016F5F7F4FD8012D913C912750EF
:1033F00031092730310508F0EBC2440F551F4160F9
:1034000002960C5F1F4F2091A60330E02450310933
:1034100082179307D4F20197959587959093DC02D4
:103420008093DB028A970CF4D6C0052E000C660B45
:10343000770B4093D7025093D8026093D9027093D0
:10344000DA0289E090E09093D4028093D30281E085
:1034500090E00CC382E08093A2031092A60380E068
:1034600090E004C38093D7029093D802A093D9022E
:10347000B093DA0283E090E0E6CF8091A60389332F
:1034800070F182819381895791098335910508F400
:1034900040C125C0D90112966D917C911397665158
:1034A00071096131710508F060C1D701C601880F4B
:1034B000991FAA1FBB1F6C017D016894C0F84E5F65
:1034C0005F4F2C5F3F4F4B33510509F431C1D90198
:1034D0006D917C916A50710969307105D8F28091C3
:1034E000A603823231F4828193810A97099708F406
:1034F0004CC1828193818957910983359105D0F41C
:103500008091A6038132B0F084819581CA97899712
:1035100088F49F012A5F3F4FC12CD12C760143E0F4
:1035200050E0D9016D917C916A5071096930710543
:1035300008F44AC1828193818C549109C59778F42B
:103540008091A603843031F48481958180974797D8
:1035500008F499C18091A603843408F07BC180915E
:10356000A603863460F1828193810C970B9708F44F
:10357000D8C125C0D90112966D917C9113976E51D7
:1035800071096731710508F004C2D701C601880FBF
:10359000991FAA1FBB1F6C017D016894C0F84E5F84
:1035A0005F4F2C5F3F4F4534510509F4D5C1D90118
:1035B0006D917C916C5071096B307105D8F28091DE
:1035C000A603883540F082819381855891098B3517
:1035D000910508F4EEC18091A6038032E1F4828166
:1035E000938106970697B8F4848195810997099786
:1035F00090F49F012A5F3F4FBF01625C7F4FC12C57
:10360000D12C7601D9014D915C914650510946303B
:10361000510508F4EAC18091DF029091E0029E8397
:103620008D8306970CF416CF8F010A5F1F4F73E04E
:10363000272E312CE5ECCE2EEDE9DE2EECE1EE2E40
:10364000E1E8FE2ED8016D917C91F8013497A080BD
:10365000B18080E090E00E9428222B013C01B5015E
:1036600080E090E00E9428224B015C012DEC3CECB4
:103670004CE45FE30E94DF229B01AC01C301B20175
:103680000E947B2187FD17C02DEC3CEC4CE45FE3EE
:10369000C301B2010E94DF229B01AC01C501B4014C
:1036A0000E947B21E82F880FFF0BEE27FF0FEE1FF4
:1036B000FF27319602C0E0E0F0E0A701960163E940
:1036C00071E080E091E00E9432206F01FF0FEE0870
:1036D000FF08C626D726E826F926BFEF2B1A3B0A95
:1036E0000E5F1F4FED81FE812E163F0609F0AACF17
:1036F000C092D702D092D802E092D902F092DA02B8
:1037000080E290E09093DC028093DB028FEF9FEFEA
:103710009ACE84819581CA97899708F0E0CE9F015F
:103720002A5F3F4FC12CD12C760143E050E0CFCE31
:103730009F012A583F4FD9012D913C912A503109C0
:103740002930310508F0CBCE2CE130E03093DC029B
:103750002093DB02C092D702D092D802E092D90225
:10376000F092DA028AE090E06ECED90112966D9165
:103770007C911397665071096730710508F0AFCEE0
:10378000CC0CDD1CEE1CFF1C9ACE2091A603CF01B1
:10379000820F911D820F911DDC0112978D919C91DA
:1037A0000A97099708F0A5CE1092DC021092DB026E
:1037B0008FEF9FEFDC018093D7029093D802A09304
:1037C000D902B093DA024CC1D90112966D917C9165
:1037D0001397665171096131710588F112966D91E7
:1037E0007C911397665071096730710508F0A2CE7D
:1037F000CC0CDD1CEE1CFF1C4E5F5F4F2C5F3F4F5F
:103800004332510509F08DCE9F012A5B3F4FD9010C
:103810002D913C912A5031092930310508F08ACE8A
:1038200020E130E03093DC022093DB02C092D7022B
:10383000D092D802E092D902F092DA0211C1D701F7
:10384000C601880F991FAA1FBB1F6C017D016894D8
:10385000C0F8D2CF8481958189549109C39708F02B
:103860007ECE9F012A5F3F4FBF016A577F4FC12C19
:10387000D12C7601D9014D915C91495051094930C3
:103880005105B8F06CCE868197810997099708F0A9
:1038900061CE1092DC021092DB028FEF9FEFDC0111
:1038A0008093D7029093D802A093D902B093DA0202
:1038B000DAC0D90112964D915C9113974651510986
:1038C00041315105F0F4D701C601880F991FAA1F95
:1038D000BB1F6C017D016894C0F82C5F3F4F261719
:1038E000370741F620E230E03093DC022093DB0220
:1038F000C092D702D092D802E092D902F092DA02B6
:10390000B2C0D90112964D915C911397465051095E
:103910004730510508F023CECC0CDD1CEE1CFF1CFB
:10392000DCCF848195810997099708F048CE86817C
:1039300097818C974F9708F042CE80859185899723
:103940004D9708F03CCE9F01265F3F4FC12CD12CF4
:10395000760145E050E02BCE9F0126573F4FD9011D
:103960002D913C912C5031092B30310508F027CE98
:1039700020E230E03093DC022093DB02C092D702D9
:10398000D092D802E092D902F092DA0288E090E078
:103990005ACDD90112966D917C9113976950710996
:1039A0006930710508F00BCECC0CDD1CEE1CFF1C41
:1039B000F6CD84819581825491098E9708F00BCEC3
:1039C0008F01045C1F4F8DE190E040E050E01BCD83
:1039D000D8012D913C91285131092231310510F047
:1039E000CB0119CD440F551F0BCDD90112964D9126
:1039F0005C911397495151094331510508F5D7019D
:103A0000C601880F991FAA1FBB1F6C017D01689416
:103A1000C0F82C5F3F4F2617370709F0F3CD2EE093
:103A200030E03093DC022093DB02C092D702D092C8
:103A3000D802E092D902F092DA028FE090E003CD52
:103A4000D90112964D915C91139749505109493013
:103A5000510508F0E0CDCC0CDD1CEE1CFF1CD9CFCD
:103A600086E090E0F0CC87E090E0EDCC26960FB6B3
:103A7000F894DEBF0FBECDBFDF91CF911F910F91A4
:103A8000FF90EF90DF90CF90BF90AF909F908F907E
:103A90007F906F905F904F903F902F900895789413
:103AA00084B5826084BD84B5816084BD85B5826043
:103AB00085BD85B5816085BD80916E0081608093F4
:103AC0006E0010928100809181008260809381005D
:103AD000809181008160809381008091800081606D
:103AE000809380008091B10084608093B1008091C8
:103AF000B00081608093B00080917A0084608093F0
:103B00007A0080917A00826080937A0080917A00B6
:103B1000816080937A0080917A00806880937A0037
:103B20001092C100E0910903F0910A0382E08083C2
:103B3000E0910503F09106031082E0910703F091F4
:103B4000080383E3808310921103E0910D03F09149
:103B50000E0386E08083E0910B03F0910C038081DB
:103B600080618083E0910B03F0910C038081886079
:103B70008083E0910B03F0910C0380818068808347
:103B8000E0910B03F0910C0380818F7D808388E0AE
:103B90008093BA008DEB9FE09093E5018093E40160
:103BA00089EC9FE09093E3018093E2011092E101A0
:103BB0001092E0011092DF011092DE011092DD01FF
:103BC00081E08093DC011092DB0161E082E10E94E0
:103BD000970D61E083E10E94970D8091B9008E7F7F
:103BE0008093B9008091B9008D7F8093B90088E4FB
:103BF0008093B80085E48093BC0088E091E19093C5
:103C0000E7018093E60182E590E19093E9018093DA
:103C1000E801549A5C988091EA01882329F00E9477
:103C20008C001092EA0102C00E948C000E94810F59
:103C3000F2CF823078F4813011F0E89801C0E99831
:103C4000E82FF0E0EE0FFF1FEB5FFE4F8FE59BE0EC
:103C50009183808308958230E8F4E82FF0E0EE0F3E
:103C6000FF1FEB5FFE4F71836083813041F08091D5
:103C700069008C7F482B40936900E89A08958091F1
:103C80006900440F551F440F551F837F482B4093F5
:103C90006900E99A0895EF92FF920F931F93CF93D3
:103CA000DF93EC01062F18E08BE4E82EF12C07FFE0
:103CB00002C061E001C060E089810E94970D60E070
:103CC00088810E94970DC7010197F1F761E0888113
:103CD0000E94970DC7010197F1F7000F115039F7B6
:103CE000DF91CF911F910F91FF90EF900895CF92A8
:103CF000DF92EF92FF92CF93DF93EC01072E000C3F
:103D0000880B990B0E942A226B017C0120E030E095
:103D100040E45FE30E94DF2220E030E048E452E428
:103D20000E9480210E94F221C617D707D4F020E01C
:103D300030E040EA5FE3C701B6010E94DF2220E0E5
:103D400030E048E452E40E94802120E030E040E886
:103D50005FE30E940F210E94F22121E06C177D0792
:103D60000CF420E0822F90E0DF91CF91FF90EF9054
:103D7000DF90CF9008954F925F926F927F928F92D3
:103D80009F92AF92BF92CF92DF92EF92FF920F93EA
:103D90001F93CF93DF93EC01962E842E722E60E05A
:103DA0000E944B1E60E0CE010E944B1E60E0CE01DF
:103DB0000E944B1E60E0CE010E944B1E83E0989E45
:103DC0005001112475018FEFE81AF80A650182E0AD
:103DD000C80ED11C10E08A81181708F03BC01911D9
:103DE0000FC0EB81FC81EA0DFB1D8082EB81FC8121
:103DF000EE0DFF1D7082EB81FC81EC0DFD1D00833B
:103E0000EB81FC8183E0189FE00DF11D11244280BD
:103E10005180608047FC02C060EE01C060EC46FE4D
:103E2000606157FE686056FE646067FE626066FE11
:103E30006160CE010E944B1E642DCE010E944B1E7C
:103E4000652DCE010E944B1E662DCE010E944B1E99
:103E50001F5FC1CF60E0CE010E944B1E60E0CE012B
:103E60000E944B1E60E0CE010E944B1E60E0CE011E
:103E7000DF91CF911F910F91FF90EF90DF90CF9046
:103E8000BF90AF909F908F907F906F905F904F907A
:103E90000C944B1E0F931F93CF93DF93EC01862F4F
:103EA000688349832A8361E00E94C70D61E08981AC
:103EB0000E94C70D8A8161E070E023E0829FC0010B
:103EC00011240E9451239C838B8310E08A81181750
:103ED00048F400E020E040E0612FCE010E94BB1ECC
:103EE0001F5FF4CFDF91CF911F910F910895E9EFFC
:103EF000F2E01382128288EE93E0A0E0B0E08483C7
:103F00009583A683B7832CE231E03183208325ECAF
:103F100030E03587248724EC30E03787268720EC93
:103F200030E0318B208B21EC30E0338B228B22EC84
:103F300030E0358B248B26EC30E0378B268B118ECE
:103F4000128E138E148EE6E9F3E0138212828483BC
:103F50009583A683B7838EE391E091838083E2EA21
:103F6000F3E082E08183138284E0809368008BB366
:103F700081718BBB8CE080936D0008958F929F922E
:103F8000AF92BF92CF92DF92EF92FF920F931F9367
:103F9000CF93DF93FC01C081D1812091DF0230916A
:103FA000E002C217D3070CF04BC09E01220F331F53
:103FB000E091DD02F091DE02E20FF31F808091803C
:103FC000C170DD27F1E0CF27209719F404E610E057
:103FD00002C00CE91FEF7A015B016C01040F151F91
:103FE000B801C4010E94771E892B99F40E0D1F1D84
:103FF000B801C4010E94771E892B71F4B8016E0DBF
:104000007F1DC4010E94771E892BE9F023E030E078
:1040100005C021E030E002C022E030E0F5018081FF
:1040200091810196821793073CF0F501118210826D
:10403000F60180819181019691838083CE0105C034
:1040400081E090E002C08FEF9FEFDF91CF911F9151
:104050000F91FF90EF90DF90CF90BF90AF909F9027
:104060008F900895DB018F939F930E94A320BF91AF
:10407000AF91A29F800D911DA39F900DB29F900DB7
:1040800011240895991B79E004C0991F961708F030
:10409000961B881F7A95C9F78095089597FB072E80
:1040A00016F4009407D077FD09D00E94E52007FCA4
:1040B00005D03EF4909581959F4F08957095619538
:1040C0007F4F0895A1E21A2EAA1BBB1BFD010DC054
:1040D000AA1FBB1FEE1FFF1FA217B307E407F507B8
:1040E00020F0A21BB30BE40BF50B661F771F881F94
:1040F000991F1A9469F760957095809590959B012A
:10410000AC01BD01CF010895052E97FB1EF400946C
:104110000E949B2057FD07D00E94622007FC03D01D
:104120004EF40C949B2050954095309521953F4F2F
:104130004F4F5F4F089590958095709561957F4F93
:104140008F4F9F4F08950E94FF20A59F900DB49F11
:10415000900DA49F800D911D112408950F93083098
:1041600090F0982F872F762F652F542F432F322FC3
:1041700022270850F4CF220F331F441F551F661FFC
:10418000771F881F991F0A95B2F70F91089597FB23
:1041900010F8169400080F93083098F00850232F59
:1041A000342F452F562F672F782F892F902DF4CF3E
:1041B0000594979587957795679557954795379582
:1041C00027950A95AAF70F910895AA1BBB1B51E1E9
:1041D00007C0AA1FBB1FA617B70710F0A61BB70B77
:1041E000881F991F5A95A9F780959095BC01CD011C
:1041F0000895EE0FFF1F0590F491E02D0994A29F02
:10420000B001B39FC001A39F700D811D1124911DAA
:10421000B29F700D811D1124911D08955058BB2728
:10422000AA270E9426210C94A0220E94922238F0F4
:104230000E94992220F039F49F3F19F426F40C943F
:104240008F220EF4E095E7FB0C948922E92F0E945F
:10425000B12258F3BA17620773078407950720F055
:1042600079F4A6F50C94D3220EF4E0950B2EBA2F18
:10427000A02D0B01B90190010C01CA01A00111246C
:10428000FF27591B99F0593F50F4503E68F11A1618
:10429000F040A22F232F342F4427585FF3CF4695A9
:1042A00037952795A795F0405395C9F77EF41F16CB
:1042B000BA0B620B730B840BBAF09150A1F0FF0F95
:1042C000BB1F661F771F881FC2F70EC0BA0F621F81
:1042D000731F841F48F4879577956795B795F79571
:1042E0009E3F08F0B0CF9395880F08F09927EE0F06
:1042F0009795879508950E94652208F481E00895B6
:104300000E9494210C94A0220E94992258F00E94AD
:10431000922240F029F45F3F29F00C948922511138
:104320000C94D4220C948F220E94B12268F399231A
:10433000B1F3552391F3951B550BBB27AA276217A1
:104340007307840738F09F5F5F4F220F331F441FAE
:10435000AA1FA9F335D00E2E3AF0E0E832D09150E2
:104360005040E695001CCAF72BD0FE2F29D0660FCF
:10437000771F881FBB1F261737074807AB07B0E812
:1043800009F0BB0B802DBF01FF2793585F4F3AF018
:104390009E3F510578F00C9489220C94D4225F3F03
:1043A000E4F3983ED4F3869577956795B795F7959E
:1043B0009F5FC9F7880F911D9695879597F9089586
:1043C000E1E0660F771F881FBB1F62177307840722
:1043D000BA0720F0621B730B840BBA0BEE1F88F731
:1043E000E09508950E94F9216894B1110C94D422AB
:1043F00008950E94B92288F09F5798F0B92F992705
:10440000B751B0F0E1F0660F771F881F991F1AF0BF
:10441000BA95C9F714C0B13091F00E94D322B1E02F
:1044200008950C94D322672F782F8827B85F39F02E
:10443000B93FCCF3869577956795B395D9F73EF458
:1044400090958095709561957F4F8F4F9F4F089500
:10445000E89409C097FB3EF490958095709561951E
:104460007F4F8F4F9F4F9923A9F0F92F96E9BB27D4
:104470009395F695879577956795B795F111F8CF50
:10448000FAF4BB0F11F460FF1BC06F5F7F4F8F4FBB
:104490009F4F16C0882311F096E911C0772321F0B1
:1044A0009EE8872F762F05C0662371F096E8862F49
:1044B00070E060E02AF09A95660F771F881FDAF7A0
:1044C000880F9695879597F90895990F0008550FCD
:1044D000AA0BE0E8FEEF16161706E807F907C0F08A
:1044E00012161306E407F50798F0621B730B840B92
:1044F000950B39F40A2661F0232B242B252B21F46C
:1045000008950A2609F4A140A6958FEF811D811D0B
:10451000089597F99F6780E870E060E008959FEF45
:1045200080EC089500240A9416161706180609064A
:10453000089500240A941216130614060506089519
:10454000092E0394000C11F4882352F0BB0F40F4A1
:10455000BF2B11F460FF04C06F5F7F4F8F4F9F4FE1
:10456000089557FD9058440F551F59F05F3F71F063
:104570004795880F97FB991F61F09F3F79F08795CA
:104580000895121613061406551FF2CF4695F1DF53
:1045900008C0161617061806991FF1CF86957105E3
:1045A000610508940895E894BB2766277727CB0117
:1045B00097F908950E94652208F48FEF08950E94EC
:1045C000F2220C94A0220E94922238F00E9499229A
:1045D00020F0952311F00C9489220C948F22112441
:1045E0000C94D4220E94B12270F3959FC1F3950FD1
:1045F00050E0551F629FF001729FBB27F00DB11D67
:10460000639FAA27F00DB11DAA1F649F6627B00DF6
:10461000A11D661F829F2227B00DA11D621F739FDF
:10462000B00DA11D621F839FA00D611D221F749FED
:104630003327A00D611D231F849F600D211D822F34
:10464000762F6A2F11249F5750409AF0F1F088235B
:104650004AF0EE0FFF1FBB1F661F771F881F915088
:104660005040A9F79E3F510580F00C9489220C948C
:10467000D4225F3FE4F3983ED4F38695779567950F
:10468000B795F795E7959F5FC1F7FE2B880F911DB2
:104690009695879597F908950E946522880B990B46
:1046A00008950F931F93CF93DF93869F8001879F79
:1046B000100D969F100D1124C8010E946D23EC016E
:1046C000009729F0A80160E070E00E949F24CE01CD
:1046D000DF91CF911F910F910895CF93DF93823097
:1046E000910510F482E090E0E0917904F0917A0471
:1046F00020E030E0C0E0D0E0309711F140815181FE
:1047000048175907C0F04817590761F4828193810F
:10471000209719F09B838A832BC090937A0480930F
:10472000790426C02115310519F04217530718F4F2
:104730009A01BE01DF01EF010280F381E02DDCCFA1
:104740002115310509F1281B390B2430310590F46E
:1047500012968D919C9113976115710521F0FB01C3
:104760009383828304C090937A0480937904FD013B
:10477000329644C0FD01E20FF31F819391932250C2
:1047800031092D933C933AC02091770430917804FD
:10479000232B41F420910C0130910D0130937804CA
:1047A0002093770420910A0130910B0121153105E6
:1047B00041F42DB73EB740910E0150910F01241BDB
:1047C000350BE0917704F0917804E217F307A0F439
:1047D0002E1B3F0B2817390778F0AC014E5F5F4F57
:1047E0002417350748F04E0F5F1F5093780440930D
:1047F00077048193919302C0E0E0F0E0CF01DF9174
:10480000CF9108950F931F93CF93DF93009709F4EF
:104810008CC0FC01329713821282009179041091AE
:104820007A040115110581F420813181820F931FD3
:1048300020917704309178042817390779F5F0939F
:104840007804E093770471C0D80140E050E0AE17DF
:10485000BF0750F412962D913C911397AD0121158D
:10486000310509F1D901F3CF9D01DA0133832283A8
:1048700060817181860F971F8217930769F4EC019D
:1048800028813981260F371F2E5F3F4F31832083C8
:104890008A819B8193838283452B29F4F0937A0448
:1048A000E093790442C01396FC93EE931297ED01C6
:1048B000499159919E01240F351FE217F30771F4B6
:1048C00080819181840F951F029611969C938E93FF
:1048D0008281938113969C938E931297E0E0F0E08F
:1048E000D80112968D919C911397009719F0F801B9
:1048F0008C01F6CF8D919C9198012E5F3F4F820FD6
:10490000931F20917704309178042817390769F4B0
:10491000309729F410927A041092790402C013821D
:1049200012821093780400937704DF91CF911F9146
:104930000F91089581E090E0F8940C94A624DC0196
:1049400001C06D9341505040E0F70895F894FFCFB7
:1049500002307500005F0B5F0B0200007B0420003B
:104960003F065B4F666D7D077F6F777C395E79719F
:1049700001000A006400E80300000000DA0B600B8D
:104980008B0B210C750F9A0BAE0B0000000033103F
:104990001F104510F30F17100310F40F0D0A006ECF
:0C49A000616E00696E66006F76660000B4
:00000001FF
