:100000000C9464000C94DB120C9408130C948C0078
:100010000C948C000C9490030C948C000C948C0029
:100020000C948C000C948C000C948C000C948C0020
:100030000C948C000C94F80D0C948C000C948C0097
:100040000C9435130C948C000C9485150C94B715F6
:100050000C948C000C948C000C948C000C948C00F0
:100060000C947E110C948C0000000008000201002A
:100070000003040700000000000000000102040863
:100080001020408001020408102001020408102002
:10009000040404040404040402020202020203032E
:1000A00003030303000000002300260029000000D2
:1000B0000000250028002B0000000000240027007D
:1000C0002A00D9031611E71511241FBECFEFD8E07F
:1000D000DEBFCDBF11E0A0E0B1E0EEEAF5E302C083
:1000E00005900D92AA34B107D9F723E0AAE4B1E054
:1000F00001C01D92A53AB207E1F710E0C8ECD0E0CC
:1001000004C02297FE010E948719C23CD107C9F79B
:100110000E942B160C94D51A0C940000CF92DF92FB
:10012000EF92FF920F931F93E82FF92F05C0015014
:1001300011092109310961F1908196239417B9F3CE
:1001400005C0015011092109310911F1908196234F
:100150009413F7CFC12CD12CE12CF12C0AC08FEFD6
:10016000C81AD80AE80AF80A0C151D052E053F051D
:1001700079F080818623841791F36C2D7D2D8E2D4F
:100180009F2D1F910F91FF90EF90DF90CF900895DA
:1001900060E070E080E090E01F910F91FF90EF90A1
:1001A000DF90CF900895CF93DF93EC0160E08881DA
:1001B0000E94FA1484E190E00E94D61361E08881E5
:1001C0000E94FA1484E190E0DF91CF910C94D61351
:1001D0000F931F93CF93DF93EC01062F18E007FFD7
:1001E00002C061E001C060E089810E94FA14CE0182
:1001F0000E94D300000F115091F7DF91CF911F9112
:100200000F910895EF92FF921F93CF93DF9300D049
:10021000CDB7DEB77C01162F27FF02C060EC01C00E
:1002200060EE26FF606147FF686046FF646017FF6D
:10023000626016FF6160C70129834A830E94E8005B
:100240002981622FC7010E94E8004A81642FC701FB
:100250000E94E800612FC7010F900F90DF91CF91AE
:100260001F91FF90EF900C94E8007F928F929F92E5
:10027000AF92BF92CF92DF92EF92FF920F931F93B4
:10028000CF93DF93EC01162F942E822E60E00E9414
:10029000E80060E0CE010E94E80060E0CE010E942C
:1002A000E80060E0CE010E94E80083E0189F700142
:1002B000112467018FEFC81AD80A570182E0A80EEF
:1002C000B11C712C8A81781600F571120FC0EB8178
:1002D000FC81EE0DFF1D9082EB81FC81EC0DFD1D7C
:1002E0008082EB81FC81EA0DFB1D0083EB81FC81A8
:1002F00083E0789EE00DF11D11242281418160810F
:10030000CE010E9402017394DDCF60E0CE010E9415
:10031000E80060E0CE010E94E80060E0CE010E94AB
:10032000E80060E0CE01DF91CF911F910F91FF9027
:10033000EF90DF90CF90BF90AF909F908F907F9085
:100340000C94E8000F931F93CF93DF93EC01862F5B
:10035000688349832A8361E00E94C11461E0898136
:100360000E94C1148A8161E070E023E0829FC00195
:1003700011240E948B199C838B8310E08A811817AB
:1003800048F400E020E040E0612FCE010E943501FA
:100390001F5FF4CFDF91CF911F910F910895FC0162
:1003A00082810895CF93DF93EC01862F6E834F8374
:1003B000288791E09D8760E00E94C11461E08E81F2
:1003C0000E94FA1419861A861B861C86DF91CF912B
:1003D0000895DF92EF92FF920F931F93CF93DF93D5
:1003E000EC0161E08E810E94FA146AEF70E080E017
:1003F00090E00E94AE130E947F1309851A852B8519
:100400003C85601771078207930720F419861A86C6
:100410001B861C862D85211111C009851A852B8507
:100420003C85DC01CB01801B910BA20BB30B803D03
:100430009740A105B10510F481E071C01D860E94AE
:100440007F1369877A878B879C871C821B821A821D
:100450001982188261E08E810E94C11460E08E8151
:100460000E94FA1464E170E080E090E00E94AE1314
:10047000F89461E08E810E94FA1488E290E00E9474
:10048000D61360E08E810E94C114F12CD12C81E042
:10049000E12C082F10E08E810E9430158017910703
:1004A00041F4E39481E090E00E94D6138FEFE812CC
:1004B000F2CF8E810E9430159FEFE916C9F023E03C
:1004C0002F1590F4F0FC10C09D2D9695969596955D
:1004D000FE01E90FF11D9081990F908328852E155B
:1004E00010F491609083D394F39495E5F912D0CFF2
:1004F000789427E22D1590F42C8130E04881898191
:1005000090E0840F911D4A81840F911D4B81840FCF
:10051000911D99272817390709F48ECF80E0DF91C4
:10052000CF911F910F91FF90EF90DF900895CF92A0
:10053000DF92EF92FF920F931F93CF93DF93EC0123
:10054000162F0E94E901882309F450C08F818B3057
:1005500031F008F44BC08551823078F047C06A8191
:1005600070E080E090E00E942B18112309F449C04C
:1005700020E030E040E151E42AC00A81602F6F772B
:1005800070E080E090E00E942D1820E030E040E82C
:1005900053E40E94B9186B017C016B8170E080E02C
:1005A00090E00E942D189B01AC01C701B6010E948A
:1005B0005F1720E030E040E251E40E94C31707FDDE
:1005C0009058112309F120E030E040E151E40E940D
:1005D000B91820E030E040EA50E40E94C31720E060
:1005E00030E040E052E40E945F170EC067E071E027
:1005F00084E093E00E94781620E030E040EC5FE772
:1006000005C09B01AC0102C09B01AC01B901CA014C
:10061000DF91CF911F910F91FF90EF90DF90CF90DE
:100620000895CF92DF92EF92FF92CF93DF93EC0188
:100630000E94E901882379F18F818B3029F158F1EB
:100640008551823040F5688170E080E090E00E9442
:100650002B1820E030E040E853E40E94B9186B0109
:100660007C01698170E080E090E00E942D189B0180
:10067000AC01C701B6010E945F1720E030E040E204
:1006800051E40E94C31711C0688170E080E090E0DF
:100690000E942B180AC067E071E084E093E00E949A
:1006A000781660E070E080EC9FE7DF91CF91FF90DB
:1006B000EF90DF90CF900895CF93DF9382E00E9478
:1006C0003015EC0183E00E9430158C239D230197A7
:1006D00019F481E080934C01DF91CF91089584E07B
:1006E000809368008BB381718BBB8CE080936D002D
:1006F000089548EE53E060E070E08EE292E00E94E0
:10070000870E2FEF3FEFA9016CE573E08EE292E0D8
:100710000E949D0E789408958EE292E00C948E0EC5
:100720001F920F920FB60F9211241F932F933F9396
:100730004F935F936F937F938F939F93AF93BF93E9
:10074000CF93DF93EF93FF9310914C011130E9F4B5
:1007500082E00E943015EC0183E00E9430158C1776
:100760009D071CF410934A010CC082E00E943015D2
:10077000EC0183E00E943015C817D90734F41092B9
:100780004A0110934B0110924C01FF91EF91DF91C0
:10079000CF91BF91AF919F918F917F916F915F9119
:1007A0004F913F912F911F910F900FBE0F901F906F
:1007B00018958AE491E00C946F03CF93DF93EC01DA
:1007C000862FE62FF0E0F983E88350E05B834A83CD
:1007D0002C831E821D8261E00E94C11461E08A8127
:1007E000DF91CF910C94C1141F93CF93DF93EC0151
:1007F00060E08A810E94FA148AE090E00E94D61399
:1008000014E061E08A810E94FA1460E08A810E940B
:10081000FA141150B1F7DF91CF911F910895FF9213
:100820000F931F93CF93DF93EC018B0190E1F92E8F
:10083000612F661F6627661F8A810E94FA148881CD
:100840000E94301561E0892B09F060E088810E94E8
:10085000FA14000F111FFA9459F7DF91CF911F91ED
:100860000F91FF900895EF92FF920F931F93CF93F4
:10087000DF93EC017B01CB0193709E838D8360E05D
:1008800070E0CE010E940F0400E010E08C8188230C
:1008900051F0C701002E02C0880F991F0A94E2F799
:1008A00091FF0DC009C0C701002E02C09695879523
:1008B0000A94E2F780FF03C06FEF70E002C060E0CF
:1008C00070E0CE010E940F040F5F1F4F0A30110528
:1008D000E9F660E070E0CE010E940F0460E070E095
:1008E000CE010E940F04CE01DF91CF911F910F9195
:1008F000FF90EF900C94F403FC0164836581768192
:100900000C9433046B3008F06AE02FEF3FEF02C025
:10091000220F331F6A95E2F720953095FC0136834C
:100920002583B9010C943304662321F06B3018F051
:100930006AE001C061E05FEF560FFC01258136815E
:1009400061E070E002C0660F771F5A95E2F744231A
:1009500019F0622B732B04C060957095622373238A
:10096000FC01768365830C943304662321F06B309D
:1009700018F06AE001C061E02FEF260F61E070E03F
:1009800002C0660F771F2A95E2F7FC0125813681A8
:1009900062277327768365830C943304FC01858179
:1009A00096810895FC0181E020813181232B09F497
:1009B00080E0089580915C0190915D010196909393
:1009C0005D0180935C0108950E947F13609376011E
:1009D00070937701809378019093790182E00E946F
:1009E00030159093650180936401892BA9F060E034
:1009F00088E00E94FA148091760190917701A0918D
:100A00007801B09179018093720190937301A09362
:100A10007401B093750114C08091760190917701B3
:100A2000A0917801B091790180936E0190936F014C
:100A3000A0937001B093710161E088E00E94FA1404
:100A40004091720150917301609174017091750130
:100A500080916E0190916F01A0917001B091710130
:100A600084179507A607B70740F5481B590B6A0B73
:100A70007B0B40936A0150936B0160936C01709300
:100A80006D0180917E0190917F01A0918001B091D4
:100A90008101840F951FA61FB71F80937E0190933D
:100AA0007F01A0938001B093810110927201109296
:100AB00073011092740110927501089564E070E062
:100AC00084E392E00E940A1164E27DE084E392E014
:100AD0000E940C116DE57DE084E392E00E9411110B
:100AE00041E050E064EE74E080E00C94AB12AF9211
:100AF000BF92CF92DF92EF92FF920F931F93CF930B
:100B0000DF93CDB7DEB728970FB6F894DEBF0FBEE0
:100B1000CDBF8091BA019091BB01049709F0BAC191
:100B20008091B8019091B901892B09F0B3C181E09E
:100B300090E09093B9018093B8018091BC019091AD
:100B4000BD018130910539F48091BE010E943015BC
:100B50008093B7019FC18230910539F46091C00143
:100B60008091BE010E94FA1495C183309105B1F4C1
:100B70008091BE010E941C1490938C0180938B0184
:100B80009C0197FF02C021503F4F3093A30160E0CA
:100B900071E00E941C198093A4017CC184309105EE
:100BA00049F46091C0017091C1018091BE010E9421
:100BB000391470C18530910539F46091C00180917C
:100BC000BE010E94C11466C18730910509F043C07F
:100BD0008091BE019091BF0180934F01909350018D
:100BE00061E00E94C11460E080914F010E94FA14FC
:100BF00082E090E00E94D61361E080914F010E9454
:100C0000FA1485E090E00E94D61360E080914F01D5
:100C10000E94FA1460E080914F010E94C11420E408
:100C200032E44FE050E061E080914F010E9459159D
:100C30002AE330E040E050E00E945219CA01B901B5
:100C400020E031E040E050E00E9452192093A301DF
:100C50006093A4011FC18830910551F481E0809315
:100C6000A30182E08093A40187E08093A50112C1D3
:100C70008832910509F05EC08091860190918701CC
:100C8000892B09F407C18091C0019091C10100979F
:100C900019F426E04BE00BC08130910519F426E0F1
:100CA00046E105C00297029740F426E045E16091D5
:100CB000BE0180E292E00E94D20160E080E292E018
:100CC0000E9497026D837E838F83988780E292E0F3
:100CD0000E94110369837A838B839C8310924E0157
:100CE00010924D01FE01359680E090E00196219131
:100CF000DC01A357BE4F2C9384309105BCF384E0F4
:100D000090E090934E0180934D010196DC01A35732
:100D1000BE4FE1E0F0E0EC0FFD1FE80FF91F359743
:100D200020812C938830910584F390934E01809319
:100D30004D015DC082339105D9F44091BE015091BF
:100D4000BF0121E08091C0019091C101892B09F47C
:100D500020E061E0640FFA01329737E03E9FC00166
:100D60003F9F900D11248A509E4F0E94DD0392C038
:100D7000C39709F041C02091BE013091BF012250BC
:100D8000310947E0429FC001439F900D11248A50D2
:100D90009E4F0E94D204811161C12EC08A309105FC
:100DA00009F0F5C58091860190918701019709F0BE
:100DB00071C0809166018093A20180917A01909127
:100DC0007B01A0917C01B0917D018093A301492F0B
:100DD0005A2F6B2F772740937A0150937B016093B2
:100DE0007C0170937D014093A401A093A501109212
:100DF0008701109286014EC08091BC019091BD0187
:100E0000C49709F406C18091BC019091BD01C597BA
:100E100091F42091BE013091BF012250310947E089
:100E2000429FC001439F900D11248A509E4F0E9403
:100E3000D20481112CC18091BC019091BD01C69753
:100E400009F440C18091BC019091BD01C79709F49C
:100E50005EC18091BC019091BD01C89709F484C125
:100E60008091BC019091BD018634910509F0A3C128
:100E70006091BE017091BF0141E0460F9B0122507D
:100E80003109C901880F991F820F931F8C519E4F02
:100E90000E94B80E8091680190916901892BD9F167
:100EA0000E947F130091820110918301209184019F
:100EB00030918501601B710B820B930B6133754779
:100EC0008105910540F181E090E090936701809366
:100ED000660180917E0190917F01A0918001B09187
:100EE000810180937A0190937B01A0937C01B09360
:100EF0007D0110927E0110927F011092800110926C
:100F000081010E947F13609382017093830180931B
:100F100084019093850180915E0190915F01892BFE
:100F200039F180914B01813019F520914A0180916E
:100F3000620190916301213049F401968931910554
:100F400054F0109263011092620109C0019797FF5B
:100F500002C088E190E0909363018093620181E098
:100F600080936001809162018093610110924B0136
:100F70008091580190915901892B09F454C50E9420
:100F80007F13009154011091550120915601309129
:100F90005701601B710B820B930B613D77408105FC
:100FA000910508F440C520915C0130915D014EE14E
:100FB000429FC001439F900D112469E470E00E949C
:100FC0001C19E62F472F60935A0170935B0181E053
:100FD00080935101862F972F60E071E00E941C19C9
:100FE000809352012E2F342F37FF02C021503F4FE4
:100FF0003093530110925D0110925C010E947F13A7
:10100000609354017093550180935601909357015A
:101010000AC52091BE013091BF012250310917E06D
:10102000129FC001139F900D11248A509E4F0E9461
:10103000D204882309F4E7CE2091BE013091BF018C
:1010400022503109129FC001139F900D112460910D
:10105000C0018A509E4F0E9482041CCF61E08091A3
:10106000C0019091C101892B09F460E02091BE017B
:101070003091BF012250310947E0429FC001439F98
:10108000900D11248A509E4F0E947C0403CF41E0B2
:101090008091C2019091C301892B09F440E0209115
:1010A000BE013091BF012250310957E0529FC0016B
:1010B000539F900D11246091C0018A509E4F0E9451
:1010C0009404E8CE2091BE013091BF012250310935
:1010D00017E0129FC001139F900D11248A509E4F5C
:1010E0000E94D204882309F4ADCE2091BE01309134
:1010F000BF0122503109129FC001139F900D11248E
:101100006091C0018A509E4F0E94B504C3CE2091C9
:10111000BE013091BF012250310917E0129FC0017A
:10112000139F900D11248A509E4F0E94D204882351
:1011300009F48FCE80E090E09091C2016091C001EF
:101140007091C101682779272091BE013091BF01BC
:1011500022503109129FC001139F900D11248A5013
:101160009E4F0E94330496CE2091BE013091BF0164
:101170002250310917E0129FC001139F900D1124D6
:101180008A509E4F0E94D204882309F469CE209190
:10119000BE013091BF0122503109129FC001139F3F
:1011A000900D11248A509E4F0E94CE048093A3017B
:1011B0009093A4016FCE8734910519F52091BE015B
:1011C0003091BF0122503109C901880F991F820F48
:1011D000931F8C519E4F0E942010882391F02091E4
:1011E000BE013091BF0122503109C901880F991FFA
:1011F000820F931F6091C0018C519E4F0E94CF0EB1
:1012000049CE8091BC019091BD018834910559F57A
:101210002091BE013091BF0122503109C901880FD0
:10122000991F820F931F8C519E4F0E94201088237C
:10123000D1F080E090E09091C2016091C001709186
:10124000C101682779272091BE013091BF0122504A
:101250003109C901880F991F820F931FE12C00E00B
:1012600024E040E05CC08091BC019091BD018934D4
:10127000910589F42091BE013091BF0122503109BE
:10128000C901880F991F820F931F8C519E4F0E9496
:10129000201081112BC08091BC019091BD018A3436
:1012A000910509F041C02091BE013091BF0122504B
:1012B0003109C901880F991F820F931F8C519E4FCE
:1012C0000E942010882381F12091BE013091BF013E
:1012D00022503109C901880F991F820F931F609115
:1012E000C2018C519E4F0E94191038C080E090E0DE
:1012F0009091C2016091C0017091C1016827792766
:101300002091BE013091BF0122503109C901880FDF
:10131000991F820F931FE12C00E024E041E08C51E3
:101320009E4F0E94A30FB6CD8091BC019091BD014C
:101330008B34910519F52091BE013091BF012250E7
:101340003109C901880F991F820F931F8C519E4F3D
:101350000E942010882391F08091C20189832091FE
:10136000BE013091BF0122503109C901880F991F78
:10137000820F931F2091C00141E00FC18091BC01F9
:101380009091BD018C34910509F075C02091BE018A
:101390003091BF0122503109C901880F991F820F76
:1013A000931F8C519E4F0E942010882309F463C024
:1013B0008091C0019091C1010AE010E0B8010E9443
:1013C0001C192091BE013091BF0122503109C90181
:1013D000880F991F820F931F8C519E4F0E941910E6
:1013E00089838091C0019091C101B8010E941C19AC
:1013F0002091BE013091BF0122503109A901440F53
:10140000551F420F531F682FCA018C519E4F0E94D7
:10141000191080688A838091C2019091C301B8013C
:101420000E941C192091BE013091BF012250310948
:10143000C901880F991F820F931F8C519E4F0E94E4
:1014400019108B838091C2019091C301B8010E9451
:101450001C192091BE013091BF0122503109A90110
:10146000440F551F420F531F682FCA018C519E4FC6
:101470000E94191067C08091BC019091BD018D340C
:10148000910589F42091BE013091BF0122503109AC
:10149000C901880F991F820F931F8C519E4F0E9484
:1014A000201081111EC08091BC019091BD018E342D
:1014B000910509F049C02091BE013091BF01225031
:1014C0003109C901880F991F820F931F8C519E4FBC
:1014D0000E9420108823C1F18FEF89838A838B8338
:1014E00031C01091C001A090C201B090C301AA0CFC
:1014F000BB1CAA0CBB1CC12CD12CCA14DB040CF0E5
:10150000C9CC812F0E941C14BC012091BE013091D6
:10151000BF0122503109C901880F991F820F931F03
:10152000E12C00E024E040E08C519E4F0E94A30F8C
:101530006AEF70E080E090E00E94AE132FEFC21AD5
:10154000D20ADBCF8C831CC08091BC019091BD017D
:101550008F34910551F52091BE013091BF01225089
:101560003109C901880F991F820F931F8C519E4F1B
:101570000E9420108823C9F019821A821B821C82C3
:101580002091BE013091BF0122503109C901880F5D
:10159000991F820F931F20E044E0BE016F5F7F4FD1
:1015A0008C519E4F0E94560F75CC8091BC0190913A
:1015B000BD018A35910569F48091BE01809388014F
:1015C0008091C001809389018091C20180938A013A
:1015D00061CC8B359105B1F46091BE017091BF0172
:1015E00041E0460F9B012250310955E0529FC00156
:1015F000539F900D11242091C0018A539E4F0E9449
:10160000A20148CC8C35910509F044C06091BE011F
:101610007091BF0141E0460F9B012250310955E016
:10162000529FC001539F900D11242091C0018A53F5
:101630009E4F0E94A2011091C20112FBDD24D0F83E
:10164000D19411FBCC24C0F8C19411701195E12CF8
:10165000F12CE5E0BE2E8091C0019091C101E81609
:10166000F9060CF017CC6091BE017091BF01625079
:101670007109B69EC001B79E900D1124012F2C2D2B
:101680004D2D6E2D8A539E4F0E9435013FEFE31A78
:10169000F30AE1CF8D35910509F074C02091C001A6
:1016A0003091C1018091BE019091BF01232BB1F413
:1016B0009C012250310945E0429FC001439F900D9B
:1016C000112400918A012091890140918801609143
:1016D000C2018A539E4F0E943501DCCB9C012250EF
:1016E000310945E0429FC001439F900D11248A5368
:1016F0009E4F0E94CF01E12CF12CC82ED12C15E079
:10170000EC14FD040CF0C6CB2091C0013091C10156
:101710002130310541F48091C2019091C301E81656
:10172000F906B1F42BC02230310541F48091C20199
:101730009091C3018E159F055CF420C023303105C4
:10174000E9F48091C2019091C301E816F906B4F062
:101750002091BE013091BF0122503109129FC0017A
:10176000139F900D112400918A01209189014091CD
:1017700088016E2D8A539E4F0E9435014FEFE41A67
:10178000F40ABECF8E35910509F052C08091C20196
:101790009091C3011816190634F081E090E09093FF
:1017A000C3018093C2012091BE013091BF0122503C
:1017B000310945E0429FC001439F900D11248A5397
:1017C0009E4F0E94CF01E090C001F090C101C82E51
:1017D000D12C15E0EC14FD040CF05CCB8091C00121
:1017E0009091C1019701281B390BC9016091C20179
:1017F0007091C3010E941C19892BB1F42091BE0184
:101800003091BF0122503109129FC001139F900DEA
:10181000112400918A0120918901409188016E2D47
:101820008A539E4F0E9435013FEFE31AF30AD2CF4D
:101830008F35910509F084C02091BE013091BF0120
:101840002250310945E0429FC001439F900D112471
:101850008A539E4F0E94CF01182F8091C201909110
:10186000C301C12ED12CE12CF12C892B99F515E067
:10187000EC14FD040CF00ECB2091C0013091C1019D
:101880008091BE019091BF01E216F3067CF49C01A9
:1018900022503109129FC001139F900D1124009115
:1018A0008A0120918901409188010BC09C0122503E
:1018B0003109129FC001139F900D112400E020E018
:1018C00040E06E2D8A539E4F0E9435014FEFE41A7F
:1018D000F40ACECF75E0B72E96012E193F0909F410
:1018E000D9CA8091C0019091C101A601481B590B32
:1018F000CA014091BE015091BF01612F6E19425043
:1019000051092817390764F0B49EC001B59E900DA7
:10191000112400918A01209189014091880108C019
:10192000B49EC001B59E900D112400E020E040E07F
:101930008A539E4F0E9435015FEFE51AF50ACCCF1E
:101940008E309105C1F441E050E064EE74E080E037
:101950000E94AB1281E090E090936901809368014E
:101960000E947F13609382017093830180938401AE
:101970009093850153C08F30910509F00FCA80E024
:101980000E94CB12109269011092680147C0803109
:10199000910559F48AE491E00E94790381E090E096
:1019A00090935F0180935E0139C08131910549F4C4
:1019B0008AE491E00E948C0310925F0110925E0114
:1019C00069CA8231910501F560E082E00E94C1148C
:1019D00043E050E06AED74E080E00E94AB121092A8
:1019E0005D0110925C010E947F136093540170931B
:1019F0005501809356019093570181E090E09093B8
:101A00005901809358010AC00D9709F043CA1092FA
:101A100059011092580180E00E94CB121092BD0132
:101A20001092BC0137CA28960FB6F894DEBF0FBEDD
:101A3000CDBFDF91CF911F910F91FF90EF90DF907D
:101A4000CF90BF90AF9008950F931F93CF93DF93E4
:101A500001E010E084E392E00E942710892B41F11D
:101A600084E392E00E942710049761F41092B90178
:101A70001092B8011092BB011092BA011093870125
:101A800000938601C091BA01D091BB01CE010196AD
:101A90009093BB018093BA0184E392E00E942F10DF
:101AA000FE01EE0FFF1FE454FE4F91838083D2CFDF
:101AB000DF91CF911F910F9108958091BC0190917A
:101AC000BD01019731F46091B70184E392E00E9477
:101AD000AE108091BC019091BD019C012B7F233001
:101AE000310511F0C89741F443E050E062EA71E03B
:101AF00084E392E00E9481108091BC019091BD012D
:101B00008830910511F0449741F444E050E062EAD6
:101B100071E084E392E00E9481108091BC01909179
:101B2000BD014E9741F449E050E062EA71E084E380
:101B300092E00E9481108091BC019091BD01889734
:101B400041F449E050E06DE871E084E392E00E94E6
:101B500081108091BC019091BD01459751F445E100
:101B600050E062EA71E084E392E00E9481101092FA
:101B7000A2018091BC019091BD010A9781F444E0DB
:101B800050E062EA71E084E392E00E9481101092DA
:101B90006701109266011092BD011092BC01809104
:101BA000BC019091BD010B9771F442E050E060E6FA
:101BB00071E084E392E00E94811010926001109223
:101BC000BD011092BC018091BC019091BD010C97A8
:101BD00071F443E050E061E571E084E392E00E943B
:101BE0008110109251011092BD011092BC01089514
:101BF0001F920F920FB60F9211242F933F934F9382
:101C00005F936F937F938F939F93AF93BF93EF9364
:101C1000FF93E0913202F09133020995FF91EF9129
:101C2000BF91AF919F918F917F916F915F914F91F4
:101C30003F912F910F900FBE0F901F901895FC01B0
:101C4000A3E0440F551F661F771FAA95D1F74115D2
:101C5000510581E06807710514F481E00EC033E09E
:101C600075956795579547953A95D1F74115510563
:101C700081E0680771051CF482E0828331C023E0B3
:101C800075956795579547952A95D1F74115510553
:101C900081E06807710514F483E0EFCF92E0759559
:101CA0006795579547959A95D1F74115510581E06C
:101CB0006807710514F484E0E0CF82E075956795BC
:101CC000579547958A95D1F785E08283411551054F
:101CD00081E06807710524F04FEF5FEF60E070E08E
:101CE0008FB78383F8945183408350938700409348
:101CF000860083818FBF80918100887F80938100DF
:101D0000809181009281892B8093810008951092A7
:101D1000800020E1209381000C941F0EEFE6F0E09C
:101D200080818E7F80830895E1E8F0E02081DC01EE
:101D300012968C91282B208308950F931F93CF9395
:101D4000DF93EC018B01BA01A901141615061606E2
:101D5000170614F40E941F0E1D830C8381E08093EC
:101D60006F00CE01DF91CF911F910F910C94940ED3
:101D7000CF93DF93EC01862F6883498360E00E9454
:101D8000C11460E089810E94C11460E088810E94D2
:101D9000FA1460E08981DF91CF910C94FA146830D5
:101DA00010F4685F01C06FE0FC016283089561E098
:101DB000FC0181810E94C11482E390E00C94D6134F
:101DC000CF93DF93EC0161E089810E94C11482E32B
:101DD00090E00E94D61360E088810E94C11482E3E3
:101DE00090E00E94D61360E089810E94C11482E3D2
:101DF00090E0DF91CF910C94D6130F931F93CF9364
:101E0000DF93EC01062F18E061E088810E94C11485
:101E100082E390E00E94D61300FF02C060E001C0A0
:101E200061E089810E94C11482E390E00E94D61390
:101E300060E088810E94C11482E390E00E94D61382
:101E40000695115009F761E088810E94C11460E095
:101E500089810E94C11482E390E00E94D61360E061
:101E600088810E94C11482E390E00E94D613898188
:101E70000E943015182F811104C061E089810E94F1
:101E8000C11482E390E00E94D61361E088810E9431
:101E9000C11482E390E00E94D61381E0111101C0C9
:101EA00080E0DF91CF911F910F910895AF92BF9283
:101EB000DF92EF92FF920F931F93CF93DF9300D0A7
:101EC000CDB7DEB75C01F62EE42E29837A830E941B
:101ED000D70E60E4C5010E94FD0EC5010E94E00E10
:101EE000C5010E94D70E2981622F63706054C5011D
:101EF0000E94FD0EDF2C0F2D7A81172F802F8D1958
:101F00008E1538F4F80161918F01C5010E94FD0E14
:101F1000F5CFC5010E94E00EC5010E94D70EF50164
:101F200062816058C5010E94FD0EC5010F900F909F
:101F3000DF91CF911F910F91FF90EF90DF90BF90B5
:101F4000AF900C94E00E4F925F926F927F928F92BF
:101F50009F92AF92BF92CF92DF92EF920F931F9317
:101F6000CF93DF9300D000D0CDB7DEB73C015B014B
:101F7000322F202F89E1882E81E0982ECE01019604
:101F80006C01FC0101E01FE3D4015E904E904D0115
:101F9000C501B2010E941C196115710561F441115E
:101FA00006C0002321F08E2F8C19833011F410838A
:101FB00013C0108211C0A62FAF70B0E0A75EBE4F55
:101FC0008C918083649DC001659D900D749D900DE2
:101FD0001124A81AB90A00E0EE2039F08E2F8C19CE
:101FE000813019F48081806880833196B1E18B164D
:101FF000B1E09B0649F664E070E0631B71096C0D6B
:102000007D1D432FC3010E94560F0F900F900F901C
:102010000F90DF91CF911F910F91EF90DF90CF90B4
:10202000BF90AF909F908F907F906F905F904F90F8
:1020300008956F70E62FF0E0E75EFE4F808108950F
:10204000FC0181E09081911101C080E008958091B0
:10205000670290E020916802821B91090895209107
:10206000680280916702281750F4E22FF0E0E759E8
:10207000FD4F808190E02F5F2093680208958FEFDD
:102080009FEF0895E091680280916702E81730F4AD
:10209000F0E0E759FD4F808190E008958FEF9FEFCA
:1020A00008950895E0914002F09141023097E1F0E7
:1020B00030916802209167023217B0F040E0242F7F
:1020C00030E02617370754F4DC01A20FB31F5C91F0
:1020D000D901A759BD4F5C934F5FF1CF10926802B1
:1020E00060936702CB0109940895E0914202F09158
:1020F0004302309729F0109246021092450209944B
:102100000895CF92DF92EF92FF920F931F93CF9398
:10211000DF937C01CB018A0120914402222389F0C4
:10212000EB016B01C40ED51ECC15DD0569F069917C
:10213000D701ED91FC910190F081E02DC701099547
:10214000F3CF642F0E943C11C801DF91CF911F9102
:102150000F91FF90EF90DF90CF900895CF93DF9392
:102160001F92CDB7DEB76983209144022223D1F0BC
:1021700020914502203240F021E030E0FC01338321
:10218000228380E090E015C080914602E82FF0E0C5
:10219000E95BFD4F998190838F5F80934602809326
:1021A000450205C061E0CE0101960E943C1181E02C
:1021B00090E00F90DF91CF910895FC01138212827D
:1021C00048EE53E060E070E0448355836683778394
:1021D0008DE291E0918380830895109268021092BD
:1021E000670210924602109245020C941A11CF9386
:1021F000DF93EC01862F0E94381185E790E10E9461
:10220000691182E590E10E946411CE01DF91CF91C6
:102210000C94ED100C94F7107093410260934002FF
:1022200008957093430260934202089584E392E01C
:102230000C94DD101092F60281E08093F40210926B
:10224000F30261E082E10E94FA1461E083E10E94FE
:10225000FA14E9EBF0E080818E7F808380818D7FAE
:10226000808388E48093B80085E48093BC0008955F
:10227000880F8093BA0008954091AB02262F30E07A
:10228000240F311D21323105DCF42091F602243077
:10229000C9F4FC0180E090E0861758F43091AB025D
:1022A0002191DC01A355BD4FA30FB11D2C930196C5
:1022B000F3CF8091AB02860F8093AB0280E008954C
:1022C00081E0089582E008959093F0028093EF02F8
:1022D00008959093F2028093F102089585ED809322
:1022E000BC008091BC0084FDFCCF1092F6020895E2
:1022F00085EC8093BC001092F60208951F920F9215
:102300000FB60F9211242F933F934F935F936F93C8
:102310007F938F939F93AF93BF93EF93FF9380919E
:10232000B900887F803609F49EC078F5883209F4B8
:102330005DC090F4803109F456C038F4882309F464
:10234000F5C0883009F44FC0F5C0883109F44EC09B
:10235000803209F45FC0EEC0803409F46AC058F4DA
:10236000803309F457C0883309F0E4C080938902B0
:102370000E947811DFC0803509F44FC0883509F418
:102380005DC0883409F0D6C0D3C0883909F4C4C010
:10239000A8F4883709F467C038F4883609F463C0B4
:1023A000803709F460C0C6C0883809F4B5C08039E8
:1023B00009F45FC0803809F0BDC05BC0803B09F400
:1023C00083C038F4803A09F466C0883A09F47CC0C6
:1023D000B1C0803C09F4A4C0883C09F4A1C0883B8A
:1023E00009F487C0A7C08091F50210C09091CE0279
:1023F0008091CD02981770F5E091CE0281E08E0FAA
:102400008093CE02F0E0E153FD4F80818093BB00CA
:1024100085EC83C0809389028BC0E091CE0281E07D
:102420008E0F8093CE028091BB00F0E0E153FD4F10
:1024300080839091CE028091CD026BC0E091CE025C
:1024400081E08E0F8093CE028091BB00F0E0E153DB
:10245000FD4F80838091F40281116AC081E08093F6
:10246000F30284EA5EC083E08093F60210928A024F
:10247000CFCF80918A02803208F04EC0E0918A026C
:1024800081E08E0F80938A028091BB00F0E0E557D7
:10249000FD4F8083BDCF0E94781180918A028032E7
:1024A00030F4E0918A02F0E0E557FD4F1082609130
:1024B0008A0270E0E091EF02F091F0028BE892E086
:1024C000099510928A0236C084E08093F602109239
:1024D000AC021092AB02E091F102F091F202099588
:1024E0008091AB02811105C081E08093AB02109214
:1024F000AD02E091AC0281E08E0F8093AC02F0E07F
:10250000E355FD4F80818093BB009091AC02809198
:10251000AB02981708F47CCF85E88093BC000AC012
:1025200085EC8093BC001092F60204C010928902E0
:102530000E946E11FF91EF91BF91AF919F918F918A
:102540007F916F915F914F913F912F910F900FBEAF
:102550000F901F9018958230E8F4E82FF0E0EE0F0E
:10256000FF1FE950FD4F71836083813041F08091FE
:1025700069008C7F842B80936900E89A089580918C
:102580006900440F551F440F551F837F842B809390
:102590006900E99A0895823068F4813011F0E89872
:1025A00001C0E998E82FF0E0EE0FFF1FE950FD4F62
:1025B0001182108208951F920F920FB60F9211246C
:1025C0002F933F934F935F936F937F938F939F933B
:1025D000AF93BF93EF93FF938091F7029091F8022E
:1025E000892B29F0E091F702F091F8020995FF910B
:1025F000EF91BF91AF919F918F917F916F915F917B
:102600004F913F912F910F900FBE0F901F901895F3
:102610001F920F920FB60F9211242F933F934F9357
:102620005F936F937F938F939F93AF93BF93EF933A
:10263000FF938091F9029091FA02892B29F0E091A1
:10264000F902F091FA020995FF91EF91BF91AF91D4
:102650009F918F917F916F915F914F913F912F91BA
:102660000F900FBE0F901F9018951F920F920FB6EC
:102670000F9211242F933F938F939F93AF93BF9308
:102680008091FC029091FD02A091FE02B091FF02A8
:102690003091FB0223E0230F2D3720F40196A11D7A
:1026A000B11D05C026E8230F0296A11DB11D209380
:1026B000FB028093FC029093FD02A093FE02B09374
:1026C000FF028091000390910103A0910203B09159
:1026D00003030196A11DB11D809300039093010394
:1026E000A0930203B0930303BF91AF919F918F9189
:1026F0003F912F910F900FBE0F901F9018952FB7FD
:10270000F8946091FC027091FD028091FE0290911C
:10271000FF022FBF08953FB7F89480910003909176
:102720000103A0910203B091030326B5A89B05C045
:102730002F3F19F00196A11DB11D3FBF6627782FCD
:10274000892F9A2F620F711D811D911D42E0660F26
:10275000771F881F991F4A95D1F70895CF92DF926E
:10276000EF92FF92CF93DF936B017C010E948B135A
:10277000EB01C114D104E104F10489F00E947A163E
:102780000E948B136C1B7D0B683E734090F381E0BD
:10279000C81AD108E108F108C851DC4FEACFDF912F
:1027A000CF91FF90EF90DF90CF9008958230910508
:1027B00038F0880F991F880F991F05970197F1F737
:1027C0000895789484B5826084BD84B5816084BDA9
:1027D00085B5826085BD85B5816085BDEEE6F0E09A
:1027E000808181608083E1E8F0E0108280818260F6
:1027F0008083808181608083E0E8F0E08081816077
:102800008083E1EBF0E0808184608083E0EBF0E0A6
:10281000808181608083EAE7F0E08081846080834A
:1028200080818260808380818160808380818068F4
:1028300080831092C10008958E3008F08E5087700A
:102840002091060190E4299F90011124822B80930E
:102850007C0080917A00806480937A0080917A0075
:1028600086FDFCCF809178002091790090E0922B3A
:1028700008951F93CF93DF93182FEB0161E00E941F
:10288000C114209711F460E004C0CF3FD10539F4A2
:1028900061E0812FDF91CF911F910C94FA14E12F09
:1028A000F0E0E859FF4FE491E330F9F048F4E1300B
:1028B000B9F0E230A1F584B5806284BDC8BD34C0F2
:1028C000E730E9F0E83019F1E43049F58091800013
:1028D000806280938000D0938B00C0938A0024C0D4
:1028E00084B5806884BDC7BD1FC0809180008068AA
:1028F00080938000D0938900C093880015C0809198
:10290000B00080688093B000C093B3000DC0809188
:10291000B00080628093B000C093B40005C0C0389E
:10292000D1050CF0B5CFAFCFDF91CF911F910895B6
:10293000833081F028F4813099F08230A1F008953D
:102940008730A9F08830B9F08430D1F480918000CC
:102950008F7D03C0809180008F77809380000895E1
:1029600084B58F7702C084B58F7D84BD0895809132
:10297000B0008F7703C08091B0008F7D8093B0004E
:102980000895CF93DF9390E0FC01E458FF4F24912A
:10299000FC01E057FF4F8491882349F190E0880FB4
:1029A000991FFC01E854FF4FA591B49182559F4FA8
:1029B000FC01C591D4919FB7611108C0F8948C9126
:1029C000209582238C93888182230AC0623051F43F
:1029D000F8948C91322F309583238C938881822BAD
:1029E000888304C0F8948C91822B8C939FBFDF91D5
:1029F000CF9108950F931F93CF93DF931F92CDB77D
:102A0000DEB7282F30E0F901E859FF4F8491F90132
:102A1000E458FF4F1491F901E057FF4F0491002350
:102A2000C9F0882321F069830E9498146981E02FFE
:102A3000F0E0EE0FFF1FE255FF4FA591B4919FB755
:102A4000F8948C91611103C01095812301C0812BF2
:102A50008C939FBF0F90DF91CF911F910F9108959D
:102A6000CF93DF93282F30E0F901E859FF4F84918D
:102A7000F901E458FF4FD491F901E057FF4FC49199
:102A8000CC2391F081110E949814EC2FF0E0EE0F0E
:102A9000FF1FEC55FF4FA591B4912C912D2381E0A0
:102AA00090E021F480E002C080E090E0DF91CF91DF
:102AB00008950F931F93762F90E0FC01E458FF4F89
:102AC0006491FC01E057FF4FE4917111762FF0E023
:102AD000EE0FFF1FEC55FF4F8591949189019A01EC
:102AE0003F70472F0E948E00611571058105910589
:102AF00031F06F5F7F4F8F4F9F4F9F7003C060E03B
:102B000070E0CB011F910F9108951F920F920FB6A5
:102B10000F9211242F938F939F93EF93FF93E09144
:102B20001403F09115038081E0911A03F0911B03C7
:102B300082FD12C0908180911D038F5F8F73209161
:102B40001E03821751F0E0911D03F0E0EC5FFC4F93
:102B5000958F80931D0301C08081FF91EF919F911C
:102B60008F912F910F900FBE0F901F9018951F926D
:102B70000F920FB60F9211242F933F934F935F93B1
:102B80006F937F938F939F93AF93BF93EF93FF9335
:102B900084E093E00E94B616FF91EF91BF91AF9150
:102BA0009F918F917F916F915F914F913F912F9165
:102BB0000F900FBE0F901F90189584E093E00E9435
:102BC0007B1621E0892B09F420E0822F08951092D2
:102BD00007031092060388EE93E0A0E0B0E0809334
:102BE000080390930903A0930A03B0930B038DE3AA
:102BF00091E0909305038093040385EC90E090931B
:102C000011038093100384EC90E09093130380935E
:102C1000120380EC90E0909315038093140381ECF1
:102C200090E0909317038093160382EC90E09093CA
:102C300019038093180386EC90E090931B03809314
:102C40001A0310921D0310921E0310921F0310927C
:102C50002003089508950E94E1130E942A160E94FD
:102C60005E05C8EAD6E10E9477052097E1F30E944D
:102C7000A816F9CFCF92DF92EF92FF920F931F9396
:102C8000CF93DF936C017A01EB01E60EF71E00E0B3
:102C900010E0CE15DF0561F06991D601ED91FC9150
:102CA0000190F081E02DC6010995080F191FF1CFA1
:102CB000C801DF91CF911F910F91FF90EF90DF90AE
:102CC000CF9008956115710581F0DB010D90002012
:102CD000E9F7AD0141505109461B570BDC01ED915D
:102CE000FC910280F381E02D099480E090E008954A
:102CF0000C9462160895FC01818D228D90E0805C19
:102D00009F4F821B91098F7399270895FC01918D24
:102D1000828D981731F0828DE80FF11D858D90E03E
:102D200008958FEF9FEF0895FC01918D828D981784
:102D300061F0828DDF01A80FB11D5D968C91928D9F
:102D40009F5F9F73928F90E008958FEF9FEF08959C
:102D50008DED95E1892B49F080E090E0892B29F0F9
:102D60000E94DD1581110C9400000895FC01848DF2
:102D7000DF01A80FB11DA35ABF4F2C91848D90E0A5
:102D800001968F739927848FA689B7892C93A08980
:102D9000B1898C9180648C93938D848D981306C037
:102DA0000288F389E02D80818F7D80830895CF9301
:102DB000DF93EC01888D8823C9F0EA89FB89808143
:102DC00085FD05C0A889B9898C9186FD0FC00FB615
:102DD00007FCF5CF808185FFF2CFA889B9898C9156
:102DE00085FFEDCFCE010E94B616E7CFDF91CF91E0
:102DF0000895CF92DF92FF920F931F93CF93DF93AB
:102E00001F92CDB7DEB76C0181E0D60158968C9346
:102E100058975B969C915B975C968C915C97981306
:102E200007C05096ED91FC915197808185FD2EC091
:102E3000F601038D10E00F5F1F4F0F731127F02E67
:102E4000F601848DF81211C00FB607FCF9CFD60138
:102E50005096ED91FC915197808185FFF1CFC6018D
:102E600069830E94B6166981EBCF838DE80FF11D4F
:102E7000E35AFF4F6083D6015B960C935B975296A3
:102E8000ED91FC915397808180620CC0D6015696DB
:102E9000ED91FC91579760835096ED91FC9151977D
:102EA00080818064808381E090E00F90DF91CF91FA
:102EB0001F910F91FF90DF90CF9008955058BB273E
:102EC000AA270ED01CC10DD130F012D120F031F460
:102ED0009F3F11F41EF402C10EF4E095E7FBF8C029
:102EE000E92F1ED180F3BA1762077307840795078D
:102EF00018F071F49EF536C10EF4E0950B2EBA2F42
:102F0000A02D0B01B90190010C01CA01A0011124EF
:102F1000FF27591B99F0593F50F4503E68F11A169B
:102F2000F040A22F232F342F4427585FF3CF46952C
:102F300037952795A795F0405395C9F77EF41F164E
:102F4000BA0B620B730B840BBAF09150A1F0FF0F18
:102F5000BB1F661F771F881FC2F70EC0BA0F621F04
:102F6000731F841F48F4879577956795B795F795F4
:102F70009E3F08F0B3CF9395880F08F09927EE0F86
:102F80009795879508950CD0BAC0B2D040F0A9D0DB
:102F900030F021F45F3F19F09BC05111E4C09EC096
:102FA000BFD098F39923C9F35523B1F3951B550B63
:102FB000BB27AA2762177307840738F09F5F5F4F0C
:102FC000220F331F441FAA1FA9F333D00E2E3AF04D
:102FD000E0E830D091505040E695001CCAF729D067
:102FE000FE2F27D0660F771F881FBB1F26173707B6
:102FF0004807AB07B0E809F0BB0B802DBF01FF27E6
:1030000093585F4F2AF09E3F510568F061C0ABC0F6
:103010005F3FECF3983EDCF3869577956795B7951F
:10302000F7959F5FC9F7880F911D9695879597F93A
:103030000895E1E0660F771F881FBB1F62177307B3
:103040008407BA0720F0621B730B840BBA0BEE1FC8
:1030500088F7E0950895E89409C097FB3EF49095B1
:103060008095709561957F4F8F4F9F4F9923A9F061
:10307000F92F96E9BB279395F695879577956795F0
:10308000B795F111F8CFFAF4BB0F11F460FF1BC034
:103090006F5F7F4F8F4F9F4F16C0882311F096E9C7
:1030A00011C0772321F09EE8872F762F05C0662375
:1030B00071F096E8862F70E060E02AF09A95660F2E
:1030C000771F881FDAF7880F9695879597F90895E7
:1030D00097F99F6780E870E060E008959FEF80ECCB
:1030E000089500240A94161617061806090608956E
:1030F00000240A9412161306140605060895092ED4
:103100000394000C11F4882352F0BB0F40F4BF2B42
:1031100011F460FF04C06F5F7F4F8F4F9F4F089582
:1031200057FD9058440F551F59F05F3F71F0479578
:10313000880F97FB991F61F09F3F79F0879508955D
:10314000121613061406551FF2CF4695F1DF08C07C
:10315000161617061806991FF1CF86957105610599
:1031600008940895E894BB2766277727CB0197F941
:1031700008950BD0C4CFB5DF28F0BADF18F095233F
:1031800009F0A6CFABCF1124EECFCADFA0F3959FF5
:10319000D1F3950F50E0551F629FF001729FBB273E
:1031A000F00DB11D639FAA27F00DB11DAA1F649FEA
:1031B0006627B00DA11D661F829F2227B00DA11D9D
:1031C000621F739FB00DA11D621F839FA00D611D23
:1031D000221F749F3327A00D611D231F849F600D44
:1031E000211D822F762F6A2F11249F5750408AF07D
:1031F000E1F088234AF0EE0FFF1FBB1F661F771F09
:10320000881F91505040A9F79E3F510570F060CF44
:10321000AACF5F3FECF3983EDCF3869577956795F0
:10322000B795F795E7959F5FC1F7FE2B880F911D26
:103230009695879597F9089597FB072E16F40094B5
:1032400007D077FD09D00E94711907FC05D03EF424
:10325000909581959F4F0895709561957F4F089542
:10326000A1E21A2EAA1BBB1BFD010DC0AA1FBB1F8A
:10327000EE1FFF1FA217B307E407F50720F0A21BFC
:10328000B30BE40BF50B661F771F881F991F1A9469
:1032900069F760957095809590959B01AC01BD0193
:1032A000CF010895052E97FB1EF400940E94691922
:1032B00057FD07D00E94301907FC03D04EF40C9440
:1032C000691950954095309521953F4F4F4F5F4F6D
:1032D000089590958095709561957F4F8F4F9F4F82
:1032E0000895AA1BBB1B51E107C0AA1FBB1FA6174D
:1032F000B70710F0A61BB70B881F991F5A95A9F79F
:1033000080959095BC01CD010895EE0FFF1F0590AB
:10331000F491E02D09940F931F93CF93DF93869F31
:103320008001879F100D969F100D1124C8010E94E7
:10333000A719EC01009729F0A80160E070E00E9455
:10334000CE1ACE01DF91CF911F910F910895CF93A7
:10335000DF938230910510F482E090E0E091A303C6
:10336000F091A40320E030E0A0E0B0E0309739F124
:103370004081518148175907B8F04817590771F42F
:1033800082819381109729F013969C938E931297C4
:103390002CC09093A4038093A30327C0211531056B
:1033A00031F04217530718F0A901DB0101C0EF010A
:1033B0009A01BD01DF010280F381E02DD7CF2115F5
:1033C0003105F9F0281B390B2430310580F48A814E
:1033D0009B816115710521F0FB019383828304C0F9
:1033E0009093A4038093A303FE01329644C0FE0190
:1033F000E20FF31F8193919322503109398328837F
:103400003AC02091A1033091A203232B41F42091D3
:103410000201309103013093A2032093A103209174
:103420000001309101012115310541F42DB73EB75E
:103430004091040150910501241B350BE091A1033B
:10344000F091A203E217F307A0F42E1B3F0B2817FD
:10345000390778F0AC014E5F5F4F2417350748F00D
:103460004E0F5F1F5093A2034093A103819391934A
:1034700002C0E0E0F0E0CF01DF91CF910895CF935B
:10348000DF93009709F487C0FC0132971382128200
:10349000C091A303D091A403209781F420813181AE
:1034A000280F391F8091A1039091A20382179307DF
:1034B00079F5F093A203E093A1036DC0DE0120E053
:1034C00030E0AE17BF0750F412964D915C91139700
:1034D0009D014115510509F1DA01F3CFB383A283B0
:1034E00040815181840F951F8A179B0771F48D913C
:1034F0009C911197840F951F029691838083129659
:103500008D919C911397938382832115310529F422
:10351000F093A403E093A3033EC0D9011396FC9358
:10352000EE9312974D915D91A40FB51FEA17FB071B
:1035300079F480819181840F951F0296D9011196AB
:103540009C938E938281938113969C938E93129772
:10355000E0E0F0E08A819B81009719F0FE01EC0128
:10356000F9CFCE01029628813981820F931F2091D5
:10357000A1033091A2032817390769F4309729F481
:103580001092A4031092A30302C013821282D0935C
:10359000A203C093A103DF91CF910895DC0101C084
:0E35A0006D9341505040E0F70895F894FFCF2E
:1035AE000000A50380000152656164206661696CAC
:1035BE000001000A006400E8033F065B4F666D7D64
:1035CE00077F6F777C395E797100000000AE108145
:1035DE001027102F104210511000000000F9163A5B
:0A35EE00167B1694168616D71600F9
:00000001FF
